{
	"ccip/RWATokenBridge.sol": {
		"RWATokenBridge": {
			"abi": [
				{
					"inputs": [
						{
							"internalType": "address",
							"name": "_owner",
							"type": "address"
						},
						{
							"internalType": "address",
							"name": "_router",
							"type": "address"
						},
						{
							"internalType": "address",
							"name": "_rwaToken",
							"type": "address"
						},
						{
							"internalType": "address",
							"name": "_linkToken",
							"type": "address"
						}
					],
					"stateMutability": "nonpayable",
					"type": "constructor"
				},
				{
					"inputs": [
						{
							"internalType": "uint64",
							"name": "destinationChainSelector",
							"type": "uint64"
						}
					],
					"name": "DestinationChainNotAllowlisted",
					"type": "error"
				},
				{
					"inputs": [],
					"name": "InvalidAmount",
					"type": "error"
				},
				{
					"inputs": [],
					"name": "InvalidReceiver",
					"type": "error"
				},
				{
					"inputs": [
						{
							"internalType": "uint256",
							"name": "currentBalance",
							"type": "uint256"
						},
						{
							"internalType": "uint256",
							"name": "requiredFee",
							"type": "uint256"
						}
					],
					"name": "NotEnoughLinkFee",
					"type": "error"
				},
				{
					"inputs": [
						{
							"internalType": "uint256",
							"name": "sent",
							"type": "uint256"
						},
						{
							"internalType": "uint256",
							"name": "required",
							"type": "uint256"
						}
					],
					"name": "NotEnoughNativeFee",
					"type": "error"
				},
				{
					"inputs": [
						{
							"internalType": "address",
							"name": "owner",
							"type": "address"
						}
					],
					"name": "OwnableInvalidOwner",
					"type": "error"
				},
				{
					"inputs": [
						{
							"internalType": "address",
							"name": "account",
							"type": "address"
						}
					],
					"name": "OwnableUnauthorizedAccount",
					"type": "error"
				},
				{
					"inputs": [
						{
							"internalType": "address",
							"name": "token",
							"type": "address"
						}
					],
					"name": "SafeERC20FailedOperation",
					"type": "error"
				},
				{
					"anonymous": false,
					"inputs": [
						{
							"indexed": true,
							"internalType": "uint64",
							"name": "destinationChainSelector",
							"type": "uint64"
						},
						{
							"indexed": false,
							"internalType": "bool",
							"name": "allowed",
							"type": "bool"
						}
					],
					"name": "DestinationChainAllowlisted",
					"type": "event"
				},
				{
					"anonymous": false,
					"inputs": [
						{
							"indexed": true,
							"internalType": "address",
							"name": "previousOwner",
							"type": "address"
						},
						{
							"indexed": true,
							"internalType": "address",
							"name": "newOwner",
							"type": "address"
						}
					],
					"name": "OwnershipTransferred",
					"type": "event"
				},
				{
					"anonymous": false,
					"inputs": [
						{
							"indexed": true,
							"internalType": "bytes32",
							"name": "messageId",
							"type": "bytes32"
						},
						{
							"indexed": true,
							"internalType": "uint64",
							"name": "destinationChainSelector",
							"type": "uint64"
						},
						{
							"indexed": true,
							"internalType": "address",
							"name": "sender",
							"type": "address"
						},
						{
							"indexed": false,
							"internalType": "address",
							"name": "receiver",
							"type": "address"
						},
						{
							"indexed": false,
							"internalType": "address",
							"name": "token",
							"type": "address"
						},
						{
							"indexed": false,
							"internalType": "uint256",
							"name": "amount",
							"type": "uint256"
						},
						{
							"indexed": false,
							"internalType": "address",
							"name": "feeToken",
							"type": "address"
						},
						{
							"indexed": false,
							"internalType": "uint256",
							"name": "fee",
							"type": "uint256"
						}
					],
					"name": "TokensSent",
					"type": "event"
				},
				{
					"inputs": [
						{
							"internalType": "uint64",
							"name": "destinationChainSelector",
							"type": "uint64"
						},
						{
							"internalType": "bool",
							"name": "allowed",
							"type": "bool"
						}
					],
					"name": "allowlistDestinationChain",
					"outputs": [],
					"stateMutability": "nonpayable",
					"type": "function"
				},
				{
					"inputs": [
						{
							"internalType": "uint64",
							"name": "",
							"type": "uint64"
						}
					],
					"name": "allowlistedDestinationChains",
					"outputs": [
						{
							"internalType": "bool",
							"name": "",
							"type": "bool"
						}
					],
					"stateMutability": "view",
					"type": "function"
				},
				{
					"inputs": [
						{
							"internalType": "uint64",
							"name": "destinationChainSelector",
							"type": "uint64"
						},
						{
							"internalType": "address",
							"name": "receiver",
							"type": "address"
						},
						{
							"internalType": "uint256",
							"name": "amount",
							"type": "uint256"
						}
					],
					"name": "getFeePayLINK",
					"outputs": [
						{
							"internalType": "uint256",
							"name": "fee",
							"type": "uint256"
						}
					],
					"stateMutability": "view",
					"type": "function"
				},
				{
					"inputs": [
						{
							"internalType": "uint64",
							"name": "destinationChainSelector",
							"type": "uint64"
						},
						{
							"internalType": "address",
							"name": "receiver",
							"type": "address"
						},
						{
							"internalType": "uint256",
							"name": "amount",
							"type": "uint256"
						}
					],
					"name": "getFeePayNative",
					"outputs": [
						{
							"internalType": "uint256",
							"name": "fee",
							"type": "uint256"
						}
					],
					"stateMutability": "view",
					"type": "function"
				},
				{
					"inputs": [],
					"name": "linkToken",
					"outputs": [
						{
							"internalType": "contract IERC20",
							"name": "",
							"type": "address"
						}
					],
					"stateMutability": "view",
					"type": "function"
				},
				{
					"inputs": [],
					"name": "owner",
					"outputs": [
						{
							"internalType": "address",
							"name": "",
							"type": "address"
						}
					],
					"stateMutability": "view",
					"type": "function"
				},
				{
					"inputs": [],
					"name": "renounceOwnership",
					"outputs": [],
					"stateMutability": "nonpayable",
					"type": "function"
				},
				{
					"inputs": [],
					"name": "router",
					"outputs": [
						{
							"internalType": "contract IRouterClient",
							"name": "",
							"type": "address"
						}
					],
					"stateMutability": "view",
					"type": "function"
				},
				{
					"inputs": [],
					"name": "rwaToken",
					"outputs": [
						{
							"internalType": "contract IERC20",
							"name": "",
							"type": "address"
						}
					],
					"stateMutability": "view",
					"type": "function"
				},
				{
					"inputs": [
						{
							"internalType": "uint64",
							"name": "destinationChainSelector",
							"type": "uint64"
						},
						{
							"internalType": "address",
							"name": "receiver",
							"type": "address"
						},
						{
							"internalType": "uint256",
							"name": "amount",
							"type": "uint256"
						}
					],
					"name": "sendTokenPayLINK",
					"outputs": [
						{
							"internalType": "bytes32",
							"name": "messageId",
							"type": "bytes32"
						}
					],
					"stateMutability": "nonpayable",
					"type": "function"
				},
				{
					"inputs": [
						{
							"internalType": "uint64",
							"name": "destinationChainSelector",
							"type": "uint64"
						},
						{
							"internalType": "address",
							"name": "receiver",
							"type": "address"
						},
						{
							"internalType": "uint256",
							"name": "amount",
							"type": "uint256"
						}
					],
					"name": "sendTokenPayNative",
					"outputs": [
						{
							"internalType": "bytes32",
							"name": "messageId",
							"type": "bytes32"
						}
					],
					"stateMutability": "payable",
					"type": "function"
				},
				{
					"inputs": [
						{
							"internalType": "uint64",
							"name": "destinationChainSelector",
							"type": "uint64"
						},
						{
							"internalType": "address",
							"name": "receiver",
							"type": "address"
						},
						{
							"internalType": "uint256",
							"name": "amount",
							"type": "uint256"
						}
					],
					"name": "sendTokenSponsored",
					"outputs": [
						{
							"internalType": "bytes32",
							"name": "messageId",
							"type": "bytes32"
						}
					],
					"stateMutability": "nonpayable",
					"type": "function"
				},
				{
					"inputs": [
						{
							"internalType": "address",
							"name": "newOwner",
							"type": "address"
						}
					],
					"name": "transferOwnership",
					"outputs": [],
					"stateMutability": "nonpayable",
					"type": "function"
				},
				{
					"inputs": [
						{
							"internalType": "address payable",
							"name": "to",
							"type": "address"
						}
					],
					"name": "withdrawNative",
					"outputs": [],
					"stateMutability": "nonpayable",
					"type": "function"
				},
				{
					"inputs": [
						{
							"internalType": "address",
							"name": "token",
							"type": "address"
						},
						{
							"internalType": "address",
							"name": "to",
							"type": "address"
						},
						{
							"internalType": "uint256",
							"name": "amount",
							"type": "uint256"
						}
					],
					"name": "withdrawToken",
					"outputs": [],
					"stateMutability": "nonpayable",
					"type": "function"
				},
				{
					"stateMutability": "payable",
					"type": "receive"
				}
			],
			"devdoc": {
				"errors": {
					"OwnableInvalidOwner(address)": [
						{
							"details": "The owner is not a valid owner account. (eg. `address(0)`)"
						}
					],
					"OwnableUnauthorizedAccount(address)": [
						{
							"details": "The caller account is not authorized to perform an operation."
						}
					],
					"SafeERC20FailedOperation(address)": [
						{
							"details": "An operation with an ERC-20 token failed."
						}
					]
				},
				"kind": "dev",
				"methods": {
					"owner()": {
						"details": "Returns the address of the current owner."
					},
					"renounceOwnership()": {
						"details": "Leaves the contract without owner. It will not be possible to call `onlyOwner` functions. Can only be called by the current owner. NOTE: Renouncing ownership will leave the contract without an owner, thereby disabling any functionality that is only available to the owner."
					},
					"transferOwnership(address)": {
						"details": "Transfers ownership of the contract to a new account (`newOwner`). Can only be called by the current owner."
					}
				},
				"version": 1
			},
			"evm": {
				"assembly": "    /* \"ccip/RWATokenBridge.sol\":459:8184  contract RWATokenBridge is Ownable {... */\n  mstore(0x40, 0xe0)\n    /* \"ccip/RWATokenBridge.sol\":1369:1633  constructor(... */\n  callvalue\n  dup1\n  iszero\n  tag_1\n  jumpi\n  revert(0x00, 0x00)\ntag_1:\n  pop\n  mload(0x40)\n  sub(codesize, bytecodeSize)\n  dup1\n  bytecodeSize\n  dup4\n  codecopy\n  dup2\n  add\n  0x40\n  dup2\n  swap1\n  mstore\n  tag_2\n  swap2\n  tag_3\n  jump\t// in\ntag_2:\n    /* \"ccip/RWATokenBridge.sol\":1499:1505  _owner */\n  dup4\n  sub(shl(0xa0, 0x01), 0x01)\n    /* \"@openzeppelin/contracts/access/Ownable.sol\":1273:1299  initialOwner == address(0) */\n  dup2\n  and\n    /* \"@openzeppelin/contracts/access/Ownable.sol\":1269:1364  if (initialOwner == address(0)) {... */\n  tag_7\n  jumpi\n    /* \"@openzeppelin/contracts/access/Ownable.sol\":1322:1353  OwnableInvalidOwner(address(0)) */\n  mload(0x40)\n  shl(0xe0, 0x1e4fbdf7)\n  dup2\n  mstore\n    /* \"@openzeppelin/contracts/access/Ownable.sol\":1350:1351  0 */\n  0x00\n    /* \"@openzeppelin/contracts/access/Ownable.sol\":1322:1353  OwnableInvalidOwner(address(0)) */\n  0x04\n  dup3\n  add\n    /* \"#utility.yul\":811:862   */\n  mstore\n    /* \"#utility.yul\":784:802   */\n  0x24\n  add\n    /* \"@openzeppelin/contracts/access/Ownable.sol\":1322:1353  OwnableInvalidOwner(address(0)) */\n  mload(0x40)\n  dup1\n  swap2\n  sub\n  swap1\n  revert\n    /* \"@openzeppelin/contracts/access/Ownable.sol\":1269:1364  if (initialOwner == address(0)) {... */\ntag_7:\n    /* \"@openzeppelin/contracts/access/Ownable.sol\":1373:1405  _transferOwnership(initialOwner) */\n  tag_10\n    /* \"@openzeppelin/contracts/access/Ownable.sol\":1392:1404  initialOwner */\n  dup2\n    /* \"@openzeppelin/contracts/access/Ownable.sol\":1373:1391  _transferOwnership */\n  tag_11\n    /* \"@openzeppelin/contracts/access/Ownable.sol\":1373:1405  _transferOwnership(initialOwner) */\n  jump\t// in\ntag_10:\n  pop\n  sub(shl(0xa0, 0x01), 0x01)\n    /* \"ccip/RWATokenBridge.sol\":1517:1548  router = IRouterClient(_router) */\n  swap3\n  dup4\n  and\n  0x80\n  mstore\n    /* \"ccip/RWATokenBridge.sol\":1558:1586  rwaToken = IERC20(_rwaToken) */\n  swap1\n  dup3\n  and\n  0xa0\n  mstore\n    /* \"ccip/RWATokenBridge.sol\":1596:1626  linkToken = IERC20(_linkToken) */\n  and\n  0xc0\n  mstore\n  pop\n    /* \"ccip/RWATokenBridge.sol\":459:8184  contract RWATokenBridge is Ownable {... */\n  jump(tag_16)\n    /* \"@openzeppelin/contracts/access/Ownable.sol\":2912:3099  function _transferOwnership(address newOwner) internal virtual {... */\ntag_11:\n    /* \"@openzeppelin/contracts/access/Ownable.sol\":2985:3001  address oldOwner */\n  0x00\n    /* \"@openzeppelin/contracts/access/Ownable.sol\":3004:3010  _owner */\n  dup1\n  sload\n  sub(shl(0xa0, 0x01), 0x01)\n    /* \"@openzeppelin/contracts/access/Ownable.sol\":3020:3037  _owner = newOwner */\n  dup4\n  dup2\n  and\n  not(sub(shl(0xa0, 0x01), 0x01))\n  dup4\n  and\n  dup2\n  or\n  dup5\n  sstore\n    /* \"@openzeppelin/contracts/access/Ownable.sol\":3052:3092  OwnershipTransferred(oldOwner, newOwner) */\n  mload(0x40)\n    /* \"@openzeppelin/contracts/access/Ownable.sol\":3004:3010  _owner */\n  swap2\n  swap1\n  swap3\n  and\n  swap3\n  dup4\n  swap2\n    /* \"@openzeppelin/contracts/access/Ownable.sol\":3052:3092  OwnershipTransferred(oldOwner, newOwner) */\n  0x8be0079c531659141344cd1fd0a4f28419497f9722a3daafe3b4186f6b6457e0\n  swap2\n    /* \"@openzeppelin/contracts/access/Ownable.sol\":2985:3001  address oldOwner */\n  swap1\n    /* \"@openzeppelin/contracts/access/Ownable.sol\":3052:3092  OwnershipTransferred(oldOwner, newOwner) */\n  log3\n    /* \"@openzeppelin/contracts/access/Ownable.sol\":2975:3099  {... */\n  pop\n    /* \"@openzeppelin/contracts/access/Ownable.sol\":2912:3099  function _transferOwnership(address newOwner) internal virtual {... */\n  pop\n  jump\t// out\n    /* \"#utility.yul\":14:191   */\ntag_15:\n    /* \"#utility.yul\":93:106   */\n  dup1\n  mload\n  sub(shl(0xa0, 0x01), 0x01)\n    /* \"#utility.yul\":135:166   */\n  dup2\n  and\n    /* \"#utility.yul\":125:167   */\n  dup2\n  eq\n    /* \"#utility.yul\":115:185   */\n  tag_18\n  jumpi\n    /* \"#utility.yul\":181:182   */\n  0x00\n    /* \"#utility.yul\":178:179   */\n  0x00\n    /* \"#utility.yul\":171:183   */\n  revert\n    /* \"#utility.yul\":115:185   */\ntag_18:\n    /* \"#utility.yul\":14:191   */\n  swap2\n  swap1\n  pop\n  jump\t// out\n    /* \"#utility.yul\":196:660   */\ntag_3:\n    /* \"#utility.yul\":293:299   */\n  0x00\n    /* \"#utility.yul\":301:307   */\n  0x00\n    /* \"#utility.yul\":309:315   */\n  0x00\n    /* \"#utility.yul\":317:323   */\n  0x00\n    /* \"#utility.yul\":370:373   */\n  0x80\n    /* \"#utility.yul\":358:367   */\n  dup6\n    /* \"#utility.yul\":349:356   */\n  dup8\n    /* \"#utility.yul\":345:368   */\n  sub\n    /* \"#utility.yul\":341:374   */\n  slt\n    /* \"#utility.yul\":338:391   */\n  iszero\n  tag_20\n  jumpi\n    /* \"#utility.yul\":387:388   */\n  0x00\n    /* \"#utility.yul\":384:385   */\n  0x00\n    /* \"#utility.yul\":377:389   */\n  revert\n    /* \"#utility.yul\":338:391   */\ntag_20:\n    /* \"#utility.yul\":410:450   */\n  tag_21\n    /* \"#utility.yul\":440:449   */\n  dup6\n    /* \"#utility.yul\":410:450   */\n  tag_15\n  jump\t// in\ntag_21:\n    /* \"#utility.yul\":400:450   */\n  swap4\n  pop\n    /* \"#utility.yul\":469:518   */\n  tag_22\n    /* \"#utility.yul\":514:516   */\n  0x20\n    /* \"#utility.yul\":503:512   */\n  dup7\n    /* \"#utility.yul\":499:517   */\n  add\n    /* \"#utility.yul\":469:518   */\n  tag_15\n  jump\t// in\ntag_22:\n    /* \"#utility.yul\":459:518   */\n  swap3\n  pop\n    /* \"#utility.yul\":537:586   */\n  tag_23\n    /* \"#utility.yul\":582:584   */\n  0x40\n    /* \"#utility.yul\":571:580   */\n  dup7\n    /* \"#utility.yul\":567:585   */\n  add\n    /* \"#utility.yul\":537:586   */\n  tag_15\n  jump\t// in\ntag_23:\n    /* \"#utility.yul\":527:586   */\n  swap2\n  pop\n    /* \"#utility.yul\":605:654   */\n  tag_24\n    /* \"#utility.yul\":650:652   */\n  0x60\n    /* \"#utility.yul\":639:648   */\n  dup7\n    /* \"#utility.yul\":635:653   */\n  add\n    /* \"#utility.yul\":605:654   */\n  tag_15\n  jump\t// in\ntag_24:\n    /* \"#utility.yul\":595:654   */\n  swap1\n  pop\n    /* \"#utility.yul\":196:660   */\n  swap3\n  swap6\n  swap2\n  swap5\n  pop\n  swap3\n  pop\n  jump\t// out\n    /* \"#utility.yul\":665:868   */\ntag_16:\n    /* \"ccip/RWATokenBridge.sol\":459:8184  contract RWATokenBridge is Ownable {... */\n  mload(0x80)\n  mload(0xa0)\n  mload(0xc0)\n  codecopy(0x00, dataOffset(sub_0), dataSize(sub_0))\n  0x00\n  assignImmutable(\"0xae7d027a27a067b0ce216b860399a31145ba05bee5d36a5aedd4d9d773c92c99\")\n  0x00\n  assignImmutable(\"0xea1c3a463a334d4502a6bc7c1ce6676ab071cb26e08d8d603278a360d97dc14c\")\n  0x00\n  assignImmutable(\"0x9b67abc7a7f76ccc26ad76abed83eb7d77aa7a9a12352409554da899fc785375\")\n  return(0x00, dataSize(sub_0))\nstop\n\nsub_0: assembly {\n        /* \"ccip/RWATokenBridge.sol\":459:8184  contract RWATokenBridge is Ownable {... */\n      mstore(0x40, 0x80)\n      jumpi(tag_1, lt(calldatasize, 0x04))\n      shr(0xe0, calldataload(0x00))\n      dup1\n      0x75c67c66\n      gt\n      tag_18\n      jumpi\n      dup1\n      0xacf69e27\n      gt\n      tag_19\n      jumpi\n      dup1\n      0xacf69e27\n      eq\n      tag_14\n      jumpi\n      dup1\n      0xb04cc8b1\n      eq\n      tag_15\n      jumpi\n      dup1\n      0xf2fde38b\n      eq\n      tag_16\n      jumpi\n      dup1\n      0xf887ea40\n      eq\n      tag_17\n      jumpi\n      revert(0x00, 0x00)\n    tag_19:\n      dup1\n      0x75c67c66\n      eq\n      tag_10\n      jumpi\n      dup1\n      0x889d5a82\n      eq\n      tag_11\n      jumpi\n      dup1\n      0x8da5cb5b\n      eq\n      tag_12\n      jumpi\n      dup1\n      0x96d3b83d\n      eq\n      tag_13\n      jumpi\n      revert(0x00, 0x00)\n    tag_18:\n      dup1\n      0x2f622e6b\n      gt\n      tag_20\n      jumpi\n      dup1\n      0x2f622e6b\n      eq\n      tag_6\n      jumpi\n      dup1\n      0x57970e93\n      eq\n      tag_7\n      jumpi\n      dup1\n      0x6108d8ee\n      eq\n      tag_8\n      jumpi\n      dup1\n      0x715018a6\n      eq\n      tag_9\n      jumpi\n      revert(0x00, 0x00)\n    tag_20:\n      dup1\n      0x01e33667\n      eq\n      tag_3\n      jumpi\n      dup1\n      0x0c5bf351\n      eq\n      tag_4\n      jumpi\n      dup1\n      0x2cb49f53\n      eq\n      tag_5\n      jumpi\n      revert(0x00, 0x00)\n    tag_1:\n      jumpi(tag_2, calldatasize)\n      stop\n    tag_2:\n      revert(0x00, 0x00)\n        /* \"ccip/RWATokenBridge.sol\":8012:8182  function withdrawToken(... */\n    tag_3:\n      callvalue\n      dup1\n      iszero\n      tag_23\n      jumpi\n      revert(0x00, 0x00)\n    tag_23:\n      pop\n      tag_24\n      tag_25\n      calldatasize\n      0x04\n      tag_26\n      jump\t// in\n    tag_25:\n      tag_27\n      jump\t// in\n    tag_24:\n      stop\n        /* \"ccip/RWATokenBridge.sol\":1225:1257  IERC20 public immutable rwaToken */\n    tag_4:\n      callvalue\n      dup1\n      iszero\n      tag_28\n      jumpi\n      revert(0x00, 0x00)\n    tag_28:\n      pop\n      tag_29\n      immutable(\"0xea1c3a463a334d4502a6bc7c1ce6676ab071cb26e08d8d603278a360d97dc14c\")\n      dup2\n      jump\n    tag_29:\n      mload(0x40)\n      sub(shl(0xa0, 0x01), 0x01)\n        /* \"#utility.yul\":864:919   */\n      swap1\n      swap2\n      and\n        /* \"#utility.yul\":846:920   */\n      dup2\n      mstore\n        /* \"#utility.yul\":834:836   */\n      0x20\n        /* \"#utility.yul\":819:837   */\n      add\n        /* \"ccip/RWATokenBridge.sol\":1225:1257  IERC20 public immutable rwaToken */\n    tag_31:\n      mload(0x40)\n      dup1\n      swap2\n      sub\n      swap1\n      return\n        /* \"ccip/RWATokenBridge.sol\":1962:3493  function sendTokenSponsored(... */\n    tag_5:\n      callvalue\n      dup1\n      iszero\n      tag_33\n      jumpi\n      revert(0x00, 0x00)\n    tag_33:\n      pop\n      tag_34\n      tag_35\n      calldatasize\n      0x04\n      tag_36\n      jump\t// in\n    tag_35:\n      tag_37\n      jump\t// in\n    tag_34:\n      mload(0x40)\n        /* \"#utility.yul\":1697:1722   */\n      swap1\n      dup2\n      mstore\n        /* \"#utility.yul\":1685:1687   */\n      0x20\n        /* \"#utility.yul\":1670:1688   */\n      add\n        /* \"ccip/RWATokenBridge.sol\":1962:3493  function sendTokenSponsored(... */\n      tag_31\n        /* \"#utility.yul\":1551:1728   */\n      jump\n        /* \"ccip/RWATokenBridge.sol\":7820:8006  function withdrawNative(address payable to) external onlyOwner {... */\n    tag_6:\n      callvalue\n      dup1\n      iszero\n      tag_40\n      jumpi\n      revert(0x00, 0x00)\n    tag_40:\n      pop\n      tag_24\n      tag_42\n      calldatasize\n      0x04\n      tag_43\n      jump\t// in\n    tag_42:\n      tag_44\n      jump\t// in\n        /* \"ccip/RWATokenBridge.sol\":1263:1296  IERC20 public immutable linkToken */\n    tag_7:\n      callvalue\n      dup1\n      iszero\n      tag_45\n      jumpi\n      revert(0x00, 0x00)\n    tag_45:\n      pop\n      tag_29\n      immutable(\"0xae7d027a27a067b0ce216b860399a31145ba05bee5d36a5aedd4d9d773c92c99\")\n      dup2\n      jump\n        /* \"ccip/RWATokenBridge.sol\":6330:6699  function getFeePayNative(... */\n    tag_8:\n      callvalue\n      dup1\n      iszero\n      tag_49\n      jumpi\n      revert(0x00, 0x00)\n    tag_49:\n      pop\n      tag_34\n      tag_51\n      calldatasize\n      0x04\n      tag_36\n      jump\t// in\n    tag_51:\n      tag_52\n      jump\t// in\n        /* \"@openzeppelin/contracts/access/Ownable.sol\":2293:2394  function renounceOwnership() public virtual onlyOwner {... */\n    tag_9:\n      callvalue\n      dup1\n      iszero\n      tag_55\n      jumpi\n      revert(0x00, 0x00)\n    tag_55:\n      pop\n      tag_24\n      tag_57\n      jump\t// in\n        /* \"ccip/RWATokenBridge.sol\":1303:1362  mapping(uint64 => bool) public allowlistedDestinationChains */\n    tag_10:\n      callvalue\n      dup1\n      iszero\n      tag_58\n      jumpi\n      revert(0x00, 0x00)\n    tag_58:\n      pop\n      tag_59\n      tag_60\n      calldatasize\n      0x04\n      tag_61\n      jump\t// in\n    tag_60:\n      mstore(0x20, 0x01)\n      0x00\n      swap1\n      dup2\n      mstore\n      0x40\n      swap1\n      keccak256\n      sload\n      0xff\n      and\n      dup2\n      jump\n    tag_59:\n      mload(0x40)\n        /* \"#utility.yul\":2529:2543   */\n      swap1\n      iszero\n        /* \"#utility.yul\":2522:2544   */\n      iszero\n        /* \"#utility.yul\":2504:2545   */\n      dup2\n      mstore\n        /* \"#utility.yul\":2492:2494   */\n      0x20\n        /* \"#utility.yul\":2477:2495   */\n      add\n        /* \"ccip/RWATokenBridge.sol\":1303:1362  mapping(uint64 => bool) public allowlistedDestinationChains */\n      tag_31\n        /* \"#utility.yul\":2364:2551   */\n      jump\n        /* \"ccip/RWATokenBridge.sol\":5025:6324  function sendTokenPayLINK(... */\n    tag_11:\n      callvalue\n      dup1\n      iszero\n      tag_65\n      jumpi\n      revert(0x00, 0x00)\n    tag_65:\n      pop\n      tag_34\n      tag_67\n      calldatasize\n      0x04\n      tag_36\n      jump\t// in\n    tag_67:\n      tag_68\n      jump\t// in\n        /* \"@openzeppelin/contracts/access/Ownable.sol\":1638:1723  function owner() public view virtual returns (address) {... */\n    tag_12:\n      callvalue\n      dup1\n      iszero\n      tag_70\n      jumpi\n      revert(0x00, 0x00)\n    tag_70:\n      pop\n        /* \"@openzeppelin/contracts/access/Ownable.sol\":1684:1691  address */\n      0x00\n        /* \"@openzeppelin/contracts/access/Ownable.sol\":1710:1716  _owner */\n      sload\n      sub(shl(0xa0, 0x01), 0x01)\n      and\n        /* \"@openzeppelin/contracts/access/Ownable.sol\":1638:1723  function owner() public view virtual returns (address) {... */\n      jump(tag_29)\n        /* \"ccip/RWATokenBridge.sol\":1674:1956  function allowlistDestinationChain(... */\n    tag_13:\n      callvalue\n      dup1\n      iszero\n      tag_75\n      jumpi\n      revert(0x00, 0x00)\n    tag_75:\n      pop\n      tag_24\n      tag_77\n      calldatasize\n      0x04\n      tag_78\n      jump\t// in\n    tag_77:\n      tag_79\n      jump\t// in\n        /* \"ccip/RWATokenBridge.sol\":6705:7080  function getFeePayLINK(... */\n    tag_14:\n      callvalue\n      dup1\n      iszero\n      tag_80\n      jumpi\n      revert(0x00, 0x00)\n    tag_80:\n      pop\n      tag_34\n      tag_82\n      calldatasize\n      0x04\n      tag_36\n      jump\t// in\n    tag_82:\n      tag_83\n      jump\t// in\n        /* \"ccip/RWATokenBridge.sol\":3499:5019  function sendTokenPayNative(... */\n    tag_15:\n      tag_34\n      tag_86\n      calldatasize\n      0x04\n      tag_36\n      jump\t// in\n    tag_86:\n      tag_87\n      jump\t// in\n        /* \"@openzeppelin/contracts/access/Ownable.sol\":2543:2758  function transferOwnership(address newOwner) public virtual onlyOwner {... */\n    tag_16:\n      callvalue\n      dup1\n      iszero\n      tag_89\n      jumpi\n      revert(0x00, 0x00)\n    tag_89:\n      pop\n      tag_24\n      tag_91\n      calldatasize\n      0x04\n      tag_43\n      jump\t// in\n    tag_91:\n      tag_93\n      jump\t// in\n        /* \"ccip/RWATokenBridge.sol\":1182:1219  IRouterClient public immutable router */\n    tag_17:\n      callvalue\n      dup1\n      iszero\n      tag_94\n      jumpi\n      revert(0x00, 0x00)\n    tag_94:\n      pop\n      tag_29\n      immutable(\"0x9b67abc7a7f76ccc26ad76abed83eb7d77aa7a9a12352409554da899fc785375\")\n      dup2\n      jump\n        /* \"ccip/RWATokenBridge.sol\":8012:8182  function withdrawToken(... */\n    tag_27:\n        /* \"@openzeppelin/contracts/access/Ownable.sol\":1531:1544  _checkOwner() */\n      tag_100\n        /* \"@openzeppelin/contracts/access/Ownable.sol\":1531:1542  _checkOwner */\n      tag_101\n        /* \"@openzeppelin/contracts/access/Ownable.sol\":1531:1544  _checkOwner() */\n      jump\t// in\n    tag_100:\n        /* \"ccip/RWATokenBridge.sol\":8137:8175  IERC20(token).safeTransfer(to, amount) */\n      tag_103\n      sub(shl(0xa0, 0x01), 0x01)\n        /* \"ccip/RWATokenBridge.sol\":8137:8163  IERC20(token).safeTransfer */\n      dup5\n      and\n        /* \"ccip/RWATokenBridge.sol\":8164:8166  to */\n      dup4\n        /* \"ccip/RWATokenBridge.sol\":8168:8174  amount */\n      dup4\n        /* \"ccip/RWATokenBridge.sol\":8137:8163  IERC20(token).safeTransfer */\n      tag_104\n        /* \"ccip/RWATokenBridge.sol\":8137:8175  IERC20(token).safeTransfer(to, amount) */\n      jump\t// in\n    tag_103:\n        /* \"ccip/RWATokenBridge.sol\":8012:8182  function withdrawToken(... */\n      pop\n      pop\n      pop\n      jump\t// out\n        /* \"ccip/RWATokenBridge.sol\":1962:3493  function sendTokenSponsored(... */\n    tag_37:\n        /* \"ccip/RWATokenBridge.sol\":2139:2193  allowlistedDestinationChains[destinationChainSelector] */\n      0xffffffffffffffff\n      dup4\n      and\n        /* \"ccip/RWATokenBridge.sol\":2105:2122  bytes32 messageId */\n      0x00\n        /* \"ccip/RWATokenBridge.sol\":2139:2193  allowlistedDestinationChains[destinationChainSelector] */\n      swap1\n      dup2\n      mstore\n        /* \"ccip/RWATokenBridge.sol\":2139:2167  allowlistedDestinationChains */\n      0x01\n        /* \"ccip/RWATokenBridge.sol\":2139:2193  allowlistedDestinationChains[destinationChainSelector] */\n      0x20\n      mstore\n      0x40\n      dup2\n      keccak256\n      sload\n      0xff\n      and\n        /* \"ccip/RWATokenBridge.sol\":2134:2283  if (!allowlistedDestinationChains[destinationChainSelector]) {... */\n      tag_106\n      jumpi\n        /* \"ccip/RWATokenBridge.sol\":2216:2272  DestinationChainNotAllowlisted(destinationChainSelector) */\n      mload(0x40)\n      shl(0xe0, 0x0a503cdb)\n      dup2\n      mstore\n        /* \"#utility.yul\":3946:3964   */\n      0xffffffffffffffff\n        /* \"#utility.yul\":3934:3965   */\n      dup6\n      and\n        /* \"ccip/RWATokenBridge.sol\":2216:2272  DestinationChainNotAllowlisted(destinationChainSelector) */\n      0x04\n      dup3\n      add\n        /* \"#utility.yul\":3916:3966   */\n      mstore\n        /* \"#utility.yul\":3889:3907   */\n      0x24\n      add\n        /* \"ccip/RWATokenBridge.sol\":2216:2272  DestinationChainNotAllowlisted(destinationChainSelector) */\n    tag_107:\n      mload(0x40)\n      dup1\n      swap2\n      sub\n      swap1\n      revert\n        /* \"ccip/RWATokenBridge.sol\":2134:2283  if (!allowlistedDestinationChains[destinationChainSelector]) {... */\n    tag_106:\n      sub(shl(0xa0, 0x01), 0x01)\n        /* \"ccip/RWATokenBridge.sol\":2297:2319  receiver == address(0) */\n      dup4\n      and\n        /* \"ccip/RWATokenBridge.sol\":2293:2370  if (receiver == address(0)) {... */\n      tag_109\n      jumpi\n        /* \"ccip/RWATokenBridge.sol\":2342:2359  InvalidReceiver() */\n      mload(0x40)\n      shl(0xe0, 0x1e4ec46b)\n      dup2\n      mstore\n      0x04\n      add\n      mload(0x40)\n      dup1\n      swap2\n      sub\n      swap1\n      revert\n        /* \"ccip/RWATokenBridge.sol\":2293:2370  if (receiver == address(0)) {... */\n    tag_109:\n        /* \"ccip/RWATokenBridge.sol\":2384:2390  amount */\n      dup2\n        /* \"ccip/RWATokenBridge.sol\":2394:2395  0 */\n      0x00\n        /* \"ccip/RWATokenBridge.sol\":2384:2395  amount == 0 */\n      sub\n        /* \"ccip/RWATokenBridge.sol\":2380:2444  if (amount == 0) {... */\n      tag_110\n      jumpi\n        /* \"ccip/RWATokenBridge.sol\":2418:2433  InvalidAmount() */\n      mload(0x40)\n      shl(0xe1, 0x162908e3)\n      dup2\n      mstore\n      0x04\n      add\n      mload(0x40)\n      dup1\n      swap2\n      sub\n      swap1\n      revert\n        /* \"ccip/RWATokenBridge.sol\":2380:2444  if (amount == 0) {... */\n    tag_110:\n        /* \"ccip/RWATokenBridge.sol\":2454:2490  Client.EVM2AnyMessage memory message */\n      0x00\n        /* \"ccip/RWATokenBridge.sol\":2493:2590  _buildMessage(... */\n      tag_111\n        /* \"ccip/RWATokenBridge.sol\":2520:2528  receiver */\n      dup5\n        /* \"ccip/RWATokenBridge.sol\":2542:2548  amount */\n      dup5\n        /* \"ccip/RWATokenBridge.sol\":2570:2579  linkToken */\n      immutable(\"0xae7d027a27a067b0ce216b860399a31145ba05bee5d36a5aedd4d9d773c92c99\")\n        /* \"ccip/RWATokenBridge.sol\":2493:2506  _buildMessage */\n      tag_112\n        /* \"ccip/RWATokenBridge.sol\":2493:2590  _buildMessage(... */\n      jump\t// in\n    tag_111:\n        /* \"ccip/RWATokenBridge.sol\":2454:2590  Client.EVM2AnyMessage memory message = _buildMessage(... */\n      swap1\n      pop\n        /* \"ccip/RWATokenBridge.sol\":2601:2612  uint256 fee */\n      0x00\n        /* \"ccip/RWATokenBridge.sol\":2615:2621  router */\n      immutable(\"0x9b67abc7a7f76ccc26ad76abed83eb7d77aa7a9a12352409554da899fc785375\")\n      sub(shl(0xa0, 0x01), 0x01)\n        /* \"ccip/RWATokenBridge.sol\":2615:2628  router.getFee */\n      and\n      0x20487ded\n        /* \"ccip/RWATokenBridge.sol\":2629:2653  destinationChainSelector */\n      dup8\n        /* \"ccip/RWATokenBridge.sol\":2655:2662  message */\n      dup5\n        /* \"ccip/RWATokenBridge.sol\":2615:2663  router.getFee(destinationChainSelector, message) */\n      mload(0x40)\n      dup4\n      0xffffffff\n      and\n      0xe0\n      shl\n      dup2\n      mstore\n      0x04\n      add\n      tag_113\n      swap3\n      swap2\n      swap1\n      tag_114\n      jump\t// in\n    tag_113:\n      0x20\n      mload(0x40)\n      dup1\n      dup4\n      sub\n      dup2\n      dup7\n      gas\n      staticcall\n      iszero\n      dup1\n      iszero\n      tag_116\n      jumpi\n      returndatacopy(0x00, 0x00, returndatasize)\n      revert(0x00, returndatasize)\n    tag_116:\n      pop\n      pop\n      pop\n      pop\n      mload(0x40)\n      returndatasize\n      not(0x1f)\n      0x1f\n      dup3\n      add\n      and\n      dup3\n      add\n      dup1\n      0x40\n      mstore\n      pop\n      dup2\n      add\n      swap1\n      tag_117\n      swap2\n      swap1\n      tag_118\n      jump\t// in\n    tag_117:\n        /* \"ccip/RWATokenBridge.sol\":2703:2737  linkToken.balanceOf(address(this)) */\n      mload(0x40)\n      0x70a0823100000000000000000000000000000000000000000000000000000000\n      dup2\n      mstore\n        /* \"ccip/RWATokenBridge.sol\":2731:2735  this */\n      address\n        /* \"ccip/RWATokenBridge.sol\":2703:2737  linkToken.balanceOf(address(this)) */\n      0x04\n      dup3\n      add\n        /* \"#utility.yul\":846:920   */\n      mstore\n        /* \"ccip/RWATokenBridge.sol\":2601:2663  uint256 fee = router.getFee(destinationChainSelector, message) */\n      swap1\n      swap2\n      pop\n        /* \"ccip/RWATokenBridge.sol\":2674:2700  uint256 currentLinkBalance */\n      0x00\n      swap1\n      sub(shl(0xa0, 0x01), 0x01)\n        /* \"ccip/RWATokenBridge.sol\":2703:2712  linkToken */\n      immutable(\"0xae7d027a27a067b0ce216b860399a31145ba05bee5d36a5aedd4d9d773c92c99\")\n        /* \"ccip/RWATokenBridge.sol\":2703:2722  linkToken.balanceOf */\n      and\n      swap1\n      0x70a08231\n      swap1\n        /* \"#utility.yul\":819:837   */\n      0x24\n      add\n        /* \"ccip/RWATokenBridge.sol\":2703:2737  linkToken.balanceOf(address(this)) */\n      0x20\n      mload(0x40)\n      dup1\n      dup4\n      sub\n      dup2\n      dup7\n      gas\n      staticcall\n      iszero\n      dup1\n      iszero\n      tag_121\n      jumpi\n      returndatacopy(0x00, 0x00, returndatasize)\n      revert(0x00, returndatasize)\n    tag_121:\n      pop\n      pop\n      pop\n      pop\n      mload(0x40)\n      returndatasize\n      not(0x1f)\n      0x1f\n      dup3\n      add\n      and\n      dup3\n      add\n      dup1\n      0x40\n      mstore\n      pop\n      dup2\n      add\n      swap1\n      tag_122\n      swap2\n      swap1\n      tag_118\n      jump\t// in\n    tag_122:\n        /* \"ccip/RWATokenBridge.sol\":2674:2737  uint256 currentLinkBalance = linkToken.balanceOf(address(this)) */\n      swap1\n      pop\n        /* \"ccip/RWATokenBridge.sol\":2773:2776  fee */\n      dup2\n        /* \"ccip/RWATokenBridge.sol\":2752:2770  currentLinkBalance */\n      dup2\n        /* \"ccip/RWATokenBridge.sol\":2752:2776  currentLinkBalance < fee */\n      lt\n        /* \"ccip/RWATokenBridge.sol\":2748:2851  if (currentLinkBalance < fee) {... */\n      iszero\n      tag_123\n      jumpi\n        /* \"ccip/RWATokenBridge.sol\":2799:2840  NotEnoughLinkFee(currentLinkBalance, fee) */\n      mload(0x40)\n      0x363e016300000000000000000000000000000000000000000000000000000000\n      dup2\n      mstore\n      0x04\n      dup2\n      add\n        /* \"#utility.yul\":6209:6234   */\n      dup3\n      swap1\n      mstore\n        /* \"#utility.yul\":6250:6268   */\n      0x24\n      dup2\n      add\n        /* \"#utility.yul\":6243:6277   */\n      dup4\n      swap1\n      mstore\n        /* \"#utility.yul\":6182:6200   */\n      0x44\n      add\n        /* \"ccip/RWATokenBridge.sol\":2799:2840  NotEnoughLinkFee(currentLinkBalance, fee) */\n      tag_107\n        /* \"#utility.yul\":6035:6283   */\n      jump\n        /* \"ccip/RWATokenBridge.sol\":2748:2851  if (currentLinkBalance < fee) {... */\n    tag_123:\n        /* \"ccip/RWATokenBridge.sol\":2895:2955  rwaToken.safeTransferFrom(msg.sender, address(this), amount) */\n      tag_126\n      sub(shl(0xa0, 0x01), 0x01)\n        /* \"ccip/RWATokenBridge.sol\":2895:2903  rwaToken */\n      immutable(\"0xea1c3a463a334d4502a6bc7c1ce6676ab071cb26e08d8d603278a360d97dc14c\")\n        /* \"ccip/RWATokenBridge.sol\":2895:2920  rwaToken.safeTransferFrom */\n      and\n        /* \"ccip/RWATokenBridge.sol\":2921:2931  msg.sender */\n      caller\n        /* \"ccip/RWATokenBridge.sol\":2941:2945  this */\n      address\n        /* \"ccip/RWATokenBridge.sol\":2948:2954  amount */\n      dup9\n        /* \"ccip/RWATokenBridge.sol\":2895:2920  rwaToken.safeTransferFrom */\n      tag_127\n        /* \"ccip/RWATokenBridge.sol\":2895:2955  rwaToken.safeTransferFrom(msg.sender, address(this), amount) */\n      jump\t// in\n    tag_126:\n        /* \"ccip/RWATokenBridge.sol\":3043:3089  rwaToken.forceApprove(address(router), amount) */\n      tag_128\n      sub(shl(0xa0, 0x01), 0x01)\n        /* \"ccip/RWATokenBridge.sol\":3043:3051  rwaToken */\n      immutable(\"0xea1c3a463a334d4502a6bc7c1ce6676ab071cb26e08d8d603278a360d97dc14c\")\n        /* \"ccip/RWATokenBridge.sol\":3043:3064  rwaToken.forceApprove */\n      and\n        /* \"ccip/RWATokenBridge.sol\":3073:3079  router */\n      immutable(\"0x9b67abc7a7f76ccc26ad76abed83eb7d77aa7a9a12352409554da899fc785375\")\n        /* \"ccip/RWATokenBridge.sol\":3082:3088  amount */\n      dup8\n        /* \"ccip/RWATokenBridge.sol\":3043:3064  rwaToken.forceApprove */\n      tag_129\n        /* \"ccip/RWATokenBridge.sol\":3043:3089  rwaToken.forceApprove(address(router), amount) */\n      jump\t// in\n    tag_128:\n        /* \"ccip/RWATokenBridge.sol\":3099:3143  linkToken.forceApprove(address(router), fee) */\n      tag_130\n      sub(shl(0xa0, 0x01), 0x01)\n        /* \"ccip/RWATokenBridge.sol\":3099:3108  linkToken */\n      immutable(\"0xae7d027a27a067b0ce216b860399a31145ba05bee5d36a5aedd4d9d773c92c99\")\n        /* \"ccip/RWATokenBridge.sol\":3099:3121  linkToken.forceApprove */\n      and\n        /* \"ccip/RWATokenBridge.sol\":3130:3136  router */\n      immutable(\"0x9b67abc7a7f76ccc26ad76abed83eb7d77aa7a9a12352409554da899fc785375\")\n        /* \"ccip/RWATokenBridge.sol\":3139:3142  fee */\n      dup5\n        /* \"ccip/RWATokenBridge.sol\":3099:3121  linkToken.forceApprove */\n      tag_129\n        /* \"ccip/RWATokenBridge.sol\":3099:3143  linkToken.forceApprove(address(router), fee) */\n      jump\t// in\n    tag_130:\n        /* \"ccip/RWATokenBridge.sol\":3166:3216  router.ccipSend(destinationChainSelector, message) */\n      mload(0x40)\n      shl(0xe0, 0x96f4e9f9)\n      dup2\n      mstore\n      sub(shl(0xa0, 0x01), 0x01)\n        /* \"ccip/RWATokenBridge.sol\":3166:3172  router */\n      immutable(\"0x9b67abc7a7f76ccc26ad76abed83eb7d77aa7a9a12352409554da899fc785375\")\n        /* \"ccip/RWATokenBridge.sol\":3166:3181  router.ccipSend */\n      and\n      swap1\n      0x96f4e9f9\n      swap1\n        /* \"ccip/RWATokenBridge.sol\":3166:3216  router.ccipSend(destinationChainSelector, message) */\n      tag_131\n      swap1\n        /* \"ccip/RWATokenBridge.sol\":3182:3206  destinationChainSelector */\n      dup11\n      swap1\n        /* \"ccip/RWATokenBridge.sol\":3208:3215  message */\n      dup8\n      swap1\n        /* \"ccip/RWATokenBridge.sol\":3166:3216  router.ccipSend(destinationChainSelector, message) */\n      0x04\n      add\n      tag_114\n      jump\t// in\n    tag_131:\n      0x20\n      mload(0x40)\n      dup1\n      dup4\n      sub\n      dup2\n      0x00\n      dup8\n      gas\n      call\n      iszero\n      dup1\n      iszero\n      tag_133\n      jumpi\n      returndatacopy(0x00, 0x00, returndatasize)\n      revert(0x00, returndatasize)\n    tag_133:\n      pop\n      pop\n      pop\n      pop\n      mload(0x40)\n      returndatasize\n      not(0x1f)\n      0x1f\n      dup3\n      add\n      and\n      dup3\n      add\n      dup1\n      0x40\n      mstore\n      pop\n      dup2\n      add\n      swap1\n      tag_134\n      swap2\n      swap1\n      tag_118\n      jump\t// in\n    tag_134:\n        /* \"ccip/RWATokenBridge.sol\":3232:3459  TokensSent(... */\n      0x40\n      dup1\n      mload\n      sub(shl(0xa0, 0x01), 0x01)\n        /* \"#utility.yul\":6754:6809   */\n      dup10\n      dup2\n      and\n        /* \"#utility.yul\":6736:6810   */\n      dup3\n      mstore\n        /* \"ccip/RWATokenBridge.sol\":3371:3379  rwaToken */\n      immutable(\"0xea1c3a463a334d4502a6bc7c1ce6676ab071cb26e08d8d603278a360d97dc14c\")\n        /* \"#utility.yul\":6846:6901   */\n      dup2\n      and\n        /* \"#utility.yul\":6841:6843   */\n      0x20\n        /* \"#utility.yul\":6826:6844   */\n      dup4\n      add\n        /* \"#utility.yul\":6819:6902   */\n      mstore\n        /* \"#utility.yul\":6918:6936   */\n      dup2\n      dup4\n      add\n        /* \"#utility.yul\":6911:6945   */\n      dup10\n      swap1\n      mstore\n        /* \"ccip/RWATokenBridge.sol\":3422:3431  linkToken */\n      immutable(\"0xae7d027a27a067b0ce216b860399a31145ba05bee5d36a5aedd4d9d773c92c99\")\n        /* \"#utility.yul\":6981:7036   */\n      and\n        /* \"#utility.yul\":6976:6978   */\n      0x60\n        /* \"#utility.yul\":6961:6979   */\n      dup3\n      add\n        /* \"#utility.yul\":6954:7037   */\n      mstore\n        /* \"#utility.yul\":7068:7071   */\n      0x80\n        /* \"#utility.yul\":7053:7072   */\n      dup2\n      add\n        /* \"#utility.yul\":7046:7081   */\n      dup6\n      swap1\n      mstore\n        /* \"ccip/RWATokenBridge.sol\":3232:3459  TokensSent(... */\n      swap1\n      mload\n        /* \"ccip/RWATokenBridge.sol\":3154:3216  messageId = router.ccipSend(destinationChainSelector, message) */\n      swap2\n      swap6\n      pop\n        /* \"ccip/RWATokenBridge.sol\":3317:3327  msg.sender */\n      caller\n      swap2\n        /* \"ccip/RWATokenBridge.sol\":3232:3459  TokensSent(... */\n      0xffffffffffffffff\n      dup11\n      and\n      swap2\n        /* \"ccip/RWATokenBridge.sol\":3154:3216  messageId = router.ccipSend(destinationChainSelector, message) */\n      dup8\n      swap2\n        /* \"ccip/RWATokenBridge.sol\":3232:3459  TokensSent(... */\n      0x0ba6886260b2f34f69769ff5fb57fb1a7cd762254a78d55e4fdb6683dda91b35\n      swap2\n      dup2\n      swap1\n      sub\n        /* \"#utility.yul\":6723:6726   */\n      0xa0\n        /* \"ccip/RWATokenBridge.sol\":3232:3459  TokensSent(... */\n      add\n      swap1\n      log4\n        /* \"ccip/RWATokenBridge.sol\":3470:3486  return messageId */\n      pop\n      pop\n      pop\n        /* \"ccip/RWATokenBridge.sol\":1962:3493  function sendTokenSponsored(... */\n      swap4\n      swap3\n      pop\n      pop\n      pop\n      jump\t// out\n        /* \"ccip/RWATokenBridge.sol\":7820:8006  function withdrawNative(address payable to) external onlyOwner {... */\n    tag_44:\n        /* \"@openzeppelin/contracts/access/Ownable.sol\":1531:1544  _checkOwner() */\n      tag_139\n        /* \"@openzeppelin/contracts/access/Ownable.sol\":1531:1542  _checkOwner */\n      tag_101\n        /* \"@openzeppelin/contracts/access/Ownable.sol\":1531:1544  _checkOwner() */\n      jump\t// in\n    tag_139:\n        /* \"ccip/RWATokenBridge.sol\":7894:7906  bool success */\n      0x00\n        /* \"ccip/RWATokenBridge.sol\":7912:7914  to */\n      dup2\n      sub(shl(0xa0, 0x01), 0x01)\n        /* \"ccip/RWATokenBridge.sol\":7912:7919  to.call */\n      and\n        /* \"ccip/RWATokenBridge.sol\":7927:7948  address(this).balance */\n      selfbalance\n        /* \"ccip/RWATokenBridge.sol\":7912:7953  to.call{value: address(this).balance}(\"\") */\n      mload(0x40)\n      0x00\n      mload(0x40)\n      dup1\n      dup4\n      sub\n      dup2\n      dup6\n      dup8\n      gas\n      call\n      swap3\n      pop\n      pop\n      pop\n      returndatasize\n      dup1\n      0x00\n      dup2\n      eq\n      tag_145\n      jumpi\n      mload(0x40)\n      swap2\n      pop\n      and(add(returndatasize, 0x3f), not(0x1f))\n      dup3\n      add\n      0x40\n      mstore\n      returndatasize\n      dup3\n      mstore\n      returndatasize\n      0x00\n      0x20\n      dup5\n      add\n      returndatacopy\n      jump(tag_144)\n    tag_145:\n      0x60\n      swap2\n      pop\n    tag_144:\n      pop\n        /* \"ccip/RWATokenBridge.sol\":7893:7953  (bool success, ) = to.call{value: address(this).balance}(\"\") */\n      pop\n      swap1\n      pop\n        /* \"ccip/RWATokenBridge.sol\":7971:7978  success */\n      dup1\n        /* \"ccip/RWATokenBridge.sol\":7963:7999  require(success, \"Transfer failed.\") */\n      tag_146\n      jumpi\n      mload(0x40)\n      shl(0xe5, 0x461bcd)\n      dup2\n      mstore\n        /* \"#utility.yul\":7504:7506   */\n      0x20\n        /* \"ccip/RWATokenBridge.sol\":7963:7999  require(success, \"Transfer failed.\") */\n      0x04\n      dup3\n      add\n        /* \"#utility.yul\":7486:7507   */\n      mstore\n        /* \"#utility.yul\":7543:7545   */\n      0x10\n        /* \"#utility.yul\":7523:7541   */\n      0x24\n      dup3\n      add\n        /* \"#utility.yul\":7516:7546   */\n      mstore\n        /* \"#utility.yul\":7582:7600   */\n      0x5472616e73666572206661696c65642e00000000000000000000000000000000\n        /* \"#utility.yul\":7562:7580   */\n      0x44\n      dup3\n      add\n        /* \"#utility.yul\":7555:7601   */\n      mstore\n        /* \"#utility.yul\":7618:7636   */\n      0x64\n      add\n        /* \"ccip/RWATokenBridge.sol\":7963:7999  require(success, \"Transfer failed.\") */\n      tag_107\n        /* \"#utility.yul\":7302:7642   */\n      jump\n        /* \"ccip/RWATokenBridge.sol\":7963:7999  require(success, \"Transfer failed.\") */\n    tag_146:\n        /* \"ccip/RWATokenBridge.sol\":7883:8006  {... */\n      pop\n        /* \"ccip/RWATokenBridge.sol\":7820:8006  function withdrawNative(address payable to) external onlyOwner {... */\n      pop\n      jump\t// out\n        /* \"ccip/RWATokenBridge.sol\":6330:6699  function getFeePayNative(... */\n    tag_52:\n        /* \"ccip/RWATokenBridge.sol\":6475:6486  uint256 fee */\n      0x00\n        /* \"ccip/RWATokenBridge.sol\":6498:6534  Client.EVM2AnyMessage memory message */\n      0x00\n        /* \"ccip/RWATokenBridge.sol\":6537:6626  _buildMessage(... */\n      tag_150\n        /* \"ccip/RWATokenBridge.sol\":6564:6572  receiver */\n      dup5\n        /* \"ccip/RWATokenBridge.sol\":6586:6592  amount */\n      dup5\n        /* \"ccip/RWATokenBridge.sol\":6614:6615  0 */\n      0x00\n        /* \"ccip/RWATokenBridge.sol\":6537:6550  _buildMessage */\n      tag_112\n        /* \"ccip/RWATokenBridge.sol\":6537:6626  _buildMessage(... */\n      jump\t// in\n    tag_150:\n        /* \"ccip/RWATokenBridge.sol\":6644:6692  router.getFee(destinationChainSelector, message) */\n      mload(0x40)\n      0x20487ded00000000000000000000000000000000000000000000000000000000\n      dup2\n      mstore\n        /* \"ccip/RWATokenBridge.sol\":6498:6626  Client.EVM2AnyMessage memory message = _buildMessage(... */\n      swap1\n      swap2\n      pop\n      sub(shl(0xa0, 0x01), 0x01)\n        /* \"ccip/RWATokenBridge.sol\":6644:6650  router */\n      immutable(\"0x9b67abc7a7f76ccc26ad76abed83eb7d77aa7a9a12352409554da899fc785375\")\n        /* \"ccip/RWATokenBridge.sol\":6644:6657  router.getFee */\n      and\n      swap1\n      0x20487ded\n      swap1\n        /* \"ccip/RWATokenBridge.sol\":6644:6692  router.getFee(destinationChainSelector, message) */\n      tag_151\n      swap1\n        /* \"ccip/RWATokenBridge.sol\":6658:6682  destinationChainSelector */\n      dup9\n      swap1\n        /* \"ccip/RWATokenBridge.sol\":6498:6626  Client.EVM2AnyMessage memory message = _buildMessage(... */\n      dup6\n      swap1\n        /* \"ccip/RWATokenBridge.sol\":6644:6692  router.getFee(destinationChainSelector, message) */\n      0x04\n      add\n      tag_114\n      jump\t// in\n    tag_151:\n      0x20\n      mload(0x40)\n      dup1\n      dup4\n      sub\n      dup2\n      dup7\n      gas\n      staticcall\n      iszero\n      dup1\n      iszero\n      tag_153\n      jumpi\n      returndatacopy(0x00, 0x00, returndatasize)\n      revert(0x00, returndatasize)\n    tag_153:\n      pop\n      pop\n      pop\n      pop\n      mload(0x40)\n      returndatasize\n      not(0x1f)\n      0x1f\n      dup3\n      add\n      and\n      dup3\n      add\n      dup1\n      0x40\n      mstore\n      pop\n      dup2\n      add\n      swap1\n      tag_154\n      swap2\n      swap1\n      tag_118\n      jump\t// in\n    tag_154:\n        /* \"ccip/RWATokenBridge.sol\":6637:6692  return router.getFee(destinationChainSelector, message) */\n      swap6\n        /* \"ccip/RWATokenBridge.sol\":6330:6699  function getFeePayNative(... */\n      swap5\n      pop\n      pop\n      pop\n      pop\n      pop\n      jump\t// out\n        /* \"@openzeppelin/contracts/access/Ownable.sol\":2293:2394  function renounceOwnership() public virtual onlyOwner {... */\n    tag_57:\n        /* \"@openzeppelin/contracts/access/Ownable.sol\":1531:1544  _checkOwner() */\n      tag_156\n        /* \"@openzeppelin/contracts/access/Ownable.sol\":1531:1542  _checkOwner */\n      tag_101\n        /* \"@openzeppelin/contracts/access/Ownable.sol\":1531:1544  _checkOwner() */\n      jump\t// in\n    tag_156:\n        /* \"@openzeppelin/contracts/access/Ownable.sol\":2357:2387  _transferOwnership(address(0)) */\n      tag_158\n        /* \"@openzeppelin/contracts/access/Ownable.sol\":2384:2385  0 */\n      0x00\n        /* \"@openzeppelin/contracts/access/Ownable.sol\":2357:2375  _transferOwnership */\n      tag_159\n        /* \"@openzeppelin/contracts/access/Ownable.sol\":2357:2387  _transferOwnership(address(0)) */\n      jump\t// in\n    tag_158:\n        /* \"@openzeppelin/contracts/access/Ownable.sol\":2293:2394  function renounceOwnership() public virtual onlyOwner {... */\n      jump\t// out\n        /* \"ccip/RWATokenBridge.sol\":5025:6324  function sendTokenPayLINK(... */\n    tag_68:\n        /* \"ccip/RWATokenBridge.sol\":5200:5254  allowlistedDestinationChains[destinationChainSelector] */\n      0xffffffffffffffff\n      dup4\n      and\n        /* \"ccip/RWATokenBridge.sol\":5166:5183  bytes32 messageId */\n      0x00\n        /* \"ccip/RWATokenBridge.sol\":5200:5254  allowlistedDestinationChains[destinationChainSelector] */\n      swap1\n      dup2\n      mstore\n        /* \"ccip/RWATokenBridge.sol\":5200:5228  allowlistedDestinationChains */\n      0x01\n        /* \"ccip/RWATokenBridge.sol\":5200:5254  allowlistedDestinationChains[destinationChainSelector] */\n      0x20\n      mstore\n      0x40\n      dup2\n      keccak256\n      sload\n      0xff\n      and\n        /* \"ccip/RWATokenBridge.sol\":5195:5344  if (!allowlistedDestinationChains[destinationChainSelector]) {... */\n      tag_161\n      jumpi\n        /* \"ccip/RWATokenBridge.sol\":5277:5333  DestinationChainNotAllowlisted(destinationChainSelector) */\n      mload(0x40)\n      shl(0xe0, 0x0a503cdb)\n      dup2\n      mstore\n        /* \"#utility.yul\":3946:3964   */\n      0xffffffffffffffff\n        /* \"#utility.yul\":3934:3965   */\n      dup6\n      and\n        /* \"ccip/RWATokenBridge.sol\":5277:5333  DestinationChainNotAllowlisted(destinationChainSelector) */\n      0x04\n      dup3\n      add\n        /* \"#utility.yul\":3916:3966   */\n      mstore\n        /* \"#utility.yul\":3889:3907   */\n      0x24\n      add\n        /* \"ccip/RWATokenBridge.sol\":5277:5333  DestinationChainNotAllowlisted(destinationChainSelector) */\n      tag_107\n        /* \"#utility.yul\":3772:3972   */\n      jump\n        /* \"ccip/RWATokenBridge.sol\":5195:5344  if (!allowlistedDestinationChains[destinationChainSelector]) {... */\n    tag_161:\n      sub(shl(0xa0, 0x01), 0x01)\n        /* \"ccip/RWATokenBridge.sol\":5358:5380  receiver == address(0) */\n      dup4\n      and\n        /* \"ccip/RWATokenBridge.sol\":5354:5431  if (receiver == address(0)) {... */\n      tag_163\n      jumpi\n        /* \"ccip/RWATokenBridge.sol\":5403:5420  InvalidReceiver() */\n      mload(0x40)\n      shl(0xe0, 0x1e4ec46b)\n      dup2\n      mstore\n      0x04\n      add\n      mload(0x40)\n      dup1\n      swap2\n      sub\n      swap1\n      revert\n        /* \"ccip/RWATokenBridge.sol\":5354:5431  if (receiver == address(0)) {... */\n    tag_163:\n        /* \"ccip/RWATokenBridge.sol\":5445:5451  amount */\n      dup2\n        /* \"ccip/RWATokenBridge.sol\":5455:5456  0 */\n      0x00\n        /* \"ccip/RWATokenBridge.sol\":5445:5456  amount == 0 */\n      sub\n        /* \"ccip/RWATokenBridge.sol\":5441:5505  if (amount == 0) {... */\n      tag_164\n      jumpi\n        /* \"ccip/RWATokenBridge.sol\":5479:5494  InvalidAmount() */\n      mload(0x40)\n      shl(0xe1, 0x162908e3)\n      dup2\n      mstore\n      0x04\n      add\n      mload(0x40)\n      dup1\n      swap2\n      sub\n      swap1\n      revert\n        /* \"ccip/RWATokenBridge.sol\":5441:5505  if (amount == 0) {... */\n    tag_164:\n        /* \"ccip/RWATokenBridge.sol\":5515:5551  Client.EVM2AnyMessage memory message */\n      0x00\n        /* \"ccip/RWATokenBridge.sol\":5554:5651  _buildMessage(... */\n      tag_165\n        /* \"ccip/RWATokenBridge.sol\":5581:5589  receiver */\n      dup5\n        /* \"ccip/RWATokenBridge.sol\":5603:5609  amount */\n      dup5\n        /* \"ccip/RWATokenBridge.sol\":5631:5640  linkToken */\n      immutable(\"0xae7d027a27a067b0ce216b860399a31145ba05bee5d36a5aedd4d9d773c92c99\")\n        /* \"ccip/RWATokenBridge.sol\":5554:5567  _buildMessage */\n      tag_112\n        /* \"ccip/RWATokenBridge.sol\":5554:5651  _buildMessage(... */\n      jump\t// in\n    tag_165:\n        /* \"ccip/RWATokenBridge.sol\":5515:5651  Client.EVM2AnyMessage memory message = _buildMessage(... */\n      swap1\n      pop\n        /* \"ccip/RWATokenBridge.sol\":5662:5673  uint256 fee */\n      0x00\n        /* \"ccip/RWATokenBridge.sol\":5676:5682  router */\n      immutable(\"0x9b67abc7a7f76ccc26ad76abed83eb7d77aa7a9a12352409554da899fc785375\")\n      sub(shl(0xa0, 0x01), 0x01)\n        /* \"ccip/RWATokenBridge.sol\":5676:5689  router.getFee */\n      and\n      0x20487ded\n        /* \"ccip/RWATokenBridge.sol\":5690:5714  destinationChainSelector */\n      dup8\n        /* \"ccip/RWATokenBridge.sol\":5716:5723  message */\n      dup5\n        /* \"ccip/RWATokenBridge.sol\":5676:5724  router.getFee(destinationChainSelector, message) */\n      mload(0x40)\n      dup4\n      0xffffffff\n      and\n      0xe0\n      shl\n      dup2\n      mstore\n      0x04\n      add\n      tag_166\n      swap3\n      swap2\n      swap1\n      tag_114\n      jump\t// in\n    tag_166:\n      0x20\n      mload(0x40)\n      dup1\n      dup4\n      sub\n      dup2\n      dup7\n      gas\n      staticcall\n      iszero\n      dup1\n      iszero\n      tag_168\n      jumpi\n      returndatacopy(0x00, 0x00, returndatasize)\n      revert(0x00, returndatasize)\n    tag_168:\n      pop\n      pop\n      pop\n      pop\n      mload(0x40)\n      returndatasize\n      not(0x1f)\n      0x1f\n      dup3\n      add\n      and\n      dup3\n      add\n      dup1\n      0x40\n      mstore\n      pop\n      dup2\n      add\n      swap1\n      tag_169\n      swap2\n      swap1\n      tag_118\n      jump\t// in\n    tag_169:\n        /* \"ccip/RWATokenBridge.sol\":5662:5724  uint256 fee = router.getFee(destinationChainSelector, message) */\n      swap1\n      pop\n        /* \"ccip/RWATokenBridge.sol\":5735:5795  rwaToken.safeTransferFrom(msg.sender, address(this), amount) */\n      tag_170\n      sub(shl(0xa0, 0x01), 0x01)\n        /* \"ccip/RWATokenBridge.sol\":5735:5743  rwaToken */\n      immutable(\"0xea1c3a463a334d4502a6bc7c1ce6676ab071cb26e08d8d603278a360d97dc14c\")\n        /* \"ccip/RWATokenBridge.sol\":5735:5760  rwaToken.safeTransferFrom */\n      and\n        /* \"ccip/RWATokenBridge.sol\":5761:5771  msg.sender */\n      caller\n        /* \"ccip/RWATokenBridge.sol\":5781:5785  this */\n      address\n        /* \"ccip/RWATokenBridge.sol\":5788:5794  amount */\n      dup8\n        /* \"ccip/RWATokenBridge.sol\":5735:5760  rwaToken.safeTransferFrom */\n      tag_127\n        /* \"ccip/RWATokenBridge.sol\":5735:5795  rwaToken.safeTransferFrom(msg.sender, address(this), amount) */\n      jump\t// in\n    tag_170:\n        /* \"ccip/RWATokenBridge.sol\":5805:5863  linkToken.safeTransferFrom(msg.sender, address(this), fee) */\n      tag_171\n      sub(shl(0xa0, 0x01), 0x01)\n        /* \"ccip/RWATokenBridge.sol\":5805:5814  linkToken */\n      immutable(\"0xae7d027a27a067b0ce216b860399a31145ba05bee5d36a5aedd4d9d773c92c99\")\n        /* \"ccip/RWATokenBridge.sol\":5805:5831  linkToken.safeTransferFrom */\n      and\n        /* \"ccip/RWATokenBridge.sol\":5832:5842  msg.sender */\n      caller\n        /* \"ccip/RWATokenBridge.sol\":5852:5856  this */\n      address\n        /* \"ccip/RWATokenBridge.sol\":5859:5862  fee */\n      dup5\n        /* \"ccip/RWATokenBridge.sol\":5805:5831  linkToken.safeTransferFrom */\n      tag_127\n        /* \"ccip/RWATokenBridge.sol\":5805:5863  linkToken.safeTransferFrom(msg.sender, address(this), fee) */\n      jump\t// in\n    tag_171:\n        /* \"ccip/RWATokenBridge.sol\":5874:5920  rwaToken.forceApprove(address(router), amount) */\n      tag_172\n      sub(shl(0xa0, 0x01), 0x01)\n        /* \"ccip/RWATokenBridge.sol\":5874:5882  rwaToken */\n      immutable(\"0xea1c3a463a334d4502a6bc7c1ce6676ab071cb26e08d8d603278a360d97dc14c\")\n        /* \"ccip/RWATokenBridge.sol\":5874:5895  rwaToken.forceApprove */\n      and\n        /* \"ccip/RWATokenBridge.sol\":5904:5910  router */\n      immutable(\"0x9b67abc7a7f76ccc26ad76abed83eb7d77aa7a9a12352409554da899fc785375\")\n        /* \"ccip/RWATokenBridge.sol\":5913:5919  amount */\n      dup7\n        /* \"ccip/RWATokenBridge.sol\":5874:5895  rwaToken.forceApprove */\n      tag_129\n        /* \"ccip/RWATokenBridge.sol\":5874:5920  rwaToken.forceApprove(address(router), amount) */\n      jump\t// in\n    tag_172:\n        /* \"ccip/RWATokenBridge.sol\":5930:5974  linkToken.forceApprove(address(router), fee) */\n      tag_173\n      sub(shl(0xa0, 0x01), 0x01)\n        /* \"ccip/RWATokenBridge.sol\":5930:5939  linkToken */\n      immutable(\"0xae7d027a27a067b0ce216b860399a31145ba05bee5d36a5aedd4d9d773c92c99\")\n        /* \"ccip/RWATokenBridge.sol\":5930:5952  linkToken.forceApprove */\n      and\n        /* \"ccip/RWATokenBridge.sol\":5961:5967  router */\n      immutable(\"0x9b67abc7a7f76ccc26ad76abed83eb7d77aa7a9a12352409554da899fc785375\")\n        /* \"ccip/RWATokenBridge.sol\":5970:5973  fee */\n      dup4\n        /* \"ccip/RWATokenBridge.sol\":5930:5952  linkToken.forceApprove */\n      tag_129\n        /* \"ccip/RWATokenBridge.sol\":5930:5974  linkToken.forceApprove(address(router), fee) */\n      jump\t// in\n    tag_173:\n        /* \"ccip/RWATokenBridge.sol\":5997:6047  router.ccipSend(destinationChainSelector, message) */\n      mload(0x40)\n      shl(0xe0, 0x96f4e9f9)\n      dup2\n      mstore\n      sub(shl(0xa0, 0x01), 0x01)\n        /* \"ccip/RWATokenBridge.sol\":5997:6003  router */\n      immutable(\"0x9b67abc7a7f76ccc26ad76abed83eb7d77aa7a9a12352409554da899fc785375\")\n        /* \"ccip/RWATokenBridge.sol\":5997:6012  router.ccipSend */\n      and\n      swap1\n      0x96f4e9f9\n      swap1\n        /* \"ccip/RWATokenBridge.sol\":5997:6047  router.ccipSend(destinationChainSelector, message) */\n      tag_174\n      swap1\n        /* \"ccip/RWATokenBridge.sol\":6013:6037  destinationChainSelector */\n      dup10\n      swap1\n        /* \"ccip/RWATokenBridge.sol\":6039:6046  message */\n      dup7\n      swap1\n        /* \"ccip/RWATokenBridge.sol\":5997:6047  router.ccipSend(destinationChainSelector, message) */\n      0x04\n      add\n      tag_114\n      jump\t// in\n    tag_174:\n      0x20\n      mload(0x40)\n      dup1\n      dup4\n      sub\n      dup2\n      0x00\n      dup8\n      gas\n      call\n      iszero\n      dup1\n      iszero\n      tag_176\n      jumpi\n      returndatacopy(0x00, 0x00, returndatasize)\n      revert(0x00, returndatasize)\n    tag_176:\n      pop\n      pop\n      pop\n      pop\n      mload(0x40)\n      returndatasize\n      not(0x1f)\n      0x1f\n      dup3\n      add\n      and\n      dup3\n      add\n      dup1\n      0x40\n      mstore\n      pop\n      dup2\n      add\n      swap1\n      tag_177\n      swap2\n      swap1\n      tag_118\n      jump\t// in\n    tag_177:\n        /* \"ccip/RWATokenBridge.sol\":6063:6290  TokensSent(... */\n      0x40\n      dup1\n      mload\n      sub(shl(0xa0, 0x01), 0x01)\n        /* \"#utility.yul\":6754:6809   */\n      dup9\n      dup2\n      and\n        /* \"#utility.yul\":6736:6810   */\n      dup3\n      mstore\n        /* \"ccip/RWATokenBridge.sol\":6202:6210  rwaToken */\n      immutable(\"0xea1c3a463a334d4502a6bc7c1ce6676ab071cb26e08d8d603278a360d97dc14c\")\n        /* \"#utility.yul\":6846:6901   */\n      dup2\n      and\n        /* \"#utility.yul\":6841:6843   */\n      0x20\n        /* \"#utility.yul\":6826:6844   */\n      dup4\n      add\n        /* \"#utility.yul\":6819:6902   */\n      mstore\n        /* \"#utility.yul\":6918:6936   */\n      swap2\n      dup2\n      add\n        /* \"#utility.yul\":6911:6945   */\n      dup8\n      swap1\n      mstore\n        /* \"ccip/RWATokenBridge.sol\":6253:6262  linkToken */\n      immutable(\"0xae7d027a27a067b0ce216b860399a31145ba05bee5d36a5aedd4d9d773c92c99\")\n        /* \"#utility.yul\":6981:7036   */\n      swap1\n      swap2\n      and\n        /* \"#utility.yul\":6976:6978   */\n      0x60\n        /* \"#utility.yul\":6961:6979   */\n      dup3\n      add\n        /* \"#utility.yul\":6954:7037   */\n      mstore\n        /* \"#utility.yul\":7068:7071   */\n      0x80\n        /* \"#utility.yul\":7053:7072   */\n      dup2\n      add\n        /* \"#utility.yul\":7046:7081   */\n      dup4\n      swap1\n      mstore\n        /* \"ccip/RWATokenBridge.sol\":5985:6047  messageId = router.ccipSend(destinationChainSelector, message) */\n      swap1\n      swap4\n      pop\n        /* \"ccip/RWATokenBridge.sol\":6148:6158  msg.sender */\n      caller\n      swap1\n        /* \"ccip/RWATokenBridge.sol\":6063:6290  TokensSent(... */\n      0xffffffffffffffff\n      dup9\n      and\n      swap1\n        /* \"ccip/RWATokenBridge.sol\":5985:6047  messageId = router.ccipSend(destinationChainSelector, message) */\n      dup6\n      swap1\n        /* \"ccip/RWATokenBridge.sol\":6063:6290  TokensSent(... */\n      0x0ba6886260b2f34f69769ff5fb57fb1a7cd762254a78d55e4fdb6683dda91b35\n      swap1\n        /* \"#utility.yul\":6723:6726   */\n      0xa0\n        /* \"#utility.yul\":6708:6727   */\n      add\n        /* \"ccip/RWATokenBridge.sol\":6063:6290  TokensSent(... */\n    tag_178:\n      mload(0x40)\n      dup1\n      swap2\n      sub\n      swap1\n      log4\n        /* \"ccip/RWATokenBridge.sol\":6301:6317  return messageId */\n      pop\n      pop\n        /* \"ccip/RWATokenBridge.sol\":5025:6324  function sendTokenPayLINK(... */\n      swap4\n      swap3\n      pop\n      pop\n      pop\n      jump\t// out\n        /* \"ccip/RWATokenBridge.sol\":1674:1956  function allowlistDestinationChain(... */\n    tag_79:\n        /* \"@openzeppelin/contracts/access/Ownable.sol\":1531:1544  _checkOwner() */\n      tag_181\n        /* \"@openzeppelin/contracts/access/Ownable.sol\":1531:1542  _checkOwner */\n      tag_101\n        /* \"@openzeppelin/contracts/access/Ownable.sol\":1531:1544  _checkOwner() */\n      jump\t// in\n    tag_181:\n        /* \"ccip/RWATokenBridge.sol\":1807:1861  allowlistedDestinationChains[destinationChainSelector] */\n      0xffffffffffffffff\n      dup3\n      and\n      0x00\n      dup2\n      dup2\n      mstore\n        /* \"ccip/RWATokenBridge.sol\":1807:1835  allowlistedDestinationChains */\n      0x01\n        /* \"ccip/RWATokenBridge.sol\":1807:1861  allowlistedDestinationChains[destinationChainSelector] */\n      0x20\n      swap1\n      dup2\n      mstore\n      0x40\n      swap2\n      dup3\n      swap1\n      keccak256\n        /* \"ccip/RWATokenBridge.sol\":1807:1871  allowlistedDestinationChains[destinationChainSelector] = allowed */\n      dup1\n      sload\n      not(0xff)\n      and\n      dup6\n      iszero\n      iszero\n      swap1\n      dup2\n      or\n      swap1\n      swap2\n      sstore\n        /* \"ccip/RWATokenBridge.sol\":1887:1949  DestinationChainAllowlisted(destinationChainSelector, allowed) */\n      swap2\n      mload\n        /* \"#utility.yul\":2504:2545   */\n      swap2\n      dup3\n      mstore\n        /* \"ccip/RWATokenBridge.sol\":1887:1949  DestinationChainAllowlisted(destinationChainSelector, allowed) */\n      0x9e831877a5c5b0c6bf39118c59f437de0882033ff7d60a84dbc1f453584a0d11\n      swap2\n        /* \"#utility.yul\":2477:2495   */\n      add\n        /* \"ccip/RWATokenBridge.sol\":1887:1949  DestinationChainAllowlisted(destinationChainSelector, allowed) */\n      mload(0x40)\n      dup1\n      swap2\n      sub\n      swap1\n      log2\n        /* \"ccip/RWATokenBridge.sol\":1674:1956  function allowlistDestinationChain(... */\n      pop\n      pop\n      jump\t// out\n        /* \"ccip/RWATokenBridge.sol\":6705:7080  function getFeePayLINK(... */\n    tag_83:\n        /* \"ccip/RWATokenBridge.sol\":6848:6859  uint256 fee */\n      0x00\n        /* \"ccip/RWATokenBridge.sol\":6871:6907  Client.EVM2AnyMessage memory message */\n      0x00\n        /* \"ccip/RWATokenBridge.sol\":6910:7007  _buildMessage(... */\n      tag_150\n        /* \"ccip/RWATokenBridge.sol\":6937:6945  receiver */\n      dup5\n        /* \"ccip/RWATokenBridge.sol\":6959:6965  amount */\n      dup5\n        /* \"ccip/RWATokenBridge.sol\":6987:6996  linkToken */\n      immutable(\"0xae7d027a27a067b0ce216b860399a31145ba05bee5d36a5aedd4d9d773c92c99\")\n        /* \"ccip/RWATokenBridge.sol\":6910:6923  _buildMessage */\n      tag_112\n        /* \"ccip/RWATokenBridge.sol\":6910:7007  _buildMessage(... */\n      jump\t// in\n        /* \"ccip/RWATokenBridge.sol\":3499:5019  function sendTokenPayNative(... */\n    tag_87:\n        /* \"ccip/RWATokenBridge.sol\":3684:3738  allowlistedDestinationChains[destinationChainSelector] */\n      0xffffffffffffffff\n      dup4\n      and\n        /* \"ccip/RWATokenBridge.sol\":3650:3667  bytes32 messageId */\n      0x00\n        /* \"ccip/RWATokenBridge.sol\":3684:3738  allowlistedDestinationChains[destinationChainSelector] */\n      swap1\n      dup2\n      mstore\n        /* \"ccip/RWATokenBridge.sol\":3684:3712  allowlistedDestinationChains */\n      0x01\n        /* \"ccip/RWATokenBridge.sol\":3684:3738  allowlistedDestinationChains[destinationChainSelector] */\n      0x20\n      mstore\n      0x40\n      dup2\n      keccak256\n      sload\n      0xff\n      and\n        /* \"ccip/RWATokenBridge.sol\":3679:3828  if (!allowlistedDestinationChains[destinationChainSelector]) {... */\n      tag_191\n      jumpi\n        /* \"ccip/RWATokenBridge.sol\":3761:3817  DestinationChainNotAllowlisted(destinationChainSelector) */\n      mload(0x40)\n      shl(0xe0, 0x0a503cdb)\n      dup2\n      mstore\n        /* \"#utility.yul\":3946:3964   */\n      0xffffffffffffffff\n        /* \"#utility.yul\":3934:3965   */\n      dup6\n      and\n        /* \"ccip/RWATokenBridge.sol\":3761:3817  DestinationChainNotAllowlisted(destinationChainSelector) */\n      0x04\n      dup3\n      add\n        /* \"#utility.yul\":3916:3966   */\n      mstore\n        /* \"#utility.yul\":3889:3907   */\n      0x24\n      add\n        /* \"ccip/RWATokenBridge.sol\":3761:3817  DestinationChainNotAllowlisted(destinationChainSelector) */\n      tag_107\n        /* \"#utility.yul\":3772:3972   */\n      jump\n        /* \"ccip/RWATokenBridge.sol\":3679:3828  if (!allowlistedDestinationChains[destinationChainSelector]) {... */\n    tag_191:\n      sub(shl(0xa0, 0x01), 0x01)\n        /* \"ccip/RWATokenBridge.sol\":3842:3864  receiver == address(0) */\n      dup4\n      and\n        /* \"ccip/RWATokenBridge.sol\":3838:3915  if (receiver == address(0)) {... */\n      tag_193\n      jumpi\n        /* \"ccip/RWATokenBridge.sol\":3887:3904  InvalidReceiver() */\n      mload(0x40)\n      shl(0xe0, 0x1e4ec46b)\n      dup2\n      mstore\n      0x04\n      add\n      mload(0x40)\n      dup1\n      swap2\n      sub\n      swap1\n      revert\n        /* \"ccip/RWATokenBridge.sol\":3838:3915  if (receiver == address(0)) {... */\n    tag_193:\n        /* \"ccip/RWATokenBridge.sol\":3929:3935  amount */\n      dup2\n        /* \"ccip/RWATokenBridge.sol\":3939:3940  0 */\n      0x00\n        /* \"ccip/RWATokenBridge.sol\":3929:3940  amount == 0 */\n      sub\n        /* \"ccip/RWATokenBridge.sol\":3925:3989  if (amount == 0) {... */\n      tag_194\n      jumpi\n        /* \"ccip/RWATokenBridge.sol\":3963:3978  InvalidAmount() */\n      mload(0x40)\n      shl(0xe1, 0x162908e3)\n      dup2\n      mstore\n      0x04\n      add\n      mload(0x40)\n      dup1\n      swap2\n      sub\n      swap1\n      revert\n        /* \"ccip/RWATokenBridge.sol\":3925:3989  if (amount == 0) {... */\n    tag_194:\n        /* \"ccip/RWATokenBridge.sol\":3999:4035  Client.EVM2AnyMessage memory message */\n      0x00\n        /* \"ccip/RWATokenBridge.sol\":4038:4127  _buildMessage(... */\n      tag_195\n        /* \"ccip/RWATokenBridge.sol\":4065:4073  receiver */\n      dup5\n        /* \"ccip/RWATokenBridge.sol\":4087:4093  amount */\n      dup5\n        /* \"ccip/RWATokenBridge.sol\":4115:4116  0 */\n      0x00\n        /* \"ccip/RWATokenBridge.sol\":4038:4051  _buildMessage */\n      tag_112\n        /* \"ccip/RWATokenBridge.sol\":4038:4127  _buildMessage(... */\n      jump\t// in\n    tag_195:\n        /* \"ccip/RWATokenBridge.sol\":3999:4127  Client.EVM2AnyMessage memory message = _buildMessage(... */\n      swap1\n      pop\n        /* \"ccip/RWATokenBridge.sol\":4138:4149  uint256 fee */\n      0x00\n        /* \"ccip/RWATokenBridge.sol\":4152:4158  router */\n      immutable(\"0x9b67abc7a7f76ccc26ad76abed83eb7d77aa7a9a12352409554da899fc785375\")\n      sub(shl(0xa0, 0x01), 0x01)\n        /* \"ccip/RWATokenBridge.sol\":4152:4165  router.getFee */\n      and\n      0x20487ded\n        /* \"ccip/RWATokenBridge.sol\":4166:4190  destinationChainSelector */\n      dup8\n        /* \"ccip/RWATokenBridge.sol\":4192:4199  message */\n      dup5\n        /* \"ccip/RWATokenBridge.sol\":4152:4200  router.getFee(destinationChainSelector, message) */\n      mload(0x40)\n      dup4\n      0xffffffff\n      and\n      0xe0\n      shl\n      dup2\n      mstore\n      0x04\n      add\n      tag_196\n      swap3\n      swap2\n      swap1\n      tag_114\n      jump\t// in\n    tag_196:\n      0x20\n      mload(0x40)\n      dup1\n      dup4\n      sub\n      dup2\n      dup7\n      gas\n      staticcall\n      iszero\n      dup1\n      iszero\n      tag_198\n      jumpi\n      returndatacopy(0x00, 0x00, returndatasize)\n      revert(0x00, returndatasize)\n    tag_198:\n      pop\n      pop\n      pop\n      pop\n      mload(0x40)\n      returndatasize\n      not(0x1f)\n      0x1f\n      dup3\n      add\n      and\n      dup3\n      add\n      dup1\n      0x40\n      mstore\n      pop\n      dup2\n      add\n      swap1\n      tag_199\n      swap2\n      swap1\n      tag_118\n      jump\t// in\n    tag_199:\n        /* \"ccip/RWATokenBridge.sol\":4138:4200  uint256 fee = router.getFee(destinationChainSelector, message) */\n      swap1\n      pop\n        /* \"ccip/RWATokenBridge.sol\":4227:4230  fee */\n      dup1\n        /* \"ccip/RWATokenBridge.sol\":4215:4224  msg.value */\n      callvalue\n        /* \"ccip/RWATokenBridge.sol\":4215:4230  msg.value < fee */\n      lt\n        /* \"ccip/RWATokenBridge.sol\":4211:4298  if (msg.value < fee) {... */\n      iszero\n      tag_200\n      jumpi\n        /* \"ccip/RWATokenBridge.sol\":4253:4287  NotEnoughNativeFee(msg.value, fee) */\n      mload(0x40)\n      0x93fcc51000000000000000000000000000000000000000000000000000000000\n      dup2\n      mstore\n        /* \"ccip/RWATokenBridge.sol\":4272:4281  msg.value */\n      callvalue\n        /* \"ccip/RWATokenBridge.sol\":4253:4287  NotEnoughNativeFee(msg.value, fee) */\n      0x04\n      dup3\n      add\n        /* \"#utility.yul\":6209:6234   */\n      mstore\n        /* \"#utility.yul\":6250:6268   */\n      0x24\n      dup2\n      add\n        /* \"#utility.yul\":6243:6277   */\n      dup3\n      swap1\n      mstore\n        /* \"#utility.yul\":6182:6200   */\n      0x44\n      add\n        /* \"ccip/RWATokenBridge.sol\":4253:4287  NotEnoughNativeFee(msg.value, fee) */\n      tag_107\n        /* \"#utility.yul\":6035:6283   */\n      jump\n        /* \"ccip/RWATokenBridge.sol\":4211:4298  if (msg.value < fee) {... */\n    tag_200:\n        /* \"ccip/RWATokenBridge.sol\":4308:4368  rwaToken.safeTransferFrom(msg.sender, address(this), amount) */\n      tag_202\n      sub(shl(0xa0, 0x01), 0x01)\n        /* \"ccip/RWATokenBridge.sol\":4308:4316  rwaToken */\n      immutable(\"0xea1c3a463a334d4502a6bc7c1ce6676ab071cb26e08d8d603278a360d97dc14c\")\n        /* \"ccip/RWATokenBridge.sol\":4308:4333  rwaToken.safeTransferFrom */\n      and\n        /* \"ccip/RWATokenBridge.sol\":4334:4344  msg.sender */\n      caller\n        /* \"ccip/RWATokenBridge.sol\":4354:4358  this */\n      address\n        /* \"ccip/RWATokenBridge.sol\":4361:4367  amount */\n      dup8\n        /* \"ccip/RWATokenBridge.sol\":4308:4333  rwaToken.safeTransferFrom */\n      tag_127\n        /* \"ccip/RWATokenBridge.sol\":4308:4368  rwaToken.safeTransferFrom(msg.sender, address(this), amount) */\n      jump\t// in\n    tag_202:\n        /* \"ccip/RWATokenBridge.sol\":4378:4424  rwaToken.forceApprove(address(router), amount) */\n      tag_203\n      sub(shl(0xa0, 0x01), 0x01)\n        /* \"ccip/RWATokenBridge.sol\":4378:4386  rwaToken */\n      immutable(\"0xea1c3a463a334d4502a6bc7c1ce6676ab071cb26e08d8d603278a360d97dc14c\")\n        /* \"ccip/RWATokenBridge.sol\":4378:4399  rwaToken.forceApprove */\n      and\n        /* \"ccip/RWATokenBridge.sol\":4408:4414  router */\n      immutable(\"0x9b67abc7a7f76ccc26ad76abed83eb7d77aa7a9a12352409554da899fc785375\")\n        /* \"ccip/RWATokenBridge.sol\":4417:4423  amount */\n      dup7\n        /* \"ccip/RWATokenBridge.sol\":4378:4399  rwaToken.forceApprove */\n      tag_129\n        /* \"ccip/RWATokenBridge.sol\":4378:4424  rwaToken.forceApprove(address(router), amount) */\n      jump\t// in\n    tag_203:\n        /* \"ccip/RWATokenBridge.sol\":4447:4543  router.ccipSend{value: fee}(... */\n      mload(0x40)\n      shl(0xe0, 0x96f4e9f9)\n      dup2\n      mstore\n      sub(shl(0xa0, 0x01), 0x01)\n        /* \"ccip/RWATokenBridge.sol\":4447:4453  router */\n      immutable(\"0x9b67abc7a7f76ccc26ad76abed83eb7d77aa7a9a12352409554da899fc785375\")\n        /* \"ccip/RWATokenBridge.sol\":4447:4462  router.ccipSend */\n      and\n      swap1\n      0x96f4e9f9\n      swap1\n        /* \"ccip/RWATokenBridge.sol\":4470:4473  fee */\n      dup4\n      swap1\n        /* \"ccip/RWATokenBridge.sol\":4447:4543  router.ccipSend{value: fee}(... */\n      tag_204\n      swap1\n        /* \"ccip/RWATokenBridge.sol\":4488:4512  destinationChainSelector */\n      dup11\n      swap1\n        /* \"ccip/RWATokenBridge.sol\":4526:4533  message */\n      dup8\n      swap1\n        /* \"ccip/RWATokenBridge.sol\":4447:4543  router.ccipSend{value: fee}(... */\n      0x04\n      add\n      tag_114\n      jump\t// in\n    tag_204:\n      0x20\n      mload(0x40)\n      dup1\n      dup4\n      sub\n      dup2\n      dup6\n      dup9\n      gas\n      call\n      iszero\n      dup1\n      iszero\n      tag_206\n      jumpi\n      returndatacopy(0x00, 0x00, returndatasize)\n      revert(0x00, returndatasize)\n    tag_206:\n      pop\n      pop\n      pop\n      pop\n      pop\n      mload(0x40)\n      returndatasize\n      not(0x1f)\n      0x1f\n      dup3\n      add\n      and\n      dup3\n      add\n      dup1\n      0x40\n      mstore\n      pop\n      dup2\n      add\n      swap1\n      tag_207\n      swap2\n      swap1\n      tag_118\n      jump\t// in\n    tag_207:\n        /* \"ccip/RWATokenBridge.sol\":4435:4543  messageId = router.ccipSend{value: fee}(... */\n      swap3\n      pop\n        /* \"ccip/RWATokenBridge.sol\":4570:4573  fee */\n      dup1\n        /* \"ccip/RWATokenBridge.sol\":4558:4567  msg.value */\n      callvalue\n        /* \"ccip/RWATokenBridge.sol\":4558:4573  msg.value > fee */\n      gt\n        /* \"ccip/RWATokenBridge.sol\":4554:4751  if (msg.value > fee) {... */\n      iszero\n      tag_208\n      jumpi\n        /* \"ccip/RWATokenBridge.sol\":4590:4602  bool success */\n      0x00\n        /* \"ccip/RWATokenBridge.sol\":4616:4626  msg.sender */\n      caller\n        /* \"ccip/RWATokenBridge.sol\":4640:4655  msg.value - fee */\n      tag_209\n        /* \"ccip/RWATokenBridge.sol\":4652:4655  fee */\n      dup4\n        /* \"ccip/RWATokenBridge.sol\":4640:4649  msg.value */\n      callvalue\n        /* \"ccip/RWATokenBridge.sol\":4640:4655  msg.value - fee */\n      tag_210\n      jump\t// in\n    tag_209:\n        /* \"ccip/RWATokenBridge.sol\":4608:4690  payable(msg.sender).call{value: msg.value - fee}(... */\n      mload(0x40)\n      0x00\n      dup2\n      dup2\n      dup2\n      dup6\n      dup8\n      gas\n      call\n      swap3\n      pop\n      pop\n      pop\n      returndatasize\n      dup1\n      0x00\n      dup2\n      eq\n      tag_214\n      jumpi\n      mload(0x40)\n      swap2\n      pop\n      and(add(returndatasize, 0x3f), not(0x1f))\n      dup3\n      add\n      0x40\n      mstore\n      returndatasize\n      dup3\n      mstore\n      returndatasize\n      0x00\n      0x20\n      dup5\n      add\n      returndatacopy\n      jump(tag_213)\n    tag_214:\n      0x60\n      swap2\n      pop\n    tag_213:\n      pop\n        /* \"ccip/RWATokenBridge.sol\":4589:4690  (bool success, ) = payable(msg.sender).call{value: msg.value - fee}(... */\n      pop\n      swap1\n      pop\n        /* \"ccip/RWATokenBridge.sol\":4712:4719  success */\n      dup1\n        /* \"ccip/RWATokenBridge.sol\":4704:4740  require(success, \"Transfer failed.\") */\n      tag_215\n      jumpi\n      mload(0x40)\n      shl(0xe5, 0x461bcd)\n      dup2\n      mstore\n        /* \"#utility.yul\":7504:7506   */\n      0x20\n        /* \"ccip/RWATokenBridge.sol\":4704:4740  require(success, \"Transfer failed.\") */\n      0x04\n      dup3\n      add\n        /* \"#utility.yul\":7486:7507   */\n      mstore\n        /* \"#utility.yul\":7543:7545   */\n      0x10\n        /* \"#utility.yul\":7523:7541   */\n      0x24\n      dup3\n      add\n        /* \"#utility.yul\":7516:7546   */\n      mstore\n        /* \"#utility.yul\":7582:7600   */\n      0x5472616e73666572206661696c65642e00000000000000000000000000000000\n        /* \"#utility.yul\":7562:7580   */\n      0x44\n      dup3\n      add\n        /* \"#utility.yul\":7555:7601   */\n      mstore\n        /* \"#utility.yul\":7618:7636   */\n      0x64\n      add\n        /* \"ccip/RWATokenBridge.sol\":4704:4740  require(success, \"Transfer failed.\") */\n      tag_107\n        /* \"#utility.yul\":7302:7642   */\n      jump\n        /* \"ccip/RWATokenBridge.sol\":4704:4740  require(success, \"Transfer failed.\") */\n    tag_215:\n        /* \"ccip/RWATokenBridge.sol\":4575:4751  {... */\n      pop\n        /* \"ccip/RWATokenBridge.sol\":4554:4751  if (msg.value > fee) {... */\n    tag_208:\n        /* \"ccip/RWATokenBridge.sol\":4766:4985  TokensSent(... */\n      0x40\n      dup1\n      mload\n      sub(shl(0xa0, 0x01), 0x01)\n        /* \"#utility.yul\":6754:6809   */\n      dup8\n      dup2\n      and\n        /* \"#utility.yul\":6736:6810   */\n      dup3\n      mstore\n        /* \"ccip/RWATokenBridge.sol\":4905:4913  rwaToken */\n      immutable(\"0xea1c3a463a334d4502a6bc7c1ce6676ab071cb26e08d8d603278a360d97dc14c\")\n        /* \"#utility.yul\":6846:6901   */\n      and\n        /* \"#utility.yul\":6841:6843   */\n      0x20\n        /* \"#utility.yul\":6826:6844   */\n      dup3\n      add\n        /* \"#utility.yul\":6819:6902   */\n      mstore\n        /* \"#utility.yul\":6918:6936   */\n      swap1\n      dup2\n      add\n        /* \"#utility.yul\":6911:6945   */\n      dup6\n      swap1\n      mstore\n        /* \"ccip/RWATokenBridge.sol\":4956:4957  0 */\n      0x00\n        /* \"#utility.yul\":6976:6978   */\n      0x60\n        /* \"#utility.yul\":6961:6979   */\n      dup3\n      add\n        /* \"#utility.yul\":6954:7037   */\n      mstore\n        /* \"#utility.yul\":7068:7071   */\n      0x80\n        /* \"#utility.yul\":7053:7072   */\n      dup2\n      add\n        /* \"#utility.yul\":7046:7081   */\n      dup3\n      swap1\n      mstore\n        /* \"ccip/RWATokenBridge.sol\":4851:4861  msg.sender */\n      caller\n      swap1\n        /* \"ccip/RWATokenBridge.sol\":4766:4985  TokensSent(... */\n      0xffffffffffffffff\n      dup9\n      and\n      swap1\n        /* \"ccip/RWATokenBridge.sol\":4790:4799  messageId */\n      dup6\n      swap1\n        /* \"ccip/RWATokenBridge.sol\":4766:4985  TokensSent(... */\n      0x0ba6886260b2f34f69769ff5fb57fb1a7cd762254a78d55e4fdb6683dda91b35\n      swap1\n        /* \"#utility.yul\":6723:6726   */\n      0xa0\n        /* \"#utility.yul\":6708:6727   */\n      add\n        /* \"ccip/RWATokenBridge.sol\":4766:4985  TokensSent(... */\n      tag_178\n        /* \"#utility.yul\":6477:7087   */\n      jump\n        /* \"@openzeppelin/contracts/access/Ownable.sol\":2543:2758  function transferOwnership(address newOwner) public virtual onlyOwner {... */\n    tag_93:\n        /* \"@openzeppelin/contracts/access/Ownable.sol\":1531:1544  _checkOwner() */\n      tag_219\n        /* \"@openzeppelin/contracts/access/Ownable.sol\":1531:1542  _checkOwner */\n      tag_101\n        /* \"@openzeppelin/contracts/access/Ownable.sol\":1531:1544  _checkOwner() */\n      jump\t// in\n    tag_219:\n      sub(shl(0xa0, 0x01), 0x01)\n        /* \"@openzeppelin/contracts/access/Ownable.sol\":2627:2649  newOwner == address(0) */\n      dup2\n      and\n        /* \"@openzeppelin/contracts/access/Ownable.sol\":2623:2714  if (newOwner == address(0)) {... */\n      tag_221\n      jumpi\n        /* \"@openzeppelin/contracts/access/Ownable.sol\":2672:2703  OwnableInvalidOwner(address(0)) */\n      mload(0x40)\n      0x1e4fbdf700000000000000000000000000000000000000000000000000000000\n      dup2\n      mstore\n        /* \"@openzeppelin/contracts/access/Ownable.sol\":2700:2701  0 */\n      0x00\n        /* \"@openzeppelin/contracts/access/Ownable.sol\":2672:2703  OwnableInvalidOwner(address(0)) */\n      0x04\n      dup3\n      add\n        /* \"#utility.yul\":846:920   */\n      mstore\n        /* \"#utility.yul\":819:837   */\n      0x24\n      add\n        /* \"@openzeppelin/contracts/access/Ownable.sol\":2672:2703  OwnableInvalidOwner(address(0)) */\n      tag_107\n        /* \"#utility.yul\":686:926   */\n      jump\n        /* \"@openzeppelin/contracts/access/Ownable.sol\":2623:2714  if (newOwner == address(0)) {... */\n    tag_221:\n        /* \"@openzeppelin/contracts/access/Ownable.sol\":2723:2751  _transferOwnership(newOwner) */\n      tag_223\n        /* \"@openzeppelin/contracts/access/Ownable.sol\":2742:2750  newOwner */\n      dup2\n        /* \"@openzeppelin/contracts/access/Ownable.sol\":2723:2741  _transferOwnership */\n      tag_159\n        /* \"@openzeppelin/contracts/access/Ownable.sol\":2723:2751  _transferOwnership(newOwner) */\n      jump\t// in\n    tag_223:\n        /* \"@openzeppelin/contracts/access/Ownable.sol\":2543:2758  function transferOwnership(address newOwner) public virtual onlyOwner {... */\n      pop\n      jump\t// out\n        /* \"@openzeppelin/contracts/access/Ownable.sol\":1796:1958  function _checkOwner() internal view virtual {... */\n    tag_101:\n        /* \"@openzeppelin/contracts/access/Ownable.sol\":1684:1691  address */\n      0x00\n        /* \"@openzeppelin/contracts/access/Ownable.sol\":1710:1716  _owner */\n      sload\n      sub(shl(0xa0, 0x01), 0x01)\n      and\n        /* \"@openzeppelin/contracts/utils/Context.sol\":735:745  msg.sender */\n      caller\n        /* \"@openzeppelin/contracts/access/Ownable.sol\":1855:1878  owner() != _msgSender() */\n      eq\n        /* \"@openzeppelin/contracts/access/Ownable.sol\":1851:1952  if (owner() != _msgSender()) {... */\n      tag_158\n      jumpi\n        /* \"@openzeppelin/contracts/access/Ownable.sol\":1901:1941  OwnableUnauthorizedAccount(_msgSender()) */\n      mload(0x40)\n      0x118cdaa700000000000000000000000000000000000000000000000000000000\n      dup2\n      mstore\n        /* \"@openzeppelin/contracts/utils/Context.sol\":735:745  msg.sender */\n      caller\n        /* \"@openzeppelin/contracts/access/Ownable.sol\":1901:1941  OwnableUnauthorizedAccount(_msgSender()) */\n      0x04\n      dup3\n      add\n        /* \"#utility.yul\":846:920   */\n      mstore\n        /* \"#utility.yul\":819:837   */\n      0x24\n      add\n        /* \"@openzeppelin/contracts/access/Ownable.sol\":1901:1941  OwnableUnauthorizedAccount(_msgSender()) */\n      tag_107\n        /* \"#utility.yul\":686:926   */\n      jump\n        /* \"@openzeppelin/contracts/token/ERC20/utils/SafeERC20.sol\":1219:1423  function safeTransfer(IERC20 token, address to, uint256 value) internal {... */\n    tag_104:\n        /* \"@openzeppelin/contracts/token/ERC20/utils/SafeERC20.sol\":1306:1343  _safeTransfer(token, to, value, true) */\n      tag_232\n        /* \"@openzeppelin/contracts/token/ERC20/utils/SafeERC20.sol\":1320:1325  token */\n      dup4\n        /* \"@openzeppelin/contracts/token/ERC20/utils/SafeERC20.sol\":1327:1329  to */\n      dup4\n        /* \"@openzeppelin/contracts/token/ERC20/utils/SafeERC20.sol\":1331:1336  value */\n      dup4\n        /* \"@openzeppelin/contracts/token/ERC20/utils/SafeERC20.sol\":1338:1342  true */\n      0x01\n        /* \"@openzeppelin/contracts/token/ERC20/utils/SafeERC20.sol\":1306:1319  _safeTransfer */\n      tag_233\n        /* \"@openzeppelin/contracts/token/ERC20/utils/SafeERC20.sol\":1306:1343  _safeTransfer(token, to, value, true) */\n      jump\t// in\n    tag_232:\n        /* \"@openzeppelin/contracts/token/ERC20/utils/SafeERC20.sol\":1301:1417  if (!_safeTransfer(token, to, value, true)) {... */\n      tag_103\n      jumpi\n        /* \"@openzeppelin/contracts/token/ERC20/utils/SafeERC20.sol\":1366:1406  SafeERC20FailedOperation(address(token)) */\n      mload(0x40)\n      shl(0xe0, 0x5274afe7)\n      dup2\n      mstore\n      sub(shl(0xa0, 0x01), 0x01)\n        /* \"#utility.yul\":864:919   */\n      dup5\n      and\n        /* \"@openzeppelin/contracts/token/ERC20/utils/SafeERC20.sol\":1366:1406  SafeERC20FailedOperation(address(token)) */\n      0x04\n      dup3\n      add\n        /* \"#utility.yul\":846:920   */\n      mstore\n        /* \"#utility.yul\":819:837   */\n      0x24\n      add\n        /* \"@openzeppelin/contracts/token/ERC20/utils/SafeERC20.sol\":1366:1406  SafeERC20FailedOperation(address(token)) */\n      tag_107\n        /* \"#utility.yul\":686:926   */\n      jump\n        /* \"ccip/RWATokenBridge.sol\":7086:7814  function _buildMessage(... */\n    tag_112:\n        /* \"ccip/RWATokenBridge.sol\":7214:7250  Client.EVM2AnyMessage memory message */\n      tag_236\n      mload(0x40)\n      dup1\n      0xa0\n      add\n      0x40\n      mstore\n      dup1\n      0x60\n      dup2\n      mstore\n      0x20\n      add\n      0x60\n      dup2\n      mstore\n      0x20\n      add\n      0x60\n      dup2\n      mstore\n      0x20\n      add\n      and(sub(shl(0xa0, 0x01), 0x01), 0x00)\n      dup2\n      mstore\n      0x20\n      add\n      0x60\n      dup2\n      mstore\n      pop\n      swap1\n      jump\n    tag_236:\n        /* \"ccip/RWATokenBridge.sol\":7320:7350  new Client.EVMTokenAmount[](1) */\n      0x40\n      dup1\n      mload\n        /* \"ccip/RWATokenBridge.sol\":7348:7349  1 */\n      0x01\n        /* \"ccip/RWATokenBridge.sol\":7320:7350  new Client.EVMTokenAmount[](1) */\n      dup1\n      dup3\n      mstore\n      dup2\n      dup4\n      add\n      swap1\n      swap3\n      mstore\n        /* \"ccip/RWATokenBridge.sol\":7262:7317  Client.EVMTokenAmount[]... */\n      0x00\n      swap2\n        /* \"ccip/RWATokenBridge.sol\":7320:7350  new Client.EVMTokenAmount[](1) */\n      dup2\n      0x20\n      add\n    tag_243:\n      0x40\n      dup1\n      mload\n      dup1\n      dup3\n      add\n      swap1\n      swap2\n      mstore\n      0x00\n      dup1\n      dup3\n      mstore\n      0x20\n      dup3\n      add\n      mstore\n      dup2\n      mstore\n      0x20\n      add\n      swap1\n      0x01\n      swap1\n      sub\n      swap1\n      dup2\n      tag_243\n      jumpi\n      swap1\n      pop\n      pop\n        /* \"ccip/RWATokenBridge.sol\":7262:7350  Client.EVMTokenAmount[]... */\n      swap1\n      pop\n        /* \"ccip/RWATokenBridge.sol\":7379:7478  Client.EVMTokenAmount({... */\n      mload(0x40)\n      dup1\n      0x40\n      add\n      0x40\n      mstore\n      dup1\n        /* \"ccip/RWATokenBridge.sol\":7430:7438  rwaToken */\n      immutable(\"0xea1c3a463a334d4502a6bc7c1ce6676ab071cb26e08d8d603278a360d97dc14c\")\n      sub(shl(0xa0, 0x01), 0x01)\n        /* \"ccip/RWATokenBridge.sol\":7379:7478  Client.EVMTokenAmount({... */\n      and\n      dup2\n      mstore\n      0x20\n      add\n        /* \"ccip/RWATokenBridge.sol\":7461:7467  amount */\n      dup6\n        /* \"ccip/RWATokenBridge.sol\":7379:7478  Client.EVMTokenAmount({... */\n      dup2\n      mstore\n      pop\n        /* \"ccip/RWATokenBridge.sol\":7361:7373  tokenAmounts */\n      dup2\n        /* \"ccip/RWATokenBridge.sol\":7374:7375  0 */\n      0x00\n        /* \"ccip/RWATokenBridge.sol\":7361:7376  tokenAmounts[0] */\n      dup2\n      mload\n      dup2\n      lt\n      tag_247\n      jumpi\n      tag_247\n      tag_248\n      jump\t// in\n    tag_247:\n      0x20\n      swap1\n      dup2\n      mul\n      swap2\n      swap1\n      swap2\n      add\n      add\n        /* \"ccip/RWATokenBridge.sol\":7361:7478  tokenAmounts[0] = Client.EVMTokenAmount({... */\n      mstore\n        /* \"ccip/RWATokenBridge.sol\":7499:7782  Client.EVM2AnyMessage({... */\n      0x40\n      dup1\n      mload\n      0xa0\n      dup2\n      add\n      swap1\n      swap2\n      mstore\n      sub(shl(0xa0, 0x01), 0x01)\n        /* \"#utility.yul\":864:919   */\n      dup7\n      and\n        /* \"ccip/RWATokenBridge.sol\":7545:7565  abi.encode(receiver) */\n      0xc0\n      dup3\n      add\n        /* \"#utility.yul\":846:920   */\n      mstore\n        /* \"ccip/RWATokenBridge.sol\":7499:7782  Client.EVM2AnyMessage({... */\n      dup1\n        /* \"#utility.yul\":819:837   */\n      0xe0\n      dup2\n      add\n        /* \"ccip/RWATokenBridge.sol\":7545:7565  abi.encode(receiver) */\n      mload(0x40)\n      0x20\n      dup2\n      dup4\n      sub\n      sub\n      dup2\n      mstore\n      swap1\n      0x40\n      mstore\n        /* \"ccip/RWATokenBridge.sol\":7499:7782  Client.EVM2AnyMessage({... */\n      dup2\n      mstore\n      0x20\n      add\n      mload(0x40)\n      dup1\n      0x20\n      add\n      0x40\n      mstore\n      dup1\n      0x00\n      dup2\n      mstore\n      pop\n      dup2\n      mstore\n      0x20\n      add\n        /* \"ccip/RWATokenBridge.sol\":7615:7627  tokenAmounts */\n      dup3\n        /* \"ccip/RWATokenBridge.sol\":7499:7782  Client.EVM2AnyMessage({... */\n      dup2\n      mstore\n      0x20\n      add\n        /* \"ccip/RWATokenBridge.sol\":7763:7771  feeToken */\n      dup5\n      sub(shl(0xa0, 0x01), 0x01)\n        /* \"ccip/RWATokenBridge.sol\":7499:7782  Client.EVM2AnyMessage({... */\n      and\n      dup2\n      mstore\n      0x20\n      add\n        /* \"ccip/RWATokenBridge.sol\":7652:7739  Client._argsToBytes(... */\n      tag_250\n        /* \"ccip/RWATokenBridge.sol\":7689:7725  Client.EVMExtraArgsV1({gasLimit: 0}) */\n      mload(0x40)\n      dup1\n      0x20\n      add\n      0x40\n      mstore\n      dup1\n        /* \"ccip/RWATokenBridge.sol\":7722:7723  0 */\n      0x00\n        /* \"ccip/RWATokenBridge.sol\":7689:7725  Client.EVMExtraArgsV1({gasLimit: 0}) */\n      dup2\n      mstore\n      pop\n        /* \"@chainlink/contracts-ccip/contracts/libraries/Client.sol\":1441:1497  abi.encodeWithSelector(EVM_EXTRA_ARGS_V1_TAG, extraArgs) */\n      0x40\n      dup1\n      mload\n        /* \"#utility.yul\":8536:8549   */\n      swap2\n      mload\n        /* \"@chainlink/contracts-ccip/contracts/libraries/Client.sol\":1441:1497  abi.encodeWithSelector(EVM_EXTRA_ARGS_V1_TAG, extraArgs) */\n      0x24\n      dup1\n      dup5\n      add\n        /* \"#utility.yul\":8518:8550   */\n      swap2\n      swap1\n      swap2\n      mstore\n        /* \"@chainlink/contracts-ccip/contracts/libraries/Client.sol\":1441:1497  abi.encodeWithSelector(EVM_EXTRA_ARGS_V1_TAG, extraArgs) */\n      dup2\n      mload\n      dup1\n      dup5\n      sub\n      swap1\n      swap2\n      add\n      dup2\n      mstore\n        /* \"#utility.yul\":8491:8509   */\n      0x44\n      swap1\n      swap3\n      add\n        /* \"@chainlink/contracts-ccip/contracts/libraries/Client.sol\":1441:1497  abi.encodeWithSelector(EVM_EXTRA_ARGS_V1_TAG, extraArgs) */\n      swap1\n      mstore\n      0x20\n      dup2\n      add\n      dup1\n      mload\n      0xffffffffffffffffffffffffffffffffffffffffffffffffffffffff\n      and\n        /* \"@chainlink/contracts-ccip/contracts/libraries/Client.sol\":1464:1485  EVM_EXTRA_ARGS_V1_TAG */\n      0x97a657c900000000000000000000000000000000000000000000000000000000\n        /* \"@chainlink/contracts-ccip/contracts/libraries/Client.sol\":1441:1497  abi.encodeWithSelector(EVM_EXTRA_ARGS_V1_TAG, extraArgs) */\n      or\n      swap1\n      mstore\n      swap1\n        /* \"@chainlink/contracts-ccip/contracts/libraries/Client.sol\":1324:1502  function _argsToBytes(... */\n      jump\n        /* \"ccip/RWATokenBridge.sol\":7652:7739  Client._argsToBytes(... */\n    tag_250:\n        /* \"ccip/RWATokenBridge.sol\":7499:7782  Client.EVM2AnyMessage({... */\n      swap1\n      mstore\n        /* \"ccip/RWATokenBridge.sol\":7489:7782  message = Client.EVM2AnyMessage({... */\n      swap6\n        /* \"ccip/RWATokenBridge.sol\":7086:7814  function _buildMessage(... */\n      swap5\n      pop\n      pop\n      pop\n      pop\n      pop\n      jump\t// out\n        /* \"@openzeppelin/contracts/token/ERC20/utils/SafeERC20.sol\":1662:1894  function safeTransferFrom(IERC20 token, address from, address to, uint256 value) internal {... */\n    tag_127:\n        /* \"@openzeppelin/contracts/token/ERC20/utils/SafeERC20.sol\":1767:1814  _safeTransferFrom(token, from, to, value, true) */\n      tag_253\n        /* \"@openzeppelin/contracts/token/ERC20/utils/SafeERC20.sol\":1785:1790  token */\n      dup5\n        /* \"@openzeppelin/contracts/token/ERC20/utils/SafeERC20.sol\":1792:1796  from */\n      dup5\n        /* \"@openzeppelin/contracts/token/ERC20/utils/SafeERC20.sol\":1798:1800  to */\n      dup5\n        /* \"@openzeppelin/contracts/token/ERC20/utils/SafeERC20.sol\":1802:1807  value */\n      dup5\n        /* \"@openzeppelin/contracts/token/ERC20/utils/SafeERC20.sol\":1809:1813  true */\n      0x01\n        /* \"@openzeppelin/contracts/token/ERC20/utils/SafeERC20.sol\":1767:1784  _safeTransferFrom */\n      tag_254\n        /* \"@openzeppelin/contracts/token/ERC20/utils/SafeERC20.sol\":1767:1814  _safeTransferFrom(token, from, to, value, true) */\n      jump\t// in\n    tag_253:\n        /* \"@openzeppelin/contracts/token/ERC20/utils/SafeERC20.sol\":1762:1888  if (!_safeTransferFrom(token, from, to, value, true)) {... */\n      tag_255\n      jumpi\n        /* \"@openzeppelin/contracts/token/ERC20/utils/SafeERC20.sol\":1837:1877  SafeERC20FailedOperation(address(token)) */\n      mload(0x40)\n      shl(0xe0, 0x5274afe7)\n      dup2\n      mstore\n      sub(shl(0xa0, 0x01), 0x01)\n        /* \"#utility.yul\":864:919   */\n      dup6\n      and\n        /* \"@openzeppelin/contracts/token/ERC20/utils/SafeERC20.sol\":1837:1877  SafeERC20FailedOperation(address(token)) */\n      0x04\n      dup3\n      add\n        /* \"#utility.yul\":846:920   */\n      mstore\n        /* \"#utility.yul\":819:837   */\n      0x24\n      add\n        /* \"@openzeppelin/contracts/token/ERC20/utils/SafeERC20.sol\":1837:1877  SafeERC20FailedOperation(address(token)) */\n      tag_107\n        /* \"#utility.yul\":686:926   */\n      jump\n        /* \"@openzeppelin/contracts/token/ERC20/utils/SafeERC20.sol\":1762:1888  if (!_safeTransferFrom(token, from, to, value, true)) {... */\n    tag_255:\n        /* \"@openzeppelin/contracts/token/ERC20/utils/SafeERC20.sol\":1662:1894  function safeTransferFrom(IERC20 token, address from, address to, uint256 value) internal {... */\n      pop\n      pop\n      pop\n      pop\n      jump\t// out\n        /* \"@openzeppelin/contracts/token/ERC20/utils/SafeERC20.sol\":5098:5465  function forceApprove(IERC20 token, address spender, uint256 value) internal {... */\n    tag_129:\n        /* \"@openzeppelin/contracts/token/ERC20/utils/SafeERC20.sol\":5190:5232  _safeApprove(token, spender, value, false) */\n      tag_258\n        /* \"@openzeppelin/contracts/token/ERC20/utils/SafeERC20.sol\":5203:5208  token */\n      dup4\n        /* \"@openzeppelin/contracts/token/ERC20/utils/SafeERC20.sol\":5210:5217  spender */\n      dup4\n        /* \"@openzeppelin/contracts/token/ERC20/utils/SafeERC20.sol\":5219:5224  value */\n      dup4\n        /* \"@openzeppelin/contracts/token/ERC20/utils/SafeERC20.sol\":5226:5231  false */\n      0x00\n        /* \"@openzeppelin/contracts/token/ERC20/utils/SafeERC20.sol\":5190:5202  _safeApprove */\n      tag_259\n        /* \"@openzeppelin/contracts/token/ERC20/utils/SafeERC20.sol\":5190:5232  _safeApprove(token, spender, value, false) */\n      jump\t// in\n    tag_258:\n        /* \"@openzeppelin/contracts/token/ERC20/utils/SafeERC20.sol\":5185:5459  if (!_safeApprove(token, spender, value, false)) {... */\n      tag_103\n      jumpi\n        /* \"@openzeppelin/contracts/token/ERC20/utils/SafeERC20.sol\":5253:5290  _safeApprove(token, spender, 0, true) */\n      tag_261\n        /* \"@openzeppelin/contracts/token/ERC20/utils/SafeERC20.sol\":5266:5271  token */\n      dup4\n        /* \"@openzeppelin/contracts/token/ERC20/utils/SafeERC20.sol\":5273:5280  spender */\n      dup4\n        /* \"@openzeppelin/contracts/token/ERC20/utils/SafeERC20.sol\":5282:5283  0 */\n      0x00\n        /* \"@openzeppelin/contracts/token/ERC20/utils/SafeERC20.sol\":5285:5289  true */\n      0x01\n        /* \"@openzeppelin/contracts/token/ERC20/utils/SafeERC20.sol\":5253:5265  _safeApprove */\n      tag_259\n        /* \"@openzeppelin/contracts/token/ERC20/utils/SafeERC20.sol\":5253:5290  _safeApprove(token, spender, 0, true) */\n      jump\t// in\n    tag_261:\n        /* \"@openzeppelin/contracts/token/ERC20/utils/SafeERC20.sol\":5248:5339  if (!_safeApprove(token, spender, 0, true)) revert SafeERC20FailedOperation(address(token)) */\n      tag_262\n      jumpi\n        /* \"@openzeppelin/contracts/token/ERC20/utils/SafeERC20.sol\":5299:5339  SafeERC20FailedOperation(address(token)) */\n      mload(0x40)\n      shl(0xe0, 0x5274afe7)\n      dup2\n      mstore\n      sub(shl(0xa0, 0x01), 0x01)\n        /* \"#utility.yul\":864:919   */\n      dup5\n      and\n        /* \"@openzeppelin/contracts/token/ERC20/utils/SafeERC20.sol\":5299:5339  SafeERC20FailedOperation(address(token)) */\n      0x04\n      dup3\n      add\n        /* \"#utility.yul\":846:920   */\n      mstore\n        /* \"#utility.yul\":819:837   */\n      0x24\n      add\n        /* \"@openzeppelin/contracts/token/ERC20/utils/SafeERC20.sol\":5299:5339  SafeERC20FailedOperation(address(token)) */\n      tag_107\n        /* \"#utility.yul\":686:926   */\n      jump\n        /* \"@openzeppelin/contracts/token/ERC20/utils/SafeERC20.sol\":5248:5339  if (!_safeApprove(token, spender, 0, true)) revert SafeERC20FailedOperation(address(token)) */\n    tag_262:\n        /* \"@openzeppelin/contracts/token/ERC20/utils/SafeERC20.sol\":5358:5399  _safeApprove(token, spender, value, true) */\n      tag_232\n        /* \"@openzeppelin/contracts/token/ERC20/utils/SafeERC20.sol\":5371:5376  token */\n      dup4\n        /* \"@openzeppelin/contracts/token/ERC20/utils/SafeERC20.sol\":5378:5385  spender */\n      dup4\n        /* \"@openzeppelin/contracts/token/ERC20/utils/SafeERC20.sol\":5387:5392  value */\n      dup4\n        /* \"@openzeppelin/contracts/token/ERC20/utils/SafeERC20.sol\":5394:5398  true */\n      0x01\n        /* \"@openzeppelin/contracts/token/ERC20/utils/SafeERC20.sol\":5358:5370  _safeApprove */\n      tag_259\n        /* \"@openzeppelin/contracts/token/ERC20/utils/SafeERC20.sol\":5358:5399  _safeApprove(token, spender, value, true) */\n      jump\t// in\n        /* \"@openzeppelin/contracts/access/Ownable.sol\":2912:3099  function _transferOwnership(address newOwner) internal virtual {... */\n    tag_159:\n        /* \"@openzeppelin/contracts/access/Ownable.sol\":2985:3001  address oldOwner */\n      0x00\n        /* \"@openzeppelin/contracts/access/Ownable.sol\":3004:3010  _owner */\n      dup1\n      sload\n      sub(shl(0xa0, 0x01), 0x01)\n        /* \"@openzeppelin/contracts/access/Ownable.sol\":3020:3037  _owner = newOwner */\n      dup4\n      dup2\n      and\n      0xffffffffffffffffffffffff0000000000000000000000000000000000000000\n      dup4\n      and\n      dup2\n      or\n      dup5\n      sstore\n        /* \"@openzeppelin/contracts/access/Ownable.sol\":3052:3092  OwnershipTransferred(oldOwner, newOwner) */\n      mload(0x40)\n        /* \"@openzeppelin/contracts/access/Ownable.sol\":3004:3010  _owner */\n      swap2\n      swap1\n      swap3\n      and\n      swap3\n      dup4\n      swap2\n        /* \"@openzeppelin/contracts/access/Ownable.sol\":3052:3092  OwnershipTransferred(oldOwner, newOwner) */\n      0x8be0079c531659141344cd1fd0a4f28419497f9722a3daafe3b4186f6b6457e0\n      swap2\n        /* \"@openzeppelin/contracts/access/Ownable.sol\":2985:3001  address oldOwner */\n      swap1\n        /* \"@openzeppelin/contracts/access/Ownable.sol\":3052:3092  OwnershipTransferred(oldOwner, newOwner) */\n      log3\n        /* \"@openzeppelin/contracts/access/Ownable.sol\":2975:3099  {... */\n      pop\n        /* \"@openzeppelin/contracts/access/Ownable.sol\":2912:3099  function _transferOwnership(address newOwner) internal virtual {... */\n      pop\n      jump\t// out\n        /* \"@openzeppelin/contracts/token/ERC20/utils/SafeERC20.sol\":8373:9617  function _safeTransfer(IERC20 token, address to, uint256 value, bool bubble) private returns (bool success) {... */\n    tag_233:\n        /* \"@openzeppelin/contracts/token/ERC20/utils/SafeERC20.sol\":8600:8604  0x40 */\n      0x40\n        /* \"@openzeppelin/contracts/token/ERC20/utils/SafeERC20.sol\":8594:8605  mload(0x40) */\n      mload\n        /* \"@openzeppelin/contracts/token/ERC20/utils/SafeERC20.sol\":8509:8533  IERC20.transfer.selector */\n      0xa9059cbb00000000000000000000000000000000000000000000000000000000\n        /* \"@openzeppelin/contracts/token/ERC20/utils/SafeERC20.sol\":8467:8479  bool success */\n      0x00\n        /* \"@openzeppelin/contracts/token/ERC20/utils/SafeERC20.sol\":8618:8640  mstore(0x00, selector) */\n      dup2\n      dup2\n      mstore\n      sub(shl(0xa0, 0x01), 0x01)\n        /* \"@openzeppelin/contracts/token/ERC20/utils/SafeERC20.sol\":8666:8690  and(to, shr(96, not(0))) */\n      dup7\n      and\n        /* \"@openzeppelin/contracts/token/ERC20/utils/SafeERC20.sol\":8660:8664  0x04 */\n      0x04\n        /* \"@openzeppelin/contracts/token/ERC20/utils/SafeERC20.sol\":8653:8691  mstore(0x04, and(to, shr(96, not(0)))) */\n      mstore\n        /* \"@openzeppelin/contracts/token/ERC20/utils/SafeERC20.sol\":8711:8715  0x24 */\n      0x24\n        /* \"@openzeppelin/contracts/token/ERC20/utils/SafeERC20.sol\":8704:8723  mstore(0x24, value) */\n      dup6\n      swap1\n      mstore\n        /* \"@openzeppelin/contracts/token/ERC20/utils/SafeERC20.sol\":8467:8479  bool success */\n      swap2\n        /* \"@openzeppelin/contracts/token/ERC20/utils/SafeERC20.sol\":8787:8791  0x20 */\n      0x20\n        /* \"@openzeppelin/contracts/token/ERC20/utils/SafeERC20.sol\":8467:8479  bool success */\n      dup4\n        /* \"@openzeppelin/contracts/token/ERC20/utils/SafeERC20.sol\":8775:8779  0x44 */\n      0x44\n        /* \"@openzeppelin/contracts/token/ERC20/utils/SafeERC20.sol\":8467:8479  bool success */\n      dup2\n      dup1\n        /* \"@openzeppelin/contracts/token/ERC20/utils/SafeERC20.sol\":8759:8764  token */\n      dup12\n        /* \"@openzeppelin/contracts/token/ERC20/utils/SafeERC20.sol\":8752:8757  gas() */\n      gas\n        /* \"@openzeppelin/contracts/token/ERC20/utils/SafeERC20.sol\":8747:8792  call(gas(), token, 0, 0x00, 0x44, 0x00, 0x20) */\n      call\n        /* \"@openzeppelin/contracts/token/ERC20/utils/SafeERC20.sol\":8736:8792  success := call(gas(), token, 0, 0x00, 0x44, 0x00, 0x20) */\n      swap3\n      pop\n        /* \"@openzeppelin/contracts/token/ERC20/utils/SafeERC20.sol\":9004:9005  1 */\n      0x01\n        /* \"@openzeppelin/contracts/token/ERC20/utils/SafeERC20.sol\":8997:9001  0x00 */\n      0x00\n        /* \"@openzeppelin/contracts/token/ERC20/utils/SafeERC20.sol\":8991:9002  mload(0x00) */\n      mload\n        /* \"@openzeppelin/contracts/token/ERC20/utils/SafeERC20.sol\":8988:9006  eq(mload(0x00), 1) */\n      eq\n        /* \"@openzeppelin/contracts/token/ERC20/utils/SafeERC20.sol\":8979:8986  success */\n      dup4\n        /* \"@openzeppelin/contracts/token/ERC20/utils/SafeERC20.sol\":8975:9007  and(success, eq(mload(0x00), 1)) */\n      and\n        /* \"@openzeppelin/contracts/token/ERC20/utils/SafeERC20.sol\":8965:9571  if iszero(and(success, eq(mload(0x00), 1))) {... */\n      tag_270\n      jumpi\n        /* \"@openzeppelin/contracts/token/ERC20/utils/SafeERC20.sol\":9136:9142  bubble */\n      dup4\n        /* \"@openzeppelin/contracts/token/ERC20/utils/SafeERC20.sol\":9126:9133  success */\n      dup4\n        /* \"@openzeppelin/contracts/token/ERC20/utils/SafeERC20.sol\":9119:9134  iszero(success) */\n      iszero\n        /* \"@openzeppelin/contracts/token/ERC20/utils/SafeERC20.sol\":9115:9143  and(iszero(success), bubble) */\n      and\n        /* \"@openzeppelin/contracts/token/ERC20/utils/SafeERC20.sol\":9112:9277  if and(iszero(success), bubble) {... */\n      iszero\n      tag_271\n      jumpi\n        /* \"@openzeppelin/contracts/token/ERC20/utils/SafeERC20.sol\":9192:9208  returndatasize() */\n      returndatasize\n        /* \"@openzeppelin/contracts/token/ERC20/utils/SafeERC20.sol\":9186:9190  0x00 */\n      0x00\n        /* \"@openzeppelin/contracts/token/ERC20/utils/SafeERC20.sol\":9181:9184  fmp */\n      dup3\n        /* \"@openzeppelin/contracts/token/ERC20/utils/SafeERC20.sol\":9166:9209  returndatacopy(fmp, 0x00, returndatasize()) */\n      returndatacopy\n        /* \"@openzeppelin/contracts/token/ERC20/utils/SafeERC20.sol\":9242:9258  returndatasize() */\n      returndatasize\n        /* \"@openzeppelin/contracts/token/ERC20/utils/SafeERC20.sol\":9237:9240  fmp */\n      dup2\n        /* \"@openzeppelin/contracts/token/ERC20/utils/SafeERC20.sol\":9230:9259  revert(fmp, returndatasize()) */\n      revert\n        /* \"@openzeppelin/contracts/token/ERC20/utils/SafeERC20.sol\":9112:9277  if and(iszero(success), bubble) {... */\n    tag_271:\n        /* \"@openzeppelin/contracts/token/ERC20/utils/SafeERC20.sol\":9553:9554  0 */\n      0x00\n        /* \"@openzeppelin/contracts/token/ERC20/utils/SafeERC20.sol\":9545:9550  token */\n      dup8\n        /* \"@openzeppelin/contracts/token/ERC20/utils/SafeERC20.sol\":9533:9551  extcodesize(token) */\n      extcodesize\n        /* \"@openzeppelin/contracts/token/ERC20/utils/SafeERC20.sol\":9530:9555  gt(extcodesize(token), 0) */\n      gt\n        /* \"@openzeppelin/contracts/token/ERC20/utils/SafeERC20.sol\":9511:9527  returndatasize() */\n      returndatasize\n        /* \"@openzeppelin/contracts/token/ERC20/utils/SafeERC20.sol\":9504:9528  iszero(returndatasize()) */\n      iszero\n        /* \"@openzeppelin/contracts/token/ERC20/utils/SafeERC20.sol\":9500:9556  and(iszero(returndatasize()), gt(extcodesize(token), 0)) */\n      and\n        /* \"@openzeppelin/contracts/token/ERC20/utils/SafeERC20.sol\":9491:9498  success */\n      dup4\n        /* \"@openzeppelin/contracts/token/ERC20/utils/SafeERC20.sol\":9487:9557  and(success, and(iszero(returndatasize()), gt(extcodesize(token), 0))) */\n      and\n        /* \"@openzeppelin/contracts/token/ERC20/utils/SafeERC20.sol\":9476:9557  success := and(success, and(iszero(returndatasize()), gt(extcodesize(token), 0))) */\n      swap3\n      pop\n        /* \"@openzeppelin/contracts/token/ERC20/utils/SafeERC20.sol\":8965:9571  if iszero(and(success, eq(mload(0x00), 1))) {... */\n    tag_270:\n        /* \"@openzeppelin/contracts/token/ERC20/utils/SafeERC20.sol\":9591:9595  0x40 */\n      0x40\n        /* \"@openzeppelin/contracts/token/ERC20/utils/SafeERC20.sol\":9584:9601  mstore(0x40, fmp) */\n      mstore\n      pop\n        /* \"@openzeppelin/contracts/token/ERC20/utils/SafeERC20.sol\":8373:9617  function _safeTransfer(IERC20 token, address to, uint256 value, bool bubble) private returns (bool success) {... */\n      swap5\n      swap4\n      pop\n      pop\n      pop\n      pop\n      jump\t// out\n        /* \"@openzeppelin/contracts/token/ERC20/utils/SafeERC20.sol\":10165:11558  function _safeTransferFrom(... */\n    tag_254:\n        /* \"@openzeppelin/contracts/token/ERC20/utils/SafeERC20.sol\":10460:10464  0x40 */\n      0x40\n        /* \"@openzeppelin/contracts/token/ERC20/utils/SafeERC20.sol\":10454:10465  mload(0x40) */\n      mload\n        /* \"@openzeppelin/contracts/token/ERC20/utils/SafeERC20.sol\":10365:10393  IERC20.transferFrom.selector */\n      0x23b872dd00000000000000000000000000000000000000000000000000000000\n        /* \"@openzeppelin/contracts/token/ERC20/utils/SafeERC20.sol\":10323:10335  bool success */\n      0x00\n        /* \"@openzeppelin/contracts/token/ERC20/utils/SafeERC20.sol\":10478:10500  mstore(0x00, selector) */\n      dup2\n      dup2\n      mstore\n      sub(shl(0xa0, 0x01), 0x01)\n        /* \"@openzeppelin/contracts/token/ERC20/utils/SafeERC20.sol\":10526:10552  and(from, shr(96, not(0))) */\n      dup8\n      dup2\n      and\n        /* \"@openzeppelin/contracts/token/ERC20/utils/SafeERC20.sol\":10520:10524  0x04 */\n      0x04\n        /* \"@openzeppelin/contracts/token/ERC20/utils/SafeERC20.sol\":10513:10553  mstore(0x04, and(from, shr(96, not(0)))) */\n      mstore\n        /* \"@openzeppelin/contracts/token/ERC20/utils/SafeERC20.sol\":10579:10603  and(to, shr(96, not(0))) */\n      dup7\n      and\n        /* \"@openzeppelin/contracts/token/ERC20/utils/SafeERC20.sol\":10573:10577  0x24 */\n      0x24\n        /* \"@openzeppelin/contracts/token/ERC20/utils/SafeERC20.sol\":10566:10604  mstore(0x24, and(to, shr(96, not(0)))) */\n      mstore\n        /* \"@openzeppelin/contracts/token/ERC20/utils/SafeERC20.sol\":10624:10628  0x44 */\n      0x44\n        /* \"@openzeppelin/contracts/token/ERC20/utils/SafeERC20.sol\":10617:10636  mstore(0x44, value) */\n      dup6\n      swap1\n      mstore\n        /* \"@openzeppelin/contracts/token/ERC20/utils/SafeERC20.sol\":10323:10335  bool success */\n      swap2\n        /* \"@openzeppelin/contracts/token/ERC20/utils/SafeERC20.sol\":10700:10704  0x20 */\n      0x20\n        /* \"@openzeppelin/contracts/token/ERC20/utils/SafeERC20.sol\":10323:10335  bool success */\n      dup4\n        /* \"@openzeppelin/contracts/token/ERC20/utils/SafeERC20.sol\":10688:10692  0x64 */\n      0x64\n        /* \"@openzeppelin/contracts/token/ERC20/utils/SafeERC20.sol\":10323:10335  bool success */\n      dup2\n      dup1\n        /* \"@openzeppelin/contracts/token/ERC20/utils/SafeERC20.sol\":10672:10677  token */\n      dup13\n        /* \"@openzeppelin/contracts/token/ERC20/utils/SafeERC20.sol\":10665:10670  gas() */\n      gas\n        /* \"@openzeppelin/contracts/token/ERC20/utils/SafeERC20.sol\":10660:10705  call(gas(), token, 0, 0x00, 0x64, 0x00, 0x20) */\n      call\n        /* \"@openzeppelin/contracts/token/ERC20/utils/SafeERC20.sol\":10649:10705  success := call(gas(), token, 0, 0x00, 0x64, 0x00, 0x20) */\n      swap3\n      pop\n        /* \"@openzeppelin/contracts/token/ERC20/utils/SafeERC20.sol\":10917:10918  1 */\n      0x01\n        /* \"@openzeppelin/contracts/token/ERC20/utils/SafeERC20.sol\":10910:10914  0x00 */\n      0x00\n        /* \"@openzeppelin/contracts/token/ERC20/utils/SafeERC20.sol\":10904:10915  mload(0x00) */\n      mload\n        /* \"@openzeppelin/contracts/token/ERC20/utils/SafeERC20.sol\":10901:10919  eq(mload(0x00), 1) */\n      eq\n        /* \"@openzeppelin/contracts/token/ERC20/utils/SafeERC20.sol\":10892:10899  success */\n      dup4\n        /* \"@openzeppelin/contracts/token/ERC20/utils/SafeERC20.sol\":10888:10920  and(success, eq(mload(0x00), 1)) */\n      and\n        /* \"@openzeppelin/contracts/token/ERC20/utils/SafeERC20.sol\":10878:11484  if iszero(and(success, eq(mload(0x00), 1))) {... */\n      tag_276\n      jumpi\n        /* \"@openzeppelin/contracts/token/ERC20/utils/SafeERC20.sol\":11049:11055  bubble */\n      dup4\n        /* \"@openzeppelin/contracts/token/ERC20/utils/SafeERC20.sol\":11039:11046  success */\n      dup4\n        /* \"@openzeppelin/contracts/token/ERC20/utils/SafeERC20.sol\":11032:11047  iszero(success) */\n      iszero\n        /* \"@openzeppelin/contracts/token/ERC20/utils/SafeERC20.sol\":11028:11056  and(iszero(success), bubble) */\n      and\n        /* \"@openzeppelin/contracts/token/ERC20/utils/SafeERC20.sol\":11025:11190  if and(iszero(success), bubble) {... */\n      iszero\n      tag_277\n      jumpi\n        /* \"@openzeppelin/contracts/token/ERC20/utils/SafeERC20.sol\":11105:11121  returndatasize() */\n      returndatasize\n        /* \"@openzeppelin/contracts/token/ERC20/utils/SafeERC20.sol\":11099:11103  0x00 */\n      0x00\n        /* \"@openzeppelin/contracts/token/ERC20/utils/SafeERC20.sol\":11094:11097  fmp */\n      dup3\n        /* \"@openzeppelin/contracts/token/ERC20/utils/SafeERC20.sol\":11079:11122  returndatacopy(fmp, 0x00, returndatasize()) */\n      returndatacopy\n        /* \"@openzeppelin/contracts/token/ERC20/utils/SafeERC20.sol\":11155:11171  returndatasize() */\n      returndatasize\n        /* \"@openzeppelin/contracts/token/ERC20/utils/SafeERC20.sol\":11150:11153  fmp */\n      dup2\n        /* \"@openzeppelin/contracts/token/ERC20/utils/SafeERC20.sol\":11143:11172  revert(fmp, returndatasize()) */\n      revert\n        /* \"@openzeppelin/contracts/token/ERC20/utils/SafeERC20.sol\":11025:11190  if and(iszero(success), bubble) {... */\n    tag_277:\n        /* \"@openzeppelin/contracts/token/ERC20/utils/SafeERC20.sol\":11466:11467  0 */\n      0x00\n        /* \"@openzeppelin/contracts/token/ERC20/utils/SafeERC20.sol\":11458:11463  token */\n      dup9\n        /* \"@openzeppelin/contracts/token/ERC20/utils/SafeERC20.sol\":11446:11464  extcodesize(token) */\n      extcodesize\n        /* \"@openzeppelin/contracts/token/ERC20/utils/SafeERC20.sol\":11443:11468  gt(extcodesize(token), 0) */\n      gt\n        /* \"@openzeppelin/contracts/token/ERC20/utils/SafeERC20.sol\":11424:11440  returndatasize() */\n      returndatasize\n        /* \"@openzeppelin/contracts/token/ERC20/utils/SafeERC20.sol\":11417:11441  iszero(returndatasize()) */\n      iszero\n        /* \"@openzeppelin/contracts/token/ERC20/utils/SafeERC20.sol\":11413:11469  and(iszero(returndatasize()), gt(extcodesize(token), 0)) */\n      and\n        /* \"@openzeppelin/contracts/token/ERC20/utils/SafeERC20.sol\":11404:11411  success */\n      dup4\n        /* \"@openzeppelin/contracts/token/ERC20/utils/SafeERC20.sol\":11400:11470  and(success, and(iszero(returndatasize()), gt(extcodesize(token), 0))) */\n      and\n        /* \"@openzeppelin/contracts/token/ERC20/utils/SafeERC20.sol\":11389:11470  success := and(success, and(iszero(returndatasize()), gt(extcodesize(token), 0))) */\n      swap3\n      pop\n        /* \"@openzeppelin/contracts/token/ERC20/utils/SafeERC20.sol\":10878:11484  if iszero(and(success, eq(mload(0x00), 1))) {... */\n    tag_276:\n        /* \"@openzeppelin/contracts/token/ERC20/utils/SafeERC20.sol\":11504:11508  0x40 */\n      0x40\n        /* \"@openzeppelin/contracts/token/ERC20/utils/SafeERC20.sol\":11497:11514  mstore(0x40, fmp) */\n      mstore\n      pop\n        /* \"@openzeppelin/contracts/token/ERC20/utils/SafeERC20.sol\":11540:11541  0 */\n      0x00\n        /* \"@openzeppelin/contracts/token/ERC20/utils/SafeERC20.sol\":11534:11538  0x60 */\n      0x60\n        /* \"@openzeppelin/contracts/token/ERC20/utils/SafeERC20.sol\":11527:11542  mstore(0x60, 0) */\n      mstore\n        /* \"@openzeppelin/contracts/token/ERC20/utils/SafeERC20.sol\":10165:11558  function _safeTransferFrom(... */\n      swap6\n      swap5\n      pop\n      pop\n      pop\n      pop\n      pop\n      jump\t// out\n        /* \"@openzeppelin/contracts/token/ERC20/utils/SafeERC20.sol\":12059:13311  function _safeApprove(IERC20 token, address spender, uint256 value, bool bubble) private returns (bool success) {... */\n    tag_259:\n        /* \"@openzeppelin/contracts/token/ERC20/utils/SafeERC20.sol\":12289:12293  0x40 */\n      0x40\n        /* \"@openzeppelin/contracts/token/ERC20/utils/SafeERC20.sol\":12283:12294  mload(0x40) */\n      mload\n        /* \"@openzeppelin/contracts/token/ERC20/utils/SafeERC20.sol\":12199:12222  IERC20.approve.selector */\n      0x095ea7b300000000000000000000000000000000000000000000000000000000\n        /* \"@openzeppelin/contracts/token/ERC20/utils/SafeERC20.sol\":12157:12169  bool success */\n      0x00\n        /* \"@openzeppelin/contracts/token/ERC20/utils/SafeERC20.sol\":12307:12329  mstore(0x00, selector) */\n      dup2\n      dup2\n      mstore\n      sub(shl(0xa0, 0x01), 0x01)\n        /* \"@openzeppelin/contracts/token/ERC20/utils/SafeERC20.sol\":12355:12384  and(spender, shr(96, not(0))) */\n      dup7\n      and\n        /* \"@openzeppelin/contracts/token/ERC20/utils/SafeERC20.sol\":12349:12353  0x04 */\n      0x04\n        /* \"@openzeppelin/contracts/token/ERC20/utils/SafeERC20.sol\":12342:12385  mstore(0x04, and(spender, shr(96, not(0)))) */\n      mstore\n        /* \"@openzeppelin/contracts/token/ERC20/utils/SafeERC20.sol\":12405:12409  0x24 */\n      0x24\n        /* \"@openzeppelin/contracts/token/ERC20/utils/SafeERC20.sol\":12398:12417  mstore(0x24, value) */\n      dup6\n      swap1\n      mstore\n        /* \"@openzeppelin/contracts/token/ERC20/utils/SafeERC20.sol\":12157:12169  bool success */\n      swap2\n        /* \"@openzeppelin/contracts/token/ERC20/utils/SafeERC20.sol\":12481:12485  0x20 */\n      0x20\n        /* \"@openzeppelin/contracts/token/ERC20/utils/SafeERC20.sol\":12157:12169  bool success */\n      dup4\n        /* \"@openzeppelin/contracts/token/ERC20/utils/SafeERC20.sol\":12469:12473  0x44 */\n      0x44\n        /* \"@openzeppelin/contracts/token/ERC20/utils/SafeERC20.sol\":12157:12169  bool success */\n      dup2\n      dup1\n        /* \"@openzeppelin/contracts/token/ERC20/utils/SafeERC20.sol\":12453:12458  token */\n      dup12\n        /* \"@openzeppelin/contracts/token/ERC20/utils/SafeERC20.sol\":12446:12451  gas() */\n      gas\n        /* \"@openzeppelin/contracts/token/ERC20/utils/SafeERC20.sol\":12441:12486  call(gas(), token, 0, 0x00, 0x44, 0x00, 0x20) */\n      call\n        /* \"@openzeppelin/contracts/token/ERC20/utils/SafeERC20.sol\":12430:12486  success := call(gas(), token, 0, 0x00, 0x44, 0x00, 0x20) */\n      swap3\n      pop\n        /* \"@openzeppelin/contracts/token/ERC20/utils/SafeERC20.sol\":12698:12699  1 */\n      0x01\n        /* \"@openzeppelin/contracts/token/ERC20/utils/SafeERC20.sol\":12691:12695  0x00 */\n      0x00\n        /* \"@openzeppelin/contracts/token/ERC20/utils/SafeERC20.sol\":12685:12696  mload(0x00) */\n      mload\n        /* \"@openzeppelin/contracts/token/ERC20/utils/SafeERC20.sol\":12682:12700  eq(mload(0x00), 1) */\n      eq\n        /* \"@openzeppelin/contracts/token/ERC20/utils/SafeERC20.sol\":12673:12680  success */\n      dup4\n        /* \"@openzeppelin/contracts/token/ERC20/utils/SafeERC20.sol\":12669:12701  and(success, eq(mload(0x00), 1)) */\n      and\n        /* \"@openzeppelin/contracts/token/ERC20/utils/SafeERC20.sol\":12659:13265  if iszero(and(success, eq(mload(0x00), 1))) {... */\n      tag_270\n      jumpi\n        /* \"@openzeppelin/contracts/token/ERC20/utils/SafeERC20.sol\":12830:12836  bubble */\n      dup4\n        /* \"@openzeppelin/contracts/token/ERC20/utils/SafeERC20.sol\":12820:12827  success */\n      dup4\n        /* \"@openzeppelin/contracts/token/ERC20/utils/SafeERC20.sol\":12813:12828  iszero(success) */\n      iszero\n        /* \"@openzeppelin/contracts/token/ERC20/utils/SafeERC20.sol\":12809:12837  and(iszero(success), bubble) */\n      and\n        /* \"@openzeppelin/contracts/token/ERC20/utils/SafeERC20.sol\":12806:12971  if and(iszero(success), bubble) {... */\n      iszero\n      tag_271\n      jumpi\n        /* \"@openzeppelin/contracts/token/ERC20/utils/SafeERC20.sol\":12886:12902  returndatasize() */\n      returndatasize\n        /* \"@openzeppelin/contracts/token/ERC20/utils/SafeERC20.sol\":12880:12884  0x00 */\n      0x00\n        /* \"@openzeppelin/contracts/token/ERC20/utils/SafeERC20.sol\":12875:12878  fmp */\n      dup3\n        /* \"@openzeppelin/contracts/token/ERC20/utils/SafeERC20.sol\":12860:12903  returndatacopy(fmp, 0x00, returndatasize()) */\n      returndatacopy\n        /* \"@openzeppelin/contracts/token/ERC20/utils/SafeERC20.sol\":12936:12952  returndatasize() */\n      returndatasize\n        /* \"@openzeppelin/contracts/token/ERC20/utils/SafeERC20.sol\":12931:12934  fmp */\n      dup2\n        /* \"@openzeppelin/contracts/token/ERC20/utils/SafeERC20.sol\":12924:12953  revert(fmp, returndatasize()) */\n      revert\n        /* \"#utility.yul\":14:168   */\n    tag_281:\n      sub(shl(0xa0, 0x01), 0x01)\n        /* \"#utility.yul\":93:98   */\n      dup2\n        /* \"#utility.yul\":89:143   */\n      and\n        /* \"#utility.yul\":82:87   */\n      dup2\n        /* \"#utility.yul\":79:144   */\n      eq\n        /* \"#utility.yul\":69:162   */\n      tag_223\n      jumpi\n        /* \"#utility.yul\":158:159   */\n      0x00\n        /* \"#utility.yul\":155:156   */\n      0x00\n        /* \"#utility.yul\":148:160   */\n      revert\n        /* \"#utility.yul\":173:681   */\n    tag_26:\n        /* \"#utility.yul\":250:256   */\n      0x00\n        /* \"#utility.yul\":258:264   */\n      0x00\n        /* \"#utility.yul\":266:272   */\n      0x00\n        /* \"#utility.yul\":319:321   */\n      0x60\n        /* \"#utility.yul\":307:316   */\n      dup5\n        /* \"#utility.yul\":298:305   */\n      dup7\n        /* \"#utility.yul\":294:317   */\n      sub\n        /* \"#utility.yul\":290:322   */\n      slt\n        /* \"#utility.yul\":287:339   */\n      iszero\n      tag_289\n      jumpi\n        /* \"#utility.yul\":335:336   */\n      0x00\n        /* \"#utility.yul\":332:333   */\n      0x00\n        /* \"#utility.yul\":325:337   */\n      revert\n        /* \"#utility.yul\":287:339   */\n    tag_289:\n        /* \"#utility.yul\":374:383   */\n      dup4\n        /* \"#utility.yul\":361:384   */\n      calldataload\n        /* \"#utility.yul\":393:424   */\n      tag_290\n        /* \"#utility.yul\":418:423   */\n      dup2\n        /* \"#utility.yul\":393:424   */\n      tag_281\n      jump\t// in\n    tag_290:\n        /* \"#utility.yul\":443:448   */\n      swap3\n      pop\n        /* \"#utility.yul\":500:502   */\n      0x20\n        /* \"#utility.yul\":485:503   */\n      dup5\n      add\n        /* \"#utility.yul\":472:504   */\n      calldataload\n        /* \"#utility.yul\":513:546   */\n      tag_291\n        /* \"#utility.yul\":472:504   */\n      dup2\n        /* \"#utility.yul\":513:546   */\n      tag_281\n      jump\t// in\n    tag_291:\n        /* \"#utility.yul\":173:681   */\n      swap3\n      swap6\n        /* \"#utility.yul\":565:572   */\n      swap3\n      swap5\n      pop\n      pop\n      pop\n        /* \"#utility.yul\":645:647   */\n      0x40\n        /* \"#utility.yul\":630:648   */\n      swap2\n      swap1\n      swap2\n      add\n        /* \"#utility.yul\":617:649   */\n      calldataload\n      swap1\n        /* \"#utility.yul\":173:681   */\n      jump\t// out\n        /* \"#utility.yul\":931:1102   */\n    tag_282:\n        /* \"#utility.yul\":998:1018   */\n      dup1\n      calldataload\n        /* \"#utility.yul\":1058:1076   */\n      0xffffffffffffffff\n        /* \"#utility.yul\":1047:1077   */\n      dup2\n      and\n        /* \"#utility.yul\":1037:1078   */\n      dup2\n      eq\n        /* \"#utility.yul\":1027:1096   */\n      tag_294\n      jumpi\n        /* \"#utility.yul\":1092:1093   */\n      0x00\n        /* \"#utility.yul\":1089:1090   */\n      0x00\n        /* \"#utility.yul\":1082:1094   */\n      revert\n        /* \"#utility.yul\":1027:1096   */\n    tag_294:\n        /* \"#utility.yul\":931:1102   */\n      swap2\n      swap1\n      pop\n      jump\t// out\n        /* \"#utility.yul\":1107:1546   */\n    tag_36:\n        /* \"#utility.yul\":1183:1189   */\n      0x00\n        /* \"#utility.yul\":1191:1197   */\n      0x00\n        /* \"#utility.yul\":1199:1205   */\n      0x00\n        /* \"#utility.yul\":1252:1254   */\n      0x60\n        /* \"#utility.yul\":1240:1249   */\n      dup5\n        /* \"#utility.yul\":1231:1238   */\n      dup7\n        /* \"#utility.yul\":1227:1250   */\n      sub\n        /* \"#utility.yul\":1223:1255   */\n      slt\n        /* \"#utility.yul\":1220:1272   */\n      iszero\n      tag_296\n      jumpi\n        /* \"#utility.yul\":1268:1269   */\n      0x00\n        /* \"#utility.yul\":1265:1266   */\n      0x00\n        /* \"#utility.yul\":1258:1270   */\n      revert\n        /* \"#utility.yul\":1220:1272   */\n    tag_296:\n        /* \"#utility.yul\":1291:1319   */\n      tag_290\n        /* \"#utility.yul\":1309:1318   */\n      dup5\n        /* \"#utility.yul\":1291:1319   */\n      tag_282\n      jump\t// in\n        /* \"#utility.yul\":1733:1988   */\n    tag_43:\n        /* \"#utility.yul\":1800:1806   */\n      0x00\n        /* \"#utility.yul\":1853:1855   */\n      0x20\n        /* \"#utility.yul\":1841:1850   */\n      dup3\n        /* \"#utility.yul\":1832:1839   */\n      dup5\n        /* \"#utility.yul\":1828:1851   */\n      sub\n        /* \"#utility.yul\":1824:1856   */\n      slt\n        /* \"#utility.yul\":1821:1873   */\n      iszero\n      tag_301\n      jumpi\n        /* \"#utility.yul\":1869:1870   */\n      0x00\n        /* \"#utility.yul\":1866:1867   */\n      0x00\n        /* \"#utility.yul\":1859:1871   */\n      revert\n        /* \"#utility.yul\":1821:1873   */\n    tag_301:\n        /* \"#utility.yul\":1908:1917   */\n      dup2\n        /* \"#utility.yul\":1895:1918   */\n      calldataload\n        /* \"#utility.yul\":1927:1958   */\n      tag_302\n        /* \"#utility.yul\":1952:1957   */\n      dup2\n        /* \"#utility.yul\":1927:1958   */\n      tag_281\n      jump\t// in\n    tag_302:\n        /* \"#utility.yul\":1977:1982   */\n      swap4\n        /* \"#utility.yul\":1733:1988   */\n      swap3\n      pop\n      pop\n      pop\n      jump\t// out\n        /* \"#utility.yul\":2175:2359   */\n    tag_61:\n        /* \"#utility.yul\":2233:2239   */\n      0x00\n        /* \"#utility.yul\":2286:2288   */\n      0x20\n        /* \"#utility.yul\":2274:2283   */\n      dup3\n        /* \"#utility.yul\":2265:2272   */\n      dup5\n        /* \"#utility.yul\":2261:2284   */\n      sub\n        /* \"#utility.yul\":2257:2289   */\n      slt\n        /* \"#utility.yul\":2254:2306   */\n      iszero\n      tag_305\n      jumpi\n        /* \"#utility.yul\":2302:2303   */\n      0x00\n        /* \"#utility.yul\":2299:2300   */\n      0x00\n        /* \"#utility.yul\":2292:2304   */\n      revert\n        /* \"#utility.yul\":2254:2306   */\n    tag_305:\n        /* \"#utility.yul\":2325:2353   */\n      tag_302\n        /* \"#utility.yul\":2343:2352   */\n      dup3\n        /* \"#utility.yul\":2325:2353   */\n      tag_282\n      jump\t// in\n        /* \"#utility.yul\":2919:3264   */\n    tag_78:\n        /* \"#utility.yul\":2983:2989   */\n      0x00\n        /* \"#utility.yul\":2991:2997   */\n      0x00\n        /* \"#utility.yul\":3044:3046   */\n      0x40\n        /* \"#utility.yul\":3032:3041   */\n      dup4\n        /* \"#utility.yul\":3023:3030   */\n      dup6\n        /* \"#utility.yul\":3019:3042   */\n      sub\n        /* \"#utility.yul\":3015:3047   */\n      slt\n        /* \"#utility.yul\":3012:3064   */\n      iszero\n      tag_311\n      jumpi\n        /* \"#utility.yul\":3060:3061   */\n      0x00\n        /* \"#utility.yul\":3057:3058   */\n      0x00\n        /* \"#utility.yul\":3050:3062   */\n      revert\n        /* \"#utility.yul\":3012:3064   */\n    tag_311:\n        /* \"#utility.yul\":3083:3111   */\n      tag_312\n        /* \"#utility.yul\":3101:3110   */\n      dup4\n        /* \"#utility.yul\":3083:3111   */\n      tag_282\n      jump\t// in\n    tag_312:\n        /* \"#utility.yul\":3073:3111   */\n      swap2\n      pop\n        /* \"#utility.yul\":3161:3163   */\n      0x20\n        /* \"#utility.yul\":3150:3159   */\n      dup4\n        /* \"#utility.yul\":3146:3164   */\n      add\n        /* \"#utility.yul\":3133:3165   */\n      calldataload\n        /* \"#utility.yul\":3208:3213   */\n      dup1\n        /* \"#utility.yul\":3201:3214   */\n      iszero\n        /* \"#utility.yul\":3194:3215   */\n      iszero\n        /* \"#utility.yul\":3187:3192   */\n      dup2\n        /* \"#utility.yul\":3184:3216   */\n      eq\n        /* \"#utility.yul\":3174:3234   */\n      tag_313\n      jumpi\n        /* \"#utility.yul\":3230:3231   */\n      0x00\n        /* \"#utility.yul\":3227:3228   */\n      0x00\n        /* \"#utility.yul\":3220:3232   */\n      revert\n        /* \"#utility.yul\":3174:3234   */\n    tag_313:\n        /* \"#utility.yul\":3253:3258   */\n      dup1\n        /* \"#utility.yul\":3243:3258   */\n      swap2\n      pop\n      pop\n        /* \"#utility.yul\":2919:3264   */\n      swap3\n      pop\n      swap3\n      swap1\n      pop\n      jump\t// out\n        /* \"#utility.yul\":3977:4265   */\n    tag_284:\n        /* \"#utility.yul\":4018:4021   */\n      0x00\n        /* \"#utility.yul\":4056:4061   */\n      dup2\n        /* \"#utility.yul\":4050:4062   */\n      mload\n        /* \"#utility.yul\":4083:4089   */\n      dup1\n        /* \"#utility.yul\":4078:4081   */\n      dup5\n        /* \"#utility.yul\":4071:4090   */\n      mstore\n        /* \"#utility.yul\":4139:4145   */\n      dup1\n        /* \"#utility.yul\":4132:4136   */\n      0x20\n        /* \"#utility.yul\":4125:4130   */\n      dup5\n        /* \"#utility.yul\":4121:4137   */\n      add\n        /* \"#utility.yul\":4114:4118   */\n      0x20\n        /* \"#utility.yul\":4109:4112   */\n      dup7\n        /* \"#utility.yul\":4105:4119   */\n      add\n        /* \"#utility.yul\":4099:4146   */\n      mcopy\n        /* \"#utility.yul\":4191:4192   */\n      0x00\n        /* \"#utility.yul\":4184:4188   */\n      0x20\n        /* \"#utility.yul\":4175:4181   */\n      dup3\n        /* \"#utility.yul\":4170:4173   */\n      dup7\n        /* \"#utility.yul\":4166:4182   */\n      add\n        /* \"#utility.yul\":4162:4189   */\n      add\n        /* \"#utility.yul\":4155:4193   */\n      mstore\n        /* \"#utility.yul\":4254:4258   */\n      0x20\n        /* \"#utility.yul\":4247:4249   */\n      0x1f\n        /* \"#utility.yul\":4243:4250   */\n      not\n        /* \"#utility.yul\":4238:4240   */\n      0x1f\n        /* \"#utility.yul\":4230:4236   */\n      dup4\n        /* \"#utility.yul\":4226:4241   */\n      add\n        /* \"#utility.yul\":4222:4251   */\n      and\n        /* \"#utility.yul\":4217:4220   */\n      dup6\n        /* \"#utility.yul\":4213:4252   */\n      add\n        /* \"#utility.yul\":4209:4259   */\n      add\n        /* \"#utility.yul\":4202:4259   */\n      swap2\n      pop\n      pop\n        /* \"#utility.yul\":3977:4265   */\n      swap3\n      swap2\n      pop\n      pop\n      jump\t// out\n        /* \"#utility.yul\":4270:5841   */\n    tag_114:\n        /* \"#utility.yul\":4497:4515   */\n      0xffffffffffffffff\n        /* \"#utility.yul\":4489:4495   */\n      dup4\n        /* \"#utility.yul\":4485:4516   */\n      and\n        /* \"#utility.yul\":4474:4483   */\n      dup2\n        /* \"#utility.yul\":4467:4517   */\n      mstore\n        /* \"#utility.yul\":4553:4555   */\n      0x40\n        /* \"#utility.yul\":4548:4550   */\n      0x20\n        /* \"#utility.yul\":4537:4546   */\n      dup3\n        /* \"#utility.yul\":4533:4551   */\n      add\n        /* \"#utility.yul\":4526:4556   */\n      mstore\n        /* \"#utility.yul\":4448:4452   */\n      0x00\n        /* \"#utility.yul\":4591:4597   */\n      dup3\n        /* \"#utility.yul\":4585:4598   */\n      mload\n        /* \"#utility.yul\":4634:4638   */\n      0xa0\n        /* \"#utility.yul\":4629:4631   */\n      0x40\n        /* \"#utility.yul\":4618:4627   */\n      dup5\n        /* \"#utility.yul\":4614:4632   */\n      add\n        /* \"#utility.yul\":4607:4639   */\n      mstore\n        /* \"#utility.yul\":4662:4713   */\n      tag_321\n        /* \"#utility.yul\":4708:4711   */\n      0xe0\n        /* \"#utility.yul\":4697:4706   */\n      dup5\n        /* \"#utility.yul\":4693:4712   */\n      add\n        /* \"#utility.yul\":4679:4691   */\n      dup3\n        /* \"#utility.yul\":4662:4713   */\n      tag_284\n      jump\t// in\n    tag_321:\n        /* \"#utility.yul\":4648:4713   */\n      swap1\n      pop\n        /* \"#utility.yul\":4762:4764   */\n      0x20\n        /* \"#utility.yul\":4754:4760   */\n      dup5\n        /* \"#utility.yul\":4750:4765   */\n      add\n        /* \"#utility.yul\":4744:4766   */\n      mload\n        /* \"#utility.yul\":4834:4836   */\n      0x3f\n        /* \"#utility.yul\":4830:4837   */\n      not\n        /* \"#utility.yul\":4818:4827   */\n      dup5\n        /* \"#utility.yul\":4810:4816   */\n      dup4\n        /* \"#utility.yul\":4806:4828   */\n      sub\n        /* \"#utility.yul\":4802:4838   */\n      add\n        /* \"#utility.yul\":4797:4799   */\n      0x60\n        /* \"#utility.yul\":4786:4795   */\n      dup6\n        /* \"#utility.yul\":4782:4800   */\n      add\n        /* \"#utility.yul\":4775:4839   */\n      mstore\n        /* \"#utility.yul\":4862:4902   */\n      tag_322\n        /* \"#utility.yul\":4895:4901   */\n      dup3\n        /* \"#utility.yul\":4879:4893   */\n      dup3\n        /* \"#utility.yul\":4862:4902   */\n      tag_284\n      jump\t// in\n    tag_322:\n        /* \"#utility.yul\":4951:4953   */\n      0x40\n        /* \"#utility.yul\":4939:4954   */\n      dup7\n      add\n        /* \"#utility.yul\":4933:4955   */\n      mload\n        /* \"#utility.yul\":4996:5018   */\n      dup6\n      dup3\n      sub\n      not(0x3f)\n        /* \"#utility.yul\":4992:5028   */\n      add\n        /* \"#utility.yul\":4986:4989   */\n      0x80\n        /* \"#utility.yul\":4971:4990   */\n      dup8\n      add\n        /* \"#utility.yul\":4964:5029   */\n      mstore\n        /* \"#utility.yul\":5078:5099   */\n      dup1\n      mload\n        /* \"#utility.yul\":5108:5130   */\n      dup1\n      dup4\n      mstore\n        /* \"#utility.yul\":5158:5160   */\n      0x20\n        /* \"#utility.yul\":5184:5207   */\n      swap2\n      dup3\n      add\n      swap5\n      pop\n        /* \"#utility.yul\":5225:5226   */\n      0x00\n      swap4\n      pop\n        /* \"#utility.yul\":5146:5161   */\n      swap2\n      add\n      swap1\n        /* \"#utility.yul\":5235:5538   */\n    tag_323:\n        /* \"#utility.yul\":5249:5255   */\n      dup1\n        /* \"#utility.yul\":5246:5247   */\n      dup4\n        /* \"#utility.yul\":5243:5256   */\n      lt\n        /* \"#utility.yul\":5235:5538   */\n      iszero\n      tag_325\n      jumpi\n        /* \"#utility.yul\":5314:5320   */\n      dup4\n        /* \"#utility.yul\":5308:5321   */\n      mload\n      sub(shl(0xa0, 0x01), 0x01)\n        /* \"#utility.yul\":5356:5358   */\n      dup2\n        /* \"#utility.yul\":5350:5359   */\n      mload\n        /* \"#utility.yul\":5346:5404   */\n      and\n        /* \"#utility.yul\":5341:5344   */\n      dup4\n        /* \"#utility.yul\":5334:5405   */\n      mstore\n        /* \"#utility.yul\":5453:5455   */\n      0x20\n        /* \"#utility.yul\":5449:5451   */\n      dup2\n        /* \"#utility.yul\":5445:5456   */\n      add\n        /* \"#utility.yul\":5439:5457   */\n      mload\n        /* \"#utility.yul\":5434:5436   */\n      0x20\n        /* \"#utility.yul\":5429:5432   */\n      dup5\n        /* \"#utility.yul\":5425:5437   */\n      add\n        /* \"#utility.yul\":5418:5458   */\n      mstore\n      pop\n        /* \"#utility.yul\":5487:5489   */\n      0x40\n        /* \"#utility.yul\":5482:5485   */\n      dup3\n        /* \"#utility.yul\":5478:5490   */\n      add\n        /* \"#utility.yul\":5471:5490   */\n      swap2\n      pop\n        /* \"#utility.yul\":5525:5527   */\n      0x20\n        /* \"#utility.yul\":5517:5523   */\n      dup5\n        /* \"#utility.yul\":5513:5528   */\n      add\n        /* \"#utility.yul\":5503:5528   */\n      swap4\n      pop\n        /* \"#utility.yul\":5271:5272   */\n      0x01\n        /* \"#utility.yul\":5268:5269   */\n      dup4\n        /* \"#utility.yul\":5264:5273   */\n      add\n        /* \"#utility.yul\":5259:5273   */\n      swap3\n      pop\n        /* \"#utility.yul\":5235:5538   */\n      jump(tag_323)\n    tag_325:\n      pop\n        /* \"#utility.yul\":5587:5589   */\n      0x60\n        /* \"#utility.yul\":5575:5590   */\n      dup7\n      add\n        /* \"#utility.yul\":5569:5591   */\n      mload\n      sub(shl(0xa0, 0x01), 0x01)\n        /* \"#utility.yul\":2622:2676   */\n      and\n        /* \"#utility.yul\":5650:5654   */\n      0xa0\n        /* \"#utility.yul\":5635:5655   */\n      dup7\n      add\n        /* \"#utility.yul\":2610:2677   */\n      mstore\n        /* \"#utility.yul\":5705:5708   */\n      0x80\n        /* \"#utility.yul\":5693:5709   */\n      dup7\n      add\n        /* \"#utility.yul\":5687:5710   */\n      mload\n        /* \"#utility.yul\":5751:5770   */\n      dup6\n      dup3\n      sub\n      not(0x3f)\n        /* \"#utility.yul\":5747:5780   */\n      add\n        /* \"#utility.yul\":5741:5744   */\n      0xc0\n        /* \"#utility.yul\":5726:5745   */\n      dup8\n      add\n        /* \"#utility.yul\":5719:5781   */\n      mstore\n        /* \"#utility.yul\":5687:5710   */\n      swap3\n      pop\n        /* \"#utility.yul\":5798:5835   */\n      tag_327\n        /* \"#utility.yul\":5751:5770   */\n      dup2\n        /* \"#utility.yul\":5687:5710   */\n      dup5\n        /* \"#utility.yul\":5798:5835   */\n      tag_284\n      jump\t// in\n    tag_327:\n        /* \"#utility.yul\":5790:5835   */\n      swap8\n        /* \"#utility.yul\":4270:5841   */\n      swap7\n      pop\n      pop\n      pop\n      pop\n      pop\n      pop\n      pop\n      jump\t// out\n        /* \"#utility.yul\":5846:6030   */\n    tag_118:\n        /* \"#utility.yul\":5916:5922   */\n      0x00\n        /* \"#utility.yul\":5969:5971   */\n      0x20\n        /* \"#utility.yul\":5957:5966   */\n      dup3\n        /* \"#utility.yul\":5948:5955   */\n      dup5\n        /* \"#utility.yul\":5944:5967   */\n      sub\n        /* \"#utility.yul\":5940:5972   */\n      slt\n        /* \"#utility.yul\":5937:5989   */\n      iszero\n      tag_329\n      jumpi\n        /* \"#utility.yul\":5985:5986   */\n      0x00\n        /* \"#utility.yul\":5982:5983   */\n      0x00\n        /* \"#utility.yul\":5975:5987   */\n      revert\n        /* \"#utility.yul\":5937:5989   */\n    tag_329:\n      pop\n        /* \"#utility.yul\":6008:6024   */\n      mload\n      swap2\n        /* \"#utility.yul\":5846:6030   */\n      swap1\n      pop\n      jump\t// out\n        /* \"#utility.yul\":7647:7929   */\n    tag_210:\n        /* \"#utility.yul\":7714:7723   */\n      dup2\n      dup2\n      sub\n        /* \"#utility.yul\":7735:7746   */\n      dup2\n      dup2\n      gt\n        /* \"#utility.yul\":7732:7923   */\n      iszero\n      tag_337\n      jumpi\n      shl(0xe0, 0x4e487b71)\n        /* \"#utility.yul\":7776:7777   */\n      0x00\n        /* \"#utility.yul\":7769:7857   */\n      mstore\n        /* \"#utility.yul\":7880:7884   */\n      0x11\n        /* \"#utility.yul\":7877:7878   */\n      0x04\n        /* \"#utility.yul\":7870:7885   */\n      mstore\n        /* \"#utility.yul\":7908:7912   */\n      0x24\n        /* \"#utility.yul\":7905:7906   */\n      0x00\n        /* \"#utility.yul\":7898:7913   */\n      revert\n        /* \"#utility.yul\":7732:7923   */\n    tag_337:\n        /* \"#utility.yul\":7647:7929   */\n      swap3\n      swap2\n      pop\n      pop\n      jump\t// out\n        /* \"#utility.yul\":8123:8307   */\n    tag_248:\n      shl(0xe0, 0x4e487b71)\n        /* \"#utility.yul\":8172:8173   */\n      0x00\n        /* \"#utility.yul\":8165:8253   */\n      mstore\n        /* \"#utility.yul\":8272:8276   */\n      0x32\n        /* \"#utility.yul\":8269:8270   */\n      0x04\n        /* \"#utility.yul\":8262:8277   */\n      mstore\n        /* \"#utility.yul\":8296:8300   */\n      0x24\n        /* \"#utility.yul\":8293:8294   */\n      0x00\n        /* \"#utility.yul\":8286:8301   */\n      revert\n\n    auxdata: 0xa2646970667358221220df84aa16c6482812e622fd107868298608bc16580446688987cc0ee40142dcbc64736f6c634300081b0033\n}\n",
				"bytecode": {
					"linkReferences": {},
					"object": "60e060405234801561000f575f5ffd5b50604051611ac5380380611ac583398101604081905261002e916100ee565b836001600160a01b03811661005c57604051631e4fbdf760e01b81525f600482015260240160405180910390fd5b61006581610084565b506001600160a01b0392831660805290821660a0521660c0525061013f565b5f80546001600160a01b038381166001600160a01b0319831681178455604051919092169283917f8be0079c531659141344cd1fd0a4f28419497f9722a3daafe3b4186f6b6457e09190a35050565b80516001600160a01b03811681146100e9575f5ffd5b919050565b5f5f5f5f60808587031215610101575f5ffd5b61010a856100d3565b9350610118602086016100d3565b9250610126604086016100d3565b9150610134606086016100d3565b905092959194509250565b60805160a05160c0516118836102425f395f81816101c0015281816103eb015281816104da0152818161061f01528181610735015281816109bb01528181610ab301528181610b3c01528181610c520152610d3a01525f818161012401528181610596015281816105cb0152818161070701528181610a7e01528181610ae801528181610c2401528181610ed801528181610f0d0152818161109f015261126601525f818161030f01528181610414015281816105ed015281816106410152818161067d01528181610895015281816109e401528181610b0a01528181610b5e01528181610b9a01528181610dfb01528181610f2f0152610f6b01526118835ff3fe6080604052600436106100e7575f3560e01c806375c67c6611610087578063acf69e2711610057578063acf69e27146102ad578063b04cc8b1146102cc578063f2fde38b146102df578063f887ea40146102fe575f5ffd5b806375c67c6614610215578063889d5a82146102535780638da5cb5b1461027257806396d3b83d1461028e575f5ffd5b80632f622e6b116100c25780632f622e6b1461019057806357970e93146101af5780636108d8ee146101e2578063715018a614610201575f5ffd5b806301e33667146100f25780630c5bf351146101135780632cb49f5314610163575f5ffd5b366100ee57005b5f5ffd5b3480156100fd575f5ffd5b5061011161010c366004611605565b610331565b005b34801561011e575f5ffd5b506101467f000000000000000000000000000000000000000000000000000000000000000081565b6040516001600160a01b0390911681526020015b60405180910390f35b34801561016e575f5ffd5b5061018261017d36600461165f565b610352565b60405190815260200161015a565b34801561019b575f5ffd5b506101116101aa36600461167a565b6107aa565b3480156101ba575f5ffd5b506101467f000000000000000000000000000000000000000000000000000000000000000081565b3480156101ed575f5ffd5b506101826101fc36600461165f565b610855565b34801561020c575f5ffd5b50610111610914565b348015610220575f5ffd5b5061024361022f36600461169c565b60016020525f908152604090205460ff1681565b604051901515815260200161015a565b34801561025e575f5ffd5b5061018261026d36600461165f565b610927565b34801561027d575f5ffd5b505f546001600160a01b0316610146565b348015610299575f5ffd5b506101116102a83660046116b5565b610cca565b3480156102b8575f5ffd5b506101826102c736600461165f565b610d31565b6101826102da36600461165f565b610d5e565b3480156102ea575f5ffd5b506101116102f936600461167a565b611111565b348015610309575f5ffd5b506101467f000000000000000000000000000000000000000000000000000000000000000081565b610339611167565b61034d6001600160a01b03841683836111ac565b505050565b67ffffffffffffffff83165f9081526001602052604081205460ff1661039c57604051630a503cdb60e01b815267ffffffffffffffff851660048201526024015b60405180910390fd5b6001600160a01b0383166103c357604051631e4ec46b60e01b815260040160405180910390fd5b815f036103e35760405163162908e360e11b815260040160405180910390fd5b5f61040f84847f00000000000000000000000000000000000000000000000000000000000000006111e1565b90505f7f00000000000000000000000000000000000000000000000000000000000000006001600160a01b03166320487ded87846040518363ffffffff1660e01b815260040161046092919061171c565b602060405180830381865afa15801561047b573d5f5f3e3d5ffd5b505050506040513d601f19601f8201168201806040525081019061049f91906117fd565b6040517f70a082310000000000000000000000000000000000000000000000000000000081523060048201529091505f906001600160a01b037f000000000000000000000000000000000000000000000000000000000000000016906370a0823190602401602060405180830381865afa15801561051f573d5f5f3e3d5ffd5b505050506040513d601f19601f8201168201806040525081019061054391906117fd565b905081811015610589576040517f363e01630000000000000000000000000000000000000000000000000000000081526004810182905260248101839052604401610393565b6105be6001600160a01b037f000000000000000000000000000000000000000000000000000000000000000016333088611398565b6106126001600160a01b037f0000000000000000000000000000000000000000000000000000000000000000167f0000000000000000000000000000000000000000000000000000000000000000876113d4565b6106666001600160a01b037f0000000000000000000000000000000000000000000000000000000000000000167f0000000000000000000000000000000000000000000000000000000000000000846113d4565b6040516396f4e9f960e01b81526001600160a01b037f000000000000000000000000000000000000000000000000000000000000000016906396f4e9f9906106b4908a90879060040161171c565b6020604051808303815f875af11580156106d0573d5f5f3e3d5ffd5b505050506040513d601f19601f820116820180604052508101906106f491906117fd565b604080516001600160a01b0389811682527f0000000000000000000000000000000000000000000000000000000000000000811660208301528183018990527f0000000000000000000000000000000000000000000000000000000000000000166060820152608081018590529051919550339167ffffffffffffffff8a169187917f0ba6886260b2f34f69769ff5fb57fb1a7cd762254a78d55e4fdb6683dda91b359181900360a00190a45050509392505050565b6107b2611167565b5f816001600160a01b0316476040515f6040518083038185875af1925050503d805f81146107fb576040519150601f19603f3d011682016040523d82523d5f602084013e610800565b606091505b50509050806108515760405162461bcd60e51b815260206004820152601060248201527f5472616e73666572206661696c65642e000000000000000000000000000000006044820152606401610393565b5050565b5f5f61086284845f6111e1565b6040517f20487ded0000000000000000000000000000000000000000000000000000000081529091506001600160a01b037f000000000000000000000000000000000000000000000000000000000000000016906320487ded906108cc908890859060040161171c565b602060405180830381865afa1580156108e7573d5f5f3e3d5ffd5b505050506040513d601f19601f8201168201806040525081019061090b91906117fd565b95945050505050565b61091c611167565b6109255f611426565b565b67ffffffffffffffff83165f9081526001602052604081205460ff1661096c57604051630a503cdb60e01b815267ffffffffffffffff85166004820152602401610393565b6001600160a01b03831661099357604051631e4ec46b60e01b815260040160405180910390fd5b815f036109b35760405163162908e360e11b815260040160405180910390fd5b5f6109df84847f00000000000000000000000000000000000000000000000000000000000000006111e1565b90505f7f00000000000000000000000000000000000000000000000000000000000000006001600160a01b03166320487ded87846040518363ffffffff1660e01b8152600401610a3092919061171c565b602060405180830381865afa158015610a4b573d5f5f3e3d5ffd5b505050506040513d601f19601f82011682018060405250810190610a6f91906117fd565b9050610aa66001600160a01b037f000000000000000000000000000000000000000000000000000000000000000016333087611398565b610adb6001600160a01b037f000000000000000000000000000000000000000000000000000000000000000016333084611398565b610b2f6001600160a01b037f0000000000000000000000000000000000000000000000000000000000000000167f0000000000000000000000000000000000000000000000000000000000000000866113d4565b610b836001600160a01b037f0000000000000000000000000000000000000000000000000000000000000000167f0000000000000000000000000000000000000000000000000000000000000000836113d4565b6040516396f4e9f960e01b81526001600160a01b037f000000000000000000000000000000000000000000000000000000000000000016906396f4e9f990610bd1908990869060040161171c565b6020604051808303815f875af1158015610bed573d5f5f3e3d5ffd5b505050506040513d601f19601f82011682018060405250810190610c1191906117fd565b604080516001600160a01b0388811682527f0000000000000000000000000000000000000000000000000000000000000000811660208301529181018790527f0000000000000000000000000000000000000000000000000000000000000000909116606082015260808101839052909350339067ffffffffffffffff88169085907f0ba6886260b2f34f69769ff5fb57fb1a7cd762254a78d55e4fdb6683dda91b359060a0015b60405180910390a450509392505050565b610cd2611167565b67ffffffffffffffff82165f81815260016020908152604091829020805460ff191685151590811790915591519182527f9e831877a5c5b0c6bf39118c59f437de0882033ff7d60a84dbc1f453584a0d11910160405180910390a25050565b5f5f61086284847f00000000000000000000000000000000000000000000000000000000000000006111e1565b67ffffffffffffffff83165f9081526001602052604081205460ff16610da357604051630a503cdb60e01b815267ffffffffffffffff85166004820152602401610393565b6001600160a01b038316610dca57604051631e4ec46b60e01b815260040160405180910390fd5b815f03610dea5760405163162908e360e11b815260040160405180910390fd5b5f610df684845f6111e1565b90505f7f00000000000000000000000000000000000000000000000000000000000000006001600160a01b03166320487ded87846040518363ffffffff1660e01b8152600401610e4792919061171c565b602060405180830381865afa158015610e62573d5f5f3e3d5ffd5b505050506040513d601f19601f82011682018060405250810190610e8691906117fd565b905080341015610ecb576040517f93fcc51000000000000000000000000000000000000000000000000000000000815234600482015260248101829052604401610393565b610f006001600160a01b037f000000000000000000000000000000000000000000000000000000000000000016333087611398565b610f546001600160a01b037f0000000000000000000000000000000000000000000000000000000000000000167f0000000000000000000000000000000000000000000000000000000000000000866113d4565b6040516396f4e9f960e01b81526001600160a01b037f000000000000000000000000000000000000000000000000000000000000000016906396f4e9f9908390610fa4908a90879060040161171c565b60206040518083038185885af1158015610fc0573d5f5f3e3d5ffd5b50505050506040513d601f19601f82011682018060405250810190610fe591906117fd565b92508034111561108c575f33610ffb8334611814565b6040515f81818185875af1925050503d805f8114611034576040519150601f19603f3d011682016040523d82523d5f602084013e611039565b606091505b505090508061108a5760405162461bcd60e51b815260206004820152601060248201527f5472616e73666572206661696c65642e000000000000000000000000000000006044820152606401610393565b505b604080516001600160a01b0387811682527f00000000000000000000000000000000000000000000000000000000000000001660208201529081018590525f606082015260808101829052339067ffffffffffffffff88169085907f0ba6886260b2f34f69769ff5fb57fb1a7cd762254a78d55e4fdb6683dda91b359060a001610cb9565b611119611167565b6001600160a01b03811661115b576040517f1e4fbdf70000000000000000000000000000000000000000000000000000000081525f6004820152602401610393565b61116481611426565b50565b5f546001600160a01b03163314610925576040517f118cdaa7000000000000000000000000000000000000000000000000000000008152336004820152602401610393565b6111b9838383600161148d565b61034d57604051635274afe760e01b81526001600160a01b0384166004820152602401610393565b61121b6040518060a001604052806060815260200160608152602001606081526020015f6001600160a01b03168152602001606081525090565b6040805160018082528183019092525f91816020015b604080518082019091525f808252602082015281526020019060019003908161123157905050905060405180604001604052807f00000000000000000000000000000000000000000000000000000000000000006001600160a01b0316815260200185815250815f815181106112a9576112a9611839565b60209081029190910101526040805160a081019091526001600160a01b03861660c08201528060e08101604051602081830303815290604052815260200160405180602001604052805f8152508152602001828152602001846001600160a01b0316815260200161138d60405180602001604052805f81525060408051915160248084019190915281518084039091018152604490920190526020810180517bffffffffffffffffffffffffffffffffffffffffffffffffffffffff167f97a657c90000000000000000000000000000000000000000000000000000000017905290565b905295945050505050565b6113a6848484846001611508565b6113ce57604051635274afe760e01b81526001600160a01b0385166004820152602401610393565b50505050565b6113e08383835f61158e565b61034d576113f183835f600161158e565b61141957604051635274afe760e01b81526001600160a01b0384166004820152602401610393565b6111b9838383600161158e565b5f80546001600160a01b038381167fffffffffffffffffffffffff0000000000000000000000000000000000000000831681178455604051919092169283917f8be0079c531659141344cd1fd0a4f28419497f9722a3daafe3b4186f6b6457e09190a35050565b6040517fa9059cbb000000000000000000000000000000000000000000000000000000005f8181526001600160a01b038616600452602485905291602083604481808b5af1925060015f511483166114fc5783831516156114f0573d5f823e3d81fd5b5f873b113d1516831692505b60405250949350505050565b6040517f23b872dd000000000000000000000000000000000000000000000000000000005f8181526001600160a01b038781166004528616602452604485905291602083606481808c5af1925060015f5114831661157d578383151615611571573d5f823e3d81fd5b5f883b113d1516831692505b604052505f60605295945050505050565b6040517f095ea7b3000000000000000000000000000000000000000000000000000000005f8181526001600160a01b038616600452602485905291602083604481808b5af1925060015f511483166114fc5783831516156114f0573d5f823e3d81fd5b6001600160a01b0381168114611164575f5ffd5b5f5f5f60608486031215611617575f5ffd5b8335611622816115f1565b92506020840135611632816115f1565b929592945050506040919091013590565b803567ffffffffffffffff8116811461165a575f5ffd5b919050565b5f5f5f60608486031215611671575f5ffd5b61162284611643565b5f6020828403121561168a575f5ffd5b8135611695816115f1565b9392505050565b5f602082840312156116ac575f5ffd5b61169582611643565b5f5f604083850312156116c6575f5ffd5b6116cf83611643565b9150602083013580151581146116e3575f5ffd5b809150509250929050565b5f81518084528060208401602086015e5f602082860101526020601f19601f83011685010191505092915050565b67ffffffffffffffff83168152604060208201525f825160a0604084015261174760e08401826116ee565b90506020840151603f1984830301606085015261176482826116ee565b6040860151858203603f190160808701528051808352602091820194505f93509101905b808310156117c15783516001600160a01b0381511683526020810151602084015250604082019150602084019350600183019250611788565b5060608601516001600160a01b031660a08601526080860151858203603f190160c087015292506117f281846116ee565b979650505050505050565b5f6020828403121561180d575f5ffd5b5051919050565b8181038181111561183357634e487b7160e01b5f52601160045260245ffd5b92915050565b634e487b7160e01b5f52603260045260245ffdfea2646970667358221220df84aa16c6482812e622fd107868298608bc16580446688987cc0ee40142dcbc64736f6c634300081b0033",
					"opcodes": "PUSH1 0xE0 PUSH1 0x40 MSTORE CALLVALUE DUP1 ISZERO PUSH2 0xF JUMPI PUSH0 PUSH0 REVERT JUMPDEST POP PUSH1 0x40 MLOAD PUSH2 0x1AC5 CODESIZE SUB DUP1 PUSH2 0x1AC5 DUP4 CODECOPY DUP2 ADD PUSH1 0x40 DUP2 SWAP1 MSTORE PUSH2 0x2E SWAP2 PUSH2 0xEE JUMP JUMPDEST DUP4 PUSH1 0x1 PUSH1 0x1 PUSH1 0xA0 SHL SUB DUP2 AND PUSH2 0x5C JUMPI PUSH1 0x40 MLOAD PUSH4 0x1E4FBDF7 PUSH1 0xE0 SHL DUP2 MSTORE PUSH0 PUSH1 0x4 DUP3 ADD MSTORE PUSH1 0x24 ADD PUSH1 0x40 MLOAD DUP1 SWAP2 SUB SWAP1 REVERT JUMPDEST PUSH2 0x65 DUP2 PUSH2 0x84 JUMP JUMPDEST POP PUSH1 0x1 PUSH1 0x1 PUSH1 0xA0 SHL SUB SWAP3 DUP4 AND PUSH1 0x80 MSTORE SWAP1 DUP3 AND PUSH1 0xA0 MSTORE AND PUSH1 0xC0 MSTORE POP PUSH2 0x13F JUMP JUMPDEST PUSH0 DUP1 SLOAD PUSH1 0x1 PUSH1 0x1 PUSH1 0xA0 SHL SUB DUP4 DUP2 AND PUSH1 0x1 PUSH1 0x1 PUSH1 0xA0 SHL SUB NOT DUP4 AND DUP2 OR DUP5 SSTORE PUSH1 0x40 MLOAD SWAP2 SWAP1 SWAP3 AND SWAP3 DUP4 SWAP2 PUSH32 0x8BE0079C531659141344CD1FD0A4F28419497F9722A3DAAFE3B4186F6B6457E0 SWAP2 SWAP1 LOG3 POP POP JUMP JUMPDEST DUP1 MLOAD PUSH1 0x1 PUSH1 0x1 PUSH1 0xA0 SHL SUB DUP2 AND DUP2 EQ PUSH2 0xE9 JUMPI PUSH0 PUSH0 REVERT JUMPDEST SWAP2 SWAP1 POP JUMP JUMPDEST PUSH0 PUSH0 PUSH0 PUSH0 PUSH1 0x80 DUP6 DUP8 SUB SLT ISZERO PUSH2 0x101 JUMPI PUSH0 PUSH0 REVERT JUMPDEST PUSH2 0x10A DUP6 PUSH2 0xD3 JUMP JUMPDEST SWAP4 POP PUSH2 0x118 PUSH1 0x20 DUP7 ADD PUSH2 0xD3 JUMP JUMPDEST SWAP3 POP PUSH2 0x126 PUSH1 0x40 DUP7 ADD PUSH2 0xD3 JUMP JUMPDEST SWAP2 POP PUSH2 0x134 PUSH1 0x60 DUP7 ADD PUSH2 0xD3 JUMP JUMPDEST SWAP1 POP SWAP3 SWAP6 SWAP2 SWAP5 POP SWAP3 POP JUMP JUMPDEST PUSH1 0x80 MLOAD PUSH1 0xA0 MLOAD PUSH1 0xC0 MLOAD PUSH2 0x1883 PUSH2 0x242 PUSH0 CODECOPY PUSH0 DUP2 DUP2 PUSH2 0x1C0 ADD MSTORE DUP2 DUP2 PUSH2 0x3EB ADD MSTORE DUP2 DUP2 PUSH2 0x4DA ADD MSTORE DUP2 DUP2 PUSH2 0x61F ADD MSTORE DUP2 DUP2 PUSH2 0x735 ADD MSTORE DUP2 DUP2 PUSH2 0x9BB ADD MSTORE DUP2 DUP2 PUSH2 0xAB3 ADD MSTORE DUP2 DUP2 PUSH2 0xB3C ADD MSTORE DUP2 DUP2 PUSH2 0xC52 ADD MSTORE PUSH2 0xD3A ADD MSTORE PUSH0 DUP2 DUP2 PUSH2 0x124 ADD MSTORE DUP2 DUP2 PUSH2 0x596 ADD MSTORE DUP2 DUP2 PUSH2 0x5CB ADD MSTORE DUP2 DUP2 PUSH2 0x707 ADD MSTORE DUP2 DUP2 PUSH2 0xA7E ADD MSTORE DUP2 DUP2 PUSH2 0xAE8 ADD MSTORE DUP2 DUP2 PUSH2 0xC24 ADD MSTORE DUP2 DUP2 PUSH2 0xED8 ADD MSTORE DUP2 DUP2 PUSH2 0xF0D ADD MSTORE DUP2 DUP2 PUSH2 0x109F ADD MSTORE PUSH2 0x1266 ADD MSTORE PUSH0 DUP2 DUP2 PUSH2 0x30F ADD MSTORE DUP2 DUP2 PUSH2 0x414 ADD MSTORE DUP2 DUP2 PUSH2 0x5ED ADD MSTORE DUP2 DUP2 PUSH2 0x641 ADD MSTORE DUP2 DUP2 PUSH2 0x67D ADD MSTORE DUP2 DUP2 PUSH2 0x895 ADD MSTORE DUP2 DUP2 PUSH2 0x9E4 ADD MSTORE DUP2 DUP2 PUSH2 0xB0A ADD MSTORE DUP2 DUP2 PUSH2 0xB5E ADD MSTORE DUP2 DUP2 PUSH2 0xB9A ADD MSTORE DUP2 DUP2 PUSH2 0xDFB ADD MSTORE DUP2 DUP2 PUSH2 0xF2F ADD MSTORE PUSH2 0xF6B ADD MSTORE PUSH2 0x1883 PUSH0 RETURN INVALID PUSH1 0x80 PUSH1 0x40 MSTORE PUSH1 0x4 CALLDATASIZE LT PUSH2 0xE7 JUMPI PUSH0 CALLDATALOAD PUSH1 0xE0 SHR DUP1 PUSH4 0x75C67C66 GT PUSH2 0x87 JUMPI DUP1 PUSH4 0xACF69E27 GT PUSH2 0x57 JUMPI DUP1 PUSH4 0xACF69E27 EQ PUSH2 0x2AD JUMPI DUP1 PUSH4 0xB04CC8B1 EQ PUSH2 0x2CC JUMPI DUP1 PUSH4 0xF2FDE38B EQ PUSH2 0x2DF JUMPI DUP1 PUSH4 0xF887EA40 EQ PUSH2 0x2FE JUMPI PUSH0 PUSH0 REVERT JUMPDEST DUP1 PUSH4 0x75C67C66 EQ PUSH2 0x215 JUMPI DUP1 PUSH4 0x889D5A82 EQ PUSH2 0x253 JUMPI DUP1 PUSH4 0x8DA5CB5B EQ PUSH2 0x272 JUMPI DUP1 PUSH4 0x96D3B83D EQ PUSH2 0x28E JUMPI PUSH0 PUSH0 REVERT JUMPDEST DUP1 PUSH4 0x2F622E6B GT PUSH2 0xC2 JUMPI DUP1 PUSH4 0x2F622E6B EQ PUSH2 0x190 JUMPI DUP1 PUSH4 0x57970E93 EQ PUSH2 0x1AF JUMPI DUP1 PUSH4 0x6108D8EE EQ PUSH2 0x1E2 JUMPI DUP1 PUSH4 0x715018A6 EQ PUSH2 0x201 JUMPI PUSH0 PUSH0 REVERT JUMPDEST DUP1 PUSH4 0x1E33667 EQ PUSH2 0xF2 JUMPI DUP1 PUSH4 0xC5BF351 EQ PUSH2 0x113 JUMPI DUP1 PUSH4 0x2CB49F53 EQ PUSH2 0x163 JUMPI PUSH0 PUSH0 REVERT JUMPDEST CALLDATASIZE PUSH2 0xEE JUMPI STOP JUMPDEST PUSH0 PUSH0 REVERT JUMPDEST CALLVALUE DUP1 ISZERO PUSH2 0xFD JUMPI PUSH0 PUSH0 REVERT JUMPDEST POP PUSH2 0x111 PUSH2 0x10C CALLDATASIZE PUSH1 0x4 PUSH2 0x1605 JUMP JUMPDEST PUSH2 0x331 JUMP JUMPDEST STOP JUMPDEST CALLVALUE DUP1 ISZERO PUSH2 0x11E JUMPI PUSH0 PUSH0 REVERT JUMPDEST POP PUSH2 0x146 PUSH32 0x0 DUP2 JUMP JUMPDEST PUSH1 0x40 MLOAD PUSH1 0x1 PUSH1 0x1 PUSH1 0xA0 SHL SUB SWAP1 SWAP2 AND DUP2 MSTORE PUSH1 0x20 ADD JUMPDEST PUSH1 0x40 MLOAD DUP1 SWAP2 SUB SWAP1 RETURN JUMPDEST CALLVALUE DUP1 ISZERO PUSH2 0x16E JUMPI PUSH0 PUSH0 REVERT JUMPDEST POP PUSH2 0x182 PUSH2 0x17D CALLDATASIZE PUSH1 0x4 PUSH2 0x165F JUMP JUMPDEST PUSH2 0x352 JUMP JUMPDEST PUSH1 0x40 MLOAD SWAP1 DUP2 MSTORE PUSH1 0x20 ADD PUSH2 0x15A JUMP JUMPDEST CALLVALUE DUP1 ISZERO PUSH2 0x19B JUMPI PUSH0 PUSH0 REVERT JUMPDEST POP PUSH2 0x111 PUSH2 0x1AA CALLDATASIZE PUSH1 0x4 PUSH2 0x167A JUMP JUMPDEST PUSH2 0x7AA JUMP JUMPDEST CALLVALUE DUP1 ISZERO PUSH2 0x1BA JUMPI PUSH0 PUSH0 REVERT JUMPDEST POP PUSH2 0x146 PUSH32 0x0 DUP2 JUMP JUMPDEST CALLVALUE DUP1 ISZERO PUSH2 0x1ED JUMPI PUSH0 PUSH0 REVERT JUMPDEST POP PUSH2 0x182 PUSH2 0x1FC CALLDATASIZE PUSH1 0x4 PUSH2 0x165F JUMP JUMPDEST PUSH2 0x855 JUMP JUMPDEST CALLVALUE DUP1 ISZERO PUSH2 0x20C JUMPI PUSH0 PUSH0 REVERT JUMPDEST POP PUSH2 0x111 PUSH2 0x914 JUMP JUMPDEST CALLVALUE DUP1 ISZERO PUSH2 0x220 JUMPI PUSH0 PUSH0 REVERT JUMPDEST POP PUSH2 0x243 PUSH2 0x22F CALLDATASIZE PUSH1 0x4 PUSH2 0x169C JUMP JUMPDEST PUSH1 0x1 PUSH1 0x20 MSTORE PUSH0 SWAP1 DUP2 MSTORE PUSH1 0x40 SWAP1 KECCAK256 SLOAD PUSH1 0xFF AND DUP2 JUMP JUMPDEST PUSH1 0x40 MLOAD SWAP1 ISZERO ISZERO DUP2 MSTORE PUSH1 0x20 ADD PUSH2 0x15A JUMP JUMPDEST CALLVALUE DUP1 ISZERO PUSH2 0x25E JUMPI PUSH0 PUSH0 REVERT JUMPDEST POP PUSH2 0x182 PUSH2 0x26D CALLDATASIZE PUSH1 0x4 PUSH2 0x165F JUMP JUMPDEST PUSH2 0x927 JUMP JUMPDEST CALLVALUE DUP1 ISZERO PUSH2 0x27D JUMPI PUSH0 PUSH0 REVERT JUMPDEST POP PUSH0 SLOAD PUSH1 0x1 PUSH1 0x1 PUSH1 0xA0 SHL SUB AND PUSH2 0x146 JUMP JUMPDEST CALLVALUE DUP1 ISZERO PUSH2 0x299 JUMPI PUSH0 PUSH0 REVERT JUMPDEST POP PUSH2 0x111 PUSH2 0x2A8 CALLDATASIZE PUSH1 0x4 PUSH2 0x16B5 JUMP JUMPDEST PUSH2 0xCCA JUMP JUMPDEST CALLVALUE DUP1 ISZERO PUSH2 0x2B8 JUMPI PUSH0 PUSH0 REVERT JUMPDEST POP PUSH2 0x182 PUSH2 0x2C7 CALLDATASIZE PUSH1 0x4 PUSH2 0x165F JUMP JUMPDEST PUSH2 0xD31 JUMP JUMPDEST PUSH2 0x182 PUSH2 0x2DA CALLDATASIZE PUSH1 0x4 PUSH2 0x165F JUMP JUMPDEST PUSH2 0xD5E JUMP JUMPDEST CALLVALUE DUP1 ISZERO PUSH2 0x2EA JUMPI PUSH0 PUSH0 REVERT JUMPDEST POP PUSH2 0x111 PUSH2 0x2F9 CALLDATASIZE PUSH1 0x4 PUSH2 0x167A JUMP JUMPDEST PUSH2 0x1111 JUMP JUMPDEST CALLVALUE DUP1 ISZERO PUSH2 0x309 JUMPI PUSH0 PUSH0 REVERT JUMPDEST POP PUSH2 0x146 PUSH32 0x0 DUP2 JUMP JUMPDEST PUSH2 0x339 PUSH2 0x1167 JUMP JUMPDEST PUSH2 0x34D PUSH1 0x1 PUSH1 0x1 PUSH1 0xA0 SHL SUB DUP5 AND DUP4 DUP4 PUSH2 0x11AC JUMP JUMPDEST POP POP POP JUMP JUMPDEST PUSH8 0xFFFFFFFFFFFFFFFF DUP4 AND PUSH0 SWAP1 DUP2 MSTORE PUSH1 0x1 PUSH1 0x20 MSTORE PUSH1 0x40 DUP2 KECCAK256 SLOAD PUSH1 0xFF AND PUSH2 0x39C JUMPI PUSH1 0x40 MLOAD PUSH4 0xA503CDB PUSH1 0xE0 SHL DUP2 MSTORE PUSH8 0xFFFFFFFFFFFFFFFF DUP6 AND PUSH1 0x4 DUP3 ADD MSTORE PUSH1 0x24 ADD JUMPDEST PUSH1 0x40 MLOAD DUP1 SWAP2 SUB SWAP1 REVERT JUMPDEST PUSH1 0x1 PUSH1 0x1 PUSH1 0xA0 SHL SUB DUP4 AND PUSH2 0x3C3 JUMPI PUSH1 0x40 MLOAD PUSH4 0x1E4EC46B PUSH1 0xE0 SHL DUP2 MSTORE PUSH1 0x4 ADD PUSH1 0x40 MLOAD DUP1 SWAP2 SUB SWAP1 REVERT JUMPDEST DUP2 PUSH0 SUB PUSH2 0x3E3 JUMPI PUSH1 0x40 MLOAD PUSH4 0x162908E3 PUSH1 0xE1 SHL DUP2 MSTORE PUSH1 0x4 ADD PUSH1 0x40 MLOAD DUP1 SWAP2 SUB SWAP1 REVERT JUMPDEST PUSH0 PUSH2 0x40F DUP5 DUP5 PUSH32 0x0 PUSH2 0x11E1 JUMP JUMPDEST SWAP1 POP PUSH0 PUSH32 0x0 PUSH1 0x1 PUSH1 0x1 PUSH1 0xA0 SHL SUB AND PUSH4 0x20487DED DUP8 DUP5 PUSH1 0x40 MLOAD DUP4 PUSH4 0xFFFFFFFF AND PUSH1 0xE0 SHL DUP2 MSTORE PUSH1 0x4 ADD PUSH2 0x460 SWAP3 SWAP2 SWAP1 PUSH2 0x171C JUMP JUMPDEST PUSH1 0x20 PUSH1 0x40 MLOAD DUP1 DUP4 SUB DUP2 DUP7 GAS STATICCALL ISZERO DUP1 ISZERO PUSH2 0x47B JUMPI RETURNDATASIZE PUSH0 PUSH0 RETURNDATACOPY RETURNDATASIZE PUSH0 REVERT JUMPDEST POP POP POP POP PUSH1 0x40 MLOAD RETURNDATASIZE PUSH1 0x1F NOT PUSH1 0x1F DUP3 ADD AND DUP3 ADD DUP1 PUSH1 0x40 MSTORE POP DUP2 ADD SWAP1 PUSH2 0x49F SWAP2 SWAP1 PUSH2 0x17FD JUMP JUMPDEST PUSH1 0x40 MLOAD PUSH32 0x70A0823100000000000000000000000000000000000000000000000000000000 DUP2 MSTORE ADDRESS PUSH1 0x4 DUP3 ADD MSTORE SWAP1 SWAP2 POP PUSH0 SWAP1 PUSH1 0x1 PUSH1 0x1 PUSH1 0xA0 SHL SUB PUSH32 0x0 AND SWAP1 PUSH4 0x70A08231 SWAP1 PUSH1 0x24 ADD PUSH1 0x20 PUSH1 0x40 MLOAD DUP1 DUP4 SUB DUP2 DUP7 GAS STATICCALL ISZERO DUP1 ISZERO PUSH2 0x51F JUMPI RETURNDATASIZE PUSH0 PUSH0 RETURNDATACOPY RETURNDATASIZE PUSH0 REVERT JUMPDEST POP POP POP POP PUSH1 0x40 MLOAD RETURNDATASIZE PUSH1 0x1F NOT PUSH1 0x1F DUP3 ADD AND DUP3 ADD DUP1 PUSH1 0x40 MSTORE POP DUP2 ADD SWAP1 PUSH2 0x543 SWAP2 SWAP1 PUSH2 0x17FD JUMP JUMPDEST SWAP1 POP DUP2 DUP2 LT ISZERO PUSH2 0x589 JUMPI PUSH1 0x40 MLOAD PUSH32 0x363E016300000000000000000000000000000000000000000000000000000000 DUP2 MSTORE PUSH1 0x4 DUP2 ADD DUP3 SWAP1 MSTORE PUSH1 0x24 DUP2 ADD DUP4 SWAP1 MSTORE PUSH1 0x44 ADD PUSH2 0x393 JUMP JUMPDEST PUSH2 0x5BE PUSH1 0x1 PUSH1 0x1 PUSH1 0xA0 SHL SUB PUSH32 0x0 AND CALLER ADDRESS DUP9 PUSH2 0x1398 JUMP JUMPDEST PUSH2 0x612 PUSH1 0x1 PUSH1 0x1 PUSH1 0xA0 SHL SUB PUSH32 0x0 AND PUSH32 0x0 DUP8 PUSH2 0x13D4 JUMP JUMPDEST PUSH2 0x666 PUSH1 0x1 PUSH1 0x1 PUSH1 0xA0 SHL SUB PUSH32 0x0 AND PUSH32 0x0 DUP5 PUSH2 0x13D4 JUMP JUMPDEST PUSH1 0x40 MLOAD PUSH4 0x96F4E9F9 PUSH1 0xE0 SHL DUP2 MSTORE PUSH1 0x1 PUSH1 0x1 PUSH1 0xA0 SHL SUB PUSH32 0x0 AND SWAP1 PUSH4 0x96F4E9F9 SWAP1 PUSH2 0x6B4 SWAP1 DUP11 SWAP1 DUP8 SWAP1 PUSH1 0x4 ADD PUSH2 0x171C JUMP JUMPDEST PUSH1 0x20 PUSH1 0x40 MLOAD DUP1 DUP4 SUB DUP2 PUSH0 DUP8 GAS CALL ISZERO DUP1 ISZERO PUSH2 0x6D0 JUMPI RETURNDATASIZE PUSH0 PUSH0 RETURNDATACOPY RETURNDATASIZE PUSH0 REVERT JUMPDEST POP POP POP POP PUSH1 0x40 MLOAD RETURNDATASIZE PUSH1 0x1F NOT PUSH1 0x1F DUP3 ADD AND DUP3 ADD DUP1 PUSH1 0x40 MSTORE POP DUP2 ADD SWAP1 PUSH2 0x6F4 SWAP2 SWAP1 PUSH2 0x17FD JUMP JUMPDEST PUSH1 0x40 DUP1 MLOAD PUSH1 0x1 PUSH1 0x1 PUSH1 0xA0 SHL SUB DUP10 DUP2 AND DUP3 MSTORE PUSH32 0x0 DUP2 AND PUSH1 0x20 DUP4 ADD MSTORE DUP2 DUP4 ADD DUP10 SWAP1 MSTORE PUSH32 0x0 AND PUSH1 0x60 DUP3 ADD MSTORE PUSH1 0x80 DUP2 ADD DUP6 SWAP1 MSTORE SWAP1 MLOAD SWAP2 SWAP6 POP CALLER SWAP2 PUSH8 0xFFFFFFFFFFFFFFFF DUP11 AND SWAP2 DUP8 SWAP2 PUSH32 0xBA6886260B2F34F69769FF5FB57FB1A7CD762254A78D55E4FDB6683DDA91B35 SWAP2 DUP2 SWAP1 SUB PUSH1 0xA0 ADD SWAP1 LOG4 POP POP POP SWAP4 SWAP3 POP POP POP JUMP JUMPDEST PUSH2 0x7B2 PUSH2 0x1167 JUMP JUMPDEST PUSH0 DUP2 PUSH1 0x1 PUSH1 0x1 PUSH1 0xA0 SHL SUB AND SELFBALANCE PUSH1 0x40 MLOAD PUSH0 PUSH1 0x40 MLOAD DUP1 DUP4 SUB DUP2 DUP6 DUP8 GAS CALL SWAP3 POP POP POP RETURNDATASIZE DUP1 PUSH0 DUP2 EQ PUSH2 0x7FB JUMPI PUSH1 0x40 MLOAD SWAP2 POP PUSH1 0x1F NOT PUSH1 0x3F RETURNDATASIZE ADD AND DUP3 ADD PUSH1 0x40 MSTORE RETURNDATASIZE DUP3 MSTORE RETURNDATASIZE PUSH0 PUSH1 0x20 DUP5 ADD RETURNDATACOPY PUSH2 0x800 JUMP JUMPDEST PUSH1 0x60 SWAP2 POP JUMPDEST POP POP SWAP1 POP DUP1 PUSH2 0x851 JUMPI PUSH1 0x40 MLOAD PUSH3 0x461BCD PUSH1 0xE5 SHL DUP2 MSTORE PUSH1 0x20 PUSH1 0x4 DUP3 ADD MSTORE PUSH1 0x10 PUSH1 0x24 DUP3 ADD MSTORE PUSH32 0x5472616E73666572206661696C65642E00000000000000000000000000000000 PUSH1 0x44 DUP3 ADD MSTORE PUSH1 0x64 ADD PUSH2 0x393 JUMP JUMPDEST POP POP JUMP JUMPDEST PUSH0 PUSH0 PUSH2 0x862 DUP5 DUP5 PUSH0 PUSH2 0x11E1 JUMP JUMPDEST PUSH1 0x40 MLOAD PUSH32 0x20487DED00000000000000000000000000000000000000000000000000000000 DUP2 MSTORE SWAP1 SWAP2 POP PUSH1 0x1 PUSH1 0x1 PUSH1 0xA0 SHL SUB PUSH32 0x0 AND SWAP1 PUSH4 0x20487DED SWAP1 PUSH2 0x8CC SWAP1 DUP9 SWAP1 DUP6 SWAP1 PUSH1 0x4 ADD PUSH2 0x171C JUMP JUMPDEST PUSH1 0x20 PUSH1 0x40 MLOAD DUP1 DUP4 SUB DUP2 DUP7 GAS STATICCALL ISZERO DUP1 ISZERO PUSH2 0x8E7 JUMPI RETURNDATASIZE PUSH0 PUSH0 RETURNDATACOPY RETURNDATASIZE PUSH0 REVERT JUMPDEST POP POP POP POP PUSH1 0x40 MLOAD RETURNDATASIZE PUSH1 0x1F NOT PUSH1 0x1F DUP3 ADD AND DUP3 ADD DUP1 PUSH1 0x40 MSTORE POP DUP2 ADD SWAP1 PUSH2 0x90B SWAP2 SWAP1 PUSH2 0x17FD JUMP JUMPDEST SWAP6 SWAP5 POP POP POP POP POP JUMP JUMPDEST PUSH2 0x91C PUSH2 0x1167 JUMP JUMPDEST PUSH2 0x925 PUSH0 PUSH2 0x1426 JUMP JUMPDEST JUMP JUMPDEST PUSH8 0xFFFFFFFFFFFFFFFF DUP4 AND PUSH0 SWAP1 DUP2 MSTORE PUSH1 0x1 PUSH1 0x20 MSTORE PUSH1 0x40 DUP2 KECCAK256 SLOAD PUSH1 0xFF AND PUSH2 0x96C JUMPI PUSH1 0x40 MLOAD PUSH4 0xA503CDB PUSH1 0xE0 SHL DUP2 MSTORE PUSH8 0xFFFFFFFFFFFFFFFF DUP6 AND PUSH1 0x4 DUP3 ADD MSTORE PUSH1 0x24 ADD PUSH2 0x393 JUMP JUMPDEST PUSH1 0x1 PUSH1 0x1 PUSH1 0xA0 SHL SUB DUP4 AND PUSH2 0x993 JUMPI PUSH1 0x40 MLOAD PUSH4 0x1E4EC46B PUSH1 0xE0 SHL DUP2 MSTORE PUSH1 0x4 ADD PUSH1 0x40 MLOAD DUP1 SWAP2 SUB SWAP1 REVERT JUMPDEST DUP2 PUSH0 SUB PUSH2 0x9B3 JUMPI PUSH1 0x40 MLOAD PUSH4 0x162908E3 PUSH1 0xE1 SHL DUP2 MSTORE PUSH1 0x4 ADD PUSH1 0x40 MLOAD DUP1 SWAP2 SUB SWAP1 REVERT JUMPDEST PUSH0 PUSH2 0x9DF DUP5 DUP5 PUSH32 0x0 PUSH2 0x11E1 JUMP JUMPDEST SWAP1 POP PUSH0 PUSH32 0x0 PUSH1 0x1 PUSH1 0x1 PUSH1 0xA0 SHL SUB AND PUSH4 0x20487DED DUP8 DUP5 PUSH1 0x40 MLOAD DUP4 PUSH4 0xFFFFFFFF AND PUSH1 0xE0 SHL DUP2 MSTORE PUSH1 0x4 ADD PUSH2 0xA30 SWAP3 SWAP2 SWAP1 PUSH2 0x171C JUMP JUMPDEST PUSH1 0x20 PUSH1 0x40 MLOAD DUP1 DUP4 SUB DUP2 DUP7 GAS STATICCALL ISZERO DUP1 ISZERO PUSH2 0xA4B JUMPI RETURNDATASIZE PUSH0 PUSH0 RETURNDATACOPY RETURNDATASIZE PUSH0 REVERT JUMPDEST POP POP POP POP PUSH1 0x40 MLOAD RETURNDATASIZE PUSH1 0x1F NOT PUSH1 0x1F DUP3 ADD AND DUP3 ADD DUP1 PUSH1 0x40 MSTORE POP DUP2 ADD SWAP1 PUSH2 0xA6F SWAP2 SWAP1 PUSH2 0x17FD JUMP JUMPDEST SWAP1 POP PUSH2 0xAA6 PUSH1 0x1 PUSH1 0x1 PUSH1 0xA0 SHL SUB PUSH32 0x0 AND CALLER ADDRESS DUP8 PUSH2 0x1398 JUMP JUMPDEST PUSH2 0xADB PUSH1 0x1 PUSH1 0x1 PUSH1 0xA0 SHL SUB PUSH32 0x0 AND CALLER ADDRESS DUP5 PUSH2 0x1398 JUMP JUMPDEST PUSH2 0xB2F PUSH1 0x1 PUSH1 0x1 PUSH1 0xA0 SHL SUB PUSH32 0x0 AND PUSH32 0x0 DUP7 PUSH2 0x13D4 JUMP JUMPDEST PUSH2 0xB83 PUSH1 0x1 PUSH1 0x1 PUSH1 0xA0 SHL SUB PUSH32 0x0 AND PUSH32 0x0 DUP4 PUSH2 0x13D4 JUMP JUMPDEST PUSH1 0x40 MLOAD PUSH4 0x96F4E9F9 PUSH1 0xE0 SHL DUP2 MSTORE PUSH1 0x1 PUSH1 0x1 PUSH1 0xA0 SHL SUB PUSH32 0x0 AND SWAP1 PUSH4 0x96F4E9F9 SWAP1 PUSH2 0xBD1 SWAP1 DUP10 SWAP1 DUP7 SWAP1 PUSH1 0x4 ADD PUSH2 0x171C JUMP JUMPDEST PUSH1 0x20 PUSH1 0x40 MLOAD DUP1 DUP4 SUB DUP2 PUSH0 DUP8 GAS CALL ISZERO DUP1 ISZERO PUSH2 0xBED JUMPI RETURNDATASIZE PUSH0 PUSH0 RETURNDATACOPY RETURNDATASIZE PUSH0 REVERT JUMPDEST POP POP POP POP PUSH1 0x40 MLOAD RETURNDATASIZE PUSH1 0x1F NOT PUSH1 0x1F DUP3 ADD AND DUP3 ADD DUP1 PUSH1 0x40 MSTORE POP DUP2 ADD SWAP1 PUSH2 0xC11 SWAP2 SWAP1 PUSH2 0x17FD JUMP JUMPDEST PUSH1 0x40 DUP1 MLOAD PUSH1 0x1 PUSH1 0x1 PUSH1 0xA0 SHL SUB DUP9 DUP2 AND DUP3 MSTORE PUSH32 0x0 DUP2 AND PUSH1 0x20 DUP4 ADD MSTORE SWAP2 DUP2 ADD DUP8 SWAP1 MSTORE PUSH32 0x0 SWAP1 SWAP2 AND PUSH1 0x60 DUP3 ADD MSTORE PUSH1 0x80 DUP2 ADD DUP4 SWAP1 MSTORE SWAP1 SWAP4 POP CALLER SWAP1 PUSH8 0xFFFFFFFFFFFFFFFF DUP9 AND SWAP1 DUP6 SWAP1 PUSH32 0xBA6886260B2F34F69769FF5FB57FB1A7CD762254A78D55E4FDB6683DDA91B35 SWAP1 PUSH1 0xA0 ADD JUMPDEST PUSH1 0x40 MLOAD DUP1 SWAP2 SUB SWAP1 LOG4 POP POP SWAP4 SWAP3 POP POP POP JUMP JUMPDEST PUSH2 0xCD2 PUSH2 0x1167 JUMP JUMPDEST PUSH8 0xFFFFFFFFFFFFFFFF DUP3 AND PUSH0 DUP2 DUP2 MSTORE PUSH1 0x1 PUSH1 0x20 SWAP1 DUP2 MSTORE PUSH1 0x40 SWAP2 DUP3 SWAP1 KECCAK256 DUP1 SLOAD PUSH1 0xFF NOT AND DUP6 ISZERO ISZERO SWAP1 DUP2 OR SWAP1 SWAP2 SSTORE SWAP2 MLOAD SWAP2 DUP3 MSTORE PUSH32 0x9E831877A5C5B0C6BF39118C59F437DE0882033FF7D60A84DBC1F453584A0D11 SWAP2 ADD PUSH1 0x40 MLOAD DUP1 SWAP2 SUB SWAP1 LOG2 POP POP JUMP JUMPDEST PUSH0 PUSH0 PUSH2 0x862 DUP5 DUP5 PUSH32 0x0 PUSH2 0x11E1 JUMP JUMPDEST PUSH8 0xFFFFFFFFFFFFFFFF DUP4 AND PUSH0 SWAP1 DUP2 MSTORE PUSH1 0x1 PUSH1 0x20 MSTORE PUSH1 0x40 DUP2 KECCAK256 SLOAD PUSH1 0xFF AND PUSH2 0xDA3 JUMPI PUSH1 0x40 MLOAD PUSH4 0xA503CDB PUSH1 0xE0 SHL DUP2 MSTORE PUSH8 0xFFFFFFFFFFFFFFFF DUP6 AND PUSH1 0x4 DUP3 ADD MSTORE PUSH1 0x24 ADD PUSH2 0x393 JUMP JUMPDEST PUSH1 0x1 PUSH1 0x1 PUSH1 0xA0 SHL SUB DUP4 AND PUSH2 0xDCA JUMPI PUSH1 0x40 MLOAD PUSH4 0x1E4EC46B PUSH1 0xE0 SHL DUP2 MSTORE PUSH1 0x4 ADD PUSH1 0x40 MLOAD DUP1 SWAP2 SUB SWAP1 REVERT JUMPDEST DUP2 PUSH0 SUB PUSH2 0xDEA JUMPI PUSH1 0x40 MLOAD PUSH4 0x162908E3 PUSH1 0xE1 SHL DUP2 MSTORE PUSH1 0x4 ADD PUSH1 0x40 MLOAD DUP1 SWAP2 SUB SWAP1 REVERT JUMPDEST PUSH0 PUSH2 0xDF6 DUP5 DUP5 PUSH0 PUSH2 0x11E1 JUMP JUMPDEST SWAP1 POP PUSH0 PUSH32 0x0 PUSH1 0x1 PUSH1 0x1 PUSH1 0xA0 SHL SUB AND PUSH4 0x20487DED DUP8 DUP5 PUSH1 0x40 MLOAD DUP4 PUSH4 0xFFFFFFFF AND PUSH1 0xE0 SHL DUP2 MSTORE PUSH1 0x4 ADD PUSH2 0xE47 SWAP3 SWAP2 SWAP1 PUSH2 0x171C JUMP JUMPDEST PUSH1 0x20 PUSH1 0x40 MLOAD DUP1 DUP4 SUB DUP2 DUP7 GAS STATICCALL ISZERO DUP1 ISZERO PUSH2 0xE62 JUMPI RETURNDATASIZE PUSH0 PUSH0 RETURNDATACOPY RETURNDATASIZE PUSH0 REVERT JUMPDEST POP POP POP POP PUSH1 0x40 MLOAD RETURNDATASIZE PUSH1 0x1F NOT PUSH1 0x1F DUP3 ADD AND DUP3 ADD DUP1 PUSH1 0x40 MSTORE POP DUP2 ADD SWAP1 PUSH2 0xE86 SWAP2 SWAP1 PUSH2 0x17FD JUMP JUMPDEST SWAP1 POP DUP1 CALLVALUE LT ISZERO PUSH2 0xECB JUMPI PUSH1 0x40 MLOAD PUSH32 0x93FCC51000000000000000000000000000000000000000000000000000000000 DUP2 MSTORE CALLVALUE PUSH1 0x4 DUP3 ADD MSTORE PUSH1 0x24 DUP2 ADD DUP3 SWAP1 MSTORE PUSH1 0x44 ADD PUSH2 0x393 JUMP JUMPDEST PUSH2 0xF00 PUSH1 0x1 PUSH1 0x1 PUSH1 0xA0 SHL SUB PUSH32 0x0 AND CALLER ADDRESS DUP8 PUSH2 0x1398 JUMP JUMPDEST PUSH2 0xF54 PUSH1 0x1 PUSH1 0x1 PUSH1 0xA0 SHL SUB PUSH32 0x0 AND PUSH32 0x0 DUP7 PUSH2 0x13D4 JUMP JUMPDEST PUSH1 0x40 MLOAD PUSH4 0x96F4E9F9 PUSH1 0xE0 SHL DUP2 MSTORE PUSH1 0x1 PUSH1 0x1 PUSH1 0xA0 SHL SUB PUSH32 0x0 AND SWAP1 PUSH4 0x96F4E9F9 SWAP1 DUP4 SWAP1 PUSH2 0xFA4 SWAP1 DUP11 SWAP1 DUP8 SWAP1 PUSH1 0x4 ADD PUSH2 0x171C JUMP JUMPDEST PUSH1 0x20 PUSH1 0x40 MLOAD DUP1 DUP4 SUB DUP2 DUP6 DUP9 GAS CALL ISZERO DUP1 ISZERO PUSH2 0xFC0 JUMPI RETURNDATASIZE PUSH0 PUSH0 RETURNDATACOPY RETURNDATASIZE PUSH0 REVERT JUMPDEST POP POP POP POP POP PUSH1 0x40 MLOAD RETURNDATASIZE PUSH1 0x1F NOT PUSH1 0x1F DUP3 ADD AND DUP3 ADD DUP1 PUSH1 0x40 MSTORE POP DUP2 ADD SWAP1 PUSH2 0xFE5 SWAP2 SWAP1 PUSH2 0x17FD JUMP JUMPDEST SWAP3 POP DUP1 CALLVALUE GT ISZERO PUSH2 0x108C JUMPI PUSH0 CALLER PUSH2 0xFFB DUP4 CALLVALUE PUSH2 0x1814 JUMP JUMPDEST PUSH1 0x40 MLOAD PUSH0 DUP2 DUP2 DUP2 DUP6 DUP8 GAS CALL SWAP3 POP POP POP RETURNDATASIZE DUP1 PUSH0 DUP2 EQ PUSH2 0x1034 JUMPI PUSH1 0x40 MLOAD SWAP2 POP PUSH1 0x1F NOT PUSH1 0x3F RETURNDATASIZE ADD AND DUP3 ADD PUSH1 0x40 MSTORE RETURNDATASIZE DUP3 MSTORE RETURNDATASIZE PUSH0 PUSH1 0x20 DUP5 ADD RETURNDATACOPY PUSH2 0x1039 JUMP JUMPDEST PUSH1 0x60 SWAP2 POP JUMPDEST POP POP SWAP1 POP DUP1 PUSH2 0x108A JUMPI PUSH1 0x40 MLOAD PUSH3 0x461BCD PUSH1 0xE5 SHL DUP2 MSTORE PUSH1 0x20 PUSH1 0x4 DUP3 ADD MSTORE PUSH1 0x10 PUSH1 0x24 DUP3 ADD MSTORE PUSH32 0x5472616E73666572206661696C65642E00000000000000000000000000000000 PUSH1 0x44 DUP3 ADD MSTORE PUSH1 0x64 ADD PUSH2 0x393 JUMP JUMPDEST POP JUMPDEST PUSH1 0x40 DUP1 MLOAD PUSH1 0x1 PUSH1 0x1 PUSH1 0xA0 SHL SUB DUP8 DUP2 AND DUP3 MSTORE PUSH32 0x0 AND PUSH1 0x20 DUP3 ADD MSTORE SWAP1 DUP2 ADD DUP6 SWAP1 MSTORE PUSH0 PUSH1 0x60 DUP3 ADD MSTORE PUSH1 0x80 DUP2 ADD DUP3 SWAP1 MSTORE CALLER SWAP1 PUSH8 0xFFFFFFFFFFFFFFFF DUP9 AND SWAP1 DUP6 SWAP1 PUSH32 0xBA6886260B2F34F69769FF5FB57FB1A7CD762254A78D55E4FDB6683DDA91B35 SWAP1 PUSH1 0xA0 ADD PUSH2 0xCB9 JUMP JUMPDEST PUSH2 0x1119 PUSH2 0x1167 JUMP JUMPDEST PUSH1 0x1 PUSH1 0x1 PUSH1 0xA0 SHL SUB DUP2 AND PUSH2 0x115B JUMPI PUSH1 0x40 MLOAD PUSH32 0x1E4FBDF700000000000000000000000000000000000000000000000000000000 DUP2 MSTORE PUSH0 PUSH1 0x4 DUP3 ADD MSTORE PUSH1 0x24 ADD PUSH2 0x393 JUMP JUMPDEST PUSH2 0x1164 DUP2 PUSH2 0x1426 JUMP JUMPDEST POP JUMP JUMPDEST PUSH0 SLOAD PUSH1 0x1 PUSH1 0x1 PUSH1 0xA0 SHL SUB AND CALLER EQ PUSH2 0x925 JUMPI PUSH1 0x40 MLOAD PUSH32 0x118CDAA700000000000000000000000000000000000000000000000000000000 DUP2 MSTORE CALLER PUSH1 0x4 DUP3 ADD MSTORE PUSH1 0x24 ADD PUSH2 0x393 JUMP JUMPDEST PUSH2 0x11B9 DUP4 DUP4 DUP4 PUSH1 0x1 PUSH2 0x148D JUMP JUMPDEST PUSH2 0x34D JUMPI PUSH1 0x40 MLOAD PUSH4 0x5274AFE7 PUSH1 0xE0 SHL DUP2 MSTORE PUSH1 0x1 PUSH1 0x1 PUSH1 0xA0 SHL SUB DUP5 AND PUSH1 0x4 DUP3 ADD MSTORE PUSH1 0x24 ADD PUSH2 0x393 JUMP JUMPDEST PUSH2 0x121B PUSH1 0x40 MLOAD DUP1 PUSH1 0xA0 ADD PUSH1 0x40 MSTORE DUP1 PUSH1 0x60 DUP2 MSTORE PUSH1 0x20 ADD PUSH1 0x60 DUP2 MSTORE PUSH1 0x20 ADD PUSH1 0x60 DUP2 MSTORE PUSH1 0x20 ADD PUSH0 PUSH1 0x1 PUSH1 0x1 PUSH1 0xA0 SHL SUB AND DUP2 MSTORE PUSH1 0x20 ADD PUSH1 0x60 DUP2 MSTORE POP SWAP1 JUMP JUMPDEST PUSH1 0x40 DUP1 MLOAD PUSH1 0x1 DUP1 DUP3 MSTORE DUP2 DUP4 ADD SWAP1 SWAP3 MSTORE PUSH0 SWAP2 DUP2 PUSH1 0x20 ADD JUMPDEST PUSH1 0x40 DUP1 MLOAD DUP1 DUP3 ADD SWAP1 SWAP2 MSTORE PUSH0 DUP1 DUP3 MSTORE PUSH1 0x20 DUP3 ADD MSTORE DUP2 MSTORE PUSH1 0x20 ADD SWAP1 PUSH1 0x1 SWAP1 SUB SWAP1 DUP2 PUSH2 0x1231 JUMPI SWAP1 POP POP SWAP1 POP PUSH1 0x40 MLOAD DUP1 PUSH1 0x40 ADD PUSH1 0x40 MSTORE DUP1 PUSH32 0x0 PUSH1 0x1 PUSH1 0x1 PUSH1 0xA0 SHL SUB AND DUP2 MSTORE PUSH1 0x20 ADD DUP6 DUP2 MSTORE POP DUP2 PUSH0 DUP2 MLOAD DUP2 LT PUSH2 0x12A9 JUMPI PUSH2 0x12A9 PUSH2 0x1839 JUMP JUMPDEST PUSH1 0x20 SWAP1 DUP2 MUL SWAP2 SWAP1 SWAP2 ADD ADD MSTORE PUSH1 0x40 DUP1 MLOAD PUSH1 0xA0 DUP2 ADD SWAP1 SWAP2 MSTORE PUSH1 0x1 PUSH1 0x1 PUSH1 0xA0 SHL SUB DUP7 AND PUSH1 0xC0 DUP3 ADD MSTORE DUP1 PUSH1 0xE0 DUP2 ADD PUSH1 0x40 MLOAD PUSH1 0x20 DUP2 DUP4 SUB SUB DUP2 MSTORE SWAP1 PUSH1 0x40 MSTORE DUP2 MSTORE PUSH1 0x20 ADD PUSH1 0x40 MLOAD DUP1 PUSH1 0x20 ADD PUSH1 0x40 MSTORE DUP1 PUSH0 DUP2 MSTORE POP DUP2 MSTORE PUSH1 0x20 ADD DUP3 DUP2 MSTORE PUSH1 0x20 ADD DUP5 PUSH1 0x1 PUSH1 0x1 PUSH1 0xA0 SHL SUB AND DUP2 MSTORE PUSH1 0x20 ADD PUSH2 0x138D PUSH1 0x40 MLOAD DUP1 PUSH1 0x20 ADD PUSH1 0x40 MSTORE DUP1 PUSH0 DUP2 MSTORE POP PUSH1 0x40 DUP1 MLOAD SWAP2 MLOAD PUSH1 0x24 DUP1 DUP5 ADD SWAP2 SWAP1 SWAP2 MSTORE DUP2 MLOAD DUP1 DUP5 SUB SWAP1 SWAP2 ADD DUP2 MSTORE PUSH1 0x44 SWAP1 SWAP3 ADD SWAP1 MSTORE PUSH1 0x20 DUP2 ADD DUP1 MLOAD PUSH28 0xFFFFFFFFFFFFFFFFFFFFFFFFFFFFFFFFFFFFFFFFFFFFFFFFFFFFFFFF AND PUSH32 0x97A657C900000000000000000000000000000000000000000000000000000000 OR SWAP1 MSTORE SWAP1 JUMP JUMPDEST SWAP1 MSTORE SWAP6 SWAP5 POP POP POP POP POP JUMP JUMPDEST PUSH2 0x13A6 DUP5 DUP5 DUP5 DUP5 PUSH1 0x1 PUSH2 0x1508 JUMP JUMPDEST PUSH2 0x13CE JUMPI PUSH1 0x40 MLOAD PUSH4 0x5274AFE7 PUSH1 0xE0 SHL DUP2 MSTORE PUSH1 0x1 PUSH1 0x1 PUSH1 0xA0 SHL SUB DUP6 AND PUSH1 0x4 DUP3 ADD MSTORE PUSH1 0x24 ADD PUSH2 0x393 JUMP JUMPDEST POP POP POP POP JUMP JUMPDEST PUSH2 0x13E0 DUP4 DUP4 DUP4 PUSH0 PUSH2 0x158E JUMP JUMPDEST PUSH2 0x34D JUMPI PUSH2 0x13F1 DUP4 DUP4 PUSH0 PUSH1 0x1 PUSH2 0x158E JUMP JUMPDEST PUSH2 0x1419 JUMPI PUSH1 0x40 MLOAD PUSH4 0x5274AFE7 PUSH1 0xE0 SHL DUP2 MSTORE PUSH1 0x1 PUSH1 0x1 PUSH1 0xA0 SHL SUB DUP5 AND PUSH1 0x4 DUP3 ADD MSTORE PUSH1 0x24 ADD PUSH2 0x393 JUMP JUMPDEST PUSH2 0x11B9 DUP4 DUP4 DUP4 PUSH1 0x1 PUSH2 0x158E JUMP JUMPDEST PUSH0 DUP1 SLOAD PUSH1 0x1 PUSH1 0x1 PUSH1 0xA0 SHL SUB DUP4 DUP2 AND PUSH32 0xFFFFFFFFFFFFFFFFFFFFFFFF0000000000000000000000000000000000000000 DUP4 AND DUP2 OR DUP5 SSTORE PUSH1 0x40 MLOAD SWAP2 SWAP1 SWAP3 AND SWAP3 DUP4 SWAP2 PUSH32 0x8BE0079C531659141344CD1FD0A4F28419497F9722A3DAAFE3B4186F6B6457E0 SWAP2 SWAP1 LOG3 POP POP JUMP JUMPDEST PUSH1 0x40 MLOAD PUSH32 0xA9059CBB00000000000000000000000000000000000000000000000000000000 PUSH0 DUP2 DUP2 MSTORE PUSH1 0x1 PUSH1 0x1 PUSH1 0xA0 SHL SUB DUP7 AND PUSH1 0x4 MSTORE PUSH1 0x24 DUP6 SWAP1 MSTORE SWAP2 PUSH1 0x20 DUP4 PUSH1 0x44 DUP2 DUP1 DUP12 GAS CALL SWAP3 POP PUSH1 0x1 PUSH0 MLOAD EQ DUP4 AND PUSH2 0x14FC JUMPI DUP4 DUP4 ISZERO AND ISZERO PUSH2 0x14F0 JUMPI RETURNDATASIZE PUSH0 DUP3 RETURNDATACOPY RETURNDATASIZE DUP2 REVERT JUMPDEST PUSH0 DUP8 EXTCODESIZE GT RETURNDATASIZE ISZERO AND DUP4 AND SWAP3 POP JUMPDEST PUSH1 0x40 MSTORE POP SWAP5 SWAP4 POP POP POP POP JUMP JUMPDEST PUSH1 0x40 MLOAD PUSH32 0x23B872DD00000000000000000000000000000000000000000000000000000000 PUSH0 DUP2 DUP2 MSTORE PUSH1 0x1 PUSH1 0x1 PUSH1 0xA0 SHL SUB DUP8 DUP2 AND PUSH1 0x4 MSTORE DUP7 AND PUSH1 0x24 MSTORE PUSH1 0x44 DUP6 SWAP1 MSTORE SWAP2 PUSH1 0x20 DUP4 PUSH1 0x64 DUP2 DUP1 DUP13 GAS CALL SWAP3 POP PUSH1 0x1 PUSH0 MLOAD EQ DUP4 AND PUSH2 0x157D JUMPI DUP4 DUP4 ISZERO AND ISZERO PUSH2 0x1571 JUMPI RETURNDATASIZE PUSH0 DUP3 RETURNDATACOPY RETURNDATASIZE DUP2 REVERT JUMPDEST PUSH0 DUP9 EXTCODESIZE GT RETURNDATASIZE ISZERO AND DUP4 AND SWAP3 POP JUMPDEST PUSH1 0x40 MSTORE POP PUSH0 PUSH1 0x60 MSTORE SWAP6 SWAP5 POP POP POP POP POP JUMP JUMPDEST PUSH1 0x40 MLOAD PUSH32 0x95EA7B300000000000000000000000000000000000000000000000000000000 PUSH0 DUP2 DUP2 MSTORE PUSH1 0x1 PUSH1 0x1 PUSH1 0xA0 SHL SUB DUP7 AND PUSH1 0x4 MSTORE PUSH1 0x24 DUP6 SWAP1 MSTORE SWAP2 PUSH1 0x20 DUP4 PUSH1 0x44 DUP2 DUP1 DUP12 GAS CALL SWAP3 POP PUSH1 0x1 PUSH0 MLOAD EQ DUP4 AND PUSH2 0x14FC JUMPI DUP4 DUP4 ISZERO AND ISZERO PUSH2 0x14F0 JUMPI RETURNDATASIZE PUSH0 DUP3 RETURNDATACOPY RETURNDATASIZE DUP2 REVERT JUMPDEST PUSH1 0x1 PUSH1 0x1 PUSH1 0xA0 SHL SUB DUP2 AND DUP2 EQ PUSH2 0x1164 JUMPI PUSH0 PUSH0 REVERT JUMPDEST PUSH0 PUSH0 PUSH0 PUSH1 0x60 DUP5 DUP7 SUB SLT ISZERO PUSH2 0x1617 JUMPI PUSH0 PUSH0 REVERT JUMPDEST DUP4 CALLDATALOAD PUSH2 0x1622 DUP2 PUSH2 0x15F1 JUMP JUMPDEST SWAP3 POP PUSH1 0x20 DUP5 ADD CALLDATALOAD PUSH2 0x1632 DUP2 PUSH2 0x15F1 JUMP JUMPDEST SWAP3 SWAP6 SWAP3 SWAP5 POP POP POP PUSH1 0x40 SWAP2 SWAP1 SWAP2 ADD CALLDATALOAD SWAP1 JUMP JUMPDEST DUP1 CALLDATALOAD PUSH8 0xFFFFFFFFFFFFFFFF DUP2 AND DUP2 EQ PUSH2 0x165A JUMPI PUSH0 PUSH0 REVERT JUMPDEST SWAP2 SWAP1 POP JUMP JUMPDEST PUSH0 PUSH0 PUSH0 PUSH1 0x60 DUP5 DUP7 SUB SLT ISZERO PUSH2 0x1671 JUMPI PUSH0 PUSH0 REVERT JUMPDEST PUSH2 0x1622 DUP5 PUSH2 0x1643 JUMP JUMPDEST PUSH0 PUSH1 0x20 DUP3 DUP5 SUB SLT ISZERO PUSH2 0x168A JUMPI PUSH0 PUSH0 REVERT JUMPDEST DUP2 CALLDATALOAD PUSH2 0x1695 DUP2 PUSH2 0x15F1 JUMP JUMPDEST SWAP4 SWAP3 POP POP POP JUMP JUMPDEST PUSH0 PUSH1 0x20 DUP3 DUP5 SUB SLT ISZERO PUSH2 0x16AC JUMPI PUSH0 PUSH0 REVERT JUMPDEST PUSH2 0x1695 DUP3 PUSH2 0x1643 JUMP JUMPDEST PUSH0 PUSH0 PUSH1 0x40 DUP4 DUP6 SUB SLT ISZERO PUSH2 0x16C6 JUMPI PUSH0 PUSH0 REVERT JUMPDEST PUSH2 0x16CF DUP4 PUSH2 0x1643 JUMP JUMPDEST SWAP2 POP PUSH1 0x20 DUP4 ADD CALLDATALOAD DUP1 ISZERO ISZERO DUP2 EQ PUSH2 0x16E3 JUMPI PUSH0 PUSH0 REVERT JUMPDEST DUP1 SWAP2 POP POP SWAP3 POP SWAP3 SWAP1 POP JUMP JUMPDEST PUSH0 DUP2 MLOAD DUP1 DUP5 MSTORE DUP1 PUSH1 0x20 DUP5 ADD PUSH1 0x20 DUP7 ADD MCOPY PUSH0 PUSH1 0x20 DUP3 DUP7 ADD ADD MSTORE PUSH1 0x20 PUSH1 0x1F NOT PUSH1 0x1F DUP4 ADD AND DUP6 ADD ADD SWAP2 POP POP SWAP3 SWAP2 POP POP JUMP JUMPDEST PUSH8 0xFFFFFFFFFFFFFFFF DUP4 AND DUP2 MSTORE PUSH1 0x40 PUSH1 0x20 DUP3 ADD MSTORE PUSH0 DUP3 MLOAD PUSH1 0xA0 PUSH1 0x40 DUP5 ADD MSTORE PUSH2 0x1747 PUSH1 0xE0 DUP5 ADD DUP3 PUSH2 0x16EE JUMP JUMPDEST SWAP1 POP PUSH1 0x20 DUP5 ADD MLOAD PUSH1 0x3F NOT DUP5 DUP4 SUB ADD PUSH1 0x60 DUP6 ADD MSTORE PUSH2 0x1764 DUP3 DUP3 PUSH2 0x16EE JUMP JUMPDEST PUSH1 0x40 DUP7 ADD MLOAD DUP6 DUP3 SUB PUSH1 0x3F NOT ADD PUSH1 0x80 DUP8 ADD MSTORE DUP1 MLOAD DUP1 DUP4 MSTORE PUSH1 0x20 SWAP2 DUP3 ADD SWAP5 POP PUSH0 SWAP4 POP SWAP2 ADD SWAP1 JUMPDEST DUP1 DUP4 LT ISZERO PUSH2 0x17C1 JUMPI DUP4 MLOAD PUSH1 0x1 PUSH1 0x1 PUSH1 0xA0 SHL SUB DUP2 MLOAD AND DUP4 MSTORE PUSH1 0x20 DUP2 ADD MLOAD PUSH1 0x20 DUP5 ADD MSTORE POP PUSH1 0x40 DUP3 ADD SWAP2 POP PUSH1 0x20 DUP5 ADD SWAP4 POP PUSH1 0x1 DUP4 ADD SWAP3 POP PUSH2 0x1788 JUMP JUMPDEST POP PUSH1 0x60 DUP7 ADD MLOAD PUSH1 0x1 PUSH1 0x1 PUSH1 0xA0 SHL SUB AND PUSH1 0xA0 DUP7 ADD MSTORE PUSH1 0x80 DUP7 ADD MLOAD DUP6 DUP3 SUB PUSH1 0x3F NOT ADD PUSH1 0xC0 DUP8 ADD MSTORE SWAP3 POP PUSH2 0x17F2 DUP2 DUP5 PUSH2 0x16EE JUMP JUMPDEST SWAP8 SWAP7 POP POP POP POP POP POP POP JUMP JUMPDEST PUSH0 PUSH1 0x20 DUP3 DUP5 SUB SLT ISZERO PUSH2 0x180D JUMPI PUSH0 PUSH0 REVERT JUMPDEST POP MLOAD SWAP2 SWAP1 POP JUMP JUMPDEST DUP2 DUP2 SUB DUP2 DUP2 GT ISZERO PUSH2 0x1833 JUMPI PUSH4 0x4E487B71 PUSH1 0xE0 SHL PUSH0 MSTORE PUSH1 0x11 PUSH1 0x4 MSTORE PUSH1 0x24 PUSH0 REVERT JUMPDEST SWAP3 SWAP2 POP POP JUMP JUMPDEST PUSH4 0x4E487B71 PUSH1 0xE0 SHL PUSH0 MSTORE PUSH1 0x32 PUSH1 0x4 MSTORE PUSH1 0x24 PUSH0 REVERT INVALID LOG2 PUSH5 0x6970667358 0x22 SLT KECCAK256 0xDF DUP5 0xAA AND 0xC6 BASEFEE 0x28 SLT 0xE6 0x22 REVERT LT PUSH25 0x68298608BC16580446688987CC0EE40142DCBC64736F6C6343 STOP ADDMOD SHL STOP CALLER "
				},
				"gasEstimates": {
					"creation": {
						"codeDepositCost": "1255000",
						"executionCost": "infinite",
						"totalCost": "infinite"
					},
					"external": {
						"allowlistDestinationChain(uint64,bool)": "28357",
						"allowlistedDestinationChains(uint64)": "2539",
						"getFeePayLINK(uint64,address,uint256)": "infinite",
						"getFeePayNative(uint64,address,uint256)": "infinite",
						"linkToken()": "infinite",
						"owner()": "2385",
						"renounceOwnership()": "infinite",
						"router()": "infinite",
						"rwaToken()": "infinite",
						"sendTokenPayLINK(uint64,address,uint256)": "infinite",
						"sendTokenPayNative(uint64,address,uint256)": "infinite",
						"sendTokenSponsored(uint64,address,uint256)": "infinite",
						"transferOwnership(address)": "infinite",
						"withdrawNative(address)": "infinite",
						"withdrawToken(address,address,uint256)": "infinite"
					},
					"internal": {
						"_buildMessage(address,uint256,address)": "infinite"
					}
				},
				"methodIdentifiers": {
					"allowlistDestinationChain(uint64,bool)": "96d3b83d",
					"allowlistedDestinationChains(uint64)": "75c67c66",
					"getFeePayLINK(uint64,address,uint256)": "acf69e27",
					"getFeePayNative(uint64,address,uint256)": "6108d8ee",
					"linkToken()": "57970e93",
					"owner()": "8da5cb5b",
					"renounceOwnership()": "715018a6",
					"router()": "f887ea40",
					"rwaToken()": "0c5bf351",
					"sendTokenPayLINK(uint64,address,uint256)": "889d5a82",
					"sendTokenPayNative(uint64,address,uint256)": "b04cc8b1",
					"sendTokenSponsored(uint64,address,uint256)": "2cb49f53",
					"transferOwnership(address)": "f2fde38b",
					"withdrawNative(address)": "2f622e6b",
					"withdrawToken(address,address,uint256)": "01e33667"
				}
			},
			"storageLayout": {
				"storage": [
					{
						"astId": 255,
						"contract": "ccip/RWATokenBridge.sol:RWATokenBridge",
						"label": "_owner",
						"offset": 0,
						"slot": "0",
						"type": "t_address"
					},
					{
						"astId": 1134,
						"contract": "ccip/RWATokenBridge.sol:RWATokenBridge",
						"label": "allowlistedDestinationChains",
						"offset": 0,
						"slot": "1",
						"type": "t_mapping(t_uint64,t_bool)"
					}
				],
				"types": {
					"t_address": {
						"encoding": "inplace",
						"label": "address",
						"numberOfBytes": "20"
					},
					"t_bool": {
						"encoding": "inplace",
						"label": "bool",
						"numberOfBytes": "1"
					},
					"t_mapping(t_uint64,t_bool)": {
						"encoding": "mapping",
						"key": "t_uint64",
						"label": "mapping(uint64 => bool)",
						"numberOfBytes": "32",
						"value": "t_bool"
					},
					"t_uint64": {
						"encoding": "inplace",
						"label": "uint64",
						"numberOfBytes": "8"
					}
				}
			},
			"userdoc": {
				"kind": "user",
				"methods": {},
				"version": 1
			}
		}
	}
}