{
	"@chainlink/contracts-ccip/contracts/libraries/Client.sol": {
		"Client": {
			"abi": [
				{
					"inputs": [],
					"name": "EVM_EXTRA_ARGS_V1_TAG",
					"outputs": [
						{
							"internalType": "bytes4",
							"name": "",
							"type": "bytes4"
						}
					],
					"stateMutability": "view",
					"type": "function"
				},
				{
					"inputs": [],
					"name": "GENERIC_EXTRA_ARGS_V2_TAG",
					"outputs": [
						{
							"internalType": "bytes4",
							"name": "",
							"type": "bytes4"
						}
					],
					"stateMutability": "view",
					"type": "function"
				},
				{
					"inputs": [],
					"name": "SUI_ACCOUNT_BYTE_SIZE",
					"outputs": [
						{
							"internalType": "uint256",
							"name": "",
							"type": "uint256"
						}
					],
					"stateMutability": "view",
					"type": "function"
				},
				{
					"inputs": [],
					"name": "SUI_EXTRA_ARGS_MAX_RECEIVER_OBJECT_IDS",
					"outputs": [
						{
							"internalType": "uint256",
							"name": "",
							"type": "uint256"
						}
					],
					"stateMutability": "view",
					"type": "function"
				},
				{
					"inputs": [],
					"name": "SUI_EXTRA_ARGS_V1_TAG",
					"outputs": [
						{
							"internalType": "bytes4",
							"name": "",
							"type": "bytes4"
						}
					],
					"stateMutability": "view",
					"type": "function"
				},
				{
					"inputs": [],
					"name": "SUI_MESSAGING_ACCOUNTS_OVERHEAD",
					"outputs": [
						{
							"internalType": "uint256",
							"name": "",
							"type": "uint256"
						}
					],
					"stateMutability": "view",
					"type": "function"
				},
				{
					"inputs": [],
					"name": "SUI_TOKEN_TRANSFER_DATA_OVERHEAD",
					"outputs": [
						{
							"internalType": "uint256",
							"name": "",
							"type": "uint256"
						}
					],
					"stateMutability": "view",
					"type": "function"
				},
				{
					"inputs": [],
					"name": "SVM_ACCOUNT_BYTE_SIZE",
					"outputs": [
						{
							"internalType": "uint256",
							"name": "",
							"type": "uint256"
						}
					],
					"stateMutability": "view",
					"type": "function"
				},
				{
					"inputs": [],
					"name": "SVM_EXTRA_ARGS_MAX_ACCOUNTS",
					"outputs": [
						{
							"internalType": "uint256",
							"name": "",
							"type": "uint256"
						}
					],
					"stateMutability": "view",
					"type": "function"
				},
				{
					"inputs": [],
					"name": "SVM_EXTRA_ARGS_V1_TAG",
					"outputs": [
						{
							"internalType": "bytes4",
							"name": "",
							"type": "bytes4"
						}
					],
					"stateMutability": "view",
					"type": "function"
				},
				{
					"inputs": [],
					"name": "SVM_MESSAGING_ACCOUNTS_OVERHEAD",
					"outputs": [
						{
							"internalType": "uint256",
							"name": "",
							"type": "uint256"
						}
					],
					"stateMutability": "view",
					"type": "function"
				},
				{
					"inputs": [],
					"name": "SVM_TOKEN_TRANSFER_DATA_OVERHEAD",
					"outputs": [
						{
							"internalType": "uint256",
							"name": "",
							"type": "uint256"
						}
					],
					"stateMutability": "view",
					"type": "function"
				}
			],
			"devdoc": {
				"kind": "dev",
				"methods": {},
				"stateVariables": {
					"SUI_ACCOUNT_BYTE_SIZE": {
						"details": "The size of each SUI account address in bytes."
					},
					"SUI_EXTRA_ARGS_MAX_RECEIVER_OBJECT_IDS": {
						"details": "The maximum number of receiver object ids that can be passed in SuiExtraArgs."
					},
					"SUI_MESSAGING_ACCOUNTS_OVERHEAD": {
						"details": "Number of overhead accounts needed for message execution on SUI.This is the message.receiver."
					},
					"SUI_TOKEN_TRANSFER_DATA_OVERHEAD": {
						"details": "The expected static payload size of a token transfer when BCS encoded and submitted to SUI. TokenPool extra data and offchain data sizes are dynamic, and should be accounted for separately."
					},
					"SVM_ACCOUNT_BYTE_SIZE": {
						"details": "The size of each SVM account address in bytes."
					},
					"SVM_EXTRA_ARGS_MAX_ACCOUNTS": {
						"details": "The maximum number of accounts that can be passed in SVMExtraArgs."
					},
					"SVM_MESSAGING_ACCOUNTS_OVERHEAD": {
						"details": "Number of overhead accounts needed for message execution on SVM.These are message.receiver, and the OffRamp Signer PDA specific to the receiver."
					},
					"SVM_TOKEN_TRANSFER_DATA_OVERHEAD": {
						"details": "The expected static payload size of a token transfer when Borsh encoded and submitted to SVM. TokenPool extra data and offchain data sizes are dynamic, and should be accounted for separately."
					}
				},
				"version": 1
			},
			"evm": {
				"assembly": "    /* \"@chainlink/contracts-ccip/contracts/libraries/Client.sol\":82:6085  library Client {... */\n  dataSize(sub_0)\n  dataOffset(sub_0)\n  0x0b\n  dup3\n  dup3\n  dup3\n  codecopy\n  dup1\n  mload\n  0x00\n  byte\n  0x73\n  eq\n  tag_1\n  jumpi\n  mstore(0x00, shl(0xe0, 0x4e487b71))\n  mstore(0x04, 0x00)\n  revert(0x00, 0x24)\ntag_1:\n  mstore(0x00, address)\n  0x73\n  dup2\n  mstore8\n  dup3\n  dup2\n  return\nstop\n\nsub_0: assembly {\n        /* \"@chainlink/contracts-ccip/contracts/libraries/Client.sol\":82:6085  library Client {... */\n      eq(address, deployTimeAddress())\n      mstore(0x40, 0x80)\n      jumpi(tag_1, lt(calldatasize, 0x04))\n      shr(0xe0, calldataload(0x00))\n      dup1\n      0x9713cbbd\n      gt\n      tag_14\n      jumpi\n      dup1\n      0xbd62fad9\n      gt\n      tag_15\n      jumpi\n      dup1\n      0xbd62fad9\n      eq\n      tag_5\n      jumpi\n      dup1\n      0xf736d63a\n      eq\n      tag_12\n      jumpi\n      dup1\n      0xfe489112\n      eq\n      tag_2\n      jumpi\n      revert(0x00, 0x00)\n    tag_15:\n      dup1\n      0x9713cbbd\n      eq\n      tag_8\n      jumpi\n      dup1\n      0xa5dd87d8\n      eq\n      tag_9\n      jumpi\n      dup1\n      0xb5f958fc\n      eq\n      tag_10\n      jumpi\n      revert(0x00, 0x00)\n    tag_14:\n      dup1\n      0x71953f60\n      gt\n      tag_16\n      jumpi\n      dup1\n      0x71953f60\n      eq\n      tag_5\n      jumpi\n      dup1\n      0x7498e355\n      eq\n      tag_6\n      jumpi\n      dup1\n      0x90c21ba6\n      eq\n      tag_7\n      jumpi\n      revert(0x00, 0x00)\n    tag_16:\n      dup1\n      0x1ac428f8\n      eq\n      tag_2\n      jumpi\n      dup1\n      0x3ab8c0d0\n      eq\n      tag_3\n      jumpi\n      dup1\n      0x5dd8ee3e\n      eq\n      tag_4\n      jumpi\n    tag_1:\n      revert(0x00, 0x00)\n        /* \"@chainlink/contracts-ccip/contracts/libraries/Client.sol\":3134:3190  uint256 public constant SVM_EXTRA_ARGS_MAX_ACCOUNTS = 64 */\n    tag_2:\n      tag_17\n        /* \"@chainlink/contracts-ccip/contracts/libraries/Client.sol\":3188:3190  64 */\n      0x40\n        /* \"@chainlink/contracts-ccip/contracts/libraries/Client.sol\":3134:3190  uint256 public constant SVM_EXTRA_ARGS_MAX_ACCOUNTS = 64 */\n      dup2\n      jump\n    tag_17:\n      mload(0x40)\n        /* \"#utility.yul\":168:193   */\n      swap1\n      dup2\n      mstore\n        /* \"#utility.yul\":156:158   */\n      0x20\n        /* \"#utility.yul\":141:159   */\n      add\n        /* \"@chainlink/contracts-ccip/contracts/libraries/Client.sol\":3134:3190  uint256 public constant SVM_EXTRA_ARGS_MAX_ACCOUNTS = 64 */\n    tag_19:\n      mload(0x40)\n      dup1\n      swap2\n      sub\n      swap1\n      return\n        /* \"@chainlink/contracts-ccip/contracts/libraries/Client.sol\":1209:1266  bytes4 public constant EVM_EXTRA_ARGS_V1_TAG = 0x97a657c9 */\n    tag_3:\n      tag_21\n      0x97a657c900000000000000000000000000000000000000000000000000000000\n      dup2\n      jump\n    tag_21:\n      mload(0x40)\n        /* \"#utility.yul\":386:452   */\n      0xffffffff00000000000000000000000000000000000000000000000000000000\n        /* \"#utility.yul\":374:453   */\n      swap1\n      swap2\n      and\n        /* \"#utility.yul\":356:454   */\n      dup2\n      mstore\n        /* \"#utility.yul\":344:346   */\n      0x20\n        /* \"#utility.yul\":329:347   */\n      add\n        /* \"@chainlink/contracts-ccip/contracts/libraries/Client.sol\":1209:1266  bytes4 public constant EVM_EXTRA_ARGS_V1_TAG = 0x97a657c9 */\n      tag_19\n        /* \"#utility.yul\":204:460   */\n      jump\n        /* \"@chainlink/contracts-ccip/contracts/libraries/Client.sol\":4265:4324  uint256 public constant SVM_MESSAGING_ACCOUNTS_OVERHEAD = 2 */\n    tag_4:\n      tag_17\n        /* \"@chainlink/contracts-ccip/contracts/libraries/Client.sol\":4323:4324  2 */\n      0x02\n        /* \"@chainlink/contracts-ccip/contracts/libraries/Client.sol\":4265:4324  uint256 public constant SVM_MESSAGING_ACCOUNTS_OVERHEAD = 2 */\n      dup2\n      jump\n        /* \"@chainlink/contracts-ccip/contracts/libraries/Client.sol\":4387:4437  uint256 public constant SVM_ACCOUNT_BYTE_SIZE = 32 */\n    tag_5:\n      tag_17\n        /* \"@chainlink/contracts-ccip/contracts/libraries/Client.sol\":4435:4437  32 */\n      0x20\n        /* \"@chainlink/contracts-ccip/contracts/libraries/Client.sol\":4387:4437  uint256 public constant SVM_ACCOUNT_BYTE_SIZE = 32 */\n      dup2\n      jump\n        /* \"@chainlink/contracts-ccip/contracts/libraries/Client.sol\":1810:1871  bytes4 public constant GENERIC_EXTRA_ARGS_V2_TAG = 0x181dcf10 */\n    tag_6:\n      tag_21\n      0x181dcf1000000000000000000000000000000000000000000000000000000000\n      dup2\n      jump\n        /* \"@chainlink/contracts-ccip/contracts/libraries/Client.sol\":2498:2555  bytes4 public constant SUI_EXTRA_ARGS_V1_TAG = 0x21ea4ca9 */\n    tag_7:\n      tag_21\n      0x21ea4ca900000000000000000000000000000000000000000000000000000000\n      dup2\n      jump\n        /* \"@chainlink/contracts-ccip/contracts/libraries/Client.sol\":3404:4025  uint256 public constant SVM_TOKEN_TRANSFER_DATA_OVERHEAD = (4 + 32) // source_pool... */\n    tag_8:\n      tag_17\n        /* \"@chainlink/contracts-ccip/contracts/libraries/Client.sol\":3463:4025  (4 + 32) // source_pool... */\n      0x012c\n        /* \"@chainlink/contracts-ccip/contracts/libraries/Client.sol\":3404:4025  uint256 public constant SVM_TOKEN_TRANSFER_DATA_OVERHEAD = (4 + 32) // source_pool... */\n      dup2\n      jump\n        /* \"@chainlink/contracts-ccip/contracts/libraries/Client.sol\":2615:2672  bytes4 public constant SVM_EXTRA_ARGS_V1_TAG = 0x1f3b3aba */\n    tag_9:\n      tag_21\n      0x1f3b3aba00000000000000000000000000000000000000000000000000000000\n      dup2\n      jump\n        /* \"@chainlink/contracts-ccip/contracts/libraries/Client.sol\":5189:5248  uint256 public constant SUI_MESSAGING_ACCOUNTS_OVERHEAD = 1 */\n    tag_10:\n      tag_17\n        /* \"@chainlink/contracts-ccip/contracts/libraries/Client.sol\":5247:5248  1 */\n      0x01\n        /* \"@chainlink/contracts-ccip/contracts/libraries/Client.sol\":5189:5248  uint256 public constant SUI_MESSAGING_ACCOUNTS_OVERHEAD = 1 */\n      dup2\n      jump\n        /* \"@chainlink/contracts-ccip/contracts/libraries/Client.sol\":4797:5057  uint256 public constant SUI_TOKEN_TRANSFER_DATA_OVERHEAD = (4 + 32) // source_pool, 4 bytes for length, 32 bytes for address... */\n    tag_12:\n      tag_17\n        /* \"@chainlink/contracts-ccip/contracts/libraries/Client.sol\":4856:5057  (4 + 32) // source_pool, 4 bytes for length, 32 bytes for address... */\n      0x6c\n        /* \"@chainlink/contracts-ccip/contracts/libraries/Client.sol\":4797:5057  uint256 public constant SUI_TOKEN_TRANSFER_DATA_OVERHEAD = (4 + 32) // source_pool, 4 bytes for length, 32 bytes for address... */\n      dup2\n      jump\n\n    auxdata: 0xa26469706673582212203e07d89af950106b9c84bb2aaa3aeb9754e42390fe0198fd8527e587d850dd4864736f6c634300081b0033\n}\n",
				"bytecode": {
					"linkReferences": {},
					"object": "610225610034600b8282823980515f1a607314602857634e487b7160e01b5f525f60045260245ffd5b305f52607381538281f3fe73000000000000000000000000000000000000000030146080604052600436106100da575f3560e01c80639713cbbd11610088578063bd62fad911610063578063bd62fad914610159578063f736d63a146101e7578063fe489112146100de575f5ffd5b80639713cbbd146101af578063a5dd87d8146101b8578063b5f958fc146101df575f5ffd5b806371953f60116100b857806371953f60146101595780637498e3551461016157806390c21ba614610188575f5ffd5b80631ac428f8146100de5780633ab8c0d0146100f95780635dd8ee3e14610151575b5f5ffd5b6100e6604081565b6040519081526020015b60405180910390f35b6101207f97a657c90000000000000000000000000000000000000000000000000000000081565b6040517fffffffff0000000000000000000000000000000000000000000000000000000090911681526020016100f0565b6100e6600281565b6100e6602081565b6101207f181dcf100000000000000000000000000000000000000000000000000000000081565b6101207f21ea4ca90000000000000000000000000000000000000000000000000000000081565b6100e661012c81565b6101207f1f3b3aba0000000000000000000000000000000000000000000000000000000081565b6100e6600181565b6100e6606c8156fea26469706673582212203e07d89af950106b9c84bb2aaa3aeb9754e42390fe0198fd8527e587d850dd4864736f6c634300081b0033",
					"opcodes": "PUSH2 0x225 PUSH2 0x34 PUSH1 0xB DUP3 DUP3 DUP3 CODECOPY DUP1 MLOAD PUSH0 BYTE PUSH1 0x73 EQ PUSH1 0x28 JUMPI PUSH4 0x4E487B71 PUSH1 0xE0 SHL PUSH0 MSTORE PUSH0 PUSH1 0x4 MSTORE PUSH1 0x24 PUSH0 REVERT JUMPDEST ADDRESS PUSH0 MSTORE PUSH1 0x73 DUP2 MSTORE8 DUP3 DUP2 RETURN INVALID PUSH20 0x0 ADDRESS EQ PUSH1 0x80 PUSH1 0x40 MSTORE PUSH1 0x4 CALLDATASIZE LT PUSH2 0xDA JUMPI PUSH0 CALLDATALOAD PUSH1 0xE0 SHR DUP1 PUSH4 0x9713CBBD GT PUSH2 0x88 JUMPI DUP1 PUSH4 0xBD62FAD9 GT PUSH2 0x63 JUMPI DUP1 PUSH4 0xBD62FAD9 EQ PUSH2 0x159 JUMPI DUP1 PUSH4 0xF736D63A EQ PUSH2 0x1E7 JUMPI DUP1 PUSH4 0xFE489112 EQ PUSH2 0xDE JUMPI PUSH0 PUSH0 REVERT JUMPDEST DUP1 PUSH4 0x9713CBBD EQ PUSH2 0x1AF JUMPI DUP1 PUSH4 0xA5DD87D8 EQ PUSH2 0x1B8 JUMPI DUP1 PUSH4 0xB5F958FC EQ PUSH2 0x1DF JUMPI PUSH0 PUSH0 REVERT JUMPDEST DUP1 PUSH4 0x71953F60 GT PUSH2 0xB8 JUMPI DUP1 PUSH4 0x71953F60 EQ PUSH2 0x159 JUMPI DUP1 PUSH4 0x7498E355 EQ PUSH2 0x161 JUMPI DUP1 PUSH4 0x90C21BA6 EQ PUSH2 0x188 JUMPI PUSH0 PUSH0 REVERT JUMPDEST DUP1 PUSH4 0x1AC428F8 EQ PUSH2 0xDE JUMPI DUP1 PUSH4 0x3AB8C0D0 EQ PUSH2 0xF9 JUMPI DUP1 PUSH4 0x5DD8EE3E EQ PUSH2 0x151 JUMPI JUMPDEST PUSH0 PUSH0 REVERT JUMPDEST PUSH2 0xE6 PUSH1 0x40 DUP2 JUMP JUMPDEST PUSH1 0x40 MLOAD SWAP1 DUP2 MSTORE PUSH1 0x20 ADD JUMPDEST PUSH1 0x40 MLOAD DUP1 SWAP2 SUB SWAP1 RETURN JUMPDEST PUSH2 0x120 PUSH32 0x97A657C900000000000000000000000000000000000000000000000000000000 DUP2 JUMP JUMPDEST PUSH1 0x40 MLOAD PUSH32 0xFFFFFFFF00000000000000000000000000000000000000000000000000000000 SWAP1 SWAP2 AND DUP2 MSTORE PUSH1 0x20 ADD PUSH2 0xF0 JUMP JUMPDEST PUSH2 0xE6 PUSH1 0x2 DUP2 JUMP JUMPDEST PUSH2 0xE6 PUSH1 0x20 DUP2 JUMP JUMPDEST PUSH2 0x120 PUSH32 0x181DCF1000000000000000000000000000000000000000000000000000000000 DUP2 JUMP JUMPDEST PUSH2 0x120 PUSH32 0x21EA4CA900000000000000000000000000000000000000000000000000000000 DUP2 JUMP JUMPDEST PUSH2 0xE6 PUSH2 0x12C DUP2 JUMP JUMPDEST PUSH2 0x120 PUSH32 0x1F3B3ABA00000000000000000000000000000000000000000000000000000000 DUP2 JUMP JUMPDEST PUSH2 0xE6 PUSH1 0x1 DUP2 JUMP JUMPDEST PUSH2 0xE6 PUSH1 0x6C DUP2 JUMP INVALID LOG2 PUSH5 0x6970667358 0x22 SLT KECCAK256 RETURNDATACOPY SMOD 0xD8 SWAP11 0xF9 POP LT PUSH12 0x9C84BB2AAA3AEB9754E42390 INVALID ADD SWAP9 REVERT DUP6 0x27 0xE5 DUP8 0xD8 POP 0xDD BASEFEE PUSH5 0x736F6C6343 STOP ADDMOD SHL STOP CALLER "
				},
				"gasEstimates": {
					"creation": {
						"codeDepositCost": "109800",
						"executionCost": "186",
						"totalCost": "109986"
					},
					"external": {
						"EVM_EXTRA_ARGS_V1_TAG()": "233",
						"GENERIC_EXTRA_ARGS_V2_TAG()": "232",
						"SUI_ACCOUNT_BYTE_SIZE()": "189",
						"SUI_EXTRA_ARGS_MAX_RECEIVER_OBJECT_IDS()": "233",
						"SUI_EXTRA_ARGS_V1_TAG()": "254",
						"SUI_MESSAGING_ACCOUNTS_OVERHEAD()": "234",
						"SUI_TOKEN_TRANSFER_DATA_OVERHEAD()": "211",
						"SVM_ACCOUNT_BYTE_SIZE()": "190",
						"SVM_EXTRA_ARGS_MAX_ACCOUNTS()": "191",
						"SVM_EXTRA_ARGS_V1_TAG()": "232",
						"SVM_MESSAGING_ACCOUNTS_OVERHEAD()": "235",
						"SVM_TOKEN_TRANSFER_DATA_OVERHEAD()": "190"
					},
					"internal": {
						"_argsToBytes(struct Client.EVMExtraArgsV1 memory)": "infinite",
						"_argsToBytes(struct Client.GenericExtraArgsV2 memory)": "infinite",
						"_suiArgsToBytes(struct Client.SuiExtraArgsV1 memory)": "infinite",
						"_svmArgsToBytes(struct Client.SVMExtraArgsV1 memory)": "infinite"
					}
				},
				"methodIdentifiers": {
					"EVM_EXTRA_ARGS_V1_TAG()": "3ab8c0d0",
					"GENERIC_EXTRA_ARGS_V2_TAG()": "7498e355",
					"SUI_ACCOUNT_BYTE_SIZE()": "bd62fad9",
					"SUI_EXTRA_ARGS_MAX_RECEIVER_OBJECT_IDS()": "fe489112",
					"SUI_EXTRA_ARGS_V1_TAG()": "90c21ba6",
					"SUI_MESSAGING_ACCOUNTS_OVERHEAD()": "b5f958fc",
					"SUI_TOKEN_TRANSFER_DATA_OVERHEAD()": "f736d63a",
					"SVM_ACCOUNT_BYTE_SIZE()": "71953f60",
					"SVM_EXTRA_ARGS_MAX_ACCOUNTS()": "1ac428f8",
					"SVM_EXTRA_ARGS_V1_TAG()": "a5dd87d8",
					"SVM_MESSAGING_ACCOUNTS_OVERHEAD()": "5dd8ee3e",
					"SVM_TOKEN_TRANSFER_DATA_OVERHEAD()": "9713cbbd"
				}
			},
			"storageLayout": {
				"storage": [],
				"types": null
			},
			"userdoc": {
				"kind": "user",
				"methods": {},
				"version": 1
			}
		}
	}
}