{
	"core/RWAMintControllerVault.sol": {
		"RWAMintControllerVault": {
			"abi": [
				{
					"inputs": [
						{
							"internalType": "address",
							"name": "_oracle",
							"type": "address"
						},
						{
							"internalType": "address",
							"name": "_usdc",
							"type": "address"
						},
						{
							"internalType": "address",
							"name": "_rwaToken",
							"type": "address"
						},
						{
							"internalType": "address",
							"name": "_issuer",
							"type": "address"
						},
						{
							"internalType": "uint256",
							"name": "_initialNAVUSD18",
							"type": "uint256"
						},
						{
							"internalType": "uint256",
							"name": "_maxOracleDelay",
							"type": "uint256"
						}
					],
					"stateMutability": "nonpayable",
					"type": "constructor"
				},
				{
					"inputs": [
						{
							"internalType": "address",
							"name": "owner",
							"type": "address"
						}
					],
					"name": "OwnableInvalidOwner",
					"type": "error"
				},
				{
					"inputs": [
						{
							"internalType": "address",
							"name": "account",
							"type": "address"
						}
					],
					"name": "OwnableUnauthorizedAccount",
					"type": "error"
				},
				{
					"inputs": [],
					"name": "ReentrancyGuardReentrantCall",
					"type": "error"
				},
				{
					"inputs": [
						{
							"internalType": "address",
							"name": "token",
							"type": "address"
						}
					],
					"name": "SafeERC20FailedOperation",
					"type": "error"
				},
				{
					"anonymous": false,
					"inputs": [
						{
							"indexed": true,
							"internalType": "address",
							"name": "issuer",
							"type": "address"
						},
						{
							"indexed": false,
							"internalType": "uint256",
							"name": "adjustedOffchainReserveUSD18",
							"type": "uint256"
						},
						{
							"indexed": false,
							"internalType": "uint256",
							"name": "initialNAVUSD18",
							"type": "uint256"
						},
						{
							"indexed": false,
							"internalType": "uint256",
							"name": "initialSupply",
							"type": "uint256"
						}
					],
					"name": "FundInitialized",
					"type": "event"
				},
				{
					"anonymous": false,
					"inputs": [
						{
							"indexed": true,
							"internalType": "address",
							"name": "issuer",
							"type": "address"
						}
					],
					"name": "IssuerSet",
					"type": "event"
				},
				{
					"anonymous": false,
					"inputs": [
						{
							"indexed": false,
							"internalType": "uint256",
							"name": "maxOracleDelay",
							"type": "uint256"
						}
					],
					"name": "MaxOracleDelaySet",
					"type": "event"
				},
				{
					"anonymous": false,
					"inputs": [
						{
							"indexed": false,
							"internalType": "bool",
							"name": "paused",
							"type": "bool"
						}
					],
					"name": "MintPausedSet",
					"type": "event"
				},
				{
					"anonymous": false,
					"inputs": [
						{
							"indexed": true,
							"internalType": "address",
							"name": "user",
							"type": "address"
						},
						{
							"indexed": false,
							"internalType": "uint256",
							"name": "usdcPaid",
							"type": "uint256"
						},
						{
							"indexed": false,
							"internalType": "uint256",
							"name": "navUSD18",
							"type": "uint256"
						},
						{
							"indexed": false,
							"internalType": "uint256",
							"name": "rwaMinted",
							"type": "uint256"
						}
					],
					"name": "Minted",
					"type": "event"
				},
				{
					"anonymous": false,
					"inputs": [
						{
							"indexed": true,
							"internalType": "address",
							"name": "oracle",
							"type": "address"
						}
					],
					"name": "OracleSet",
					"type": "event"
				},
				{
					"anonymous": false,
					"inputs": [
						{
							"indexed": true,
							"internalType": "address",
							"name": "previousOwner",
							"type": "address"
						},
						{
							"indexed": true,
							"internalType": "address",
							"name": "newOwner",
							"type": "address"
						}
					],
					"name": "OwnershipTransferred",
					"type": "event"
				},
				{
					"anonymous": false,
					"inputs": [
						{
							"indexed": false,
							"internalType": "bool",
							"name": "paused",
							"type": "bool"
						}
					],
					"name": "RedeemPausedSet",
					"type": "event"
				},
				{
					"anonymous": false,
					"inputs": [
						{
							"indexed": true,
							"internalType": "address",
							"name": "user",
							"type": "address"
						},
						{
							"indexed": false,
							"internalType": "uint256",
							"name": "rwaBurned",
							"type": "uint256"
						},
						{
							"indexed": false,
							"internalType": "uint256",
							"name": "navUSD18",
							"type": "uint256"
						},
						{
							"indexed": false,
							"internalType": "uint256",
							"name": "usdcPaid",
							"type": "uint256"
						}
					],
					"name": "Redeemed",
					"type": "event"
				},
				{
					"anonymous": false,
					"inputs": [
						{
							"indexed": true,
							"internalType": "address",
							"name": "user",
							"type": "address"
						},
						{
							"indexed": false,
							"internalType": "uint256",
							"name": "rwaAmount",
							"type": "uint256"
						},
						{
							"indexed": false,
							"internalType": "uint256",
							"name": "navUSD18",
							"type": "uint256"
						},
						{
							"indexed": false,
							"internalType": "uint256",
							"name": "expectedUSDCAmount",
							"type": "uint256"
						}
					],
					"name": "RedemptionRequested",
					"type": "event"
				},
				{
					"inputs": [],
					"name": "initializeFund",
					"outputs": [],
					"stateMutability": "nonpayable",
					"type": "function"
				},
				{
					"inputs": [],
					"name": "initialized",
					"outputs": [
						{
							"internalType": "bool",
							"name": "",
							"type": "bool"
						}
					],
					"stateMutability": "view",
					"type": "function"
				},
				{
					"inputs": [],
					"name": "issuer",
					"outputs": [
						{
							"internalType": "address",
							"name": "",
							"type": "address"
						}
					],
					"stateMutability": "view",
					"type": "function"
				},
				{
					"inputs": [],
					"name": "maxOracleDelay",
					"outputs": [
						{
							"internalType": "uint256",
							"name": "",
							"type": "uint256"
						}
					],
					"stateMutability": "view",
					"type": "function"
				},
				{
					"inputs": [],
					"name": "mintPaused",
					"outputs": [
						{
							"internalType": "bool",
							"name": "",
							"type": "bool"
						}
					],
					"stateMutability": "view",
					"type": "function"
				},
				{
					"inputs": [
						{
							"internalType": "uint256",
							"name": "maxUSDCIn",
							"type": "uint256"
						},
						{
							"internalType": "uint256",
							"name": "minRwaOut",
							"type": "uint256"
						}
					],
					"name": "mintWithUSDC",
					"outputs": [
						{
							"internalType": "uint256",
							"name": "rwaAmount",
							"type": "uint256"
						},
						{
							"internalType": "uint256",
							"name": "usdcRequired",
							"type": "uint256"
						}
					],
					"stateMutability": "nonpayable",
					"type": "function"
				},
				{
					"inputs": [],
					"name": "navPerTokenUSD18",
					"outputs": [
						{
							"internalType": "uint256",
							"name": "",
							"type": "uint256"
						}
					],
					"stateMutability": "view",
					"type": "function"
				},
				{
					"inputs": [],
					"name": "oracle",
					"outputs": [
						{
							"internalType": "contract IReserveOracle",
							"name": "",
							"type": "address"
						}
					],
					"stateMutability": "view",
					"type": "function"
				},
				{
					"inputs": [],
					"name": "owner",
					"outputs": [
						{
							"internalType": "address",
							"name": "",
							"type": "address"
						}
					],
					"stateMutability": "view",
					"type": "function"
				},
				{
					"inputs": [
						{
							"internalType": "uint256",
							"name": "maxUSDCIn",
							"type": "uint256"
						}
					],
					"name": "previewMintWithUSDC",
					"outputs": [
						{
							"internalType": "uint256",
							"name": "rwaAmount",
							"type": "uint256"
						},
						{
							"internalType": "uint256",
							"name": "usdcRequired",
							"type": "uint256"
						}
					],
					"stateMutability": "view",
					"type": "function"
				},
				{
					"inputs": [
						{
							"internalType": "uint256",
							"name": "maxRwaIn",
							"type": "uint256"
						}
					],
					"name": "previewRedeem",
					"outputs": [
						{
							"internalType": "uint256",
							"name": "rwaRequired",
							"type": "uint256"
						},
						{
							"internalType": "uint256",
							"name": "usdcAmount",
							"type": "uint256"
						}
					],
					"stateMutability": "view",
					"type": "function"
				},
				{
					"inputs": [
						{
							"internalType": "uint256",
							"name": "maxRwaIn",
							"type": "uint256"
						},
						{
							"internalType": "uint256",
							"name": "minUSDCOut",
							"type": "uint256"
						}
					],
					"name": "redeem",
					"outputs": [
						{
							"internalType": "uint256",
							"name": "rwaRequired",
							"type": "uint256"
						},
						{
							"internalType": "uint256",
							"name": "usdcAmount",
							"type": "uint256"
						}
					],
					"stateMutability": "nonpayable",
					"type": "function"
				},
				{
					"inputs": [],
					"name": "redeemPaused",
					"outputs": [
						{
							"internalType": "bool",
							"name": "",
							"type": "bool"
						}
					],
					"stateMutability": "view",
					"type": "function"
				},
				{
					"inputs": [],
					"name": "renounceOwnership",
					"outputs": [],
					"stateMutability": "nonpayable",
					"type": "function"
				},
				{
					"inputs": [
						{
							"internalType": "uint256",
							"name": "maxRwaIn",
							"type": "uint256"
						}
					],
					"name": "requestRedeem",
					"outputs": [],
					"stateMutability": "nonpayable",
					"type": "function"
				},
				{
					"inputs": [],
					"name": "rwaToken",
					"outputs": [
						{
							"internalType": "contract IRWAToken",
							"name": "",
							"type": "address"
						}
					],
					"stateMutability": "view",
					"type": "function"
				},
				{
					"inputs": [
						{
							"internalType": "address",
							"name": "_issuer",
							"type": "address"
						}
					],
					"name": "setIssuer",
					"outputs": [],
					"stateMutability": "nonpayable",
					"type": "function"
				},
				{
					"inputs": [
						{
							"internalType": "uint256",
							"name": "_maxOracleDelay",
							"type": "uint256"
						}
					],
					"name": "setMaxOracleDelay",
					"outputs": [],
					"stateMutability": "nonpayable",
					"type": "function"
				},
				{
					"inputs": [
						{
							"internalType": "bool",
							"name": "paused",
							"type": "bool"
						}
					],
					"name": "setMintPaused",
					"outputs": [],
					"stateMutability": "nonpayable",
					"type": "function"
				},
				{
					"inputs": [
						{
							"internalType": "address",
							"name": "_oracle",
							"type": "address"
						}
					],
					"name": "setOracle",
					"outputs": [],
					"stateMutability": "nonpayable",
					"type": "function"
				},
				{
					"inputs": [
						{
							"internalType": "bool",
							"name": "paused",
							"type": "bool"
						}
					],
					"name": "setRedeemPaused",
					"outputs": [],
					"stateMutability": "nonpayable",
					"type": "function"
				},
				{
					"inputs": [],
					"name": "totalBackingValueUSD18",
					"outputs": [
						{
							"internalType": "uint256",
							"name": "",
							"type": "uint256"
						}
					],
					"stateMutability": "view",
					"type": "function"
				},
				{
					"inputs": [
						{
							"internalType": "address",
							"name": "newOwner",
							"type": "address"
						}
					],
					"name": "transferOwnership",
					"outputs": [],
					"stateMutability": "nonpayable",
					"type": "function"
				},
				{
					"inputs": [],
					"name": "usdc",
					"outputs": [
						{
							"internalType": "contract IERC20",
							"name": "",
							"type": "address"
						}
					],
					"stateMutability": "view",
					"type": "function"
				},
				{
					"inputs": [],
					"name": "vaultUSDCBalance",
					"outputs": [
						{
							"internalType": "uint256",
							"name": "",
							"type": "uint256"
						}
					],
					"stateMutability": "view",
					"type": "function"
				}
			],
			"devdoc": {
				"errors": {
					"OwnableInvalidOwner(address)": [
						{
							"details": "The owner is not a valid owner account. (eg. `address(0)`)"
						}
					],
					"OwnableUnauthorizedAccount(address)": [
						{
							"details": "The caller account is not authorized to perform an operation."
						}
					],
					"ReentrancyGuardReentrantCall()": [
						{
							"details": "Unauthorized reentrant call."
						}
					],
					"SafeERC20FailedOperation(address)": [
						{
							"details": "An operation with an ERC-20 token failed."
						}
					]
				},
				"kind": "dev",
				"methods": {
					"mintWithUSDC(uint256,uint256)": {
						"params": {
							"maxUSDCIn": "Maximum USDC user is willing to pay.",
							"minRwaOut": "Minimum RWA token amount user expects."
						}
					},
					"navPerTokenUSD18()": {
						"details": "Validates oracle data before calculation."
					},
					"owner()": {
						"details": "Returns the address of the current owner."
					},
					"redeem(uint256,uint256)": {
						"params": {
							"maxRwaIn": "Maximum RWA token amount user is willing to burn.",
							"minUSDCOut": "Minimum USDC amount user expects."
						}
					},
					"renounceOwnership()": {
						"details": "Leaves the contract without owner. It will not be possible to call `onlyOwner` functions. Can only be called by the current owner. NOTE: Renouncing ownership will leave the contract without an owner, thereby disabling any functionality that is only available to the owner."
					},
					"totalBackingValueUSD18()": {
						"details": "Validates oracle data before calculation."
					},
					"transferOwnership(address)": {
						"details": "Transfers ownership of the contract to a new account (`newOwner`). Can only be called by the current owner."
					},
					"vaultUSDCBalance()": {
						"details": "Uses native USDC decimals."
					}
				},
				"title": "RWAMintControllerVault",
				"version": 1
			},
			"evm": {
				"assembly": "    /* \"core/RWAMintControllerVault.sol\":1648:17105  contract RWAMintControllerVault is Ownable, ReentrancyGuard {... */\n  mstore(0x40, 0x0160)\n    /* \"core/RWAMintControllerVault.sol\":3454:4514  constructor(... */\n  callvalue\n  dup1\n  iszero\n  tag_1\n  jumpi\n  revert(0x00, 0x00)\ntag_1:\n  pop\n  mload(0x40)\n  sub(codesize, bytecodeSize)\n  dup1\n  bytecodeSize\n  dup4\n  codecopy\n  dup2\n  dup2\n  add\n  0x40\n  mstore\n  dup2\n  add\n  swap1\n  tag_2\n  swap2\n  swap1\n  tag_3\n  jump\t// in\ntag_2:\n    /* \"core/RWAMintControllerVault.sol\":3647:3657  msg.sender */\n  caller\n    /* \"@openzeppelin/contracts/access/Ownable.sol\":1297:1298  0 */\n  0x00\n    /* \"@openzeppelin/contracts/access/Ownable.sol\":1273:1299  initialOwner == address(0) */\n  0xffffffffffffffffffffffffffffffffffffffff\n  and\n    /* \"@openzeppelin/contracts/access/Ownable.sol\":1273:1285  initialOwner */\n  dup2\n    /* \"@openzeppelin/contracts/access/Ownable.sol\":1273:1299  initialOwner == address(0) */\n  0xffffffffffffffffffffffffffffffffffffffff\n  and\n  sub\n    /* \"@openzeppelin/contracts/access/Ownable.sol\":1269:1364  if (initialOwner == address(0)) {... */\n  tag_8\n  jumpi\n    /* \"@openzeppelin/contracts/access/Ownable.sol\":1350:1351  0 */\n  0x00\n    /* \"@openzeppelin/contracts/access/Ownable.sol\":1322:1353  OwnableInvalidOwner(address(0)) */\n  mload(0x40)\n  0x1e4fbdf700000000000000000000000000000000000000000000000000000000\n  dup2\n  mstore\n  0x04\n  add\n  tag_9\n  swap2\n  swap1\n  tag_10\n  jump\t// in\ntag_9:\n  mload(0x40)\n  dup1\n  swap2\n  sub\n  swap1\n  revert\n    /* \"@openzeppelin/contracts/access/Ownable.sol\":1269:1364  if (initialOwner == address(0)) {... */\ntag_8:\n    /* \"@openzeppelin/contracts/access/Ownable.sol\":1373:1405  _transferOwnership(initialOwner) */\n  tag_11\n    /* \"@openzeppelin/contracts/access/Ownable.sol\":1392:1404  initialOwner */\n  dup2\n    /* \"@openzeppelin/contracts/access/Ownable.sol\":1373:1391  _transferOwnership */\n  shl(0x20, tag_12)\n    /* \"@openzeppelin/contracts/access/Ownable.sol\":1373:1405  _transferOwnership(initialOwner) */\n  0x20\n  shr\n  jump\t// in\ntag_11:\n    /* \"@openzeppelin/contracts/access/Ownable.sol\":1225:1412  constructor(address initialOwner) {... */\n  pop\n    /* \"@openzeppelin/contracts/utils/ReentrancyGuard.sol\":2365:2366  1 */\n  0x01\n    /* \"@openzeppelin/contracts/utils/ReentrancyGuard.sol\":2539:2585  _reentrancyGuardStorageSlot().getUint256Slot() */\n  tag_14\n    /* \"@openzeppelin/contracts/utils/ReentrancyGuard.sol\":2539:2568  _reentrancyGuardStorageSlot() */\n  tag_15\n    /* \"@openzeppelin/contracts/utils/ReentrancyGuard.sol\":2539:2566  _reentrancyGuardStorageSlot */\n  shl(0x20, tag_16)\n    /* \"@openzeppelin/contracts/utils/ReentrancyGuard.sol\":2539:2568  _reentrancyGuardStorageSlot() */\n  0x20\n  shr\n  jump\t// in\ntag_15:\n    /* \"@openzeppelin/contracts/utils/ReentrancyGuard.sol\":2539:2583  _reentrancyGuardStorageSlot().getUint256Slot */\n  shl(0x20, tag_17)\n    /* \"@openzeppelin/contracts/utils/ReentrancyGuard.sol\":2539:2585  _reentrancyGuardStorageSlot().getUint256Slot() */\n  0x20\n  shr\n  jump\t// in\ntag_14:\n    /* \"@openzeppelin/contracts/utils/ReentrancyGuard.sol\":2539:2591  _reentrancyGuardStorageSlot().getUint256Slot().value */\n  0x00\n  add\n    /* \"@openzeppelin/contracts/utils/ReentrancyGuard.sol\":2539:2605  _reentrancyGuardStorageSlot().getUint256Slot().value = NOT_ENTERED */\n  dup2\n  swap1\n  sstore\n  pop\n    /* \"core/RWAMintControllerVault.sol\":3696:3697  0 */\n  0x00\n    /* \"core/RWAMintControllerVault.sol\":3677:3698  _oracle != address(0) */\n  0xffffffffffffffffffffffffffffffffffffffff\n  and\n    /* \"core/RWAMintControllerVault.sol\":3677:3684  _oracle */\n  dup7\n    /* \"core/RWAMintControllerVault.sol\":3677:3698  _oracle != address(0) */\n  0xffffffffffffffffffffffffffffffffffffffff\n  and\n  sub\n    /* \"core/RWAMintControllerVault.sol\":3669:3713  require(_oracle != address(0), \"bad oracle\") */\n  tag_19\n  jumpi\n  mload(0x40)\n  0x08c379a000000000000000000000000000000000000000000000000000000000\n  dup2\n  mstore\n  0x04\n  add\n  tag_20\n  swap1\n  tag_21\n  jump\t// in\ntag_20:\n  mload(0x40)\n  dup1\n  swap2\n  sub\n  swap1\n  revert\ntag_19:\n    /* \"core/RWAMintControllerVault.sol\":3748:3749  0 */\n  0x00\n    /* \"core/RWAMintControllerVault.sol\":3731:3750  _usdc != address(0) */\n  0xffffffffffffffffffffffffffffffffffffffff\n  and\n    /* \"core/RWAMintControllerVault.sol\":3731:3736  _usdc */\n  dup6\n    /* \"core/RWAMintControllerVault.sol\":3731:3750  _usdc != address(0) */\n  0xffffffffffffffffffffffffffffffffffffffff\n  and\n  sub\n    /* \"core/RWAMintControllerVault.sol\":3723:3763  require(_usdc != address(0), \"bad usdc\") */\n  tag_22\n  jumpi\n  mload(0x40)\n  0x08c379a000000000000000000000000000000000000000000000000000000000\n  dup2\n  mstore\n  0x04\n  add\n  tag_23\n  swap1\n  tag_24\n  jump\t// in\ntag_23:\n  mload(0x40)\n  dup1\n  swap2\n  sub\n  swap1\n  revert\ntag_22:\n    /* \"core/RWAMintControllerVault.sol\":3802:3803  0 */\n  0x00\n    /* \"core/RWAMintControllerVault.sol\":3781:3804  _rwaToken != address(0) */\n  0xffffffffffffffffffffffffffffffffffffffff\n  and\n    /* \"core/RWAMintControllerVault.sol\":3781:3790  _rwaToken */\n  dup5\n    /* \"core/RWAMintControllerVault.sol\":3781:3804  _rwaToken != address(0) */\n  0xffffffffffffffffffffffffffffffffffffffff\n  and\n  sub\n    /* \"core/RWAMintControllerVault.sol\":3773:3822  require(_rwaToken != address(0), \"bad rwa token\") */\n  tag_25\n  jumpi\n  mload(0x40)\n  0x08c379a000000000000000000000000000000000000000000000000000000000\n  dup2\n  mstore\n  0x04\n  add\n  tag_26\n  swap1\n  tag_27\n  jump\t// in\ntag_26:\n  mload(0x40)\n  dup1\n  swap2\n  sub\n  swap1\n  revert\ntag_25:\n    /* \"core/RWAMintControllerVault.sol\":3859:3860  0 */\n  0x00\n    /* \"core/RWAMintControllerVault.sol\":3840:3861  _issuer != address(0) */\n  0xffffffffffffffffffffffffffffffffffffffff\n  and\n    /* \"core/RWAMintControllerVault.sol\":3840:3847  _issuer */\n  dup4\n    /* \"core/RWAMintControllerVault.sol\":3840:3861  _issuer != address(0) */\n  0xffffffffffffffffffffffffffffffffffffffff\n  and\n  sub\n    /* \"core/RWAMintControllerVault.sol\":3832:3876  require(_issuer != address(0), \"bad issuer\") */\n  tag_28\n  jumpi\n  mload(0x40)\n  0x08c379a000000000000000000000000000000000000000000000000000000000\n  dup2\n  mstore\n  0x04\n  add\n  tag_29\n  swap1\n  tag_30\n  jump\t// in\ntag_29:\n  mload(0x40)\n  dup1\n  swap2\n  sub\n  swap1\n  revert\ntag_28:\n    /* \"core/RWAMintControllerVault.sol\":3913:3914  0 */\n  0x00\n    /* \"core/RWAMintControllerVault.sol\":3894:3910  _initialNAVUSD18 */\n  dup3\n    /* \"core/RWAMintControllerVault.sol\":3894:3914  _initialNAVUSD18 > 0 */\n  gt\n    /* \"core/RWAMintControllerVault.sol\":3886:3934  require(_initialNAVUSD18 > 0, \"bad initial NAV\") */\n  tag_31\n  jumpi\n  mload(0x40)\n  0x08c379a000000000000000000000000000000000000000000000000000000000\n  dup2\n  mstore\n  0x04\n  add\n  tag_32\n  swap1\n  tag_33\n  jump\t// in\ntag_32:\n  mload(0x40)\n  dup1\n  swap2\n  sub\n  swap1\n  revert\ntag_31:\n    /* \"core/RWAMintControllerVault.sol\":3969:3976  _oracle */\n  dup6\n    /* \"core/RWAMintControllerVault.sol\":3945:3951  oracle */\n  0x01\n  0x00\n    /* \"core/RWAMintControllerVault.sol\":3945:3977  oracle = IReserveOracle(_oracle) */\n  0x0100\n  exp\n  dup2\n  sload\n  dup2\n  0xffffffffffffffffffffffffffffffffffffffff\n  mul\n  not\n  and\n  swap1\n  dup4\n  0xffffffffffffffffffffffffffffffffffffffff\n  and\n  mul\n  or\n  swap1\n  sstore\n  pop\n    /* \"core/RWAMintControllerVault.sol\":4001:4006  _usdc */\n  dup5\n    /* \"core/RWAMintControllerVault.sol\":3987:4007  usdc = IERC20(_usdc) */\n  0xffffffffffffffffffffffffffffffffffffffff\n  and\n  0x80\n  dup2\n  0xffffffffffffffffffffffffffffffffffffffff\n  and\n  dup2\n  mstore\n  pop\n  pop\n    /* \"core/RWAMintControllerVault.sol\":4038:4047  _rwaToken */\n  dup4\n    /* \"core/RWAMintControllerVault.sol\":4017:4048  rwaToken = IRWAToken(_rwaToken) */\n  0xffffffffffffffffffffffffffffffffffffffff\n  and\n  0xa0\n  dup2\n  0xffffffffffffffffffffffffffffffffffffffff\n  and\n  dup2\n  mstore\n  pop\n  pop\n    /* \"core/RWAMintControllerVault.sol\":4067:4074  _issuer */\n  dup3\n    /* \"core/RWAMintControllerVault.sol\":4058:4064  issuer */\n  0x02\n  0x00\n    /* \"core/RWAMintControllerVault.sol\":4058:4074  issuer = _issuer */\n  0x0100\n  exp\n  dup2\n  sload\n  dup2\n  0xffffffffffffffffffffffffffffffffffffffff\n  mul\n  not\n  and\n  swap1\n  dup4\n  0xffffffffffffffffffffffffffffffffffffffff\n  and\n  mul\n  or\n  swap1\n  sstore\n  pop\n    /* \"core/RWAMintControllerVault.sol\":4102:4118  _initialNAVUSD18 */\n  dup2\n    /* \"core/RWAMintControllerVault.sol\":4084:4118  initialNAVUSD18 = _initialNAVUSD18 */\n  0x0140\n  dup2\n  dup2\n  mstore\n  pop\n  pop\n    /* \"core/RWAMintControllerVault.sol\":4159:4164  _usdc */\n  dup5\n    /* \"core/RWAMintControllerVault.sol\":4144:4174  IERC20Metadata(_usdc).decimals */\n  0xffffffffffffffffffffffffffffffffffffffff\n  and\n  0x313ce567\n    /* \"core/RWAMintControllerVault.sol\":4144:4176  IERC20Metadata(_usdc).decimals() */\n  mload(0x40)\n  dup2\n  0xffffffff\n  and\n  0xe0\n  shl\n  dup2\n  mstore\n  0x04\n  add\n  0x20\n  mload(0x40)\n  dup1\n  dup4\n  sub\n  dup2\n  dup7\n  gas\n  staticcall\n  iszero\n  dup1\n  iszero\n  tag_35\n  jumpi\n  returndatacopy(0x00, 0x00, returndatasize)\n  revert(0x00, returndatasize)\ntag_35:\n  pop\n  pop\n  pop\n  pop\n  mload(0x40)\n  returndatasize\n  not(0x1f)\n  0x1f\n  dup3\n  add\n  and\n  dup3\n  add\n  dup1\n  0x40\n  mstore\n  pop\n  dup2\n  add\n  swap1\n  tag_36\n  swap2\n  swap1\n  tag_37\n  jump\t// in\ntag_36:\n    /* \"core/RWAMintControllerVault.sol\":4129:4176  usdcDecimals = IERC20Metadata(_usdc).decimals() */\n  0xff\n  and\n  0xc0\n  dup2\n  0xff\n  and\n  dup2\n  mstore\n  pop\n  pop\n    /* \"core/RWAMintControllerVault.sol\":4215:4224  _rwaToken */\n  dup4\n    /* \"core/RWAMintControllerVault.sol\":4200:4234  IERC20Metadata(_rwaToken).decimals */\n  0xffffffffffffffffffffffffffffffffffffffff\n  and\n  0x313ce567\n    /* \"core/RWAMintControllerVault.sol\":4200:4236  IERC20Metadata(_rwaToken).decimals() */\n  mload(0x40)\n  dup2\n  0xffffffff\n  and\n  0xe0\n  shl\n  dup2\n  mstore\n  0x04\n  add\n  0x20\n  mload(0x40)\n  dup1\n  dup4\n  sub\n  dup2\n  dup7\n  gas\n  staticcall\n  iszero\n  dup1\n  iszero\n  tag_39\n  jumpi\n  returndatacopy(0x00, 0x00, returndatasize)\n  revert(0x00, returndatasize)\ntag_39:\n  pop\n  pop\n  pop\n  pop\n  mload(0x40)\n  returndatasize\n  not(0x1f)\n  0x1f\n  dup3\n  add\n  and\n  dup3\n  add\n  dup1\n  0x40\n  mstore\n  pop\n  dup2\n  add\n  swap1\n  tag_40\n  swap2\n  swap1\n  tag_37\n  jump\t// in\ntag_40:\n    /* \"core/RWAMintControllerVault.sol\":4186:4236  rwaDecimals = IERC20Metadata(_rwaToken).decimals() */\n  0xff\n  and\n  0xe0\n  dup2\n  0xff\n  and\n  dup2\n  mstore\n  pop\n  pop\n    /* \"core/RWAMintControllerVault.sol\":4271:4273  18 */\n  0x12\n    /* \"core/RWAMintControllerVault.sol\":4255:4267  usdcDecimals */\n  mload(0xc0)\n    /* \"core/RWAMintControllerVault.sol\":4255:4273  usdcDecimals <= 18 */\n  0xff\n  and\n  gt\n  iszero\n    /* \"core/RWAMintControllerVault.sol\":4247:4300  require(usdcDecimals <= 18, \"USDC decimals too high\") */\n  tag_41\n  jumpi\n  mload(0x40)\n  0x08c379a000000000000000000000000000000000000000000000000000000000\n  dup2\n  mstore\n  0x04\n  add\n  tag_42\n  swap1\n  tag_43\n  jump\t// in\ntag_42:\n  mload(0x40)\n  dup1\n  swap2\n  sub\n  swap1\n  revert\ntag_41:\n    /* \"core/RWAMintControllerVault.sol\":4333:4335  18 */\n  0x12\n    /* \"core/RWAMintControllerVault.sol\":4318:4329  rwaDecimals */\n  mload(0xe0)\n    /* \"core/RWAMintControllerVault.sol\":4318:4335  rwaDecimals <= 18 */\n  0xff\n  and\n  gt\n  iszero\n    /* \"core/RWAMintControllerVault.sol\":4310:4361  require(rwaDecimals <= 18, \"RWA decimals too high\") */\n  tag_44\n  jumpi\n  mload(0x40)\n  0x08c379a000000000000000000000000000000000000000000000000000000000\n  dup2\n  mstore\n  0x04\n  add\n  tag_45\n  swap1\n  tag_46\n  jump\t// in\ntag_45:\n  mload(0x40)\n  dup1\n  swap2\n  sub\n  swap1\n  revert\ntag_44:\n    /* \"core/RWAMintControllerVault.sol\":4396:4407  rwaDecimals */\n  mload(0xe0)\n    /* \"core/RWAMintControllerVault.sol\":4388:4408  uint256(rwaDecimals) */\n  0xff\n  and\n    /* \"core/RWAMintControllerVault.sol\":4382:4384  10 */\n  0x0a\n    /* \"core/RWAMintControllerVault.sol\":4382:4408  10 ** uint256(rwaDecimals) */\n  tag_47\n  swap2\n  swap1\n  tag_48\n  jump\t// in\ntag_47:\n    /* \"core/RWAMintControllerVault.sol\":4372:4408  rwaUnit = 10 ** uint256(rwaDecimals) */\n  0x0100\n  dup2\n  dup2\n  mstore\n  pop\n  pop\n    /* \"core/RWAMintControllerVault.sol\":4451:4463  usdcDecimals */\n  mload(0xc0)\n    /* \"core/RWAMintControllerVault.sol\":4446:4448  18 */\n  0x12\n    /* \"core/RWAMintControllerVault.sol\":4446:4463  18 - usdcDecimals */\n  tag_49\n  swap2\n  swap1\n  tag_50\n  jump\t// in\ntag_49:\n    /* \"core/RWAMintControllerVault.sol\":4438:4464  uint256(18 - usdcDecimals) */\n  0xff\n  and\n    /* \"core/RWAMintControllerVault.sol\":4432:4434  10 */\n  0x0a\n    /* \"core/RWAMintControllerVault.sol\":4432:4464  10 ** uint256(18 - usdcDecimals) */\n  tag_51\n  swap2\n  swap1\n  tag_48\n  jump\t// in\ntag_51:\n    /* \"core/RWAMintControllerVault.sol\":4418:4464  usdcToUSD18 = 10 ** uint256(18 - usdcDecimals) */\n  0x0120\n  dup2\n  dup2\n  mstore\n  pop\n  pop\n    /* \"core/RWAMintControllerVault.sol\":4492:4507  _maxOracleDelay */\n  dup1\n    /* \"core/RWAMintControllerVault.sol\":4475:4489  maxOracleDelay */\n  0x03\n    /* \"core/RWAMintControllerVault.sol\":4475:4507  maxOracleDelay = _maxOracleDelay */\n  dup2\n  swap1\n  sstore\n  pop\n    /* \"core/RWAMintControllerVault.sol\":3454:4514  constructor(... */\n  pop\n  pop\n  pop\n  pop\n  pop\n  pop\n    /* \"core/RWAMintControllerVault.sol\":1648:17105  contract RWAMintControllerVault is Ownable, ReentrancyGuard {... */\n  jump(tag_52)\n    /* \"@openzeppelin/contracts/access/Ownable.sol\":2912:3099  function _transferOwnership(address newOwner) internal virtual {... */\ntag_12:\n    /* \"@openzeppelin/contracts/access/Ownable.sol\":2985:3001  address oldOwner */\n  0x00\n    /* \"@openzeppelin/contracts/access/Ownable.sol\":3004:3010  _owner */\n  0x00\n  0x00\n  swap1\n  sload\n  swap1\n  0x0100\n  exp\n  swap1\n  div\n  0xffffffffffffffffffffffffffffffffffffffff\n  and\n    /* \"@openzeppelin/contracts/access/Ownable.sol\":2985:3010  address oldOwner = _owner */\n  swap1\n  pop\n    /* \"@openzeppelin/contracts/access/Ownable.sol\":3029:3037  newOwner */\n  dup2\n    /* \"@openzeppelin/contracts/access/Ownable.sol\":3020:3026  _owner */\n  0x00\n  0x00\n    /* \"@openzeppelin/contracts/access/Ownable.sol\":3020:3037  _owner = newOwner */\n  0x0100\n  exp\n  dup2\n  sload\n  dup2\n  0xffffffffffffffffffffffffffffffffffffffff\n  mul\n  not\n  and\n  swap1\n  dup4\n  0xffffffffffffffffffffffffffffffffffffffff\n  and\n  mul\n  or\n  swap1\n  sstore\n  pop\n    /* \"@openzeppelin/contracts/access/Ownable.sol\":3083:3091  newOwner */\n  dup2\n    /* \"@openzeppelin/contracts/access/Ownable.sol\":3052:3092  OwnershipTransferred(oldOwner, newOwner) */\n  0xffffffffffffffffffffffffffffffffffffffff\n  and\n    /* \"@openzeppelin/contracts/access/Ownable.sol\":3073:3081  oldOwner */\n  dup2\n    /* \"@openzeppelin/contracts/access/Ownable.sol\":3052:3092  OwnershipTransferred(oldOwner, newOwner) */\n  0xffffffffffffffffffffffffffffffffffffffff\n  and\n  0x8be0079c531659141344cd1fd0a4f28419497f9722a3daafe3b4186f6b6457e0\n  mload(0x40)\n  mload(0x40)\n  dup1\n  swap2\n  sub\n  swap1\n  log3\n    /* \"@openzeppelin/contracts/access/Ownable.sol\":2975:3099  {... */\n  pop\n    /* \"@openzeppelin/contracts/access/Ownable.sol\":2912:3099  function _transferOwnership(address newOwner) internal virtual {... */\n  pop\n  jump\t// out\n    /* \"@openzeppelin/contracts/utils/ReentrancyGuard.sol\":4636:4763  function _reentrancyGuardStorageSlot() internal pure virtual returns (bytes32) {... */\ntag_16:\n    /* \"@openzeppelin/contracts/utils/ReentrancyGuard.sol\":4706:4713  bytes32 */\n  0x00\n    /* \"@openzeppelin/contracts/utils/ReentrancyGuard.sol\":1505:1571  0x9b779b17422d0df92223018b32b4d1fa46e071723d6817e2486d003becc55f00 */\n  0x9b779b17422d0df92223018b32b4d1fa46e071723d6817e2486d003becc55f00\n    /* \"@openzeppelin/contracts/utils/ReentrancyGuard.sol\":4732:4756  REENTRANCY_GUARD_STORAGE */\n  0x00\n  shl\n    /* \"@openzeppelin/contracts/utils/ReentrancyGuard.sol\":4725:4756  return REENTRANCY_GUARD_STORAGE */\n  swap1\n  pop\n    /* \"@openzeppelin/contracts/utils/ReentrancyGuard.sol\":4636:4763  function _reentrancyGuardStorageSlot() internal pure virtual returns (bytes32) {... */\n  swap1\n  jump\t// out\n    /* \"@openzeppelin/contracts/utils/StorageSlot.sol\":2679:2842  function getUint256Slot(bytes32 slot) internal pure returns (Uint256Slot storage r) {... */\ntag_17:\n    /* \"@openzeppelin/contracts/utils/StorageSlot.sol\":2740:2761  Uint256Slot storage r */\n  0x00\n    /* \"@openzeppelin/contracts/utils/StorageSlot.sol\":2822:2826  slot */\n  dup2\n    /* \"@openzeppelin/contracts/utils/StorageSlot.sol\":2812:2826  r.slot := slot */\n  swap1\n  pop\n    /* \"@openzeppelin/contracts/utils/StorageSlot.sol\":2679:2842  function getUint256Slot(bytes32 slot) internal pure returns (Uint256Slot storage r) {... */\n  swap2\n  swap1\n  pop\n  jump\t// out\n    /* \"#utility.yul\":88:205   */\ntag_57:\n    /* \"#utility.yul\":197:198   */\n  0x00\n    /* \"#utility.yul\":194:195   */\n  0x00\n    /* \"#utility.yul\":187:199   */\n  revert\n    /* \"#utility.yul\":334:460   */\ntag_59:\n    /* \"#utility.yul\":371:378   */\n  0x00\n    /* \"#utility.yul\":411:453   */\n  0xffffffffffffffffffffffffffffffffffffffff\n    /* \"#utility.yul\":404:409   */\n  dup3\n    /* \"#utility.yul\":400:454   */\n  and\n    /* \"#utility.yul\":389:454   */\n  swap1\n  pop\n    /* \"#utility.yul\":334:460   */\n  swap2\n  swap1\n  pop\n  jump\t// out\n    /* \"#utility.yul\":466:562   */\ntag_60:\n    /* \"#utility.yul\":503:510   */\n  0x00\n    /* \"#utility.yul\":532:556   */\n  tag_95\n    /* \"#utility.yul\":550:555   */\n  dup3\n    /* \"#utility.yul\":532:556   */\n  tag_59\n  jump\t// in\ntag_95:\n    /* \"#utility.yul\":521:556   */\n  swap1\n  pop\n    /* \"#utility.yul\":466:562   */\n  swap2\n  swap1\n  pop\n  jump\t// out\n    /* \"#utility.yul\":568:690   */\ntag_61:\n    /* \"#utility.yul\":641:665   */\n  tag_97\n    /* \"#utility.yul\":659:664   */\n  dup2\n    /* \"#utility.yul\":641:665   */\n  tag_60\n  jump\t// in\ntag_97:\n    /* \"#utility.yul\":634:639   */\n  dup2\n    /* \"#utility.yul\":631:666   */\n  eq\n    /* \"#utility.yul\":621:684   */\n  tag_98\n  jumpi\n    /* \"#utility.yul\":680:681   */\n  0x00\n    /* \"#utility.yul\":677:678   */\n  0x00\n    /* \"#utility.yul\":670:682   */\n  revert\n    /* \"#utility.yul\":621:684   */\ntag_98:\n    /* \"#utility.yul\":568:690   */\n  pop\n  jump\t// out\n    /* \"#utility.yul\":696:839   */\ntag_62:\n    /* \"#utility.yul\":753:758   */\n  0x00\n    /* \"#utility.yul\":784:790   */\n  dup2\n    /* \"#utility.yul\":778:791   */\n  mload\n    /* \"#utility.yul\":769:791   */\n  swap1\n  pop\n    /* \"#utility.yul\":800:833   */\n  tag_100\n    /* \"#utility.yul\":827:832   */\n  dup2\n    /* \"#utility.yul\":800:833   */\n  tag_61\n  jump\t// in\ntag_100:\n    /* \"#utility.yul\":696:839   */\n  swap3\n  swap2\n  pop\n  pop\n  jump\t// out\n    /* \"#utility.yul\":845:922   */\ntag_63:\n    /* \"#utility.yul\":882:889   */\n  0x00\n    /* \"#utility.yul\":911:916   */\n  dup2\n    /* \"#utility.yul\":900:916   */\n  swap1\n  pop\n    /* \"#utility.yul\":845:922   */\n  swap2\n  swap1\n  pop\n  jump\t// out\n    /* \"#utility.yul\":928:1050   */\ntag_64:\n    /* \"#utility.yul\":1001:1025   */\n  tag_103\n    /* \"#utility.yul\":1019:1024   */\n  dup2\n    /* \"#utility.yul\":1001:1025   */\n  tag_63\n  jump\t// in\ntag_103:\n    /* \"#utility.yul\":994:999   */\n  dup2\n    /* \"#utility.yul\":991:1026   */\n  eq\n    /* \"#utility.yul\":981:1044   */\n  tag_104\n  jumpi\n    /* \"#utility.yul\":1040:1041   */\n  0x00\n    /* \"#utility.yul\":1037:1038   */\n  0x00\n    /* \"#utility.yul\":1030:1042   */\n  revert\n    /* \"#utility.yul\":981:1044   */\ntag_104:\n    /* \"#utility.yul\":928:1050   */\n  pop\n  jump\t// out\n    /* \"#utility.yul\":1056:1199   */\ntag_65:\n    /* \"#utility.yul\":1113:1118   */\n  0x00\n    /* \"#utility.yul\":1144:1150   */\n  dup2\n    /* \"#utility.yul\":1138:1151   */\n  mload\n    /* \"#utility.yul\":1129:1151   */\n  swap1\n  pop\n    /* \"#utility.yul\":1160:1193   */\n  tag_106\n    /* \"#utility.yul\":1187:1192   */\n  dup2\n    /* \"#utility.yul\":1160:1193   */\n  tag_64\n  jump\t// in\ntag_106:\n    /* \"#utility.yul\":1056:1199   */\n  swap3\n  swap2\n  pop\n  pop\n  jump\t// out\n    /* \"#utility.yul\":1205:2339   */\ntag_3:\n    /* \"#utility.yul\":1320:1326   */\n  0x00\n    /* \"#utility.yul\":1328:1334   */\n  0x00\n    /* \"#utility.yul\":1336:1342   */\n  0x00\n    /* \"#utility.yul\":1344:1350   */\n  0x00\n    /* \"#utility.yul\":1352:1358   */\n  0x00\n    /* \"#utility.yul\":1360:1366   */\n  0x00\n    /* \"#utility.yul\":1409:1412   */\n  0xc0\n    /* \"#utility.yul\":1397:1406   */\n  dup8\n    /* \"#utility.yul\":1388:1395   */\n  dup10\n    /* \"#utility.yul\":1384:1407   */\n  sub\n    /* \"#utility.yul\":1380:1413   */\n  slt\n    /* \"#utility.yul\":1377:1497   */\n  iszero\n  tag_108\n  jumpi\n    /* \"#utility.yul\":1416:1495   */\n  tag_109\n  tag_57\n  jump\t// in\ntag_109:\n    /* \"#utility.yul\":1377:1497   */\ntag_108:\n    /* \"#utility.yul\":1536:1537   */\n  0x00\n    /* \"#utility.yul\":1561:1625   */\n  tag_110\n    /* \"#utility.yul\":1617:1624   */\n  dup10\n    /* \"#utility.yul\":1608:1614   */\n  dup3\n    /* \"#utility.yul\":1597:1606   */\n  dup11\n    /* \"#utility.yul\":1593:1615   */\n  add\n    /* \"#utility.yul\":1561:1625   */\n  tag_62\n  jump\t// in\ntag_110:\n    /* \"#utility.yul\":1551:1625   */\n  swap7\n  pop\n    /* \"#utility.yul\":1507:1635   */\n  pop\n    /* \"#utility.yul\":1674:1676   */\n  0x20\n    /* \"#utility.yul\":1700:1764   */\n  tag_111\n    /* \"#utility.yul\":1756:1763   */\n  dup10\n    /* \"#utility.yul\":1747:1753   */\n  dup3\n    /* \"#utility.yul\":1736:1745   */\n  dup11\n    /* \"#utility.yul\":1732:1754   */\n  add\n    /* \"#utility.yul\":1700:1764   */\n  tag_62\n  jump\t// in\ntag_111:\n    /* \"#utility.yul\":1690:1764   */\n  swap6\n  pop\n    /* \"#utility.yul\":1645:1774   */\n  pop\n    /* \"#utility.yul\":1813:1815   */\n  0x40\n    /* \"#utility.yul\":1839:1903   */\n  tag_112\n    /* \"#utility.yul\":1895:1902   */\n  dup10\n    /* \"#utility.yul\":1886:1892   */\n  dup3\n    /* \"#utility.yul\":1875:1884   */\n  dup11\n    /* \"#utility.yul\":1871:1893   */\n  add\n    /* \"#utility.yul\":1839:1903   */\n  tag_62\n  jump\t// in\ntag_112:\n    /* \"#utility.yul\":1829:1903   */\n  swap5\n  pop\n    /* \"#utility.yul\":1784:1913   */\n  pop\n    /* \"#utility.yul\":1952:1954   */\n  0x60\n    /* \"#utility.yul\":1978:2042   */\n  tag_113\n    /* \"#utility.yul\":2034:2041   */\n  dup10\n    /* \"#utility.yul\":2025:2031   */\n  dup3\n    /* \"#utility.yul\":2014:2023   */\n  dup11\n    /* \"#utility.yul\":2010:2032   */\n  add\n    /* \"#utility.yul\":1978:2042   */\n  tag_62\n  jump\t// in\ntag_113:\n    /* \"#utility.yul\":1968:2042   */\n  swap4\n  pop\n    /* \"#utility.yul\":1923:2052   */\n  pop\n    /* \"#utility.yul\":2091:2094   */\n  0x80\n    /* \"#utility.yul\":2118:2182   */\n  tag_114\n    /* \"#utility.yul\":2174:2181   */\n  dup10\n    /* \"#utility.yul\":2165:2171   */\n  dup3\n    /* \"#utility.yul\":2154:2163   */\n  dup11\n    /* \"#utility.yul\":2150:2172   */\n  add\n    /* \"#utility.yul\":2118:2182   */\n  tag_65\n  jump\t// in\ntag_114:\n    /* \"#utility.yul\":2108:2182   */\n  swap3\n  pop\n    /* \"#utility.yul\":2062:2192   */\n  pop\n    /* \"#utility.yul\":2231:2234   */\n  0xa0\n    /* \"#utility.yul\":2258:2322   */\n  tag_115\n    /* \"#utility.yul\":2314:2321   */\n  dup10\n    /* \"#utility.yul\":2305:2311   */\n  dup3\n    /* \"#utility.yul\":2294:2303   */\n  dup11\n    /* \"#utility.yul\":2290:2312   */\n  add\n    /* \"#utility.yul\":2258:2322   */\n  tag_65\n  jump\t// in\ntag_115:\n    /* \"#utility.yul\":2248:2322   */\n  swap2\n  pop\n    /* \"#utility.yul\":2202:2332   */\n  pop\n    /* \"#utility.yul\":1205:2339   */\n  swap3\n  swap6\n  pop\n  swap3\n  swap6\n  pop\n  swap3\n  swap6\n  jump\t// out\n    /* \"#utility.yul\":2345:2463   */\ntag_66:\n    /* \"#utility.yul\":2432:2456   */\n  tag_117\n    /* \"#utility.yul\":2450:2455   */\n  dup2\n    /* \"#utility.yul\":2432:2456   */\n  tag_60\n  jump\t// in\ntag_117:\n    /* \"#utility.yul\":2427:2430   */\n  dup3\n    /* \"#utility.yul\":2420:2457   */\n  mstore\n    /* \"#utility.yul\":2345:2463   */\n  pop\n  pop\n  jump\t// out\n    /* \"#utility.yul\":2469:2691   */\ntag_10:\n    /* \"#utility.yul\":2562:2566   */\n  0x00\n    /* \"#utility.yul\":2600:2602   */\n  0x20\n    /* \"#utility.yul\":2589:2598   */\n  dup3\n    /* \"#utility.yul\":2585:2603   */\n  add\n    /* \"#utility.yul\":2577:2603   */\n  swap1\n  pop\n    /* \"#utility.yul\":2613:2684   */\n  tag_119\n    /* \"#utility.yul\":2681:2682   */\n  0x00\n    /* \"#utility.yul\":2670:2679   */\n  dup4\n    /* \"#utility.yul\":2666:2683   */\n  add\n    /* \"#utility.yul\":2657:2663   */\n  dup5\n    /* \"#utility.yul\":2613:2684   */\n  tag_66\n  jump\t// in\ntag_119:\n    /* \"#utility.yul\":2469:2691   */\n  swap3\n  swap2\n  pop\n  pop\n  jump\t// out\n    /* \"#utility.yul\":2697:2866   */\ntag_67:\n    /* \"#utility.yul\":2781:2792   */\n  0x00\n    /* \"#utility.yul\":2815:2821   */\n  dup3\n    /* \"#utility.yul\":2810:2813   */\n  dup3\n    /* \"#utility.yul\":2803:2822   */\n  mstore\n    /* \"#utility.yul\":2855:2859   */\n  0x20\n    /* \"#utility.yul\":2850:2853   */\n  dup3\n    /* \"#utility.yul\":2846:2860   */\n  add\n    /* \"#utility.yul\":2831:2860   */\n  swap1\n  pop\n    /* \"#utility.yul\":2697:2866   */\n  swap3\n  swap2\n  pop\n  pop\n  jump\t// out\n    /* \"#utility.yul\":2872:3032   */\ntag_68:\n    /* \"#utility.yul\":3012:3024   */\n  0x626164206f7261636c6500000000000000000000000000000000000000000000\n    /* \"#utility.yul\":3008:3009   */\n  0x00\n    /* \"#utility.yul\":3000:3006   */\n  dup3\n    /* \"#utility.yul\":2996:3010   */\n  add\n    /* \"#utility.yul\":2989:3025   */\n  mstore\n    /* \"#utility.yul\":2872:3032   */\n  pop\n  jump\t// out\n    /* \"#utility.yul\":3038:3404   */\ntag_69:\n    /* \"#utility.yul\":3180:3183   */\n  0x00\n    /* \"#utility.yul\":3201:3268   */\n  tag_123\n    /* \"#utility.yul\":3265:3267   */\n  0x0a\n    /* \"#utility.yul\":3260:3263   */\n  dup4\n    /* \"#utility.yul\":3201:3268   */\n  tag_67\n  jump\t// in\ntag_123:\n    /* \"#utility.yul\":3194:3268   */\n  swap2\n  pop\n    /* \"#utility.yul\":3277:3370   */\n  tag_124\n    /* \"#utility.yul\":3366:3369   */\n  dup3\n    /* \"#utility.yul\":3277:3370   */\n  tag_68\n  jump\t// in\ntag_124:\n    /* \"#utility.yul\":3395:3397   */\n  0x20\n    /* \"#utility.yul\":3390:3393   */\n  dup3\n    /* \"#utility.yul\":3386:3398   */\n  add\n    /* \"#utility.yul\":3379:3398   */\n  swap1\n  pop\n    /* \"#utility.yul\":3038:3404   */\n  swap2\n  swap1\n  pop\n  jump\t// out\n    /* \"#utility.yul\":3410:3829   */\ntag_21:\n    /* \"#utility.yul\":3576:3580   */\n  0x00\n    /* \"#utility.yul\":3614:3616   */\n  0x20\n    /* \"#utility.yul\":3603:3612   */\n  dup3\n    /* \"#utility.yul\":3599:3617   */\n  add\n    /* \"#utility.yul\":3591:3617   */\n  swap1\n  pop\n    /* \"#utility.yul\":3663:3672   */\n  dup2\n    /* \"#utility.yul\":3657:3661   */\n  dup2\n    /* \"#utility.yul\":3653:3673   */\n  sub\n    /* \"#utility.yul\":3649:3650   */\n  0x00\n    /* \"#utility.yul\":3638:3647   */\n  dup4\n    /* \"#utility.yul\":3634:3651   */\n  add\n    /* \"#utility.yul\":3627:3674   */\n  mstore\n    /* \"#utility.yul\":3691:3822   */\n  tag_126\n    /* \"#utility.yul\":3817:3821   */\n  dup2\n    /* \"#utility.yul\":3691:3822   */\n  tag_69\n  jump\t// in\ntag_126:\n    /* \"#utility.yul\":3683:3822   */\n  swap1\n  pop\n    /* \"#utility.yul\":3410:3829   */\n  swap2\n  swap1\n  pop\n  jump\t// out\n    /* \"#utility.yul\":3835:3993   */\ntag_70:\n    /* \"#utility.yul\":3975:3985   */\n  0x6261642075736463000000000000000000000000000000000000000000000000\n    /* \"#utility.yul\":3971:3972   */\n  0x00\n    /* \"#utility.yul\":3963:3969   */\n  dup3\n    /* \"#utility.yul\":3959:3973   */\n  add\n    /* \"#utility.yul\":3952:3986   */\n  mstore\n    /* \"#utility.yul\":3835:3993   */\n  pop\n  jump\t// out\n    /* \"#utility.yul\":3999:4364   */\ntag_71:\n    /* \"#utility.yul\":4141:4144   */\n  0x00\n    /* \"#utility.yul\":4162:4228   */\n  tag_129\n    /* \"#utility.yul\":4226:4227   */\n  0x08\n    /* \"#utility.yul\":4221:4224   */\n  dup4\n    /* \"#utility.yul\":4162:4228   */\n  tag_67\n  jump\t// in\ntag_129:\n    /* \"#utility.yul\":4155:4228   */\n  swap2\n  pop\n    /* \"#utility.yul\":4237:4330   */\n  tag_130\n    /* \"#utility.yul\":4326:4329   */\n  dup3\n    /* \"#utility.yul\":4237:4330   */\n  tag_70\n  jump\t// in\ntag_130:\n    /* \"#utility.yul\":4355:4357   */\n  0x20\n    /* \"#utility.yul\":4350:4353   */\n  dup3\n    /* \"#utility.yul\":4346:4358   */\n  add\n    /* \"#utility.yul\":4339:4358   */\n  swap1\n  pop\n    /* \"#utility.yul\":3999:4364   */\n  swap2\n  swap1\n  pop\n  jump\t// out\n    /* \"#utility.yul\":4370:4789   */\ntag_24:\n    /* \"#utility.yul\":4536:4540   */\n  0x00\n    /* \"#utility.yul\":4574:4576   */\n  0x20\n    /* \"#utility.yul\":4563:4572   */\n  dup3\n    /* \"#utility.yul\":4559:4577   */\n  add\n    /* \"#utility.yul\":4551:4577   */\n  swap1\n  pop\n    /* \"#utility.yul\":4623:4632   */\n  dup2\n    /* \"#utility.yul\":4617:4621   */\n  dup2\n    /* \"#utility.yul\":4613:4633   */\n  sub\n    /* \"#utility.yul\":4609:4610   */\n  0x00\n    /* \"#utility.yul\":4598:4607   */\n  dup4\n    /* \"#utility.yul\":4594:4611   */\n  add\n    /* \"#utility.yul\":4587:4634   */\n  mstore\n    /* \"#utility.yul\":4651:4782   */\n  tag_132\n    /* \"#utility.yul\":4777:4781   */\n  dup2\n    /* \"#utility.yul\":4651:4782   */\n  tag_71\n  jump\t// in\ntag_132:\n    /* \"#utility.yul\":4643:4782   */\n  swap1\n  pop\n    /* \"#utility.yul\":4370:4789   */\n  swap2\n  swap1\n  pop\n  jump\t// out\n    /* \"#utility.yul\":4795:4958   */\ntag_72:\n    /* \"#utility.yul\":4935:4950   */\n  0x6261642072776120746f6b656e00000000000000000000000000000000000000\n    /* \"#utility.yul\":4931:4932   */\n  0x00\n    /* \"#utility.yul\":4923:4929   */\n  dup3\n    /* \"#utility.yul\":4919:4933   */\n  add\n    /* \"#utility.yul\":4912:4951   */\n  mstore\n    /* \"#utility.yul\":4795:4958   */\n  pop\n  jump\t// out\n    /* \"#utility.yul\":4964:5330   */\ntag_73:\n    /* \"#utility.yul\":5106:5109   */\n  0x00\n    /* \"#utility.yul\":5127:5194   */\n  tag_135\n    /* \"#utility.yul\":5191:5193   */\n  0x0d\n    /* \"#utility.yul\":5186:5189   */\n  dup4\n    /* \"#utility.yul\":5127:5194   */\n  tag_67\n  jump\t// in\ntag_135:\n    /* \"#utility.yul\":5120:5194   */\n  swap2\n  pop\n    /* \"#utility.yul\":5203:5296   */\n  tag_136\n    /* \"#utility.yul\":5292:5295   */\n  dup3\n    /* \"#utility.yul\":5203:5296   */\n  tag_72\n  jump\t// in\ntag_136:\n    /* \"#utility.yul\":5321:5323   */\n  0x20\n    /* \"#utility.yul\":5316:5319   */\n  dup3\n    /* \"#utility.yul\":5312:5324   */\n  add\n    /* \"#utility.yul\":5305:5324   */\n  swap1\n  pop\n    /* \"#utility.yul\":4964:5330   */\n  swap2\n  swap1\n  pop\n  jump\t// out\n    /* \"#utility.yul\":5336:5755   */\ntag_27:\n    /* \"#utility.yul\":5502:5506   */\n  0x00\n    /* \"#utility.yul\":5540:5542   */\n  0x20\n    /* \"#utility.yul\":5529:5538   */\n  dup3\n    /* \"#utility.yul\":5525:5543   */\n  add\n    /* \"#utility.yul\":5517:5543   */\n  swap1\n  pop\n    /* \"#utility.yul\":5589:5598   */\n  dup2\n    /* \"#utility.yul\":5583:5587   */\n  dup2\n    /* \"#utility.yul\":5579:5599   */\n  sub\n    /* \"#utility.yul\":5575:5576   */\n  0x00\n    /* \"#utility.yul\":5564:5573   */\n  dup4\n    /* \"#utility.yul\":5560:5577   */\n  add\n    /* \"#utility.yul\":5553:5600   */\n  mstore\n    /* \"#utility.yul\":5617:5748   */\n  tag_138\n    /* \"#utility.yul\":5743:5747   */\n  dup2\n    /* \"#utility.yul\":5617:5748   */\n  tag_73\n  jump\t// in\ntag_138:\n    /* \"#utility.yul\":5609:5748   */\n  swap1\n  pop\n    /* \"#utility.yul\":5336:5755   */\n  swap2\n  swap1\n  pop\n  jump\t// out\n    /* \"#utility.yul\":5761:5921   */\ntag_74:\n    /* \"#utility.yul\":5901:5913   */\n  0x6261642069737375657200000000000000000000000000000000000000000000\n    /* \"#utility.yul\":5897:5898   */\n  0x00\n    /* \"#utility.yul\":5889:5895   */\n  dup3\n    /* \"#utility.yul\":5885:5899   */\n  add\n    /* \"#utility.yul\":5878:5914   */\n  mstore\n    /* \"#utility.yul\":5761:5921   */\n  pop\n  jump\t// out\n    /* \"#utility.yul\":5927:6293   */\ntag_75:\n    /* \"#utility.yul\":6069:6072   */\n  0x00\n    /* \"#utility.yul\":6090:6157   */\n  tag_141\n    /* \"#utility.yul\":6154:6156   */\n  0x0a\n    /* \"#utility.yul\":6149:6152   */\n  dup4\n    /* \"#utility.yul\":6090:6157   */\n  tag_67\n  jump\t// in\ntag_141:\n    /* \"#utility.yul\":6083:6157   */\n  swap2\n  pop\n    /* \"#utility.yul\":6166:6259   */\n  tag_142\n    /* \"#utility.yul\":6255:6258   */\n  dup3\n    /* \"#utility.yul\":6166:6259   */\n  tag_74\n  jump\t// in\ntag_142:\n    /* \"#utility.yul\":6284:6286   */\n  0x20\n    /* \"#utility.yul\":6279:6282   */\n  dup3\n    /* \"#utility.yul\":6275:6287   */\n  add\n    /* \"#utility.yul\":6268:6287   */\n  swap1\n  pop\n    /* \"#utility.yul\":5927:6293   */\n  swap2\n  swap1\n  pop\n  jump\t// out\n    /* \"#utility.yul\":6299:6718   */\ntag_30:\n    /* \"#utility.yul\":6465:6469   */\n  0x00\n    /* \"#utility.yul\":6503:6505   */\n  0x20\n    /* \"#utility.yul\":6492:6501   */\n  dup3\n    /* \"#utility.yul\":6488:6506   */\n  add\n    /* \"#utility.yul\":6480:6506   */\n  swap1\n  pop\n    /* \"#utility.yul\":6552:6561   */\n  dup2\n    /* \"#utility.yul\":6546:6550   */\n  dup2\n    /* \"#utility.yul\":6542:6562   */\n  sub\n    /* \"#utility.yul\":6538:6539   */\n  0x00\n    /* \"#utility.yul\":6527:6536   */\n  dup4\n    /* \"#utility.yul\":6523:6540   */\n  add\n    /* \"#utility.yul\":6516:6563   */\n  mstore\n    /* \"#utility.yul\":6580:6711   */\n  tag_144\n    /* \"#utility.yul\":6706:6710   */\n  dup2\n    /* \"#utility.yul\":6580:6711   */\n  tag_75\n  jump\t// in\ntag_144:\n    /* \"#utility.yul\":6572:6711   */\n  swap1\n  pop\n    /* \"#utility.yul\":6299:6718   */\n  swap2\n  swap1\n  pop\n  jump\t// out\n    /* \"#utility.yul\":6724:6889   */\ntag_76:\n    /* \"#utility.yul\":6864:6881   */\n  0x62616420696e697469616c204e41560000000000000000000000000000000000\n    /* \"#utility.yul\":6860:6861   */\n  0x00\n    /* \"#utility.yul\":6852:6858   */\n  dup3\n    /* \"#utility.yul\":6848:6862   */\n  add\n    /* \"#utility.yul\":6841:6882   */\n  mstore\n    /* \"#utility.yul\":6724:6889   */\n  pop\n  jump\t// out\n    /* \"#utility.yul\":6895:7261   */\ntag_77:\n    /* \"#utility.yul\":7037:7040   */\n  0x00\n    /* \"#utility.yul\":7058:7125   */\n  tag_147\n    /* \"#utility.yul\":7122:7124   */\n  0x0f\n    /* \"#utility.yul\":7117:7120   */\n  dup4\n    /* \"#utility.yul\":7058:7125   */\n  tag_67\n  jump\t// in\ntag_147:\n    /* \"#utility.yul\":7051:7125   */\n  swap2\n  pop\n    /* \"#utility.yul\":7134:7227   */\n  tag_148\n    /* \"#utility.yul\":7223:7226   */\n  dup3\n    /* \"#utility.yul\":7134:7227   */\n  tag_76\n  jump\t// in\ntag_148:\n    /* \"#utility.yul\":7252:7254   */\n  0x20\n    /* \"#utility.yul\":7247:7250   */\n  dup3\n    /* \"#utility.yul\":7243:7255   */\n  add\n    /* \"#utility.yul\":7236:7255   */\n  swap1\n  pop\n    /* \"#utility.yul\":6895:7261   */\n  swap2\n  swap1\n  pop\n  jump\t// out\n    /* \"#utility.yul\":7267:7686   */\ntag_33:\n    /* \"#utility.yul\":7433:7437   */\n  0x00\n    /* \"#utility.yul\":7471:7473   */\n  0x20\n    /* \"#utility.yul\":7460:7469   */\n  dup3\n    /* \"#utility.yul\":7456:7474   */\n  add\n    /* \"#utility.yul\":7448:7474   */\n  swap1\n  pop\n    /* \"#utility.yul\":7520:7529   */\n  dup2\n    /* \"#utility.yul\":7514:7518   */\n  dup2\n    /* \"#utility.yul\":7510:7530   */\n  sub\n    /* \"#utility.yul\":7506:7507   */\n  0x00\n    /* \"#utility.yul\":7495:7504   */\n  dup4\n    /* \"#utility.yul\":7491:7508   */\n  add\n    /* \"#utility.yul\":7484:7531   */\n  mstore\n    /* \"#utility.yul\":7548:7679   */\n  tag_150\n    /* \"#utility.yul\":7674:7678   */\n  dup2\n    /* \"#utility.yul\":7548:7679   */\n  tag_77\n  jump\t// in\ntag_150:\n    /* \"#utility.yul\":7540:7679   */\n  swap1\n  pop\n    /* \"#utility.yul\":7267:7686   */\n  swap2\n  swap1\n  pop\n  jump\t// out\n    /* \"#utility.yul\":7692:7778   */\ntag_78:\n    /* \"#utility.yul\":7727:7734   */\n  0x00\n    /* \"#utility.yul\":7767:7771   */\n  0xff\n    /* \"#utility.yul\":7760:7765   */\n  dup3\n    /* \"#utility.yul\":7756:7772   */\n  and\n    /* \"#utility.yul\":7745:7772   */\n  swap1\n  pop\n    /* \"#utility.yul\":7692:7778   */\n  swap2\n  swap1\n  pop\n  jump\t// out\n    /* \"#utility.yul\":7784:7902   */\ntag_79:\n    /* \"#utility.yul\":7855:7877   */\n  tag_153\n    /* \"#utility.yul\":7871:7876   */\n  dup2\n    /* \"#utility.yul\":7855:7877   */\n  tag_78\n  jump\t// in\ntag_153:\n    /* \"#utility.yul\":7848:7853   */\n  dup2\n    /* \"#utility.yul\":7845:7878   */\n  eq\n    /* \"#utility.yul\":7835:7896   */\n  tag_154\n  jumpi\n    /* \"#utility.yul\":7892:7893   */\n  0x00\n    /* \"#utility.yul\":7889:7890   */\n  0x00\n    /* \"#utility.yul\":7882:7894   */\n  revert\n    /* \"#utility.yul\":7835:7896   */\ntag_154:\n    /* \"#utility.yul\":7784:7902   */\n  pop\n  jump\t// out\n    /* \"#utility.yul\":7908:8047   */\ntag_80:\n    /* \"#utility.yul\":7963:7968   */\n  0x00\n    /* \"#utility.yul\":7994:8000   */\n  dup2\n    /* \"#utility.yul\":7988:8001   */\n  mload\n    /* \"#utility.yul\":7979:8001   */\n  swap1\n  pop\n    /* \"#utility.yul\":8010:8041   */\n  tag_156\n    /* \"#utility.yul\":8035:8040   */\n  dup2\n    /* \"#utility.yul\":8010:8041   */\n  tag_79\n  jump\t// in\ntag_156:\n    /* \"#utility.yul\":7908:8047   */\n  swap3\n  swap2\n  pop\n  pop\n  jump\t// out\n    /* \"#utility.yul\":8053:8400   */\ntag_37:\n    /* \"#utility.yul\":8121:8127   */\n  0x00\n    /* \"#utility.yul\":8170:8172   */\n  0x20\n    /* \"#utility.yul\":8158:8167   */\n  dup3\n    /* \"#utility.yul\":8149:8156   */\n  dup5\n    /* \"#utility.yul\":8145:8168   */\n  sub\n    /* \"#utility.yul\":8141:8173   */\n  slt\n    /* \"#utility.yul\":8138:8257   */\n  iszero\n  tag_158\n  jumpi\n    /* \"#utility.yul\":8176:8255   */\n  tag_159\n  tag_57\n  jump\t// in\ntag_159:\n    /* \"#utility.yul\":8138:8257   */\ntag_158:\n    /* \"#utility.yul\":8296:8297   */\n  0x00\n    /* \"#utility.yul\":8321:8383   */\n  tag_160\n    /* \"#utility.yul\":8375:8382   */\n  dup5\n    /* \"#utility.yul\":8366:8372   */\n  dup3\n    /* \"#utility.yul\":8355:8364   */\n  dup6\n    /* \"#utility.yul\":8351:8373   */\n  add\n    /* \"#utility.yul\":8321:8383   */\n  tag_80\n  jump\t// in\ntag_160:\n    /* \"#utility.yul\":8311:8383   */\n  swap2\n  pop\n    /* \"#utility.yul\":8267:8393   */\n  pop\n    /* \"#utility.yul\":8053:8400   */\n  swap3\n  swap2\n  pop\n  pop\n  jump\t// out\n    /* \"#utility.yul\":8406:8578   */\ntag_81:\n    /* \"#utility.yul\":8546:8570   */\n  0x5553444320646563696d616c7320746f6f206869676800000000000000000000\n    /* \"#utility.yul\":8542:8543   */\n  0x00\n    /* \"#utility.yul\":8534:8540   */\n  dup3\n    /* \"#utility.yul\":8530:8544   */\n  add\n    /* \"#utility.yul\":8523:8571   */\n  mstore\n    /* \"#utility.yul\":8406:8578   */\n  pop\n  jump\t// out\n    /* \"#utility.yul\":8584:8950   */\ntag_82:\n    /* \"#utility.yul\":8726:8729   */\n  0x00\n    /* \"#utility.yul\":8747:8814   */\n  tag_163\n    /* \"#utility.yul\":8811:8813   */\n  0x16\n    /* \"#utility.yul\":8806:8809   */\n  dup4\n    /* \"#utility.yul\":8747:8814   */\n  tag_67\n  jump\t// in\ntag_163:\n    /* \"#utility.yul\":8740:8814   */\n  swap2\n  pop\n    /* \"#utility.yul\":8823:8916   */\n  tag_164\n    /* \"#utility.yul\":8912:8915   */\n  dup3\n    /* \"#utility.yul\":8823:8916   */\n  tag_81\n  jump\t// in\ntag_164:\n    /* \"#utility.yul\":8941:8943   */\n  0x20\n    /* \"#utility.yul\":8936:8939   */\n  dup3\n    /* \"#utility.yul\":8932:8944   */\n  add\n    /* \"#utility.yul\":8925:8944   */\n  swap1\n  pop\n    /* \"#utility.yul\":8584:8950   */\n  swap2\n  swap1\n  pop\n  jump\t// out\n    /* \"#utility.yul\":8956:9375   */\ntag_43:\n    /* \"#utility.yul\":9122:9126   */\n  0x00\n    /* \"#utility.yul\":9160:9162   */\n  0x20\n    /* \"#utility.yul\":9149:9158   */\n  dup3\n    /* \"#utility.yul\":9145:9163   */\n  add\n    /* \"#utility.yul\":9137:9163   */\n  swap1\n  pop\n    /* \"#utility.yul\":9209:9218   */\n  dup2\n    /* \"#utility.yul\":9203:9207   */\n  dup2\n    /* \"#utility.yul\":9199:9219   */\n  sub\n    /* \"#utility.yul\":9195:9196   */\n  0x00\n    /* \"#utility.yul\":9184:9193   */\n  dup4\n    /* \"#utility.yul\":9180:9197   */\n  add\n    /* \"#utility.yul\":9173:9220   */\n  mstore\n    /* \"#utility.yul\":9237:9368   */\n  tag_166\n    /* \"#utility.yul\":9363:9367   */\n  dup2\n    /* \"#utility.yul\":9237:9368   */\n  tag_82\n  jump\t// in\ntag_166:\n    /* \"#utility.yul\":9229:9368   */\n  swap1\n  pop\n    /* \"#utility.yul\":8956:9375   */\n  swap2\n  swap1\n  pop\n  jump\t// out\n    /* \"#utility.yul\":9381:9552   */\ntag_83:\n    /* \"#utility.yul\":9521:9544   */\n  0x52574120646563696d616c7320746f6f20686967680000000000000000000000\n    /* \"#utility.yul\":9517:9518   */\n  0x00\n    /* \"#utility.yul\":9509:9515   */\n  dup3\n    /* \"#utility.yul\":9505:9519   */\n  add\n    /* \"#utility.yul\":9498:9545   */\n  mstore\n    /* \"#utility.yul\":9381:9552   */\n  pop\n  jump\t// out\n    /* \"#utility.yul\":9558:9924   */\ntag_84:\n    /* \"#utility.yul\":9700:9703   */\n  0x00\n    /* \"#utility.yul\":9721:9788   */\n  tag_169\n    /* \"#utility.yul\":9785:9787   */\n  0x15\n    /* \"#utility.yul\":9780:9783   */\n  dup4\n    /* \"#utility.yul\":9721:9788   */\n  tag_67\n  jump\t// in\ntag_169:\n    /* \"#utility.yul\":9714:9788   */\n  swap2\n  pop\n    /* \"#utility.yul\":9797:9890   */\n  tag_170\n    /* \"#utility.yul\":9886:9889   */\n  dup3\n    /* \"#utility.yul\":9797:9890   */\n  tag_83\n  jump\t// in\ntag_170:\n    /* \"#utility.yul\":9915:9917   */\n  0x20\n    /* \"#utility.yul\":9910:9913   */\n  dup3\n    /* \"#utility.yul\":9906:9918   */\n  add\n    /* \"#utility.yul\":9899:9918   */\n  swap1\n  pop\n    /* \"#utility.yul\":9558:9924   */\n  swap2\n  swap1\n  pop\n  jump\t// out\n    /* \"#utility.yul\":9930:10349   */\ntag_46:\n    /* \"#utility.yul\":10096:10100   */\n  0x00\n    /* \"#utility.yul\":10134:10136   */\n  0x20\n    /* \"#utility.yul\":10123:10132   */\n  dup3\n    /* \"#utility.yul\":10119:10137   */\n  add\n    /* \"#utility.yul\":10111:10137   */\n  swap1\n  pop\n    /* \"#utility.yul\":10183:10192   */\n  dup2\n    /* \"#utility.yul\":10177:10181   */\n  dup2\n    /* \"#utility.yul\":10173:10193   */\n  sub\n    /* \"#utility.yul\":10169:10170   */\n  0x00\n    /* \"#utility.yul\":10158:10167   */\n  dup4\n    /* \"#utility.yul\":10154:10171   */\n  add\n    /* \"#utility.yul\":10147:10194   */\n  mstore\n    /* \"#utility.yul\":10211:10342   */\n  tag_172\n    /* \"#utility.yul\":10337:10341   */\n  dup2\n    /* \"#utility.yul\":10211:10342   */\n  tag_84\n  jump\t// in\ntag_172:\n    /* \"#utility.yul\":10203:10342   */\n  swap1\n  pop\n    /* \"#utility.yul\":9930:10349   */\n  swap2\n  swap1\n  pop\n  jump\t// out\n    /* \"#utility.yul\":10355:10535   */\ntag_85:\n    /* \"#utility.yul\":10403:10480   */\n  0x4e487b7100000000000000000000000000000000000000000000000000000000\n    /* \"#utility.yul\":10400:10401   */\n  0x00\n    /* \"#utility.yul\":10393:10481   */\n  mstore\n    /* \"#utility.yul\":10500:10504   */\n  0x11\n    /* \"#utility.yul\":10497:10498   */\n  0x04\n    /* \"#utility.yul\":10490:10505   */\n  mstore\n    /* \"#utility.yul\":10524:10528   */\n  0x24\n    /* \"#utility.yul\":10521:10522   */\n  0x00\n    /* \"#utility.yul\":10514:10529   */\n  revert\n    /* \"#utility.yul\":10541:10643   */\ntag_86:\n    /* \"#utility.yul\":10583:10591   */\n  0x00\n    /* \"#utility.yul\":10630:10635   */\n  dup2\n    /* \"#utility.yul\":10627:10628   */\n  0x01\n    /* \"#utility.yul\":10623:10636   */\n  shr\n    /* \"#utility.yul\":10602:10636   */\n  swap1\n  pop\n    /* \"#utility.yul\":10541:10643   */\n  swap2\n  swap1\n  pop\n  jump\t// out\n    /* \"#utility.yul\":10649:11497   */\ntag_87:\n    /* \"#utility.yul\":10710:10715   */\n  0x00\n    /* \"#utility.yul\":10717:10721   */\n  0x00\n    /* \"#utility.yul\":10741:10747   */\n  dup3\n    /* \"#utility.yul\":10732:10747   */\n  swap2\n  pop\n    /* \"#utility.yul\":10765:10770   */\n  dup4\n    /* \"#utility.yul\":10756:10770   */\n  swap1\n  pop\n    /* \"#utility.yul\":10779:11491   */\ntag_176:\n    /* \"#utility.yul\":10800:10801   */\n  0x01\n    /* \"#utility.yul\":10790:10798   */\n  dup6\n    /* \"#utility.yul\":10787:10802   */\n  gt\n    /* \"#utility.yul\":10779:11491   */\n  iszero\n  tag_178\n  jumpi\n    /* \"#utility.yul\":10895:10899   */\n  dup1\n    /* \"#utility.yul\":10890:10893   */\n  dup7\n    /* \"#utility.yul\":10886:10900   */\n  div\n    /* \"#utility.yul\":10880:10884   */\n  dup2\n    /* \"#utility.yul\":10877:10901   */\n  gt\n    /* \"#utility.yul\":10874:10924   */\n  iszero\n  tag_179\n  jumpi\n    /* \"#utility.yul\":10904:10922   */\n  tag_180\n  tag_85\n  jump\t// in\ntag_180:\n    /* \"#utility.yul\":10874:10924   */\ntag_179:\n    /* \"#utility.yul\":10954:10955   */\n  0x01\n    /* \"#utility.yul\":10944:10952   */\n  dup6\n    /* \"#utility.yul\":10940:10956   */\n  and\n    /* \"#utility.yul\":10937:11388   */\n  iszero\n  tag_181\n  jumpi\n    /* \"#utility.yul\":11369:11373   */\n  dup1\n    /* \"#utility.yul\":11362:11367   */\n  dup3\n    /* \"#utility.yul\":11358:11374   */\n  mul\n    /* \"#utility.yul\":11349:11374   */\n  swap2\n  pop\n    /* \"#utility.yul\":10937:11388   */\ntag_181:\n    /* \"#utility.yul\":11419:11423   */\n  dup1\n    /* \"#utility.yul\":11413:11417   */\n  dup2\n    /* \"#utility.yul\":11409:11424   */\n  mul\n    /* \"#utility.yul\":11401:11424   */\n  swap1\n  pop\n    /* \"#utility.yul\":11449:11481   */\n  tag_182\n    /* \"#utility.yul\":11472:11480   */\n  dup6\n    /* \"#utility.yul\":11449:11481   */\n  tag_86\n  jump\t// in\ntag_182:\n    /* \"#utility.yul\":11437:11481   */\n  swap5\n  pop\n    /* \"#utility.yul\":10779:11491   */\n  jump(tag_176)\ntag_178:\n    /* \"#utility.yul\":10649:11497   */\n  swap5\n  pop\n  swap5\n  swap3\n  pop\n  pop\n  pop\n  jump\t// out\n    /* \"#utility.yul\":11503:12576   */\ntag_88:\n    /* \"#utility.yul\":11557:11562   */\n  0x00\n    /* \"#utility.yul\":11748:11756   */\n  dup3\n    /* \"#utility.yul\":11738:11778   */\n  tag_184\n  jumpi\n    /* \"#utility.yul\":11769:11770   */\n  0x01\n    /* \"#utility.yul\":11760:11770   */\n  swap1\n  pop\n    /* \"#utility.yul\":11771:11776   */\n  jump(tag_183)\n    /* \"#utility.yul\":11738:11778   */\ntag_184:\n    /* \"#utility.yul\":11797:11801   */\n  dup2\n    /* \"#utility.yul\":11787:11823   */\n  tag_185\n  jumpi\n    /* \"#utility.yul\":11814:11815   */\n  0x00\n    /* \"#utility.yul\":11805:11815   */\n  swap1\n  pop\n    /* \"#utility.yul\":11816:11821   */\n  jump(tag_183)\n    /* \"#utility.yul\":11787:11823   */\ntag_185:\n    /* \"#utility.yul\":11883:11887   */\n  dup2\n    /* \"#utility.yul\":11931:11932   */\n  0x01\n    /* \"#utility.yul\":11926:11953   */\n  dup2\n  eq\n  tag_187\n  jumpi\n    /* \"#utility.yul\":11967:11968   */\n  0x02\n    /* \"#utility.yul\":11962:12153   */\n  dup2\n  eq\n  tag_188\n  jumpi\n    /* \"#utility.yul\":11876:12153   */\n  jump(tag_186)\n    /* \"#utility.yul\":11926:11953   */\ntag_187:\n    /* \"#utility.yul\":11944:11945   */\n  0x01\n    /* \"#utility.yul\":11935:11945   */\n  swap2\n  pop\n    /* \"#utility.yul\":11946:11951   */\n  pop\n  jump(tag_183)\n    /* \"#utility.yul\":11962:12153   */\ntag_188:\n    /* \"#utility.yul\":12007:12010   */\n  0xff\n    /* \"#utility.yul\":11997:12005   */\n  dup5\n    /* \"#utility.yul\":11994:12011   */\n  gt\n    /* \"#utility.yul\":11991:12034   */\n  iszero\n  tag_189\n  jumpi\n    /* \"#utility.yul\":12014:12032   */\n  tag_190\n  tag_85\n  jump\t// in\ntag_190:\n    /* \"#utility.yul\":11991:12034   */\ntag_189:\n    /* \"#utility.yul\":12063:12071   */\n  dup4\n    /* \"#utility.yul\":12060:12061   */\n  0x02\n    /* \"#utility.yul\":12056:12072   */\n  exp\n    /* \"#utility.yul\":12047:12072   */\n  swap2\n  pop\n    /* \"#utility.yul\":12098:12101   */\n  dup5\n    /* \"#utility.yul\":12091:12096   */\n  dup3\n    /* \"#utility.yul\":12088:12102   */\n  gt\n    /* \"#utility.yul\":12085:12125   */\n  iszero\n  tag_191\n  jumpi\n    /* \"#utility.yul\":12105:12123   */\n  tag_192\n  tag_85\n  jump\t// in\ntag_192:\n    /* \"#utility.yul\":12085:12125   */\ntag_191:\n    /* \"#utility.yul\":12138:12143   */\n  pop\n  jump(tag_183)\n    /* \"#utility.yul\":11876:12153   */\ntag_186:\n  pop\n    /* \"#utility.yul\":12262:12264   */\n  0x20\n    /* \"#utility.yul\":12252:12260   */\n  dup4\n    /* \"#utility.yul\":12249:12265   */\n  lt\n    /* \"#utility.yul\":12243:12246   */\n  0x0133\n    /* \"#utility.yul\":12237:12241   */\n  dup4\n    /* \"#utility.yul\":12234:12247   */\n  lt\n    /* \"#utility.yul\":12230:12266   */\n  and\n    /* \"#utility.yul\":12212:12214   */\n  0x4e\n    /* \"#utility.yul\":12202:12210   */\n  dup5\n    /* \"#utility.yul\":12199:12215   */\n  lt\n    /* \"#utility.yul\":12194:12196   */\n  0x0b\n    /* \"#utility.yul\":12188:12192   */\n  dup5\n    /* \"#utility.yul\":12185:12197   */\n  lt\n    /* \"#utility.yul\":12181:12216   */\n  and\n    /* \"#utility.yul\":12165:12276   */\n  or\n    /* \"#utility.yul\":12162:12408   */\n  iszero\n  tag_193\n  jumpi\n    /* \"#utility.yul\":12318:12326   */\n  dup3\n    /* \"#utility.yul\":12312:12316   */\n  dup3\n    /* \"#utility.yul\":12308:12327   */\n  exp\n    /* \"#utility.yul\":12299:12327   */\n  swap1\n  pop\n    /* \"#utility.yul\":12353:12356   */\n  dup4\n    /* \"#utility.yul\":12346:12351   */\n  dup2\n    /* \"#utility.yul\":12343:12357   */\n  gt\n    /* \"#utility.yul\":12340:12380   */\n  iszero\n  tag_194\n  jumpi\n    /* \"#utility.yul\":12360:12378   */\n  tag_195\n  tag_85\n  jump\t// in\ntag_195:\n    /* \"#utility.yul\":12340:12380   */\ntag_194:\n    /* \"#utility.yul\":12393:12398   */\n  jump(tag_183)\n    /* \"#utility.yul\":12162:12408   */\ntag_193:\n    /* \"#utility.yul\":12433:12475   */\n  tag_196\n    /* \"#utility.yul\":12471:12474   */\n  dup5\n    /* \"#utility.yul\":12461:12469   */\n  dup5\n    /* \"#utility.yul\":12455:12459   */\n  dup5\n    /* \"#utility.yul\":12452:12453   */\n  0x01\n    /* \"#utility.yul\":12433:12475   */\n  tag_87\n  jump\t// in\ntag_196:\n    /* \"#utility.yul\":12418:12475   */\n  swap3\n  pop\n  swap1\n  pop\n    /* \"#utility.yul\":12507:12511   */\n  dup2\n    /* \"#utility.yul\":12502:12505   */\n  dup5\n    /* \"#utility.yul\":12498:12512   */\n  div\n    /* \"#utility.yul\":12491:12496   */\n  dup2\n    /* \"#utility.yul\":12488:12513   */\n  gt\n    /* \"#utility.yul\":12485:12536   */\n  iszero\n  tag_197\n  jumpi\n    /* \"#utility.yul\":12516:12534   */\n  tag_198\n  tag_85\n  jump\t// in\ntag_198:\n    /* \"#utility.yul\":12485:12536   */\ntag_197:\n    /* \"#utility.yul\":12565:12569   */\n  dup2\n    /* \"#utility.yul\":12558:12563   */\n  dup2\n    /* \"#utility.yul\":12554:12570   */\n  mul\n    /* \"#utility.yul\":12545:12570   */\n  swap1\n  pop\n    /* \"#utility.yul\":11503:12576   */\ntag_183:\n  swap4\n  swap3\n  pop\n  pop\n  pop\n  jump\t// out\n    /* \"#utility.yul\":12582:12867   */\ntag_48:\n    /* \"#utility.yul\":12642:12647   */\n  0x00\n    /* \"#utility.yul\":12666:12689   */\n  tag_200\n    /* \"#utility.yul\":12684:12688   */\n  dup3\n    /* \"#utility.yul\":12666:12689   */\n  tag_63\n  jump\t// in\ntag_200:\n    /* \"#utility.yul\":12658:12689   */\n  swap2\n  pop\n    /* \"#utility.yul\":12710:12737   */\n  tag_201\n    /* \"#utility.yul\":12728:12736   */\n  dup4\n    /* \"#utility.yul\":12710:12737   */\n  tag_63\n  jump\t// in\ntag_201:\n    /* \"#utility.yul\":12698:12737   */\n  swap3\n  pop\n    /* \"#utility.yul\":12756:12860   */\n  tag_202\n    /* \"#utility.yul\":12793:12859   */\n  0xffffffffffffffffffffffffffffffffffffffffffffffffffffffffffffffff\n    /* \"#utility.yul\":12783:12791   */\n  dup5\n    /* \"#utility.yul\":12777:12781   */\n  dup5\n    /* \"#utility.yul\":12756:12860   */\n  tag_88\n  jump\t// in\ntag_202:\n    /* \"#utility.yul\":12747:12860   */\n  swap1\n  pop\n    /* \"#utility.yul\":12582:12867   */\n  swap3\n  swap2\n  pop\n  pop\n  jump\t// out\n    /* \"#utility.yul\":12873:13064   */\ntag_50:\n    /* \"#utility.yul\":12911:12915   */\n  0x00\n    /* \"#utility.yul\":12931:12949   */\n  tag_204\n    /* \"#utility.yul\":12947:12948   */\n  dup3\n    /* \"#utility.yul\":12931:12949   */\n  tag_78\n  jump\t// in\ntag_204:\n    /* \"#utility.yul\":12926:12949   */\n  swap2\n  pop\n    /* \"#utility.yul\":12963:12981   */\n  tag_205\n    /* \"#utility.yul\":12979:12980   */\n  dup4\n    /* \"#utility.yul\":12963:12981   */\n  tag_78\n  jump\t// in\ntag_205:\n    /* \"#utility.yul\":12958:12981   */\n  swap3\n  pop\n    /* \"#utility.yul\":13005:13006   */\n  dup3\n    /* \"#utility.yul\":13002:13003   */\n  dup3\n    /* \"#utility.yul\":12998:13007   */\n  sub\n    /* \"#utility.yul\":12990:13007   */\n  swap1\n  pop\n    /* \"#utility.yul\":13029:13033   */\n  0xff\n    /* \"#utility.yul\":13023:13027   */\n  dup2\n    /* \"#utility.yul\":13020:13034   */\n  gt\n    /* \"#utility.yul\":13017:13057   */\n  iszero\n  tag_206\n  jumpi\n    /* \"#utility.yul\":13037:13055   */\n  tag_207\n  tag_85\n  jump\t// in\ntag_207:\n    /* \"#utility.yul\":13017:13057   */\ntag_206:\n    /* \"#utility.yul\":12873:13064   */\n  swap3\n  swap2\n  pop\n  pop\n  jump\t// out\n    /* \"core/RWAMintControllerVault.sol\":1648:17105  contract RWAMintControllerVault is Ownable, ReentrancyGuard {... */\ntag_52:\n  mload(0x80)\n  mload(0xa0)\n  mload(0xc0)\n  mload(0xe0)\n  mload(0x0100)\n  mload(0x0120)\n  mload(0x0140)\n  codecopy(0x00, dataOffset(sub_0), dataSize(sub_0))\n  0x00\n  assignImmutable(\"0x33e238d35c5878a00c0b41bb14bf170dc8975fbccc23fdcd4d6def8a35f2b4ff\")\n  0x00\n  assignImmutable(\"0xccaa62ece624b7c19179efe70bca6831b45dba36fd4251e9dcb4c8e2db68cc27\")\n  0x00\n  assignImmutable(\"0x554c46e96817775b8989ddc254d554940ba2015f43972fccfc1ecb50653ca381\")\n  0x00\n  assignImmutable(\"0xed6f11278dd2e06c6dacca76917b507072f8ec0018d963eae3dd272f789e6774\")\n  0x00\n  assignImmutable(\"0x76c37a6a5ef780d45f3b6b6b0f7e861973e3b2b69713814d1cb84fa72bf39f6f\")\n  0x00\n  assignImmutable(\"0x2b788c69c84726cb61a0641c648d01bc1bc6568bcab92e0e8975f165cd12fe81\")\n  0x00\n  assignImmutable(\"0x29f8d1998cd4186678d0085cd54072aeefd05bc476ef1844361510d857ac074b\")\n  return(0x00, dataSize(sub_0))\nstop\n\nsub_0: assembly {\n        /* \"core/RWAMintControllerVault.sol\":1648:17105  contract RWAMintControllerVault is Ownable, ReentrancyGuard {... */\n      mstore(0x40, 0x80)\n      callvalue\n      dup1\n      iszero\n      tag_1\n      jumpi\n      revert(0x00, 0x00)\n    tag_1:\n      pop\n      jumpi(tag_2, lt(calldatasize, 0x04))\n      shr(0xe0, calldataload(0x00))\n      dup1\n      0x7cbc2373\n      gt\n      tag_28\n      jumpi\n      dup1\n      0xb235d468\n      gt\n      tag_29\n      jumpi\n      dup1\n      0xc40d111c\n      gt\n      tag_30\n      jumpi\n      dup1\n      0xc40d111c\n      eq\n      tag_24\n      jumpi\n      dup1\n      0xccb99c26\n      eq\n      tag_25\n      jumpi\n      dup1\n      0xcd3b691c\n      eq\n      tag_26\n      jumpi\n      dup1\n      0xf2fde38b\n      eq\n      tag_27\n      jumpi\n      jump(tag_2)\n    tag_30:\n      dup1\n      0xb235d468\n      eq\n      tag_21\n      jumpi\n      dup1\n      0xb6935501\n      eq\n      tag_22\n      jumpi\n      dup1\n      0xbc34e6da\n      eq\n      tag_23\n      jumpi\n      jump(tag_2)\n    tag_29:\n      dup1\n      0x7cbc2373\n      eq\n      tag_15\n      jumpi\n      dup1\n      0x7dc0d1d0\n      eq\n      tag_16\n      jumpi\n      dup1\n      0x7e4831d3\n      eq\n      tag_17\n      jumpi\n      dup1\n      0x8da5cb5b\n      eq\n      tag_18\n      jumpi\n      dup1\n      0x8e827cb5\n      eq\n      tag_19\n      jumpi\n      dup1\n      0xaa2f892d\n      eq\n      tag_20\n      jumpi\n      jump(tag_2)\n    tag_28:\n      dup1\n      0x52f1edcc\n      gt\n      tag_31\n      jumpi\n      dup1\n      0x52f1edcc\n      eq\n      tag_9\n      jumpi\n      dup1\n      0x55cc4e57\n      eq\n      tag_10\n      jumpi\n      dup1\n      0x675a5c0b\n      eq\n      tag_11\n      jumpi\n      dup1\n      0x715018a6\n      eq\n      tag_12\n      jumpi\n      dup1\n      0x72b823c3\n      eq\n      tag_13\n      jumpi\n      dup1\n      0x7adbf973\n      eq\n      tag_14\n      jumpi\n      jump(tag_2)\n    tag_31:\n      dup1\n      0x0c5bf351\n      eq\n      tag_3\n      jumpi\n      dup1\n      0x158ef93e\n      eq\n      tag_4\n      jumpi\n      dup1\n      0x1d143848\n      eq\n      tag_5\n      jumpi\n      dup1\n      0x3e413bee\n      eq\n      tag_6\n      jumpi\n      dup1\n      0x47082dac\n      eq\n      tag_7\n      jumpi\n      dup1\n      0x4cdad506\n      eq\n      tag_8\n      jumpi\n    tag_2:\n      revert(0x00, 0x00)\n        /* \"core/RWAMintControllerVault.sol\":1815:1850  IRWAToken public immutable rwaToken */\n    tag_3:\n      tag_32\n      tag_33\n      jump\t// in\n    tag_32:\n      mload(0x40)\n      tag_34\n      swap2\n      swap1\n      tag_35\n      jump\t// in\n    tag_34:\n      mload(0x40)\n      dup1\n      swap2\n      sub\n      swap1\n      return\n        /* \"core/RWAMintControllerVault.sol\":2441:2464  bool public initialized */\n    tag_4:\n      tag_36\n      tag_37\n      jump\t// in\n    tag_36:\n      mload(0x40)\n      tag_38\n      swap2\n      swap1\n      tag_39\n      jump\t// in\n    tag_38:\n      mload(0x40)\n      dup1\n      swap2\n      sub\n      swap1\n      return\n        /* \"core/RWAMintControllerVault.sol\":2281:2302  address public issuer */\n    tag_5:\n      tag_40\n      tag_41\n      jump\t// in\n    tag_40:\n      mload(0x40)\n      tag_42\n      swap2\n      swap1\n      tag_43\n      jump\t// in\n    tag_42:\n      mload(0x40)\n      dup1\n      swap2\n      sub\n      swap1\n      return\n        /* \"core/RWAMintControllerVault.sol\":1781:1809  IERC20 public immutable usdc */\n    tag_6:\n      tag_44\n      tag_45\n      jump\t// in\n    tag_44:\n      mload(0x40)\n      tag_46\n      swap2\n      swap1\n      tag_47\n      jump\t// in\n    tag_46:\n      mload(0x40)\n      dup1\n      swap2\n      sub\n      swap1\n      return\n        /* \"core/RWAMintControllerVault.sol\":9175:10278  function mintWithUSDC(... */\n    tag_7:\n      tag_48\n      0x04\n      dup1\n      calldatasize\n      sub\n      dup2\n      add\n      swap1\n      tag_49\n      swap2\n      swap1\n      tag_50\n      jump\t// in\n    tag_49:\n      tag_51\n      jump\t// in\n    tag_48:\n      mload(0x40)\n      tag_52\n      swap3\n      swap2\n      swap1\n      tag_53\n      jump\t// in\n    tag_52:\n      mload(0x40)\n      dup1\n      swap2\n      sub\n      swap1\n      return\n        /* \"core/RWAMintControllerVault.sol\":7378:7725  function previewRedeem(... */\n    tag_8:\n      tag_54\n      0x04\n      dup1\n      calldatasize\n      sub\n      dup2\n      add\n      swap1\n      tag_55\n      swap2\n      swap1\n      tag_56\n      jump\t// in\n    tag_55:\n      tag_57\n      jump\t// in\n    tag_54:\n      mload(0x40)\n      tag_58\n      swap3\n      swap2\n      swap1\n      tag_53\n      jump\t// in\n    tag_58:\n      mload(0x40)\n      dup1\n      swap2\n      sub\n      swap1\n      return\n        /* \"core/RWAMintControllerVault.sol\":2593:2622  uint256 public maxOracleDelay */\n    tag_9:\n      tag_59\n      tag_60\n      jump\t// in\n    tag_59:\n      mload(0x40)\n      tag_61\n      swap2\n      swap1\n      tag_62\n      jump\t// in\n    tag_61:\n      mload(0x40)\n      dup1\n      swap2\n      sub\n      swap1\n      return\n        /* \"core/RWAMintControllerVault.sol\":15841:16018  function setIssuer(address _issuer) external onlyOwner {... */\n    tag_10:\n      tag_63\n      0x04\n      dup1\n      calldatasize\n      sub\n      dup2\n      add\n      swap1\n      tag_64\n      swap2\n      swap1\n      tag_65\n      jump\t// in\n    tag_64:\n      tag_66\n      jump\t// in\n    tag_63:\n      stop\n        /* \"core/RWAMintControllerVault.sol\":6309:6593  function navPerTokenUSD18() public view returns (uint256) {... */\n    tag_11:\n      tag_67\n      tag_68\n      jump\t// in\n    tag_67:\n      mload(0x40)\n      tag_69\n      swap2\n      swap1\n      tag_62\n      jump\t// in\n    tag_69:\n      mload(0x40)\n      dup1\n      swap2\n      sub\n      swap1\n      return\n        /* \"@openzeppelin/contracts/access/Ownable.sol\":2293:2394  function renounceOwnership() public virtual onlyOwner {... */\n    tag_12:\n      tag_70\n      tag_71\n      jump\t// in\n    tag_70:\n      stop\n        /* \"core/RWAMintControllerVault.sol\":4969:5651  function initializeFund() external onlyOwner {... */\n    tag_13:\n      tag_72\n      tag_73\n      jump\t// in\n    tag_72:\n      stop\n        /* \"core/RWAMintControllerVault.sol\":16024:16217  function setOracle(address _oracle) external onlyOwner {... */\n    tag_14:\n      tag_74\n      0x04\n      dup1\n      calldatasize\n      sub\n      dup2\n      add\n      swap1\n      tag_75\n      swap2\n      swap1\n      tag_65\n      jump\t// in\n    tag_75:\n      tag_76\n      jump\t// in\n    tag_74:\n      stop\n        /* \"core/RWAMintControllerVault.sol\":12063:13221  function redeem(... */\n    tag_15:\n      tag_77\n      0x04\n      dup1\n      calldatasize\n      sub\n      dup2\n      add\n      swap1\n      tag_78\n      swap2\n      swap1\n      tag_50\n      jump\t// in\n    tag_78:\n      tag_79\n      jump\t// in\n    tag_77:\n      mload(0x40)\n      tag_80\n      swap3\n      swap2\n      swap1\n      tag_53\n      jump\t// in\n    tag_80:\n      mload(0x40)\n      dup1\n      swap2\n      sub\n      swap1\n      return\n        /* \"core/RWAMintControllerVault.sol\":1747:1775  IReserveOracle public oracle */\n    tag_16:\n      tag_81\n      tag_82\n      jump\t// in\n    tag_81:\n      mload(0x40)\n      tag_83\n      swap2\n      swap1\n      tag_84\n      jump\t// in\n    tag_83:\n      mload(0x40)\n      dup1\n      swap2\n      sub\n      swap1\n      return\n        /* \"core/RWAMintControllerVault.sol\":2470:2492  bool public mintPaused */\n    tag_17:\n      tag_85\n      tag_86\n      jump\t// in\n    tag_85:\n      mload(0x40)\n      tag_87\n      swap2\n      swap1\n      tag_39\n      jump\t// in\n    tag_87:\n      mload(0x40)\n      dup1\n      swap2\n      sub\n      swap1\n      return\n        /* \"@openzeppelin/contracts/access/Ownable.sol\":1638:1723  function owner() public view virtual returns (address) {... */\n    tag_18:\n      tag_88\n      tag_89\n      jump\t// in\n    tag_88:\n      mload(0x40)\n      tag_90\n      swap2\n      swap1\n      tag_43\n      jump\t// in\n    tag_90:\n      mload(0x40)\n      dup1\n      swap2\n      sub\n      swap1\n      return\n        /* \"core/RWAMintControllerVault.sol\":5988:6162  function totalBackingValueUSD18() public view returns (uint256) {... */\n    tag_19:\n      tag_91\n      tag_92\n      jump\t// in\n    tag_91:\n      mload(0x40)\n      tag_93\n      swap2\n      swap1\n      tag_62\n      jump\t// in\n    tag_93:\n      mload(0x40)\n      dup1\n      swap2\n      sub\n      swap1\n      return\n        /* \"core/RWAMintControllerVault.sol\":14506:15139  function requestRedeem(uint256 maxRwaIn) external {... */\n    tag_20:\n      tag_94\n      0x04\n      dup1\n      calldatasize\n      sub\n      dup2\n      add\n      swap1\n      tag_95\n      swap2\n      swap1\n      tag_56\n      jump\t// in\n    tag_95:\n      tag_96\n      jump\t// in\n    tag_94:\n      stop\n        /* \"core/RWAMintControllerVault.sol\":2498:2522  bool public redeemPaused */\n    tag_21:\n      tag_97\n      tag_98\n      jump\t// in\n    tag_97:\n      mload(0x40)\n      tag_99\n      swap2\n      swap1\n      tag_39\n      jump\t// in\n    tag_99:\n      mload(0x40)\n      dup1\n      swap2\n      sub\n      swap1\n      return\n        /* \"core/RWAMintControllerVault.sol\":15327:15454  function setMintPaused(bool paused) external onlyOwner {... */\n    tag_22:\n      tag_100\n      0x04\n      dup1\n      calldatasize\n      sub\n      dup2\n      add\n      swap1\n      tag_101\n      swap2\n      swap1\n      tag_102\n      jump\t// in\n    tag_101:\n      tag_103\n      jump\t// in\n    tag_100:\n      stop\n        /* \"core/RWAMintControllerVault.sol\":6715:6828  function vaultUSDCBalance() external view returns (uint256) {... */\n    tag_23:\n      tag_104\n      tag_105\n      jump\t// in\n    tag_104:\n      mload(0x40)\n      tag_106\n      swap2\n      swap1\n      tag_62\n      jump\t// in\n    tag_106:\n      mload(0x40)\n      dup1\n      swap2\n      sub\n      swap1\n      return\n        /* \"core/RWAMintControllerVault.sol\":6917:7278  function previewMintWithUSDC(... */\n    tag_24:\n      tag_107\n      0x04\n      dup1\n      calldatasize\n      sub\n      dup2\n      add\n      swap1\n      tag_108\n      swap2\n      swap1\n      tag_56\n      jump\t// in\n    tag_108:\n      tag_109\n      jump\t// in\n    tag_107:\n      mload(0x40)\n      tag_110\n      swap3\n      swap2\n      swap1\n      tag_53\n      jump\t// in\n    tag_110:\n      mload(0x40)\n      dup1\n      swap2\n      sub\n      swap1\n      return\n        /* \"core/RWAMintControllerVault.sol\":15460:15593  function setRedeemPaused(bool paused) external onlyOwner {... */\n    tag_25:\n      tag_111\n      0x04\n      dup1\n      calldatasize\n      sub\n      dup2\n      add\n      swap1\n      tag_112\n      swap2\n      swap1\n      tag_102\n      jump\t// in\n    tag_112:\n      tag_113\n      jump\t// in\n    tag_111:\n      stop\n        /* \"core/RWAMintControllerVault.sol\":15599:15835  function setMaxOracleDelay(... */\n    tag_26:\n      tag_114\n      0x04\n      dup1\n      calldatasize\n      sub\n      dup2\n      add\n      swap1\n      tag_115\n      swap2\n      swap1\n      tag_56\n      jump\t// in\n    tag_115:\n      tag_116\n      jump\t// in\n    tag_114:\n      stop\n        /* \"@openzeppelin/contracts/access/Ownable.sol\":2543:2758  function transferOwnership(address newOwner) public virtual onlyOwner {... */\n    tag_27:\n      tag_117\n      0x04\n      dup1\n      calldatasize\n      sub\n      dup2\n      add\n      swap1\n      tag_118\n      swap2\n      swap1\n      tag_65\n      jump\t// in\n    tag_118:\n      tag_119\n      jump\t// in\n    tag_117:\n      stop\n        /* \"core/RWAMintControllerVault.sol\":1815:1850  IRWAToken public immutable rwaToken */\n    tag_33:\n      immutable(\"0x2b788c69c84726cb61a0641c648d01bc1bc6568bcab92e0e8975f165cd12fe81\")\n      dup2\n      jump\t// out\n        /* \"core/RWAMintControllerVault.sol\":2441:2464  bool public initialized */\n    tag_37:\n      0x02\n      0x14\n      swap1\n      sload\n      swap1\n      0x0100\n      exp\n      swap1\n      div\n      0xff\n      and\n      dup2\n      jump\t// out\n        /* \"core/RWAMintControllerVault.sol\":2281:2302  address public issuer */\n    tag_41:\n      0x02\n      0x00\n      swap1\n      sload\n      swap1\n      0x0100\n      exp\n      swap1\n      div\n      0xffffffffffffffffffffffffffffffffffffffff\n      and\n      dup2\n      jump\t// out\n        /* \"core/RWAMintControllerVault.sol\":1781:1809  IERC20 public immutable usdc */\n    tag_45:\n      immutable(\"0x29f8d1998cd4186678d0085cd54072aeefd05bc476ef1844361510d857ac074b\")\n      dup2\n      jump\t// out\n        /* \"core/RWAMintControllerVault.sol\":9175:10278  function mintWithUSDC(... */\n    tag_51:\n        /* \"core/RWAMintControllerVault.sol\":9325:9342  uint256 rwaAmount */\n      0x00\n        /* \"core/RWAMintControllerVault.sol\":9356:9376  uint256 usdcRequired */\n      0x00\n        /* \"@openzeppelin/contracts/utils/ReentrancyGuard.sol\":3023:3044  _nonReentrantBefore() */\n      tag_121\n        /* \"@openzeppelin/contracts/utils/ReentrancyGuard.sol\":3023:3042  _nonReentrantBefore */\n      tag_122\n        /* \"@openzeppelin/contracts/utils/ReentrancyGuard.sol\":3023:3044  _nonReentrantBefore() */\n      jump\t// in\n    tag_121:\n        /* \"core/RWAMintControllerVault.sol\":9409:9420  initialized */\n      0x02\n      0x14\n      swap1\n      sload\n      swap1\n      0x0100\n      exp\n      swap1\n      div\n      0xff\n      and\n        /* \"core/RWAMintControllerVault.sol\":9401:9440  require(initialized, \"not initialized\") */\n      tag_124\n      jumpi\n      mload(0x40)\n      0x08c379a000000000000000000000000000000000000000000000000000000000\n      dup2\n      mstore\n      0x04\n      add\n      tag_125\n      swap1\n      tag_126\n      jump\t// in\n    tag_125:\n      mload(0x40)\n      dup1\n      swap2\n      sub\n      swap1\n      revert\n    tag_124:\n        /* \"core/RWAMintControllerVault.sol\":9459:9469  mintPaused */\n      0x02\n      0x15\n      swap1\n      sload\n      swap1\n      0x0100\n      exp\n      swap1\n      div\n      0xff\n      and\n        /* \"core/RWAMintControllerVault.sol\":9458:9469  !mintPaused */\n      iszero\n        /* \"core/RWAMintControllerVault.sol\":9450:9485  require(!mintPaused, \"mint paused\") */\n      tag_127\n      jumpi\n      mload(0x40)\n      0x08c379a000000000000000000000000000000000000000000000000000000000\n      dup2\n      mstore\n      0x04\n      add\n      tag_128\n      swap1\n      tag_129\n      jump\t// in\n    tag_128:\n      mload(0x40)\n      dup1\n      swap2\n      sub\n      swap1\n      revert\n    tag_127:\n        /* \"core/RWAMintControllerVault.sol\":9515:9516  0 */\n      0x00\n        /* \"core/RWAMintControllerVault.sol\":9503:9512  maxUSDCIn */\n      dup5\n        /* \"core/RWAMintControllerVault.sol\":9503:9516  maxUSDCIn > 0 */\n      gt\n        /* \"core/RWAMintControllerVault.sol\":9495:9530  require(maxUSDCIn > 0, \"zero USDC\") */\n      tag_130\n      jumpi\n      mload(0x40)\n      0x08c379a000000000000000000000000000000000000000000000000000000000\n      dup2\n      mstore\n      0x04\n      add\n      tag_131\n      swap1\n      tag_132\n      jump\t// in\n    tag_131:\n      mload(0x40)\n      dup1\n      swap2\n      sub\n      swap1\n      revert\n    tag_130:\n        /* \"core/RWAMintControllerVault.sol\":9541:9564  ReserveData memory data */\n      0x00\n        /* \"core/RWAMintControllerVault.sol\":9567:9588  _getValidOracleData() */\n      tag_133\n        /* \"core/RWAMintControllerVault.sol\":9567:9586  _getValidOracleData */\n      tag_134\n        /* \"core/RWAMintControllerVault.sol\":9567:9588  _getValidOracleData() */\n      jump\t// in\n    tag_133:\n        /* \"core/RWAMintControllerVault.sol\":9541:9588  ReserveData memory data = _getValidOracleData() */\n      swap1\n      pop\n        /* \"core/RWAMintControllerVault.sol\":9598:9614  uint256 navUSD18 */\n      0x00\n        /* \"core/RWAMintControllerVault.sol\":9617:9640  _navPerTokenUSD18(data) */\n      tag_135\n        /* \"core/RWAMintControllerVault.sol\":9635:9639  data */\n      dup3\n        /* \"core/RWAMintControllerVault.sol\":9617:9634  _navPerTokenUSD18 */\n      tag_136\n        /* \"core/RWAMintControllerVault.sol\":9617:9640  _navPerTokenUSD18(data) */\n      jump\t// in\n    tag_135:\n        /* \"core/RWAMintControllerVault.sol\":9598:9640  uint256 navUSD18 = _navPerTokenUSD18(data) */\n      swap1\n      pop\n        /* \"core/RWAMintControllerVault.sol\":9691:9730  _quoteMintWithUSDC(maxUSDCIn, navUSD18) */\n      tag_137\n        /* \"core/RWAMintControllerVault.sol\":9710:9719  maxUSDCIn */\n      dup7\n        /* \"core/RWAMintControllerVault.sol\":9721:9729  navUSD18 */\n      dup3\n        /* \"core/RWAMintControllerVault.sol\":9691:9709  _quoteMintWithUSDC */\n      tag_138\n        /* \"core/RWAMintControllerVault.sol\":9691:9730  _quoteMintWithUSDC(maxUSDCIn, navUSD18) */\n      jump\t// in\n    tag_137:\n        /* \"core/RWAMintControllerVault.sol\":9651:9730  (rwaAmount, usdcRequired) =... */\n      dup1\n      swap5\n      pop\n      dup2\n      swap6\n      pop\n      pop\n      pop\n        /* \"core/RWAMintControllerVault.sol\":9761:9762  0 */\n      0x00\n        /* \"core/RWAMintControllerVault.sol\":9749:9758  rwaAmount */\n      dup5\n        /* \"core/RWAMintControllerVault.sol\":9749:9762  rwaAmount > 0 */\n      gt\n        /* \"core/RWAMintControllerVault.sol\":9741:9783  require(rwaAmount > 0, \"zero mint amount\") */\n      tag_139\n      jumpi\n      mload(0x40)\n      0x08c379a000000000000000000000000000000000000000000000000000000000\n      dup2\n      mstore\n      0x04\n      add\n      tag_140\n      swap1\n      tag_141\n      jump\t// in\n    tag_140:\n      mload(0x40)\n      dup1\n      swap2\n      sub\n      swap1\n      revert\n    tag_139:\n        /* \"core/RWAMintControllerVault.sol\":9814:9823  minRwaOut */\n      dup5\n        /* \"core/RWAMintControllerVault.sol\":9801:9810  rwaAmount */\n      dup5\n        /* \"core/RWAMintControllerVault.sol\":9801:9823  rwaAmount >= minRwaOut */\n      lt\n      iszero\n        /* \"core/RWAMintControllerVault.sol\":9793:9848  require(rwaAmount >= minRwaOut, \"insufficient RWA out\") */\n      tag_142\n      jumpi\n      mload(0x40)\n      0x08c379a000000000000000000000000000000000000000000000000000000000\n      dup2\n      mstore\n      0x04\n      add\n      tag_143\n      swap1\n      tag_144\n      jump\t// in\n    tag_143:\n      mload(0x40)\n      dup1\n      swap2\n      sub\n      swap1\n      revert\n    tag_142:\n        /* \"core/RWAMintControllerVault.sol\":9881:9882  0 */\n      0x00\n        /* \"core/RWAMintControllerVault.sol\":9866:9878  usdcRequired */\n      dup4\n        /* \"core/RWAMintControllerVault.sol\":9866:9882  usdcRequired > 0 */\n      gt\n        /* \"core/RWAMintControllerVault.sol\":9858:9905  require(usdcRequired > 0, \"zero USDC required\") */\n      tag_145\n      jumpi\n      mload(0x40)\n      0x08c379a000000000000000000000000000000000000000000000000000000000\n      dup2\n      mstore\n      0x04\n      add\n      tag_146\n      swap1\n      tag_147\n      jump\t// in\n    tag_146:\n      mload(0x40)\n      dup1\n      swap2\n      sub\n      swap1\n      revert\n    tag_145:\n        /* \"core/RWAMintControllerVault.sol\":9939:9948  maxUSDCIn */\n      dup6\n        /* \"core/RWAMintControllerVault.sol\":9923:9935  usdcRequired */\n      dup4\n        /* \"core/RWAMintControllerVault.sol\":9923:9948  usdcRequired <= maxUSDCIn */\n      gt\n      iszero\n        /* \"core/RWAMintControllerVault.sol\":9915:9978  require(usdcRequired <= maxUSDCIn, \"USDC required exceeds max\") */\n      tag_148\n      jumpi\n      mload(0x40)\n      0x08c379a000000000000000000000000000000000000000000000000000000000\n      dup2\n      mstore\n      0x04\n      add\n      tag_149\n      swap1\n      tag_150\n      jump\t// in\n    tag_149:\n      mload(0x40)\n      dup1\n      swap2\n      sub\n      swap1\n      revert\n    tag_148:\n        /* \"core/RWAMintControllerVault.sol\":9989:10097  usdc.safeTransferFrom(... */\n      tag_151\n        /* \"core/RWAMintControllerVault.sol\":10024:10034  msg.sender */\n      caller\n        /* \"core/RWAMintControllerVault.sol\":10056:10060  this */\n      address\n        /* \"core/RWAMintControllerVault.sol\":10075:10087  usdcRequired */\n      dup6\n        /* \"core/RWAMintControllerVault.sol\":9989:9993  usdc */\n      immutable(\"0x29f8d1998cd4186678d0085cd54072aeefd05bc476ef1844361510d857ac074b\")\n        /* \"core/RWAMintControllerVault.sol\":9989:10010  usdc.safeTransferFrom */\n      0xffffffffffffffffffffffffffffffffffffffff\n      and\n      tag_152\n      swap1\n        /* \"core/RWAMintControllerVault.sol\":9989:10097  usdc.safeTransferFrom(... */\n      swap4\n      swap3\n      swap2\n      swap1\n      0xffffffff\n      and\n      jump\t// in\n    tag_151:\n        /* \"core/RWAMintControllerVault.sol\":10108:10116  rwaToken */\n      immutable(\"0x2b788c69c84726cb61a0641c648d01bc1bc6568bcab92e0e8975f165cd12fe81\")\n        /* \"core/RWAMintControllerVault.sol\":10108:10121  rwaToken.mint */\n      0xffffffffffffffffffffffffffffffffffffffff\n      and\n      0x40c10f19\n        /* \"core/RWAMintControllerVault.sol\":10122:10132  msg.sender */\n      caller\n        /* \"core/RWAMintControllerVault.sol\":10134:10143  rwaAmount */\n      dup7\n        /* \"core/RWAMintControllerVault.sol\":10108:10144  rwaToken.mint(msg.sender, rwaAmount) */\n      mload(0x40)\n      dup4\n      0xffffffff\n      and\n      0xe0\n      shl\n      dup2\n      mstore\n      0x04\n      add\n      tag_153\n      swap3\n      swap2\n      swap1\n      tag_154\n      jump\t// in\n    tag_153:\n      0x00\n      mload(0x40)\n      dup1\n      dup4\n      sub\n      dup2\n      0x00\n      dup8\n      dup1\n      extcodesize\n      iszero\n      dup1\n      iszero\n      tag_155\n      jumpi\n      revert(0x00, 0x00)\n    tag_155:\n      pop\n      gas\n      call\n      iszero\n      dup1\n      iszero\n      tag_157\n      jumpi\n      returndatacopy(0x00, 0x00, returndatasize)\n      revert(0x00, returndatasize)\n    tag_157:\n      pop\n      pop\n      pop\n      pop\n        /* \"core/RWAMintControllerVault.sol\":10180:10190  msg.sender */\n      caller\n        /* \"core/RWAMintControllerVault.sol\":10160:10271  Minted(... */\n      0xffffffffffffffffffffffffffffffffffffffff\n      and\n      0x5a3358a3d27a5373c0df2604662088d37894d56b7cfd27f315770440f4e0d919\n        /* \"core/RWAMintControllerVault.sol\":10204:10216  usdcRequired */\n      dup5\n        /* \"core/RWAMintControllerVault.sol\":10230:10238  navUSD18 */\n      dup4\n        /* \"core/RWAMintControllerVault.sol\":10252:10261  rwaAmount */\n      dup8\n        /* \"core/RWAMintControllerVault.sol\":10160:10271  Minted(... */\n      mload(0x40)\n      tag_158\n      swap4\n      swap3\n      swap2\n      swap1\n      tag_159\n      jump\t// in\n    tag_158:\n      mload(0x40)\n      dup1\n      swap2\n      sub\n      swap1\n      log2\n        /* \"core/RWAMintControllerVault.sol\":9391:10278  {... */\n      pop\n      pop\n        /* \"@openzeppelin/contracts/utils/ReentrancyGuard.sol\":3065:3085  _nonReentrantAfter() */\n      tag_160\n        /* \"@openzeppelin/contracts/utils/ReentrancyGuard.sol\":3065:3083  _nonReentrantAfter */\n      tag_161\n        /* \"@openzeppelin/contracts/utils/ReentrancyGuard.sol\":3065:3085  _nonReentrantAfter() */\n      jump\t// in\n    tag_160:\n        /* \"core/RWAMintControllerVault.sol\":9175:10278  function mintWithUSDC(... */\n      swap3\n      pop\n      swap3\n      swap1\n      pop\n      jump\t// out\n        /* \"core/RWAMintControllerVault.sol\":7378:7725  function previewRedeem(... */\n    tag_57:\n        /* \"core/RWAMintControllerVault.sol\":7493:7512  uint256 rwaRequired */\n      0x00\n        /* \"core/RWAMintControllerVault.sol\":7526:7544  uint256 usdcAmount */\n      0x00\n        /* \"core/RWAMintControllerVault.sol\":7569:7592  ReserveData memory data */\n      0x00\n        /* \"core/RWAMintControllerVault.sol\":7595:7616  _getValidOracleData() */\n      tag_163\n        /* \"core/RWAMintControllerVault.sol\":7595:7614  _getValidOracleData */\n      tag_134\n        /* \"core/RWAMintControllerVault.sol\":7595:7616  _getValidOracleData() */\n      jump\t// in\n    tag_163:\n        /* \"core/RWAMintControllerVault.sol\":7569:7616  ReserveData memory data = _getValidOracleData() */\n      swap1\n      pop\n        /* \"core/RWAMintControllerVault.sol\":7626:7642  uint256 navUSD18 */\n      0x00\n        /* \"core/RWAMintControllerVault.sol\":7645:7668  _navPerTokenUSD18(data) */\n      tag_164\n        /* \"core/RWAMintControllerVault.sol\":7663:7667  data */\n      dup3\n        /* \"core/RWAMintControllerVault.sol\":7645:7662  _navPerTokenUSD18 */\n      tag_136\n        /* \"core/RWAMintControllerVault.sol\":7645:7668  _navPerTokenUSD18(data) */\n      jump\t// in\n    tag_164:\n        /* \"core/RWAMintControllerVault.sol\":7626:7668  uint256 navUSD18 = _navPerTokenUSD18(data) */\n      swap1\n      pop\n        /* \"core/RWAMintControllerVault.sol\":7686:7718  _quoteRedeem(maxRwaIn, navUSD18) */\n      tag_165\n        /* \"core/RWAMintControllerVault.sol\":7699:7707  maxRwaIn */\n      dup6\n        /* \"core/RWAMintControllerVault.sol\":7709:7717  navUSD18 */\n      dup3\n        /* \"core/RWAMintControllerVault.sol\":7686:7698  _quoteRedeem */\n      tag_166\n        /* \"core/RWAMintControllerVault.sol\":7686:7718  _quoteRedeem(maxRwaIn, navUSD18) */\n      jump\t// in\n    tag_165:\n        /* \"core/RWAMintControllerVault.sol\":7679:7718  return _quoteRedeem(maxRwaIn, navUSD18) */\n      swap4\n      pop\n      swap4\n      pop\n      pop\n      pop\n        /* \"core/RWAMintControllerVault.sol\":7378:7725  function previewRedeem(... */\n      swap2\n      pop\n      swap2\n      jump\t// out\n        /* \"core/RWAMintControllerVault.sol\":2593:2622  uint256 public maxOracleDelay */\n    tag_60:\n      sload(0x03)\n      dup2\n      jump\t// out\n        /* \"core/RWAMintControllerVault.sol\":15841:16018  function setIssuer(address _issuer) external onlyOwner {... */\n    tag_66:\n        /* \"@openzeppelin/contracts/access/Ownable.sol\":1531:1544  _checkOwner() */\n      tag_168\n        /* \"@openzeppelin/contracts/access/Ownable.sol\":1531:1542  _checkOwner */\n      tag_169\n        /* \"@openzeppelin/contracts/access/Ownable.sol\":1531:1544  _checkOwner() */\n      jump\t// in\n    tag_168:\n        /* \"core/RWAMintControllerVault.sol\":15933:15934  0 */\n      0x00\n        /* \"core/RWAMintControllerVault.sol\":15914:15935  _issuer != address(0) */\n      0xffffffffffffffffffffffffffffffffffffffff\n      and\n        /* \"core/RWAMintControllerVault.sol\":15914:15921  _issuer */\n      dup2\n        /* \"core/RWAMintControllerVault.sol\":15914:15935  _issuer != address(0) */\n      0xffffffffffffffffffffffffffffffffffffffff\n      and\n      sub\n        /* \"core/RWAMintControllerVault.sol\":15906:15950  require(_issuer != address(0), \"bad issuer\") */\n      tag_171\n      jumpi\n      mload(0x40)\n      0x08c379a000000000000000000000000000000000000000000000000000000000\n      dup2\n      mstore\n      0x04\n      add\n      tag_172\n      swap1\n      tag_173\n      jump\t// in\n    tag_172:\n      mload(0x40)\n      dup1\n      swap2\n      sub\n      swap1\n      revert\n    tag_171:\n        /* \"core/RWAMintControllerVault.sol\":15970:15977  _issuer */\n      dup1\n        /* \"core/RWAMintControllerVault.sol\":15961:15967  issuer */\n      0x02\n      0x00\n        /* \"core/RWAMintControllerVault.sol\":15961:15977  issuer = _issuer */\n      0x0100\n      exp\n      dup2\n      sload\n      dup2\n      0xffffffffffffffffffffffffffffffffffffffff\n      mul\n      not\n      and\n      swap1\n      dup4\n      0xffffffffffffffffffffffffffffffffffffffff\n      and\n      mul\n      or\n      swap1\n      sstore\n      pop\n        /* \"core/RWAMintControllerVault.sol\":16003:16010  _issuer */\n      dup1\n        /* \"core/RWAMintControllerVault.sol\":15993:16011  IssuerSet(_issuer) */\n      0xffffffffffffffffffffffffffffffffffffffff\n      and\n      0x141c634522c8bfcf25beba4c524ac0c87de0db74ebe83168cf5f3bf4d45fd898\n      mload(0x40)\n      mload(0x40)\n      dup1\n      swap2\n      sub\n      swap1\n      log2\n        /* \"core/RWAMintControllerVault.sol\":15841:16018  function setIssuer(address _issuer) external onlyOwner {... */\n      pop\n      jump\t// out\n        /* \"core/RWAMintControllerVault.sol\":6309:6593  function navPerTokenUSD18() public view returns (uint256) {... */\n    tag_68:\n        /* \"core/RWAMintControllerVault.sol\":6358:6365  uint256 */\n      0x00\n        /* \"core/RWAMintControllerVault.sol\":6377:6391  uint256 supply */\n      0x00\n        /* \"core/RWAMintControllerVault.sol\":6394:6402  rwaToken */\n      immutable(\"0x2b788c69c84726cb61a0641c648d01bc1bc6568bcab92e0e8975f165cd12fe81\")\n        /* \"core/RWAMintControllerVault.sol\":6394:6414  rwaToken.totalSupply */\n      0xffffffffffffffffffffffffffffffffffffffff\n      and\n      0x18160ddd\n        /* \"core/RWAMintControllerVault.sol\":6394:6416  rwaToken.totalSupply() */\n      mload(0x40)\n      dup2\n      0xffffffff\n      and\n      0xe0\n      shl\n      dup2\n      mstore\n      0x04\n      add\n      0x20\n      mload(0x40)\n      dup1\n      dup4\n      sub\n      dup2\n      dup7\n      gas\n      staticcall\n      iszero\n      dup1\n      iszero\n      tag_176\n      jumpi\n      returndatacopy(0x00, 0x00, returndatasize)\n      revert(0x00, returndatasize)\n    tag_176:\n      pop\n      pop\n      pop\n      pop\n      mload(0x40)\n      returndatasize\n      not(0x1f)\n      0x1f\n      dup3\n      add\n      and\n      dup3\n      add\n      dup1\n      0x40\n      mstore\n      pop\n      dup2\n      add\n      swap1\n      tag_177\n      swap2\n      swap1\n      tag_178\n      jump\t// in\n    tag_177:\n        /* \"core/RWAMintControllerVault.sol\":6377:6416  uint256 supply = rwaToken.totalSupply() */\n      swap1\n      pop\n        /* \"core/RWAMintControllerVault.sol\":6440:6441  0 */\n      0x00\n        /* \"core/RWAMintControllerVault.sol\":6430:6436  supply */\n      dup2\n        /* \"core/RWAMintControllerVault.sol\":6430:6441  supply == 0 */\n      sub\n        /* \"core/RWAMintControllerVault.sol\":6426:6490  if (supply == 0) {... */\n      tag_179\n      jumpi\n        /* \"core/RWAMintControllerVault.sol\":6464:6479  initialNAVUSD18 */\n      immutable(\"0x33e238d35c5878a00c0b41bb14bf170dc8975fbccc23fdcd4d6def8a35f2b4ff\")\n        /* \"core/RWAMintControllerVault.sol\":6457:6479  return initialNAVUSD18 */\n      swap2\n      pop\n      pop\n      jump(tag_174)\n        /* \"core/RWAMintControllerVault.sol\":6426:6490  if (supply == 0) {... */\n    tag_179:\n        /* \"core/RWAMintControllerVault.sol\":6499:6522  ReserveData memory data */\n      0x00\n        /* \"core/RWAMintControllerVault.sol\":6525:6546  _getValidOracleData() */\n      tag_180\n        /* \"core/RWAMintControllerVault.sol\":6525:6544  _getValidOracleData */\n      tag_134\n        /* \"core/RWAMintControllerVault.sol\":6525:6546  _getValidOracleData() */\n      jump\t// in\n    tag_180:\n        /* \"core/RWAMintControllerVault.sol\":6499:6546  ReserveData memory data = _getValidOracleData() */\n      swap1\n      pop\n        /* \"core/RWAMintControllerVault.sol\":6563:6586  _navPerTokenUSD18(data) */\n      tag_181\n        /* \"core/RWAMintControllerVault.sol\":6581:6585  data */\n      dup2\n        /* \"core/RWAMintControllerVault.sol\":6563:6580  _navPerTokenUSD18 */\n      tag_136\n        /* \"core/RWAMintControllerVault.sol\":6563:6586  _navPerTokenUSD18(data) */\n      jump\t// in\n    tag_181:\n        /* \"core/RWAMintControllerVault.sol\":6556:6586  return _navPerTokenUSD18(data) */\n      swap3\n      pop\n      pop\n      pop\n        /* \"core/RWAMintControllerVault.sol\":6309:6593  function navPerTokenUSD18() public view returns (uint256) {... */\n    tag_174:\n      swap1\n      jump\t// out\n        /* \"@openzeppelin/contracts/access/Ownable.sol\":2293:2394  function renounceOwnership() public virtual onlyOwner {... */\n    tag_71:\n        /* \"@openzeppelin/contracts/access/Ownable.sol\":1531:1544  _checkOwner() */\n      tag_183\n        /* \"@openzeppelin/contracts/access/Ownable.sol\":1531:1542  _checkOwner */\n      tag_169\n        /* \"@openzeppelin/contracts/access/Ownable.sol\":1531:1544  _checkOwner() */\n      jump\t// in\n    tag_183:\n        /* \"@openzeppelin/contracts/access/Ownable.sol\":2357:2387  _transferOwnership(address(0)) */\n      tag_185\n        /* \"@openzeppelin/contracts/access/Ownable.sol\":2384:2385  0 */\n      0x00\n        /* \"@openzeppelin/contracts/access/Ownable.sol\":2357:2375  _transferOwnership */\n      tag_186\n        /* \"@openzeppelin/contracts/access/Ownable.sol\":2357:2387  _transferOwnership(address(0)) */\n      jump\t// in\n    tag_185:\n        /* \"@openzeppelin/contracts/access/Ownable.sol\":2293:2394  function renounceOwnership() public virtual onlyOwner {... */\n      jump\t// out\n        /* \"core/RWAMintControllerVault.sol\":4969:5651  function initializeFund() external onlyOwner {... */\n    tag_73:\n        /* \"@openzeppelin/contracts/access/Ownable.sol\":1531:1544  _checkOwner() */\n      tag_188\n        /* \"@openzeppelin/contracts/access/Ownable.sol\":1531:1542  _checkOwner */\n      tag_169\n        /* \"@openzeppelin/contracts/access/Ownable.sol\":1531:1544  _checkOwner() */\n      jump\t// in\n    tag_188:\n        /* \"core/RWAMintControllerVault.sol\":5033:5044  initialized */\n      0x02\n      0x14\n      swap1\n      sload\n      swap1\n      0x0100\n      exp\n      swap1\n      div\n      0xff\n      and\n        /* \"core/RWAMintControllerVault.sol\":5032:5044  !initialized */\n      iszero\n        /* \"core/RWAMintControllerVault.sol\":5024:5068  require(!initialized, \"already initialized\") */\n      tag_190\n      jumpi\n      mload(0x40)\n      0x08c379a000000000000000000000000000000000000000000000000000000000\n      dup2\n      mstore\n      0x04\n      add\n      tag_191\n      swap1\n      tag_192\n      jump\t// in\n    tag_191:\n      mload(0x40)\n      dup1\n      swap2\n      sub\n      swap1\n      revert\n    tag_190:\n        /* \"core/RWAMintControllerVault.sol\":5079:5102  ReserveData memory data */\n      0x00\n        /* \"core/RWAMintControllerVault.sol\":5105:5126  _getValidOracleData() */\n      tag_193\n        /* \"core/RWAMintControllerVault.sol\":5105:5124  _getValidOracleData */\n      tag_134\n        /* \"core/RWAMintControllerVault.sol\":5105:5126  _getValidOracleData() */\n      jump\t// in\n    tag_193:\n        /* \"core/RWAMintControllerVault.sol\":5079:5126  ReserveData memory data = _getValidOracleData() */\n      swap1\n      pop\n        /* \"core/RWAMintControllerVault.sol\":5192:5193  0 */\n      0x00\n        /* \"core/RWAMintControllerVault.sol\":5158:5162  data */\n      dup2\n        /* \"core/RWAMintControllerVault.sol\":5158:5189  data.adjustedOffchainReserveUSD */\n      0x00\n      add\n      mload\n        /* \"core/RWAMintControllerVault.sol\":5158:5193  data.adjustedOffchainReserveUSD > 0 */\n      gt\n        /* \"core/RWAMintControllerVault.sol\":5137:5238  require(... */\n      tag_194\n      jumpi\n      mload(0x40)\n      0x08c379a000000000000000000000000000000000000000000000000000000000\n      dup2\n      mstore\n      0x04\n      add\n      tag_195\n      swap1\n      tag_196\n      jump\t// in\n    tag_195:\n      mload(0x40)\n      dup1\n      swap2\n      sub\n      swap1\n      revert\n    tag_194:\n        /* \"core/RWAMintControllerVault.sol\":5249:5270  uint256 initialSupply */\n      0x00\n        /* \"core/RWAMintControllerVault.sol\":5331:5346  initialNAVUSD18 */\n      immutable(\"0x33e238d35c5878a00c0b41bb14bf170dc8975fbccc23fdcd4d6def8a35f2b4ff\")\n        /* \"core/RWAMintControllerVault.sol\":5320:5327  rwaUnit */\n      immutable(\"0x554c46e96817775b8989ddc254d554940ba2015f43972fccfc1ecb50653ca381\")\n        /* \"core/RWAMintControllerVault.sol\":5286:5290  data */\n      dup4\n        /* \"core/RWAMintControllerVault.sol\":5286:5317  data.adjustedOffchainReserveUSD */\n      0x00\n      add\n      mload\n        /* \"core/RWAMintControllerVault.sol\":5286:5327  data.adjustedOffchainReserveUSD * rwaUnit */\n      tag_197\n      swap2\n      swap1\n      tag_198\n      jump\t// in\n    tag_197:\n        /* \"core/RWAMintControllerVault.sol\":5285:5346  (data.adjustedOffchainReserveUSD * rwaUnit) / initialNAVUSD18 */\n      tag_199\n      swap2\n      swap1\n      tag_200\n      jump\t// in\n    tag_199:\n        /* \"core/RWAMintControllerVault.sol\":5249:5346  uint256 initialSupply =... */\n      swap1\n      pop\n        /* \"core/RWAMintControllerVault.sol\":5381:5382  0 */\n      0x00\n        /* \"core/RWAMintControllerVault.sol\":5365:5378  initialSupply */\n      dup2\n        /* \"core/RWAMintControllerVault.sol\":5365:5382  initialSupply > 0 */\n      gt\n        /* \"core/RWAMintControllerVault.sol\":5357:5406  require(initialSupply > 0, \"zero initial supply\") */\n      tag_201\n      jumpi\n      mload(0x40)\n      0x08c379a000000000000000000000000000000000000000000000000000000000\n      dup2\n      mstore\n      0x04\n      add\n      tag_202\n      swap1\n      tag_203\n      jump\t// in\n    tag_202:\n      mload(0x40)\n      dup1\n      swap2\n      sub\n      swap1\n      revert\n    tag_201:\n        /* \"core/RWAMintControllerVault.sol\":5431:5435  true */\n      0x01\n        /* \"core/RWAMintControllerVault.sol\":5417:5428  initialized */\n      0x02\n      0x14\n        /* \"core/RWAMintControllerVault.sol\":5417:5435  initialized = true */\n      0x0100\n      exp\n      dup2\n      sload\n      dup2\n      0xff\n      mul\n      not\n      and\n      swap1\n      dup4\n      iszero\n      iszero\n      mul\n      or\n      swap1\n      sstore\n      pop\n        /* \"core/RWAMintControllerVault.sol\":5446:5454  rwaToken */\n      immutable(\"0x2b788c69c84726cb61a0641c648d01bc1bc6568bcab92e0e8975f165cd12fe81\")\n        /* \"core/RWAMintControllerVault.sol\":5446:5459  rwaToken.mint */\n      0xffffffffffffffffffffffffffffffffffffffff\n      and\n      0x40c10f19\n        /* \"core/RWAMintControllerVault.sol\":5460:5466  issuer */\n      0x02\n      0x00\n      swap1\n      sload\n      swap1\n      0x0100\n      exp\n      swap1\n      div\n      0xffffffffffffffffffffffffffffffffffffffff\n      and\n        /* \"core/RWAMintControllerVault.sol\":5468:5481  initialSupply */\n      dup4\n        /* \"core/RWAMintControllerVault.sol\":5446:5482  rwaToken.mint(issuer, initialSupply) */\n      mload(0x40)\n      dup4\n      0xffffffff\n      and\n      0xe0\n      shl\n      dup2\n      mstore\n      0x04\n      add\n      tag_204\n      swap3\n      swap2\n      swap1\n      tag_154\n      jump\t// in\n    tag_204:\n      0x00\n      mload(0x40)\n      dup1\n      dup4\n      sub\n      dup2\n      0x00\n      dup8\n      dup1\n      extcodesize\n      iszero\n      dup1\n      iszero\n      tag_205\n      jumpi\n      revert(0x00, 0x00)\n    tag_205:\n      pop\n      gas\n      call\n      iszero\n      dup1\n      iszero\n      tag_207\n      jumpi\n      returndatacopy(0x00, 0x00, returndatasize)\n      revert(0x00, returndatasize)\n    tag_207:\n      pop\n      pop\n      pop\n      pop\n        /* \"core/RWAMintControllerVault.sol\":5527:5533  issuer */\n      0x02\n      0x00\n      swap1\n      sload\n      swap1\n      0x0100\n      exp\n      swap1\n      div\n      0xffffffffffffffffffffffffffffffffffffffff\n      and\n        /* \"core/RWAMintControllerVault.sol\":5498:5644  FundInitialized(... */\n      0xffffffffffffffffffffffffffffffffffffffff\n      and\n      0x7daa9e69e51aae98674a933164ca91b034cb5856823c3ea6a98065ba29e97283\n        /* \"core/RWAMintControllerVault.sol\":5547:5551  data */\n      dup4\n        /* \"core/RWAMintControllerVault.sol\":5547:5578  data.adjustedOffchainReserveUSD */\n      0x00\n      add\n      mload\n        /* \"core/RWAMintControllerVault.sol\":5592:5607  initialNAVUSD18 */\n      immutable(\"0x33e238d35c5878a00c0b41bb14bf170dc8975fbccc23fdcd4d6def8a35f2b4ff\")\n        /* \"core/RWAMintControllerVault.sol\":5621:5634  initialSupply */\n      dup5\n        /* \"core/RWAMintControllerVault.sol\":5498:5644  FundInitialized(... */\n      mload(0x40)\n      tag_208\n      swap4\n      swap3\n      swap2\n      swap1\n      tag_159\n      jump\t// in\n    tag_208:\n      mload(0x40)\n      dup1\n      swap2\n      sub\n      swap1\n      log2\n        /* \"core/RWAMintControllerVault.sol\":5014:5651  {... */\n      pop\n      pop\n        /* \"core/RWAMintControllerVault.sol\":4969:5651  function initializeFund() external onlyOwner {... */\n      jump\t// out\n        /* \"core/RWAMintControllerVault.sol\":16024:16217  function setOracle(address _oracle) external onlyOwner {... */\n    tag_76:\n        /* \"@openzeppelin/contracts/access/Ownable.sol\":1531:1544  _checkOwner() */\n      tag_210\n        /* \"@openzeppelin/contracts/access/Ownable.sol\":1531:1542  _checkOwner */\n      tag_169\n        /* \"@openzeppelin/contracts/access/Ownable.sol\":1531:1544  _checkOwner() */\n      jump\t// in\n    tag_210:\n        /* \"core/RWAMintControllerVault.sol\":16116:16117  0 */\n      0x00\n        /* \"core/RWAMintControllerVault.sol\":16097:16118  _oracle != address(0) */\n      0xffffffffffffffffffffffffffffffffffffffff\n      and\n        /* \"core/RWAMintControllerVault.sol\":16097:16104  _oracle */\n      dup2\n        /* \"core/RWAMintControllerVault.sol\":16097:16118  _oracle != address(0) */\n      0xffffffffffffffffffffffffffffffffffffffff\n      and\n      sub\n        /* \"core/RWAMintControllerVault.sol\":16089:16133  require(_oracle != address(0), \"bad oracle\") */\n      tag_212\n      jumpi\n      mload(0x40)\n      0x08c379a000000000000000000000000000000000000000000000000000000000\n      dup2\n      mstore\n      0x04\n      add\n      tag_213\n      swap1\n      tag_214\n      jump\t// in\n    tag_213:\n      mload(0x40)\n      dup1\n      swap2\n      sub\n      swap1\n      revert\n    tag_212:\n        /* \"core/RWAMintControllerVault.sol\":16168:16175  _oracle */\n      dup1\n        /* \"core/RWAMintControllerVault.sol\":16144:16150  oracle */\n      0x01\n      0x00\n        /* \"core/RWAMintControllerVault.sol\":16144:16176  oracle = IReserveOracle(_oracle) */\n      0x0100\n      exp\n      dup2\n      sload\n      dup2\n      0xffffffffffffffffffffffffffffffffffffffff\n      mul\n      not\n      and\n      swap1\n      dup4\n      0xffffffffffffffffffffffffffffffffffffffff\n      and\n      mul\n      or\n      swap1\n      sstore\n      pop\n        /* \"core/RWAMintControllerVault.sol\":16202:16209  _oracle */\n      dup1\n        /* \"core/RWAMintControllerVault.sol\":16192:16210  OracleSet(_oracle) */\n      0xffffffffffffffffffffffffffffffffffffffff\n      and\n      0x3f32684a32a11dabdbb8c0177de80aa3ae36a004d75210335b49e544e48cd0aa\n      mload(0x40)\n      mload(0x40)\n      dup1\n      swap2\n      sub\n      swap1\n      log2\n        /* \"core/RWAMintControllerVault.sol\":16024:16217  function setOracle(address _oracle) external onlyOwner {... */\n      pop\n      jump\t// out\n        /* \"core/RWAMintControllerVault.sol\":12063:13221  function redeem(... */\n    tag_79:\n        /* \"core/RWAMintControllerVault.sol\":12207:12226  uint256 rwaRequired */\n      0x00\n        /* \"core/RWAMintControllerVault.sol\":12240:12258  uint256 usdcAmount */\n      0x00\n        /* \"@openzeppelin/contracts/utils/ReentrancyGuard.sol\":3023:3044  _nonReentrantBefore() */\n      tag_216\n        /* \"@openzeppelin/contracts/utils/ReentrancyGuard.sol\":3023:3042  _nonReentrantBefore */\n      tag_122\n        /* \"@openzeppelin/contracts/utils/ReentrancyGuard.sol\":3023:3044  _nonReentrantBefore() */\n      jump\t// in\n    tag_216:\n        /* \"core/RWAMintControllerVault.sol\":12291:12302  initialized */\n      0x02\n      0x14\n      swap1\n      sload\n      swap1\n      0x0100\n      exp\n      swap1\n      div\n      0xff\n      and\n        /* \"core/RWAMintControllerVault.sol\":12283:12322  require(initialized, \"not initialized\") */\n      tag_218\n      jumpi\n      mload(0x40)\n      0x08c379a000000000000000000000000000000000000000000000000000000000\n      dup2\n      mstore\n      0x04\n      add\n      tag_219\n      swap1\n      tag_126\n      jump\t// in\n    tag_219:\n      mload(0x40)\n      dup1\n      swap2\n      sub\n      swap1\n      revert\n    tag_218:\n        /* \"core/RWAMintControllerVault.sol\":12341:12353  redeemPaused */\n      0x02\n      0x16\n      swap1\n      sload\n      swap1\n      0x0100\n      exp\n      swap1\n      div\n      0xff\n      and\n        /* \"core/RWAMintControllerVault.sol\":12340:12353  !redeemPaused */\n      iszero\n        /* \"core/RWAMintControllerVault.sol\":12332:12371  require(!redeemPaused, \"redeem paused\") */\n      tag_220\n      jumpi\n      mload(0x40)\n      0x08c379a000000000000000000000000000000000000000000000000000000000\n      dup2\n      mstore\n      0x04\n      add\n      tag_221\n      swap1\n      tag_222\n      jump\t// in\n    tag_221:\n      mload(0x40)\n      dup1\n      swap2\n      sub\n      swap1\n      revert\n    tag_220:\n        /* \"core/RWAMintControllerVault.sol\":12400:12401  0 */\n      0x00\n        /* \"core/RWAMintControllerVault.sol\":12389:12397  maxRwaIn */\n      dup5\n        /* \"core/RWAMintControllerVault.sol\":12389:12401  maxRwaIn > 0 */\n      gt\n        /* \"core/RWAMintControllerVault.sol\":12381:12414  require(maxRwaIn > 0, \"zero RWA\") */\n      tag_223\n      jumpi\n      mload(0x40)\n      0x08c379a000000000000000000000000000000000000000000000000000000000\n      dup2\n      mstore\n      0x04\n      add\n      tag_224\n      swap1\n      tag_225\n      jump\t// in\n    tag_224:\n      mload(0x40)\n      dup1\n      swap2\n      sub\n      swap1\n      revert\n    tag_223:\n        /* \"core/RWAMintControllerVault.sol\":12425:12448  ReserveData memory data */\n      0x00\n        /* \"core/RWAMintControllerVault.sol\":12451:12472  _getValidOracleData() */\n      tag_226\n        /* \"core/RWAMintControllerVault.sol\":12451:12470  _getValidOracleData */\n      tag_134\n        /* \"core/RWAMintControllerVault.sol\":12451:12472  _getValidOracleData() */\n      jump\t// in\n    tag_226:\n        /* \"core/RWAMintControllerVault.sol\":12425:12472  ReserveData memory data = _getValidOracleData() */\n      swap1\n      pop\n        /* \"core/RWAMintControllerVault.sol\":12482:12498  uint256 navUSD18 */\n      0x00\n        /* \"core/RWAMintControllerVault.sol\":12501:12524  _navPerTokenUSD18(data) */\n      tag_227\n        /* \"core/RWAMintControllerVault.sol\":12519:12523  data */\n      dup3\n        /* \"core/RWAMintControllerVault.sol\":12501:12518  _navPerTokenUSD18 */\n      tag_136\n        /* \"core/RWAMintControllerVault.sol\":12501:12524  _navPerTokenUSD18(data) */\n      jump\t// in\n    tag_227:\n        /* \"core/RWAMintControllerVault.sol\":12482:12524  uint256 navUSD18 = _navPerTokenUSD18(data) */\n      swap1\n      pop\n        /* \"core/RWAMintControllerVault.sol\":12575:12607  _quoteRedeem(maxRwaIn, navUSD18) */\n      tag_228\n        /* \"core/RWAMintControllerVault.sol\":12588:12596  maxRwaIn */\n      dup7\n        /* \"core/RWAMintControllerVault.sol\":12598:12606  navUSD18 */\n      dup3\n        /* \"core/RWAMintControllerVault.sol\":12575:12587  _quoteRedeem */\n      tag_166\n        /* \"core/RWAMintControllerVault.sol\":12575:12607  _quoteRedeem(maxRwaIn, navUSD18) */\n      jump\t// in\n    tag_228:\n        /* \"core/RWAMintControllerVault.sol\":12535:12607  (rwaRequired, usdcAmount) =... */\n      dup1\n      swap5\n      pop\n      dup2\n      swap6\n      pop\n      pop\n      pop\n        /* \"core/RWAMintControllerVault.sol\":12640:12641  0 */\n      0x00\n        /* \"core/RWAMintControllerVault.sol\":12626:12637  rwaRequired */\n      dup5\n        /* \"core/RWAMintControllerVault.sol\":12626:12641  rwaRequired > 0 */\n      gt\n        /* \"core/RWAMintControllerVault.sol\":12618:12663  require(rwaRequired > 0, \"zero RWA required\") */\n      tag_229\n      jumpi\n      mload(0x40)\n      0x08c379a000000000000000000000000000000000000000000000000000000000\n      dup2\n      mstore\n      0x04\n      add\n      tag_230\n      swap1\n      tag_231\n      jump\t// in\n    tag_230:\n      mload(0x40)\n      dup1\n      swap2\n      sub\n      swap1\n      revert\n    tag_229:\n        /* \"core/RWAMintControllerVault.sol\":12696:12704  maxRwaIn */\n      dup6\n        /* \"core/RWAMintControllerVault.sol\":12681:12692  rwaRequired */\n      dup5\n        /* \"core/RWAMintControllerVault.sol\":12681:12704  rwaRequired <= maxRwaIn */\n      gt\n      iszero\n        /* \"core/RWAMintControllerVault.sol\":12673:12733  require(rwaRequired <= maxRwaIn, \"RWA required exceeds max\") */\n      tag_232\n      jumpi\n      mload(0x40)\n      0x08c379a000000000000000000000000000000000000000000000000000000000\n      dup2\n      mstore\n      0x04\n      add\n      tag_233\n      swap1\n      tag_234\n      jump\t// in\n    tag_233:\n      mload(0x40)\n      dup1\n      swap2\n      sub\n      swap1\n      revert\n    tag_232:\n        /* \"core/RWAMintControllerVault.sol\":12764:12765  0 */\n      0x00\n        /* \"core/RWAMintControllerVault.sol\":12751:12761  usdcAmount */\n      dup4\n        /* \"core/RWAMintControllerVault.sol\":12751:12765  usdcAmount > 0 */\n      gt\n        /* \"core/RWAMintControllerVault.sol\":12743:12788  require(usdcAmount > 0, \"zero redeem amount\") */\n      tag_235\n      jumpi\n      mload(0x40)\n      0x08c379a000000000000000000000000000000000000000000000000000000000\n      dup2\n      mstore\n      0x04\n      add\n      tag_236\n      swap1\n      tag_237\n      jump\t// in\n    tag_236:\n      mload(0x40)\n      dup1\n      swap2\n      sub\n      swap1\n      revert\n    tag_235:\n        /* \"core/RWAMintControllerVault.sol\":12820:12830  minUSDCOut */\n      dup5\n        /* \"core/RWAMintControllerVault.sol\":12806:12816  usdcAmount */\n      dup4\n        /* \"core/RWAMintControllerVault.sol\":12806:12830  usdcAmount >= minUSDCOut */\n      lt\n      iszero\n        /* \"core/RWAMintControllerVault.sol\":12798:12856  require(usdcAmount >= minUSDCOut, \"insufficient USDC out\") */\n      tag_238\n      jumpi\n      mload(0x40)\n      0x08c379a000000000000000000000000000000000000000000000000000000000\n      dup2\n      mstore\n      0x04\n      add\n      tag_239\n      swap1\n      tag_240\n      jump\t// in\n    tag_239:\n      mload(0x40)\n      dup1\n      swap2\n      sub\n      swap1\n      revert\n    tag_238:\n        /* \"core/RWAMintControllerVault.sol\":12921:12931  usdcAmount */\n      dup3\n        /* \"core/RWAMintControllerVault.sol\":12888:12892  usdc */\n      immutable(\"0x29f8d1998cd4186678d0085cd54072aeefd05bc476ef1844361510d857ac074b\")\n        /* \"core/RWAMintControllerVault.sol\":12888:12902  usdc.balanceOf */\n      0xffffffffffffffffffffffffffffffffffffffff\n      and\n      0x70a08231\n        /* \"core/RWAMintControllerVault.sol\":12911:12915  this */\n      address\n        /* \"core/RWAMintControllerVault.sol\":12888:12917  usdc.balanceOf(address(this)) */\n      mload(0x40)\n      dup3\n      0xffffffff\n      and\n      0xe0\n      shl\n      dup2\n      mstore\n      0x04\n      add\n      tag_241\n      swap2\n      swap1\n      tag_43\n      jump\t// in\n    tag_241:\n      0x20\n      mload(0x40)\n      dup1\n      dup4\n      sub\n      dup2\n      dup7\n      gas\n      staticcall\n      iszero\n      dup1\n      iszero\n      tag_243\n      jumpi\n      returndatacopy(0x00, 0x00, returndatasize)\n      revert(0x00, returndatasize)\n    tag_243:\n      pop\n      pop\n      pop\n      pop\n      mload(0x40)\n      returndatasize\n      not(0x1f)\n      0x1f\n      dup3\n      add\n      and\n      dup3\n      add\n      dup1\n      0x40\n      mstore\n      pop\n      dup2\n      add\n      swap1\n      tag_244\n      swap2\n      swap1\n      tag_178\n      jump\t// in\n    tag_244:\n        /* \"core/RWAMintControllerVault.sol\":12888:12931  usdc.balanceOf(address(this)) >= usdcAmount */\n      lt\n      iszero\n        /* \"core/RWAMintControllerVault.sol\":12867:12984  require(... */\n      tag_245\n      jumpi\n      mload(0x40)\n      0x08c379a000000000000000000000000000000000000000000000000000000000\n      dup2\n      mstore\n      0x04\n      add\n      tag_246\n      swap1\n      tag_247\n      jump\t// in\n    tag_246:\n      mload(0x40)\n      dup1\n      swap2\n      sub\n      swap1\n      revert\n    tag_245:\n        /* \"core/RWAMintControllerVault.sol\":12995:13003  rwaToken */\n      immutable(\"0x2b788c69c84726cb61a0641c648d01bc1bc6568bcab92e0e8975f165cd12fe81\")\n        /* \"core/RWAMintControllerVault.sol\":12995:13008  rwaToken.burn */\n      0xffffffffffffffffffffffffffffffffffffffff\n      and\n      0x9dc29fac\n        /* \"core/RWAMintControllerVault.sol\":13009:13019  msg.sender */\n      caller\n        /* \"core/RWAMintControllerVault.sol\":13021:13032  rwaRequired */\n      dup7\n        /* \"core/RWAMintControllerVault.sol\":12995:13033  rwaToken.burn(msg.sender, rwaRequired) */\n      mload(0x40)\n      dup4\n      0xffffffff\n      and\n      0xe0\n      shl\n      dup2\n      mstore\n      0x04\n      add\n      tag_248\n      swap3\n      swap2\n      swap1\n      tag_154\n      jump\t// in\n    tag_248:\n      0x00\n      mload(0x40)\n      dup1\n      dup4\n      sub\n      dup2\n      0x00\n      dup8\n      dup1\n      extcodesize\n      iszero\n      dup1\n      iszero\n      tag_249\n      jumpi\n      revert(0x00, 0x00)\n    tag_249:\n      pop\n      gas\n      call\n      iszero\n      dup1\n      iszero\n      tag_251\n      jumpi\n      returndatacopy(0x00, 0x00, returndatasize)\n      revert(0x00, returndatasize)\n    tag_251:\n      pop\n      pop\n      pop\n      pop\n        /* \"core/RWAMintControllerVault.sol\":13044:13085  usdc.safeTransfer(msg.sender, usdcAmount) */\n      tag_252\n        /* \"core/RWAMintControllerVault.sol\":13062:13072  msg.sender */\n      caller\n        /* \"core/RWAMintControllerVault.sol\":13074:13084  usdcAmount */\n      dup5\n        /* \"core/RWAMintControllerVault.sol\":13044:13048  usdc */\n      immutable(\"0x29f8d1998cd4186678d0085cd54072aeefd05bc476ef1844361510d857ac074b\")\n        /* \"core/RWAMintControllerVault.sol\":13044:13061  usdc.safeTransfer */\n      0xffffffffffffffffffffffffffffffffffffffff\n      and\n      tag_253\n      swap1\n        /* \"core/RWAMintControllerVault.sol\":13044:13085  usdc.safeTransfer(msg.sender, usdcAmount) */\n      swap3\n      swap2\n      swap1\n      0xffffffff\n      and\n      jump\t// in\n    tag_252:\n        /* \"core/RWAMintControllerVault.sol\":13123:13133  msg.sender */\n      caller\n        /* \"core/RWAMintControllerVault.sol\":13101:13214  Redeemed(... */\n      0xffffffffffffffffffffffffffffffffffffffff\n      and\n      0x484c40561359f3e3b8be9101897f8680aa82fbe1df9fd9038e0dbc6284032646\n        /* \"core/RWAMintControllerVault.sol\":13147:13158  rwaRequired */\n      dup6\n        /* \"core/RWAMintControllerVault.sol\":13172:13180  navUSD18 */\n      dup4\n        /* \"core/RWAMintControllerVault.sol\":13194:13204  usdcAmount */\n      dup7\n        /* \"core/RWAMintControllerVault.sol\":13101:13214  Redeemed(... */\n      mload(0x40)\n      tag_254\n      swap4\n      swap3\n      swap2\n      swap1\n      tag_159\n      jump\t// in\n    tag_254:\n      mload(0x40)\n      dup1\n      swap2\n      sub\n      swap1\n      log2\n        /* \"core/RWAMintControllerVault.sol\":12273:13221  {... */\n      pop\n      pop\n        /* \"@openzeppelin/contracts/utils/ReentrancyGuard.sol\":3065:3085  _nonReentrantAfter() */\n      tag_255\n        /* \"@openzeppelin/contracts/utils/ReentrancyGuard.sol\":3065:3083  _nonReentrantAfter */\n      tag_161\n        /* \"@openzeppelin/contracts/utils/ReentrancyGuard.sol\":3065:3085  _nonReentrantAfter() */\n      jump\t// in\n    tag_255:\n        /* \"core/RWAMintControllerVault.sol\":12063:13221  function redeem(... */\n      swap3\n      pop\n      swap3\n      swap1\n      pop\n      jump\t// out\n        /* \"core/RWAMintControllerVault.sol\":1747:1775  IReserveOracle public oracle */\n    tag_82:\n      0x01\n      0x00\n      swap1\n      sload\n      swap1\n      0x0100\n      exp\n      swap1\n      div\n      0xffffffffffffffffffffffffffffffffffffffff\n      and\n      dup2\n      jump\t// out\n        /* \"core/RWAMintControllerVault.sol\":2470:2492  bool public mintPaused */\n    tag_86:\n      0x02\n      0x15\n      swap1\n      sload\n      swap1\n      0x0100\n      exp\n      swap1\n      div\n      0xff\n      and\n      dup2\n      jump\t// out\n        /* \"@openzeppelin/contracts/access/Ownable.sol\":1638:1723  function owner() public view virtual returns (address) {... */\n    tag_89:\n        /* \"@openzeppelin/contracts/access/Ownable.sol\":1684:1691  address */\n      0x00\n        /* \"@openzeppelin/contracts/access/Ownable.sol\":1710:1716  _owner */\n      0x00\n      0x00\n      swap1\n      sload\n      swap1\n      0x0100\n      exp\n      swap1\n      div\n      0xffffffffffffffffffffffffffffffffffffffff\n      and\n        /* \"@openzeppelin/contracts/access/Ownable.sol\":1703:1716  return _owner */\n      swap1\n      pop\n        /* \"@openzeppelin/contracts/access/Ownable.sol\":1638:1723  function owner() public view virtual returns (address) {... */\n      swap1\n      jump\t// out\n        /* \"core/RWAMintControllerVault.sol\":5988:6162  function totalBackingValueUSD18() public view returns (uint256) {... */\n    tag_92:\n        /* \"core/RWAMintControllerVault.sol\":6043:6050  uint256 */\n      0x00\n        /* \"core/RWAMintControllerVault.sol\":6062:6085  ReserveData memory data */\n      0x00\n        /* \"core/RWAMintControllerVault.sol\":6088:6109  _getValidOracleData() */\n      tag_258\n        /* \"core/RWAMintControllerVault.sol\":6088:6107  _getValidOracleData */\n      tag_134\n        /* \"core/RWAMintControllerVault.sol\":6088:6109  _getValidOracleData() */\n      jump\t// in\n    tag_258:\n        /* \"core/RWAMintControllerVault.sol\":6062:6109  ReserveData memory data = _getValidOracleData() */\n      swap1\n      pop\n        /* \"core/RWAMintControllerVault.sol\":6126:6155  _totalBackingValueUSD18(data) */\n      tag_259\n        /* \"core/RWAMintControllerVault.sol\":6150:6154  data */\n      dup2\n        /* \"core/RWAMintControllerVault.sol\":6126:6149  _totalBackingValueUSD18 */\n      tag_260\n        /* \"core/RWAMintControllerVault.sol\":6126:6155  _totalBackingValueUSD18(data) */\n      jump\t// in\n    tag_259:\n        /* \"core/RWAMintControllerVault.sol\":6119:6155  return _totalBackingValueUSD18(data) */\n      swap2\n      pop\n      pop\n        /* \"core/RWAMintControllerVault.sol\":5988:6162  function totalBackingValueUSD18() public view returns (uint256) {... */\n      swap1\n      jump\t// out\n        /* \"core/RWAMintControllerVault.sol\":14506:15139  function requestRedeem(uint256 maxRwaIn) external {... */\n    tag_96:\n        /* \"core/RWAMintControllerVault.sol\":14574:14585  initialized */\n      0x02\n      0x14\n      swap1\n      sload\n      swap1\n      0x0100\n      exp\n      swap1\n      div\n      0xff\n      and\n        /* \"core/RWAMintControllerVault.sol\":14566:14605  require(initialized, \"not initialized\") */\n      tag_262\n      jumpi\n      mload(0x40)\n      0x08c379a000000000000000000000000000000000000000000000000000000000\n      dup2\n      mstore\n      0x04\n      add\n      tag_263\n      swap1\n      tag_126\n      jump\t// in\n    tag_263:\n      mload(0x40)\n      dup1\n      swap2\n      sub\n      swap1\n      revert\n    tag_262:\n        /* \"core/RWAMintControllerVault.sol\":14634:14635  0 */\n      0x00\n        /* \"core/RWAMintControllerVault.sol\":14623:14631  maxRwaIn */\n      dup2\n        /* \"core/RWAMintControllerVault.sol\":14623:14635  maxRwaIn > 0 */\n      gt\n        /* \"core/RWAMintControllerVault.sol\":14615:14648  require(maxRwaIn > 0, \"zero RWA\") */\n      tag_264\n      jumpi\n      mload(0x40)\n      0x08c379a000000000000000000000000000000000000000000000000000000000\n      dup2\n      mstore\n      0x04\n      add\n      tag_265\n      swap1\n      tag_225\n      jump\t// in\n    tag_265:\n      mload(0x40)\n      dup1\n      swap2\n      sub\n      swap1\n      revert\n    tag_264:\n        /* \"core/RWAMintControllerVault.sol\":14659:14682  ReserveData memory data */\n      0x00\n        /* \"core/RWAMintControllerVault.sol\":14685:14706  _getValidOracleData() */\n      tag_266\n        /* \"core/RWAMintControllerVault.sol\":14685:14704  _getValidOracleData */\n      tag_134\n        /* \"core/RWAMintControllerVault.sol\":14685:14706  _getValidOracleData() */\n      jump\t// in\n    tag_266:\n        /* \"core/RWAMintControllerVault.sol\":14659:14706  ReserveData memory data = _getValidOracleData() */\n      swap1\n      pop\n        /* \"core/RWAMintControllerVault.sol\":14716:14732  uint256 navUSD18 */\n      0x00\n        /* \"core/RWAMintControllerVault.sol\":14735:14758  _navPerTokenUSD18(data) */\n      tag_267\n        /* \"core/RWAMintControllerVault.sol\":14753:14757  data */\n      dup3\n        /* \"core/RWAMintControllerVault.sol\":14735:14752  _navPerTokenUSD18 */\n      tag_136\n        /* \"core/RWAMintControllerVault.sol\":14735:14758  _navPerTokenUSD18(data) */\n      jump\t// in\n    tag_267:\n        /* \"core/RWAMintControllerVault.sol\":14716:14758  uint256 navUSD18 = _navPerTokenUSD18(data) */\n      swap1\n      pop\n        /* \"core/RWAMintControllerVault.sol\":14770:14789  uint256 rwaRequired */\n      0x00\n        /* \"core/RWAMintControllerVault.sol\":14791:14817  uint256 expectedUSDCAmount */\n      0x00\n        /* \"core/RWAMintControllerVault.sol\":14833:14865  _quoteRedeem(maxRwaIn, navUSD18) */\n      tag_268\n        /* \"core/RWAMintControllerVault.sol\":14846:14854  maxRwaIn */\n      dup6\n        /* \"core/RWAMintControllerVault.sol\":14856:14864  navUSD18 */\n      dup5\n        /* \"core/RWAMintControllerVault.sol\":14833:14845  _quoteRedeem */\n      tag_166\n        /* \"core/RWAMintControllerVault.sol\":14833:14865  _quoteRedeem(maxRwaIn, navUSD18) */\n      jump\t// in\n    tag_268:\n        /* \"core/RWAMintControllerVault.sol\":14769:14865  (uint256 rwaRequired, uint256 expectedUSDCAmount) =... */\n      swap2\n      pop\n      swap2\n      pop\n        /* \"core/RWAMintControllerVault.sol\":14898:14899  0 */\n      0x00\n        /* \"core/RWAMintControllerVault.sol\":14884:14895  rwaRequired */\n      dup3\n        /* \"core/RWAMintControllerVault.sol\":14884:14899  rwaRequired > 0 */\n      gt\n        /* \"core/RWAMintControllerVault.sol\":14876:14921  require(rwaRequired > 0, \"zero RWA required\") */\n      tag_269\n      jumpi\n      mload(0x40)\n      0x08c379a000000000000000000000000000000000000000000000000000000000\n      dup2\n      mstore\n      0x04\n      add\n      tag_270\n      swap1\n      tag_231\n      jump\t// in\n    tag_270:\n      mload(0x40)\n      dup1\n      swap2\n      sub\n      swap1\n      revert\n    tag_269:\n        /* \"core/RWAMintControllerVault.sol\":14960:14961  0 */\n      0x00\n        /* \"core/RWAMintControllerVault.sol\":14939:14957  expectedUSDCAmount */\n      dup2\n        /* \"core/RWAMintControllerVault.sol\":14939:14961  expectedUSDCAmount > 0 */\n      gt\n        /* \"core/RWAMintControllerVault.sol\":14931:14984  require(expectedUSDCAmount > 0, \"zero redeem amount\") */\n      tag_271\n      jumpi\n      mload(0x40)\n      0x08c379a000000000000000000000000000000000000000000000000000000000\n      dup2\n      mstore\n      0x04\n      add\n      tag_272\n      swap1\n      tag_237\n      jump\t// in\n    tag_272:\n      mload(0x40)\n      dup1\n      swap2\n      sub\n      swap1\n      revert\n    tag_271:\n        /* \"core/RWAMintControllerVault.sol\":15033:15043  msg.sender */\n      caller\n        /* \"core/RWAMintControllerVault.sol\":15000:15132  RedemptionRequested(... */\n      0xffffffffffffffffffffffffffffffffffffffff\n      and\n      0x5952c21ab4e64f9ce2d0daf53a8286da3c634eab5a86ccdf38ebefc3087ea301\n        /* \"core/RWAMintControllerVault.sol\":15057:15068  rwaRequired */\n      dup4\n        /* \"core/RWAMintControllerVault.sol\":15082:15090  navUSD18 */\n      dup6\n        /* \"core/RWAMintControllerVault.sol\":15104:15122  expectedUSDCAmount */\n      dup5\n        /* \"core/RWAMintControllerVault.sol\":15000:15132  RedemptionRequested(... */\n      mload(0x40)\n      tag_273\n      swap4\n      swap3\n      swap2\n      swap1\n      tag_159\n      jump\t// in\n    tag_273:\n      mload(0x40)\n      dup1\n      swap2\n      sub\n      swap1\n      log2\n        /* \"core/RWAMintControllerVault.sol\":14556:15139  {... */\n      pop\n      pop\n      pop\n      pop\n        /* \"core/RWAMintControllerVault.sol\":14506:15139  function requestRedeem(uint256 maxRwaIn) external {... */\n      pop\n      jump\t// out\n        /* \"core/RWAMintControllerVault.sol\":2498:2522  bool public redeemPaused */\n    tag_98:\n      0x02\n      0x16\n      swap1\n      sload\n      swap1\n      0x0100\n      exp\n      swap1\n      div\n      0xff\n      and\n      dup2\n      jump\t// out\n        /* \"core/RWAMintControllerVault.sol\":15327:15454  function setMintPaused(bool paused) external onlyOwner {... */\n    tag_103:\n        /* \"@openzeppelin/contracts/access/Ownable.sol\":1531:1544  _checkOwner() */\n      tag_275\n        /* \"@openzeppelin/contracts/access/Ownable.sol\":1531:1542  _checkOwner */\n      tag_169\n        /* \"@openzeppelin/contracts/access/Ownable.sol\":1531:1544  _checkOwner() */\n      jump\t// in\n    tag_275:\n        /* \"core/RWAMintControllerVault.sol\":15405:15411  paused */\n      dup1\n        /* \"core/RWAMintControllerVault.sol\":15392:15402  mintPaused */\n      0x02\n      0x15\n        /* \"core/RWAMintControllerVault.sol\":15392:15411  mintPaused = paused */\n      0x0100\n      exp\n      dup2\n      sload\n      dup2\n      0xff\n      mul\n      not\n      and\n      swap1\n      dup4\n      iszero\n      iszero\n      mul\n      or\n      swap1\n      sstore\n      pop\n        /* \"core/RWAMintControllerVault.sol\":15426:15447  MintPausedSet(paused) */\n      0x0fb79081612032f5ce63340f421121d9f8b8ea04158f08b2dfafacb3393caf98\n        /* \"core/RWAMintControllerVault.sol\":15440:15446  paused */\n      dup2\n        /* \"core/RWAMintControllerVault.sol\":15426:15447  MintPausedSet(paused) */\n      mload(0x40)\n      tag_277\n      swap2\n      swap1\n      tag_39\n      jump\t// in\n    tag_277:\n      mload(0x40)\n      dup1\n      swap2\n      sub\n      swap1\n      log1\n        /* \"core/RWAMintControllerVault.sol\":15327:15454  function setMintPaused(bool paused) external onlyOwner {... */\n      pop\n      jump\t// out\n        /* \"core/RWAMintControllerVault.sol\":6715:6828  function vaultUSDCBalance() external view returns (uint256) {... */\n    tag_105:\n        /* \"core/RWAMintControllerVault.sol\":6766:6773  uint256 */\n      0x00\n        /* \"core/RWAMintControllerVault.sol\":6792:6796  usdc */\n      immutable(\"0x29f8d1998cd4186678d0085cd54072aeefd05bc476ef1844361510d857ac074b\")\n        /* \"core/RWAMintControllerVault.sol\":6792:6806  usdc.balanceOf */\n      0xffffffffffffffffffffffffffffffffffffffff\n      and\n      0x70a08231\n        /* \"core/RWAMintControllerVault.sol\":6815:6819  this */\n      address\n        /* \"core/RWAMintControllerVault.sol\":6792:6821  usdc.balanceOf(address(this)) */\n      mload(0x40)\n      dup3\n      0xffffffff\n      and\n      0xe0\n      shl\n      dup2\n      mstore\n      0x04\n      add\n      tag_279\n      swap2\n      swap1\n      tag_43\n      jump\t// in\n    tag_279:\n      0x20\n      mload(0x40)\n      dup1\n      dup4\n      sub\n      dup2\n      dup7\n      gas\n      staticcall\n      iszero\n      dup1\n      iszero\n      tag_281\n      jumpi\n      returndatacopy(0x00, 0x00, returndatasize)\n      revert(0x00, returndatasize)\n    tag_281:\n      pop\n      pop\n      pop\n      pop\n      mload(0x40)\n      returndatasize\n      not(0x1f)\n      0x1f\n      dup3\n      add\n      and\n      dup3\n      add\n      dup1\n      0x40\n      mstore\n      pop\n      dup2\n      add\n      swap1\n      tag_282\n      swap2\n      swap1\n      tag_178\n      jump\t// in\n    tag_282:\n        /* \"core/RWAMintControllerVault.sol\":6785:6821  return usdc.balanceOf(address(this)) */\n      swap1\n      pop\n        /* \"core/RWAMintControllerVault.sol\":6715:6828  function vaultUSDCBalance() external view returns (uint256) {... */\n      swap1\n      jump\t// out\n        /* \"core/RWAMintControllerVault.sol\":6917:7278  function previewMintWithUSDC(... */\n    tag_109:\n        /* \"core/RWAMintControllerVault.sol\":7039:7056  uint256 rwaAmount */\n      0x00\n        /* \"core/RWAMintControllerVault.sol\":7070:7090  uint256 usdcRequired */\n      0x00\n        /* \"core/RWAMintControllerVault.sol\":7115:7138  ReserveData memory data */\n      0x00\n        /* \"core/RWAMintControllerVault.sol\":7141:7162  _getValidOracleData() */\n      tag_284\n        /* \"core/RWAMintControllerVault.sol\":7141:7160  _getValidOracleData */\n      tag_134\n        /* \"core/RWAMintControllerVault.sol\":7141:7162  _getValidOracleData() */\n      jump\t// in\n    tag_284:\n        /* \"core/RWAMintControllerVault.sol\":7115:7162  ReserveData memory data = _getValidOracleData() */\n      swap1\n      pop\n        /* \"core/RWAMintControllerVault.sol\":7172:7188  uint256 navUSD18 */\n      0x00\n        /* \"core/RWAMintControllerVault.sol\":7191:7214  _navPerTokenUSD18(data) */\n      tag_285\n        /* \"core/RWAMintControllerVault.sol\":7209:7213  data */\n      dup3\n        /* \"core/RWAMintControllerVault.sol\":7191:7208  _navPerTokenUSD18 */\n      tag_136\n        /* \"core/RWAMintControllerVault.sol\":7191:7214  _navPerTokenUSD18(data) */\n      jump\t// in\n    tag_285:\n        /* \"core/RWAMintControllerVault.sol\":7172:7214  uint256 navUSD18 = _navPerTokenUSD18(data) */\n      swap1\n      pop\n        /* \"core/RWAMintControllerVault.sol\":7232:7271  _quoteMintWithUSDC(maxUSDCIn, navUSD18) */\n      tag_286\n        /* \"core/RWAMintControllerVault.sol\":7251:7260  maxUSDCIn */\n      dup6\n        /* \"core/RWAMintControllerVault.sol\":7262:7270  navUSD18 */\n      dup3\n        /* \"core/RWAMintControllerVault.sol\":7232:7250  _quoteMintWithUSDC */\n      tag_138\n        /* \"core/RWAMintControllerVault.sol\":7232:7271  _quoteMintWithUSDC(maxUSDCIn, navUSD18) */\n      jump\t// in\n    tag_286:\n        /* \"core/RWAMintControllerVault.sol\":7225:7271  return _quoteMintWithUSDC(maxUSDCIn, navUSD18) */\n      swap4\n      pop\n      swap4\n      pop\n      pop\n      pop\n        /* \"core/RWAMintControllerVault.sol\":6917:7278  function previewMintWithUSDC(... */\n      swap2\n      pop\n      swap2\n      jump\t// out\n        /* \"core/RWAMintControllerVault.sol\":15460:15593  function setRedeemPaused(bool paused) external onlyOwner {... */\n    tag_113:\n        /* \"@openzeppelin/contracts/access/Ownable.sol\":1531:1544  _checkOwner() */\n      tag_288\n        /* \"@openzeppelin/contracts/access/Ownable.sol\":1531:1542  _checkOwner */\n      tag_169\n        /* \"@openzeppelin/contracts/access/Ownable.sol\":1531:1544  _checkOwner() */\n      jump\t// in\n    tag_288:\n        /* \"core/RWAMintControllerVault.sol\":15542:15548  paused */\n      dup1\n        /* \"core/RWAMintControllerVault.sol\":15527:15539  redeemPaused */\n      0x02\n      0x16\n        /* \"core/RWAMintControllerVault.sol\":15527:15548  redeemPaused = paused */\n      0x0100\n      exp\n      dup2\n      sload\n      dup2\n      0xff\n      mul\n      not\n      and\n      swap1\n      dup4\n      iszero\n      iszero\n      mul\n      or\n      swap1\n      sstore\n      pop\n        /* \"core/RWAMintControllerVault.sol\":15563:15586  RedeemPausedSet(paused) */\n      0xcab6eb524363ce625bcd6d709065fe3433487efebb486f47d00f3c310e952b63\n        /* \"core/RWAMintControllerVault.sol\":15579:15585  paused */\n      dup2\n        /* \"core/RWAMintControllerVault.sol\":15563:15586  RedeemPausedSet(paused) */\n      mload(0x40)\n      tag_290\n      swap2\n      swap1\n      tag_39\n      jump\t// in\n    tag_290:\n      mload(0x40)\n      dup1\n      swap2\n      sub\n      swap1\n      log1\n        /* \"core/RWAMintControllerVault.sol\":15460:15593  function setRedeemPaused(bool paused) external onlyOwner {... */\n      pop\n      jump\t// out\n        /* \"core/RWAMintControllerVault.sol\":15599:15835  function setMaxOracleDelay(... */\n    tag_116:\n        /* \"@openzeppelin/contracts/access/Ownable.sol\":1531:1544  _checkOwner() */\n      tag_292\n        /* \"@openzeppelin/contracts/access/Ownable.sol\":1531:1542  _checkOwner */\n      tag_169\n        /* \"@openzeppelin/contracts/access/Ownable.sol\":1531:1544  _checkOwner() */\n      jump\t// in\n    tag_292:\n        /* \"core/RWAMintControllerVault.sol\":15720:15721  0 */\n      0x00\n        /* \"core/RWAMintControllerVault.sol\":15702:15717  _maxOracleDelay */\n      dup2\n        /* \"core/RWAMintControllerVault.sol\":15702:15721  _maxOracleDelay > 0 */\n      gt\n        /* \"core/RWAMintControllerVault.sol\":15694:15735  require(_maxOracleDelay > 0, \"bad delay\") */\n      tag_294\n      jumpi\n      mload(0x40)\n      0x08c379a000000000000000000000000000000000000000000000000000000000\n      dup2\n      mstore\n      0x04\n      add\n      tag_295\n      swap1\n      tag_296\n      jump\t// in\n    tag_295:\n      mload(0x40)\n      dup1\n      swap2\n      sub\n      swap1\n      revert\n    tag_294:\n        /* \"core/RWAMintControllerVault.sol\":15763:15778  _maxOracleDelay */\n      dup1\n        /* \"core/RWAMintControllerVault.sol\":15746:15760  maxOracleDelay */\n      0x03\n        /* \"core/RWAMintControllerVault.sol\":15746:15778  maxOracleDelay = _maxOracleDelay */\n      dup2\n      swap1\n      sstore\n      pop\n        /* \"core/RWAMintControllerVault.sol\":15794:15828  MaxOracleDelaySet(_maxOracleDelay) */\n      0xb321aa162c9f5d4bbd1aee2493d56a1de75f6b43eb21e6987f5c67230000a3ca\n        /* \"core/RWAMintControllerVault.sol\":15812:15827  _maxOracleDelay */\n      dup2\n        /* \"core/RWAMintControllerVault.sol\":15794:15828  MaxOracleDelaySet(_maxOracleDelay) */\n      mload(0x40)\n      tag_297\n      swap2\n      swap1\n      tag_62\n      jump\t// in\n    tag_297:\n      mload(0x40)\n      dup1\n      swap2\n      sub\n      swap1\n      log1\n        /* \"core/RWAMintControllerVault.sol\":15599:15835  function setMaxOracleDelay(... */\n      pop\n      jump\t// out\n        /* \"@openzeppelin/contracts/access/Ownable.sol\":2543:2758  function transferOwnership(address newOwner) public virtual onlyOwner {... */\n    tag_119:\n        /* \"@openzeppelin/contracts/access/Ownable.sol\":1531:1544  _checkOwner() */\n      tag_299\n        /* \"@openzeppelin/contracts/access/Ownable.sol\":1531:1542  _checkOwner */\n      tag_169\n        /* \"@openzeppelin/contracts/access/Ownable.sol\":1531:1544  _checkOwner() */\n      jump\t// in\n    tag_299:\n        /* \"@openzeppelin/contracts/access/Ownable.sol\":2647:2648  0 */\n      0x00\n        /* \"@openzeppelin/contracts/access/Ownable.sol\":2627:2649  newOwner == address(0) */\n      0xffffffffffffffffffffffffffffffffffffffff\n      and\n        /* \"@openzeppelin/contracts/access/Ownable.sol\":2627:2635  newOwner */\n      dup2\n        /* \"@openzeppelin/contracts/access/Ownable.sol\":2627:2649  newOwner == address(0) */\n      0xffffffffffffffffffffffffffffffffffffffff\n      and\n      sub\n        /* \"@openzeppelin/contracts/access/Ownable.sol\":2623:2714  if (newOwner == address(0)) {... */\n      tag_301\n      jumpi\n        /* \"@openzeppelin/contracts/access/Ownable.sol\":2700:2701  0 */\n      0x00\n        /* \"@openzeppelin/contracts/access/Ownable.sol\":2672:2703  OwnableInvalidOwner(address(0)) */\n      mload(0x40)\n      0x1e4fbdf700000000000000000000000000000000000000000000000000000000\n      dup2\n      mstore\n      0x04\n      add\n      tag_302\n      swap2\n      swap1\n      tag_43\n      jump\t// in\n    tag_302:\n      mload(0x40)\n      dup1\n      swap2\n      sub\n      swap1\n      revert\n        /* \"@openzeppelin/contracts/access/Ownable.sol\":2623:2714  if (newOwner == address(0)) {... */\n    tag_301:\n        /* \"@openzeppelin/contracts/access/Ownable.sol\":2723:2751  _transferOwnership(newOwner) */\n      tag_303\n        /* \"@openzeppelin/contracts/access/Ownable.sol\":2742:2750  newOwner */\n      dup2\n        /* \"@openzeppelin/contracts/access/Ownable.sol\":2723:2741  _transferOwnership */\n      tag_186\n        /* \"@openzeppelin/contracts/access/Ownable.sol\":2723:2751  _transferOwnership(newOwner) */\n      jump\t// in\n    tag_303:\n        /* \"@openzeppelin/contracts/access/Ownable.sol\":2543:2758  function transferOwnership(address newOwner) public virtual onlyOwner {... */\n      pop\n      jump\t// out\n        /* \"@openzeppelin/contracts/utils/ReentrancyGuard.sol\":3749:4041  function _nonReentrantBefore() private {... */\n    tag_122:\n        /* \"@openzeppelin/contracts/utils/ReentrancyGuard.sol\":3872:3897  _nonReentrantBeforeView() */\n      tag_305\n        /* \"@openzeppelin/contracts/utils/ReentrancyGuard.sol\":3872:3895  _nonReentrantBeforeView */\n      tag_306\n        /* \"@openzeppelin/contracts/utils/ReentrancyGuard.sol\":3872:3897  _nonReentrantBeforeView() */\n      jump\t// in\n    tag_305:\n        /* \"@openzeppelin/contracts/utils/ReentrancyGuard.sol\":2407:2408  2 */\n      0x02\n        /* \"@openzeppelin/contracts/utils/ReentrancyGuard.sol\":3972:4018  _reentrancyGuardStorageSlot().getUint256Slot() */\n      tag_307\n        /* \"@openzeppelin/contracts/utils/ReentrancyGuard.sol\":3972:4001  _reentrancyGuardStorageSlot() */\n      tag_308\n        /* \"@openzeppelin/contracts/utils/ReentrancyGuard.sol\":3972:3999  _reentrancyGuardStorageSlot */\n      tag_309\n        /* \"@openzeppelin/contracts/utils/ReentrancyGuard.sol\":3972:4001  _reentrancyGuardStorageSlot() */\n      jump\t// in\n    tag_308:\n        /* \"@openzeppelin/contracts/utils/ReentrancyGuard.sol\":3972:4016  _reentrancyGuardStorageSlot().getUint256Slot */\n      tag_310\n        /* \"@openzeppelin/contracts/utils/ReentrancyGuard.sol\":3972:4018  _reentrancyGuardStorageSlot().getUint256Slot() */\n      jump\t// in\n    tag_307:\n        /* \"@openzeppelin/contracts/utils/ReentrancyGuard.sol\":3972:4024  _reentrancyGuardStorageSlot().getUint256Slot().value */\n      0x00\n      add\n        /* \"@openzeppelin/contracts/utils/ReentrancyGuard.sol\":3972:4034  _reentrancyGuardStorageSlot().getUint256Slot().value = ENTERED */\n      dup2\n      swap1\n      sstore\n      pop\n        /* \"@openzeppelin/contracts/utils/ReentrancyGuard.sol\":3749:4041  function _nonReentrantBefore() private {... */\n      jump\t// out\n        /* \"core/RWAMintControllerVault.sol\":16415:16862  function _getValidOracleData()... */\n    tag_134:\n        /* \"core/RWAMintControllerVault.sol\":16493:16516  ReserveData memory data */\n      tag_311\n      tag_312\n      jump\t// in\n    tag_311:\n        /* \"core/RWAMintControllerVault.sol\":16539:16545  oracle */\n      0x01\n      0x00\n      swap1\n      sload\n      swap1\n      0x0100\n      exp\n      swap1\n      div\n      0xffffffffffffffffffffffffffffffffffffffff\n      and\n        /* \"core/RWAMintControllerVault.sol\":16539:16566  oracle.getLatestReserveData */\n      0xffffffffffffffffffffffffffffffffffffffff\n      and\n      0x186f34d5\n        /* \"core/RWAMintControllerVault.sol\":16539:16568  oracle.getLatestReserveData() */\n      mload(0x40)\n      dup2\n      0xffffffff\n      and\n      0xe0\n      shl\n      dup2\n      mstore\n      0x04\n      add\n      0x80\n      mload(0x40)\n      dup1\n      dup4\n      sub\n      dup2\n      dup7\n      gas\n      staticcall\n      iszero\n      dup1\n      iszero\n      tag_315\n      jumpi\n      returndatacopy(0x00, 0x00, returndatasize)\n      revert(0x00, returndatasize)\n    tag_315:\n      pop\n      pop\n      pop\n      pop\n      mload(0x40)\n      returndatasize\n      not(0x1f)\n      0x1f\n      dup3\n      add\n      and\n      dup3\n      add\n      dup1\n      0x40\n      mstore\n      pop\n      dup2\n      add\n      swap1\n      tag_316\n      swap2\n      swap1\n      tag_317\n      jump\t// in\n    tag_316:\n        /* \"core/RWAMintControllerVault.sol\":16532:16568  data = oracle.getLatestReserveData() */\n      swap1\n      pop\n        /* \"core/RWAMintControllerVault.sol\":16587:16591  data */\n      dup1\n        /* \"core/RWAMintControllerVault.sol\":16587:16604  data.reserveValid */\n      0x20\n      add\n      mload\n        /* \"core/RWAMintControllerVault.sol\":16579:16624  require(data.reserveValid, \"reserve invalid\") */\n      tag_318\n      jumpi\n      mload(0x40)\n      0x08c379a000000000000000000000000000000000000000000000000000000000\n      dup2\n      mstore\n      0x04\n      add\n      tag_319\n      swap1\n      tag_320\n      jump\t// in\n    tag_319:\n      mload(0x40)\n      dup1\n      swap2\n      sub\n      swap1\n      revert\n    tag_318:\n        /* \"core/RWAMintControllerVault.sol\":16659:16660  0 */\n      0x00\n        /* \"core/RWAMintControllerVault.sol\":16642:16646  data */\n      dup2\n        /* \"core/RWAMintControllerVault.sol\":16642:16656  data.updatedAt */\n      0x40\n      add\n      mload\n        /* \"core/RWAMintControllerVault.sol\":16642:16660  data.updatedAt > 0 */\n      gt\n        /* \"core/RWAMintControllerVault.sol\":16634:16683  require(data.updatedAt > 0, \"oracle not updated\") */\n      tag_321\n      jumpi\n      mload(0x40)\n      0x08c379a000000000000000000000000000000000000000000000000000000000\n      dup2\n      mstore\n      0x04\n      add\n      tag_322\n      swap1\n      tag_323\n      jump\t// in\n    tag_322:\n      mload(0x40)\n      dup1\n      swap2\n      sub\n      swap1\n      revert\n    tag_321:\n        /* \"core/RWAMintControllerVault.sol\":16733:16734  0 */\n      0x00\n        /* \"core/RWAMintControllerVault.sol\":16715:16729  maxOracleDelay */\n      sload(0x03)\n        /* \"core/RWAMintControllerVault.sol\":16715:16734  maxOracleDelay == 0 */\n      eq\n        /* \"core/RWAMintControllerVault.sol\":16715:16790  maxOracleDelay == 0 || (block.timestamp - data.updatedAt <= maxOracleDelay) */\n      dup1\n      tag_324\n      jumpi\n      pop\n        /* \"core/RWAMintControllerVault.sol\":16775:16789  maxOracleDelay */\n      sload(0x03)\n        /* \"core/RWAMintControllerVault.sol\":16757:16761  data */\n      dup2\n        /* \"core/RWAMintControllerVault.sol\":16757:16771  data.updatedAt */\n      0x40\n      add\n      mload\n        /* \"core/RWAMintControllerVault.sol\":16739:16754  block.timestamp */\n      timestamp\n        /* \"core/RWAMintControllerVault.sol\":16739:16771  block.timestamp - data.updatedAt */\n      tag_325\n      swap2\n      swap1\n      tag_326\n      jump\t// in\n    tag_325:\n        /* \"core/RWAMintControllerVault.sol\":16739:16789  block.timestamp - data.updatedAt <= maxOracleDelay */\n      gt\n      iszero\n        /* \"core/RWAMintControllerVault.sol\":16715:16790  maxOracleDelay == 0 || (block.timestamp - data.updatedAt <= maxOracleDelay) */\n    tag_324:\n        /* \"core/RWAMintControllerVault.sol\":16694:16833  require(... */\n      tag_327\n      jumpi\n      mload(0x40)\n      0x08c379a000000000000000000000000000000000000000000000000000000000\n      dup2\n      mstore\n      0x04\n      add\n      tag_328\n      swap1\n      tag_329\n      jump\t// in\n    tag_328:\n      mload(0x40)\n      dup1\n      swap2\n      sub\n      swap1\n      revert\n    tag_327:\n        /* \"core/RWAMintControllerVault.sol\":16415:16862  function _getValidOracleData()... */\n      swap1\n      jump\t// out\n        /* \"core/RWAMintControllerVault.sol\":8197:8539  function _navPerTokenUSD18(... */\n    tag_136:\n        /* \"core/RWAMintControllerVault.sol\":8286:8293  uint256 */\n      0x00\n        /* \"core/RWAMintControllerVault.sol\":8305:8319  uint256 supply */\n      0x00\n        /* \"core/RWAMintControllerVault.sol\":8322:8330  rwaToken */\n      immutable(\"0x2b788c69c84726cb61a0641c648d01bc1bc6568bcab92e0e8975f165cd12fe81\")\n        /* \"core/RWAMintControllerVault.sol\":8322:8342  rwaToken.totalSupply */\n      0xffffffffffffffffffffffffffffffffffffffff\n      and\n      0x18160ddd\n        /* \"core/RWAMintControllerVault.sol\":8322:8344  rwaToken.totalSupply() */\n      mload(0x40)\n      dup2\n      0xffffffff\n      and\n      0xe0\n      shl\n      dup2\n      mstore\n      0x04\n      add\n      0x20\n      mload(0x40)\n      dup1\n      dup4\n      sub\n      dup2\n      dup7\n      gas\n      staticcall\n      iszero\n      dup1\n      iszero\n      tag_332\n      jumpi\n      returndatacopy(0x00, 0x00, returndatasize)\n      revert(0x00, returndatasize)\n    tag_332:\n      pop\n      pop\n      pop\n      pop\n      mload(0x40)\n      returndatasize\n      not(0x1f)\n      0x1f\n      dup3\n      add\n      and\n      dup3\n      add\n      dup1\n      0x40\n      mstore\n      pop\n      dup2\n      add\n      swap1\n      tag_333\n      swap2\n      swap1\n      tag_178\n      jump\t// in\n    tag_333:\n        /* \"core/RWAMintControllerVault.sol\":8305:8344  uint256 supply = rwaToken.totalSupply() */\n      swap1\n      pop\n        /* \"core/RWAMintControllerVault.sol\":8369:8370  0 */\n      0x00\n        /* \"core/RWAMintControllerVault.sol\":8359:8365  supply */\n      dup2\n        /* \"core/RWAMintControllerVault.sol\":8359:8370  supply == 0 */\n      sub\n        /* \"core/RWAMintControllerVault.sol\":8355:8419  if (supply == 0) {... */\n      tag_334\n      jumpi\n        /* \"core/RWAMintControllerVault.sol\":8393:8408  initialNAVUSD18 */\n      immutable(\"0x33e238d35c5878a00c0b41bb14bf170dc8975fbccc23fdcd4d6def8a35f2b4ff\")\n        /* \"core/RWAMintControllerVault.sol\":8386:8408  return initialNAVUSD18 */\n      swap2\n      pop\n      pop\n      jump(tag_330)\n        /* \"core/RWAMintControllerVault.sol\":8355:8419  if (supply == 0) {... */\n    tag_334:\n        /* \"core/RWAMintControllerVault.sol\":8429:8449  uint256 backingUSD18 */\n      0x00\n        /* \"core/RWAMintControllerVault.sol\":8452:8481  _totalBackingValueUSD18(data) */\n      tag_335\n        /* \"core/RWAMintControllerVault.sol\":8476:8480  data */\n      dup5\n        /* \"core/RWAMintControllerVault.sol\":8452:8475  _totalBackingValueUSD18 */\n      tag_260\n        /* \"core/RWAMintControllerVault.sol\":8452:8481  _totalBackingValueUSD18(data) */\n      jump\t// in\n    tag_335:\n        /* \"core/RWAMintControllerVault.sol\":8429:8481  uint256 backingUSD18 = _totalBackingValueUSD18(data) */\n      swap1\n      pop\n        /* \"core/RWAMintControllerVault.sol\":8526:8532  supply */\n      dup2\n        /* \"core/RWAMintControllerVault.sol\":8515:8522  rwaUnit */\n      immutable(\"0x554c46e96817775b8989ddc254d554940ba2015f43972fccfc1ecb50653ca381\")\n        /* \"core/RWAMintControllerVault.sol\":8500:8512  backingUSD18 */\n      dup3\n        /* \"core/RWAMintControllerVault.sol\":8500:8522  backingUSD18 * rwaUnit */\n      tag_336\n      swap2\n      swap1\n      tag_198\n      jump\t// in\n    tag_336:\n        /* \"core/RWAMintControllerVault.sol\":8499:8532  (backingUSD18 * rwaUnit) / supply */\n      tag_337\n      swap2\n      swap1\n      tag_200\n      jump\t// in\n    tag_337:\n        /* \"core/RWAMintControllerVault.sol\":8492:8532  return (backingUSD18 * rwaUnit) / supply */\n      swap3\n      pop\n      pop\n      pop\n        /* \"core/RWAMintControllerVault.sol\":8197:8539  function _navPerTokenUSD18(... */\n    tag_330:\n      swap2\n      swap1\n      pop\n      jump\t// out\n        /* \"core/RWAMintControllerVault.sol\":10284:11304  function _quoteMintWithUSDC(... */\n    tag_138:\n        /* \"core/RWAMintControllerVault.sol\":10431:10448  uint256 rwaAmount */\n      0x00\n        /* \"core/RWAMintControllerVault.sol\":10462:10482  uint256 usdcRequired */\n      0x00\n        /* \"core/RWAMintControllerVault.sol\":10526:10527  0 */\n      0x00\n        /* \"core/RWAMintControllerVault.sol\":10515:10523  navUSD18 */\n      dup4\n        /* \"core/RWAMintControllerVault.sol\":10515:10527  navUSD18 > 0 */\n      gt\n        /* \"core/RWAMintControllerVault.sol\":10507:10539  require(navUSD18 > 0, \"bad NAV\") */\n      tag_339\n      jumpi\n      mload(0x40)\n      0x08c379a000000000000000000000000000000000000000000000000000000000\n      dup2\n      mstore\n      0x04\n      add\n      tag_340\n      swap1\n      tag_341\n      jump\t// in\n    tag_340:\n      mload(0x40)\n      dup1\n      swap2\n      sub\n      swap1\n      revert\n    tag_339:\n        /* \"core/RWAMintControllerVault.sol\":10550:10573  uint256 maxPaymentUSD18 */\n      0x00\n        /* \"core/RWAMintControllerVault.sol\":10588:10599  usdcToUSD18 */\n      immutable(\"0xccaa62ece624b7c19179efe70bca6831b45dba36fd4251e9dcb4c8e2db68cc27\")\n        /* \"core/RWAMintControllerVault.sol\":10576:10585  maxUSDCIn */\n      dup6\n        /* \"core/RWAMintControllerVault.sol\":10576:10599  maxUSDCIn * usdcToUSD18 */\n      tag_342\n      swap2\n      swap1\n      tag_198\n      jump\t// in\n    tag_342:\n        /* \"core/RWAMintControllerVault.sol\":10550:10599  uint256 maxPaymentUSD18 = maxUSDCIn * usdcToUSD18 */\n      swap1\n      pop\n        /* \"core/RWAMintControllerVault.sol\":10781:10789  navUSD18 */\n      dup4\n        /* \"core/RWAMintControllerVault.sol\":10770:10777  rwaUnit */\n      immutable(\"0x554c46e96817775b8989ddc254d554940ba2015f43972fccfc1ecb50653ca381\")\n        /* \"core/RWAMintControllerVault.sol\":10752:10767  maxPaymentUSD18 */\n      dup3\n        /* \"core/RWAMintControllerVault.sol\":10752:10777  maxPaymentUSD18 * rwaUnit */\n      tag_343\n      swap2\n      swap1\n      tag_198\n      jump\t// in\n    tag_343:\n        /* \"core/RWAMintControllerVault.sol\":10751:10789  (maxPaymentUSD18 * rwaUnit) / navUSD18 */\n      tag_344\n      swap2\n      swap1\n      tag_200\n      jump\t// in\n    tag_344:\n        /* \"core/RWAMintControllerVault.sol\":10739:10789  rwaAmount = (maxPaymentUSD18 * rwaUnit) / navUSD18 */\n      swap3\n      pop\n        /* \"core/RWAMintControllerVault.sol\":10817:10818  0 */\n      0x00\n        /* \"core/RWAMintControllerVault.sol\":10804:10813  rwaAmount */\n      dup4\n        /* \"core/RWAMintControllerVault.sol\":10804:10818  rwaAmount == 0 */\n      sub\n        /* \"core/RWAMintControllerVault.sol\":10800:10858  if (rwaAmount == 0) {... */\n      tag_345\n      jumpi\n        /* \"core/RWAMintControllerVault.sol\":10842:10843  0 */\n      0x00\n        /* \"core/RWAMintControllerVault.sol\":10845:10846  0 */\n      0x00\n        /* \"core/RWAMintControllerVault.sol\":10834:10847  return (0, 0) */\n      swap3\n      pop\n      swap3\n      pop\n      pop\n      jump(tag_338)\n        /* \"core/RWAMintControllerVault.sol\":10800:10858  if (rwaAmount == 0) {... */\n    tag_345:\n        /* \"core/RWAMintControllerVault.sol\":10990:11011  uint256 requiredUSD18 */\n      0x00\n        /* \"core/RWAMintControllerVault.sol\":11014:11087  _ceilDiv(... */\n      tag_346\n        /* \"core/RWAMintControllerVault.sol\":11048:11056  navUSD18 */\n      dup6\n        /* \"core/RWAMintControllerVault.sol\":11036:11045  rwaAmount */\n      dup6\n        /* \"core/RWAMintControllerVault.sol\":11036:11056  rwaAmount * navUSD18 */\n      tag_347\n      swap2\n      swap1\n      tag_198\n      jump\t// in\n    tag_347:\n        /* \"core/RWAMintControllerVault.sol\":11070:11077  rwaUnit */\n      immutable(\"0x554c46e96817775b8989ddc254d554940ba2015f43972fccfc1ecb50653ca381\")\n        /* \"core/RWAMintControllerVault.sol\":11014:11022  _ceilDiv */\n      tag_348\n        /* \"core/RWAMintControllerVault.sol\":11014:11087  _ceilDiv(... */\n      jump\t// in\n    tag_346:\n        /* \"core/RWAMintControllerVault.sol\":10990:11087  uint256 requiredUSD18 = _ceilDiv(... */\n      swap1\n      pop\n        /* \"core/RWAMintControllerVault.sol\":11227:11297  _ceilDiv(... */\n      tag_349\n        /* \"core/RWAMintControllerVault.sol\":11249:11262  requiredUSD18 */\n      dup2\n        /* \"core/RWAMintControllerVault.sol\":11276:11287  usdcToUSD18 */\n      immutable(\"0xccaa62ece624b7c19179efe70bca6831b45dba36fd4251e9dcb4c8e2db68cc27\")\n        /* \"core/RWAMintControllerVault.sol\":11227:11235  _ceilDiv */\n      tag_348\n        /* \"core/RWAMintControllerVault.sol\":11227:11297  _ceilDiv(... */\n      jump\t// in\n    tag_349:\n        /* \"core/RWAMintControllerVault.sol\":11212:11297  usdcRequired = _ceilDiv(... */\n      swap3\n      pop\n        /* \"core/RWAMintControllerVault.sol\":10497:11304  {... */\n      pop\n      pop\n        /* \"core/RWAMintControllerVault.sol\":10284:11304  function _quoteMintWithUSDC(... */\n    tag_338:\n      swap3\n      pop\n      swap3\n      swap1\n      pop\n      jump\t// out\n        /* \"@openzeppelin/contracts/token/ERC20/utils/SafeERC20.sol\":1662:1894  function safeTransferFrom(IERC20 token, address from, address to, uint256 value) internal {... */\n    tag_152:\n        /* \"@openzeppelin/contracts/token/ERC20/utils/SafeERC20.sol\":1767:1814  _safeTransferFrom(token, from, to, value, true) */\n      tag_351\n        /* \"@openzeppelin/contracts/token/ERC20/utils/SafeERC20.sol\":1785:1790  token */\n      dup5\n        /* \"@openzeppelin/contracts/token/ERC20/utils/SafeERC20.sol\":1792:1796  from */\n      dup5\n        /* \"@openzeppelin/contracts/token/ERC20/utils/SafeERC20.sol\":1798:1800  to */\n      dup5\n        /* \"@openzeppelin/contracts/token/ERC20/utils/SafeERC20.sol\":1802:1807  value */\n      dup5\n        /* \"@openzeppelin/contracts/token/ERC20/utils/SafeERC20.sol\":1809:1813  true */\n      0x01\n        /* \"@openzeppelin/contracts/token/ERC20/utils/SafeERC20.sol\":1767:1784  _safeTransferFrom */\n      tag_352\n        /* \"@openzeppelin/contracts/token/ERC20/utils/SafeERC20.sol\":1767:1814  _safeTransferFrom(token, from, to, value, true) */\n      jump\t// in\n    tag_351:\n        /* \"@openzeppelin/contracts/token/ERC20/utils/SafeERC20.sol\":1762:1888  if (!_safeTransferFrom(token, from, to, value, true)) {... */\n      tag_353\n      jumpi\n        /* \"@openzeppelin/contracts/token/ERC20/utils/SafeERC20.sol\":1870:1875  token */\n      dup4\n        /* \"@openzeppelin/contracts/token/ERC20/utils/SafeERC20.sol\":1837:1877  SafeERC20FailedOperation(address(token)) */\n      mload(0x40)\n      0x5274afe700000000000000000000000000000000000000000000000000000000\n      dup2\n      mstore\n      0x04\n      add\n      tag_354\n      swap2\n      swap1\n      tag_43\n      jump\t// in\n    tag_354:\n      mload(0x40)\n      dup1\n      swap2\n      sub\n      swap1\n      revert\n        /* \"@openzeppelin/contracts/token/ERC20/utils/SafeERC20.sol\":1762:1888  if (!_safeTransferFrom(token, from, to, value, true)) {... */\n    tag_353:\n        /* \"@openzeppelin/contracts/token/ERC20/utils/SafeERC20.sol\":1662:1894  function safeTransferFrom(IERC20 token, address from, address to, uint256 value) internal {... */\n      pop\n      pop\n      pop\n      pop\n      jump\t// out\n        /* \"@openzeppelin/contracts/utils/ReentrancyGuard.sol\":4047:4300  function _nonReentrantAfter() private {... */\n    tag_161:\n        /* \"@openzeppelin/contracts/utils/ReentrancyGuard.sol\":2365:2366  1 */\n      0x01\n        /* \"@openzeppelin/contracts/utils/ReentrancyGuard.sol\":4227:4273  _reentrancyGuardStorageSlot().getUint256Slot() */\n      tag_356\n        /* \"@openzeppelin/contracts/utils/ReentrancyGuard.sol\":4227:4256  _reentrancyGuardStorageSlot() */\n      tag_357\n        /* \"@openzeppelin/contracts/utils/ReentrancyGuard.sol\":4227:4254  _reentrancyGuardStorageSlot */\n      tag_309\n        /* \"@openzeppelin/contracts/utils/ReentrancyGuard.sol\":4227:4256  _reentrancyGuardStorageSlot() */\n      jump\t// in\n    tag_357:\n        /* \"@openzeppelin/contracts/utils/ReentrancyGuard.sol\":4227:4271  _reentrancyGuardStorageSlot().getUint256Slot */\n      tag_310\n        /* \"@openzeppelin/contracts/utils/ReentrancyGuard.sol\":4227:4273  _reentrancyGuardStorageSlot().getUint256Slot() */\n      jump\t// in\n    tag_356:\n        /* \"@openzeppelin/contracts/utils/ReentrancyGuard.sol\":4227:4279  _reentrancyGuardStorageSlot().getUint256Slot().value */\n      0x00\n      add\n        /* \"@openzeppelin/contracts/utils/ReentrancyGuard.sol\":4227:4293  _reentrancyGuardStorageSlot().getUint256Slot().value = NOT_ENTERED */\n      dup2\n      swap1\n      sstore\n      pop\n        /* \"@openzeppelin/contracts/utils/ReentrancyGuard.sol\":4047:4300  function _nonReentrantAfter() private {... */\n      jump\t// out\n        /* \"core/RWAMintControllerVault.sol\":13227:14231  function _quoteRedeem(... */\n    tag_166:\n        /* \"core/RWAMintControllerVault.sol\":13367:13386  uint256 rwaRequired */\n      0x00\n        /* \"core/RWAMintControllerVault.sol\":13400:13418  uint256 usdcAmount */\n      0x00\n        /* \"core/RWAMintControllerVault.sol\":13462:13463  0 */\n      0x00\n        /* \"core/RWAMintControllerVault.sol\":13451:13459  navUSD18 */\n      dup4\n        /* \"core/RWAMintControllerVault.sol\":13451:13463  navUSD18 > 0 */\n      gt\n        /* \"core/RWAMintControllerVault.sol\":13443:13475  require(navUSD18 > 0, \"bad NAV\") */\n      tag_359\n      jumpi\n      mload(0x40)\n      0x08c379a000000000000000000000000000000000000000000000000000000000\n      dup2\n      mstore\n      0x04\n      add\n      tag_360\n      swap1\n      tag_341\n      jump\t// in\n    tag_360:\n      mload(0x40)\n      dup1\n      swap2\n      sub\n      swap1\n      revert\n    tag_359:\n        /* \"core/RWAMintControllerVault.sol\":13597:13619  uint256 maxRedeemUSD18 */\n      0x00\n        /* \"core/RWAMintControllerVault.sol\":13658:13665  rwaUnit */\n      immutable(\"0x554c46e96817775b8989ddc254d554940ba2015f43972fccfc1ecb50653ca381\")\n        /* \"core/RWAMintControllerVault.sol\":13646:13654  navUSD18 */\n      dup5\n        /* \"core/RWAMintControllerVault.sol\":13635:13643  maxRwaIn */\n      dup7\n        /* \"core/RWAMintControllerVault.sol\":13635:13654  maxRwaIn * navUSD18 */\n      tag_361\n      swap2\n      swap1\n      tag_198\n      jump\t// in\n    tag_361:\n        /* \"core/RWAMintControllerVault.sol\":13634:13665  (maxRwaIn * navUSD18) / rwaUnit */\n      tag_362\n      swap2\n      swap1\n      tag_200\n      jump\t// in\n    tag_362:\n        /* \"core/RWAMintControllerVault.sol\":13597:13665  uint256 maxRedeemUSD18 =... */\n      swap1\n      pop\n        /* \"core/RWAMintControllerVault.sol\":13830:13841  usdcToUSD18 */\n      immutable(\"0xccaa62ece624b7c19179efe70bca6831b45dba36fd4251e9dcb4c8e2db68cc27\")\n        /* \"core/RWAMintControllerVault.sol\":13813:13827  maxRedeemUSD18 */\n      dup2\n        /* \"core/RWAMintControllerVault.sol\":13813:13841  maxRedeemUSD18 / usdcToUSD18 */\n      tag_363\n      swap2\n      swap1\n      tag_200\n      jump\t// in\n    tag_363:\n        /* \"core/RWAMintControllerVault.sol\":13800:13841  usdcAmount = maxRedeemUSD18 / usdcToUSD18 */\n      swap2\n      pop\n        /* \"core/RWAMintControllerVault.sol\":13870:13871  0 */\n      0x00\n        /* \"core/RWAMintControllerVault.sol\":13856:13866  usdcAmount */\n      dup3\n        /* \"core/RWAMintControllerVault.sol\":13856:13871  usdcAmount == 0 */\n      sub\n        /* \"core/RWAMintControllerVault.sol\":13852:13911  if (usdcAmount == 0) {... */\n      tag_364\n      jumpi\n        /* \"core/RWAMintControllerVault.sol\":13895:13896  0 */\n      0x00\n        /* \"core/RWAMintControllerVault.sol\":13898:13899  0 */\n      0x00\n        /* \"core/RWAMintControllerVault.sol\":13887:13900  return (0, 0) */\n      swap3\n      pop\n      swap3\n      pop\n      pop\n      jump(tag_358)\n        /* \"core/RWAMintControllerVault.sol\":13852:13911  if (usdcAmount == 0) {... */\n    tag_364:\n        /* \"core/RWAMintControllerVault.sol\":13969:13986  uint256 paidUSD18 */\n      0x00\n        /* \"core/RWAMintControllerVault.sol\":14002:14013  usdcToUSD18 */\n      immutable(\"0xccaa62ece624b7c19179efe70bca6831b45dba36fd4251e9dcb4c8e2db68cc27\")\n        /* \"core/RWAMintControllerVault.sol\":13989:13999  usdcAmount */\n      dup4\n        /* \"core/RWAMintControllerVault.sol\":13989:14013  usdcAmount * usdcToUSD18 */\n      tag_365\n      swap2\n      swap1\n      tag_198\n      jump\t// in\n    tag_365:\n        /* \"core/RWAMintControllerVault.sol\":13969:14013  uint256 paidUSD18 = usdcAmount * usdcToUSD18 */\n      swap1\n      pop\n        /* \"core/RWAMintControllerVault.sol\":14151:14224  _ceilDiv(... */\n      tag_366\n        /* \"core/RWAMintControllerVault.sol\":14185:14192  rwaUnit */\n      immutable(\"0x554c46e96817775b8989ddc254d554940ba2015f43972fccfc1ecb50653ca381\")\n        /* \"core/RWAMintControllerVault.sol\":14173:14182  paidUSD18 */\n      dup3\n        /* \"core/RWAMintControllerVault.sol\":14173:14192  paidUSD18 * rwaUnit */\n      tag_367\n      swap2\n      swap1\n      tag_198\n      jump\t// in\n    tag_367:\n        /* \"core/RWAMintControllerVault.sol\":14206:14214  navUSD18 */\n      dup7\n        /* \"core/RWAMintControllerVault.sol\":14151:14159  _ceilDiv */\n      tag_348\n        /* \"core/RWAMintControllerVault.sol\":14151:14224  _ceilDiv(... */\n      jump\t// in\n    tag_366:\n        /* \"core/RWAMintControllerVault.sol\":14137:14224  rwaRequired = _ceilDiv(... */\n      swap4\n      pop\n        /* \"core/RWAMintControllerVault.sol\":13433:14231  {... */\n      pop\n      pop\n        /* \"core/RWAMintControllerVault.sol\":13227:14231  function _quoteRedeem(... */\n    tag_358:\n      swap3\n      pop\n      swap3\n      swap1\n      pop\n      jump\t// out\n        /* \"@openzeppelin/contracts/access/Ownable.sol\":1796:1958  function _checkOwner() internal view virtual {... */\n    tag_169:\n        /* \"@openzeppelin/contracts/access/Ownable.sol\":1866:1878  _msgSender() */\n      tag_369\n        /* \"@openzeppelin/contracts/access/Ownable.sol\":1866:1876  _msgSender */\n      tag_370\n        /* \"@openzeppelin/contracts/access/Ownable.sol\":1866:1878  _msgSender() */\n      jump\t// in\n    tag_369:\n        /* \"@openzeppelin/contracts/access/Ownable.sol\":1855:1878  owner() != _msgSender() */\n      0xffffffffffffffffffffffffffffffffffffffff\n      and\n        /* \"@openzeppelin/contracts/access/Ownable.sol\":1855:1862  owner() */\n      tag_371\n        /* \"@openzeppelin/contracts/access/Ownable.sol\":1855:1860  owner */\n      tag_89\n        /* \"@openzeppelin/contracts/access/Ownable.sol\":1855:1862  owner() */\n      jump\t// in\n    tag_371:\n        /* \"@openzeppelin/contracts/access/Ownable.sol\":1855:1878  owner() != _msgSender() */\n      0xffffffffffffffffffffffffffffffffffffffff\n      and\n      eq\n        /* \"@openzeppelin/contracts/access/Ownable.sol\":1851:1952  if (owner() != _msgSender()) {... */\n      tag_372\n      jumpi\n        /* \"@openzeppelin/contracts/access/Ownable.sol\":1928:1940  _msgSender() */\n      tag_373\n        /* \"@openzeppelin/contracts/access/Ownable.sol\":1928:1938  _msgSender */\n      tag_370\n        /* \"@openzeppelin/contracts/access/Ownable.sol\":1928:1940  _msgSender() */\n      jump\t// in\n    tag_373:\n        /* \"@openzeppelin/contracts/access/Ownable.sol\":1901:1941  OwnableUnauthorizedAccount(_msgSender()) */\n      mload(0x40)\n      0x118cdaa700000000000000000000000000000000000000000000000000000000\n      dup2\n      mstore\n      0x04\n      add\n      tag_374\n      swap2\n      swap1\n      tag_43\n      jump\t// in\n    tag_374:\n      mload(0x40)\n      dup1\n      swap2\n      sub\n      swap1\n      revert\n        /* \"@openzeppelin/contracts/access/Ownable.sol\":1851:1952  if (owner() != _msgSender()) {... */\n    tag_372:\n        /* \"@openzeppelin/contracts/access/Ownable.sol\":1796:1958  function _checkOwner() internal view virtual {... */\n      jump\t// out\n        /* \"@openzeppelin/contracts/access/Ownable.sol\":2912:3099  function _transferOwnership(address newOwner) internal virtual {... */\n    tag_186:\n        /* \"@openzeppelin/contracts/access/Ownable.sol\":2985:3001  address oldOwner */\n      0x00\n        /* \"@openzeppelin/contracts/access/Ownable.sol\":3004:3010  _owner */\n      0x00\n      0x00\n      swap1\n      sload\n      swap1\n      0x0100\n      exp\n      swap1\n      div\n      0xffffffffffffffffffffffffffffffffffffffff\n      and\n        /* \"@openzeppelin/contracts/access/Ownable.sol\":2985:3010  address oldOwner = _owner */\n      swap1\n      pop\n        /* \"@openzeppelin/contracts/access/Ownable.sol\":3029:3037  newOwner */\n      dup2\n        /* \"@openzeppelin/contracts/access/Ownable.sol\":3020:3026  _owner */\n      0x00\n      0x00\n        /* \"@openzeppelin/contracts/access/Ownable.sol\":3020:3037  _owner = newOwner */\n      0x0100\n      exp\n      dup2\n      sload\n      dup2\n      0xffffffffffffffffffffffffffffffffffffffff\n      mul\n      not\n      and\n      swap1\n      dup4\n      0xffffffffffffffffffffffffffffffffffffffff\n      and\n      mul\n      or\n      swap1\n      sstore\n      pop\n        /* \"@openzeppelin/contracts/access/Ownable.sol\":3083:3091  newOwner */\n      dup2\n        /* \"@openzeppelin/contracts/access/Ownable.sol\":3052:3092  OwnershipTransferred(oldOwner, newOwner) */\n      0xffffffffffffffffffffffffffffffffffffffff\n      and\n        /* \"@openzeppelin/contracts/access/Ownable.sol\":3073:3081  oldOwner */\n      dup2\n        /* \"@openzeppelin/contracts/access/Ownable.sol\":3052:3092  OwnershipTransferred(oldOwner, newOwner) */\n      0xffffffffffffffffffffffffffffffffffffffff\n      and\n      0x8be0079c531659141344cd1fd0a4f28419497f9722a3daafe3b4186f6b6457e0\n      mload(0x40)\n      mload(0x40)\n      dup1\n      swap2\n      sub\n      swap1\n      log3\n        /* \"@openzeppelin/contracts/access/Ownable.sol\":2975:3099  {... */\n      pop\n        /* \"@openzeppelin/contracts/access/Ownable.sol\":2912:3099  function _transferOwnership(address newOwner) internal virtual {... */\n      pop\n      jump\t// out\n        /* \"@openzeppelin/contracts/token/ERC20/utils/SafeERC20.sol\":1219:1423  function safeTransfer(IERC20 token, address to, uint256 value) internal {... */\n    tag_253:\n        /* \"@openzeppelin/contracts/token/ERC20/utils/SafeERC20.sol\":1306:1343  _safeTransfer(token, to, value, true) */\n      tag_377\n        /* \"@openzeppelin/contracts/token/ERC20/utils/SafeERC20.sol\":1320:1325  token */\n      dup4\n        /* \"@openzeppelin/contracts/token/ERC20/utils/SafeERC20.sol\":1327:1329  to */\n      dup4\n        /* \"@openzeppelin/contracts/token/ERC20/utils/SafeERC20.sol\":1331:1336  value */\n      dup4\n        /* \"@openzeppelin/contracts/token/ERC20/utils/SafeERC20.sol\":1338:1342  true */\n      0x01\n        /* \"@openzeppelin/contracts/token/ERC20/utils/SafeERC20.sol\":1306:1319  _safeTransfer */\n      tag_378\n        /* \"@openzeppelin/contracts/token/ERC20/utils/SafeERC20.sol\":1306:1343  _safeTransfer(token, to, value, true) */\n      jump\t// in\n    tag_377:\n        /* \"@openzeppelin/contracts/token/ERC20/utils/SafeERC20.sol\":1301:1417  if (!_safeTransfer(token, to, value, true)) {... */\n      tag_379\n      jumpi\n        /* \"@openzeppelin/contracts/token/ERC20/utils/SafeERC20.sol\":1399:1404  token */\n      dup3\n        /* \"@openzeppelin/contracts/token/ERC20/utils/SafeERC20.sol\":1366:1406  SafeERC20FailedOperation(address(token)) */\n      mload(0x40)\n      0x5274afe700000000000000000000000000000000000000000000000000000000\n      dup2\n      mstore\n      0x04\n      add\n      tag_380\n      swap2\n      swap1\n      tag_43\n      jump\t// in\n    tag_380:\n      mload(0x40)\n      dup1\n      swap2\n      sub\n      swap1\n      revert\n        /* \"@openzeppelin/contracts/token/ERC20/utils/SafeERC20.sol\":1301:1417  if (!_safeTransfer(token, to, value, true)) {... */\n    tag_379:\n        /* \"@openzeppelin/contracts/token/ERC20/utils/SafeERC20.sol\":1219:1423  function safeTransfer(IERC20 token, address to, uint256 value) internal {... */\n      pop\n      pop\n      pop\n      jump\t// out\n        /* \"core/RWAMintControllerVault.sol\":7920:8191  function _totalBackingValueUSD18(... */\n    tag_260:\n        /* \"core/RWAMintControllerVault.sol\":8015:8022  uint256 */\n      0x00\n        /* \"core/RWAMintControllerVault.sol\":8034:8058  uint256 onchainUSDCUSD18 */\n      0x00\n        /* \"core/RWAMintControllerVault.sol\":8105:8116  usdcToUSD18 */\n      immutable(\"0xccaa62ece624b7c19179efe70bca6831b45dba36fd4251e9dcb4c8e2db68cc27\")\n        /* \"core/RWAMintControllerVault.sol\":8073:8077  usdc */\n      immutable(\"0x29f8d1998cd4186678d0085cd54072aeefd05bc476ef1844361510d857ac074b\")\n        /* \"core/RWAMintControllerVault.sol\":8073:8087  usdc.balanceOf */\n      0xffffffffffffffffffffffffffffffffffffffff\n      and\n      0x70a08231\n        /* \"core/RWAMintControllerVault.sol\":8096:8100  this */\n      address\n        /* \"core/RWAMintControllerVault.sol\":8073:8102  usdc.balanceOf(address(this)) */\n      mload(0x40)\n      dup3\n      0xffffffff\n      and\n      0xe0\n      shl\n      dup2\n      mstore\n      0x04\n      add\n      tag_382\n      swap2\n      swap1\n      tag_43\n      jump\t// in\n    tag_382:\n      0x20\n      mload(0x40)\n      dup1\n      dup4\n      sub\n      dup2\n      dup7\n      gas\n      staticcall\n      iszero\n      dup1\n      iszero\n      tag_384\n      jumpi\n      returndatacopy(0x00, 0x00, returndatasize)\n      revert(0x00, returndatasize)\n    tag_384:\n      pop\n      pop\n      pop\n      pop\n      mload(0x40)\n      returndatasize\n      not(0x1f)\n      0x1f\n      dup3\n      add\n      and\n      dup3\n      add\n      dup1\n      0x40\n      mstore\n      pop\n      dup2\n      add\n      swap1\n      tag_385\n      swap2\n      swap1\n      tag_178\n      jump\t// in\n    tag_385:\n        /* \"core/RWAMintControllerVault.sol\":8073:8116  usdc.balanceOf(address(this)) * usdcToUSD18 */\n      tag_386\n      swap2\n      swap1\n      tag_198\n      jump\t// in\n    tag_386:\n        /* \"core/RWAMintControllerVault.sol\":8034:8116  uint256 onchainUSDCUSD18 =... */\n      swap1\n      pop\n        /* \"core/RWAMintControllerVault.sol\":8168:8184  onchainUSDCUSD18 */\n      dup1\n        /* \"core/RWAMintControllerVault.sol\":8134:8138  data */\n      dup4\n        /* \"core/RWAMintControllerVault.sol\":8134:8165  data.adjustedOffchainReserveUSD */\n      0x00\n      add\n      mload\n        /* \"core/RWAMintControllerVault.sol\":8134:8184  data.adjustedOffchainReserveUSD + onchainUSDCUSD18 */\n      tag_387\n      swap2\n      swap1\n      tag_388\n      jump\t// in\n    tag_387:\n        /* \"core/RWAMintControllerVault.sol\":8127:8184  return data.adjustedOffchainReserveUSD + onchainUSDCUSD18 */\n      swap2\n      pop\n      pop\n        /* \"core/RWAMintControllerVault.sol\":7920:8191  function _totalBackingValueUSD18(... */\n      swap2\n      swap1\n      pop\n      jump\t// out\n        /* \"@openzeppelin/contracts/utils/ReentrancyGuard.sol\":3586:3743  function _nonReentrantBeforeView() private view {... */\n    tag_306:\n        /* \"@openzeppelin/contracts/utils/ReentrancyGuard.sol\":3648:3673  _reentrancyGuardEntered() */\n      tag_390\n        /* \"@openzeppelin/contracts/utils/ReentrancyGuard.sol\":3648:3671  _reentrancyGuardEntered */\n      tag_391\n        /* \"@openzeppelin/contracts/utils/ReentrancyGuard.sol\":3648:3673  _reentrancyGuardEntered() */\n      jump\t// in\n    tag_390:\n        /* \"@openzeppelin/contracts/utils/ReentrancyGuard.sol\":3644:3737  if (_reentrancyGuardEntered()) {... */\n      iszero\n      tag_392\n      jumpi\n        /* \"@openzeppelin/contracts/utils/ReentrancyGuard.sol\":3696:3726  ReentrancyGuardReentrantCall() */\n      mload(0x40)\n      0x3ee5aeb500000000000000000000000000000000000000000000000000000000\n      dup2\n      mstore\n      0x04\n      add\n      mload(0x40)\n      dup1\n      swap2\n      sub\n      swap1\n      revert\n        /* \"@openzeppelin/contracts/utils/ReentrancyGuard.sol\":3644:3737  if (_reentrancyGuardEntered()) {... */\n    tag_392:\n        /* \"@openzeppelin/contracts/utils/ReentrancyGuard.sol\":3586:3743  function _nonReentrantBeforeView() private view {... */\n      jump\t// out\n        /* \"@openzeppelin/contracts/utils/ReentrancyGuard.sol\":4636:4763  function _reentrancyGuardStorageSlot() internal pure virtual returns (bytes32) {... */\n    tag_309:\n        /* \"@openzeppelin/contracts/utils/ReentrancyGuard.sol\":4706:4713  bytes32 */\n      0x00\n        /* \"@openzeppelin/contracts/utils/ReentrancyGuard.sol\":1505:1571  0x9b779b17422d0df92223018b32b4d1fa46e071723d6817e2486d003becc55f00 */\n      0x9b779b17422d0df92223018b32b4d1fa46e071723d6817e2486d003becc55f00\n        /* \"@openzeppelin/contracts/utils/ReentrancyGuard.sol\":4732:4756  REENTRANCY_GUARD_STORAGE */\n      0x00\n      shl\n        /* \"@openzeppelin/contracts/utils/ReentrancyGuard.sol\":4725:4756  return REENTRANCY_GUARD_STORAGE */\n      swap1\n      pop\n        /* \"@openzeppelin/contracts/utils/ReentrancyGuard.sol\":4636:4763  function _reentrancyGuardStorageSlot() internal pure virtual returns (bytes32) {... */\n      swap1\n      jump\t// out\n        /* \"@openzeppelin/contracts/utils/StorageSlot.sol\":2679:2842  function getUint256Slot(bytes32 slot) internal pure returns (Uint256Slot storage r) {... */\n    tag_310:\n        /* \"@openzeppelin/contracts/utils/StorageSlot.sol\":2740:2761  Uint256Slot storage r */\n      0x00\n        /* \"@openzeppelin/contracts/utils/StorageSlot.sol\":2822:2826  slot */\n      dup2\n        /* \"@openzeppelin/contracts/utils/StorageSlot.sol\":2812:2826  r.slot := slot */\n      swap1\n      pop\n        /* \"@openzeppelin/contracts/utils/StorageSlot.sol\":2679:2842  function getUint256Slot(bytes32 slot) internal pure returns (Uint256Slot storage r) {... */\n      swap2\n      swap1\n      pop\n      jump\t// out\n        /* \"core/RWAMintControllerVault.sol\":16868:17103  function _ceilDiv(... */\n    tag_348:\n        /* \"core/RWAMintControllerVault.sol\":16953:16960  uint256 */\n      0x00\n        /* \"core/RWAMintControllerVault.sol\":16984:16985  0 */\n      0x00\n        /* \"core/RWAMintControllerVault.sol\":16980:16981  b */\n      dup3\n        /* \"core/RWAMintControllerVault.sol\":16980:16985  b > 0 */\n      gt\n        /* \"core/RWAMintControllerVault.sol\":16972:17006  require(b > 0, \"division by zero\") */\n      tag_396\n      jumpi\n      mload(0x40)\n      0x08c379a000000000000000000000000000000000000000000000000000000000\n      dup2\n      mstore\n      0x04\n      add\n      tag_397\n      swap1\n      tag_398\n      jump\t// in\n    tag_397:\n      mload(0x40)\n      dup1\n      swap2\n      sub\n      swap1\n      revert\n    tag_396:\n        /* \"core/RWAMintControllerVault.sol\":17026:17027  0 */\n      0x00\n        /* \"core/RWAMintControllerVault.sol\":17021:17022  a */\n      dup4\n        /* \"core/RWAMintControllerVault.sol\":17021:17027  a == 0 */\n      sub\n        /* \"core/RWAMintControllerVault.sol\":17017:17062  if (a == 0) {... */\n      tag_399\n      jumpi\n        /* \"core/RWAMintControllerVault.sol\":17050:17051  0 */\n      0x00\n        /* \"core/RWAMintControllerVault.sol\":17043:17051  return 0 */\n      swap1\n      pop\n      jump(tag_395)\n        /* \"core/RWAMintControllerVault.sol\":17017:17062  if (a == 0) {... */\n    tag_399:\n        /* \"core/RWAMintControllerVault.sol\":17095:17096  1 */\n      0x01\n        /* \"core/RWAMintControllerVault.sol\":17090:17091  b */\n      dup3\n        /* \"core/RWAMintControllerVault.sol\":17085:17086  1 */\n      0x01\n        /* \"core/RWAMintControllerVault.sol\":17081:17082  a */\n      dup6\n        /* \"core/RWAMintControllerVault.sol\":17081:17086  a - 1 */\n      tag_400\n      swap2\n      swap1\n      tag_326\n      jump\t// in\n    tag_400:\n        /* \"core/RWAMintControllerVault.sol\":17080:17091  (a - 1) / b */\n      tag_401\n      swap2\n      swap1\n      tag_200\n      jump\t// in\n    tag_401:\n        /* \"core/RWAMintControllerVault.sol\":17079:17096  ((a - 1) / b) + 1 */\n      tag_402\n      swap2\n      swap1\n      tag_388\n      jump\t// in\n    tag_402:\n        /* \"core/RWAMintControllerVault.sol\":17072:17096  return ((a - 1) / b) + 1 */\n      swap1\n      pop\n        /* \"core/RWAMintControllerVault.sol\":16868:17103  function _ceilDiv(... */\n    tag_395:\n      swap3\n      swap2\n      pop\n      pop\n      jump\t// out\n        /* \"@openzeppelin/contracts/token/ERC20/utils/SafeERC20.sol\":10165:11558  function _safeTransferFrom(... */\n    tag_352:\n        /* \"@openzeppelin/contracts/token/ERC20/utils/SafeERC20.sol\":10323:10335  bool success */\n      0x00\n        /* \"@openzeppelin/contracts/token/ERC20/utils/SafeERC20.sol\":10347:10362  bytes4 selector */\n      0x00\n        /* \"@openzeppelin/contracts/token/ERC20/utils/SafeERC20.sol\":10365:10393  IERC20.transferFrom.selector */\n      shl(0xe0, 0x23b872dd)\n        /* \"@openzeppelin/contracts/token/ERC20/utils/SafeERC20.sol\":10347:10393  bytes4 selector = IERC20.transferFrom.selector */\n      swap1\n      pop\n        /* \"@openzeppelin/contracts/token/ERC20/utils/SafeERC20.sol\":10460:10464  0x40 */\n      0x40\n        /* \"@openzeppelin/contracts/token/ERC20/utils/SafeERC20.sol\":10454:10465  mload(0x40) */\n      mload\n        /* \"@openzeppelin/contracts/token/ERC20/utils/SafeERC20.sol\":10491:10499  selector */\n      dup2\n        /* \"@openzeppelin/contracts/token/ERC20/utils/SafeERC20.sol\":10485:10489  0x00 */\n      0x00\n        /* \"@openzeppelin/contracts/token/ERC20/utils/SafeERC20.sol\":10478:10500  mstore(0x00, selector) */\n      mstore\n        /* \"@openzeppelin/contracts/token/ERC20/utils/SafeERC20.sol\":10548:10549  0 */\n      0x00\n        /* \"@openzeppelin/contracts/token/ERC20/utils/SafeERC20.sol\":10544:10550  not(0) */\n      not\n        /* \"@openzeppelin/contracts/token/ERC20/utils/SafeERC20.sol\":10540:10542  96 */\n      0x60\n        /* \"@openzeppelin/contracts/token/ERC20/utils/SafeERC20.sol\":10536:10551  shr(96, not(0)) */\n      shr\n        /* \"@openzeppelin/contracts/token/ERC20/utils/SafeERC20.sol\":10530:10534  from */\n      dup8\n        /* \"@openzeppelin/contracts/token/ERC20/utils/SafeERC20.sol\":10526:10552  and(from, shr(96, not(0))) */\n      and\n        /* \"@openzeppelin/contracts/token/ERC20/utils/SafeERC20.sol\":10520:10524  0x04 */\n      0x04\n        /* \"@openzeppelin/contracts/token/ERC20/utils/SafeERC20.sol\":10513:10553  mstore(0x04, and(from, shr(96, not(0)))) */\n      mstore\n        /* \"@openzeppelin/contracts/token/ERC20/utils/SafeERC20.sol\":10599:10600  0 */\n      0x00\n        /* \"@openzeppelin/contracts/token/ERC20/utils/SafeERC20.sol\":10595:10601  not(0) */\n      not\n        /* \"@openzeppelin/contracts/token/ERC20/utils/SafeERC20.sol\":10591:10593  96 */\n      0x60\n        /* \"@openzeppelin/contracts/token/ERC20/utils/SafeERC20.sol\":10587:10602  shr(96, not(0)) */\n      shr\n        /* \"@openzeppelin/contracts/token/ERC20/utils/SafeERC20.sol\":10583:10585  to */\n      dup7\n        /* \"@openzeppelin/contracts/token/ERC20/utils/SafeERC20.sol\":10579:10603  and(to, shr(96, not(0))) */\n      and\n        /* \"@openzeppelin/contracts/token/ERC20/utils/SafeERC20.sol\":10573:10577  0x24 */\n      0x24\n        /* \"@openzeppelin/contracts/token/ERC20/utils/SafeERC20.sol\":10566:10604  mstore(0x24, and(to, shr(96, not(0)))) */\n      mstore\n        /* \"@openzeppelin/contracts/token/ERC20/utils/SafeERC20.sol\":10630:10635  value */\n      dup5\n        /* \"@openzeppelin/contracts/token/ERC20/utils/SafeERC20.sol\":10624:10628  0x44 */\n      0x44\n        /* \"@openzeppelin/contracts/token/ERC20/utils/SafeERC20.sol\":10617:10636  mstore(0x44, value) */\n      mstore\n        /* \"@openzeppelin/contracts/token/ERC20/utils/SafeERC20.sol\":10700:10704  0x20 */\n      0x20\n        /* \"@openzeppelin/contracts/token/ERC20/utils/SafeERC20.sol\":10694:10698  0x00 */\n      0x00\n        /* \"@openzeppelin/contracts/token/ERC20/utils/SafeERC20.sol\":10688:10692  0x64 */\n      0x64\n        /* \"@openzeppelin/contracts/token/ERC20/utils/SafeERC20.sol\":10682:10686  0x00 */\n      0x00\n        /* \"@openzeppelin/contracts/token/ERC20/utils/SafeERC20.sol\":10679:10680  0 */\n      0x00\n        /* \"@openzeppelin/contracts/token/ERC20/utils/SafeERC20.sol\":10672:10677  token */\n      dup13\n        /* \"@openzeppelin/contracts/token/ERC20/utils/SafeERC20.sol\":10665:10670  gas() */\n      gas\n        /* \"@openzeppelin/contracts/token/ERC20/utils/SafeERC20.sol\":10660:10705  call(gas(), token, 0, 0x00, 0x64, 0x00, 0x20) */\n      call\n        /* \"@openzeppelin/contracts/token/ERC20/utils/SafeERC20.sol\":10649:10705  success := call(gas(), token, 0, 0x00, 0x64, 0x00, 0x20) */\n      swap3\n      pop\n        /* \"@openzeppelin/contracts/token/ERC20/utils/SafeERC20.sol\":10917:10918  1 */\n      0x01\n        /* \"@openzeppelin/contracts/token/ERC20/utils/SafeERC20.sol\":10910:10914  0x00 */\n      0x00\n        /* \"@openzeppelin/contracts/token/ERC20/utils/SafeERC20.sol\":10904:10915  mload(0x00) */\n      mload\n        /* \"@openzeppelin/contracts/token/ERC20/utils/SafeERC20.sol\":10901:10919  eq(mload(0x00), 1) */\n      eq\n        /* \"@openzeppelin/contracts/token/ERC20/utils/SafeERC20.sol\":10892:10899  success */\n      dup4\n        /* \"@openzeppelin/contracts/token/ERC20/utils/SafeERC20.sol\":10888:10920  and(success, eq(mload(0x00), 1)) */\n      and\n        /* \"@openzeppelin/contracts/token/ERC20/utils/SafeERC20.sol\":10878:11484  if iszero(and(success, eq(mload(0x00), 1))) {... */\n      tag_404\n      jumpi\n        /* \"@openzeppelin/contracts/token/ERC20/utils/SafeERC20.sol\":11049:11055  bubble */\n      dup4\n        /* \"@openzeppelin/contracts/token/ERC20/utils/SafeERC20.sol\":11039:11046  success */\n      dup4\n        /* \"@openzeppelin/contracts/token/ERC20/utils/SafeERC20.sol\":11032:11047  iszero(success) */\n      iszero\n        /* \"@openzeppelin/contracts/token/ERC20/utils/SafeERC20.sol\":11028:11056  and(iszero(success), bubble) */\n      and\n        /* \"@openzeppelin/contracts/token/ERC20/utils/SafeERC20.sol\":11025:11190  if and(iszero(success), bubble) {... */\n      iszero\n      tag_405\n      jumpi\n        /* \"@openzeppelin/contracts/token/ERC20/utils/SafeERC20.sol\":11105:11121  returndatasize() */\n      returndatasize\n        /* \"@openzeppelin/contracts/token/ERC20/utils/SafeERC20.sol\":11099:11103  0x00 */\n      0x00\n        /* \"@openzeppelin/contracts/token/ERC20/utils/SafeERC20.sol\":11094:11097  fmp */\n      dup3\n        /* \"@openzeppelin/contracts/token/ERC20/utils/SafeERC20.sol\":11079:11122  returndatacopy(fmp, 0x00, returndatasize()) */\n      returndatacopy\n        /* \"@openzeppelin/contracts/token/ERC20/utils/SafeERC20.sol\":11155:11171  returndatasize() */\n      returndatasize\n        /* \"@openzeppelin/contracts/token/ERC20/utils/SafeERC20.sol\":11150:11153  fmp */\n      dup2\n        /* \"@openzeppelin/contracts/token/ERC20/utils/SafeERC20.sol\":11143:11172  revert(fmp, returndatasize()) */\n      revert\n        /* \"@openzeppelin/contracts/token/ERC20/utils/SafeERC20.sol\":11025:11190  if and(iszero(success), bubble) {... */\n    tag_405:\n        /* \"@openzeppelin/contracts/token/ERC20/utils/SafeERC20.sol\":11466:11467  0 */\n      0x00\n        /* \"@openzeppelin/contracts/token/ERC20/utils/SafeERC20.sol\":11458:11463  token */\n      dup9\n        /* \"@openzeppelin/contracts/token/ERC20/utils/SafeERC20.sol\":11446:11464  extcodesize(token) */\n      extcodesize\n        /* \"@openzeppelin/contracts/token/ERC20/utils/SafeERC20.sol\":11443:11468  gt(extcodesize(token), 0) */\n      gt\n        /* \"@openzeppelin/contracts/token/ERC20/utils/SafeERC20.sol\":11424:11440  returndatasize() */\n      returndatasize\n        /* \"@openzeppelin/contracts/token/ERC20/utils/SafeERC20.sol\":11417:11441  iszero(returndatasize()) */\n      iszero\n        /* \"@openzeppelin/contracts/token/ERC20/utils/SafeERC20.sol\":11413:11469  and(iszero(returndatasize()), gt(extcodesize(token), 0)) */\n      and\n        /* \"@openzeppelin/contracts/token/ERC20/utils/SafeERC20.sol\":11404:11411  success */\n      dup4\n        /* \"@openzeppelin/contracts/token/ERC20/utils/SafeERC20.sol\":11400:11470  and(success, and(iszero(returndatasize()), gt(extcodesize(token), 0))) */\n      and\n        /* \"@openzeppelin/contracts/token/ERC20/utils/SafeERC20.sol\":11389:11470  success := and(success, and(iszero(returndatasize()), gt(extcodesize(token), 0))) */\n      swap3\n      pop\n        /* \"@openzeppelin/contracts/token/ERC20/utils/SafeERC20.sol\":10878:11484  if iszero(and(success, eq(mload(0x00), 1))) {... */\n    tag_404:\n        /* \"@openzeppelin/contracts/token/ERC20/utils/SafeERC20.sol\":11510:11513  fmp */\n      dup1\n        /* \"@openzeppelin/contracts/token/ERC20/utils/SafeERC20.sol\":11504:11508  0x40 */\n      0x40\n        /* \"@openzeppelin/contracts/token/ERC20/utils/SafeERC20.sol\":11497:11514  mstore(0x40, fmp) */\n      mstore\n        /* \"@openzeppelin/contracts/token/ERC20/utils/SafeERC20.sol\":11540:11541  0 */\n      0x00\n        /* \"@openzeppelin/contracts/token/ERC20/utils/SafeERC20.sol\":11534:11538  0x60 */\n      0x60\n        /* \"@openzeppelin/contracts/token/ERC20/utils/SafeERC20.sol\":11527:11542  mstore(0x60, 0) */\n      mstore\n        /* \"@openzeppelin/contracts/token/ERC20/utils/SafeERC20.sol\":10429:11552  {... */\n      pop\n      pop\n        /* \"@openzeppelin/contracts/token/ERC20/utils/SafeERC20.sol\":10165:11558  function _safeTransferFrom(... */\n      swap6\n      swap5\n      pop\n      pop\n      pop\n      pop\n      pop\n      jump\t// out\n        /* \"@openzeppelin/contracts/utils/Context.sol\":656:752  function _msgSender() internal view virtual returns (address) {... */\n    tag_370:\n        /* \"@openzeppelin/contracts/utils/Context.sol\":709:716  address */\n      0x00\n        /* \"@openzeppelin/contracts/utils/Context.sol\":735:745  msg.sender */\n      caller\n        /* \"@openzeppelin/contracts/utils/Context.sol\":728:745  return msg.sender */\n      swap1\n      pop\n        /* \"@openzeppelin/contracts/utils/Context.sol\":656:752  function _msgSender() internal view virtual returns (address) {... */\n      swap1\n      jump\t// out\n        /* \"@openzeppelin/contracts/token/ERC20/utils/SafeERC20.sol\":8373:9617  function _safeTransfer(IERC20 token, address to, uint256 value, bool bubble) private returns (bool success) {... */\n    tag_378:\n        /* \"@openzeppelin/contracts/token/ERC20/utils/SafeERC20.sol\":8467:8479  bool success */\n      0x00\n        /* \"@openzeppelin/contracts/token/ERC20/utils/SafeERC20.sol\":8491:8506  bytes4 selector */\n      0x00\n        /* \"@openzeppelin/contracts/token/ERC20/utils/SafeERC20.sol\":8509:8533  IERC20.transfer.selector */\n      shl(0xe0, 0xa9059cbb)\n        /* \"@openzeppelin/contracts/token/ERC20/utils/SafeERC20.sol\":8491:8533  bytes4 selector = IERC20.transfer.selector */\n      swap1\n      pop\n        /* \"@openzeppelin/contracts/token/ERC20/utils/SafeERC20.sol\":8600:8604  0x40 */\n      0x40\n        /* \"@openzeppelin/contracts/token/ERC20/utils/SafeERC20.sol\":8594:8605  mload(0x40) */\n      mload\n        /* \"@openzeppelin/contracts/token/ERC20/utils/SafeERC20.sol\":8631:8639  selector */\n      dup2\n        /* \"@openzeppelin/contracts/token/ERC20/utils/SafeERC20.sol\":8625:8629  0x00 */\n      0x00\n        /* \"@openzeppelin/contracts/token/ERC20/utils/SafeERC20.sol\":8618:8640  mstore(0x00, selector) */\n      mstore\n        /* \"@openzeppelin/contracts/token/ERC20/utils/SafeERC20.sol\":8686:8687  0 */\n      0x00\n        /* \"@openzeppelin/contracts/token/ERC20/utils/SafeERC20.sol\":8682:8688  not(0) */\n      not\n        /* \"@openzeppelin/contracts/token/ERC20/utils/SafeERC20.sol\":8678:8680  96 */\n      0x60\n        /* \"@openzeppelin/contracts/token/ERC20/utils/SafeERC20.sol\":8674:8689  shr(96, not(0)) */\n      shr\n        /* \"@openzeppelin/contracts/token/ERC20/utils/SafeERC20.sol\":8670:8672  to */\n      dup7\n        /* \"@openzeppelin/contracts/token/ERC20/utils/SafeERC20.sol\":8666:8690  and(to, shr(96, not(0))) */\n      and\n        /* \"@openzeppelin/contracts/token/ERC20/utils/SafeERC20.sol\":8660:8664  0x04 */\n      0x04\n        /* \"@openzeppelin/contracts/token/ERC20/utils/SafeERC20.sol\":8653:8691  mstore(0x04, and(to, shr(96, not(0)))) */\n      mstore\n        /* \"@openzeppelin/contracts/token/ERC20/utils/SafeERC20.sol\":8717:8722  value */\n      dup5\n        /* \"@openzeppelin/contracts/token/ERC20/utils/SafeERC20.sol\":8711:8715  0x24 */\n      0x24\n        /* \"@openzeppelin/contracts/token/ERC20/utils/SafeERC20.sol\":8704:8723  mstore(0x24, value) */\n      mstore\n        /* \"@openzeppelin/contracts/token/ERC20/utils/SafeERC20.sol\":8787:8791  0x20 */\n      0x20\n        /* \"@openzeppelin/contracts/token/ERC20/utils/SafeERC20.sol\":8781:8785  0x00 */\n      0x00\n        /* \"@openzeppelin/contracts/token/ERC20/utils/SafeERC20.sol\":8775:8779  0x44 */\n      0x44\n        /* \"@openzeppelin/contracts/token/ERC20/utils/SafeERC20.sol\":8769:8773  0x00 */\n      0x00\n        /* \"@openzeppelin/contracts/token/ERC20/utils/SafeERC20.sol\":8766:8767  0 */\n      0x00\n        /* \"@openzeppelin/contracts/token/ERC20/utils/SafeERC20.sol\":8759:8764  token */\n      dup12\n        /* \"@openzeppelin/contracts/token/ERC20/utils/SafeERC20.sol\":8752:8757  gas() */\n      gas\n        /* \"@openzeppelin/contracts/token/ERC20/utils/SafeERC20.sol\":8747:8792  call(gas(), token, 0, 0x00, 0x44, 0x00, 0x20) */\n      call\n        /* \"@openzeppelin/contracts/token/ERC20/utils/SafeERC20.sol\":8736:8792  success := call(gas(), token, 0, 0x00, 0x44, 0x00, 0x20) */\n      swap3\n      pop\n        /* \"@openzeppelin/contracts/token/ERC20/utils/SafeERC20.sol\":9004:9005  1 */\n      0x01\n        /* \"@openzeppelin/contracts/token/ERC20/utils/SafeERC20.sol\":8997:9001  0x00 */\n      0x00\n        /* \"@openzeppelin/contracts/token/ERC20/utils/SafeERC20.sol\":8991:9002  mload(0x00) */\n      mload\n        /* \"@openzeppelin/contracts/token/ERC20/utils/SafeERC20.sol\":8988:9006  eq(mload(0x00), 1) */\n      eq\n        /* \"@openzeppelin/contracts/token/ERC20/utils/SafeERC20.sol\":8979:8986  success */\n      dup4\n        /* \"@openzeppelin/contracts/token/ERC20/utils/SafeERC20.sol\":8975:9007  and(success, eq(mload(0x00), 1)) */\n      and\n        /* \"@openzeppelin/contracts/token/ERC20/utils/SafeERC20.sol\":8965:9571  if iszero(and(success, eq(mload(0x00), 1))) {... */\n      tag_408\n      jumpi\n        /* \"@openzeppelin/contracts/token/ERC20/utils/SafeERC20.sol\":9136:9142  bubble */\n      dup4\n        /* \"@openzeppelin/contracts/token/ERC20/utils/SafeERC20.sol\":9126:9133  success */\n      dup4\n        /* \"@openzeppelin/contracts/token/ERC20/utils/SafeERC20.sol\":9119:9134  iszero(success) */\n      iszero\n        /* \"@openzeppelin/contracts/token/ERC20/utils/SafeERC20.sol\":9115:9143  and(iszero(success), bubble) */\n      and\n        /* \"@openzeppelin/contracts/token/ERC20/utils/SafeERC20.sol\":9112:9277  if and(iszero(success), bubble) {... */\n      iszero\n      tag_409\n      jumpi\n        /* \"@openzeppelin/contracts/token/ERC20/utils/SafeERC20.sol\":9192:9208  returndatasize() */\n      returndatasize\n        /* \"@openzeppelin/contracts/token/ERC20/utils/SafeERC20.sol\":9186:9190  0x00 */\n      0x00\n        /* \"@openzeppelin/contracts/token/ERC20/utils/SafeERC20.sol\":9181:9184  fmp */\n      dup3\n        /* \"@openzeppelin/contracts/token/ERC20/utils/SafeERC20.sol\":9166:9209  returndatacopy(fmp, 0x00, returndatasize()) */\n      returndatacopy\n        /* \"@openzeppelin/contracts/token/ERC20/utils/SafeERC20.sol\":9242:9258  returndatasize() */\n      returndatasize\n        /* \"@openzeppelin/contracts/token/ERC20/utils/SafeERC20.sol\":9237:9240  fmp */\n      dup2\n        /* \"@openzeppelin/contracts/token/ERC20/utils/SafeERC20.sol\":9230:9259  revert(fmp, returndatasize()) */\n      revert\n        /* \"@openzeppelin/contracts/token/ERC20/utils/SafeERC20.sol\":9112:9277  if and(iszero(success), bubble) {... */\n    tag_409:\n        /* \"@openzeppelin/contracts/token/ERC20/utils/SafeERC20.sol\":9553:9554  0 */\n      0x00\n        /* \"@openzeppelin/contracts/token/ERC20/utils/SafeERC20.sol\":9545:9550  token */\n      dup8\n        /* \"@openzeppelin/contracts/token/ERC20/utils/SafeERC20.sol\":9533:9551  extcodesize(token) */\n      extcodesize\n        /* \"@openzeppelin/contracts/token/ERC20/utils/SafeERC20.sol\":9530:9555  gt(extcodesize(token), 0) */\n      gt\n        /* \"@openzeppelin/contracts/token/ERC20/utils/SafeERC20.sol\":9511:9527  returndatasize() */\n      returndatasize\n        /* \"@openzeppelin/contracts/token/ERC20/utils/SafeERC20.sol\":9504:9528  iszero(returndatasize()) */\n      iszero\n        /* \"@openzeppelin/contracts/token/ERC20/utils/SafeERC20.sol\":9500:9556  and(iszero(returndatasize()), gt(extcodesize(token), 0)) */\n      and\n        /* \"@openzeppelin/contracts/token/ERC20/utils/SafeERC20.sol\":9491:9498  success */\n      dup4\n        /* \"@openzeppelin/contracts/token/ERC20/utils/SafeERC20.sol\":9487:9557  and(success, and(iszero(returndatasize()), gt(extcodesize(token), 0))) */\n      and\n        /* \"@openzeppelin/contracts/token/ERC20/utils/SafeERC20.sol\":9476:9557  success := and(success, and(iszero(returndatasize()), gt(extcodesize(token), 0))) */\n      swap3\n      pop\n        /* \"@openzeppelin/contracts/token/ERC20/utils/SafeERC20.sol\":8965:9571  if iszero(and(success, eq(mload(0x00), 1))) {... */\n    tag_408:\n        /* \"@openzeppelin/contracts/token/ERC20/utils/SafeERC20.sol\":9597:9600  fmp */\n      dup1\n        /* \"@openzeppelin/contracts/token/ERC20/utils/SafeERC20.sol\":9591:9595  0x40 */\n      0x40\n        /* \"@openzeppelin/contracts/token/ERC20/utils/SafeERC20.sol\":9584:9601  mstore(0x40, fmp) */\n      mstore\n        /* \"@openzeppelin/contracts/token/ERC20/utils/SafeERC20.sol\":8569:9611  {... */\n      pop\n      pop\n        /* \"@openzeppelin/contracts/token/ERC20/utils/SafeERC20.sol\":8373:9617  function _safeTransfer(IERC20 token, address to, uint256 value, bool bubble) private returns (bool success) {... */\n      swap5\n      swap4\n      pop\n      pop\n      pop\n      pop\n      jump\t// out\n        /* \"@openzeppelin/contracts/utils/ReentrancyGuard.sol\":4479:4630  function _reentrancyGuardEntered() internal view returns (bool) {... */\n    tag_391:\n        /* \"@openzeppelin/contracts/utils/ReentrancyGuard.sol\":4537:4541  bool */\n      0x00\n        /* \"@openzeppelin/contracts/utils/ReentrancyGuard.sol\":2407:2408  2 */\n      0x02\n        /* \"@openzeppelin/contracts/utils/ReentrancyGuard.sol\":4560:4606  _reentrancyGuardStorageSlot().getUint256Slot() */\n      tag_411\n        /* \"@openzeppelin/contracts/utils/ReentrancyGuard.sol\":4560:4589  _reentrancyGuardStorageSlot() */\n      tag_412\n        /* \"@openzeppelin/contracts/utils/ReentrancyGuard.sol\":4560:4587  _reentrancyGuardStorageSlot */\n      tag_309\n        /* \"@openzeppelin/contracts/utils/ReentrancyGuard.sol\":4560:4589  _reentrancyGuardStorageSlot() */\n      jump\t// in\n    tag_412:\n        /* \"@openzeppelin/contracts/utils/ReentrancyGuard.sol\":4560:4604  _reentrancyGuardStorageSlot().getUint256Slot */\n      tag_310\n        /* \"@openzeppelin/contracts/utils/ReentrancyGuard.sol\":4560:4606  _reentrancyGuardStorageSlot().getUint256Slot() */\n      jump\t// in\n    tag_411:\n        /* \"@openzeppelin/contracts/utils/ReentrancyGuard.sol\":4560:4612  _reentrancyGuardStorageSlot().getUint256Slot().value */\n      0x00\n      add\n      sload\n        /* \"@openzeppelin/contracts/utils/ReentrancyGuard.sol\":4560:4623  _reentrancyGuardStorageSlot().getUint256Slot().value == ENTERED */\n      eq\n        /* \"@openzeppelin/contracts/utils/ReentrancyGuard.sol\":4553:4623  return _reentrancyGuardStorageSlot().getUint256Slot().value == ENTERED */\n      swap1\n      pop\n        /* \"@openzeppelin/contracts/utils/ReentrancyGuard.sol\":4479:4630  function _reentrancyGuardEntered() internal view returns (bool) {... */\n      swap1\n      jump\t// out\n    tag_312:\n      mload(0x40)\n      dup1\n      0x80\n      add\n      0x40\n      mstore\n      dup1\n      0x00\n      dup2\n      mstore\n      0x20\n      add\n      iszero(iszero(0x00))\n      dup2\n      mstore\n      0x20\n      add\n      0x00\n      dup2\n      mstore\n      0x20\n      add\n      0x00\n      dup2\n      mstore\n      pop\n      swap1\n      jump\t// out\n        /* \"#utility.yul\":7:133   */\n    tag_413:\n        /* \"#utility.yul\":44:51   */\n      0x00\n        /* \"#utility.yul\":84:126   */\n      0xffffffffffffffffffffffffffffffffffffffff\n        /* \"#utility.yul\":77:82   */\n      dup3\n        /* \"#utility.yul\":73:127   */\n      and\n        /* \"#utility.yul\":62:127   */\n      swap1\n      pop\n        /* \"#utility.yul\":7:133   */\n      swap2\n      swap1\n      pop\n      jump\t// out\n        /* \"#utility.yul\":139:199   */\n    tag_414:\n        /* \"#utility.yul\":167:170   */\n      0x00\n        /* \"#utility.yul\":188:193   */\n      dup2\n        /* \"#utility.yul\":181:193   */\n      swap1\n      pop\n        /* \"#utility.yul\":139:199   */\n      swap2\n      swap1\n      pop\n      jump\t// out\n        /* \"#utility.yul\":205:347   */\n    tag_415:\n        /* \"#utility.yul\":255:264   */\n      0x00\n        /* \"#utility.yul\":288:341   */\n      tag_507\n        /* \"#utility.yul\":306:340   */\n      tag_508\n        /* \"#utility.yul\":315:339   */\n      tag_509\n        /* \"#utility.yul\":333:338   */\n      dup5\n        /* \"#utility.yul\":315:339   */\n      tag_413\n      jump\t// in\n    tag_509:\n        /* \"#utility.yul\":306:340   */\n      tag_414\n      jump\t// in\n    tag_508:\n        /* \"#utility.yul\":288:341   */\n      tag_413\n      jump\t// in\n    tag_507:\n        /* \"#utility.yul\":275:341   */\n      swap1\n      pop\n        /* \"#utility.yul\":205:347   */\n      swap2\n      swap1\n      pop\n      jump\t// out\n        /* \"#utility.yul\":353:479   */\n    tag_416:\n        /* \"#utility.yul\":403:412   */\n      0x00\n        /* \"#utility.yul\":436:473   */\n      tag_511\n        /* \"#utility.yul\":467:472   */\n      dup3\n        /* \"#utility.yul\":436:473   */\n      tag_415\n      jump\t// in\n    tag_511:\n        /* \"#utility.yul\":423:473   */\n      swap1\n      pop\n        /* \"#utility.yul\":353:479   */\n      swap2\n      swap1\n      pop\n      jump\t// out\n        /* \"#utility.yul\":485:629   */\n    tag_417:\n        /* \"#utility.yul\":553:562   */\n      0x00\n        /* \"#utility.yul\":586:623   */\n      tag_513\n        /* \"#utility.yul\":617:622   */\n      dup3\n        /* \"#utility.yul\":586:623   */\n      tag_416\n      jump\t// in\n    tag_513:\n        /* \"#utility.yul\":573:623   */\n      swap1\n      pop\n        /* \"#utility.yul\":485:629   */\n      swap2\n      swap1\n      pop\n      jump\t// out\n        /* \"#utility.yul\":635:802   */\n    tag_418:\n        /* \"#utility.yul\":740:795   */\n      tag_515\n        /* \"#utility.yul\":789:794   */\n      dup2\n        /* \"#utility.yul\":740:795   */\n      tag_417\n      jump\t// in\n    tag_515:\n        /* \"#utility.yul\":735:738   */\n      dup3\n        /* \"#utility.yul\":728:796   */\n      mstore\n        /* \"#utility.yul\":635:802   */\n      pop\n      pop\n      jump\t// out\n        /* \"#utility.yul\":808:1066   */\n    tag_35:\n        /* \"#utility.yul\":919:923   */\n      0x00\n        /* \"#utility.yul\":957:959   */\n      0x20\n        /* \"#utility.yul\":946:955   */\n      dup3\n        /* \"#utility.yul\":942:960   */\n      add\n        /* \"#utility.yul\":934:960   */\n      swap1\n      pop\n        /* \"#utility.yul\":970:1059   */\n      tag_517\n        /* \"#utility.yul\":1056:1057   */\n      0x00\n        /* \"#utility.yul\":1045:1054   */\n      dup4\n        /* \"#utility.yul\":1041:1058   */\n      add\n        /* \"#utility.yul\":1032:1038   */\n      dup5\n        /* \"#utility.yul\":970:1059   */\n      tag_418\n      jump\t// in\n    tag_517:\n        /* \"#utility.yul\":808:1066   */\n      swap3\n      swap2\n      pop\n      pop\n      jump\t// out\n        /* \"#utility.yul\":1072:1162   */\n    tag_419:\n        /* \"#utility.yul\":1106:1113   */\n      0x00\n        /* \"#utility.yul\":1149:1154   */\n      dup2\n        /* \"#utility.yul\":1142:1155   */\n      iszero\n        /* \"#utility.yul\":1135:1156   */\n      iszero\n        /* \"#utility.yul\":1124:1156   */\n      swap1\n      pop\n        /* \"#utility.yul\":1072:1162   */\n      swap2\n      swap1\n      pop\n      jump\t// out\n        /* \"#utility.yul\":1168:1277   */\n    tag_420:\n        /* \"#utility.yul\":1249:1270   */\n      tag_520\n        /* \"#utility.yul\":1264:1269   */\n      dup2\n        /* \"#utility.yul\":1249:1270   */\n      tag_419\n      jump\t// in\n    tag_520:\n        /* \"#utility.yul\":1244:1247   */\n      dup3\n        /* \"#utility.yul\":1237:1271   */\n      mstore\n        /* \"#utility.yul\":1168:1277   */\n      pop\n      pop\n      jump\t// out\n        /* \"#utility.yul\":1283:1493   */\n    tag_39:\n        /* \"#utility.yul\":1370:1374   */\n      0x00\n        /* \"#utility.yul\":1408:1410   */\n      0x20\n        /* \"#utility.yul\":1397:1406   */\n      dup3\n        /* \"#utility.yul\":1393:1411   */\n      add\n        /* \"#utility.yul\":1385:1411   */\n      swap1\n      pop\n        /* \"#utility.yul\":1421:1486   */\n      tag_522\n        /* \"#utility.yul\":1483:1484   */\n      0x00\n        /* \"#utility.yul\":1472:1481   */\n      dup4\n        /* \"#utility.yul\":1468:1485   */\n      add\n        /* \"#utility.yul\":1459:1465   */\n      dup5\n        /* \"#utility.yul\":1421:1486   */\n      tag_420\n      jump\t// in\n    tag_522:\n        /* \"#utility.yul\":1283:1493   */\n      swap3\n      swap2\n      pop\n      pop\n      jump\t// out\n        /* \"#utility.yul\":1499:1595   */\n    tag_421:\n        /* \"#utility.yul\":1536:1543   */\n      0x00\n        /* \"#utility.yul\":1565:1589   */\n      tag_524\n        /* \"#utility.yul\":1583:1588   */\n      dup3\n        /* \"#utility.yul\":1565:1589   */\n      tag_413\n      jump\t// in\n    tag_524:\n        /* \"#utility.yul\":1554:1589   */\n      swap1\n      pop\n        /* \"#utility.yul\":1499:1595   */\n      swap2\n      swap1\n      pop\n      jump\t// out\n        /* \"#utility.yul\":1601:1719   */\n    tag_422:\n        /* \"#utility.yul\":1688:1712   */\n      tag_526\n        /* \"#utility.yul\":1706:1711   */\n      dup2\n        /* \"#utility.yul\":1688:1712   */\n      tag_421\n      jump\t// in\n    tag_526:\n        /* \"#utility.yul\":1683:1686   */\n      dup3\n        /* \"#utility.yul\":1676:1713   */\n      mstore\n        /* \"#utility.yul\":1601:1719   */\n      pop\n      pop\n      jump\t// out\n        /* \"#utility.yul\":1725:1947   */\n    tag_43:\n        /* \"#utility.yul\":1818:1822   */\n      0x00\n        /* \"#utility.yul\":1856:1858   */\n      0x20\n        /* \"#utility.yul\":1845:1854   */\n      dup3\n        /* \"#utility.yul\":1841:1859   */\n      add\n        /* \"#utility.yul\":1833:1859   */\n      swap1\n      pop\n        /* \"#utility.yul\":1869:1940   */\n      tag_528\n        /* \"#utility.yul\":1937:1938   */\n      0x00\n        /* \"#utility.yul\":1926:1935   */\n      dup4\n        /* \"#utility.yul\":1922:1939   */\n      add\n        /* \"#utility.yul\":1913:1919   */\n      dup5\n        /* \"#utility.yul\":1869:1940   */\n      tag_422\n      jump\t// in\n    tag_528:\n        /* \"#utility.yul\":1725:1947   */\n      swap3\n      swap2\n      pop\n      pop\n      jump\t// out\n        /* \"#utility.yul\":1953:2093   */\n    tag_423:\n        /* \"#utility.yul\":2017:2026   */\n      0x00\n        /* \"#utility.yul\":2050:2087   */\n      tag_530\n        /* \"#utility.yul\":2081:2086   */\n      dup3\n        /* \"#utility.yul\":2050:2087   */\n      tag_416\n      jump\t// in\n    tag_530:\n        /* \"#utility.yul\":2037:2087   */\n      swap1\n      pop\n        /* \"#utility.yul\":1953:2093   */\n      swap2\n      swap1\n      pop\n      jump\t// out\n        /* \"#utility.yul\":2099:2258   */\n    tag_424:\n        /* \"#utility.yul\":2200:2251   */\n      tag_532\n        /* \"#utility.yul\":2245:2250   */\n      dup2\n        /* \"#utility.yul\":2200:2251   */\n      tag_423\n      jump\t// in\n    tag_532:\n        /* \"#utility.yul\":2195:2198   */\n      dup3\n        /* \"#utility.yul\":2188:2252   */\n      mstore\n        /* \"#utility.yul\":2099:2258   */\n      pop\n      pop\n      jump\t// out\n        /* \"#utility.yul\":2264:2514   */\n    tag_47:\n        /* \"#utility.yul\":2371:2375   */\n      0x00\n        /* \"#utility.yul\":2409:2411   */\n      0x20\n        /* \"#utility.yul\":2398:2407   */\n      dup3\n        /* \"#utility.yul\":2394:2412   */\n      add\n        /* \"#utility.yul\":2386:2412   */\n      swap1\n      pop\n        /* \"#utility.yul\":2422:2507   */\n      tag_534\n        /* \"#utility.yul\":2504:2505   */\n      0x00\n        /* \"#utility.yul\":2493:2502   */\n      dup4\n        /* \"#utility.yul\":2489:2506   */\n      add\n        /* \"#utility.yul\":2480:2486   */\n      dup5\n        /* \"#utility.yul\":2422:2507   */\n      tag_424\n      jump\t// in\n    tag_534:\n        /* \"#utility.yul\":2264:2514   */\n      swap3\n      swap2\n      pop\n      pop\n      jump\t// out\n        /* \"#utility.yul\":2520:2595   */\n    tag_425:\n        /* \"#utility.yul\":2553:2559   */\n      0x00\n        /* \"#utility.yul\":2586:2588   */\n      0x40\n        /* \"#utility.yul\":2580:2589   */\n      mload\n        /* \"#utility.yul\":2570:2589   */\n      swap1\n      pop\n        /* \"#utility.yul\":2520:2595   */\n      swap1\n      jump\t// out\n        /* \"#utility.yul\":2601:2718   */\n    tag_426:\n        /* \"#utility.yul\":2710:2711   */\n      0x00\n        /* \"#utility.yul\":2707:2708   */\n      0x00\n        /* \"#utility.yul\":2700:2712   */\n      revert\n        /* \"#utility.yul\":2847:2924   */\n    tag_428:\n        /* \"#utility.yul\":2884:2891   */\n      0x00\n        /* \"#utility.yul\":2913:2918   */\n      dup2\n        /* \"#utility.yul\":2902:2918   */\n      swap1\n      pop\n        /* \"#utility.yul\":2847:2924   */\n      swap2\n      swap1\n      pop\n      jump\t// out\n        /* \"#utility.yul\":2930:3052   */\n    tag_429:\n        /* \"#utility.yul\":3003:3027   */\n      tag_540\n        /* \"#utility.yul\":3021:3026   */\n      dup2\n        /* \"#utility.yul\":3003:3027   */\n      tag_428\n      jump\t// in\n    tag_540:\n        /* \"#utility.yul\":2996:3001   */\n      dup2\n        /* \"#utility.yul\":2993:3028   */\n      eq\n        /* \"#utility.yul\":2983:3046   */\n      tag_541\n      jumpi\n        /* \"#utility.yul\":3042:3043   */\n      0x00\n        /* \"#utility.yul\":3039:3040   */\n      0x00\n        /* \"#utility.yul\":3032:3044   */\n      revert\n        /* \"#utility.yul\":2983:3046   */\n    tag_541:\n        /* \"#utility.yul\":2930:3052   */\n      pop\n      jump\t// out\n        /* \"#utility.yul\":3058:3197   */\n    tag_430:\n        /* \"#utility.yul\":3104:3109   */\n      0x00\n        /* \"#utility.yul\":3142:3148   */\n      dup2\n        /* \"#utility.yul\":3129:3149   */\n      calldataload\n        /* \"#utility.yul\":3120:3149   */\n      swap1\n      pop\n        /* \"#utility.yul\":3158:3191   */\n      tag_543\n        /* \"#utility.yul\":3185:3190   */\n      dup2\n        /* \"#utility.yul\":3158:3191   */\n      tag_429\n      jump\t// in\n    tag_543:\n        /* \"#utility.yul\":3058:3197   */\n      swap3\n      swap2\n      pop\n      pop\n      jump\t// out\n        /* \"#utility.yul\":3203:3677   */\n    tag_50:\n        /* \"#utility.yul\":3271:3277   */\n      0x00\n        /* \"#utility.yul\":3279:3285   */\n      0x00\n        /* \"#utility.yul\":3328:3330   */\n      0x40\n        /* \"#utility.yul\":3316:3325   */\n      dup4\n        /* \"#utility.yul\":3307:3314   */\n      dup6\n        /* \"#utility.yul\":3303:3326   */\n      sub\n        /* \"#utility.yul\":3299:3331   */\n      slt\n        /* \"#utility.yul\":3296:3415   */\n      iszero\n      tag_545\n      jumpi\n        /* \"#utility.yul\":3334:3413   */\n      tag_546\n      tag_426\n      jump\t// in\n    tag_546:\n        /* \"#utility.yul\":3296:3415   */\n    tag_545:\n        /* \"#utility.yul\":3454:3455   */\n      0x00\n        /* \"#utility.yul\":3479:3532   */\n      tag_547\n        /* \"#utility.yul\":3524:3531   */\n      dup6\n        /* \"#utility.yul\":3515:3521   */\n      dup3\n        /* \"#utility.yul\":3504:3513   */\n      dup7\n        /* \"#utility.yul\":3500:3522   */\n      add\n        /* \"#utility.yul\":3479:3532   */\n      tag_430\n      jump\t// in\n    tag_547:\n        /* \"#utility.yul\":3469:3532   */\n      swap3\n      pop\n        /* \"#utility.yul\":3425:3542   */\n      pop\n        /* \"#utility.yul\":3581:3583   */\n      0x20\n        /* \"#utility.yul\":3607:3660   */\n      tag_548\n        /* \"#utility.yul\":3652:3659   */\n      dup6\n        /* \"#utility.yul\":3643:3649   */\n      dup3\n        /* \"#utility.yul\":3632:3641   */\n      dup7\n        /* \"#utility.yul\":3628:3650   */\n      add\n        /* \"#utility.yul\":3607:3660   */\n      tag_430\n      jump\t// in\n    tag_548:\n        /* \"#utility.yul\":3597:3660   */\n      swap2\n      pop\n        /* \"#utility.yul\":3552:3670   */\n      pop\n        /* \"#utility.yul\":3203:3677   */\n      swap3\n      pop\n      swap3\n      swap1\n      pop\n      jump\t// out\n        /* \"#utility.yul\":3683:3801   */\n    tag_431:\n        /* \"#utility.yul\":3770:3794   */\n      tag_550\n        /* \"#utility.yul\":3788:3793   */\n      dup2\n        /* \"#utility.yul\":3770:3794   */\n      tag_428\n      jump\t// in\n    tag_550:\n        /* \"#utility.yul\":3765:3768   */\n      dup3\n        /* \"#utility.yul\":3758:3795   */\n      mstore\n        /* \"#utility.yul\":3683:3801   */\n      pop\n      pop\n      jump\t// out\n        /* \"#utility.yul\":3807:4139   */\n    tag_53:\n        /* \"#utility.yul\":3928:3932   */\n      0x00\n        /* \"#utility.yul\":3966:3968   */\n      0x40\n        /* \"#utility.yul\":3955:3964   */\n      dup3\n        /* \"#utility.yul\":3951:3969   */\n      add\n        /* \"#utility.yul\":3943:3969   */\n      swap1\n      pop\n        /* \"#utility.yul\":3979:4050   */\n      tag_552\n        /* \"#utility.yul\":4047:4048   */\n      0x00\n        /* \"#utility.yul\":4036:4045   */\n      dup4\n        /* \"#utility.yul\":4032:4049   */\n      add\n        /* \"#utility.yul\":4023:4029   */\n      dup6\n        /* \"#utility.yul\":3979:4050   */\n      tag_431\n      jump\t// in\n    tag_552:\n        /* \"#utility.yul\":4060:4132   */\n      tag_553\n        /* \"#utility.yul\":4128:4130   */\n      0x20\n        /* \"#utility.yul\":4117:4126   */\n      dup4\n        /* \"#utility.yul\":4113:4131   */\n      add\n        /* \"#utility.yul\":4104:4110   */\n      dup5\n        /* \"#utility.yul\":4060:4132   */\n      tag_431\n      jump\t// in\n    tag_553:\n        /* \"#utility.yul\":3807:4139   */\n      swap4\n      swap3\n      pop\n      pop\n      pop\n      jump\t// out\n        /* \"#utility.yul\":4145:4474   */\n    tag_56:\n        /* \"#utility.yul\":4204:4210   */\n      0x00\n        /* \"#utility.yul\":4253:4255   */\n      0x20\n        /* \"#utility.yul\":4241:4250   */\n      dup3\n        /* \"#utility.yul\":4232:4239   */\n      dup5\n        /* \"#utility.yul\":4228:4251   */\n      sub\n        /* \"#utility.yul\":4224:4256   */\n      slt\n        /* \"#utility.yul\":4221:4340   */\n      iszero\n      tag_555\n      jumpi\n        /* \"#utility.yul\":4259:4338   */\n      tag_556\n      tag_426\n      jump\t// in\n    tag_556:\n        /* \"#utility.yul\":4221:4340   */\n    tag_555:\n        /* \"#utility.yul\":4379:4380   */\n      0x00\n        /* \"#utility.yul\":4404:4457   */\n      tag_557\n        /* \"#utility.yul\":4449:4456   */\n      dup5\n        /* \"#utility.yul\":4440:4446   */\n      dup3\n        /* \"#utility.yul\":4429:4438   */\n      dup6\n        /* \"#utility.yul\":4425:4447   */\n      add\n        /* \"#utility.yul\":4404:4457   */\n      tag_430\n      jump\t// in\n    tag_557:\n        /* \"#utility.yul\":4394:4457   */\n      swap2\n      pop\n        /* \"#utility.yul\":4350:4467   */\n      pop\n        /* \"#utility.yul\":4145:4474   */\n      swap3\n      swap2\n      pop\n      pop\n      jump\t// out\n        /* \"#utility.yul\":4480:4702   */\n    tag_62:\n        /* \"#utility.yul\":4573:4577   */\n      0x00\n        /* \"#utility.yul\":4611:4613   */\n      0x20\n        /* \"#utility.yul\":4600:4609   */\n      dup3\n        /* \"#utility.yul\":4596:4614   */\n      add\n        /* \"#utility.yul\":4588:4614   */\n      swap1\n      pop\n        /* \"#utility.yul\":4624:4695   */\n      tag_559\n        /* \"#utility.yul\":4692:4693   */\n      0x00\n        /* \"#utility.yul\":4681:4690   */\n      dup4\n        /* \"#utility.yul\":4677:4694   */\n      add\n        /* \"#utility.yul\":4668:4674   */\n      dup5\n        /* \"#utility.yul\":4624:4695   */\n      tag_431\n      jump\t// in\n    tag_559:\n        /* \"#utility.yul\":4480:4702   */\n      swap3\n      swap2\n      pop\n      pop\n      jump\t// out\n        /* \"#utility.yul\":4708:4830   */\n    tag_432:\n        /* \"#utility.yul\":4781:4805   */\n      tag_561\n        /* \"#utility.yul\":4799:4804   */\n      dup2\n        /* \"#utility.yul\":4781:4805   */\n      tag_421\n      jump\t// in\n    tag_561:\n        /* \"#utility.yul\":4774:4779   */\n      dup2\n        /* \"#utility.yul\":4771:4806   */\n      eq\n        /* \"#utility.yul\":4761:4824   */\n      tag_562\n      jumpi\n        /* \"#utility.yul\":4820:4821   */\n      0x00\n        /* \"#utility.yul\":4817:4818   */\n      0x00\n        /* \"#utility.yul\":4810:4822   */\n      revert\n        /* \"#utility.yul\":4761:4824   */\n    tag_562:\n        /* \"#utility.yul\":4708:4830   */\n      pop\n      jump\t// out\n        /* \"#utility.yul\":4836:4975   */\n    tag_433:\n        /* \"#utility.yul\":4882:4887   */\n      0x00\n        /* \"#utility.yul\":4920:4926   */\n      dup2\n        /* \"#utility.yul\":4907:4927   */\n      calldataload\n        /* \"#utility.yul\":4898:4927   */\n      swap1\n      pop\n        /* \"#utility.yul\":4936:4969   */\n      tag_564\n        /* \"#utility.yul\":4963:4968   */\n      dup2\n        /* \"#utility.yul\":4936:4969   */\n      tag_432\n      jump\t// in\n    tag_564:\n        /* \"#utility.yul\":4836:4975   */\n      swap3\n      swap2\n      pop\n      pop\n      jump\t// out\n        /* \"#utility.yul\":4981:5310   */\n    tag_65:\n        /* \"#utility.yul\":5040:5046   */\n      0x00\n        /* \"#utility.yul\":5089:5091   */\n      0x20\n        /* \"#utility.yul\":5077:5086   */\n      dup3\n        /* \"#utility.yul\":5068:5075   */\n      dup5\n        /* \"#utility.yul\":5064:5087   */\n      sub\n        /* \"#utility.yul\":5060:5092   */\n      slt\n        /* \"#utility.yul\":5057:5176   */\n      iszero\n      tag_566\n      jumpi\n        /* \"#utility.yul\":5095:5174   */\n      tag_567\n      tag_426\n      jump\t// in\n    tag_567:\n        /* \"#utility.yul\":5057:5176   */\n    tag_566:\n        /* \"#utility.yul\":5215:5216   */\n      0x00\n        /* \"#utility.yul\":5240:5293   */\n      tag_568\n        /* \"#utility.yul\":5285:5292   */\n      dup5\n        /* \"#utility.yul\":5276:5282   */\n      dup3\n        /* \"#utility.yul\":5265:5274   */\n      dup6\n        /* \"#utility.yul\":5261:5283   */\n      add\n        /* \"#utility.yul\":5240:5293   */\n      tag_433\n      jump\t// in\n    tag_568:\n        /* \"#utility.yul\":5230:5293   */\n      swap2\n      pop\n        /* \"#utility.yul\":5186:5303   */\n      pop\n        /* \"#utility.yul\":4981:5310   */\n      swap3\n      swap2\n      pop\n      pop\n      jump\t// out\n        /* \"#utility.yul\":5316:5465   */\n    tag_434:\n        /* \"#utility.yul\":5389:5398   */\n      0x00\n        /* \"#utility.yul\":5422:5459   */\n      tag_570\n        /* \"#utility.yul\":5453:5458   */\n      dup3\n        /* \"#utility.yul\":5422:5459   */\n      tag_416\n      jump\t// in\n    tag_570:\n        /* \"#utility.yul\":5409:5459   */\n      swap1\n      pop\n        /* \"#utility.yul\":5316:5465   */\n      swap2\n      swap1\n      pop\n      jump\t// out\n        /* \"#utility.yul\":5471:5648   */\n    tag_435:\n        /* \"#utility.yul\":5581:5641   */\n      tag_572\n        /* \"#utility.yul\":5635:5640   */\n      dup2\n        /* \"#utility.yul\":5581:5641   */\n      tag_434\n      jump\t// in\n    tag_572:\n        /* \"#utility.yul\":5576:5579   */\n      dup3\n        /* \"#utility.yul\":5569:5642   */\n      mstore\n        /* \"#utility.yul\":5471:5648   */\n      pop\n      pop\n      jump\t// out\n        /* \"#utility.yul\":5654:5922   */\n    tag_84:\n        /* \"#utility.yul\":5770:5774   */\n      0x00\n        /* \"#utility.yul\":5808:5810   */\n      0x20\n        /* \"#utility.yul\":5797:5806   */\n      dup3\n        /* \"#utility.yul\":5793:5811   */\n      add\n        /* \"#utility.yul\":5785:5811   */\n      swap1\n      pop\n        /* \"#utility.yul\":5821:5915   */\n      tag_574\n        /* \"#utility.yul\":5912:5913   */\n      0x00\n        /* \"#utility.yul\":5901:5910   */\n      dup4\n        /* \"#utility.yul\":5897:5914   */\n      add\n        /* \"#utility.yul\":5888:5894   */\n      dup5\n        /* \"#utility.yul\":5821:5915   */\n      tag_435\n      jump\t// in\n    tag_574:\n        /* \"#utility.yul\":5654:5922   */\n      swap3\n      swap2\n      pop\n      pop\n      jump\t// out\n        /* \"#utility.yul\":5928:6044   */\n    tag_436:\n        /* \"#utility.yul\":5998:6019   */\n      tag_576\n        /* \"#utility.yul\":6013:6018   */\n      dup2\n        /* \"#utility.yul\":5998:6019   */\n      tag_419\n      jump\t// in\n    tag_576:\n        /* \"#utility.yul\":5991:5996   */\n      dup2\n        /* \"#utility.yul\":5988:6020   */\n      eq\n        /* \"#utility.yul\":5978:6038   */\n      tag_577\n      jumpi\n        /* \"#utility.yul\":6034:6035   */\n      0x00\n        /* \"#utility.yul\":6031:6032   */\n      0x00\n        /* \"#utility.yul\":6024:6036   */\n      revert\n        /* \"#utility.yul\":5978:6038   */\n    tag_577:\n        /* \"#utility.yul\":5928:6044   */\n      pop\n      jump\t// out\n        /* \"#utility.yul\":6050:6183   */\n    tag_437:\n        /* \"#utility.yul\":6093:6098   */\n      0x00\n        /* \"#utility.yul\":6131:6137   */\n      dup2\n        /* \"#utility.yul\":6118:6138   */\n      calldataload\n        /* \"#utility.yul\":6109:6138   */\n      swap1\n      pop\n        /* \"#utility.yul\":6147:6177   */\n      tag_579\n        /* \"#utility.yul\":6171:6176   */\n      dup2\n        /* \"#utility.yul\":6147:6177   */\n      tag_436\n      jump\t// in\n    tag_579:\n        /* \"#utility.yul\":6050:6183   */\n      swap3\n      swap2\n      pop\n      pop\n      jump\t// out\n        /* \"#utility.yul\":6189:6512   */\n    tag_102:\n        /* \"#utility.yul\":6245:6251   */\n      0x00\n        /* \"#utility.yul\":6294:6296   */\n      0x20\n        /* \"#utility.yul\":6282:6291   */\n      dup3\n        /* \"#utility.yul\":6273:6280   */\n      dup5\n        /* \"#utility.yul\":6269:6292   */\n      sub\n        /* \"#utility.yul\":6265:6297   */\n      slt\n        /* \"#utility.yul\":6262:6381   */\n      iszero\n      tag_581\n      jumpi\n        /* \"#utility.yul\":6300:6379   */\n      tag_582\n      tag_426\n      jump\t// in\n    tag_582:\n        /* \"#utility.yul\":6262:6381   */\n    tag_581:\n        /* \"#utility.yul\":6420:6421   */\n      0x00\n        /* \"#utility.yul\":6445:6495   */\n      tag_583\n        /* \"#utility.yul\":6487:6494   */\n      dup5\n        /* \"#utility.yul\":6478:6484   */\n      dup3\n        /* \"#utility.yul\":6467:6476   */\n      dup6\n        /* \"#utility.yul\":6463:6485   */\n      add\n        /* \"#utility.yul\":6445:6495   */\n      tag_437\n      jump\t// in\n    tag_583:\n        /* \"#utility.yul\":6435:6495   */\n      swap2\n      pop\n        /* \"#utility.yul\":6391:6505   */\n      pop\n        /* \"#utility.yul\":6189:6512   */\n      swap3\n      swap2\n      pop\n      pop\n      jump\t// out\n        /* \"#utility.yul\":6518:6687   */\n    tag_438:\n        /* \"#utility.yul\":6602:6613   */\n      0x00\n        /* \"#utility.yul\":6636:6642   */\n      dup3\n        /* \"#utility.yul\":6631:6634   */\n      dup3\n        /* \"#utility.yul\":6624:6643   */\n      mstore\n        /* \"#utility.yul\":6676:6680   */\n      0x20\n        /* \"#utility.yul\":6671:6674   */\n      dup3\n        /* \"#utility.yul\":6667:6681   */\n      add\n        /* \"#utility.yul\":6652:6681   */\n      swap1\n      pop\n        /* \"#utility.yul\":6518:6687   */\n      swap3\n      swap2\n      pop\n      pop\n      jump\t// out\n        /* \"#utility.yul\":6693:6858   */\n    tag_439:\n        /* \"#utility.yul\":6833:6850   */\n      0x6e6f7420696e697469616c697a65640000000000000000000000000000000000\n        /* \"#utility.yul\":6829:6830   */\n      0x00\n        /* \"#utility.yul\":6821:6827   */\n      dup3\n        /* \"#utility.yul\":6817:6831   */\n      add\n        /* \"#utility.yul\":6810:6851   */\n      mstore\n        /* \"#utility.yul\":6693:6858   */\n      pop\n      jump\t// out\n        /* \"#utility.yul\":6864:7230   */\n    tag_440:\n        /* \"#utility.yul\":7006:7009   */\n      0x00\n        /* \"#utility.yul\":7027:7094   */\n      tag_587\n        /* \"#utility.yul\":7091:7093   */\n      0x0f\n        /* \"#utility.yul\":7086:7089   */\n      dup4\n        /* \"#utility.yul\":7027:7094   */\n      tag_438\n      jump\t// in\n    tag_587:\n        /* \"#utility.yul\":7020:7094   */\n      swap2\n      pop\n        /* \"#utility.yul\":7103:7196   */\n      tag_588\n        /* \"#utility.yul\":7192:7195   */\n      dup3\n        /* \"#utility.yul\":7103:7196   */\n      tag_439\n      jump\t// in\n    tag_588:\n        /* \"#utility.yul\":7221:7223   */\n      0x20\n        /* \"#utility.yul\":7216:7219   */\n      dup3\n        /* \"#utility.yul\":7212:7224   */\n      add\n        /* \"#utility.yul\":7205:7224   */\n      swap1\n      pop\n        /* \"#utility.yul\":6864:7230   */\n      swap2\n      swap1\n      pop\n      jump\t// out\n        /* \"#utility.yul\":7236:7655   */\n    tag_126:\n        /* \"#utility.yul\":7402:7406   */\n      0x00\n        /* \"#utility.yul\":7440:7442   */\n      0x20\n        /* \"#utility.yul\":7429:7438   */\n      dup3\n        /* \"#utility.yul\":7425:7443   */\n      add\n        /* \"#utility.yul\":7417:7443   */\n      swap1\n      pop\n        /* \"#utility.yul\":7489:7498   */\n      dup2\n        /* \"#utility.yul\":7483:7487   */\n      dup2\n        /* \"#utility.yul\":7479:7499   */\n      sub\n        /* \"#utility.yul\":7475:7476   */\n      0x00\n        /* \"#utility.yul\":7464:7473   */\n      dup4\n        /* \"#utility.yul\":7460:7477   */\n      add\n        /* \"#utility.yul\":7453:7500   */\n      mstore\n        /* \"#utility.yul\":7517:7648   */\n      tag_590\n        /* \"#utility.yul\":7643:7647   */\n      dup2\n        /* \"#utility.yul\":7517:7648   */\n      tag_440\n      jump\t// in\n    tag_590:\n        /* \"#utility.yul\":7509:7648   */\n      swap1\n      pop\n        /* \"#utility.yul\":7236:7655   */\n      swap2\n      swap1\n      pop\n      jump\t// out\n        /* \"#utility.yul\":7661:7822   */\n    tag_441:\n        /* \"#utility.yul\":7801:7814   */\n      0x6d696e7420706175736564000000000000000000000000000000000000000000\n        /* \"#utility.yul\":7797:7798   */\n      0x00\n        /* \"#utility.yul\":7789:7795   */\n      dup3\n        /* \"#utility.yul\":7785:7799   */\n      add\n        /* \"#utility.yul\":7778:7815   */\n      mstore\n        /* \"#utility.yul\":7661:7822   */\n      pop\n      jump\t// out\n        /* \"#utility.yul\":7828:8194   */\n    tag_442:\n        /* \"#utility.yul\":7970:7973   */\n      0x00\n        /* \"#utility.yul\":7991:8058   */\n      tag_593\n        /* \"#utility.yul\":8055:8057   */\n      0x0b\n        /* \"#utility.yul\":8050:8053   */\n      dup4\n        /* \"#utility.yul\":7991:8058   */\n      tag_438\n      jump\t// in\n    tag_593:\n        /* \"#utility.yul\":7984:8058   */\n      swap2\n      pop\n        /* \"#utility.yul\":8067:8160   */\n      tag_594\n        /* \"#utility.yul\":8156:8159   */\n      dup3\n        /* \"#utility.yul\":8067:8160   */\n      tag_441\n      jump\t// in\n    tag_594:\n        /* \"#utility.yul\":8185:8187   */\n      0x20\n        /* \"#utility.yul\":8180:8183   */\n      dup3\n        /* \"#utility.yul\":8176:8188   */\n      add\n        /* \"#utility.yul\":8169:8188   */\n      swap1\n      pop\n        /* \"#utility.yul\":7828:8194   */\n      swap2\n      swap1\n      pop\n      jump\t// out\n        /* \"#utility.yul\":8200:8619   */\n    tag_129:\n        /* \"#utility.yul\":8366:8370   */\n      0x00\n        /* \"#utility.yul\":8404:8406   */\n      0x20\n        /* \"#utility.yul\":8393:8402   */\n      dup3\n        /* \"#utility.yul\":8389:8407   */\n      add\n        /* \"#utility.yul\":8381:8407   */\n      swap1\n      pop\n        /* \"#utility.yul\":8453:8462   */\n      dup2\n        /* \"#utility.yul\":8447:8451   */\n      dup2\n        /* \"#utility.yul\":8443:8463   */\n      sub\n        /* \"#utility.yul\":8439:8440   */\n      0x00\n        /* \"#utility.yul\":8428:8437   */\n      dup4\n        /* \"#utility.yul\":8424:8441   */\n      add\n        /* \"#utility.yul\":8417:8464   */\n      mstore\n        /* \"#utility.yul\":8481:8612   */\n      tag_596\n        /* \"#utility.yul\":8607:8611   */\n      dup2\n        /* \"#utility.yul\":8481:8612   */\n      tag_442\n      jump\t// in\n    tag_596:\n        /* \"#utility.yul\":8473:8612   */\n      swap1\n      pop\n        /* \"#utility.yul\":8200:8619   */\n      swap2\n      swap1\n      pop\n      jump\t// out\n        /* \"#utility.yul\":8625:8784   */\n    tag_443:\n        /* \"#utility.yul\":8765:8776   */\n      0x7a65726f20555344430000000000000000000000000000000000000000000000\n        /* \"#utility.yul\":8761:8762   */\n      0x00\n        /* \"#utility.yul\":8753:8759   */\n      dup3\n        /* \"#utility.yul\":8749:8763   */\n      add\n        /* \"#utility.yul\":8742:8777   */\n      mstore\n        /* \"#utility.yul\":8625:8784   */\n      pop\n      jump\t// out\n        /* \"#utility.yul\":8790:9155   */\n    tag_444:\n        /* \"#utility.yul\":8932:8935   */\n      0x00\n        /* \"#utility.yul\":8953:9019   */\n      tag_599\n        /* \"#utility.yul\":9017:9018   */\n      0x09\n        /* \"#utility.yul\":9012:9015   */\n      dup4\n        /* \"#utility.yul\":8953:9019   */\n      tag_438\n      jump\t// in\n    tag_599:\n        /* \"#utility.yul\":8946:9019   */\n      swap2\n      pop\n        /* \"#utility.yul\":9028:9121   */\n      tag_600\n        /* \"#utility.yul\":9117:9120   */\n      dup3\n        /* \"#utility.yul\":9028:9121   */\n      tag_443\n      jump\t// in\n    tag_600:\n        /* \"#utility.yul\":9146:9148   */\n      0x20\n        /* \"#utility.yul\":9141:9144   */\n      dup3\n        /* \"#utility.yul\":9137:9149   */\n      add\n        /* \"#utility.yul\":9130:9149   */\n      swap1\n      pop\n        /* \"#utility.yul\":8790:9155   */\n      swap2\n      swap1\n      pop\n      jump\t// out\n        /* \"#utility.yul\":9161:9580   */\n    tag_132:\n        /* \"#utility.yul\":9327:9331   */\n      0x00\n        /* \"#utility.yul\":9365:9367   */\n      0x20\n        /* \"#utility.yul\":9354:9363   */\n      dup3\n        /* \"#utility.yul\":9350:9368   */\n      add\n        /* \"#utility.yul\":9342:9368   */\n      swap1\n      pop\n        /* \"#utility.yul\":9414:9423   */\n      dup2\n        /* \"#utility.yul\":9408:9412   */\n      dup2\n        /* \"#utility.yul\":9404:9424   */\n      sub\n        /* \"#utility.yul\":9400:9401   */\n      0x00\n        /* \"#utility.yul\":9389:9398   */\n      dup4\n        /* \"#utility.yul\":9385:9402   */\n      add\n        /* \"#utility.yul\":9378:9425   */\n      mstore\n        /* \"#utility.yul\":9442:9573   */\n      tag_602\n        /* \"#utility.yul\":9568:9572   */\n      dup2\n        /* \"#utility.yul\":9442:9573   */\n      tag_444\n      jump\t// in\n    tag_602:\n        /* \"#utility.yul\":9434:9573   */\n      swap1\n      pop\n        /* \"#utility.yul\":9161:9580   */\n      swap2\n      swap1\n      pop\n      jump\t// out\n        /* \"#utility.yul\":9586:9752   */\n    tag_445:\n        /* \"#utility.yul\":9726:9744   */\n      0x7a65726f206d696e7420616d6f756e7400000000000000000000000000000000\n        /* \"#utility.yul\":9722:9723   */\n      0x00\n        /* \"#utility.yul\":9714:9720   */\n      dup3\n        /* \"#utility.yul\":9710:9724   */\n      add\n        /* \"#utility.yul\":9703:9745   */\n      mstore\n        /* \"#utility.yul\":9586:9752   */\n      pop\n      jump\t// out\n        /* \"#utility.yul\":9758:10124   */\n    tag_446:\n        /* \"#utility.yul\":9900:9903   */\n      0x00\n        /* \"#utility.yul\":9921:9988   */\n      tag_605\n        /* \"#utility.yul\":9985:9987   */\n      0x10\n        /* \"#utility.yul\":9980:9983   */\n      dup4\n        /* \"#utility.yul\":9921:9988   */\n      tag_438\n      jump\t// in\n    tag_605:\n        /* \"#utility.yul\":9914:9988   */\n      swap2\n      pop\n        /* \"#utility.yul\":9997:10090   */\n      tag_606\n        /* \"#utility.yul\":10086:10089   */\n      dup3\n        /* \"#utility.yul\":9997:10090   */\n      tag_445\n      jump\t// in\n    tag_606:\n        /* \"#utility.yul\":10115:10117   */\n      0x20\n        /* \"#utility.yul\":10110:10113   */\n      dup3\n        /* \"#utility.yul\":10106:10118   */\n      add\n        /* \"#utility.yul\":10099:10118   */\n      swap1\n      pop\n        /* \"#utility.yul\":9758:10124   */\n      swap2\n      swap1\n      pop\n      jump\t// out\n        /* \"#utility.yul\":10130:10549   */\n    tag_141:\n        /* \"#utility.yul\":10296:10300   */\n      0x00\n        /* \"#utility.yul\":10334:10336   */\n      0x20\n        /* \"#utility.yul\":10323:10332   */\n      dup3\n        /* \"#utility.yul\":10319:10337   */\n      add\n        /* \"#utility.yul\":10311:10337   */\n      swap1\n      pop\n        /* \"#utility.yul\":10383:10392   */\n      dup2\n        /* \"#utility.yul\":10377:10381   */\n      dup2\n        /* \"#utility.yul\":10373:10393   */\n      sub\n        /* \"#utility.yul\":10369:10370   */\n      0x00\n        /* \"#utility.yul\":10358:10367   */\n      dup4\n        /* \"#utility.yul\":10354:10371   */\n      add\n        /* \"#utility.yul\":10347:10394   */\n      mstore\n        /* \"#utility.yul\":10411:10542   */\n      tag_608\n        /* \"#utility.yul\":10537:10541   */\n      dup2\n        /* \"#utility.yul\":10411:10542   */\n      tag_446\n      jump\t// in\n    tag_608:\n        /* \"#utility.yul\":10403:10542   */\n      swap1\n      pop\n        /* \"#utility.yul\":10130:10549   */\n      swap2\n      swap1\n      pop\n      jump\t// out\n        /* \"#utility.yul\":10555:10725   */\n    tag_447:\n        /* \"#utility.yul\":10695:10717   */\n      0x696e73756666696369656e7420525741206f7574000000000000000000000000\n        /* \"#utility.yul\":10691:10692   */\n      0x00\n        /* \"#utility.yul\":10683:10689   */\n      dup3\n        /* \"#utility.yul\":10679:10693   */\n      add\n        /* \"#utility.yul\":10672:10718   */\n      mstore\n        /* \"#utility.yul\":10555:10725   */\n      pop\n      jump\t// out\n        /* \"#utility.yul\":10731:11097   */\n    tag_448:\n        /* \"#utility.yul\":10873:10876   */\n      0x00\n        /* \"#utility.yul\":10894:10961   */\n      tag_611\n        /* \"#utility.yul\":10958:10960   */\n      0x14\n        /* \"#utility.yul\":10953:10956   */\n      dup4\n        /* \"#utility.yul\":10894:10961   */\n      tag_438\n      jump\t// in\n    tag_611:\n        /* \"#utility.yul\":10887:10961   */\n      swap2\n      pop\n        /* \"#utility.yul\":10970:11063   */\n      tag_612\n        /* \"#utility.yul\":11059:11062   */\n      dup3\n        /* \"#utility.yul\":10970:11063   */\n      tag_447\n      jump\t// in\n    tag_612:\n        /* \"#utility.yul\":11088:11090   */\n      0x20\n        /* \"#utility.yul\":11083:11086   */\n      dup3\n        /* \"#utility.yul\":11079:11091   */\n      add\n        /* \"#utility.yul\":11072:11091   */\n      swap1\n      pop\n        /* \"#utility.yul\":10731:11097   */\n      swap2\n      swap1\n      pop\n      jump\t// out\n        /* \"#utility.yul\":11103:11522   */\n    tag_144:\n        /* \"#utility.yul\":11269:11273   */\n      0x00\n        /* \"#utility.yul\":11307:11309   */\n      0x20\n        /* \"#utility.yul\":11296:11305   */\n      dup3\n        /* \"#utility.yul\":11292:11310   */\n      add\n        /* \"#utility.yul\":11284:11310   */\n      swap1\n      pop\n        /* \"#utility.yul\":11356:11365   */\n      dup2\n        /* \"#utility.yul\":11350:11354   */\n      dup2\n        /* \"#utility.yul\":11346:11366   */\n      sub\n        /* \"#utility.yul\":11342:11343   */\n      0x00\n        /* \"#utility.yul\":11331:11340   */\n      dup4\n        /* \"#utility.yul\":11327:11344   */\n      add\n        /* \"#utility.yul\":11320:11367   */\n      mstore\n        /* \"#utility.yul\":11384:11515   */\n      tag_614\n        /* \"#utility.yul\":11510:11514   */\n      dup2\n        /* \"#utility.yul\":11384:11515   */\n      tag_448\n      jump\t// in\n    tag_614:\n        /* \"#utility.yul\":11376:11515   */\n      swap1\n      pop\n        /* \"#utility.yul\":11103:11522   */\n      swap2\n      swap1\n      pop\n      jump\t// out\n        /* \"#utility.yul\":11528:11696   */\n    tag_449:\n        /* \"#utility.yul\":11668:11688   */\n      0x7a65726f20555344432072657175697265640000000000000000000000000000\n        /* \"#utility.yul\":11664:11665   */\n      0x00\n        /* \"#utility.yul\":11656:11662   */\n      dup3\n        /* \"#utility.yul\":11652:11666   */\n      add\n        /* \"#utility.yul\":11645:11689   */\n      mstore\n        /* \"#utility.yul\":11528:11696   */\n      pop\n      jump\t// out\n        /* \"#utility.yul\":11702:12068   */\n    tag_450:\n        /* \"#utility.yul\":11844:11847   */\n      0x00\n        /* \"#utility.yul\":11865:11932   */\n      tag_617\n        /* \"#utility.yul\":11929:11931   */\n      0x12\n        /* \"#utility.yul\":11924:11927   */\n      dup4\n        /* \"#utility.yul\":11865:11932   */\n      tag_438\n      jump\t// in\n    tag_617:\n        /* \"#utility.yul\":11858:11932   */\n      swap2\n      pop\n        /* \"#utility.yul\":11941:12034   */\n      tag_618\n        /* \"#utility.yul\":12030:12033   */\n      dup3\n        /* \"#utility.yul\":11941:12034   */\n      tag_449\n      jump\t// in\n    tag_618:\n        /* \"#utility.yul\":12059:12061   */\n      0x20\n        /* \"#utility.yul\":12054:12057   */\n      dup3\n        /* \"#utility.yul\":12050:12062   */\n      add\n        /* \"#utility.yul\":12043:12062   */\n      swap1\n      pop\n        /* \"#utility.yul\":11702:12068   */\n      swap2\n      swap1\n      pop\n      jump\t// out\n        /* \"#utility.yul\":12074:12493   */\n    tag_147:\n        /* \"#utility.yul\":12240:12244   */\n      0x00\n        /* \"#utility.yul\":12278:12280   */\n      0x20\n        /* \"#utility.yul\":12267:12276   */\n      dup3\n        /* \"#utility.yul\":12263:12281   */\n      add\n        /* \"#utility.yul\":12255:12281   */\n      swap1\n      pop\n        /* \"#utility.yul\":12327:12336   */\n      dup2\n        /* \"#utility.yul\":12321:12325   */\n      dup2\n        /* \"#utility.yul\":12317:12337   */\n      sub\n        /* \"#utility.yul\":12313:12314   */\n      0x00\n        /* \"#utility.yul\":12302:12311   */\n      dup4\n        /* \"#utility.yul\":12298:12315   */\n      add\n        /* \"#utility.yul\":12291:12338   */\n      mstore\n        /* \"#utility.yul\":12355:12486   */\n      tag_620\n        /* \"#utility.yul\":12481:12485   */\n      dup2\n        /* \"#utility.yul\":12355:12486   */\n      tag_450\n      jump\t// in\n    tag_620:\n        /* \"#utility.yul\":12347:12486   */\n      swap1\n      pop\n        /* \"#utility.yul\":12074:12493   */\n      swap2\n      swap1\n      pop\n      jump\t// out\n        /* \"#utility.yul\":12499:12674   */\n    tag_451:\n        /* \"#utility.yul\":12639:12666   */\n      0x555344432072657175697265642065786365656473206d617800000000000000\n        /* \"#utility.yul\":12635:12636   */\n      0x00\n        /* \"#utility.yul\":12627:12633   */\n      dup3\n        /* \"#utility.yul\":12623:12637   */\n      add\n        /* \"#utility.yul\":12616:12667   */\n      mstore\n        /* \"#utility.yul\":12499:12674   */\n      pop\n      jump\t// out\n        /* \"#utility.yul\":12680:13046   */\n    tag_452:\n        /* \"#utility.yul\":12822:12825   */\n      0x00\n        /* \"#utility.yul\":12843:12910   */\n      tag_623\n        /* \"#utility.yul\":12907:12909   */\n      0x19\n        /* \"#utility.yul\":12902:12905   */\n      dup4\n        /* \"#utility.yul\":12843:12910   */\n      tag_438\n      jump\t// in\n    tag_623:\n        /* \"#utility.yul\":12836:12910   */\n      swap2\n      pop\n        /* \"#utility.yul\":12919:13012   */\n      tag_624\n        /* \"#utility.yul\":13008:13011   */\n      dup3\n        /* \"#utility.yul\":12919:13012   */\n      tag_451\n      jump\t// in\n    tag_624:\n        /* \"#utility.yul\":13037:13039   */\n      0x20\n        /* \"#utility.yul\":13032:13035   */\n      dup3\n        /* \"#utility.yul\":13028:13040   */\n      add\n        /* \"#utility.yul\":13021:13040   */\n      swap1\n      pop\n        /* \"#utility.yul\":12680:13046   */\n      swap2\n      swap1\n      pop\n      jump\t// out\n        /* \"#utility.yul\":13052:13471   */\n    tag_150:\n        /* \"#utility.yul\":13218:13222   */\n      0x00\n        /* \"#utility.yul\":13256:13258   */\n      0x20\n        /* \"#utility.yul\":13245:13254   */\n      dup3\n        /* \"#utility.yul\":13241:13259   */\n      add\n        /* \"#utility.yul\":13233:13259   */\n      swap1\n      pop\n        /* \"#utility.yul\":13305:13314   */\n      dup2\n        /* \"#utility.yul\":13299:13303   */\n      dup2\n        /* \"#utility.yul\":13295:13315   */\n      sub\n        /* \"#utility.yul\":13291:13292   */\n      0x00\n        /* \"#utility.yul\":13280:13289   */\n      dup4\n        /* \"#utility.yul\":13276:13293   */\n      add\n        /* \"#utility.yul\":13269:13316   */\n      mstore\n        /* \"#utility.yul\":13333:13464   */\n      tag_626\n        /* \"#utility.yul\":13459:13463   */\n      dup2\n        /* \"#utility.yul\":13333:13464   */\n      tag_452\n      jump\t// in\n    tag_626:\n        /* \"#utility.yul\":13325:13464   */\n      swap1\n      pop\n        /* \"#utility.yul\":13052:13471   */\n      swap2\n      swap1\n      pop\n      jump\t// out\n        /* \"#utility.yul\":13477:13809   */\n    tag_154:\n        /* \"#utility.yul\":13598:13602   */\n      0x00\n        /* \"#utility.yul\":13636:13638   */\n      0x40\n        /* \"#utility.yul\":13625:13634   */\n      dup3\n        /* \"#utility.yul\":13621:13639   */\n      add\n        /* \"#utility.yul\":13613:13639   */\n      swap1\n      pop\n        /* \"#utility.yul\":13649:13720   */\n      tag_628\n        /* \"#utility.yul\":13717:13718   */\n      0x00\n        /* \"#utility.yul\":13706:13715   */\n      dup4\n        /* \"#utility.yul\":13702:13719   */\n      add\n        /* \"#utility.yul\":13693:13699   */\n      dup6\n        /* \"#utility.yul\":13649:13720   */\n      tag_422\n      jump\t// in\n    tag_628:\n        /* \"#utility.yul\":13730:13802   */\n      tag_629\n        /* \"#utility.yul\":13798:13800   */\n      0x20\n        /* \"#utility.yul\":13787:13796   */\n      dup4\n        /* \"#utility.yul\":13783:13801   */\n      add\n        /* \"#utility.yul\":13774:13780   */\n      dup5\n        /* \"#utility.yul\":13730:13802   */\n      tag_431\n      jump\t// in\n    tag_629:\n        /* \"#utility.yul\":13477:13809   */\n      swap4\n      swap3\n      pop\n      pop\n      pop\n      jump\t// out\n        /* \"#utility.yul\":13815:14257   */\n    tag_159:\n        /* \"#utility.yul\":13964:13968   */\n      0x00\n        /* \"#utility.yul\":14002:14004   */\n      0x60\n        /* \"#utility.yul\":13991:14000   */\n      dup3\n        /* \"#utility.yul\":13987:14005   */\n      add\n        /* \"#utility.yul\":13979:14005   */\n      swap1\n      pop\n        /* \"#utility.yul\":14015:14086   */\n      tag_631\n        /* \"#utility.yul\":14083:14084   */\n      0x00\n        /* \"#utility.yul\":14072:14081   */\n      dup4\n        /* \"#utility.yul\":14068:14085   */\n      add\n        /* \"#utility.yul\":14059:14065   */\n      dup7\n        /* \"#utility.yul\":14015:14086   */\n      tag_431\n      jump\t// in\n    tag_631:\n        /* \"#utility.yul\":14096:14168   */\n      tag_632\n        /* \"#utility.yul\":14164:14166   */\n      0x20\n        /* \"#utility.yul\":14153:14162   */\n      dup4\n        /* \"#utility.yul\":14149:14167   */\n      add\n        /* \"#utility.yul\":14140:14146   */\n      dup6\n        /* \"#utility.yul\":14096:14168   */\n      tag_431\n      jump\t// in\n    tag_632:\n        /* \"#utility.yul\":14178:14250   */\n      tag_633\n        /* \"#utility.yul\":14246:14248   */\n      0x40\n        /* \"#utility.yul\":14235:14244   */\n      dup4\n        /* \"#utility.yul\":14231:14249   */\n      add\n        /* \"#utility.yul\":14222:14228   */\n      dup5\n        /* \"#utility.yul\":14178:14250   */\n      tag_431\n      jump\t// in\n    tag_633:\n        /* \"#utility.yul\":13815:14257   */\n      swap5\n      swap4\n      pop\n      pop\n      pop\n      pop\n      jump\t// out\n        /* \"#utility.yul\":14263:14423   */\n    tag_453:\n        /* \"#utility.yul\":14403:14415   */\n      0x6261642069737375657200000000000000000000000000000000000000000000\n        /* \"#utility.yul\":14399:14400   */\n      0x00\n        /* \"#utility.yul\":14391:14397   */\n      dup3\n        /* \"#utility.yul\":14387:14401   */\n      add\n        /* \"#utility.yul\":14380:14416   */\n      mstore\n        /* \"#utility.yul\":14263:14423   */\n      pop\n      jump\t// out\n        /* \"#utility.yul\":14429:14795   */\n    tag_454:\n        /* \"#utility.yul\":14571:14574   */\n      0x00\n        /* \"#utility.yul\":14592:14659   */\n      tag_636\n        /* \"#utility.yul\":14656:14658   */\n      0x0a\n        /* \"#utility.yul\":14651:14654   */\n      dup4\n        /* \"#utility.yul\":14592:14659   */\n      tag_438\n      jump\t// in\n    tag_636:\n        /* \"#utility.yul\":14585:14659   */\n      swap2\n      pop\n        /* \"#utility.yul\":14668:14761   */\n      tag_637\n        /* \"#utility.yul\":14757:14760   */\n      dup3\n        /* \"#utility.yul\":14668:14761   */\n      tag_453\n      jump\t// in\n    tag_637:\n        /* \"#utility.yul\":14786:14788   */\n      0x20\n        /* \"#utility.yul\":14781:14784   */\n      dup3\n        /* \"#utility.yul\":14777:14789   */\n      add\n        /* \"#utility.yul\":14770:14789   */\n      swap1\n      pop\n        /* \"#utility.yul\":14429:14795   */\n      swap2\n      swap1\n      pop\n      jump\t// out\n        /* \"#utility.yul\":14801:15220   */\n    tag_173:\n        /* \"#utility.yul\":14967:14971   */\n      0x00\n        /* \"#utility.yul\":15005:15007   */\n      0x20\n        /* \"#utility.yul\":14994:15003   */\n      dup3\n        /* \"#utility.yul\":14990:15008   */\n      add\n        /* \"#utility.yul\":14982:15008   */\n      swap1\n      pop\n        /* \"#utility.yul\":15054:15063   */\n      dup2\n        /* \"#utility.yul\":15048:15052   */\n      dup2\n        /* \"#utility.yul\":15044:15064   */\n      sub\n        /* \"#utility.yul\":15040:15041   */\n      0x00\n        /* \"#utility.yul\":15029:15038   */\n      dup4\n        /* \"#utility.yul\":15025:15042   */\n      add\n        /* \"#utility.yul\":15018:15065   */\n      mstore\n        /* \"#utility.yul\":15082:15213   */\n      tag_639\n        /* \"#utility.yul\":15208:15212   */\n      dup2\n        /* \"#utility.yul\":15082:15213   */\n      tag_454\n      jump\t// in\n    tag_639:\n        /* \"#utility.yul\":15074:15213   */\n      swap1\n      pop\n        /* \"#utility.yul\":14801:15220   */\n      swap2\n      swap1\n      pop\n      jump\t// out\n        /* \"#utility.yul\":15226:15369   */\n    tag_455:\n        /* \"#utility.yul\":15283:15288   */\n      0x00\n        /* \"#utility.yul\":15314:15320   */\n      dup2\n        /* \"#utility.yul\":15308:15321   */\n      mload\n        /* \"#utility.yul\":15299:15321   */\n      swap1\n      pop\n        /* \"#utility.yul\":15330:15363   */\n      tag_641\n        /* \"#utility.yul\":15357:15362   */\n      dup2\n        /* \"#utility.yul\":15330:15363   */\n      tag_429\n      jump\t// in\n    tag_641:\n        /* \"#utility.yul\":15226:15369   */\n      swap3\n      swap2\n      pop\n      pop\n      jump\t// out\n        /* \"#utility.yul\":15375:15726   */\n    tag_178:\n        /* \"#utility.yul\":15445:15451   */\n      0x00\n        /* \"#utility.yul\":15494:15496   */\n      0x20\n        /* \"#utility.yul\":15482:15491   */\n      dup3\n        /* \"#utility.yul\":15473:15480   */\n      dup5\n        /* \"#utility.yul\":15469:15492   */\n      sub\n        /* \"#utility.yul\":15465:15497   */\n      slt\n        /* \"#utility.yul\":15462:15581   */\n      iszero\n      tag_643\n      jumpi\n        /* \"#utility.yul\":15500:15579   */\n      tag_644\n      tag_426\n      jump\t// in\n    tag_644:\n        /* \"#utility.yul\":15462:15581   */\n    tag_643:\n        /* \"#utility.yul\":15620:15621   */\n      0x00\n        /* \"#utility.yul\":15645:15709   */\n      tag_645\n        /* \"#utility.yul\":15701:15708   */\n      dup5\n        /* \"#utility.yul\":15692:15698   */\n      dup3\n        /* \"#utility.yul\":15681:15690   */\n      dup6\n        /* \"#utility.yul\":15677:15699   */\n      add\n        /* \"#utility.yul\":15645:15709   */\n      tag_455\n      jump\t// in\n    tag_645:\n        /* \"#utility.yul\":15635:15709   */\n      swap2\n      pop\n        /* \"#utility.yul\":15591:15719   */\n      pop\n        /* \"#utility.yul\":15375:15726   */\n      swap3\n      swap2\n      pop\n      pop\n      jump\t// out\n        /* \"#utility.yul\":15732:15901   */\n    tag_456:\n        /* \"#utility.yul\":15872:15893   */\n      0x616c726561647920696e697469616c697a656400000000000000000000000000\n        /* \"#utility.yul\":15868:15869   */\n      0x00\n        /* \"#utility.yul\":15860:15866   */\n      dup3\n        /* \"#utility.yul\":15856:15870   */\n      add\n        /* \"#utility.yul\":15849:15894   */\n      mstore\n        /* \"#utility.yul\":15732:15901   */\n      pop\n      jump\t// out\n        /* \"#utility.yul\":15907:16273   */\n    tag_457:\n        /* \"#utility.yul\":16049:16052   */\n      0x00\n        /* \"#utility.yul\":16070:16137   */\n      tag_648\n        /* \"#utility.yul\":16134:16136   */\n      0x13\n        /* \"#utility.yul\":16129:16132   */\n      dup4\n        /* \"#utility.yul\":16070:16137   */\n      tag_438\n      jump\t// in\n    tag_648:\n        /* \"#utility.yul\":16063:16137   */\n      swap2\n      pop\n        /* \"#utility.yul\":16146:16239   */\n      tag_649\n        /* \"#utility.yul\":16235:16238   */\n      dup3\n        /* \"#utility.yul\":16146:16239   */\n      tag_456\n      jump\t// in\n    tag_649:\n        /* \"#utility.yul\":16264:16266   */\n      0x20\n        /* \"#utility.yul\":16259:16262   */\n      dup3\n        /* \"#utility.yul\":16255:16267   */\n      add\n        /* \"#utility.yul\":16248:16267   */\n      swap1\n      pop\n        /* \"#utility.yul\":15907:16273   */\n      swap2\n      swap1\n      pop\n      jump\t// out\n        /* \"#utility.yul\":16279:16698   */\n    tag_192:\n        /* \"#utility.yul\":16445:16449   */\n      0x00\n        /* \"#utility.yul\":16483:16485   */\n      0x20\n        /* \"#utility.yul\":16472:16481   */\n      dup3\n        /* \"#utility.yul\":16468:16486   */\n      add\n        /* \"#utility.yul\":16460:16486   */\n      swap1\n      pop\n        /* \"#utility.yul\":16532:16541   */\n      dup2\n        /* \"#utility.yul\":16526:16530   */\n      dup2\n        /* \"#utility.yul\":16522:16542   */\n      sub\n        /* \"#utility.yul\":16518:16519   */\n      0x00\n        /* \"#utility.yul\":16507:16516   */\n      dup4\n        /* \"#utility.yul\":16503:16520   */\n      add\n        /* \"#utility.yul\":16496:16543   */\n      mstore\n        /* \"#utility.yul\":16560:16691   */\n      tag_651\n        /* \"#utility.yul\":16686:16690   */\n      dup2\n        /* \"#utility.yul\":16560:16691   */\n      tag_457\n      jump\t// in\n    tag_651:\n        /* \"#utility.yul\":16552:16691   */\n      swap1\n      pop\n        /* \"#utility.yul\":16279:16698   */\n      swap2\n      swap1\n      pop\n      jump\t// out\n        /* \"#utility.yul\":16704:16873   */\n    tag_458:\n        /* \"#utility.yul\":16844:16865   */\n      0x6e6f206f6666636861696e207265736572766500000000000000000000000000\n        /* \"#utility.yul\":16840:16841   */\n      0x00\n        /* \"#utility.yul\":16832:16838   */\n      dup3\n        /* \"#utility.yul\":16828:16842   */\n      add\n        /* \"#utility.yul\":16821:16866   */\n      mstore\n        /* \"#utility.yul\":16704:16873   */\n      pop\n      jump\t// out\n        /* \"#utility.yul\":16879:17245   */\n    tag_459:\n        /* \"#utility.yul\":17021:17024   */\n      0x00\n        /* \"#utility.yul\":17042:17109   */\n      tag_654\n        /* \"#utility.yul\":17106:17108   */\n      0x13\n        /* \"#utility.yul\":17101:17104   */\n      dup4\n        /* \"#utility.yul\":17042:17109   */\n      tag_438\n      jump\t// in\n    tag_654:\n        /* \"#utility.yul\":17035:17109   */\n      swap2\n      pop\n        /* \"#utility.yul\":17118:17211   */\n      tag_655\n        /* \"#utility.yul\":17207:17210   */\n      dup3\n        /* \"#utility.yul\":17118:17211   */\n      tag_458\n      jump\t// in\n    tag_655:\n        /* \"#utility.yul\":17236:17238   */\n      0x20\n        /* \"#utility.yul\":17231:17234   */\n      dup3\n        /* \"#utility.yul\":17227:17239   */\n      add\n        /* \"#utility.yul\":17220:17239   */\n      swap1\n      pop\n        /* \"#utility.yul\":16879:17245   */\n      swap2\n      swap1\n      pop\n      jump\t// out\n        /* \"#utility.yul\":17251:17670   */\n    tag_196:\n        /* \"#utility.yul\":17417:17421   */\n      0x00\n        /* \"#utility.yul\":17455:17457   */\n      0x20\n        /* \"#utility.yul\":17444:17453   */\n      dup3\n        /* \"#utility.yul\":17440:17458   */\n      add\n        /* \"#utility.yul\":17432:17458   */\n      swap1\n      pop\n        /* \"#utility.yul\":17504:17513   */\n      dup2\n        /* \"#utility.yul\":17498:17502   */\n      dup2\n        /* \"#utility.yul\":17494:17514   */\n      sub\n        /* \"#utility.yul\":17490:17491   */\n      0x00\n        /* \"#utility.yul\":17479:17488   */\n      dup4\n        /* \"#utility.yul\":17475:17492   */\n      add\n        /* \"#utility.yul\":17468:17515   */\n      mstore\n        /* \"#utility.yul\":17532:17663   */\n      tag_657\n        /* \"#utility.yul\":17658:17662   */\n      dup2\n        /* \"#utility.yul\":17532:17663   */\n      tag_459\n      jump\t// in\n    tag_657:\n        /* \"#utility.yul\":17524:17663   */\n      swap1\n      pop\n        /* \"#utility.yul\":17251:17670   */\n      swap2\n      swap1\n      pop\n      jump\t// out\n        /* \"#utility.yul\":17676:17856   */\n    tag_460:\n        /* \"#utility.yul\":17724:17801   */\n      0x4e487b7100000000000000000000000000000000000000000000000000000000\n        /* \"#utility.yul\":17721:17722   */\n      0x00\n        /* \"#utility.yul\":17714:17802   */\n      mstore\n        /* \"#utility.yul\":17821:17825   */\n      0x11\n        /* \"#utility.yul\":17818:17819   */\n      0x04\n        /* \"#utility.yul\":17811:17826   */\n      mstore\n        /* \"#utility.yul\":17845:17849   */\n      0x24\n        /* \"#utility.yul\":17842:17843   */\n      0x00\n        /* \"#utility.yul\":17835:17850   */\n      revert\n        /* \"#utility.yul\":17862:18272   */\n    tag_198:\n        /* \"#utility.yul\":17902:17909   */\n      0x00\n        /* \"#utility.yul\":17925:17945   */\n      tag_660\n        /* \"#utility.yul\":17943:17944   */\n      dup3\n        /* \"#utility.yul\":17925:17945   */\n      tag_428\n      jump\t// in\n    tag_660:\n        /* \"#utility.yul\":17920:17945   */\n      swap2\n      pop\n        /* \"#utility.yul\":17959:17979   */\n      tag_661\n        /* \"#utility.yul\":17977:17978   */\n      dup4\n        /* \"#utility.yul\":17959:17979   */\n      tag_428\n      jump\t// in\n    tag_661:\n        /* \"#utility.yul\":17954:17979   */\n      swap3\n      pop\n        /* \"#utility.yul\":18014:18015   */\n      dup3\n        /* \"#utility.yul\":18011:18012   */\n      dup3\n        /* \"#utility.yul\":18007:18016   */\n      mul\n        /* \"#utility.yul\":18036:18066   */\n      tag_662\n        /* \"#utility.yul\":18054:18065   */\n      dup2\n        /* \"#utility.yul\":18036:18066   */\n      tag_428\n      jump\t// in\n    tag_662:\n        /* \"#utility.yul\":18025:18066   */\n      swap2\n      pop\n        /* \"#utility.yul\":18215:18216   */\n      dup3\n        /* \"#utility.yul\":18206:18213   */\n      dup3\n        /* \"#utility.yul\":18202:18217   */\n      div\n        /* \"#utility.yul\":18199:18200   */\n      dup5\n        /* \"#utility.yul\":18196:18218   */\n      eq\n        /* \"#utility.yul\":18176:18177   */\n      dup4\n        /* \"#utility.yul\":18169:18178   */\n      iszero\n        /* \"#utility.yul\":18149:18232   */\n      or\n        /* \"#utility.yul\":18126:18265   */\n      tag_663\n      jumpi\n        /* \"#utility.yul\":18245:18263   */\n      tag_664\n      tag_460\n      jump\t// in\n    tag_664:\n        /* \"#utility.yul\":18126:18265   */\n    tag_663:\n        /* \"#utility.yul\":17910:18272   */\n      pop\n        /* \"#utility.yul\":17862:18272   */\n      swap3\n      swap2\n      pop\n      pop\n      jump\t// out\n        /* \"#utility.yul\":18278:18458   */\n    tag_461:\n        /* \"#utility.yul\":18326:18403   */\n      0x4e487b7100000000000000000000000000000000000000000000000000000000\n        /* \"#utility.yul\":18323:18324   */\n      0x00\n        /* \"#utility.yul\":18316:18404   */\n      mstore\n        /* \"#utility.yul\":18423:18427   */\n      0x12\n        /* \"#utility.yul\":18420:18421   */\n      0x04\n        /* \"#utility.yul\":18413:18428   */\n      mstore\n        /* \"#utility.yul\":18447:18451   */\n      0x24\n        /* \"#utility.yul\":18444:18445   */\n      0x00\n        /* \"#utility.yul\":18437:18452   */\n      revert\n        /* \"#utility.yul\":18464:18649   */\n    tag_200:\n        /* \"#utility.yul\":18504:18505   */\n      0x00\n        /* \"#utility.yul\":18521:18541   */\n      tag_667\n        /* \"#utility.yul\":18539:18540   */\n      dup3\n        /* \"#utility.yul\":18521:18541   */\n      tag_428\n      jump\t// in\n    tag_667:\n        /* \"#utility.yul\":18516:18541   */\n      swap2\n      pop\n        /* \"#utility.yul\":18555:18575   */\n      tag_668\n        /* \"#utility.yul\":18573:18574   */\n      dup4\n        /* \"#utility.yul\":18555:18575   */\n      tag_428\n      jump\t// in\n    tag_668:\n        /* \"#utility.yul\":18550:18575   */\n      swap3\n      pop\n        /* \"#utility.yul\":18594:18595   */\n      dup3\n        /* \"#utility.yul\":18584:18619   */\n      tag_669\n      jumpi\n        /* \"#utility.yul\":18599:18617   */\n      tag_670\n      tag_461\n      jump\t// in\n    tag_670:\n        /* \"#utility.yul\":18584:18619   */\n    tag_669:\n        /* \"#utility.yul\":18641:18642   */\n      dup3\n        /* \"#utility.yul\":18638:18639   */\n      dup3\n        /* \"#utility.yul\":18634:18643   */\n      div\n        /* \"#utility.yul\":18629:18643   */\n      swap1\n      pop\n        /* \"#utility.yul\":18464:18649   */\n      swap3\n      swap2\n      pop\n      pop\n      jump\t// out\n        /* \"#utility.yul\":18655:18824   */\n    tag_462:\n        /* \"#utility.yul\":18795:18816   */\n      0x7a65726f20696e697469616c20737570706c7900000000000000000000000000\n        /* \"#utility.yul\":18791:18792   */\n      0x00\n        /* \"#utility.yul\":18783:18789   */\n      dup3\n        /* \"#utility.yul\":18779:18793   */\n      add\n        /* \"#utility.yul\":18772:18817   */\n      mstore\n        /* \"#utility.yul\":18655:18824   */\n      pop\n      jump\t// out\n        /* \"#utility.yul\":18830:19196   */\n    tag_463:\n        /* \"#utility.yul\":18972:18975   */\n      0x00\n        /* \"#utility.yul\":18993:19060   */\n      tag_673\n        /* \"#utility.yul\":19057:19059   */\n      0x13\n        /* \"#utility.yul\":19052:19055   */\n      dup4\n        /* \"#utility.yul\":18993:19060   */\n      tag_438\n      jump\t// in\n    tag_673:\n        /* \"#utility.yul\":18986:19060   */\n      swap2\n      pop\n        /* \"#utility.yul\":19069:19162   */\n      tag_674\n        /* \"#utility.yul\":19158:19161   */\n      dup3\n        /* \"#utility.yul\":19069:19162   */\n      tag_462\n      jump\t// in\n    tag_674:\n        /* \"#utility.yul\":19187:19189   */\n      0x20\n        /* \"#utility.yul\":19182:19185   */\n      dup3\n        /* \"#utility.yul\":19178:19190   */\n      add\n        /* \"#utility.yul\":19171:19190   */\n      swap1\n      pop\n        /* \"#utility.yul\":18830:19196   */\n      swap2\n      swap1\n      pop\n      jump\t// out\n        /* \"#utility.yul\":19202:19621   */\n    tag_203:\n        /* \"#utility.yul\":19368:19372   */\n      0x00\n        /* \"#utility.yul\":19406:19408   */\n      0x20\n        /* \"#utility.yul\":19395:19404   */\n      dup3\n        /* \"#utility.yul\":19391:19409   */\n      add\n        /* \"#utility.yul\":19383:19409   */\n      swap1\n      pop\n        /* \"#utility.yul\":19455:19464   */\n      dup2\n        /* \"#utility.yul\":19449:19453   */\n      dup2\n        /* \"#utility.yul\":19445:19465   */\n      sub\n        /* \"#utility.yul\":19441:19442   */\n      0x00\n        /* \"#utility.yul\":19430:19439   */\n      dup4\n        /* \"#utility.yul\":19426:19443   */\n      add\n        /* \"#utility.yul\":19419:19466   */\n      mstore\n        /* \"#utility.yul\":19483:19614   */\n      tag_676\n        /* \"#utility.yul\":19609:19613   */\n      dup2\n        /* \"#utility.yul\":19483:19614   */\n      tag_463\n      jump\t// in\n    tag_676:\n        /* \"#utility.yul\":19475:19614   */\n      swap1\n      pop\n        /* \"#utility.yul\":19202:19621   */\n      swap2\n      swap1\n      pop\n      jump\t// out\n        /* \"#utility.yul\":19627:19787   */\n    tag_464:\n        /* \"#utility.yul\":19767:19779   */\n      0x626164206f7261636c6500000000000000000000000000000000000000000000\n        /* \"#utility.yul\":19763:19764   */\n      0x00\n        /* \"#utility.yul\":19755:19761   */\n      dup3\n        /* \"#utility.yul\":19751:19765   */\n      add\n        /* \"#utility.yul\":19744:19780   */\n      mstore\n        /* \"#utility.yul\":19627:19787   */\n      pop\n      jump\t// out\n        /* \"#utility.yul\":19793:20159   */\n    tag_465:\n        /* \"#utility.yul\":19935:19938   */\n      0x00\n        /* \"#utility.yul\":19956:20023   */\n      tag_679\n        /* \"#utility.yul\":20020:20022   */\n      0x0a\n        /* \"#utility.yul\":20015:20018   */\n      dup4\n        /* \"#utility.yul\":19956:20023   */\n      tag_438\n      jump\t// in\n    tag_679:\n        /* \"#utility.yul\":19949:20023   */\n      swap2\n      pop\n        /* \"#utility.yul\":20032:20125   */\n      tag_680\n        /* \"#utility.yul\":20121:20124   */\n      dup3\n        /* \"#utility.yul\":20032:20125   */\n      tag_464\n      jump\t// in\n    tag_680:\n        /* \"#utility.yul\":20150:20152   */\n      0x20\n        /* \"#utility.yul\":20145:20148   */\n      dup3\n        /* \"#utility.yul\":20141:20153   */\n      add\n        /* \"#utility.yul\":20134:20153   */\n      swap1\n      pop\n        /* \"#utility.yul\":19793:20159   */\n      swap2\n      swap1\n      pop\n      jump\t// out\n        /* \"#utility.yul\":20165:20584   */\n    tag_214:\n        /* \"#utility.yul\":20331:20335   */\n      0x00\n        /* \"#utility.yul\":20369:20371   */\n      0x20\n        /* \"#utility.yul\":20358:20367   */\n      dup3\n        /* \"#utility.yul\":20354:20372   */\n      add\n        /* \"#utility.yul\":20346:20372   */\n      swap1\n      pop\n        /* \"#utility.yul\":20418:20427   */\n      dup2\n        /* \"#utility.yul\":20412:20416   */\n      dup2\n        /* \"#utility.yul\":20408:20428   */\n      sub\n        /* \"#utility.yul\":20404:20405   */\n      0x00\n        /* \"#utility.yul\":20393:20402   */\n      dup4\n        /* \"#utility.yul\":20389:20406   */\n      add\n        /* \"#utility.yul\":20382:20429   */\n      mstore\n        /* \"#utility.yul\":20446:20577   */\n      tag_682\n        /* \"#utility.yul\":20572:20576   */\n      dup2\n        /* \"#utility.yul\":20446:20577   */\n      tag_465\n      jump\t// in\n    tag_682:\n        /* \"#utility.yul\":20438:20577   */\n      swap1\n      pop\n        /* \"#utility.yul\":20165:20584   */\n      swap2\n      swap1\n      pop\n      jump\t// out\n        /* \"#utility.yul\":20590:20753   */\n    tag_466:\n        /* \"#utility.yul\":20730:20745   */\n      0x72656465656d2070617573656400000000000000000000000000000000000000\n        /* \"#utility.yul\":20726:20727   */\n      0x00\n        /* \"#utility.yul\":20718:20724   */\n      dup3\n        /* \"#utility.yul\":20714:20728   */\n      add\n        /* \"#utility.yul\":20707:20746   */\n      mstore\n        /* \"#utility.yul\":20590:20753   */\n      pop\n      jump\t// out\n        /* \"#utility.yul\":20759:21125   */\n    tag_467:\n        /* \"#utility.yul\":20901:20904   */\n      0x00\n        /* \"#utility.yul\":20922:20989   */\n      tag_685\n        /* \"#utility.yul\":20986:20988   */\n      0x0d\n        /* \"#utility.yul\":20981:20984   */\n      dup4\n        /* \"#utility.yul\":20922:20989   */\n      tag_438\n      jump\t// in\n    tag_685:\n        /* \"#utility.yul\":20915:20989   */\n      swap2\n      pop\n        /* \"#utility.yul\":20998:21091   */\n      tag_686\n        /* \"#utility.yul\":21087:21090   */\n      dup3\n        /* \"#utility.yul\":20998:21091   */\n      tag_466\n      jump\t// in\n    tag_686:\n        /* \"#utility.yul\":21116:21118   */\n      0x20\n        /* \"#utility.yul\":21111:21114   */\n      dup3\n        /* \"#utility.yul\":21107:21119   */\n      add\n        /* \"#utility.yul\":21100:21119   */\n      swap1\n      pop\n        /* \"#utility.yul\":20759:21125   */\n      swap2\n      swap1\n      pop\n      jump\t// out\n        /* \"#utility.yul\":21131:21550   */\n    tag_222:\n        /* \"#utility.yul\":21297:21301   */\n      0x00\n        /* \"#utility.yul\":21335:21337   */\n      0x20\n        /* \"#utility.yul\":21324:21333   */\n      dup3\n        /* \"#utility.yul\":21320:21338   */\n      add\n        /* \"#utility.yul\":21312:21338   */\n      swap1\n      pop\n        /* \"#utility.yul\":21384:21393   */\n      dup2\n        /* \"#utility.yul\":21378:21382   */\n      dup2\n        /* \"#utility.yul\":21374:21394   */\n      sub\n        /* \"#utility.yul\":21370:21371   */\n      0x00\n        /* \"#utility.yul\":21359:21368   */\n      dup4\n        /* \"#utility.yul\":21355:21372   */\n      add\n        /* \"#utility.yul\":21348:21395   */\n      mstore\n        /* \"#utility.yul\":21412:21543   */\n      tag_688\n        /* \"#utility.yul\":21538:21542   */\n      dup2\n        /* \"#utility.yul\":21412:21543   */\n      tag_467\n      jump\t// in\n    tag_688:\n        /* \"#utility.yul\":21404:21543   */\n      swap1\n      pop\n        /* \"#utility.yul\":21131:21550   */\n      swap2\n      swap1\n      pop\n      jump\t// out\n        /* \"#utility.yul\":21556:21714   */\n    tag_468:\n        /* \"#utility.yul\":21696:21706   */\n      0x7a65726f20525741000000000000000000000000000000000000000000000000\n        /* \"#utility.yul\":21692:21693   */\n      0x00\n        /* \"#utility.yul\":21684:21690   */\n      dup3\n        /* \"#utility.yul\":21680:21694   */\n      add\n        /* \"#utility.yul\":21673:21707   */\n      mstore\n        /* \"#utility.yul\":21556:21714   */\n      pop\n      jump\t// out\n        /* \"#utility.yul\":21720:22085   */\n    tag_469:\n        /* \"#utility.yul\":21862:21865   */\n      0x00\n        /* \"#utility.yul\":21883:21949   */\n      tag_691\n        /* \"#utility.yul\":21947:21948   */\n      0x08\n        /* \"#utility.yul\":21942:21945   */\n      dup4\n        /* \"#utility.yul\":21883:21949   */\n      tag_438\n      jump\t// in\n    tag_691:\n        /* \"#utility.yul\":21876:21949   */\n      swap2\n      pop\n        /* \"#utility.yul\":21958:22051   */\n      tag_692\n        /* \"#utility.yul\":22047:22050   */\n      dup3\n        /* \"#utility.yul\":21958:22051   */\n      tag_468\n      jump\t// in\n    tag_692:\n        /* \"#utility.yul\":22076:22078   */\n      0x20\n        /* \"#utility.yul\":22071:22074   */\n      dup3\n        /* \"#utility.yul\":22067:22079   */\n      add\n        /* \"#utility.yul\":22060:22079   */\n      swap1\n      pop\n        /* \"#utility.yul\":21720:22085   */\n      swap2\n      swap1\n      pop\n      jump\t// out\n        /* \"#utility.yul\":22091:22510   */\n    tag_225:\n        /* \"#utility.yul\":22257:22261   */\n      0x00\n        /* \"#utility.yul\":22295:22297   */\n      0x20\n        /* \"#utility.yul\":22284:22293   */\n      dup3\n        /* \"#utility.yul\":22280:22298   */\n      add\n        /* \"#utility.yul\":22272:22298   */\n      swap1\n      pop\n        /* \"#utility.yul\":22344:22353   */\n      dup2\n        /* \"#utility.yul\":22338:22342   */\n      dup2\n        /* \"#utility.yul\":22334:22354   */\n      sub\n        /* \"#utility.yul\":22330:22331   */\n      0x00\n        /* \"#utility.yul\":22319:22328   */\n      dup4\n        /* \"#utility.yul\":22315:22332   */\n      add\n        /* \"#utility.yul\":22308:22355   */\n      mstore\n        /* \"#utility.yul\":22372:22503   */\n      tag_694\n        /* \"#utility.yul\":22498:22502   */\n      dup2\n        /* \"#utility.yul\":22372:22503   */\n      tag_469\n      jump\t// in\n    tag_694:\n        /* \"#utility.yul\":22364:22503   */\n      swap1\n      pop\n        /* \"#utility.yul\":22091:22510   */\n      swap2\n      swap1\n      pop\n      jump\t// out\n        /* \"#utility.yul\":22516:22683   */\n    tag_470:\n        /* \"#utility.yul\":22656:22675   */\n      0x7a65726f20525741207265717569726564000000000000000000000000000000\n        /* \"#utility.yul\":22652:22653   */\n      0x00\n        /* \"#utility.yul\":22644:22650   */\n      dup3\n        /* \"#utility.yul\":22640:22654   */\n      add\n        /* \"#utility.yul\":22633:22676   */\n      mstore\n        /* \"#utility.yul\":22516:22683   */\n      pop\n      jump\t// out\n        /* \"#utility.yul\":22689:23055   */\n    tag_471:\n        /* \"#utility.yul\":22831:22834   */\n      0x00\n        /* \"#utility.yul\":22852:22919   */\n      tag_697\n        /* \"#utility.yul\":22916:22918   */\n      0x11\n        /* \"#utility.yul\":22911:22914   */\n      dup4\n        /* \"#utility.yul\":22852:22919   */\n      tag_438\n      jump\t// in\n    tag_697:\n        /* \"#utility.yul\":22845:22919   */\n      swap2\n      pop\n        /* \"#utility.yul\":22928:23021   */\n      tag_698\n        /* \"#utility.yul\":23017:23020   */\n      dup3\n        /* \"#utility.yul\":22928:23021   */\n      tag_470\n      jump\t// in\n    tag_698:\n        /* \"#utility.yul\":23046:23048   */\n      0x20\n        /* \"#utility.yul\":23041:23044   */\n      dup3\n        /* \"#utility.yul\":23037:23049   */\n      add\n        /* \"#utility.yul\":23030:23049   */\n      swap1\n      pop\n        /* \"#utility.yul\":22689:23055   */\n      swap2\n      swap1\n      pop\n      jump\t// out\n        /* \"#utility.yul\":23061:23480   */\n    tag_231:\n        /* \"#utility.yul\":23227:23231   */\n      0x00\n        /* \"#utility.yul\":23265:23267   */\n      0x20\n        /* \"#utility.yul\":23254:23263   */\n      dup3\n        /* \"#utility.yul\":23250:23268   */\n      add\n        /* \"#utility.yul\":23242:23268   */\n      swap1\n      pop\n        /* \"#utility.yul\":23314:23323   */\n      dup2\n        /* \"#utility.yul\":23308:23312   */\n      dup2\n        /* \"#utility.yul\":23304:23324   */\n      sub\n        /* \"#utility.yul\":23300:23301   */\n      0x00\n        /* \"#utility.yul\":23289:23298   */\n      dup4\n        /* \"#utility.yul\":23285:23302   */\n      add\n        /* \"#utility.yul\":23278:23325   */\n      mstore\n        /* \"#utility.yul\":23342:23473   */\n      tag_700\n        /* \"#utility.yul\":23468:23472   */\n      dup2\n        /* \"#utility.yul\":23342:23473   */\n      tag_471\n      jump\t// in\n    tag_700:\n        /* \"#utility.yul\":23334:23473   */\n      swap1\n      pop\n        /* \"#utility.yul\":23061:23480   */\n      swap2\n      swap1\n      pop\n      jump\t// out\n        /* \"#utility.yul\":23486:23660   */\n    tag_472:\n        /* \"#utility.yul\":23626:23652   */\n      0x5257412072657175697265642065786365656473206d61780000000000000000\n        /* \"#utility.yul\":23622:23623   */\n      0x00\n        /* \"#utility.yul\":23614:23620   */\n      dup3\n        /* \"#utility.yul\":23610:23624   */\n      add\n        /* \"#utility.yul\":23603:23653   */\n      mstore\n        /* \"#utility.yul\":23486:23660   */\n      pop\n      jump\t// out\n        /* \"#utility.yul\":23666:24032   */\n    tag_473:\n        /* \"#utility.yul\":23808:23811   */\n      0x00\n        /* \"#utility.yul\":23829:23896   */\n      tag_703\n        /* \"#utility.yul\":23893:23895   */\n      0x18\n        /* \"#utility.yul\":23888:23891   */\n      dup4\n        /* \"#utility.yul\":23829:23896   */\n      tag_438\n      jump\t// in\n    tag_703:\n        /* \"#utility.yul\":23822:23896   */\n      swap2\n      pop\n        /* \"#utility.yul\":23905:23998   */\n      tag_704\n        /* \"#utility.yul\":23994:23997   */\n      dup3\n        /* \"#utility.yul\":23905:23998   */\n      tag_472\n      jump\t// in\n    tag_704:\n        /* \"#utility.yul\":24023:24025   */\n      0x20\n        /* \"#utility.yul\":24018:24021   */\n      dup3\n        /* \"#utility.yul\":24014:24026   */\n      add\n        /* \"#utility.yul\":24007:24026   */\n      swap1\n      pop\n        /* \"#utility.yul\":23666:24032   */\n      swap2\n      swap1\n      pop\n      jump\t// out\n        /* \"#utility.yul\":24038:24457   */\n    tag_234:\n        /* \"#utility.yul\":24204:24208   */\n      0x00\n        /* \"#utility.yul\":24242:24244   */\n      0x20\n        /* \"#utility.yul\":24231:24240   */\n      dup3\n        /* \"#utility.yul\":24227:24245   */\n      add\n        /* \"#utility.yul\":24219:24245   */\n      swap1\n      pop\n        /* \"#utility.yul\":24291:24300   */\n      dup2\n        /* \"#utility.yul\":24285:24289   */\n      dup2\n        /* \"#utility.yul\":24281:24301   */\n      sub\n        /* \"#utility.yul\":24277:24278   */\n      0x00\n        /* \"#utility.yul\":24266:24275   */\n      dup4\n        /* \"#utility.yul\":24262:24279   */\n      add\n        /* \"#utility.yul\":24255:24302   */\n      mstore\n        /* \"#utility.yul\":24319:24450   */\n      tag_706\n        /* \"#utility.yul\":24445:24449   */\n      dup2\n        /* \"#utility.yul\":24319:24450   */\n      tag_473\n      jump\t// in\n    tag_706:\n        /* \"#utility.yul\":24311:24450   */\n      swap1\n      pop\n        /* \"#utility.yul\":24038:24457   */\n      swap2\n      swap1\n      pop\n      jump\t// out\n        /* \"#utility.yul\":24463:24631   */\n    tag_474:\n        /* \"#utility.yul\":24603:24623   */\n      0x7a65726f2072656465656d20616d6f756e740000000000000000000000000000\n        /* \"#utility.yul\":24599:24600   */\n      0x00\n        /* \"#utility.yul\":24591:24597   */\n      dup3\n        /* \"#utility.yul\":24587:24601   */\n      add\n        /* \"#utility.yul\":24580:24624   */\n      mstore\n        /* \"#utility.yul\":24463:24631   */\n      pop\n      jump\t// out\n        /* \"#utility.yul\":24637:25003   */\n    tag_475:\n        /* \"#utility.yul\":24779:24782   */\n      0x00\n        /* \"#utility.yul\":24800:24867   */\n      tag_709\n        /* \"#utility.yul\":24864:24866   */\n      0x12\n        /* \"#utility.yul\":24859:24862   */\n      dup4\n        /* \"#utility.yul\":24800:24867   */\n      tag_438\n      jump\t// in\n    tag_709:\n        /* \"#utility.yul\":24793:24867   */\n      swap2\n      pop\n        /* \"#utility.yul\":24876:24969   */\n      tag_710\n        /* \"#utility.yul\":24965:24968   */\n      dup3\n        /* \"#utility.yul\":24876:24969   */\n      tag_474\n      jump\t// in\n    tag_710:\n        /* \"#utility.yul\":24994:24996   */\n      0x20\n        /* \"#utility.yul\":24989:24992   */\n      dup3\n        /* \"#utility.yul\":24985:24997   */\n      add\n        /* \"#utility.yul\":24978:24997   */\n      swap1\n      pop\n        /* \"#utility.yul\":24637:25003   */\n      swap2\n      swap1\n      pop\n      jump\t// out\n        /* \"#utility.yul\":25009:25428   */\n    tag_237:\n        /* \"#utility.yul\":25175:25179   */\n      0x00\n        /* \"#utility.yul\":25213:25215   */\n      0x20\n        /* \"#utility.yul\":25202:25211   */\n      dup3\n        /* \"#utility.yul\":25198:25216   */\n      add\n        /* \"#utility.yul\":25190:25216   */\n      swap1\n      pop\n        /* \"#utility.yul\":25262:25271   */\n      dup2\n        /* \"#utility.yul\":25256:25260   */\n      dup2\n        /* \"#utility.yul\":25252:25272   */\n      sub\n        /* \"#utility.yul\":25248:25249   */\n      0x00\n        /* \"#utility.yul\":25237:25246   */\n      dup4\n        /* \"#utility.yul\":25233:25250   */\n      add\n        /* \"#utility.yul\":25226:25273   */\n      mstore\n        /* \"#utility.yul\":25290:25421   */\n      tag_712\n        /* \"#utility.yul\":25416:25420   */\n      dup2\n        /* \"#utility.yul\":25290:25421   */\n      tag_475\n      jump\t// in\n    tag_712:\n        /* \"#utility.yul\":25282:25421   */\n      swap1\n      pop\n        /* \"#utility.yul\":25009:25428   */\n      swap2\n      swap1\n      pop\n      jump\t// out\n        /* \"#utility.yul\":25434:25605   */\n    tag_476:\n        /* \"#utility.yul\":25574:25597   */\n      0x696e73756666696369656e742055534443206f75740000000000000000000000\n        /* \"#utility.yul\":25570:25571   */\n      0x00\n        /* \"#utility.yul\":25562:25568   */\n      dup3\n        /* \"#utility.yul\":25558:25572   */\n      add\n        /* \"#utility.yul\":25551:25598   */\n      mstore\n        /* \"#utility.yul\":25434:25605   */\n      pop\n      jump\t// out\n        /* \"#utility.yul\":25611:25977   */\n    tag_477:\n        /* \"#utility.yul\":25753:25756   */\n      0x00\n        /* \"#utility.yul\":25774:25841   */\n      tag_715\n        /* \"#utility.yul\":25838:25840   */\n      0x15\n        /* \"#utility.yul\":25833:25836   */\n      dup4\n        /* \"#utility.yul\":25774:25841   */\n      tag_438\n      jump\t// in\n    tag_715:\n        /* \"#utility.yul\":25767:25841   */\n      swap2\n      pop\n        /* \"#utility.yul\":25850:25943   */\n      tag_716\n        /* \"#utility.yul\":25939:25942   */\n      dup3\n        /* \"#utility.yul\":25850:25943   */\n      tag_476\n      jump\t// in\n    tag_716:\n        /* \"#utility.yul\":25968:25970   */\n      0x20\n        /* \"#utility.yul\":25963:25966   */\n      dup3\n        /* \"#utility.yul\":25959:25971   */\n      add\n        /* \"#utility.yul\":25952:25971   */\n      swap1\n      pop\n        /* \"#utility.yul\":25611:25977   */\n      swap2\n      swap1\n      pop\n      jump\t// out\n        /* \"#utility.yul\":25983:26402   */\n    tag_240:\n        /* \"#utility.yul\":26149:26153   */\n      0x00\n        /* \"#utility.yul\":26187:26189   */\n      0x20\n        /* \"#utility.yul\":26176:26185   */\n      dup3\n        /* \"#utility.yul\":26172:26190   */\n      add\n        /* \"#utility.yul\":26164:26190   */\n      swap1\n      pop\n        /* \"#utility.yul\":26236:26245   */\n      dup2\n        /* \"#utility.yul\":26230:26234   */\n      dup2\n        /* \"#utility.yul\":26226:26246   */\n      sub\n        /* \"#utility.yul\":26222:26223   */\n      0x00\n        /* \"#utility.yul\":26211:26220   */\n      dup4\n        /* \"#utility.yul\":26207:26224   */\n      add\n        /* \"#utility.yul\":26200:26247   */\n      mstore\n        /* \"#utility.yul\":26264:26395   */\n      tag_718\n        /* \"#utility.yul\":26390:26394   */\n      dup2\n        /* \"#utility.yul\":26264:26395   */\n      tag_477\n      jump\t// in\n    tag_718:\n        /* \"#utility.yul\":26256:26395   */\n      swap1\n      pop\n        /* \"#utility.yul\":25983:26402   */\n      swap2\n      swap1\n      pop\n      jump\t// out\n        /* \"#utility.yul\":26408:26585   */\n    tag_478:\n        /* \"#utility.yul\":26548:26577   */\n      0x696e73756666696369656e742055534443206c69717569646974790000000000\n        /* \"#utility.yul\":26544:26545   */\n      0x00\n        /* \"#utility.yul\":26536:26542   */\n      dup3\n        /* \"#utility.yul\":26532:26546   */\n      add\n        /* \"#utility.yul\":26525:26578   */\n      mstore\n        /* \"#utility.yul\":26408:26585   */\n      pop\n      jump\t// out\n        /* \"#utility.yul\":26591:26957   */\n    tag_479:\n        /* \"#utility.yul\":26733:26736   */\n      0x00\n        /* \"#utility.yul\":26754:26821   */\n      tag_721\n        /* \"#utility.yul\":26818:26820   */\n      0x1b\n        /* \"#utility.yul\":26813:26816   */\n      dup4\n        /* \"#utility.yul\":26754:26821   */\n      tag_438\n      jump\t// in\n    tag_721:\n        /* \"#utility.yul\":26747:26821   */\n      swap2\n      pop\n        /* \"#utility.yul\":26830:26923   */\n      tag_722\n        /* \"#utility.yul\":26919:26922   */\n      dup3\n        /* \"#utility.yul\":26830:26923   */\n      tag_478\n      jump\t// in\n    tag_722:\n        /* \"#utility.yul\":26948:26950   */\n      0x20\n        /* \"#utility.yul\":26943:26946   */\n      dup3\n        /* \"#utility.yul\":26939:26951   */\n      add\n        /* \"#utility.yul\":26932:26951   */\n      swap1\n      pop\n        /* \"#utility.yul\":26591:26957   */\n      swap2\n      swap1\n      pop\n      jump\t// out\n        /* \"#utility.yul\":26963:27382   */\n    tag_247:\n        /* \"#utility.yul\":27129:27133   */\n      0x00\n        /* \"#utility.yul\":27167:27169   */\n      0x20\n        /* \"#utility.yul\":27156:27165   */\n      dup3\n        /* \"#utility.yul\":27152:27170   */\n      add\n        /* \"#utility.yul\":27144:27170   */\n      swap1\n      pop\n        /* \"#utility.yul\":27216:27225   */\n      dup2\n        /* \"#utility.yul\":27210:27214   */\n      dup2\n        /* \"#utility.yul\":27206:27226   */\n      sub\n        /* \"#utility.yul\":27202:27203   */\n      0x00\n        /* \"#utility.yul\":27191:27200   */\n      dup4\n        /* \"#utility.yul\":27187:27204   */\n      add\n        /* \"#utility.yul\":27180:27227   */\n      mstore\n        /* \"#utility.yul\":27244:27375   */\n      tag_724\n        /* \"#utility.yul\":27370:27374   */\n      dup2\n        /* \"#utility.yul\":27244:27375   */\n      tag_479\n      jump\t// in\n    tag_724:\n        /* \"#utility.yul\":27236:27375   */\n      swap1\n      pop\n        /* \"#utility.yul\":26963:27382   */\n      swap2\n      swap1\n      pop\n      jump\t// out\n        /* \"#utility.yul\":27388:27547   */\n    tag_480:\n        /* \"#utility.yul\":27528:27539   */\n      0x6261642064656c61790000000000000000000000000000000000000000000000\n        /* \"#utility.yul\":27524:27525   */\n      0x00\n        /* \"#utility.yul\":27516:27522   */\n      dup3\n        /* \"#utility.yul\":27512:27526   */\n      add\n        /* \"#utility.yul\":27505:27540   */\n      mstore\n        /* \"#utility.yul\":27388:27547   */\n      pop\n      jump\t// out\n        /* \"#utility.yul\":27553:27918   */\n    tag_481:\n        /* \"#utility.yul\":27695:27698   */\n      0x00\n        /* \"#utility.yul\":27716:27782   */\n      tag_727\n        /* \"#utility.yul\":27780:27781   */\n      0x09\n        /* \"#utility.yul\":27775:27778   */\n      dup4\n        /* \"#utility.yul\":27716:27782   */\n      tag_438\n      jump\t// in\n    tag_727:\n        /* \"#utility.yul\":27709:27782   */\n      swap2\n      pop\n        /* \"#utility.yul\":27791:27884   */\n      tag_728\n        /* \"#utility.yul\":27880:27883   */\n      dup3\n        /* \"#utility.yul\":27791:27884   */\n      tag_480\n      jump\t// in\n    tag_728:\n        /* \"#utility.yul\":27909:27911   */\n      0x20\n        /* \"#utility.yul\":27904:27907   */\n      dup3\n        /* \"#utility.yul\":27900:27912   */\n      add\n        /* \"#utility.yul\":27893:27912   */\n      swap1\n      pop\n        /* \"#utility.yul\":27553:27918   */\n      swap2\n      swap1\n      pop\n      jump\t// out\n        /* \"#utility.yul\":27924:28343   */\n    tag_296:\n        /* \"#utility.yul\":28090:28094   */\n      0x00\n        /* \"#utility.yul\":28128:28130   */\n      0x20\n        /* \"#utility.yul\":28117:28126   */\n      dup3\n        /* \"#utility.yul\":28113:28131   */\n      add\n        /* \"#utility.yul\":28105:28131   */\n      swap1\n      pop\n        /* \"#utility.yul\":28177:28186   */\n      dup2\n        /* \"#utility.yul\":28171:28175   */\n      dup2\n        /* \"#utility.yul\":28167:28187   */\n      sub\n        /* \"#utility.yul\":28163:28164   */\n      0x00\n        /* \"#utility.yul\":28152:28161   */\n      dup4\n        /* \"#utility.yul\":28148:28165   */\n      add\n        /* \"#utility.yul\":28141:28188   */\n      mstore\n        /* \"#utility.yul\":28205:28336   */\n      tag_730\n        /* \"#utility.yul\":28331:28335   */\n      dup2\n        /* \"#utility.yul\":28205:28336   */\n      tag_481\n      jump\t// in\n    tag_730:\n        /* \"#utility.yul\":28197:28336   */\n      swap1\n      pop\n        /* \"#utility.yul\":27924:28343   */\n      swap2\n      swap1\n      pop\n      jump\t// out\n        /* \"#utility.yul\":28349:28466   */\n    tag_482:\n        /* \"#utility.yul\":28458:28459   */\n      0x00\n        /* \"#utility.yul\":28455:28456   */\n      0x00\n        /* \"#utility.yul\":28448:28460   */\n      revert\n        /* \"#utility.yul\":28472:28574   */\n    tag_483:\n        /* \"#utility.yul\":28513:28519   */\n      0x00\n        /* \"#utility.yul\":28564:28566   */\n      0x1f\n        /* \"#utility.yul\":28560:28567   */\n      not\n        /* \"#utility.yul\":28555:28557   */\n      0x1f\n        /* \"#utility.yul\":28548:28553   */\n      dup4\n        /* \"#utility.yul\":28544:28558   */\n      add\n        /* \"#utility.yul\":28540:28568   */\n      and\n        /* \"#utility.yul\":28530:28568   */\n      swap1\n      pop\n        /* \"#utility.yul\":28472:28574   */\n      swap2\n      swap1\n      pop\n      jump\t// out\n        /* \"#utility.yul\":28580:28760   */\n    tag_484:\n        /* \"#utility.yul\":28628:28705   */\n      0x4e487b7100000000000000000000000000000000000000000000000000000000\n        /* \"#utility.yul\":28625:28626   */\n      0x00\n        /* \"#utility.yul\":28618:28706   */\n      mstore\n        /* \"#utility.yul\":28725:28729   */\n      0x41\n        /* \"#utility.yul\":28722:28723   */\n      0x04\n        /* \"#utility.yul\":28715:28730   */\n      mstore\n        /* \"#utility.yul\":28749:28753   */\n      0x24\n        /* \"#utility.yul\":28746:28747   */\n      0x00\n        /* \"#utility.yul\":28739:28754   */\n      revert\n        /* \"#utility.yul\":28766:29047   */\n    tag_485:\n        /* \"#utility.yul\":28849:28876   */\n      tag_735\n        /* \"#utility.yul\":28871:28875   */\n      dup3\n        /* \"#utility.yul\":28849:28876   */\n      tag_483\n      jump\t// in\n    tag_735:\n        /* \"#utility.yul\":28841:28847   */\n      dup2\n        /* \"#utility.yul\":28837:28877   */\n      add\n        /* \"#utility.yul\":28979:28985   */\n      dup2\n        /* \"#utility.yul\":28967:28977   */\n      dup2\n        /* \"#utility.yul\":28964:28986   */\n      lt\n        /* \"#utility.yul\":28943:28961   */\n      0xffffffffffffffff\n        /* \"#utility.yul\":28931:28941   */\n      dup3\n        /* \"#utility.yul\":28928:28962   */\n      gt\n        /* \"#utility.yul\":28925:28987   */\n      or\n        /* \"#utility.yul\":28922:29010   */\n      iszero\n      tag_736\n      jumpi\n        /* \"#utility.yul\":28990:29008   */\n      tag_737\n      tag_484\n      jump\t// in\n    tag_737:\n        /* \"#utility.yul\":28922:29010   */\n    tag_736:\n        /* \"#utility.yul\":29030:29040   */\n      dup1\n        /* \"#utility.yul\":29026:29028   */\n      0x40\n        /* \"#utility.yul\":29019:29041   */\n      mstore\n        /* \"#utility.yul\":28809:29047   */\n      pop\n        /* \"#utility.yul\":28766:29047   */\n      pop\n      pop\n      jump\t// out\n        /* \"#utility.yul\":29053:29182   */\n    tag_486:\n        /* \"#utility.yul\":29087:29093   */\n      0x00\n        /* \"#utility.yul\":29114:29134   */\n      tag_739\n      tag_425\n      jump\t// in\n    tag_739:\n        /* \"#utility.yul\":29104:29134   */\n      swap1\n      pop\n        /* \"#utility.yul\":29143:29176   */\n      tag_740\n        /* \"#utility.yul\":29171:29175   */\n      dup3\n        /* \"#utility.yul\":29163:29169   */\n      dup3\n        /* \"#utility.yul\":29143:29176   */\n      tag_485\n      jump\t// in\n    tag_740:\n        /* \"#utility.yul\":29053:29182   */\n      swap2\n      swap1\n      pop\n      jump\t// out\n        /* \"#utility.yul\":29311:29448   */\n    tag_488:\n        /* \"#utility.yul\":29365:29370   */\n      0x00\n        /* \"#utility.yul\":29396:29402   */\n      dup2\n        /* \"#utility.yul\":29390:29403   */\n      mload\n        /* \"#utility.yul\":29381:29403   */\n      swap1\n      pop\n        /* \"#utility.yul\":29412:29442   */\n      tag_743\n        /* \"#utility.yul\":29436:29441   */\n      dup2\n        /* \"#utility.yul\":29412:29442   */\n      tag_436\n      jump\t// in\n    tag_743:\n        /* \"#utility.yul\":29311:29448   */\n      swap3\n      swap2\n      pop\n      pop\n      jump\t// out\n        /* \"#utility.yul\":29454:29531   */\n    tag_489:\n        /* \"#utility.yul\":29491:29498   */\n      0x00\n        /* \"#utility.yul\":29520:29525   */\n      dup2\n        /* \"#utility.yul\":29509:29525   */\n      swap1\n      pop\n        /* \"#utility.yul\":29454:29531   */\n      swap2\n      swap1\n      pop\n      jump\t// out\n        /* \"#utility.yul\":29537:29659   */\n    tag_490:\n        /* \"#utility.yul\":29610:29634   */\n      tag_746\n        /* \"#utility.yul\":29628:29633   */\n      dup2\n        /* \"#utility.yul\":29610:29634   */\n      tag_489\n      jump\t// in\n    tag_746:\n        /* \"#utility.yul\":29603:29608   */\n      dup2\n        /* \"#utility.yul\":29600:29635   */\n      eq\n        /* \"#utility.yul\":29590:29653   */\n      tag_747\n      jumpi\n        /* \"#utility.yul\":29649:29650   */\n      0x00\n        /* \"#utility.yul\":29646:29647   */\n      0x00\n        /* \"#utility.yul\":29639:29651   */\n      revert\n        /* \"#utility.yul\":29590:29653   */\n    tag_747:\n        /* \"#utility.yul\":29537:29659   */\n      pop\n      jump\t// out\n        /* \"#utility.yul\":29665:29808   */\n    tag_491:\n        /* \"#utility.yul\":29722:29727   */\n      0x00\n        /* \"#utility.yul\":29753:29759   */\n      dup2\n        /* \"#utility.yul\":29747:29760   */\n      mload\n        /* \"#utility.yul\":29738:29760   */\n      swap1\n      pop\n        /* \"#utility.yul\":29769:29802   */\n      tag_749\n        /* \"#utility.yul\":29796:29801   */\n      dup2\n        /* \"#utility.yul\":29769:29802   */\n      tag_490\n      jump\t// in\n    tag_749:\n        /* \"#utility.yul\":29665:29808   */\n      swap3\n      swap2\n      pop\n      pop\n      jump\t// out\n        /* \"#utility.yul\":29840:30838   */\n    tag_492:\n        /* \"#utility.yul\":29929:29934   */\n      0x00\n        /* \"#utility.yul\":29973:29977   */\n      0x80\n        /* \"#utility.yul\":29961:29970   */\n      dup3\n        /* \"#utility.yul\":29956:29959   */\n      dup5\n        /* \"#utility.yul\":29952:29971   */\n      sub\n        /* \"#utility.yul\":29948:29978   */\n      slt\n        /* \"#utility.yul\":29945:30062   */\n      iszero\n      tag_751\n      jumpi\n        /* \"#utility.yul\":29981:30060   */\n      tag_752\n      tag_482\n      jump\t// in\n    tag_752:\n        /* \"#utility.yul\":29945:30062   */\n    tag_751:\n        /* \"#utility.yul\":30080:30101   */\n      tag_753\n        /* \"#utility.yul\":30096:30100   */\n      0x80\n        /* \"#utility.yul\":30080:30101   */\n      tag_486\n      jump\t// in\n    tag_753:\n        /* \"#utility.yul\":30071:30101   */\n      swap1\n      pop\n        /* \"#utility.yul\":30182:30183   */\n      0x00\n        /* \"#utility.yul\":30222:30282   */\n      tag_754\n        /* \"#utility.yul\":30278:30281   */\n      dup5\n        /* \"#utility.yul\":30269:30275   */\n      dup3\n        /* \"#utility.yul\":30258:30267   */\n      dup6\n        /* \"#utility.yul\":30254:30276   */\n      add\n        /* \"#utility.yul\":30222:30282   */\n      tag_455\n      jump\t// in\n    tag_754:\n        /* \"#utility.yul\":30215:30219   */\n      0x00\n        /* \"#utility.yul\":30208:30213   */\n      dup4\n        /* \"#utility.yul\":30204:30220   */\n      add\n        /* \"#utility.yul\":30197:30283   */\n      mstore\n        /* \"#utility.yul\":30111:30294   */\n      pop\n        /* \"#utility.yul\":30361:30363   */\n      0x20\n        /* \"#utility.yul\":30402:30459   */\n      tag_755\n        /* \"#utility.yul\":30455:30458   */\n      dup5\n        /* \"#utility.yul\":30446:30452   */\n      dup3\n        /* \"#utility.yul\":30435:30444   */\n      dup6\n        /* \"#utility.yul\":30431:30453   */\n      add\n        /* \"#utility.yul\":30402:30459   */\n      tag_488\n      jump\t// in\n    tag_755:\n        /* \"#utility.yul\":30395:30399   */\n      0x20\n        /* \"#utility.yul\":30388:30393   */\n      dup4\n        /* \"#utility.yul\":30384:30400   */\n      add\n        /* \"#utility.yul\":30377:30460   */\n      mstore\n        /* \"#utility.yul\":30304:30471   */\n      pop\n        /* \"#utility.yul\":30535:30537   */\n      0x40\n        /* \"#utility.yul\":30576:30636   */\n      tag_756\n        /* \"#utility.yul\":30632:30635   */\n      dup5\n        /* \"#utility.yul\":30623:30629   */\n      dup3\n        /* \"#utility.yul\":30612:30621   */\n      dup6\n        /* \"#utility.yul\":30608:30630   */\n      add\n        /* \"#utility.yul\":30576:30636   */\n      tag_455\n      jump\t// in\n    tag_756:\n        /* \"#utility.yul\":30569:30573   */\n      0x40\n        /* \"#utility.yul\":30562:30567   */\n      dup4\n        /* \"#utility.yul\":30558:30574   */\n      add\n        /* \"#utility.yul\":30551:30637   */\n      mstore\n        /* \"#utility.yul\":30481:30648   */\n      pop\n        /* \"#utility.yul\":30718:30720   */\n      0x60\n        /* \"#utility.yul\":30759:30819   */\n      tag_757\n        /* \"#utility.yul\":30815:30818   */\n      dup5\n        /* \"#utility.yul\":30806:30812   */\n      dup3\n        /* \"#utility.yul\":30795:30804   */\n      dup6\n        /* \"#utility.yul\":30791:30813   */\n      add\n        /* \"#utility.yul\":30759:30819   */\n      tag_491\n      jump\t// in\n    tag_757:\n        /* \"#utility.yul\":30752:30756   */\n      0x60\n        /* \"#utility.yul\":30745:30750   */\n      dup4\n        /* \"#utility.yul\":30741:30757   */\n      add\n        /* \"#utility.yul\":30734:30820   */\n      mstore\n        /* \"#utility.yul\":30658:30831   */\n      pop\n        /* \"#utility.yul\":29840:30838   */\n      swap3\n      swap2\n      pop\n      pop\n      jump\t// out\n        /* \"#utility.yul\":30844:31254   */\n    tag_317:\n        /* \"#utility.yul\":30943:30949   */\n      0x00\n        /* \"#utility.yul\":30992:30995   */\n      0x80\n        /* \"#utility.yul\":30980:30989   */\n      dup3\n        /* \"#utility.yul\":30971:30978   */\n      dup5\n        /* \"#utility.yul\":30967:30990   */\n      sub\n        /* \"#utility.yul\":30963:30996   */\n      slt\n        /* \"#utility.yul\":30960:31080   */\n      iszero\n      tag_759\n      jumpi\n        /* \"#utility.yul\":30999:31078   */\n      tag_760\n      tag_426\n      jump\t// in\n    tag_760:\n        /* \"#utility.yul\":30960:31080   */\n    tag_759:\n        /* \"#utility.yul\":31119:31120   */\n      0x00\n        /* \"#utility.yul\":31144:31237   */\n      tag_761\n        /* \"#utility.yul\":31229:31236   */\n      dup5\n        /* \"#utility.yul\":31220:31226   */\n      dup3\n        /* \"#utility.yul\":31209:31218   */\n      dup6\n        /* \"#utility.yul\":31205:31227   */\n      add\n        /* \"#utility.yul\":31144:31237   */\n      tag_492\n      jump\t// in\n    tag_761:\n        /* \"#utility.yul\":31134:31237   */\n      swap2\n      pop\n        /* \"#utility.yul\":31090:31247   */\n      pop\n        /* \"#utility.yul\":30844:31254   */\n      swap3\n      swap2\n      pop\n      pop\n      jump\t// out\n        /* \"#utility.yul\":31260:31425   */\n    tag_493:\n        /* \"#utility.yul\":31400:31417   */\n      0x7265736572766520696e76616c69640000000000000000000000000000000000\n        /* \"#utility.yul\":31396:31397   */\n      0x00\n        /* \"#utility.yul\":31388:31394   */\n      dup3\n        /* \"#utility.yul\":31384:31398   */\n      add\n        /* \"#utility.yul\":31377:31418   */\n      mstore\n        /* \"#utility.yul\":31260:31425   */\n      pop\n      jump\t// out\n        /* \"#utility.yul\":31431:31797   */\n    tag_494:\n        /* \"#utility.yul\":31573:31576   */\n      0x00\n        /* \"#utility.yul\":31594:31661   */\n      tag_764\n        /* \"#utility.yul\":31658:31660   */\n      0x0f\n        /* \"#utility.yul\":31653:31656   */\n      dup4\n        /* \"#utility.yul\":31594:31661   */\n      tag_438\n      jump\t// in\n    tag_764:\n        /* \"#utility.yul\":31587:31661   */\n      swap2\n      pop\n        /* \"#utility.yul\":31670:31763   */\n      tag_765\n        /* \"#utility.yul\":31759:31762   */\n      dup3\n        /* \"#utility.yul\":31670:31763   */\n      tag_493\n      jump\t// in\n    tag_765:\n        /* \"#utility.yul\":31788:31790   */\n      0x20\n        /* \"#utility.yul\":31783:31786   */\n      dup3\n        /* \"#utility.yul\":31779:31791   */\n      add\n        /* \"#utility.yul\":31772:31791   */\n      swap1\n      pop\n        /* \"#utility.yul\":31431:31797   */\n      swap2\n      swap1\n      pop\n      jump\t// out\n        /* \"#utility.yul\":31803:32222   */\n    tag_320:\n        /* \"#utility.yul\":31969:31973   */\n      0x00\n        /* \"#utility.yul\":32007:32009   */\n      0x20\n        /* \"#utility.yul\":31996:32005   */\n      dup3\n        /* \"#utility.yul\":31992:32010   */\n      add\n        /* \"#utility.yul\":31984:32010   */\n      swap1\n      pop\n        /* \"#utility.yul\":32056:32065   */\n      dup2\n        /* \"#utility.yul\":32050:32054   */\n      dup2\n        /* \"#utility.yul\":32046:32066   */\n      sub\n        /* \"#utility.yul\":32042:32043   */\n      0x00\n        /* \"#utility.yul\":32031:32040   */\n      dup4\n        /* \"#utility.yul\":32027:32044   */\n      add\n        /* \"#utility.yul\":32020:32067   */\n      mstore\n        /* \"#utility.yul\":32084:32215   */\n      tag_767\n        /* \"#utility.yul\":32210:32214   */\n      dup2\n        /* \"#utility.yul\":32084:32215   */\n      tag_494\n      jump\t// in\n    tag_767:\n        /* \"#utility.yul\":32076:32215   */\n      swap1\n      pop\n        /* \"#utility.yul\":31803:32222   */\n      swap2\n      swap1\n      pop\n      jump\t// out\n        /* \"#utility.yul\":32228:32396   */\n    tag_495:\n        /* \"#utility.yul\":32368:32388   */\n      0x6f7261636c65206e6f7420757064617465640000000000000000000000000000\n        /* \"#utility.yul\":32364:32365   */\n      0x00\n        /* \"#utility.yul\":32356:32362   */\n      dup3\n        /* \"#utility.yul\":32352:32366   */\n      add\n        /* \"#utility.yul\":32345:32389   */\n      mstore\n        /* \"#utility.yul\":32228:32396   */\n      pop\n      jump\t// out\n        /* \"#utility.yul\":32402:32768   */\n    tag_496:\n        /* \"#utility.yul\":32544:32547   */\n      0x00\n        /* \"#utility.yul\":32565:32632   */\n      tag_770\n        /* \"#utility.yul\":32629:32631   */\n      0x12\n        /* \"#utility.yul\":32624:32627   */\n      dup4\n        /* \"#utility.yul\":32565:32632   */\n      tag_438\n      jump\t// in\n    tag_770:\n        /* \"#utility.yul\":32558:32632   */\n      swap2\n      pop\n        /* \"#utility.yul\":32641:32734   */\n      tag_771\n        /* \"#utility.yul\":32730:32733   */\n      dup3\n        /* \"#utility.yul\":32641:32734   */\n      tag_495\n      jump\t// in\n    tag_771:\n        /* \"#utility.yul\":32759:32761   */\n      0x20\n        /* \"#utility.yul\":32754:32757   */\n      dup3\n        /* \"#utility.yul\":32750:32762   */\n      add\n        /* \"#utility.yul\":32743:32762   */\n      swap1\n      pop\n        /* \"#utility.yul\":32402:32768   */\n      swap2\n      swap1\n      pop\n      jump\t// out\n        /* \"#utility.yul\":32774:33193   */\n    tag_323:\n        /* \"#utility.yul\":32940:32944   */\n      0x00\n        /* \"#utility.yul\":32978:32980   */\n      0x20\n        /* \"#utility.yul\":32967:32976   */\n      dup3\n        /* \"#utility.yul\":32963:32981   */\n      add\n        /* \"#utility.yul\":32955:32981   */\n      swap1\n      pop\n        /* \"#utility.yul\":33027:33036   */\n      dup2\n        /* \"#utility.yul\":33021:33025   */\n      dup2\n        /* \"#utility.yul\":33017:33037   */\n      sub\n        /* \"#utility.yul\":33013:33014   */\n      0x00\n        /* \"#utility.yul\":33002:33011   */\n      dup4\n        /* \"#utility.yul\":32998:33015   */\n      add\n        /* \"#utility.yul\":32991:33038   */\n      mstore\n        /* \"#utility.yul\":33055:33186   */\n      tag_773\n        /* \"#utility.yul\":33181:33185   */\n      dup2\n        /* \"#utility.yul\":33055:33186   */\n      tag_496\n      jump\t// in\n    tag_773:\n        /* \"#utility.yul\":33047:33186   */\n      swap1\n      pop\n        /* \"#utility.yul\":32774:33193   */\n      swap2\n      swap1\n      pop\n      jump\t// out\n        /* \"#utility.yul\":33199:33393   */\n    tag_326:\n        /* \"#utility.yul\":33239:33243   */\n      0x00\n        /* \"#utility.yul\":33259:33279   */\n      tag_775\n        /* \"#utility.yul\":33277:33278   */\n      dup3\n        /* \"#utility.yul\":33259:33279   */\n      tag_428\n      jump\t// in\n    tag_775:\n        /* \"#utility.yul\":33254:33279   */\n      swap2\n      pop\n        /* \"#utility.yul\":33293:33313   */\n      tag_776\n        /* \"#utility.yul\":33311:33312   */\n      dup4\n        /* \"#utility.yul\":33293:33313   */\n      tag_428\n      jump\t// in\n    tag_776:\n        /* \"#utility.yul\":33288:33313   */\n      swap3\n      pop\n        /* \"#utility.yul\":33337:33338   */\n      dup3\n        /* \"#utility.yul\":33334:33335   */\n      dup3\n        /* \"#utility.yul\":33330:33339   */\n      sub\n        /* \"#utility.yul\":33322:33339   */\n      swap1\n      pop\n        /* \"#utility.yul\":33361:33362   */\n      dup2\n        /* \"#utility.yul\":33355:33359   */\n      dup2\n        /* \"#utility.yul\":33352:33363   */\n      gt\n        /* \"#utility.yul\":33349:33386   */\n      iszero\n      tag_777\n      jumpi\n        /* \"#utility.yul\":33366:33384   */\n      tag_778\n      tag_460\n      jump\t// in\n    tag_778:\n        /* \"#utility.yul\":33349:33386   */\n    tag_777:\n        /* \"#utility.yul\":33199:33393   */\n      swap3\n      swap2\n      pop\n      pop\n      jump\t// out\n        /* \"#utility.yul\":33399:33566   */\n    tag_497:\n        /* \"#utility.yul\":33539:33558   */\n      0x6f7261636c652064617461207374616c65000000000000000000000000000000\n        /* \"#utility.yul\":33535:33536   */\n      0x00\n        /* \"#utility.yul\":33527:33533   */\n      dup3\n        /* \"#utility.yul\":33523:33537   */\n      add\n        /* \"#utility.yul\":33516:33559   */\n      mstore\n        /* \"#utility.yul\":33399:33566   */\n      pop\n      jump\t// out\n        /* \"#utility.yul\":33572:33938   */\n    tag_498:\n        /* \"#utility.yul\":33714:33717   */\n      0x00\n        /* \"#utility.yul\":33735:33802   */\n      tag_781\n        /* \"#utility.yul\":33799:33801   */\n      0x11\n        /* \"#utility.yul\":33794:33797   */\n      dup4\n        /* \"#utility.yul\":33735:33802   */\n      tag_438\n      jump\t// in\n    tag_781:\n        /* \"#utility.yul\":33728:33802   */\n      swap2\n      pop\n        /* \"#utility.yul\":33811:33904   */\n      tag_782\n        /* \"#utility.yul\":33900:33903   */\n      dup3\n        /* \"#utility.yul\":33811:33904   */\n      tag_497\n      jump\t// in\n    tag_782:\n        /* \"#utility.yul\":33929:33931   */\n      0x20\n        /* \"#utility.yul\":33924:33927   */\n      dup3\n        /* \"#utility.yul\":33920:33932   */\n      add\n        /* \"#utility.yul\":33913:33932   */\n      swap1\n      pop\n        /* \"#utility.yul\":33572:33938   */\n      swap2\n      swap1\n      pop\n      jump\t// out\n        /* \"#utility.yul\":33944:34363   */\n    tag_329:\n        /* \"#utility.yul\":34110:34114   */\n      0x00\n        /* \"#utility.yul\":34148:34150   */\n      0x20\n        /* \"#utility.yul\":34137:34146   */\n      dup3\n        /* \"#utility.yul\":34133:34151   */\n      add\n        /* \"#utility.yul\":34125:34151   */\n      swap1\n      pop\n        /* \"#utility.yul\":34197:34206   */\n      dup2\n        /* \"#utility.yul\":34191:34195   */\n      dup2\n        /* \"#utility.yul\":34187:34207   */\n      sub\n        /* \"#utility.yul\":34183:34184   */\n      0x00\n        /* \"#utility.yul\":34172:34181   */\n      dup4\n        /* \"#utility.yul\":34168:34185   */\n      add\n        /* \"#utility.yul\":34161:34208   */\n      mstore\n        /* \"#utility.yul\":34225:34356   */\n      tag_784\n        /* \"#utility.yul\":34351:34355   */\n      dup2\n        /* \"#utility.yul\":34225:34356   */\n      tag_498\n      jump\t// in\n    tag_784:\n        /* \"#utility.yul\":34217:34356   */\n      swap1\n      pop\n        /* \"#utility.yul\":33944:34363   */\n      swap2\n      swap1\n      pop\n      jump\t// out\n        /* \"#utility.yul\":34369:34526   */\n    tag_499:\n        /* \"#utility.yul\":34509:34518   */\n      0x626164204e415600000000000000000000000000000000000000000000000000\n        /* \"#utility.yul\":34505:34506   */\n      0x00\n        /* \"#utility.yul\":34497:34503   */\n      dup3\n        /* \"#utility.yul\":34493:34507   */\n      add\n        /* \"#utility.yul\":34486:34519   */\n      mstore\n        /* \"#utility.yul\":34369:34526   */\n      pop\n      jump\t// out\n        /* \"#utility.yul\":34532:34897   */\n    tag_500:\n        /* \"#utility.yul\":34674:34677   */\n      0x00\n        /* \"#utility.yul\":34695:34761   */\n      tag_787\n        /* \"#utility.yul\":34759:34760   */\n      0x07\n        /* \"#utility.yul\":34754:34757   */\n      dup4\n        /* \"#utility.yul\":34695:34761   */\n      tag_438\n      jump\t// in\n    tag_787:\n        /* \"#utility.yul\":34688:34761   */\n      swap2\n      pop\n        /* \"#utility.yul\":34770:34863   */\n      tag_788\n        /* \"#utility.yul\":34859:34862   */\n      dup3\n        /* \"#utility.yul\":34770:34863   */\n      tag_499\n      jump\t// in\n    tag_788:\n        /* \"#utility.yul\":34888:34890   */\n      0x20\n        /* \"#utility.yul\":34883:34886   */\n      dup3\n        /* \"#utility.yul\":34879:34891   */\n      add\n        /* \"#utility.yul\":34872:34891   */\n      swap1\n      pop\n        /* \"#utility.yul\":34532:34897   */\n      swap2\n      swap1\n      pop\n      jump\t// out\n        /* \"#utility.yul\":34903:35322   */\n    tag_341:\n        /* \"#utility.yul\":35069:35073   */\n      0x00\n        /* \"#utility.yul\":35107:35109   */\n      0x20\n        /* \"#utility.yul\":35096:35105   */\n      dup3\n        /* \"#utility.yul\":35092:35110   */\n      add\n        /* \"#utility.yul\":35084:35110   */\n      swap1\n      pop\n        /* \"#utility.yul\":35156:35165   */\n      dup2\n        /* \"#utility.yul\":35150:35154   */\n      dup2\n        /* \"#utility.yul\":35146:35166   */\n      sub\n        /* \"#utility.yul\":35142:35143   */\n      0x00\n        /* \"#utility.yul\":35131:35140   */\n      dup4\n        /* \"#utility.yul\":35127:35144   */\n      add\n        /* \"#utility.yul\":35120:35167   */\n      mstore\n        /* \"#utility.yul\":35184:35315   */\n      tag_790\n        /* \"#utility.yul\":35310:35314   */\n      dup2\n        /* \"#utility.yul\":35184:35315   */\n      tag_500\n      jump\t// in\n    tag_790:\n        /* \"#utility.yul\":35176:35315   */\n      swap1\n      pop\n        /* \"#utility.yul\":34903:35322   */\n      swap2\n      swap1\n      pop\n      jump\t// out\n        /* \"#utility.yul\":35328:35519   */\n    tag_388:\n        /* \"#utility.yul\":35368:35371   */\n      0x00\n        /* \"#utility.yul\":35387:35407   */\n      tag_792\n        /* \"#utility.yul\":35405:35406   */\n      dup3\n        /* \"#utility.yul\":35387:35407   */\n      tag_428\n      jump\t// in\n    tag_792:\n        /* \"#utility.yul\":35382:35407   */\n      swap2\n      pop\n        /* \"#utility.yul\":35421:35441   */\n      tag_793\n        /* \"#utility.yul\":35439:35440   */\n      dup4\n        /* \"#utility.yul\":35421:35441   */\n      tag_428\n      jump\t// in\n    tag_793:\n        /* \"#utility.yul\":35416:35441   */\n      swap3\n      pop\n        /* \"#utility.yul\":35464:35465   */\n      dup3\n        /* \"#utility.yul\":35461:35462   */\n      dup3\n        /* \"#utility.yul\":35457:35466   */\n      add\n        /* \"#utility.yul\":35450:35466   */\n      swap1\n      pop\n        /* \"#utility.yul\":35485:35488   */\n      dup1\n        /* \"#utility.yul\":35482:35483   */\n      dup3\n        /* \"#utility.yul\":35479:35489   */\n      gt\n        /* \"#utility.yul\":35476:35512   */\n      iszero\n      tag_794\n      jumpi\n        /* \"#utility.yul\":35492:35510   */\n      tag_795\n      tag_460\n      jump\t// in\n    tag_795:\n        /* \"#utility.yul\":35476:35512   */\n    tag_794:\n        /* \"#utility.yul\":35328:35519   */\n      swap3\n      swap2\n      pop\n      pop\n      jump\t// out\n        /* \"#utility.yul\":35525:35691   */\n    tag_501:\n        /* \"#utility.yul\":35665:35683   */\n      0x6469766973696f6e206279207a65726f00000000000000000000000000000000\n        /* \"#utility.yul\":35661:35662   */\n      0x00\n        /* \"#utility.yul\":35653:35659   */\n      dup3\n        /* \"#utility.yul\":35649:35663   */\n      add\n        /* \"#utility.yul\":35642:35684   */\n      mstore\n        /* \"#utility.yul\":35525:35691   */\n      pop\n      jump\t// out\n        /* \"#utility.yul\":35697:36063   */\n    tag_502:\n        /* \"#utility.yul\":35839:35842   */\n      0x00\n        /* \"#utility.yul\":35860:35927   */\n      tag_798\n        /* \"#utility.yul\":35924:35926   */\n      0x10\n        /* \"#utility.yul\":35919:35922   */\n      dup4\n        /* \"#utility.yul\":35860:35927   */\n      tag_438\n      jump\t// in\n    tag_798:\n        /* \"#utility.yul\":35853:35927   */\n      swap2\n      pop\n        /* \"#utility.yul\":35936:36029   */\n      tag_799\n        /* \"#utility.yul\":36025:36028   */\n      dup3\n        /* \"#utility.yul\":35936:36029   */\n      tag_501\n      jump\t// in\n    tag_799:\n        /* \"#utility.yul\":36054:36056   */\n      0x20\n        /* \"#utility.yul\":36049:36052   */\n      dup3\n        /* \"#utility.yul\":36045:36057   */\n      add\n        /* \"#utility.yul\":36038:36057   */\n      swap1\n      pop\n        /* \"#utility.yul\":35697:36063   */\n      swap2\n      swap1\n      pop\n      jump\t// out\n        /* \"#utility.yul\":36069:36488   */\n    tag_398:\n        /* \"#utility.yul\":36235:36239   */\n      0x00\n        /* \"#utility.yul\":36273:36275   */\n      0x20\n        /* \"#utility.yul\":36262:36271   */\n      dup3\n        /* \"#utility.yul\":36258:36276   */\n      add\n        /* \"#utility.yul\":36250:36276   */\n      swap1\n      pop\n        /* \"#utility.yul\":36322:36331   */\n      dup2\n        /* \"#utility.yul\":36316:36320   */\n      dup2\n        /* \"#utility.yul\":36312:36332   */\n      sub\n        /* \"#utility.yul\":36308:36309   */\n      0x00\n        /* \"#utility.yul\":36297:36306   */\n      dup4\n        /* \"#utility.yul\":36293:36310   */\n      add\n        /* \"#utility.yul\":36286:36333   */\n      mstore\n        /* \"#utility.yul\":36350:36481   */\n      tag_801\n        /* \"#utility.yul\":36476:36480   */\n      dup2\n        /* \"#utility.yul\":36350:36481   */\n      tag_502\n      jump\t// in\n    tag_801:\n        /* \"#utility.yul\":36342:36481   */\n      swap1\n      pop\n        /* \"#utility.yul\":36069:36488   */\n      swap2\n      swap1\n      pop\n      jump\t// out\n\n    auxdata: 0xa264697066735822122074451e06d5b7a4a21f422a352bb992b59e3a7cee0d1210554ada6798f029789f64736f6c63430008220033\n}\n",
				"bytecode": {
					"linkReferences": {},
					"object": "610160604052348015610010575f5ffd5b50604051613f91380380613f918339818101604052810190610032919061071e565b335f73ffffffffffffffffffffffffffffffffffffffff168173ffffffffffffffffffffffffffffffffffffffff16036100a3575f6040517f1e4fbdf700000000000000000000000000000000000000000000000000000000815260040161009a91906107b6565b60405180910390fd5b6100b28161059a60201b60201c565b5060016100d16100c661065b60201b60201c565b61068460201b60201c565b5f01819055505f73ffffffffffffffffffffffffffffffffffffffff168673ffffffffffffffffffffffffffffffffffffffff1603610145576040517f08c379a000000000000000000000000000000000000000000000000000000000815260040161013c90610829565b60405180910390fd5b5f73ffffffffffffffffffffffffffffffffffffffff168573ffffffffffffffffffffffffffffffffffffffff16036101b3576040517f08c379a00000000000000000000000000000000000000000000000000000000081526004016101aa90610891565b60405180910390fd5b5f73ffffffffffffffffffffffffffffffffffffffff168473ffffffffffffffffffffffffffffffffffffffff1603610221576040517f08c379a0000000000000000000000000000000000000000000000000000000008152600401610218906108f9565b60405180910390fd5b5f73ffffffffffffffffffffffffffffffffffffffff168373ffffffffffffffffffffffffffffffffffffffff160361028f576040517f08c379a000000000000000000000000000000000000000000000000000000000815260040161028690610961565b60405180910390fd5b5f82116102d1576040517f08c379a00000000000000000000000000000000000000000000000000000000081526004016102c8906109c9565b60405180910390fd5b8560015f6101000a81548173ffffffffffffffffffffffffffffffffffffffff021916908373ffffffffffffffffffffffffffffffffffffffff1602179055508473ffffffffffffffffffffffffffffffffffffffff1660808173ffffffffffffffffffffffffffffffffffffffff16815250508373ffffffffffffffffffffffffffffffffffffffff1660a08173ffffffffffffffffffffffffffffffffffffffff16815250508260025f6101000a81548173ffffffffffffffffffffffffffffffffffffffff021916908373ffffffffffffffffffffffffffffffffffffffff1602179055508161014081815250508473ffffffffffffffffffffffffffffffffffffffff1663313ce5676040518163ffffffff1660e01b8152600401602060405180830381865afa15801561040b573d5f5f3e3d5ffd5b505050506040513d601f19601f8201168201806040525081019061042f9190610a1d565b60ff1660c08160ff16815250508373ffffffffffffffffffffffffffffffffffffffff1663313ce5676040518163ffffffff1660e01b8152600401602060405180830381865afa158015610485573d5f5f3e3d5ffd5b505050506040513d601f19601f820116820180604052508101906104a99190610a1d565b60ff1660e08160ff1681525050601260c05160ff1611156104ff576040517f08c379a00000000000000000000000000000000000000000000000000000000081526004016104f690610a92565b60405180910390fd5b601260e05160ff161115610548576040517f08c379a000000000000000000000000000000000000000000000000000000000815260040161053f90610afa565b60405180910390fd5b60e05160ff16600a61055a9190610c74565b610100818152505060c05160126105719190610cbe565b60ff16600a6105809190610c74565b610120818152505080600381905550505050505050610cf2565b5f5f5f9054906101000a900473ffffffffffffffffffffffffffffffffffffffff169050815f5f6101000a81548173ffffffffffffffffffffffffffffffffffffffff021916908373ffffffffffffffffffffffffffffffffffffffff1602179055508173ffffffffffffffffffffffffffffffffffffffff168173ffffffffffffffffffffffffffffffffffffffff167f8be0079c531659141344cd1fd0a4f28419497f9722a3daafe3b4186f6b6457e060405160405180910390a35050565b5f7f9b779b17422d0df92223018b32b4d1fa46e071723d6817e2486d003becc55f005f1b905090565b5f819050919050565b5f5ffd5b5f73ffffffffffffffffffffffffffffffffffffffff82169050919050565b5f6106ba82610691565b9050919050565b6106ca816106b0565b81146106d4575f5ffd5b50565b5f815190506106e5816106c1565b92915050565b5f819050919050565b6106fd816106eb565b8114610707575f5ffd5b50565b5f81519050610718816106f4565b92915050565b5f5f5f5f5f5f60c087890312156107385761073761068d565b5b5f61074589828a016106d7565b965050602061075689828a016106d7565b955050604061076789828a016106d7565b945050606061077889828a016106d7565b935050608061078989828a0161070a565b92505060a061079a89828a0161070a565b9150509295509295509295565b6107b0816106b0565b82525050565b5f6020820190506107c95f8301846107a7565b92915050565b5f82825260208201905092915050565b7f626164206f7261636c65000000000000000000000000000000000000000000005f82015250565b5f610813600a836107cf565b915061081e826107df565b602082019050919050565b5f6020820190508181035f83015261084081610807565b9050919050565b7f62616420757364630000000000000000000000000000000000000000000000005f82015250565b5f61087b6008836107cf565b915061088682610847565b602082019050919050565b5f6020820190508181035f8301526108a88161086f565b9050919050565b7f6261642072776120746f6b656e000000000000000000000000000000000000005f82015250565b5f6108e3600d836107cf565b91506108ee826108af565b602082019050919050565b5f6020820190508181035f830152610910816108d7565b9050919050565b7f62616420697373756572000000000000000000000000000000000000000000005f82015250565b5f61094b600a836107cf565b915061095682610917565b602082019050919050565b5f6020820190508181035f8301526109788161093f565b9050919050565b7f62616420696e697469616c204e415600000000000000000000000000000000005f82015250565b5f6109b3600f836107cf565b91506109be8261097f565b602082019050919050565b5f6020820190508181035f8301526109e0816109a7565b9050919050565b5f60ff82169050919050565b6109fc816109e7565b8114610a06575f5ffd5b50565b5f81519050610a17816109f3565b92915050565b5f60208284031215610a3257610a3161068d565b5b5f610a3f84828501610a09565b91505092915050565b7f5553444320646563696d616c7320746f6f2068696768000000000000000000005f82015250565b5f610a7c6016836107cf565b9150610a8782610a48565b602082019050919050565b5f6020820190508181035f830152610aa981610a70565b9050919050565b7f52574120646563696d616c7320746f6f206869676800000000000000000000005f82015250565b5f610ae46015836107cf565b9150610aef82610ab0565b602082019050919050565b5f6020820190508181035f830152610b1181610ad8565b9050919050565b7f4e487b71000000000000000000000000000000000000000000000000000000005f52601160045260245ffd5b5f8160011c9050919050565b5f5f8291508390505b6001851115610b9a57808604811115610b7657610b75610b18565b5b6001851615610b855780820291505b8081029050610b9385610b45565b9450610b5a565b94509492505050565b5f82610bb25760019050610c6d565b81610bbf575f9050610c6d565b8160018114610bd55760028114610bdf57610c0e565b6001915050610c6d565b60ff841115610bf157610bf0610b18565b5b8360020a915084821115610c0857610c07610b18565b5b50610c6d565b5060208310610133831016604e8410600b8410161715610c435782820a905083811115610c3e57610c3d610b18565b5b610c6d565b610c508484846001610b51565b92509050818404811115610c6757610c66610b18565b5b81810290505b9392505050565b5f610c7e826106eb565b9150610c89836106eb565b9250610cb67fffffffffffffffffffffffffffffffffffffffffffffffffffffffffffffffff8484610ba3565b905092915050565b5f610cc8826109e7565b9150610cd3836109e7565b9250828203905060ff811115610cec57610ceb610b18565b5b92915050565b60805160a05160c05160e0516101005161012051610140516131ba610dd75f395f8181610a1901528181610b1a01528181610cd9015261193401525f81816119ef01528181611aa501528181611bc401528181611c060152611e1201525f8181610b3b0152818161196a01528181611a1e01528181611a7901528181611b8b0152611c3701525f50505f50505f818161047b015281816107660152818161098301528181610bd30152818161110a015261189e01525f81816104d70152818161071f0152818161103101528181611197015281816114bf0152611e3301526131ba5ff3fe608060405234801561000f575f5ffd5b5060043610610171575f3560e01c80637cbc2373116100dc578063b235d46811610095578063c40d111c1161006f578063c40d111c146103f4578063ccb99c2614610425578063cd3b691c14610441578063f2fde38b1461045d57610171565b8063b235d4681461039c578063b6935501146103ba578063bc34e6da146103d657610171565b80637cbc2373146102d75780637dc0d1d0146103085780637e4831d3146103265780638da5cb5b146103445780638e827cb514610362578063aa2f892d1461038057610171565b806352f1edcc1161012e57806352f1edcc1461024f57806355cc4e571461026d578063675a5c0b14610289578063715018a6146102a757806372b823c3146102b15780637adbf973146102bb57610171565b80630c5bf35114610175578063158ef93e146101935780631d143848146101b15780633e413bee146101cf57806347082dac146101ed5780634cdad5061461021e575b5f5ffd5b61017d610479565b60405161018a9190612174565b60405180910390f35b61019b61049d565b6040516101a891906121a7565b60405180910390f35b6101b96104b0565b6040516101c691906121e0565b60405180910390f35b6101d76104d5565b6040516101e49190612219565b60405180910390f35b61020760048036038101906102029190612272565b6104f9565b6040516102159291906122bf565b60405180910390f35b610238600480360381019061023391906122e6565b61084f565b6040516102469291906122bf565b60405180910390f35b61025761087d565b6040516102649190612311565b60405180910390f35b61028760048036038101906102829190612354565b610883565b005b61029161097f565b60405161029e9190612311565b60405180910390f35b6102af610a5c565b005b6102b9610a6f565b005b6102d560048036038101906102d09190612354565b610d14565b005b6102f160048036038101906102ec9190612272565b610e10565b6040516102ff9291906122bf565b60405180910390f35b61031061123e565b60405161031d919061239f565b60405180910390f35b61032e611263565b60405161033b91906121a7565b60405180910390f35b61034c611276565b60405161035991906121e0565b60405180910390f35b61036a61129d565b6040516103779190612311565b60405180910390f35b61039a600480360381019061039591906122e6565b6112b8565b005b6103a461144d565b6040516103b191906121a7565b60405180910390f35b6103d460048036038101906103cf91906123e2565b611460565b005b6103de6114bc565b6040516103eb9190612311565b60405180910390f35b61040e600480360381019061040991906122e6565b61155a565b60405161041c9291906122bf565b60405180910390f35b61043f600480360381019061043a91906123e2565b611588565b005b61045b600480360381019061045691906122e6565b6115e4565b005b61047760048036038101906104729190612354565b61166f565b005b7f000000000000000000000000000000000000000000000000000000000000000081565b600260149054906101000a900460ff1681565b60025f9054906101000a900473ffffffffffffffffffffffffffffffffffffffff1681565b7f000000000000000000000000000000000000000000000000000000000000000081565b5f5f6105036116f3565b600260149054906101000a900460ff16610552576040517f08c379a000000000000000000000000000000000000000000000000000000000815260040161054990612467565b60405180910390fd5b600260159054906101000a900460ff16156105a2576040517f08c379a0000000000000000000000000000000000000000000000000000000008152600401610599906124cf565b60405180910390fd5b5f84116105e4576040517f08c379a00000000000000000000000000000000000000000000000000000000081526004016105db90612537565b60405180910390fd5b5f6105ed611715565b90505f6105f98261189a565b905061060586826119a8565b80945081955050505f841161064f576040517f08c379a00000000000000000000000000000000000000000000000000000000081526004016106469061259f565b60405180910390fd5b84841015610692576040517f08c379a000000000000000000000000000000000000000000000000000000000815260040161068990612607565b60405180910390fd5b5f83116106d4576040517f08c379a00000000000000000000000000000000000000000000000000000000081526004016106cb9061266f565b60405180910390fd5b85831115610717576040517f08c379a000000000000000000000000000000000000000000000000000000000815260040161070e906126d7565b60405180910390fd5b6107643330857f000000000000000000000000000000000000000000000000000000000000000073ffffffffffffffffffffffffffffffffffffffff16611ad5909392919063ffffffff16565b7f000000000000000000000000000000000000000000000000000000000000000073ffffffffffffffffffffffffffffffffffffffff166340c10f1933866040518363ffffffff1660e01b81526004016107bf9291906126f5565b5f604051808303815f87803b1580156107d6575f5ffd5b505af11580156107e8573d5f5f3e3d5ffd5b505050503373ffffffffffffffffffffffffffffffffffffffff167f5a3358a3d27a5373c0df2604662088d37894d56b7cfd27f315770440f4e0d9198483876040516108369392919061271c565b60405180910390a25050610848611b2a565b9250929050565b5f5f5f61085a611715565b90505f6108668261189a565b90506108728582611b44565b935093505050915091565b60035481565b61088b611c73565b5f73ffffffffffffffffffffffffffffffffffffffff168173ffffffffffffffffffffffffffffffffffffffff16036108f9576040517f08c379a00000000000000000000000000000000000000000000000000000000081526004016108f09061279b565b60405180910390fd5b8060025f6101000a81548173ffffffffffffffffffffffffffffffffffffffff021916908373ffffffffffffffffffffffffffffffffffffffff1602179055508073ffffffffffffffffffffffffffffffffffffffff167f141c634522c8bfcf25beba4c524ac0c87de0db74ebe83168cf5f3bf4d45fd89860405160405180910390a250565b5f5f7f000000000000000000000000000000000000000000000000000000000000000073ffffffffffffffffffffffffffffffffffffffff166318160ddd6040518163ffffffff1660e01b8152600401602060405180830381865afa1580156109ea573d5f5f3e3d5ffd5b505050506040513d601f19601f82011682018060405250810190610a0e91906127cd565b90505f8103610a40577f0000000000000000000000000000000000000000000000000000000000000000915050610a59565b5f610a49611715565b9050610a548161189a565b925050505b90565b610a64611c73565b610a6d5f611cfa565b565b610a77611c73565b600260149054906101000a900460ff1615610ac7576040517f08c379a0000000000000000000000000000000000000000000000000000000008152600401610abe90612842565b60405180910390fd5b5f610ad0611715565b90505f815f015111610b17576040517f08c379a0000000000000000000000000000000000000000000000000000000008152600401610b0e906128aa565b60405180910390fd5b5f7f00000000000000000000000000000000000000000000000000000000000000007f0000000000000000000000000000000000000000000000000000000000000000835f0151610b6891906128f5565b610b729190612963565b90505f8111610bb6576040517f08c379a0000000000000000000000000000000000000000000000000000000008152600401610bad906129dd565b60405180910390fd5b6001600260146101000a81548160ff0219169083151502179055507f000000000000000000000000000000000000000000000000000000000000000073ffffffffffffffffffffffffffffffffffffffff166340c10f1960025f9054906101000a900473ffffffffffffffffffffffffffffffffffffffff16836040518363ffffffff1660e01b8152600401610c4d9291906126f5565b5f604051808303815f87803b158015610c64575f5ffd5b505af1158015610c76573d5f5f3e3d5ffd5b5050505060025f9054906101000a900473ffffffffffffffffffffffffffffffffffffffff1673ffffffffffffffffffffffffffffffffffffffff167f7daa9e69e51aae98674a933164ca91b034cb5856823c3ea6a98065ba29e97283835f01517f000000000000000000000000000000000000000000000000000000000000000084604051610d089392919061271c565b60405180910390a25050565b610d1c611c73565b5f73ffffffffffffffffffffffffffffffffffffffff168173ffffffffffffffffffffffffffffffffffffffff1603610d8a576040517f08c379a0000000000000000000000000000000000000000000000000000000008152600401610d8190612a45565b60405180910390fd5b8060015f6101000a81548173ffffffffffffffffffffffffffffffffffffffff021916908373ffffffffffffffffffffffffffffffffffffffff1602179055508073ffffffffffffffffffffffffffffffffffffffff167f3f32684a32a11dabdbb8c0177de80aa3ae36a004d75210335b49e544e48cd0aa60405160405180910390a250565b5f5f610e1a6116f3565b600260149054906101000a900460ff16610e69576040517f08c379a0000000000000000000000000000000000000000000000000000000008152600401610e6090612467565b60405180910390fd5b600260169054906101000a900460ff1615610eb9576040517f08c379a0000000000000000000000000000000000000000000000000000000008152600401610eb090612aad565b60405180910390fd5b5f8411610efb576040517f08c379a0000000000000000000000000000000000000000000000000000000008152600401610ef290612b15565b60405180910390fd5b5f610f04611715565b90505f610f108261189a565b9050610f1c8682611b44565b80945081955050505f8411610f66576040517f08c379a0000000000000000000000000000000000000000000000000000000008152600401610f5d90612b7d565b60405180910390fd5b85841115610fa9576040517f08c379a0000000000000000000000000000000000000000000000000000000008152600401610fa090612be5565b60405180910390fd5b5f8311610feb576040517f08c379a0000000000000000000000000000000000000000000000000000000008152600401610fe290612c4d565b60405180910390fd5b8483101561102e576040517f08c379a000000000000000000000000000000000000000000000000000000000815260040161102590612cb5565b60405180910390fd5b827f000000000000000000000000000000000000000000000000000000000000000073ffffffffffffffffffffffffffffffffffffffff166370a08231306040518263ffffffff1660e01b815260040161108891906121e0565b602060405180830381865afa1580156110a3573d5f5f3e3d5ffd5b505050506040513d601f19601f820116820180604052508101906110c791906127cd565b1015611108576040517f08c379a00000000000000000000000000000000000000000000000000000000081526004016110ff90612d1d565b60405180910390fd5b7f000000000000000000000000000000000000000000000000000000000000000073ffffffffffffffffffffffffffffffffffffffff16639dc29fac33866040518363ffffffff1660e01b81526004016111639291906126f5565b5f604051808303815f87803b15801561117a575f5ffd5b505af115801561118c573d5f5f3e3d5ffd5b505050506111db33847f000000000000000000000000000000000000000000000000000000000000000073ffffffffffffffffffffffffffffffffffffffff16611dbb9092919063ffffffff16565b3373ffffffffffffffffffffffffffffffffffffffff167f484c40561359f3e3b8be9101897f8680aa82fbe1df9fd9038e0dbc62840326468583866040516112259392919061271c565b60405180910390a25050611237611b2a565b9250929050565b60015f9054906101000a900473ffffffffffffffffffffffffffffffffffffffff1681565b600260159054906101000a900460ff1681565b5f5f5f9054906101000a900473ffffffffffffffffffffffffffffffffffffffff16905090565b5f5f6112a7611715565b90506112b281611e0e565b91505090565b600260149054906101000a900460ff16611307576040517f08c379a00000000000000000000000000000000000000000000000000000000081526004016112fe90612467565b60405180910390fd5b5f8111611349576040517f08c379a000000000000000000000000000000000000000000000000000000000815260040161134090612b15565b60405180910390fd5b5f611352611715565b90505f61135e8261189a565b90505f5f61136c8584611b44565b915091505f82116113b2576040517f08c379a00000000000000000000000000000000000000000000000000000000081526004016113a990612b7d565b60405180910390fd5b5f81116113f4576040517f08c379a00000000000000000000000000000000000000000000000000000000081526004016113eb90612c4d565b60405180910390fd5b3373ffffffffffffffffffffffffffffffffffffffff167f5952c21ab4e64f9ce2d0daf53a8286da3c634eab5a86ccdf38ebefc3087ea30183858460405161143e9392919061271c565b60405180910390a25050505050565b600260169054906101000a900460ff1681565b611468611c73565b80600260156101000a81548160ff0219169083151502179055507f0fb79081612032f5ce63340f421121d9f8b8ea04158f08b2dfafacb3393caf98816040516114b191906121a7565b60405180910390a150565b5f7f000000000000000000000000000000000000000000000000000000000000000073ffffffffffffffffffffffffffffffffffffffff166370a08231306040518263ffffffff1660e01b815260040161151691906121e0565b602060405180830381865afa158015611531573d5f5f3e3d5ffd5b505050506040513d601f19601f8201168201806040525081019061155591906127cd565b905090565b5f5f5f611565611715565b90505f6115718261189a565b905061157d85826119a8565b935093505050915091565b611590611c73565b80600260166101000a81548160ff0219169083151502179055507fcab6eb524363ce625bcd6d709065fe3433487efebb486f47d00f3c310e952b63816040516115d991906121a7565b60405180910390a150565b6115ec611c73565b5f811161162e576040517f08c379a000000000000000000000000000000000000000000000000000000000815260040161162590612d85565b60405180910390fd5b806003819055507fb321aa162c9f5d4bbd1aee2493d56a1de75f6b43eb21e6987f5c67230000a3ca816040516116649190612311565b60405180910390a150565b611677611c73565b5f73ffffffffffffffffffffffffffffffffffffffff168173ffffffffffffffffffffffffffffffffffffffff16036116e7575f6040517f1e4fbdf70000000000000000000000000000000000000000000000000000000081526004016116de91906121e0565b60405180910390fd5b6116f081611cfa565b50565b6116fb611eec565b600261170d611708611f2d565b611f56565b5f0181905550565b61171d6120d4565b60015f9054906101000a900473ffffffffffffffffffffffffffffffffffffffff1673ffffffffffffffffffffffffffffffffffffffff1663186f34d56040518163ffffffff1660e01b8152600401608060405180830381865afa158015611787573d5f5f3e3d5ffd5b505050506040513d601f19601f820116820180604052508101906117ab9190612eeb565b905080602001516117f1576040517f08c379a00000000000000000000000000000000000000000000000000000000081526004016117e890612f60565b60405180910390fd5b5f816040015111611837576040517f08c379a000000000000000000000000000000000000000000000000000000000815260040161182e90612fc8565b60405180910390fd5b5f600354148061185857506003548160400151426118559190612fe6565b11155b611897576040517f08c379a000000000000000000000000000000000000000000000000000000000815260040161188e90613063565b60405180910390fd5b90565b5f5f7f000000000000000000000000000000000000000000000000000000000000000073ffffffffffffffffffffffffffffffffffffffff166318160ddd6040518163ffffffff1660e01b8152600401602060405180830381865afa158015611905573d5f5f3e3d5ffd5b505050506040513d601f19601f8201168201806040525081019061192991906127cd565b90505f810361195b577f00000000000000000000000000000000000000000000000000000000000000009150506119a3565b5f61196584611e0e565b9050817f00000000000000000000000000000000000000000000000000000000000000008261199491906128f5565b61199e9190612963565b925050505b919050565b5f5f5f83116119ec576040517f08c379a00000000000000000000000000000000000000000000000000000000081526004016119e3906130cb565b60405180910390fd5b5f7f000000000000000000000000000000000000000000000000000000000000000085611a1991906128f5565b9050837f000000000000000000000000000000000000000000000000000000000000000082611a4891906128f5565b611a529190612963565b92505f8303611a67575f5f9250925050611ace565b5f611a9d8585611a7791906128f5565b7f0000000000000000000000000000000000000000000000000000000000000000611f5f565b9050611ac9817f0000000000000000000000000000000000000000000000000000000000000000611f5f565b925050505b9250929050565b611ae3848484846001611fde565b611b2457836040517f5274afe7000000000000000000000000000000000000000000000000000000008152600401611b1b91906121e0565b60405180910390fd5b50505050565b6001611b3c611b37611f2d565b611f56565b5f0181905550565b5f5f5f8311611b88576040517f08c379a0000000000000000000000000000000000000000000000000000000008152600401611b7f906130cb565b60405180910390fd5b5f7f00000000000000000000000000000000000000000000000000000000000000008486611bb691906128f5565b611bc09190612963565b90507f000000000000000000000000000000000000000000000000000000000000000081611bee9190612963565b91505f8203611c03575f5f9250925050611c6c565b5f7f000000000000000000000000000000000000000000000000000000000000000083611c3091906128f5565b9050611c677f000000000000000000000000000000000000000000000000000000000000000082611c6191906128f5565b86611f5f565b935050505b9250929050565b611c7b61204f565b73ffffffffffffffffffffffffffffffffffffffff16611c99611276565b73ffffffffffffffffffffffffffffffffffffffff1614611cf857611cbc61204f565b6040517f118cdaa7000000000000000000000000000000000000000000000000000000008152600401611cef91906121e0565b60405180910390fd5b565b5f5f5f9054906101000a900473ffffffffffffffffffffffffffffffffffffffff169050815f5f6101000a81548173ffffffffffffffffffffffffffffffffffffffff021916908373ffffffffffffffffffffffffffffffffffffffff1602179055508173ffffffffffffffffffffffffffffffffffffffff168173ffffffffffffffffffffffffffffffffffffffff167f8be0079c531659141344cd1fd0a4f28419497f9722a3daafe3b4186f6b6457e060405160405180910390a35050565b611dc88383836001612056565b611e0957826040517f5274afe7000000000000000000000000000000000000000000000000000000008152600401611e0091906121e0565b60405180910390fd5b505050565b5f5f7f00000000000000000000000000000000000000000000000000000000000000007f000000000000000000000000000000000000000000000000000000000000000073ffffffffffffffffffffffffffffffffffffffff166370a08231306040518263ffffffff1660e01b8152600401611e8a91906121e0565b602060405180830381865afa158015611ea5573d5f5f3e3d5ffd5b505050506040513d601f19601f82011682018060405250810190611ec991906127cd565b611ed391906128f5565b905080835f0151611ee491906130e9565b915050919050565b611ef46120b8565b15611f2b576040517f3ee5aeb500000000000000000000000000000000000000000000000000000000815260040160405180910390fd5b565b5f7f9b779b17422d0df92223018b32b4d1fa46e071723d6817e2486d003becc55f005f1b905090565b5f819050919050565b5f5f8211611fa2576040517f08c379a0000000000000000000000000000000000000000000000000000000008152600401611f9990613166565b60405180910390fd5b5f8303611fb1575f9050611fd8565b600182600185611fc19190612fe6565b611fcb9190612963565b611fd591906130e9565b90505b92915050565b5f5f6323b872dd60e01b9050604051815f525f1960601c87166004525f1960601c86166024528460445260205f60645f5f8c5af1925060015f5114831661203c578383151615612030573d5f823e3d81fd5b5f883b113d1516831692505b806040525f606052505095945050505050565b5f33905090565b5f5f63a9059cbb60e01b9050604051815f525f1960601c86166004528460245260205f60445f5f8b5af1925060015f511483166120aa57838315161561209e573d5f823e3d81fd5b5f873b113d1516831692505b806040525050949350505050565b5f60026120cb6120c6611f2d565b611f56565b5f015414905090565b60405180608001604052805f81526020015f151581526020015f81526020015f81525090565b5f73ffffffffffffffffffffffffffffffffffffffff82169050919050565b5f819050919050565b5f61213c612137612132846120fa565b612119565b6120fa565b9050919050565b5f61214d82612122565b9050919050565b5f61215e82612143565b9050919050565b61216e81612154565b82525050565b5f6020820190506121875f830184612165565b92915050565b5f8115159050919050565b6121a18161218d565b82525050565b5f6020820190506121ba5f830184612198565b92915050565b5f6121ca826120fa565b9050919050565b6121da816121c0565b82525050565b5f6020820190506121f35f8301846121d1565b92915050565b5f61220382612143565b9050919050565b612213816121f9565b82525050565b5f60208201905061222c5f83018461220a565b92915050565b5f604051905090565b5f5ffd5b5f819050919050565b6122518161223f565b811461225b575f5ffd5b50565b5f8135905061226c81612248565b92915050565b5f5f604083850312156122885761228761223b565b5b5f6122958582860161225e565b92505060206122a68582860161225e565b9150509250929050565b6122b98161223f565b82525050565b5f6040820190506122d25f8301856122b0565b6122df60208301846122b0565b9392505050565b5f602082840312156122fb576122fa61223b565b5b5f6123088482850161225e565b91505092915050565b5f6020820190506123245f8301846122b0565b92915050565b612333816121c0565b811461233d575f5ffd5b50565b5f8135905061234e8161232a565b92915050565b5f602082840312156123695761236861223b565b5b5f61237684828501612340565b91505092915050565b5f61238982612143565b9050919050565b6123998161237f565b82525050565b5f6020820190506123b25f830184612390565b92915050565b6123c18161218d565b81146123cb575f5ffd5b50565b5f813590506123dc816123b8565b92915050565b5f602082840312156123f7576123f661223b565b5b5f612404848285016123ce565b91505092915050565b5f82825260208201905092915050565b7f6e6f7420696e697469616c697a656400000000000000000000000000000000005f82015250565b5f612451600f8361240d565b915061245c8261241d565b602082019050919050565b5f6020820190508181035f83015261247e81612445565b9050919050565b7f6d696e74207061757365640000000000000000000000000000000000000000005f82015250565b5f6124b9600b8361240d565b91506124c482612485565b602082019050919050565b5f6020820190508181035f8301526124e6816124ad565b9050919050565b7f7a65726f205553444300000000000000000000000000000000000000000000005f82015250565b5f61252160098361240d565b915061252c826124ed565b602082019050919050565b5f6020820190508181035f83015261254e81612515565b9050919050565b7f7a65726f206d696e7420616d6f756e74000000000000000000000000000000005f82015250565b5f61258960108361240d565b915061259482612555565b602082019050919050565b5f6020820190508181035f8301526125b68161257d565b9050919050565b7f696e73756666696369656e7420525741206f75740000000000000000000000005f82015250565b5f6125f160148361240d565b91506125fc826125bd565b602082019050919050565b5f6020820190508181035f83015261261e816125e5565b9050919050565b7f7a65726f205553444320726571756972656400000000000000000000000000005f82015250565b5f61265960128361240d565b915061266482612625565b602082019050919050565b5f6020820190508181035f8301526126868161264d565b9050919050565b7f555344432072657175697265642065786365656473206d6178000000000000005f82015250565b5f6126c160198361240d565b91506126cc8261268d565b602082019050919050565b5f6020820190508181035f8301526126ee816126b5565b9050919050565b5f6040820190506127085f8301856121d1565b61271560208301846122b0565b9392505050565b5f60608201905061272f5f8301866122b0565b61273c60208301856122b0565b61274960408301846122b0565b949350505050565b7f62616420697373756572000000000000000000000000000000000000000000005f82015250565b5f612785600a8361240d565b915061279082612751565b602082019050919050565b5f6020820190508181035f8301526127b281612779565b9050919050565b5f815190506127c781612248565b92915050565b5f602082840312156127e2576127e161223b565b5b5f6127ef848285016127b9565b91505092915050565b7f616c726561647920696e697469616c697a6564000000000000000000000000005f82015250565b5f61282c60138361240d565b9150612837826127f8565b602082019050919050565b5f6020820190508181035f83015261285981612820565b9050919050565b7f6e6f206f6666636861696e2072657365727665000000000000000000000000005f82015250565b5f61289460138361240d565b915061289f82612860565b602082019050919050565b5f6020820190508181035f8301526128c181612888565b9050919050565b7f4e487b71000000000000000000000000000000000000000000000000000000005f52601160045260245ffd5b5f6128ff8261223f565b915061290a8361223f565b92508282026129188161223f565b9150828204841483151761292f5761292e6128c8565b5b5092915050565b7f4e487b71000000000000000000000000000000000000000000000000000000005f52601260045260245ffd5b5f61296d8261223f565b91506129788361223f565b92508261298857612987612936565b5b828204905092915050565b7f7a65726f20696e697469616c20737570706c79000000000000000000000000005f82015250565b5f6129c760138361240d565b91506129d282612993565b602082019050919050565b5f6020820190508181035f8301526129f4816129bb565b9050919050565b7f626164206f7261636c65000000000000000000000000000000000000000000005f82015250565b5f612a2f600a8361240d565b9150612a3a826129fb565b602082019050919050565b5f6020820190508181035f830152612a5c81612a23565b9050919050565b7f72656465656d20706175736564000000000000000000000000000000000000005f82015250565b5f612a97600d8361240d565b9150612aa282612a63565b602082019050919050565b5f6020820190508181035f830152612ac481612a8b565b9050919050565b7f7a65726f205257410000000000000000000000000000000000000000000000005f82015250565b5f612aff60088361240d565b9150612b0a82612acb565b602082019050919050565b5f6020820190508181035f830152612b2c81612af3565b9050919050565b7f7a65726f205257412072657175697265640000000000000000000000000000005f82015250565b5f612b6760118361240d565b9150612b7282612b33565b602082019050919050565b5f6020820190508181035f830152612b9481612b5b565b9050919050565b7f5257412072657175697265642065786365656473206d617800000000000000005f82015250565b5f612bcf60188361240d565b9150612bda82612b9b565b602082019050919050565b5f6020820190508181035f830152612bfc81612bc3565b9050919050565b7f7a65726f2072656465656d20616d6f756e7400000000000000000000000000005f82015250565b5f612c3760128361240d565b9150612c4282612c03565b602082019050919050565b5f6020820190508181035f830152612c6481612c2b565b9050919050565b7f696e73756666696369656e742055534443206f757400000000000000000000005f82015250565b5f612c9f60158361240d565b9150612caa82612c6b565b602082019050919050565b5f6020820190508181035f830152612ccc81612c93565b9050919050565b7f696e73756666696369656e742055534443206c697175696469747900000000005f82015250565b5f612d07601b8361240d565b9150612d1282612cd3565b602082019050919050565b5f6020820190508181035f830152612d3481612cfb565b9050919050565b7f6261642064656c617900000000000000000000000000000000000000000000005f82015250565b5f612d6f60098361240d565b9150612d7a82612d3b565b602082019050919050565b5f6020820190508181035f830152612d9c81612d63565b9050919050565b5f5ffd5b5f601f19601f8301169050919050565b7f4e487b71000000000000000000000000000000000000000000000000000000005f52604160045260245ffd5b612ded82612da7565b810181811067ffffffffffffffff82111715612e0c57612e0b612db7565b5b80604052505050565b5f612e1e612232565b9050612e2a8282612de4565b919050565b5f81519050612e3d816123b8565b92915050565b5f819050919050565b612e5581612e43565b8114612e5f575f5ffd5b50565b5f81519050612e7081612e4c565b92915050565b5f60808284031215612e8b57612e8a612da3565b5b612e956080612e15565b90505f612ea4848285016127b9565b5f830152506020612eb784828501612e2f565b6020830152506040612ecb848285016127b9565b6040830152506060612edf84828501612e62565b60608301525092915050565b5f60808284031215612f0057612eff61223b565b5b5f612f0d84828501612e76565b91505092915050565b7f7265736572766520696e76616c696400000000000000000000000000000000005f82015250565b5f612f4a600f8361240d565b9150612f5582612f16565b602082019050919050565b5f6020820190508181035f830152612f7781612f3e565b9050919050565b7f6f7261636c65206e6f74207570646174656400000000000000000000000000005f82015250565b5f612fb260128361240d565b9150612fbd82612f7e565b602082019050919050565b5f6020820190508181035f830152612fdf81612fa6565b9050919050565b5f612ff08261223f565b9150612ffb8361223f565b9250828203905081811115613013576130126128c8565b5b92915050565b7f6f7261636c652064617461207374616c650000000000000000000000000000005f82015250565b5f61304d60118361240d565b915061305882613019565b602082019050919050565b5f6020820190508181035f83015261307a81613041565b9050919050565b7f626164204e4156000000000000000000000000000000000000000000000000005f82015250565b5f6130b560078361240d565b91506130c082613081565b602082019050919050565b5f6020820190508181035f8301526130e2816130a9565b9050919050565b5f6130f38261223f565b91506130fe8361223f565b9250828201905080821115613116576131156128c8565b5b92915050565b7f6469766973696f6e206279207a65726f000000000000000000000000000000005f82015250565b5f61315060108361240d565b915061315b8261311c565b602082019050919050565b5f6020820190508181035f83015261317d81613144565b905091905056fea264697066735822122074451e06d5b7a4a21f422a352bb992b59e3a7cee0d1210554ada6798f029789f64736f6c63430008220033",
					"opcodes": "PUSH2 0x160 PUSH1 0x40 MSTORE CALLVALUE DUP1 ISZERO PUSH2 0x10 JUMPI PUSH0 PUSH0 REVERT JUMPDEST POP PUSH1 0x40 MLOAD PUSH2 0x3F91 CODESIZE SUB DUP1 PUSH2 0x3F91 DUP4 CODECOPY DUP2 DUP2 ADD PUSH1 0x40 MSTORE DUP2 ADD SWAP1 PUSH2 0x32 SWAP2 SWAP1 PUSH2 0x71E JUMP JUMPDEST CALLER PUSH0 PUSH20 0xFFFFFFFFFFFFFFFFFFFFFFFFFFFFFFFFFFFFFFFF AND DUP2 PUSH20 0xFFFFFFFFFFFFFFFFFFFFFFFFFFFFFFFFFFFFFFFF AND SUB PUSH2 0xA3 JUMPI PUSH0 PUSH1 0x40 MLOAD PUSH32 0x1E4FBDF700000000000000000000000000000000000000000000000000000000 DUP2 MSTORE PUSH1 0x4 ADD PUSH2 0x9A SWAP2 SWAP1 PUSH2 0x7B6 JUMP JUMPDEST PUSH1 0x40 MLOAD DUP1 SWAP2 SUB SWAP1 REVERT JUMPDEST PUSH2 0xB2 DUP2 PUSH2 0x59A PUSH1 0x20 SHL PUSH1 0x20 SHR JUMP JUMPDEST POP PUSH1 0x1 PUSH2 0xD1 PUSH2 0xC6 PUSH2 0x65B PUSH1 0x20 SHL PUSH1 0x20 SHR JUMP JUMPDEST PUSH2 0x684 PUSH1 0x20 SHL PUSH1 0x20 SHR JUMP JUMPDEST PUSH0 ADD DUP2 SWAP1 SSTORE POP PUSH0 PUSH20 0xFFFFFFFFFFFFFFFFFFFFFFFFFFFFFFFFFFFFFFFF AND DUP7 PUSH20 0xFFFFFFFFFFFFFFFFFFFFFFFFFFFFFFFFFFFFFFFF AND SUB PUSH2 0x145 JUMPI PUSH1 0x40 MLOAD PUSH32 0x8C379A000000000000000000000000000000000000000000000000000000000 DUP2 MSTORE PUSH1 0x4 ADD PUSH2 0x13C SWAP1 PUSH2 0x829 JUMP JUMPDEST PUSH1 0x40 MLOAD DUP1 SWAP2 SUB SWAP1 REVERT JUMPDEST PUSH0 PUSH20 0xFFFFFFFFFFFFFFFFFFFFFFFFFFFFFFFFFFFFFFFF AND DUP6 PUSH20 0xFFFFFFFFFFFFFFFFFFFFFFFFFFFFFFFFFFFFFFFF AND SUB PUSH2 0x1B3 JUMPI PUSH1 0x40 MLOAD PUSH32 0x8C379A000000000000000000000000000000000000000000000000000000000 DUP2 MSTORE PUSH1 0x4 ADD PUSH2 0x1AA SWAP1 PUSH2 0x891 JUMP JUMPDEST PUSH1 0x40 MLOAD DUP1 SWAP2 SUB SWAP1 REVERT JUMPDEST PUSH0 PUSH20 0xFFFFFFFFFFFFFFFFFFFFFFFFFFFFFFFFFFFFFFFF AND DUP5 PUSH20 0xFFFFFFFFFFFFFFFFFFFFFFFFFFFFFFFFFFFFFFFF AND SUB PUSH2 0x221 JUMPI PUSH1 0x40 MLOAD PUSH32 0x8C379A000000000000000000000000000000000000000000000000000000000 DUP2 MSTORE PUSH1 0x4 ADD PUSH2 0x218 SWAP1 PUSH2 0x8F9 JUMP JUMPDEST PUSH1 0x40 MLOAD DUP1 SWAP2 SUB SWAP1 REVERT JUMPDEST PUSH0 PUSH20 0xFFFFFFFFFFFFFFFFFFFFFFFFFFFFFFFFFFFFFFFF AND DUP4 PUSH20 0xFFFFFFFFFFFFFFFFFFFFFFFFFFFFFFFFFFFFFFFF AND SUB PUSH2 0x28F JUMPI PUSH1 0x40 MLOAD PUSH32 0x8C379A000000000000000000000000000000000000000000000000000000000 DUP2 MSTORE PUSH1 0x4 ADD PUSH2 0x286 SWAP1 PUSH2 0x961 JUMP JUMPDEST PUSH1 0x40 MLOAD DUP1 SWAP2 SUB SWAP1 REVERT JUMPDEST PUSH0 DUP3 GT PUSH2 0x2D1 JUMPI PUSH1 0x40 MLOAD PUSH32 0x8C379A000000000000000000000000000000000000000000000000000000000 DUP2 MSTORE PUSH1 0x4 ADD PUSH2 0x2C8 SWAP1 PUSH2 0x9C9 JUMP JUMPDEST PUSH1 0x40 MLOAD DUP1 SWAP2 SUB SWAP1 REVERT JUMPDEST DUP6 PUSH1 0x1 PUSH0 PUSH2 0x100 EXP DUP2 SLOAD DUP2 PUSH20 0xFFFFFFFFFFFFFFFFFFFFFFFFFFFFFFFFFFFFFFFF MUL NOT AND SWAP1 DUP4 PUSH20 0xFFFFFFFFFFFFFFFFFFFFFFFFFFFFFFFFFFFFFFFF AND MUL OR SWAP1 SSTORE POP DUP5 PUSH20 0xFFFFFFFFFFFFFFFFFFFFFFFFFFFFFFFFFFFFFFFF AND PUSH1 0x80 DUP2 PUSH20 0xFFFFFFFFFFFFFFFFFFFFFFFFFFFFFFFFFFFFFFFF AND DUP2 MSTORE POP POP DUP4 PUSH20 0xFFFFFFFFFFFFFFFFFFFFFFFFFFFFFFFFFFFFFFFF AND PUSH1 0xA0 DUP2 PUSH20 0xFFFFFFFFFFFFFFFFFFFFFFFFFFFFFFFFFFFFFFFF AND DUP2 MSTORE POP POP DUP3 PUSH1 0x2 PUSH0 PUSH2 0x100 EXP DUP2 SLOAD DUP2 PUSH20 0xFFFFFFFFFFFFFFFFFFFFFFFFFFFFFFFFFFFFFFFF MUL NOT AND SWAP1 DUP4 PUSH20 0xFFFFFFFFFFFFFFFFFFFFFFFFFFFFFFFFFFFFFFFF AND MUL OR SWAP1 SSTORE POP DUP2 PUSH2 0x140 DUP2 DUP2 MSTORE POP POP DUP5 PUSH20 0xFFFFFFFFFFFFFFFFFFFFFFFFFFFFFFFFFFFFFFFF AND PUSH4 0x313CE567 PUSH1 0x40 MLOAD DUP2 PUSH4 0xFFFFFFFF AND PUSH1 0xE0 SHL DUP2 MSTORE PUSH1 0x4 ADD PUSH1 0x20 PUSH1 0x40 MLOAD DUP1 DUP4 SUB DUP2 DUP7 GAS STATICCALL ISZERO DUP1 ISZERO PUSH2 0x40B JUMPI RETURNDATASIZE PUSH0 PUSH0 RETURNDATACOPY RETURNDATASIZE PUSH0 REVERT JUMPDEST POP POP POP POP PUSH1 0x40 MLOAD RETURNDATASIZE PUSH1 0x1F NOT PUSH1 0x1F DUP3 ADD AND DUP3 ADD DUP1 PUSH1 0x40 MSTORE POP DUP2 ADD SWAP1 PUSH2 0x42F SWAP2 SWAP1 PUSH2 0xA1D JUMP JUMPDEST PUSH1 0xFF AND PUSH1 0xC0 DUP2 PUSH1 0xFF AND DUP2 MSTORE POP POP DUP4 PUSH20 0xFFFFFFFFFFFFFFFFFFFFFFFFFFFFFFFFFFFFFFFF AND PUSH4 0x313CE567 PUSH1 0x40 MLOAD DUP2 PUSH4 0xFFFFFFFF AND PUSH1 0xE0 SHL DUP2 MSTORE PUSH1 0x4 ADD PUSH1 0x20 PUSH1 0x40 MLOAD DUP1 DUP4 SUB DUP2 DUP7 GAS STATICCALL ISZERO DUP1 ISZERO PUSH2 0x485 JUMPI RETURNDATASIZE PUSH0 PUSH0 RETURNDATACOPY RETURNDATASIZE PUSH0 REVERT JUMPDEST POP POP POP POP PUSH1 0x40 MLOAD RETURNDATASIZE PUSH1 0x1F NOT PUSH1 0x1F DUP3 ADD AND DUP3 ADD DUP1 PUSH1 0x40 MSTORE POP DUP2 ADD SWAP1 PUSH2 0x4A9 SWAP2 SWAP1 PUSH2 0xA1D JUMP JUMPDEST PUSH1 0xFF AND PUSH1 0xE0 DUP2 PUSH1 0xFF AND DUP2 MSTORE POP POP PUSH1 0x12 PUSH1 0xC0 MLOAD PUSH1 0xFF AND GT ISZERO PUSH2 0x4FF JUMPI PUSH1 0x40 MLOAD PUSH32 0x8C379A000000000000000000000000000000000000000000000000000000000 DUP2 MSTORE PUSH1 0x4 ADD PUSH2 0x4F6 SWAP1 PUSH2 0xA92 JUMP JUMPDEST PUSH1 0x40 MLOAD DUP1 SWAP2 SUB SWAP1 REVERT JUMPDEST PUSH1 0x12 PUSH1 0xE0 MLOAD PUSH1 0xFF AND GT ISZERO PUSH2 0x548 JUMPI PUSH1 0x40 MLOAD PUSH32 0x8C379A000000000000000000000000000000000000000000000000000000000 DUP2 MSTORE PUSH1 0x4 ADD PUSH2 0x53F SWAP1 PUSH2 0xAFA JUMP JUMPDEST PUSH1 0x40 MLOAD DUP1 SWAP2 SUB SWAP1 REVERT JUMPDEST PUSH1 0xE0 MLOAD PUSH1 0xFF AND PUSH1 0xA PUSH2 0x55A SWAP2 SWAP1 PUSH2 0xC74 JUMP JUMPDEST PUSH2 0x100 DUP2 DUP2 MSTORE POP POP PUSH1 0xC0 MLOAD PUSH1 0x12 PUSH2 0x571 SWAP2 SWAP1 PUSH2 0xCBE JUMP JUMPDEST PUSH1 0xFF AND PUSH1 0xA PUSH2 0x580 SWAP2 SWAP1 PUSH2 0xC74 JUMP JUMPDEST PUSH2 0x120 DUP2 DUP2 MSTORE POP POP DUP1 PUSH1 0x3 DUP2 SWAP1 SSTORE POP POP POP POP POP POP POP PUSH2 0xCF2 JUMP JUMPDEST PUSH0 PUSH0 PUSH0 SWAP1 SLOAD SWAP1 PUSH2 0x100 EXP SWAP1 DIV PUSH20 0xFFFFFFFFFFFFFFFFFFFFFFFFFFFFFFFFFFFFFFFF AND SWAP1 POP DUP2 PUSH0 PUSH0 PUSH2 0x100 EXP DUP2 SLOAD DUP2 PUSH20 0xFFFFFFFFFFFFFFFFFFFFFFFFFFFFFFFFFFFFFFFF MUL NOT AND SWAP1 DUP4 PUSH20 0xFFFFFFFFFFFFFFFFFFFFFFFFFFFFFFFFFFFFFFFF AND MUL OR SWAP1 SSTORE POP DUP2 PUSH20 0xFFFFFFFFFFFFFFFFFFFFFFFFFFFFFFFFFFFFFFFF AND DUP2 PUSH20 0xFFFFFFFFFFFFFFFFFFFFFFFFFFFFFFFFFFFFFFFF AND PUSH32 0x8BE0079C531659141344CD1FD0A4F28419497F9722A3DAAFE3B4186F6B6457E0 PUSH1 0x40 MLOAD PUSH1 0x40 MLOAD DUP1 SWAP2 SUB SWAP1 LOG3 POP POP JUMP JUMPDEST PUSH0 PUSH32 0x9B779B17422D0DF92223018B32B4D1FA46E071723D6817E2486D003BECC55F00 PUSH0 SHL SWAP1 POP SWAP1 JUMP JUMPDEST PUSH0 DUP2 SWAP1 POP SWAP2 SWAP1 POP JUMP JUMPDEST PUSH0 PUSH0 REVERT JUMPDEST PUSH0 PUSH20 0xFFFFFFFFFFFFFFFFFFFFFFFFFFFFFFFFFFFFFFFF DUP3 AND SWAP1 POP SWAP2 SWAP1 POP JUMP JUMPDEST PUSH0 PUSH2 0x6BA DUP3 PUSH2 0x691 JUMP JUMPDEST SWAP1 POP SWAP2 SWAP1 POP JUMP JUMPDEST PUSH2 0x6CA DUP2 PUSH2 0x6B0 JUMP JUMPDEST DUP2 EQ PUSH2 0x6D4 JUMPI PUSH0 PUSH0 REVERT JUMPDEST POP JUMP JUMPDEST PUSH0 DUP2 MLOAD SWAP1 POP PUSH2 0x6E5 DUP2 PUSH2 0x6C1 JUMP JUMPDEST SWAP3 SWAP2 POP POP JUMP JUMPDEST PUSH0 DUP2 SWAP1 POP SWAP2 SWAP1 POP JUMP JUMPDEST PUSH2 0x6FD DUP2 PUSH2 0x6EB JUMP JUMPDEST DUP2 EQ PUSH2 0x707 JUMPI PUSH0 PUSH0 REVERT JUMPDEST POP JUMP JUMPDEST PUSH0 DUP2 MLOAD SWAP1 POP PUSH2 0x718 DUP2 PUSH2 0x6F4 JUMP JUMPDEST SWAP3 SWAP2 POP POP JUMP JUMPDEST PUSH0 PUSH0 PUSH0 PUSH0 PUSH0 PUSH0 PUSH1 0xC0 DUP8 DUP10 SUB SLT ISZERO PUSH2 0x738 JUMPI PUSH2 0x737 PUSH2 0x68D JUMP JUMPDEST JUMPDEST PUSH0 PUSH2 0x745 DUP10 DUP3 DUP11 ADD PUSH2 0x6D7 JUMP JUMPDEST SWAP7 POP POP PUSH1 0x20 PUSH2 0x756 DUP10 DUP3 DUP11 ADD PUSH2 0x6D7 JUMP JUMPDEST SWAP6 POP POP PUSH1 0x40 PUSH2 0x767 DUP10 DUP3 DUP11 ADD PUSH2 0x6D7 JUMP JUMPDEST SWAP5 POP POP PUSH1 0x60 PUSH2 0x778 DUP10 DUP3 DUP11 ADD PUSH2 0x6D7 JUMP JUMPDEST SWAP4 POP POP PUSH1 0x80 PUSH2 0x789 DUP10 DUP3 DUP11 ADD PUSH2 0x70A JUMP JUMPDEST SWAP3 POP POP PUSH1 0xA0 PUSH2 0x79A DUP10 DUP3 DUP11 ADD PUSH2 0x70A JUMP JUMPDEST SWAP2 POP POP SWAP3 SWAP6 POP SWAP3 SWAP6 POP SWAP3 SWAP6 JUMP JUMPDEST PUSH2 0x7B0 DUP2 PUSH2 0x6B0 JUMP JUMPDEST DUP3 MSTORE POP POP JUMP JUMPDEST PUSH0 PUSH1 0x20 DUP3 ADD SWAP1 POP PUSH2 0x7C9 PUSH0 DUP4 ADD DUP5 PUSH2 0x7A7 JUMP JUMPDEST SWAP3 SWAP2 POP POP JUMP JUMPDEST PUSH0 DUP3 DUP3 MSTORE PUSH1 0x20 DUP3 ADD SWAP1 POP SWAP3 SWAP2 POP POP JUMP JUMPDEST PUSH32 0x626164206F7261636C6500000000000000000000000000000000000000000000 PUSH0 DUP3 ADD MSTORE POP JUMP JUMPDEST PUSH0 PUSH2 0x813 PUSH1 0xA DUP4 PUSH2 0x7CF JUMP JUMPDEST SWAP2 POP PUSH2 0x81E DUP3 PUSH2 0x7DF JUMP JUMPDEST PUSH1 0x20 DUP3 ADD SWAP1 POP SWAP2 SWAP1 POP JUMP JUMPDEST PUSH0 PUSH1 0x20 DUP3 ADD SWAP1 POP DUP2 DUP2 SUB PUSH0 DUP4 ADD MSTORE PUSH2 0x840 DUP2 PUSH2 0x807 JUMP JUMPDEST SWAP1 POP SWAP2 SWAP1 POP JUMP JUMPDEST PUSH32 0x6261642075736463000000000000000000000000000000000000000000000000 PUSH0 DUP3 ADD MSTORE POP JUMP JUMPDEST PUSH0 PUSH2 0x87B PUSH1 0x8 DUP4 PUSH2 0x7CF JUMP JUMPDEST SWAP2 POP PUSH2 0x886 DUP3 PUSH2 0x847 JUMP JUMPDEST PUSH1 0x20 DUP3 ADD SWAP1 POP SWAP2 SWAP1 POP JUMP JUMPDEST PUSH0 PUSH1 0x20 DUP3 ADD SWAP1 POP DUP2 DUP2 SUB PUSH0 DUP4 ADD MSTORE PUSH2 0x8A8 DUP2 PUSH2 0x86F JUMP JUMPDEST SWAP1 POP SWAP2 SWAP1 POP JUMP JUMPDEST PUSH32 0x6261642072776120746F6B656E00000000000000000000000000000000000000 PUSH0 DUP3 ADD MSTORE POP JUMP JUMPDEST PUSH0 PUSH2 0x8E3 PUSH1 0xD DUP4 PUSH2 0x7CF JUMP JUMPDEST SWAP2 POP PUSH2 0x8EE DUP3 PUSH2 0x8AF JUMP JUMPDEST PUSH1 0x20 DUP3 ADD SWAP1 POP SWAP2 SWAP1 POP JUMP JUMPDEST PUSH0 PUSH1 0x20 DUP3 ADD SWAP1 POP DUP2 DUP2 SUB PUSH0 DUP4 ADD MSTORE PUSH2 0x910 DUP2 PUSH2 0x8D7 JUMP JUMPDEST SWAP1 POP SWAP2 SWAP1 POP JUMP JUMPDEST PUSH32 0x6261642069737375657200000000000000000000000000000000000000000000 PUSH0 DUP3 ADD MSTORE POP JUMP JUMPDEST PUSH0 PUSH2 0x94B PUSH1 0xA DUP4 PUSH2 0x7CF JUMP JUMPDEST SWAP2 POP PUSH2 0x956 DUP3 PUSH2 0x917 JUMP JUMPDEST PUSH1 0x20 DUP3 ADD SWAP1 POP SWAP2 SWAP1 POP JUMP JUMPDEST PUSH0 PUSH1 0x20 DUP3 ADD SWAP1 POP DUP2 DUP2 SUB PUSH0 DUP4 ADD MSTORE PUSH2 0x978 DUP2 PUSH2 0x93F JUMP JUMPDEST SWAP1 POP SWAP2 SWAP1 POP JUMP JUMPDEST PUSH32 0x62616420696E697469616C204E41560000000000000000000000000000000000 PUSH0 DUP3 ADD MSTORE POP JUMP JUMPDEST PUSH0 PUSH2 0x9B3 PUSH1 0xF DUP4 PUSH2 0x7CF JUMP JUMPDEST SWAP2 POP PUSH2 0x9BE DUP3 PUSH2 0x97F JUMP JUMPDEST PUSH1 0x20 DUP3 ADD SWAP1 POP SWAP2 SWAP1 POP JUMP JUMPDEST PUSH0 PUSH1 0x20 DUP3 ADD SWAP1 POP DUP2 DUP2 SUB PUSH0 DUP4 ADD MSTORE PUSH2 0x9E0 DUP2 PUSH2 0x9A7 JUMP JUMPDEST SWAP1 POP SWAP2 SWAP1 POP JUMP JUMPDEST PUSH0 PUSH1 0xFF DUP3 AND SWAP1 POP SWAP2 SWAP1 POP JUMP JUMPDEST PUSH2 0x9FC DUP2 PUSH2 0x9E7 JUMP JUMPDEST DUP2 EQ PUSH2 0xA06 JUMPI PUSH0 PUSH0 REVERT JUMPDEST POP JUMP JUMPDEST PUSH0 DUP2 MLOAD SWAP1 POP PUSH2 0xA17 DUP2 PUSH2 0x9F3 JUMP JUMPDEST SWAP3 SWAP2 POP POP JUMP JUMPDEST PUSH0 PUSH1 0x20 DUP3 DUP5 SUB SLT ISZERO PUSH2 0xA32 JUMPI PUSH2 0xA31 PUSH2 0x68D JUMP JUMPDEST JUMPDEST PUSH0 PUSH2 0xA3F DUP5 DUP3 DUP6 ADD PUSH2 0xA09 JUMP JUMPDEST SWAP2 POP POP SWAP3 SWAP2 POP POP JUMP JUMPDEST PUSH32 0x5553444320646563696D616C7320746F6F206869676800000000000000000000 PUSH0 DUP3 ADD MSTORE POP JUMP JUMPDEST PUSH0 PUSH2 0xA7C PUSH1 0x16 DUP4 PUSH2 0x7CF JUMP JUMPDEST SWAP2 POP PUSH2 0xA87 DUP3 PUSH2 0xA48 JUMP JUMPDEST PUSH1 0x20 DUP3 ADD SWAP1 POP SWAP2 SWAP1 POP JUMP JUMPDEST PUSH0 PUSH1 0x20 DUP3 ADD SWAP1 POP DUP2 DUP2 SUB PUSH0 DUP4 ADD MSTORE PUSH2 0xAA9 DUP2 PUSH2 0xA70 JUMP JUMPDEST SWAP1 POP SWAP2 SWAP1 POP JUMP JUMPDEST PUSH32 0x52574120646563696D616C7320746F6F20686967680000000000000000000000 PUSH0 DUP3 ADD MSTORE POP JUMP JUMPDEST PUSH0 PUSH2 0xAE4 PUSH1 0x15 DUP4 PUSH2 0x7CF JUMP JUMPDEST SWAP2 POP PUSH2 0xAEF DUP3 PUSH2 0xAB0 JUMP JUMPDEST PUSH1 0x20 DUP3 ADD SWAP1 POP SWAP2 SWAP1 POP JUMP JUMPDEST PUSH0 PUSH1 0x20 DUP3 ADD SWAP1 POP DUP2 DUP2 SUB PUSH0 DUP4 ADD MSTORE PUSH2 0xB11 DUP2 PUSH2 0xAD8 JUMP JUMPDEST SWAP1 POP SWAP2 SWAP1 POP JUMP JUMPDEST PUSH32 0x4E487B7100000000000000000000000000000000000000000000000000000000 PUSH0 MSTORE PUSH1 0x11 PUSH1 0x4 MSTORE PUSH1 0x24 PUSH0 REVERT JUMPDEST PUSH0 DUP2 PUSH1 0x1 SHR SWAP1 POP SWAP2 SWAP1 POP JUMP JUMPDEST PUSH0 PUSH0 DUP3 SWAP2 POP DUP4 SWAP1 POP JUMPDEST PUSH1 0x1 DUP6 GT ISZERO PUSH2 0xB9A JUMPI DUP1 DUP7 DIV DUP2 GT ISZERO PUSH2 0xB76 JUMPI PUSH2 0xB75 PUSH2 0xB18 JUMP JUMPDEST JUMPDEST PUSH1 0x1 DUP6 AND ISZERO PUSH2 0xB85 JUMPI DUP1 DUP3 MUL SWAP2 POP JUMPDEST DUP1 DUP2 MUL SWAP1 POP PUSH2 0xB93 DUP6 PUSH2 0xB45 JUMP JUMPDEST SWAP5 POP PUSH2 0xB5A JUMP JUMPDEST SWAP5 POP SWAP5 SWAP3 POP POP POP JUMP JUMPDEST PUSH0 DUP3 PUSH2 0xBB2 JUMPI PUSH1 0x1 SWAP1 POP PUSH2 0xC6D JUMP JUMPDEST DUP2 PUSH2 0xBBF JUMPI PUSH0 SWAP1 POP PUSH2 0xC6D JUMP JUMPDEST DUP2 PUSH1 0x1 DUP2 EQ PUSH2 0xBD5 JUMPI PUSH1 0x2 DUP2 EQ PUSH2 0xBDF JUMPI PUSH2 0xC0E JUMP JUMPDEST PUSH1 0x1 SWAP2 POP POP PUSH2 0xC6D JUMP JUMPDEST PUSH1 0xFF DUP5 GT ISZERO PUSH2 0xBF1 JUMPI PUSH2 0xBF0 PUSH2 0xB18 JUMP JUMPDEST JUMPDEST DUP4 PUSH1 0x2 EXP SWAP2 POP DUP5 DUP3 GT ISZERO PUSH2 0xC08 JUMPI PUSH2 0xC07 PUSH2 0xB18 JUMP JUMPDEST JUMPDEST POP PUSH2 0xC6D JUMP JUMPDEST POP PUSH1 0x20 DUP4 LT PUSH2 0x133 DUP4 LT AND PUSH1 0x4E DUP5 LT PUSH1 0xB DUP5 LT AND OR ISZERO PUSH2 0xC43 JUMPI DUP3 DUP3 EXP SWAP1 POP DUP4 DUP2 GT ISZERO PUSH2 0xC3E JUMPI PUSH2 0xC3D PUSH2 0xB18 JUMP JUMPDEST JUMPDEST PUSH2 0xC6D JUMP JUMPDEST PUSH2 0xC50 DUP5 DUP5 DUP5 PUSH1 0x1 PUSH2 0xB51 JUMP JUMPDEST SWAP3 POP SWAP1 POP DUP2 DUP5 DIV DUP2 GT ISZERO PUSH2 0xC67 JUMPI PUSH2 0xC66 PUSH2 0xB18 JUMP JUMPDEST JUMPDEST DUP2 DUP2 MUL SWAP1 POP JUMPDEST SWAP4 SWAP3 POP POP POP JUMP JUMPDEST PUSH0 PUSH2 0xC7E DUP3 PUSH2 0x6EB JUMP JUMPDEST SWAP2 POP PUSH2 0xC89 DUP4 PUSH2 0x6EB JUMP JUMPDEST SWAP3 POP PUSH2 0xCB6 PUSH32 0xFFFFFFFFFFFFFFFFFFFFFFFFFFFFFFFFFFFFFFFFFFFFFFFFFFFFFFFFFFFFFFFF DUP5 DUP5 PUSH2 0xBA3 JUMP JUMPDEST SWAP1 POP SWAP3 SWAP2 POP POP JUMP JUMPDEST PUSH0 PUSH2 0xCC8 DUP3 PUSH2 0x9E7 JUMP JUMPDEST SWAP2 POP PUSH2 0xCD3 DUP4 PUSH2 0x9E7 JUMP JUMPDEST SWAP3 POP DUP3 DUP3 SUB SWAP1 POP PUSH1 0xFF DUP2 GT ISZERO PUSH2 0xCEC JUMPI PUSH2 0xCEB PUSH2 0xB18 JUMP JUMPDEST JUMPDEST SWAP3 SWAP2 POP POP JUMP JUMPDEST PUSH1 0x80 MLOAD PUSH1 0xA0 MLOAD PUSH1 0xC0 MLOAD PUSH1 0xE0 MLOAD PUSH2 0x100 MLOAD PUSH2 0x120 MLOAD PUSH2 0x140 MLOAD PUSH2 0x31BA PUSH2 0xDD7 PUSH0 CODECOPY PUSH0 DUP2 DUP2 PUSH2 0xA19 ADD MSTORE DUP2 DUP2 PUSH2 0xB1A ADD MSTORE DUP2 DUP2 PUSH2 0xCD9 ADD MSTORE PUSH2 0x1934 ADD MSTORE PUSH0 DUP2 DUP2 PUSH2 0x19EF ADD MSTORE DUP2 DUP2 PUSH2 0x1AA5 ADD MSTORE DUP2 DUP2 PUSH2 0x1BC4 ADD MSTORE DUP2 DUP2 PUSH2 0x1C06 ADD MSTORE PUSH2 0x1E12 ADD MSTORE PUSH0 DUP2 DUP2 PUSH2 0xB3B ADD MSTORE DUP2 DUP2 PUSH2 0x196A ADD MSTORE DUP2 DUP2 PUSH2 0x1A1E ADD MSTORE DUP2 DUP2 PUSH2 0x1A79 ADD MSTORE DUP2 DUP2 PUSH2 0x1B8B ADD MSTORE PUSH2 0x1C37 ADD MSTORE PUSH0 POP POP PUSH0 POP POP PUSH0 DUP2 DUP2 PUSH2 0x47B ADD MSTORE DUP2 DUP2 PUSH2 0x766 ADD MSTORE DUP2 DUP2 PUSH2 0x983 ADD MSTORE DUP2 DUP2 PUSH2 0xBD3 ADD MSTORE DUP2 DUP2 PUSH2 0x110A ADD MSTORE PUSH2 0x189E ADD MSTORE PUSH0 DUP2 DUP2 PUSH2 0x4D7 ADD MSTORE DUP2 DUP2 PUSH2 0x71F ADD MSTORE DUP2 DUP2 PUSH2 0x1031 ADD MSTORE DUP2 DUP2 PUSH2 0x1197 ADD MSTORE DUP2 DUP2 PUSH2 0x14BF ADD MSTORE PUSH2 0x1E33 ADD MSTORE PUSH2 0x31BA PUSH0 RETURN INVALID PUSH1 0x80 PUSH1 0x40 MSTORE CALLVALUE DUP1 ISZERO PUSH2 0xF JUMPI PUSH0 PUSH0 REVERT JUMPDEST POP PUSH1 0x4 CALLDATASIZE LT PUSH2 0x171 JUMPI PUSH0 CALLDATALOAD PUSH1 0xE0 SHR DUP1 PUSH4 0x7CBC2373 GT PUSH2 0xDC JUMPI DUP1 PUSH4 0xB235D468 GT PUSH2 0x95 JUMPI DUP1 PUSH4 0xC40D111C GT PUSH2 0x6F JUMPI DUP1 PUSH4 0xC40D111C EQ PUSH2 0x3F4 JUMPI DUP1 PUSH4 0xCCB99C26 EQ PUSH2 0x425 JUMPI DUP1 PUSH4 0xCD3B691C EQ PUSH2 0x441 JUMPI DUP1 PUSH4 0xF2FDE38B EQ PUSH2 0x45D JUMPI PUSH2 0x171 JUMP JUMPDEST DUP1 PUSH4 0xB235D468 EQ PUSH2 0x39C JUMPI DUP1 PUSH4 0xB6935501 EQ PUSH2 0x3BA JUMPI DUP1 PUSH4 0xBC34E6DA EQ PUSH2 0x3D6 JUMPI PUSH2 0x171 JUMP JUMPDEST DUP1 PUSH4 0x7CBC2373 EQ PUSH2 0x2D7 JUMPI DUP1 PUSH4 0x7DC0D1D0 EQ PUSH2 0x308 JUMPI DUP1 PUSH4 0x7E4831D3 EQ PUSH2 0x326 JUMPI DUP1 PUSH4 0x8DA5CB5B EQ PUSH2 0x344 JUMPI DUP1 PUSH4 0x8E827CB5 EQ PUSH2 0x362 JUMPI DUP1 PUSH4 0xAA2F892D EQ PUSH2 0x380 JUMPI PUSH2 0x171 JUMP JUMPDEST DUP1 PUSH4 0x52F1EDCC GT PUSH2 0x12E JUMPI DUP1 PUSH4 0x52F1EDCC EQ PUSH2 0x24F JUMPI DUP1 PUSH4 0x55CC4E57 EQ PUSH2 0x26D JUMPI DUP1 PUSH4 0x675A5C0B EQ PUSH2 0x289 JUMPI DUP1 PUSH4 0x715018A6 EQ PUSH2 0x2A7 JUMPI DUP1 PUSH4 0x72B823C3 EQ PUSH2 0x2B1 JUMPI DUP1 PUSH4 0x7ADBF973 EQ PUSH2 0x2BB JUMPI PUSH2 0x171 JUMP JUMPDEST DUP1 PUSH4 0xC5BF351 EQ PUSH2 0x175 JUMPI DUP1 PUSH4 0x158EF93E EQ PUSH2 0x193 JUMPI DUP1 PUSH4 0x1D143848 EQ PUSH2 0x1B1 JUMPI DUP1 PUSH4 0x3E413BEE EQ PUSH2 0x1CF JUMPI DUP1 PUSH4 0x47082DAC EQ PUSH2 0x1ED JUMPI DUP1 PUSH4 0x4CDAD506 EQ PUSH2 0x21E JUMPI JUMPDEST PUSH0 PUSH0 REVERT JUMPDEST PUSH2 0x17D PUSH2 0x479 JUMP JUMPDEST PUSH1 0x40 MLOAD PUSH2 0x18A SWAP2 SWAP1 PUSH2 0x2174 JUMP JUMPDEST PUSH1 0x40 MLOAD DUP1 SWAP2 SUB SWAP1 RETURN JUMPDEST PUSH2 0x19B PUSH2 0x49D JUMP JUMPDEST PUSH1 0x40 MLOAD PUSH2 0x1A8 SWAP2 SWAP1 PUSH2 0x21A7 JUMP JUMPDEST PUSH1 0x40 MLOAD DUP1 SWAP2 SUB SWAP1 RETURN JUMPDEST PUSH2 0x1B9 PUSH2 0x4B0 JUMP JUMPDEST PUSH1 0x40 MLOAD PUSH2 0x1C6 SWAP2 SWAP1 PUSH2 0x21E0 JUMP JUMPDEST PUSH1 0x40 MLOAD DUP1 SWAP2 SUB SWAP1 RETURN JUMPDEST PUSH2 0x1D7 PUSH2 0x4D5 JUMP JUMPDEST PUSH1 0x40 MLOAD PUSH2 0x1E4 SWAP2 SWAP1 PUSH2 0x2219 JUMP JUMPDEST PUSH1 0x40 MLOAD DUP1 SWAP2 SUB SWAP1 RETURN JUMPDEST PUSH2 0x207 PUSH1 0x4 DUP1 CALLDATASIZE SUB DUP2 ADD SWAP1 PUSH2 0x202 SWAP2 SWAP1 PUSH2 0x2272 JUMP JUMPDEST PUSH2 0x4F9 JUMP JUMPDEST PUSH1 0x40 MLOAD PUSH2 0x215 SWAP3 SWAP2 SWAP1 PUSH2 0x22BF JUMP JUMPDEST PUSH1 0x40 MLOAD DUP1 SWAP2 SUB SWAP1 RETURN JUMPDEST PUSH2 0x238 PUSH1 0x4 DUP1 CALLDATASIZE SUB DUP2 ADD SWAP1 PUSH2 0x233 SWAP2 SWAP1 PUSH2 0x22E6 JUMP JUMPDEST PUSH2 0x84F JUMP JUMPDEST PUSH1 0x40 MLOAD PUSH2 0x246 SWAP3 SWAP2 SWAP1 PUSH2 0x22BF JUMP JUMPDEST PUSH1 0x40 MLOAD DUP1 SWAP2 SUB SWAP1 RETURN JUMPDEST PUSH2 0x257 PUSH2 0x87D JUMP JUMPDEST PUSH1 0x40 MLOAD PUSH2 0x264 SWAP2 SWAP1 PUSH2 0x2311 JUMP JUMPDEST PUSH1 0x40 MLOAD DUP1 SWAP2 SUB SWAP1 RETURN JUMPDEST PUSH2 0x287 PUSH1 0x4 DUP1 CALLDATASIZE SUB DUP2 ADD SWAP1 PUSH2 0x282 SWAP2 SWAP1 PUSH2 0x2354 JUMP JUMPDEST PUSH2 0x883 JUMP JUMPDEST STOP JUMPDEST PUSH2 0x291 PUSH2 0x97F JUMP JUMPDEST PUSH1 0x40 MLOAD PUSH2 0x29E SWAP2 SWAP1 PUSH2 0x2311 JUMP JUMPDEST PUSH1 0x40 MLOAD DUP1 SWAP2 SUB SWAP1 RETURN JUMPDEST PUSH2 0x2AF PUSH2 0xA5C JUMP JUMPDEST STOP JUMPDEST PUSH2 0x2B9 PUSH2 0xA6F JUMP JUMPDEST STOP JUMPDEST PUSH2 0x2D5 PUSH1 0x4 DUP1 CALLDATASIZE SUB DUP2 ADD SWAP1 PUSH2 0x2D0 SWAP2 SWAP1 PUSH2 0x2354 JUMP JUMPDEST PUSH2 0xD14 JUMP JUMPDEST STOP JUMPDEST PUSH2 0x2F1 PUSH1 0x4 DUP1 CALLDATASIZE SUB DUP2 ADD SWAP1 PUSH2 0x2EC SWAP2 SWAP1 PUSH2 0x2272 JUMP JUMPDEST PUSH2 0xE10 JUMP JUMPDEST PUSH1 0x40 MLOAD PUSH2 0x2FF SWAP3 SWAP2 SWAP1 PUSH2 0x22BF JUMP JUMPDEST PUSH1 0x40 MLOAD DUP1 SWAP2 SUB SWAP1 RETURN JUMPDEST PUSH2 0x310 PUSH2 0x123E JUMP JUMPDEST PUSH1 0x40 MLOAD PUSH2 0x31D SWAP2 SWAP1 PUSH2 0x239F JUMP JUMPDEST PUSH1 0x40 MLOAD DUP1 SWAP2 SUB SWAP1 RETURN JUMPDEST PUSH2 0x32E PUSH2 0x1263 JUMP JUMPDEST PUSH1 0x40 MLOAD PUSH2 0x33B SWAP2 SWAP1 PUSH2 0x21A7 JUMP JUMPDEST PUSH1 0x40 MLOAD DUP1 SWAP2 SUB SWAP1 RETURN JUMPDEST PUSH2 0x34C PUSH2 0x1276 JUMP JUMPDEST PUSH1 0x40 MLOAD PUSH2 0x359 SWAP2 SWAP1 PUSH2 0x21E0 JUMP JUMPDEST PUSH1 0x40 MLOAD DUP1 SWAP2 SUB SWAP1 RETURN JUMPDEST PUSH2 0x36A PUSH2 0x129D JUMP JUMPDEST PUSH1 0x40 MLOAD PUSH2 0x377 SWAP2 SWAP1 PUSH2 0x2311 JUMP JUMPDEST PUSH1 0x40 MLOAD DUP1 SWAP2 SUB SWAP1 RETURN JUMPDEST PUSH2 0x39A PUSH1 0x4 DUP1 CALLDATASIZE SUB DUP2 ADD SWAP1 PUSH2 0x395 SWAP2 SWAP1 PUSH2 0x22E6 JUMP JUMPDEST PUSH2 0x12B8 JUMP JUMPDEST STOP JUMPDEST PUSH2 0x3A4 PUSH2 0x144D JUMP JUMPDEST PUSH1 0x40 MLOAD PUSH2 0x3B1 SWAP2 SWAP1 PUSH2 0x21A7 JUMP JUMPDEST PUSH1 0x40 MLOAD DUP1 SWAP2 SUB SWAP1 RETURN JUMPDEST PUSH2 0x3D4 PUSH1 0x4 DUP1 CALLDATASIZE SUB DUP2 ADD SWAP1 PUSH2 0x3CF SWAP2 SWAP1 PUSH2 0x23E2 JUMP JUMPDEST PUSH2 0x1460 JUMP JUMPDEST STOP JUMPDEST PUSH2 0x3DE PUSH2 0x14BC JUMP JUMPDEST PUSH1 0x40 MLOAD PUSH2 0x3EB SWAP2 SWAP1 PUSH2 0x2311 JUMP JUMPDEST PUSH1 0x40 MLOAD DUP1 SWAP2 SUB SWAP1 RETURN JUMPDEST PUSH2 0x40E PUSH1 0x4 DUP1 CALLDATASIZE SUB DUP2 ADD SWAP1 PUSH2 0x409 SWAP2 SWAP1 PUSH2 0x22E6 JUMP JUMPDEST PUSH2 0x155A JUMP JUMPDEST PUSH1 0x40 MLOAD PUSH2 0x41C SWAP3 SWAP2 SWAP1 PUSH2 0x22BF JUMP JUMPDEST PUSH1 0x40 MLOAD DUP1 SWAP2 SUB SWAP1 RETURN JUMPDEST PUSH2 0x43F PUSH1 0x4 DUP1 CALLDATASIZE SUB DUP2 ADD SWAP1 PUSH2 0x43A SWAP2 SWAP1 PUSH2 0x23E2 JUMP JUMPDEST PUSH2 0x1588 JUMP JUMPDEST STOP JUMPDEST PUSH2 0x45B PUSH1 0x4 DUP1 CALLDATASIZE SUB DUP2 ADD SWAP1 PUSH2 0x456 SWAP2 SWAP1 PUSH2 0x22E6 JUMP JUMPDEST PUSH2 0x15E4 JUMP JUMPDEST STOP JUMPDEST PUSH2 0x477 PUSH1 0x4 DUP1 CALLDATASIZE SUB DUP2 ADD SWAP1 PUSH2 0x472 SWAP2 SWAP1 PUSH2 0x2354 JUMP JUMPDEST PUSH2 0x166F JUMP JUMPDEST STOP JUMPDEST PUSH32 0x0 DUP2 JUMP JUMPDEST PUSH1 0x2 PUSH1 0x14 SWAP1 SLOAD SWAP1 PUSH2 0x100 EXP SWAP1 DIV PUSH1 0xFF AND DUP2 JUMP JUMPDEST PUSH1 0x2 PUSH0 SWAP1 SLOAD SWAP1 PUSH2 0x100 EXP SWAP1 DIV PUSH20 0xFFFFFFFFFFFFFFFFFFFFFFFFFFFFFFFFFFFFFFFF AND DUP2 JUMP JUMPDEST PUSH32 0x0 DUP2 JUMP JUMPDEST PUSH0 PUSH0 PUSH2 0x503 PUSH2 0x16F3 JUMP JUMPDEST PUSH1 0x2 PUSH1 0x14 SWAP1 SLOAD SWAP1 PUSH2 0x100 EXP SWAP1 DIV PUSH1 0xFF AND PUSH2 0x552 JUMPI PUSH1 0x40 MLOAD PUSH32 0x8C379A000000000000000000000000000000000000000000000000000000000 DUP2 MSTORE PUSH1 0x4 ADD PUSH2 0x549 SWAP1 PUSH2 0x2467 JUMP JUMPDEST PUSH1 0x40 MLOAD DUP1 SWAP2 SUB SWAP1 REVERT JUMPDEST PUSH1 0x2 PUSH1 0x15 SWAP1 SLOAD SWAP1 PUSH2 0x100 EXP SWAP1 DIV PUSH1 0xFF AND ISZERO PUSH2 0x5A2 JUMPI PUSH1 0x40 MLOAD PUSH32 0x8C379A000000000000000000000000000000000000000000000000000000000 DUP2 MSTORE PUSH1 0x4 ADD PUSH2 0x599 SWAP1 PUSH2 0x24CF JUMP JUMPDEST PUSH1 0x40 MLOAD DUP1 SWAP2 SUB SWAP1 REVERT JUMPDEST PUSH0 DUP5 GT PUSH2 0x5E4 JUMPI PUSH1 0x40 MLOAD PUSH32 0x8C379A000000000000000000000000000000000000000000000000000000000 DUP2 MSTORE PUSH1 0x4 ADD PUSH2 0x5DB SWAP1 PUSH2 0x2537 JUMP JUMPDEST PUSH1 0x40 MLOAD DUP1 SWAP2 SUB SWAP1 REVERT JUMPDEST PUSH0 PUSH2 0x5ED PUSH2 0x1715 JUMP JUMPDEST SWAP1 POP PUSH0 PUSH2 0x5F9 DUP3 PUSH2 0x189A JUMP JUMPDEST SWAP1 POP PUSH2 0x605 DUP7 DUP3 PUSH2 0x19A8 JUMP JUMPDEST DUP1 SWAP5 POP DUP2 SWAP6 POP POP POP PUSH0 DUP5 GT PUSH2 0x64F JUMPI PUSH1 0x40 MLOAD PUSH32 0x8C379A000000000000000000000000000000000000000000000000000000000 DUP2 MSTORE PUSH1 0x4 ADD PUSH2 0x646 SWAP1 PUSH2 0x259F JUMP JUMPDEST PUSH1 0x40 MLOAD DUP1 SWAP2 SUB SWAP1 REVERT JUMPDEST DUP5 DUP5 LT ISZERO PUSH2 0x692 JUMPI PUSH1 0x40 MLOAD PUSH32 0x8C379A000000000000000000000000000000000000000000000000000000000 DUP2 MSTORE PUSH1 0x4 ADD PUSH2 0x689 SWAP1 PUSH2 0x2607 JUMP JUMPDEST PUSH1 0x40 MLOAD DUP1 SWAP2 SUB SWAP1 REVERT JUMPDEST PUSH0 DUP4 GT PUSH2 0x6D4 JUMPI PUSH1 0x40 MLOAD PUSH32 0x8C379A000000000000000000000000000000000000000000000000000000000 DUP2 MSTORE PUSH1 0x4 ADD PUSH2 0x6CB SWAP1 PUSH2 0x266F JUMP JUMPDEST PUSH1 0x40 MLOAD DUP1 SWAP2 SUB SWAP1 REVERT JUMPDEST DUP6 DUP4 GT ISZERO PUSH2 0x717 JUMPI PUSH1 0x40 MLOAD PUSH32 0x8C379A000000000000000000000000000000000000000000000000000000000 DUP2 MSTORE PUSH1 0x4 ADD PUSH2 0x70E SWAP1 PUSH2 0x26D7 JUMP JUMPDEST PUSH1 0x40 MLOAD DUP1 SWAP2 SUB SWAP1 REVERT JUMPDEST PUSH2 0x764 CALLER ADDRESS DUP6 PUSH32 0x0 PUSH20 0xFFFFFFFFFFFFFFFFFFFFFFFFFFFFFFFFFFFFFFFF AND PUSH2 0x1AD5 SWAP1 SWAP4 SWAP3 SWAP2 SWAP1 PUSH4 0xFFFFFFFF AND JUMP JUMPDEST PUSH32 0x0 PUSH20 0xFFFFFFFFFFFFFFFFFFFFFFFFFFFFFFFFFFFFFFFF AND PUSH4 0x40C10F19 CALLER DUP7 PUSH1 0x40 MLOAD DUP4 PUSH4 0xFFFFFFFF AND PUSH1 0xE0 SHL DUP2 MSTORE PUSH1 0x4 ADD PUSH2 0x7BF SWAP3 SWAP2 SWAP1 PUSH2 0x26F5 JUMP JUMPDEST PUSH0 PUSH1 0x40 MLOAD DUP1 DUP4 SUB DUP2 PUSH0 DUP8 DUP1 EXTCODESIZE ISZERO DUP1 ISZERO PUSH2 0x7D6 JUMPI PUSH0 PUSH0 REVERT JUMPDEST POP GAS CALL ISZERO DUP1 ISZERO PUSH2 0x7E8 JUMPI RETURNDATASIZE PUSH0 PUSH0 RETURNDATACOPY RETURNDATASIZE PUSH0 REVERT JUMPDEST POP POP POP POP CALLER PUSH20 0xFFFFFFFFFFFFFFFFFFFFFFFFFFFFFFFFFFFFFFFF AND PUSH32 0x5A3358A3D27A5373C0DF2604662088D37894D56B7CFD27F315770440F4E0D919 DUP5 DUP4 DUP8 PUSH1 0x40 MLOAD PUSH2 0x836 SWAP4 SWAP3 SWAP2 SWAP1 PUSH2 0x271C JUMP JUMPDEST PUSH1 0x40 MLOAD DUP1 SWAP2 SUB SWAP1 LOG2 POP POP PUSH2 0x848 PUSH2 0x1B2A JUMP JUMPDEST SWAP3 POP SWAP3 SWAP1 POP JUMP JUMPDEST PUSH0 PUSH0 PUSH0 PUSH2 0x85A PUSH2 0x1715 JUMP JUMPDEST SWAP1 POP PUSH0 PUSH2 0x866 DUP3 PUSH2 0x189A JUMP JUMPDEST SWAP1 POP PUSH2 0x872 DUP6 DUP3 PUSH2 0x1B44 JUMP JUMPDEST SWAP4 POP SWAP4 POP POP POP SWAP2 POP SWAP2 JUMP JUMPDEST PUSH1 0x3 SLOAD DUP2 JUMP JUMPDEST PUSH2 0x88B PUSH2 0x1C73 JUMP JUMPDEST PUSH0 PUSH20 0xFFFFFFFFFFFFFFFFFFFFFFFFFFFFFFFFFFFFFFFF AND DUP2 PUSH20 0xFFFFFFFFFFFFFFFFFFFFFFFFFFFFFFFFFFFFFFFF AND SUB PUSH2 0x8F9 JUMPI PUSH1 0x40 MLOAD PUSH32 0x8C379A000000000000000000000000000000000000000000000000000000000 DUP2 MSTORE PUSH1 0x4 ADD PUSH2 0x8F0 SWAP1 PUSH2 0x279B JUMP JUMPDEST PUSH1 0x40 MLOAD DUP1 SWAP2 SUB SWAP1 REVERT JUMPDEST DUP1 PUSH1 0x2 PUSH0 PUSH2 0x100 EXP DUP2 SLOAD DUP2 PUSH20 0xFFFFFFFFFFFFFFFFFFFFFFFFFFFFFFFFFFFFFFFF MUL NOT AND SWAP1 DUP4 PUSH20 0xFFFFFFFFFFFFFFFFFFFFFFFFFFFFFFFFFFFFFFFF AND MUL OR SWAP1 SSTORE POP DUP1 PUSH20 0xFFFFFFFFFFFFFFFFFFFFFFFFFFFFFFFFFFFFFFFF AND PUSH32 0x141C634522C8BFCF25BEBA4C524AC0C87DE0DB74EBE83168CF5F3BF4D45FD898 PUSH1 0x40 MLOAD PUSH1 0x40 MLOAD DUP1 SWAP2 SUB SWAP1 LOG2 POP JUMP JUMPDEST PUSH0 PUSH0 PUSH32 0x0 PUSH20 0xFFFFFFFFFFFFFFFFFFFFFFFFFFFFFFFFFFFFFFFF AND PUSH4 0x18160DDD PUSH1 0x40 MLOAD DUP2 PUSH4 0xFFFFFFFF AND PUSH1 0xE0 SHL DUP2 MSTORE PUSH1 0x4 ADD PUSH1 0x20 PUSH1 0x40 MLOAD DUP1 DUP4 SUB DUP2 DUP7 GAS STATICCALL ISZERO DUP1 ISZERO PUSH2 0x9EA JUMPI RETURNDATASIZE PUSH0 PUSH0 RETURNDATACOPY RETURNDATASIZE PUSH0 REVERT JUMPDEST POP POP POP POP PUSH1 0x40 MLOAD RETURNDATASIZE PUSH1 0x1F NOT PUSH1 0x1F DUP3 ADD AND DUP3 ADD DUP1 PUSH1 0x40 MSTORE POP DUP2 ADD SWAP1 PUSH2 0xA0E SWAP2 SWAP1 PUSH2 0x27CD JUMP JUMPDEST SWAP1 POP PUSH0 DUP2 SUB PUSH2 0xA40 JUMPI PUSH32 0x0 SWAP2 POP POP PUSH2 0xA59 JUMP JUMPDEST PUSH0 PUSH2 0xA49 PUSH2 0x1715 JUMP JUMPDEST SWAP1 POP PUSH2 0xA54 DUP2 PUSH2 0x189A JUMP JUMPDEST SWAP3 POP POP POP JUMPDEST SWAP1 JUMP JUMPDEST PUSH2 0xA64 PUSH2 0x1C73 JUMP JUMPDEST PUSH2 0xA6D PUSH0 PUSH2 0x1CFA JUMP JUMPDEST JUMP JUMPDEST PUSH2 0xA77 PUSH2 0x1C73 JUMP JUMPDEST PUSH1 0x2 PUSH1 0x14 SWAP1 SLOAD SWAP1 PUSH2 0x100 EXP SWAP1 DIV PUSH1 0xFF AND ISZERO PUSH2 0xAC7 JUMPI PUSH1 0x40 MLOAD PUSH32 0x8C379A000000000000000000000000000000000000000000000000000000000 DUP2 MSTORE PUSH1 0x4 ADD PUSH2 0xABE SWAP1 PUSH2 0x2842 JUMP JUMPDEST PUSH1 0x40 MLOAD DUP1 SWAP2 SUB SWAP1 REVERT JUMPDEST PUSH0 PUSH2 0xAD0 PUSH2 0x1715 JUMP JUMPDEST SWAP1 POP PUSH0 DUP2 PUSH0 ADD MLOAD GT PUSH2 0xB17 JUMPI PUSH1 0x40 MLOAD PUSH32 0x8C379A000000000000000000000000000000000000000000000000000000000 DUP2 MSTORE PUSH1 0x4 ADD PUSH2 0xB0E SWAP1 PUSH2 0x28AA JUMP JUMPDEST PUSH1 0x40 MLOAD DUP1 SWAP2 SUB SWAP1 REVERT JUMPDEST PUSH0 PUSH32 0x0 PUSH32 0x0 DUP4 PUSH0 ADD MLOAD PUSH2 0xB68 SWAP2 SWAP1 PUSH2 0x28F5 JUMP JUMPDEST PUSH2 0xB72 SWAP2 SWAP1 PUSH2 0x2963 JUMP JUMPDEST SWAP1 POP PUSH0 DUP2 GT PUSH2 0xBB6 JUMPI PUSH1 0x40 MLOAD PUSH32 0x8C379A000000000000000000000000000000000000000000000000000000000 DUP2 MSTORE PUSH1 0x4 ADD PUSH2 0xBAD SWAP1 PUSH2 0x29DD JUMP JUMPDEST PUSH1 0x40 MLOAD DUP1 SWAP2 SUB SWAP1 REVERT JUMPDEST PUSH1 0x1 PUSH1 0x2 PUSH1 0x14 PUSH2 0x100 EXP DUP2 SLOAD DUP2 PUSH1 0xFF MUL NOT AND SWAP1 DUP4 ISZERO ISZERO MUL OR SWAP1 SSTORE POP PUSH32 0x0 PUSH20 0xFFFFFFFFFFFFFFFFFFFFFFFFFFFFFFFFFFFFFFFF AND PUSH4 0x40C10F19 PUSH1 0x2 PUSH0 SWAP1 SLOAD SWAP1 PUSH2 0x100 EXP SWAP1 DIV PUSH20 0xFFFFFFFFFFFFFFFFFFFFFFFFFFFFFFFFFFFFFFFF AND DUP4 PUSH1 0x40 MLOAD DUP4 PUSH4 0xFFFFFFFF AND PUSH1 0xE0 SHL DUP2 MSTORE PUSH1 0x4 ADD PUSH2 0xC4D SWAP3 SWAP2 SWAP1 PUSH2 0x26F5 JUMP JUMPDEST PUSH0 PUSH1 0x40 MLOAD DUP1 DUP4 SUB DUP2 PUSH0 DUP8 DUP1 EXTCODESIZE ISZERO DUP1 ISZERO PUSH2 0xC64 JUMPI PUSH0 PUSH0 REVERT JUMPDEST POP GAS CALL ISZERO DUP1 ISZERO PUSH2 0xC76 JUMPI RETURNDATASIZE PUSH0 PUSH0 RETURNDATACOPY RETURNDATASIZE PUSH0 REVERT JUMPDEST POP POP POP POP PUSH1 0x2 PUSH0 SWAP1 SLOAD SWAP1 PUSH2 0x100 EXP SWAP1 DIV PUSH20 0xFFFFFFFFFFFFFFFFFFFFFFFFFFFFFFFFFFFFFFFF AND PUSH20 0xFFFFFFFFFFFFFFFFFFFFFFFFFFFFFFFFFFFFFFFF AND PUSH32 0x7DAA9E69E51AAE98674A933164CA91B034CB5856823C3EA6A98065BA29E97283 DUP4 PUSH0 ADD MLOAD PUSH32 0x0 DUP5 PUSH1 0x40 MLOAD PUSH2 0xD08 SWAP4 SWAP3 SWAP2 SWAP1 PUSH2 0x271C JUMP JUMPDEST PUSH1 0x40 MLOAD DUP1 SWAP2 SUB SWAP1 LOG2 POP POP JUMP JUMPDEST PUSH2 0xD1C PUSH2 0x1C73 JUMP JUMPDEST PUSH0 PUSH20 0xFFFFFFFFFFFFFFFFFFFFFFFFFFFFFFFFFFFFFFFF AND DUP2 PUSH20 0xFFFFFFFFFFFFFFFFFFFFFFFFFFFFFFFFFFFFFFFF AND SUB PUSH2 0xD8A JUMPI PUSH1 0x40 MLOAD PUSH32 0x8C379A000000000000000000000000000000000000000000000000000000000 DUP2 MSTORE PUSH1 0x4 ADD PUSH2 0xD81 SWAP1 PUSH2 0x2A45 JUMP JUMPDEST PUSH1 0x40 MLOAD DUP1 SWAP2 SUB SWAP1 REVERT JUMPDEST DUP1 PUSH1 0x1 PUSH0 PUSH2 0x100 EXP DUP2 SLOAD DUP2 PUSH20 0xFFFFFFFFFFFFFFFFFFFFFFFFFFFFFFFFFFFFFFFF MUL NOT AND SWAP1 DUP4 PUSH20 0xFFFFFFFFFFFFFFFFFFFFFFFFFFFFFFFFFFFFFFFF AND MUL OR SWAP1 SSTORE POP DUP1 PUSH20 0xFFFFFFFFFFFFFFFFFFFFFFFFFFFFFFFFFFFFFFFF AND PUSH32 0x3F32684A32A11DABDBB8C0177DE80AA3AE36A004D75210335B49E544E48CD0AA PUSH1 0x40 MLOAD PUSH1 0x40 MLOAD DUP1 SWAP2 SUB SWAP1 LOG2 POP JUMP JUMPDEST PUSH0 PUSH0 PUSH2 0xE1A PUSH2 0x16F3 JUMP JUMPDEST PUSH1 0x2 PUSH1 0x14 SWAP1 SLOAD SWAP1 PUSH2 0x100 EXP SWAP1 DIV PUSH1 0xFF AND PUSH2 0xE69 JUMPI PUSH1 0x40 MLOAD PUSH32 0x8C379A000000000000000000000000000000000000000000000000000000000 DUP2 MSTORE PUSH1 0x4 ADD PUSH2 0xE60 SWAP1 PUSH2 0x2467 JUMP JUMPDEST PUSH1 0x40 MLOAD DUP1 SWAP2 SUB SWAP1 REVERT JUMPDEST PUSH1 0x2 PUSH1 0x16 SWAP1 SLOAD SWAP1 PUSH2 0x100 EXP SWAP1 DIV PUSH1 0xFF AND ISZERO PUSH2 0xEB9 JUMPI PUSH1 0x40 MLOAD PUSH32 0x8C379A000000000000000000000000000000000000000000000000000000000 DUP2 MSTORE PUSH1 0x4 ADD PUSH2 0xEB0 SWAP1 PUSH2 0x2AAD JUMP JUMPDEST PUSH1 0x40 MLOAD DUP1 SWAP2 SUB SWAP1 REVERT JUMPDEST PUSH0 DUP5 GT PUSH2 0xEFB JUMPI PUSH1 0x40 MLOAD PUSH32 0x8C379A000000000000000000000000000000000000000000000000000000000 DUP2 MSTORE PUSH1 0x4 ADD PUSH2 0xEF2 SWAP1 PUSH2 0x2B15 JUMP JUMPDEST PUSH1 0x40 MLOAD DUP1 SWAP2 SUB SWAP1 REVERT JUMPDEST PUSH0 PUSH2 0xF04 PUSH2 0x1715 JUMP JUMPDEST SWAP1 POP PUSH0 PUSH2 0xF10 DUP3 PUSH2 0x189A JUMP JUMPDEST SWAP1 POP PUSH2 0xF1C DUP7 DUP3 PUSH2 0x1B44 JUMP JUMPDEST DUP1 SWAP5 POP DUP2 SWAP6 POP POP POP PUSH0 DUP5 GT PUSH2 0xF66 JUMPI PUSH1 0x40 MLOAD PUSH32 0x8C379A000000000000000000000000000000000000000000000000000000000 DUP2 MSTORE PUSH1 0x4 ADD PUSH2 0xF5D SWAP1 PUSH2 0x2B7D JUMP JUMPDEST PUSH1 0x40 MLOAD DUP1 SWAP2 SUB SWAP1 REVERT JUMPDEST DUP6 DUP5 GT ISZERO PUSH2 0xFA9 JUMPI PUSH1 0x40 MLOAD PUSH32 0x8C379A000000000000000000000000000000000000000000000000000000000 DUP2 MSTORE PUSH1 0x4 ADD PUSH2 0xFA0 SWAP1 PUSH2 0x2BE5 JUMP JUMPDEST PUSH1 0x40 MLOAD DUP1 SWAP2 SUB SWAP1 REVERT JUMPDEST PUSH0 DUP4 GT PUSH2 0xFEB JUMPI PUSH1 0x40 MLOAD PUSH32 0x8C379A000000000000000000000000000000000000000000000000000000000 DUP2 MSTORE PUSH1 0x4 ADD PUSH2 0xFE2 SWAP1 PUSH2 0x2C4D JUMP JUMPDEST PUSH1 0x40 MLOAD DUP1 SWAP2 SUB SWAP1 REVERT JUMPDEST DUP5 DUP4 LT ISZERO PUSH2 0x102E JUMPI PUSH1 0x40 MLOAD PUSH32 0x8C379A000000000000000000000000000000000000000000000000000000000 DUP2 MSTORE PUSH1 0x4 ADD PUSH2 0x1025 SWAP1 PUSH2 0x2CB5 JUMP JUMPDEST PUSH1 0x40 MLOAD DUP1 SWAP2 SUB SWAP1 REVERT JUMPDEST DUP3 PUSH32 0x0 PUSH20 0xFFFFFFFFFFFFFFFFFFFFFFFFFFFFFFFFFFFFFFFF AND PUSH4 0x70A08231 ADDRESS PUSH1 0x40 MLOAD DUP3 PUSH4 0xFFFFFFFF AND PUSH1 0xE0 SHL DUP2 MSTORE PUSH1 0x4 ADD PUSH2 0x1088 SWAP2 SWAP1 PUSH2 0x21E0 JUMP JUMPDEST PUSH1 0x20 PUSH1 0x40 MLOAD DUP1 DUP4 SUB DUP2 DUP7 GAS STATICCALL ISZERO DUP1 ISZERO PUSH2 0x10A3 JUMPI RETURNDATASIZE PUSH0 PUSH0 RETURNDATACOPY RETURNDATASIZE PUSH0 REVERT JUMPDEST POP POP POP POP PUSH1 0x40 MLOAD RETURNDATASIZE PUSH1 0x1F NOT PUSH1 0x1F DUP3 ADD AND DUP3 ADD DUP1 PUSH1 0x40 MSTORE POP DUP2 ADD SWAP1 PUSH2 0x10C7 SWAP2 SWAP1 PUSH2 0x27CD JUMP JUMPDEST LT ISZERO PUSH2 0x1108 JUMPI PUSH1 0x40 MLOAD PUSH32 0x8C379A000000000000000000000000000000000000000000000000000000000 DUP2 MSTORE PUSH1 0x4 ADD PUSH2 0x10FF SWAP1 PUSH2 0x2D1D JUMP JUMPDEST PUSH1 0x40 MLOAD DUP1 SWAP2 SUB SWAP1 REVERT JUMPDEST PUSH32 0x0 PUSH20 0xFFFFFFFFFFFFFFFFFFFFFFFFFFFFFFFFFFFFFFFF AND PUSH4 0x9DC29FAC CALLER DUP7 PUSH1 0x40 MLOAD DUP4 PUSH4 0xFFFFFFFF AND PUSH1 0xE0 SHL DUP2 MSTORE PUSH1 0x4 ADD PUSH2 0x1163 SWAP3 SWAP2 SWAP1 PUSH2 0x26F5 JUMP JUMPDEST PUSH0 PUSH1 0x40 MLOAD DUP1 DUP4 SUB DUP2 PUSH0 DUP8 DUP1 EXTCODESIZE ISZERO DUP1 ISZERO PUSH2 0x117A JUMPI PUSH0 PUSH0 REVERT JUMPDEST POP GAS CALL ISZERO DUP1 ISZERO PUSH2 0x118C JUMPI RETURNDATASIZE PUSH0 PUSH0 RETURNDATACOPY RETURNDATASIZE PUSH0 REVERT JUMPDEST POP POP POP POP PUSH2 0x11DB CALLER DUP5 PUSH32 0x0 PUSH20 0xFFFFFFFFFFFFFFFFFFFFFFFFFFFFFFFFFFFFFFFF AND PUSH2 0x1DBB SWAP1 SWAP3 SWAP2 SWAP1 PUSH4 0xFFFFFFFF AND JUMP JUMPDEST CALLER PUSH20 0xFFFFFFFFFFFFFFFFFFFFFFFFFFFFFFFFFFFFFFFF AND PUSH32 0x484C40561359F3E3B8BE9101897F8680AA82FBE1DF9FD9038E0DBC6284032646 DUP6 DUP4 DUP7 PUSH1 0x40 MLOAD PUSH2 0x1225 SWAP4 SWAP3 SWAP2 SWAP1 PUSH2 0x271C JUMP JUMPDEST PUSH1 0x40 MLOAD DUP1 SWAP2 SUB SWAP1 LOG2 POP POP PUSH2 0x1237 PUSH2 0x1B2A JUMP JUMPDEST SWAP3 POP SWAP3 SWAP1 POP JUMP JUMPDEST PUSH1 0x1 PUSH0 SWAP1 SLOAD SWAP1 PUSH2 0x100 EXP SWAP1 DIV PUSH20 0xFFFFFFFFFFFFFFFFFFFFFFFFFFFFFFFFFFFFFFFF AND DUP2 JUMP JUMPDEST PUSH1 0x2 PUSH1 0x15 SWAP1 SLOAD SWAP1 PUSH2 0x100 EXP SWAP1 DIV PUSH1 0xFF AND DUP2 JUMP JUMPDEST PUSH0 PUSH0 PUSH0 SWAP1 SLOAD SWAP1 PUSH2 0x100 EXP SWAP1 DIV PUSH20 0xFFFFFFFFFFFFFFFFFFFFFFFFFFFFFFFFFFFFFFFF AND SWAP1 POP SWAP1 JUMP JUMPDEST PUSH0 PUSH0 PUSH2 0x12A7 PUSH2 0x1715 JUMP JUMPDEST SWAP1 POP PUSH2 0x12B2 DUP2 PUSH2 0x1E0E JUMP JUMPDEST SWAP2 POP POP SWAP1 JUMP JUMPDEST PUSH1 0x2 PUSH1 0x14 SWAP1 SLOAD SWAP1 PUSH2 0x100 EXP SWAP1 DIV PUSH1 0xFF AND PUSH2 0x1307 JUMPI PUSH1 0x40 MLOAD PUSH32 0x8C379A000000000000000000000000000000000000000000000000000000000 DUP2 MSTORE PUSH1 0x4 ADD PUSH2 0x12FE SWAP1 PUSH2 0x2467 JUMP JUMPDEST PUSH1 0x40 MLOAD DUP1 SWAP2 SUB SWAP1 REVERT JUMPDEST PUSH0 DUP2 GT PUSH2 0x1349 JUMPI PUSH1 0x40 MLOAD PUSH32 0x8C379A000000000000000000000000000000000000000000000000000000000 DUP2 MSTORE PUSH1 0x4 ADD PUSH2 0x1340 SWAP1 PUSH2 0x2B15 JUMP JUMPDEST PUSH1 0x40 MLOAD DUP1 SWAP2 SUB SWAP1 REVERT JUMPDEST PUSH0 PUSH2 0x1352 PUSH2 0x1715 JUMP JUMPDEST SWAP1 POP PUSH0 PUSH2 0x135E DUP3 PUSH2 0x189A JUMP JUMPDEST SWAP1 POP PUSH0 PUSH0 PUSH2 0x136C DUP6 DUP5 PUSH2 0x1B44 JUMP JUMPDEST SWAP2 POP SWAP2 POP PUSH0 DUP3 GT PUSH2 0x13B2 JUMPI PUSH1 0x40 MLOAD PUSH32 0x8C379A000000000000000000000000000000000000000000000000000000000 DUP2 MSTORE PUSH1 0x4 ADD PUSH2 0x13A9 SWAP1 PUSH2 0x2B7D JUMP JUMPDEST PUSH1 0x40 MLOAD DUP1 SWAP2 SUB SWAP1 REVERT JUMPDEST PUSH0 DUP2 GT PUSH2 0x13F4 JUMPI PUSH1 0x40 MLOAD PUSH32 0x8C379A000000000000000000000000000000000000000000000000000000000 DUP2 MSTORE PUSH1 0x4 ADD PUSH2 0x13EB SWAP1 PUSH2 0x2C4D JUMP JUMPDEST PUSH1 0x40 MLOAD DUP1 SWAP2 SUB SWAP1 REVERT JUMPDEST CALLER PUSH20 0xFFFFFFFFFFFFFFFFFFFFFFFFFFFFFFFFFFFFFFFF AND PUSH32 0x5952C21AB4E64F9CE2D0DAF53A8286DA3C634EAB5A86CCDF38EBEFC3087EA301 DUP4 DUP6 DUP5 PUSH1 0x40 MLOAD PUSH2 0x143E SWAP4 SWAP3 SWAP2 SWAP1 PUSH2 0x271C JUMP JUMPDEST PUSH1 0x40 MLOAD DUP1 SWAP2 SUB SWAP1 LOG2 POP POP POP POP POP JUMP JUMPDEST PUSH1 0x2 PUSH1 0x16 SWAP1 SLOAD SWAP1 PUSH2 0x100 EXP SWAP1 DIV PUSH1 0xFF AND DUP2 JUMP JUMPDEST PUSH2 0x1468 PUSH2 0x1C73 JUMP JUMPDEST DUP1 PUSH1 0x2 PUSH1 0x15 PUSH2 0x100 EXP DUP2 SLOAD DUP2 PUSH1 0xFF MUL NOT AND SWAP1 DUP4 ISZERO ISZERO MUL OR SWAP1 SSTORE POP PUSH32 0xFB79081612032F5CE63340F421121D9F8B8EA04158F08B2DFAFACB3393CAF98 DUP2 PUSH1 0x40 MLOAD PUSH2 0x14B1 SWAP2 SWAP1 PUSH2 0x21A7 JUMP JUMPDEST PUSH1 0x40 MLOAD DUP1 SWAP2 SUB SWAP1 LOG1 POP JUMP JUMPDEST PUSH0 PUSH32 0x0 PUSH20 0xFFFFFFFFFFFFFFFFFFFFFFFFFFFFFFFFFFFFFFFF AND PUSH4 0x70A08231 ADDRESS PUSH1 0x40 MLOAD DUP3 PUSH4 0xFFFFFFFF AND PUSH1 0xE0 SHL DUP2 MSTORE PUSH1 0x4 ADD PUSH2 0x1516 SWAP2 SWAP1 PUSH2 0x21E0 JUMP JUMPDEST PUSH1 0x20 PUSH1 0x40 MLOAD DUP1 DUP4 SUB DUP2 DUP7 GAS STATICCALL ISZERO DUP1 ISZERO PUSH2 0x1531 JUMPI RETURNDATASIZE PUSH0 PUSH0 RETURNDATACOPY RETURNDATASIZE PUSH0 REVERT JUMPDEST POP POP POP POP PUSH1 0x40 MLOAD RETURNDATASIZE PUSH1 0x1F NOT PUSH1 0x1F DUP3 ADD AND DUP3 ADD DUP1 PUSH1 0x40 MSTORE POP DUP2 ADD SWAP1 PUSH2 0x1555 SWAP2 SWAP1 PUSH2 0x27CD JUMP JUMPDEST SWAP1 POP SWAP1 JUMP JUMPDEST PUSH0 PUSH0 PUSH0 PUSH2 0x1565 PUSH2 0x1715 JUMP JUMPDEST SWAP1 POP PUSH0 PUSH2 0x1571 DUP3 PUSH2 0x189A JUMP JUMPDEST SWAP1 POP PUSH2 0x157D DUP6 DUP3 PUSH2 0x19A8 JUMP JUMPDEST SWAP4 POP SWAP4 POP POP POP SWAP2 POP SWAP2 JUMP JUMPDEST PUSH2 0x1590 PUSH2 0x1C73 JUMP JUMPDEST DUP1 PUSH1 0x2 PUSH1 0x16 PUSH2 0x100 EXP DUP2 SLOAD DUP2 PUSH1 0xFF MUL NOT AND SWAP1 DUP4 ISZERO ISZERO MUL OR SWAP1 SSTORE POP PUSH32 0xCAB6EB524363CE625BCD6D709065FE3433487EFEBB486F47D00F3C310E952B63 DUP2 PUSH1 0x40 MLOAD PUSH2 0x15D9 SWAP2 SWAP1 PUSH2 0x21A7 JUMP JUMPDEST PUSH1 0x40 MLOAD DUP1 SWAP2 SUB SWAP1 LOG1 POP JUMP JUMPDEST PUSH2 0x15EC PUSH2 0x1C73 JUMP JUMPDEST PUSH0 DUP2 GT PUSH2 0x162E JUMPI PUSH1 0x40 MLOAD PUSH32 0x8C379A000000000000000000000000000000000000000000000000000000000 DUP2 MSTORE PUSH1 0x4 ADD PUSH2 0x1625 SWAP1 PUSH2 0x2D85 JUMP JUMPDEST PUSH1 0x40 MLOAD DUP1 SWAP2 SUB SWAP1 REVERT JUMPDEST DUP1 PUSH1 0x3 DUP2 SWAP1 SSTORE POP PUSH32 0xB321AA162C9F5D4BBD1AEE2493D56A1DE75F6B43EB21E6987F5C67230000A3CA DUP2 PUSH1 0x40 MLOAD PUSH2 0x1664 SWAP2 SWAP1 PUSH2 0x2311 JUMP JUMPDEST PUSH1 0x40 MLOAD DUP1 SWAP2 SUB SWAP1 LOG1 POP JUMP JUMPDEST PUSH2 0x1677 PUSH2 0x1C73 JUMP JUMPDEST PUSH0 PUSH20 0xFFFFFFFFFFFFFFFFFFFFFFFFFFFFFFFFFFFFFFFF AND DUP2 PUSH20 0xFFFFFFFFFFFFFFFFFFFFFFFFFFFFFFFFFFFFFFFF AND SUB PUSH2 0x16E7 JUMPI PUSH0 PUSH1 0x40 MLOAD PUSH32 0x1E4FBDF700000000000000000000000000000000000000000000000000000000 DUP2 MSTORE PUSH1 0x4 ADD PUSH2 0x16DE SWAP2 SWAP1 PUSH2 0x21E0 JUMP JUMPDEST PUSH1 0x40 MLOAD DUP1 SWAP2 SUB SWAP1 REVERT JUMPDEST PUSH2 0x16F0 DUP2 PUSH2 0x1CFA JUMP JUMPDEST POP JUMP JUMPDEST PUSH2 0x16FB PUSH2 0x1EEC JUMP JUMPDEST PUSH1 0x2 PUSH2 0x170D PUSH2 0x1708 PUSH2 0x1F2D JUMP JUMPDEST PUSH2 0x1F56 JUMP JUMPDEST PUSH0 ADD DUP2 SWAP1 SSTORE POP JUMP JUMPDEST PUSH2 0x171D PUSH2 0x20D4 JUMP JUMPDEST PUSH1 0x1 PUSH0 SWAP1 SLOAD SWAP1 PUSH2 0x100 EXP SWAP1 DIV PUSH20 0xFFFFFFFFFFFFFFFFFFFFFFFFFFFFFFFFFFFFFFFF AND PUSH20 0xFFFFFFFFFFFFFFFFFFFFFFFFFFFFFFFFFFFFFFFF AND PUSH4 0x186F34D5 PUSH1 0x40 MLOAD DUP2 PUSH4 0xFFFFFFFF AND PUSH1 0xE0 SHL DUP2 MSTORE PUSH1 0x4 ADD PUSH1 0x80 PUSH1 0x40 MLOAD DUP1 DUP4 SUB DUP2 DUP7 GAS STATICCALL ISZERO DUP1 ISZERO PUSH2 0x1787 JUMPI RETURNDATASIZE PUSH0 PUSH0 RETURNDATACOPY RETURNDATASIZE PUSH0 REVERT JUMPDEST POP POP POP POP PUSH1 0x40 MLOAD RETURNDATASIZE PUSH1 0x1F NOT PUSH1 0x1F DUP3 ADD AND DUP3 ADD DUP1 PUSH1 0x40 MSTORE POP DUP2 ADD SWAP1 PUSH2 0x17AB SWAP2 SWAP1 PUSH2 0x2EEB JUMP JUMPDEST SWAP1 POP DUP1 PUSH1 0x20 ADD MLOAD PUSH2 0x17F1 JUMPI PUSH1 0x40 MLOAD PUSH32 0x8C379A000000000000000000000000000000000000000000000000000000000 DUP2 MSTORE PUSH1 0x4 ADD PUSH2 0x17E8 SWAP1 PUSH2 0x2F60 JUMP JUMPDEST PUSH1 0x40 MLOAD DUP1 SWAP2 SUB SWAP1 REVERT JUMPDEST PUSH0 DUP2 PUSH1 0x40 ADD MLOAD GT PUSH2 0x1837 JUMPI PUSH1 0x40 MLOAD PUSH32 0x8C379A000000000000000000000000000000000000000000000000000000000 DUP2 MSTORE PUSH1 0x4 ADD PUSH2 0x182E SWAP1 PUSH2 0x2FC8 JUMP JUMPDEST PUSH1 0x40 MLOAD DUP1 SWAP2 SUB SWAP1 REVERT JUMPDEST PUSH0 PUSH1 0x3 SLOAD EQ DUP1 PUSH2 0x1858 JUMPI POP PUSH1 0x3 SLOAD DUP2 PUSH1 0x40 ADD MLOAD TIMESTAMP PUSH2 0x1855 SWAP2 SWAP1 PUSH2 0x2FE6 JUMP JUMPDEST GT ISZERO JUMPDEST PUSH2 0x1897 JUMPI PUSH1 0x40 MLOAD PUSH32 0x8C379A000000000000000000000000000000000000000000000000000000000 DUP2 MSTORE PUSH1 0x4 ADD PUSH2 0x188E SWAP1 PUSH2 0x3063 JUMP JUMPDEST PUSH1 0x40 MLOAD DUP1 SWAP2 SUB SWAP1 REVERT JUMPDEST SWAP1 JUMP JUMPDEST PUSH0 PUSH0 PUSH32 0x0 PUSH20 0xFFFFFFFFFFFFFFFFFFFFFFFFFFFFFFFFFFFFFFFF AND PUSH4 0x18160DDD PUSH1 0x40 MLOAD DUP2 PUSH4 0xFFFFFFFF AND PUSH1 0xE0 SHL DUP2 MSTORE PUSH1 0x4 ADD PUSH1 0x20 PUSH1 0x40 MLOAD DUP1 DUP4 SUB DUP2 DUP7 GAS STATICCALL ISZERO DUP1 ISZERO PUSH2 0x1905 JUMPI RETURNDATASIZE PUSH0 PUSH0 RETURNDATACOPY RETURNDATASIZE PUSH0 REVERT JUMPDEST POP POP POP POP PUSH1 0x40 MLOAD RETURNDATASIZE PUSH1 0x1F NOT PUSH1 0x1F DUP3 ADD AND DUP3 ADD DUP1 PUSH1 0x40 MSTORE POP DUP2 ADD SWAP1 PUSH2 0x1929 SWAP2 SWAP1 PUSH2 0x27CD JUMP JUMPDEST SWAP1 POP PUSH0 DUP2 SUB PUSH2 0x195B JUMPI PUSH32 0x0 SWAP2 POP POP PUSH2 0x19A3 JUMP JUMPDEST PUSH0 PUSH2 0x1965 DUP5 PUSH2 0x1E0E JUMP JUMPDEST SWAP1 POP DUP2 PUSH32 0x0 DUP3 PUSH2 0x1994 SWAP2 SWAP1 PUSH2 0x28F5 JUMP JUMPDEST PUSH2 0x199E SWAP2 SWAP1 PUSH2 0x2963 JUMP JUMPDEST SWAP3 POP POP POP JUMPDEST SWAP2 SWAP1 POP JUMP JUMPDEST PUSH0 PUSH0 PUSH0 DUP4 GT PUSH2 0x19EC JUMPI PUSH1 0x40 MLOAD PUSH32 0x8C379A000000000000000000000000000000000000000000000000000000000 DUP2 MSTORE PUSH1 0x4 ADD PUSH2 0x19E3 SWAP1 PUSH2 0x30CB JUMP JUMPDEST PUSH1 0x40 MLOAD DUP1 SWAP2 SUB SWAP1 REVERT JUMPDEST PUSH0 PUSH32 0x0 DUP6 PUSH2 0x1A19 SWAP2 SWAP1 PUSH2 0x28F5 JUMP JUMPDEST SWAP1 POP DUP4 PUSH32 0x0 DUP3 PUSH2 0x1A48 SWAP2 SWAP1 PUSH2 0x28F5 JUMP JUMPDEST PUSH2 0x1A52 SWAP2 SWAP1 PUSH2 0x2963 JUMP JUMPDEST SWAP3 POP PUSH0 DUP4 SUB PUSH2 0x1A67 JUMPI PUSH0 PUSH0 SWAP3 POP SWAP3 POP POP PUSH2 0x1ACE JUMP JUMPDEST PUSH0 PUSH2 0x1A9D DUP6 DUP6 PUSH2 0x1A77 SWAP2 SWAP1 PUSH2 0x28F5 JUMP JUMPDEST PUSH32 0x0 PUSH2 0x1F5F JUMP JUMPDEST SWAP1 POP PUSH2 0x1AC9 DUP2 PUSH32 0x0 PUSH2 0x1F5F JUMP JUMPDEST SWAP3 POP POP POP JUMPDEST SWAP3 POP SWAP3 SWAP1 POP JUMP JUMPDEST PUSH2 0x1AE3 DUP5 DUP5 DUP5 DUP5 PUSH1 0x1 PUSH2 0x1FDE JUMP JUMPDEST PUSH2 0x1B24 JUMPI DUP4 PUSH1 0x40 MLOAD PUSH32 0x5274AFE700000000000000000000000000000000000000000000000000000000 DUP2 MSTORE PUSH1 0x4 ADD PUSH2 0x1B1B SWAP2 SWAP1 PUSH2 0x21E0 JUMP JUMPDEST PUSH1 0x40 MLOAD DUP1 SWAP2 SUB SWAP1 REVERT JUMPDEST POP POP POP POP JUMP JUMPDEST PUSH1 0x1 PUSH2 0x1B3C PUSH2 0x1B37 PUSH2 0x1F2D JUMP JUMPDEST PUSH2 0x1F56 JUMP JUMPDEST PUSH0 ADD DUP2 SWAP1 SSTORE POP JUMP JUMPDEST PUSH0 PUSH0 PUSH0 DUP4 GT PUSH2 0x1B88 JUMPI PUSH1 0x40 MLOAD PUSH32 0x8C379A000000000000000000000000000000000000000000000000000000000 DUP2 MSTORE PUSH1 0x4 ADD PUSH2 0x1B7F SWAP1 PUSH2 0x30CB JUMP JUMPDEST PUSH1 0x40 MLOAD DUP1 SWAP2 SUB SWAP1 REVERT JUMPDEST PUSH0 PUSH32 0x0 DUP5 DUP7 PUSH2 0x1BB6 SWAP2 SWAP1 PUSH2 0x28F5 JUMP JUMPDEST PUSH2 0x1BC0 SWAP2 SWAP1 PUSH2 0x2963 JUMP JUMPDEST SWAP1 POP PUSH32 0x0 DUP2 PUSH2 0x1BEE SWAP2 SWAP1 PUSH2 0x2963 JUMP JUMPDEST SWAP2 POP PUSH0 DUP3 SUB PUSH2 0x1C03 JUMPI PUSH0 PUSH0 SWAP3 POP SWAP3 POP POP PUSH2 0x1C6C JUMP JUMPDEST PUSH0 PUSH32 0x0 DUP4 PUSH2 0x1C30 SWAP2 SWAP1 PUSH2 0x28F5 JUMP JUMPDEST SWAP1 POP PUSH2 0x1C67 PUSH32 0x0 DUP3 PUSH2 0x1C61 SWAP2 SWAP1 PUSH2 0x28F5 JUMP JUMPDEST DUP7 PUSH2 0x1F5F JUMP JUMPDEST SWAP4 POP POP POP JUMPDEST SWAP3 POP SWAP3 SWAP1 POP JUMP JUMPDEST PUSH2 0x1C7B PUSH2 0x204F JUMP JUMPDEST PUSH20 0xFFFFFFFFFFFFFFFFFFFFFFFFFFFFFFFFFFFFFFFF AND PUSH2 0x1C99 PUSH2 0x1276 JUMP JUMPDEST PUSH20 0xFFFFFFFFFFFFFFFFFFFFFFFFFFFFFFFFFFFFFFFF AND EQ PUSH2 0x1CF8 JUMPI PUSH2 0x1CBC PUSH2 0x204F JUMP JUMPDEST PUSH1 0x40 MLOAD PUSH32 0x118CDAA700000000000000000000000000000000000000000000000000000000 DUP2 MSTORE PUSH1 0x4 ADD PUSH2 0x1CEF SWAP2 SWAP1 PUSH2 0x21E0 JUMP JUMPDEST PUSH1 0x40 MLOAD DUP1 SWAP2 SUB SWAP1 REVERT JUMPDEST JUMP JUMPDEST PUSH0 PUSH0 PUSH0 SWAP1 SLOAD SWAP1 PUSH2 0x100 EXP SWAP1 DIV PUSH20 0xFFFFFFFFFFFFFFFFFFFFFFFFFFFFFFFFFFFFFFFF AND SWAP1 POP DUP2 PUSH0 PUSH0 PUSH2 0x100 EXP DUP2 SLOAD DUP2 PUSH20 0xFFFFFFFFFFFFFFFFFFFFFFFFFFFFFFFFFFFFFFFF MUL NOT AND SWAP1 DUP4 PUSH20 0xFFFFFFFFFFFFFFFFFFFFFFFFFFFFFFFFFFFFFFFF AND MUL OR SWAP1 SSTORE POP DUP2 PUSH20 0xFFFFFFFFFFFFFFFFFFFFFFFFFFFFFFFFFFFFFFFF AND DUP2 PUSH20 0xFFFFFFFFFFFFFFFFFFFFFFFFFFFFFFFFFFFFFFFF AND PUSH32 0x8BE0079C531659141344CD1FD0A4F28419497F9722A3DAAFE3B4186F6B6457E0 PUSH1 0x40 MLOAD PUSH1 0x40 MLOAD DUP1 SWAP2 SUB SWAP1 LOG3 POP POP JUMP JUMPDEST PUSH2 0x1DC8 DUP4 DUP4 DUP4 PUSH1 0x1 PUSH2 0x2056 JUMP JUMPDEST PUSH2 0x1E09 JUMPI DUP3 PUSH1 0x40 MLOAD PUSH32 0x5274AFE700000000000000000000000000000000000000000000000000000000 DUP2 MSTORE PUSH1 0x4 ADD PUSH2 0x1E00 SWAP2 SWAP1 PUSH2 0x21E0 JUMP JUMPDEST PUSH1 0x40 MLOAD DUP1 SWAP2 SUB SWAP1 REVERT JUMPDEST POP POP POP JUMP JUMPDEST PUSH0 PUSH0 PUSH32 0x0 PUSH32 0x0 PUSH20 0xFFFFFFFFFFFFFFFFFFFFFFFFFFFFFFFFFFFFFFFF AND PUSH4 0x70A08231 ADDRESS PUSH1 0x40 MLOAD DUP3 PUSH4 0xFFFFFFFF AND PUSH1 0xE0 SHL DUP2 MSTORE PUSH1 0x4 ADD PUSH2 0x1E8A SWAP2 SWAP1 PUSH2 0x21E0 JUMP JUMPDEST PUSH1 0x20 PUSH1 0x40 MLOAD DUP1 DUP4 SUB DUP2 DUP7 GAS STATICCALL ISZERO DUP1 ISZERO PUSH2 0x1EA5 JUMPI RETURNDATASIZE PUSH0 PUSH0 RETURNDATACOPY RETURNDATASIZE PUSH0 REVERT JUMPDEST POP POP POP POP PUSH1 0x40 MLOAD RETURNDATASIZE PUSH1 0x1F NOT PUSH1 0x1F DUP3 ADD AND DUP3 ADD DUP1 PUSH1 0x40 MSTORE POP DUP2 ADD SWAP1 PUSH2 0x1EC9 SWAP2 SWAP1 PUSH2 0x27CD JUMP JUMPDEST PUSH2 0x1ED3 SWAP2 SWAP1 PUSH2 0x28F5 JUMP JUMPDEST SWAP1 POP DUP1 DUP4 PUSH0 ADD MLOAD PUSH2 0x1EE4 SWAP2 SWAP1 PUSH2 0x30E9 JUMP JUMPDEST SWAP2 POP POP SWAP2 SWAP1 POP JUMP JUMPDEST PUSH2 0x1EF4 PUSH2 0x20B8 JUMP JUMPDEST ISZERO PUSH2 0x1F2B JUMPI PUSH1 0x40 MLOAD PUSH32 0x3EE5AEB500000000000000000000000000000000000000000000000000000000 DUP2 MSTORE PUSH1 0x4 ADD PUSH1 0x40 MLOAD DUP1 SWAP2 SUB SWAP1 REVERT JUMPDEST JUMP JUMPDEST PUSH0 PUSH32 0x9B779B17422D0DF92223018B32B4D1FA46E071723D6817E2486D003BECC55F00 PUSH0 SHL SWAP1 POP SWAP1 JUMP JUMPDEST PUSH0 DUP2 SWAP1 POP SWAP2 SWAP1 POP JUMP JUMPDEST PUSH0 PUSH0 DUP3 GT PUSH2 0x1FA2 JUMPI PUSH1 0x40 MLOAD PUSH32 0x8C379A000000000000000000000000000000000000000000000000000000000 DUP2 MSTORE PUSH1 0x4 ADD PUSH2 0x1F99 SWAP1 PUSH2 0x3166 JUMP JUMPDEST PUSH1 0x40 MLOAD DUP1 SWAP2 SUB SWAP1 REVERT JUMPDEST PUSH0 DUP4 SUB PUSH2 0x1FB1 JUMPI PUSH0 SWAP1 POP PUSH2 0x1FD8 JUMP JUMPDEST PUSH1 0x1 DUP3 PUSH1 0x1 DUP6 PUSH2 0x1FC1 SWAP2 SWAP1 PUSH2 0x2FE6 JUMP JUMPDEST PUSH2 0x1FCB SWAP2 SWAP1 PUSH2 0x2963 JUMP JUMPDEST PUSH2 0x1FD5 SWAP2 SWAP1 PUSH2 0x30E9 JUMP JUMPDEST SWAP1 POP JUMPDEST SWAP3 SWAP2 POP POP JUMP JUMPDEST PUSH0 PUSH0 PUSH4 0x23B872DD PUSH1 0xE0 SHL SWAP1 POP PUSH1 0x40 MLOAD DUP2 PUSH0 MSTORE PUSH0 NOT PUSH1 0x60 SHR DUP8 AND PUSH1 0x4 MSTORE PUSH0 NOT PUSH1 0x60 SHR DUP7 AND PUSH1 0x24 MSTORE DUP5 PUSH1 0x44 MSTORE PUSH1 0x20 PUSH0 PUSH1 0x64 PUSH0 PUSH0 DUP13 GAS CALL SWAP3 POP PUSH1 0x1 PUSH0 MLOAD EQ DUP4 AND PUSH2 0x203C JUMPI DUP4 DUP4 ISZERO AND ISZERO PUSH2 0x2030 JUMPI RETURNDATASIZE PUSH0 DUP3 RETURNDATACOPY RETURNDATASIZE DUP2 REVERT JUMPDEST PUSH0 DUP9 EXTCODESIZE GT RETURNDATASIZE ISZERO AND DUP4 AND SWAP3 POP JUMPDEST DUP1 PUSH1 0x40 MSTORE PUSH0 PUSH1 0x60 MSTORE POP POP SWAP6 SWAP5 POP POP POP POP POP JUMP JUMPDEST PUSH0 CALLER SWAP1 POP SWAP1 JUMP JUMPDEST PUSH0 PUSH0 PUSH4 0xA9059CBB PUSH1 0xE0 SHL SWAP1 POP PUSH1 0x40 MLOAD DUP2 PUSH0 MSTORE PUSH0 NOT PUSH1 0x60 SHR DUP7 AND PUSH1 0x4 MSTORE DUP5 PUSH1 0x24 MSTORE PUSH1 0x20 PUSH0 PUSH1 0x44 PUSH0 PUSH0 DUP12 GAS CALL SWAP3 POP PUSH1 0x1 PUSH0 MLOAD EQ DUP4 AND PUSH2 0x20AA JUMPI DUP4 DUP4 ISZERO AND ISZERO PUSH2 0x209E JUMPI RETURNDATASIZE PUSH0 DUP3 RETURNDATACOPY RETURNDATASIZE DUP2 REVERT JUMPDEST PUSH0 DUP8 EXTCODESIZE GT RETURNDATASIZE ISZERO AND DUP4 AND SWAP3 POP JUMPDEST DUP1 PUSH1 0x40 MSTORE POP POP SWAP5 SWAP4 POP POP POP POP JUMP JUMPDEST PUSH0 PUSH1 0x2 PUSH2 0x20CB PUSH2 0x20C6 PUSH2 0x1F2D JUMP JUMPDEST PUSH2 0x1F56 JUMP JUMPDEST PUSH0 ADD SLOAD EQ SWAP1 POP SWAP1 JUMP JUMPDEST PUSH1 0x40 MLOAD DUP1 PUSH1 0x80 ADD PUSH1 0x40 MSTORE DUP1 PUSH0 DUP2 MSTORE PUSH1 0x20 ADD PUSH0 ISZERO ISZERO DUP2 MSTORE PUSH1 0x20 ADD PUSH0 DUP2 MSTORE PUSH1 0x20 ADD PUSH0 DUP2 MSTORE POP SWAP1 JUMP JUMPDEST PUSH0 PUSH20 0xFFFFFFFFFFFFFFFFFFFFFFFFFFFFFFFFFFFFFFFF DUP3 AND SWAP1 POP SWAP2 SWAP1 POP JUMP JUMPDEST PUSH0 DUP2 SWAP1 POP SWAP2 SWAP1 POP JUMP JUMPDEST PUSH0 PUSH2 0x213C PUSH2 0x2137 PUSH2 0x2132 DUP5 PUSH2 0x20FA JUMP JUMPDEST PUSH2 0x2119 JUMP JUMPDEST PUSH2 0x20FA JUMP JUMPDEST SWAP1 POP SWAP2 SWAP1 POP JUMP JUMPDEST PUSH0 PUSH2 0x214D DUP3 PUSH2 0x2122 JUMP JUMPDEST SWAP1 POP SWAP2 SWAP1 POP JUMP JUMPDEST PUSH0 PUSH2 0x215E DUP3 PUSH2 0x2143 JUMP JUMPDEST SWAP1 POP SWAP2 SWAP1 POP JUMP JUMPDEST PUSH2 0x216E DUP2 PUSH2 0x2154 JUMP JUMPDEST DUP3 MSTORE POP POP JUMP JUMPDEST PUSH0 PUSH1 0x20 DUP3 ADD SWAP1 POP PUSH2 0x2187 PUSH0 DUP4 ADD DUP5 PUSH2 0x2165 JUMP JUMPDEST SWAP3 SWAP2 POP POP JUMP JUMPDEST PUSH0 DUP2 ISZERO ISZERO SWAP1 POP SWAP2 SWAP1 POP JUMP JUMPDEST PUSH2 0x21A1 DUP2 PUSH2 0x218D JUMP JUMPDEST DUP3 MSTORE POP POP JUMP JUMPDEST PUSH0 PUSH1 0x20 DUP3 ADD SWAP1 POP PUSH2 0x21BA PUSH0 DUP4 ADD DUP5 PUSH2 0x2198 JUMP JUMPDEST SWAP3 SWAP2 POP POP JUMP JUMPDEST PUSH0 PUSH2 0x21CA DUP3 PUSH2 0x20FA JUMP JUMPDEST SWAP1 POP SWAP2 SWAP1 POP JUMP JUMPDEST PUSH2 0x21DA DUP2 PUSH2 0x21C0 JUMP JUMPDEST DUP3 MSTORE POP POP JUMP JUMPDEST PUSH0 PUSH1 0x20 DUP3 ADD SWAP1 POP PUSH2 0x21F3 PUSH0 DUP4 ADD DUP5 PUSH2 0x21D1 JUMP JUMPDEST SWAP3 SWAP2 POP POP JUMP JUMPDEST PUSH0 PUSH2 0x2203 DUP3 PUSH2 0x2143 JUMP JUMPDEST SWAP1 POP SWAP2 SWAP1 POP JUMP JUMPDEST PUSH2 0x2213 DUP2 PUSH2 0x21F9 JUMP JUMPDEST DUP3 MSTORE POP POP JUMP JUMPDEST PUSH0 PUSH1 0x20 DUP3 ADD SWAP1 POP PUSH2 0x222C PUSH0 DUP4 ADD DUP5 PUSH2 0x220A JUMP JUMPDEST SWAP3 SWAP2 POP POP JUMP JUMPDEST PUSH0 PUSH1 0x40 MLOAD SWAP1 POP SWAP1 JUMP JUMPDEST PUSH0 PUSH0 REVERT JUMPDEST PUSH0 DUP2 SWAP1 POP SWAP2 SWAP1 POP JUMP JUMPDEST PUSH2 0x2251 DUP2 PUSH2 0x223F JUMP JUMPDEST DUP2 EQ PUSH2 0x225B JUMPI PUSH0 PUSH0 REVERT JUMPDEST POP JUMP JUMPDEST PUSH0 DUP2 CALLDATALOAD SWAP1 POP PUSH2 0x226C DUP2 PUSH2 0x2248 JUMP JUMPDEST SWAP3 SWAP2 POP POP JUMP JUMPDEST PUSH0 PUSH0 PUSH1 0x40 DUP4 DUP6 SUB SLT ISZERO PUSH2 0x2288 JUMPI PUSH2 0x2287 PUSH2 0x223B JUMP JUMPDEST JUMPDEST PUSH0 PUSH2 0x2295 DUP6 DUP3 DUP7 ADD PUSH2 0x225E JUMP JUMPDEST SWAP3 POP POP PUSH1 0x20 PUSH2 0x22A6 DUP6 DUP3 DUP7 ADD PUSH2 0x225E JUMP JUMPDEST SWAP2 POP POP SWAP3 POP SWAP3 SWAP1 POP JUMP JUMPDEST PUSH2 0x22B9 DUP2 PUSH2 0x223F JUMP JUMPDEST DUP3 MSTORE POP POP JUMP JUMPDEST PUSH0 PUSH1 0x40 DUP3 ADD SWAP1 POP PUSH2 0x22D2 PUSH0 DUP4 ADD DUP6 PUSH2 0x22B0 JUMP JUMPDEST PUSH2 0x22DF PUSH1 0x20 DUP4 ADD DUP5 PUSH2 0x22B0 JUMP JUMPDEST SWAP4 SWAP3 POP POP POP JUMP JUMPDEST PUSH0 PUSH1 0x20 DUP3 DUP5 SUB SLT ISZERO PUSH2 0x22FB JUMPI PUSH2 0x22FA PUSH2 0x223B JUMP JUMPDEST JUMPDEST PUSH0 PUSH2 0x2308 DUP5 DUP3 DUP6 ADD PUSH2 0x225E JUMP JUMPDEST SWAP2 POP POP SWAP3 SWAP2 POP POP JUMP JUMPDEST PUSH0 PUSH1 0x20 DUP3 ADD SWAP1 POP PUSH2 0x2324 PUSH0 DUP4 ADD DUP5 PUSH2 0x22B0 JUMP JUMPDEST SWAP3 SWAP2 POP POP JUMP JUMPDEST PUSH2 0x2333 DUP2 PUSH2 0x21C0 JUMP JUMPDEST DUP2 EQ PUSH2 0x233D JUMPI PUSH0 PUSH0 REVERT JUMPDEST POP JUMP JUMPDEST PUSH0 DUP2 CALLDATALOAD SWAP1 POP PUSH2 0x234E DUP2 PUSH2 0x232A JUMP JUMPDEST SWAP3 SWAP2 POP POP JUMP JUMPDEST PUSH0 PUSH1 0x20 DUP3 DUP5 SUB SLT ISZERO PUSH2 0x2369 JUMPI PUSH2 0x2368 PUSH2 0x223B JUMP JUMPDEST JUMPDEST PUSH0 PUSH2 0x2376 DUP5 DUP3 DUP6 ADD PUSH2 0x2340 JUMP JUMPDEST SWAP2 POP POP SWAP3 SWAP2 POP POP JUMP JUMPDEST PUSH0 PUSH2 0x2389 DUP3 PUSH2 0x2143 JUMP JUMPDEST SWAP1 POP SWAP2 SWAP1 POP JUMP JUMPDEST PUSH2 0x2399 DUP2 PUSH2 0x237F JUMP JUMPDEST DUP3 MSTORE POP POP JUMP JUMPDEST PUSH0 PUSH1 0x20 DUP3 ADD SWAP1 POP PUSH2 0x23B2 PUSH0 DUP4 ADD DUP5 PUSH2 0x2390 JUMP JUMPDEST SWAP3 SWAP2 POP POP JUMP JUMPDEST PUSH2 0x23C1 DUP2 PUSH2 0x218D JUMP JUMPDEST DUP2 EQ PUSH2 0x23CB JUMPI PUSH0 PUSH0 REVERT JUMPDEST POP JUMP JUMPDEST PUSH0 DUP2 CALLDATALOAD SWAP1 POP PUSH2 0x23DC DUP2 PUSH2 0x23B8 JUMP JUMPDEST SWAP3 SWAP2 POP POP JUMP JUMPDEST PUSH0 PUSH1 0x20 DUP3 DUP5 SUB SLT ISZERO PUSH2 0x23F7 JUMPI PUSH2 0x23F6 PUSH2 0x223B JUMP JUMPDEST JUMPDEST PUSH0 PUSH2 0x2404 DUP5 DUP3 DUP6 ADD PUSH2 0x23CE JUMP JUMPDEST SWAP2 POP POP SWAP3 SWAP2 POP POP JUMP JUMPDEST PUSH0 DUP3 DUP3 MSTORE PUSH1 0x20 DUP3 ADD SWAP1 POP SWAP3 SWAP2 POP POP JUMP JUMPDEST PUSH32 0x6E6F7420696E697469616C697A65640000000000000000000000000000000000 PUSH0 DUP3 ADD MSTORE POP JUMP JUMPDEST PUSH0 PUSH2 0x2451 PUSH1 0xF DUP4 PUSH2 0x240D JUMP JUMPDEST SWAP2 POP PUSH2 0x245C DUP3 PUSH2 0x241D JUMP JUMPDEST PUSH1 0x20 DUP3 ADD SWAP1 POP SWAP2 SWAP1 POP JUMP JUMPDEST PUSH0 PUSH1 0x20 DUP3 ADD SWAP1 POP DUP2 DUP2 SUB PUSH0 DUP4 ADD MSTORE PUSH2 0x247E DUP2 PUSH2 0x2445 JUMP JUMPDEST SWAP1 POP SWAP2 SWAP1 POP JUMP JUMPDEST PUSH32 0x6D696E7420706175736564000000000000000000000000000000000000000000 PUSH0 DUP3 ADD MSTORE POP JUMP JUMPDEST PUSH0 PUSH2 0x24B9 PUSH1 0xB DUP4 PUSH2 0x240D JUMP JUMPDEST SWAP2 POP PUSH2 0x24C4 DUP3 PUSH2 0x2485 JUMP JUMPDEST PUSH1 0x20 DUP3 ADD SWAP1 POP SWAP2 SWAP1 POP JUMP JUMPDEST PUSH0 PUSH1 0x20 DUP3 ADD SWAP1 POP DUP2 DUP2 SUB PUSH0 DUP4 ADD MSTORE PUSH2 0x24E6 DUP2 PUSH2 0x24AD JUMP JUMPDEST SWAP1 POP SWAP2 SWAP1 POP JUMP JUMPDEST PUSH32 0x7A65726F20555344430000000000000000000000000000000000000000000000 PUSH0 DUP3 ADD MSTORE POP JUMP JUMPDEST PUSH0 PUSH2 0x2521 PUSH1 0x9 DUP4 PUSH2 0x240D JUMP JUMPDEST SWAP2 POP PUSH2 0x252C DUP3 PUSH2 0x24ED JUMP JUMPDEST PUSH1 0x20 DUP3 ADD SWAP1 POP SWAP2 SWAP1 POP JUMP JUMPDEST PUSH0 PUSH1 0x20 DUP3 ADD SWAP1 POP DUP2 DUP2 SUB PUSH0 DUP4 ADD MSTORE PUSH2 0x254E DUP2 PUSH2 0x2515 JUMP JUMPDEST SWAP1 POP SWAP2 SWAP1 POP JUMP JUMPDEST PUSH32 0x7A65726F206D696E7420616D6F756E7400000000000000000000000000000000 PUSH0 DUP3 ADD MSTORE POP JUMP JUMPDEST PUSH0 PUSH2 0x2589 PUSH1 0x10 DUP4 PUSH2 0x240D JUMP JUMPDEST SWAP2 POP PUSH2 0x2594 DUP3 PUSH2 0x2555 JUMP JUMPDEST PUSH1 0x20 DUP3 ADD SWAP1 POP SWAP2 SWAP1 POP JUMP JUMPDEST PUSH0 PUSH1 0x20 DUP3 ADD SWAP1 POP DUP2 DUP2 SUB PUSH0 DUP4 ADD MSTORE PUSH2 0x25B6 DUP2 PUSH2 0x257D JUMP JUMPDEST SWAP1 POP SWAP2 SWAP1 POP JUMP JUMPDEST PUSH32 0x696E73756666696369656E7420525741206F7574000000000000000000000000 PUSH0 DUP3 ADD MSTORE POP JUMP JUMPDEST PUSH0 PUSH2 0x25F1 PUSH1 0x14 DUP4 PUSH2 0x240D JUMP JUMPDEST SWAP2 POP PUSH2 0x25FC DUP3 PUSH2 0x25BD JUMP JUMPDEST PUSH1 0x20 DUP3 ADD SWAP1 POP SWAP2 SWAP1 POP JUMP JUMPDEST PUSH0 PUSH1 0x20 DUP3 ADD SWAP1 POP DUP2 DUP2 SUB PUSH0 DUP4 ADD MSTORE PUSH2 0x261E DUP2 PUSH2 0x25E5 JUMP JUMPDEST SWAP1 POP SWAP2 SWAP1 POP JUMP JUMPDEST PUSH32 0x7A65726F20555344432072657175697265640000000000000000000000000000 PUSH0 DUP3 ADD MSTORE POP JUMP JUMPDEST PUSH0 PUSH2 0x2659 PUSH1 0x12 DUP4 PUSH2 0x240D JUMP JUMPDEST SWAP2 POP PUSH2 0x2664 DUP3 PUSH2 0x2625 JUMP JUMPDEST PUSH1 0x20 DUP3 ADD SWAP1 POP SWAP2 SWAP1 POP JUMP JUMPDEST PUSH0 PUSH1 0x20 DUP3 ADD SWAP1 POP DUP2 DUP2 SUB PUSH0 DUP4 ADD MSTORE PUSH2 0x2686 DUP2 PUSH2 0x264D JUMP JUMPDEST SWAP1 POP SWAP2 SWAP1 POP JUMP JUMPDEST PUSH32 0x555344432072657175697265642065786365656473206D617800000000000000 PUSH0 DUP3 ADD MSTORE POP JUMP JUMPDEST PUSH0 PUSH2 0x26C1 PUSH1 0x19 DUP4 PUSH2 0x240D JUMP JUMPDEST SWAP2 POP PUSH2 0x26CC DUP3 PUSH2 0x268D JUMP JUMPDEST PUSH1 0x20 DUP3 ADD SWAP1 POP SWAP2 SWAP1 POP JUMP JUMPDEST PUSH0 PUSH1 0x20 DUP3 ADD SWAP1 POP DUP2 DUP2 SUB PUSH0 DUP4 ADD MSTORE PUSH2 0x26EE DUP2 PUSH2 0x26B5 JUMP JUMPDEST SWAP1 POP SWAP2 SWAP1 POP JUMP JUMPDEST PUSH0 PUSH1 0x40 DUP3 ADD SWAP1 POP PUSH2 0x2708 PUSH0 DUP4 ADD DUP6 PUSH2 0x21D1 JUMP JUMPDEST PUSH2 0x2715 PUSH1 0x20 DUP4 ADD DUP5 PUSH2 0x22B0 JUMP JUMPDEST SWAP4 SWAP3 POP POP POP JUMP JUMPDEST PUSH0 PUSH1 0x60 DUP3 ADD SWAP1 POP PUSH2 0x272F PUSH0 DUP4 ADD DUP7 PUSH2 0x22B0 JUMP JUMPDEST PUSH2 0x273C PUSH1 0x20 DUP4 ADD DUP6 PUSH2 0x22B0 JUMP JUMPDEST PUSH2 0x2749 PUSH1 0x40 DUP4 ADD DUP5 PUSH2 0x22B0 JUMP JUMPDEST SWAP5 SWAP4 POP POP POP POP JUMP JUMPDEST PUSH32 0x6261642069737375657200000000000000000000000000000000000000000000 PUSH0 DUP3 ADD MSTORE POP JUMP JUMPDEST PUSH0 PUSH2 0x2785 PUSH1 0xA DUP4 PUSH2 0x240D JUMP JUMPDEST SWAP2 POP PUSH2 0x2790 DUP3 PUSH2 0x2751 JUMP JUMPDEST PUSH1 0x20 DUP3 ADD SWAP1 POP SWAP2 SWAP1 POP JUMP JUMPDEST PUSH0 PUSH1 0x20 DUP3 ADD SWAP1 POP DUP2 DUP2 SUB PUSH0 DUP4 ADD MSTORE PUSH2 0x27B2 DUP2 PUSH2 0x2779 JUMP JUMPDEST SWAP1 POP SWAP2 SWAP1 POP JUMP JUMPDEST PUSH0 DUP2 MLOAD SWAP1 POP PUSH2 0x27C7 DUP2 PUSH2 0x2248 JUMP JUMPDEST SWAP3 SWAP2 POP POP JUMP JUMPDEST PUSH0 PUSH1 0x20 DUP3 DUP5 SUB SLT ISZERO PUSH2 0x27E2 JUMPI PUSH2 0x27E1 PUSH2 0x223B JUMP JUMPDEST JUMPDEST PUSH0 PUSH2 0x27EF DUP5 DUP3 DUP6 ADD PUSH2 0x27B9 JUMP JUMPDEST SWAP2 POP POP SWAP3 SWAP2 POP POP JUMP JUMPDEST PUSH32 0x616C726561647920696E697469616C697A656400000000000000000000000000 PUSH0 DUP3 ADD MSTORE POP JUMP JUMPDEST PUSH0 PUSH2 0x282C PUSH1 0x13 DUP4 PUSH2 0x240D JUMP JUMPDEST SWAP2 POP PUSH2 0x2837 DUP3 PUSH2 0x27F8 JUMP JUMPDEST PUSH1 0x20 DUP3 ADD SWAP1 POP SWAP2 SWAP1 POP JUMP JUMPDEST PUSH0 PUSH1 0x20 DUP3 ADD SWAP1 POP DUP2 DUP2 SUB PUSH0 DUP4 ADD MSTORE PUSH2 0x2859 DUP2 PUSH2 0x2820 JUMP JUMPDEST SWAP1 POP SWAP2 SWAP1 POP JUMP JUMPDEST PUSH32 0x6E6F206F6666636861696E207265736572766500000000000000000000000000 PUSH0 DUP3 ADD MSTORE POP JUMP JUMPDEST PUSH0 PUSH2 0x2894 PUSH1 0x13 DUP4 PUSH2 0x240D JUMP JUMPDEST SWAP2 POP PUSH2 0x289F DUP3 PUSH2 0x2860 JUMP JUMPDEST PUSH1 0x20 DUP3 ADD SWAP1 POP SWAP2 SWAP1 POP JUMP JUMPDEST PUSH0 PUSH1 0x20 DUP3 ADD SWAP1 POP DUP2 DUP2 SUB PUSH0 DUP4 ADD MSTORE PUSH2 0x28C1 DUP2 PUSH2 0x2888 JUMP JUMPDEST SWAP1 POP SWAP2 SWAP1 POP JUMP JUMPDEST PUSH32 0x4E487B7100000000000000000000000000000000000000000000000000000000 PUSH0 MSTORE PUSH1 0x11 PUSH1 0x4 MSTORE PUSH1 0x24 PUSH0 REVERT JUMPDEST PUSH0 PUSH2 0x28FF DUP3 PUSH2 0x223F JUMP JUMPDEST SWAP2 POP PUSH2 0x290A DUP4 PUSH2 0x223F JUMP JUMPDEST SWAP3 POP DUP3 DUP3 MUL PUSH2 0x2918 DUP2 PUSH2 0x223F JUMP JUMPDEST SWAP2 POP DUP3 DUP3 DIV DUP5 EQ DUP4 ISZERO OR PUSH2 0x292F JUMPI PUSH2 0x292E PUSH2 0x28C8 JUMP JUMPDEST JUMPDEST POP SWAP3 SWAP2 POP POP JUMP JUMPDEST PUSH32 0x4E487B7100000000000000000000000000000000000000000000000000000000 PUSH0 MSTORE PUSH1 0x12 PUSH1 0x4 MSTORE PUSH1 0x24 PUSH0 REVERT JUMPDEST PUSH0 PUSH2 0x296D DUP3 PUSH2 0x223F JUMP JUMPDEST SWAP2 POP PUSH2 0x2978 DUP4 PUSH2 0x223F JUMP JUMPDEST SWAP3 POP DUP3 PUSH2 0x2988 JUMPI PUSH2 0x2987 PUSH2 0x2936 JUMP JUMPDEST JUMPDEST DUP3 DUP3 DIV SWAP1 POP SWAP3 SWAP2 POP POP JUMP JUMPDEST PUSH32 0x7A65726F20696E697469616C20737570706C7900000000000000000000000000 PUSH0 DUP3 ADD MSTORE POP JUMP JUMPDEST PUSH0 PUSH2 0x29C7 PUSH1 0x13 DUP4 PUSH2 0x240D JUMP JUMPDEST SWAP2 POP PUSH2 0x29D2 DUP3 PUSH2 0x2993 JUMP JUMPDEST PUSH1 0x20 DUP3 ADD SWAP1 POP SWAP2 SWAP1 POP JUMP JUMPDEST PUSH0 PUSH1 0x20 DUP3 ADD SWAP1 POP DUP2 DUP2 SUB PUSH0 DUP4 ADD MSTORE PUSH2 0x29F4 DUP2 PUSH2 0x29BB JUMP JUMPDEST SWAP1 POP SWAP2 SWAP1 POP JUMP JUMPDEST PUSH32 0x626164206F7261636C6500000000000000000000000000000000000000000000 PUSH0 DUP3 ADD MSTORE POP JUMP JUMPDEST PUSH0 PUSH2 0x2A2F PUSH1 0xA DUP4 PUSH2 0x240D JUMP JUMPDEST SWAP2 POP PUSH2 0x2A3A DUP3 PUSH2 0x29FB JUMP JUMPDEST PUSH1 0x20 DUP3 ADD SWAP1 POP SWAP2 SWAP1 POP JUMP JUMPDEST PUSH0 PUSH1 0x20 DUP3 ADD SWAP1 POP DUP2 DUP2 SUB PUSH0 DUP4 ADD MSTORE PUSH2 0x2A5C DUP2 PUSH2 0x2A23 JUMP JUMPDEST SWAP1 POP SWAP2 SWAP1 POP JUMP JUMPDEST PUSH32 0x72656465656D2070617573656400000000000000000000000000000000000000 PUSH0 DUP3 ADD MSTORE POP JUMP JUMPDEST PUSH0 PUSH2 0x2A97 PUSH1 0xD DUP4 PUSH2 0x240D JUMP JUMPDEST SWAP2 POP PUSH2 0x2AA2 DUP3 PUSH2 0x2A63 JUMP JUMPDEST PUSH1 0x20 DUP3 ADD SWAP1 POP SWAP2 SWAP1 POP JUMP JUMPDEST PUSH0 PUSH1 0x20 DUP3 ADD SWAP1 POP DUP2 DUP2 SUB PUSH0 DUP4 ADD MSTORE PUSH2 0x2AC4 DUP2 PUSH2 0x2A8B JUMP JUMPDEST SWAP1 POP SWAP2 SWAP1 POP JUMP JUMPDEST PUSH32 0x7A65726F20525741000000000000000000000000000000000000000000000000 PUSH0 DUP3 ADD MSTORE POP JUMP JUMPDEST PUSH0 PUSH2 0x2AFF PUSH1 0x8 DUP4 PUSH2 0x240D JUMP JUMPDEST SWAP2 POP PUSH2 0x2B0A DUP3 PUSH2 0x2ACB JUMP JUMPDEST PUSH1 0x20 DUP3 ADD SWAP1 POP SWAP2 SWAP1 POP JUMP JUMPDEST PUSH0 PUSH1 0x20 DUP3 ADD SWAP1 POP DUP2 DUP2 SUB PUSH0 DUP4 ADD MSTORE PUSH2 0x2B2C DUP2 PUSH2 0x2AF3 JUMP JUMPDEST SWAP1 POP SWAP2 SWAP1 POP JUMP JUMPDEST PUSH32 0x7A65726F20525741207265717569726564000000000000000000000000000000 PUSH0 DUP3 ADD MSTORE POP JUMP JUMPDEST PUSH0 PUSH2 0x2B67 PUSH1 0x11 DUP4 PUSH2 0x240D JUMP JUMPDEST SWAP2 POP PUSH2 0x2B72 DUP3 PUSH2 0x2B33 JUMP JUMPDEST PUSH1 0x20 DUP3 ADD SWAP1 POP SWAP2 SWAP1 POP JUMP JUMPDEST PUSH0 PUSH1 0x20 DUP3 ADD SWAP1 POP DUP2 DUP2 SUB PUSH0 DUP4 ADD MSTORE PUSH2 0x2B94 DUP2 PUSH2 0x2B5B JUMP JUMPDEST SWAP1 POP SWAP2 SWAP1 POP JUMP JUMPDEST PUSH32 0x5257412072657175697265642065786365656473206D61780000000000000000 PUSH0 DUP3 ADD MSTORE POP JUMP JUMPDEST PUSH0 PUSH2 0x2BCF PUSH1 0x18 DUP4 PUSH2 0x240D JUMP JUMPDEST SWAP2 POP PUSH2 0x2BDA DUP3 PUSH2 0x2B9B JUMP JUMPDEST PUSH1 0x20 DUP3 ADD SWAP1 POP SWAP2 SWAP1 POP JUMP JUMPDEST PUSH0 PUSH1 0x20 DUP3 ADD SWAP1 POP DUP2 DUP2 SUB PUSH0 DUP4 ADD MSTORE PUSH2 0x2BFC DUP2 PUSH2 0x2BC3 JUMP JUMPDEST SWAP1 POP SWAP2 SWAP1 POP JUMP JUMPDEST PUSH32 0x7A65726F2072656465656D20616D6F756E740000000000000000000000000000 PUSH0 DUP3 ADD MSTORE POP JUMP JUMPDEST PUSH0 PUSH2 0x2C37 PUSH1 0x12 DUP4 PUSH2 0x240D JUMP JUMPDEST SWAP2 POP PUSH2 0x2C42 DUP3 PUSH2 0x2C03 JUMP JUMPDEST PUSH1 0x20 DUP3 ADD SWAP1 POP SWAP2 SWAP1 POP JUMP JUMPDEST PUSH0 PUSH1 0x20 DUP3 ADD SWAP1 POP DUP2 DUP2 SUB PUSH0 DUP4 ADD MSTORE PUSH2 0x2C64 DUP2 PUSH2 0x2C2B JUMP JUMPDEST SWAP1 POP SWAP2 SWAP1 POP JUMP JUMPDEST PUSH32 0x696E73756666696369656E742055534443206F75740000000000000000000000 PUSH0 DUP3 ADD MSTORE POP JUMP JUMPDEST PUSH0 PUSH2 0x2C9F PUSH1 0x15 DUP4 PUSH2 0x240D JUMP JUMPDEST SWAP2 POP PUSH2 0x2CAA DUP3 PUSH2 0x2C6B JUMP JUMPDEST PUSH1 0x20 DUP3 ADD SWAP1 POP SWAP2 SWAP1 POP JUMP JUMPDEST PUSH0 PUSH1 0x20 DUP3 ADD SWAP1 POP DUP2 DUP2 SUB PUSH0 DUP4 ADD MSTORE PUSH2 0x2CCC DUP2 PUSH2 0x2C93 JUMP JUMPDEST SWAP1 POP SWAP2 SWAP1 POP JUMP JUMPDEST PUSH32 0x696E73756666696369656E742055534443206C69717569646974790000000000 PUSH0 DUP3 ADD MSTORE POP JUMP JUMPDEST PUSH0 PUSH2 0x2D07 PUSH1 0x1B DUP4 PUSH2 0x240D JUMP JUMPDEST SWAP2 POP PUSH2 0x2D12 DUP3 PUSH2 0x2CD3 JUMP JUMPDEST PUSH1 0x20 DUP3 ADD SWAP1 POP SWAP2 SWAP1 POP JUMP JUMPDEST PUSH0 PUSH1 0x20 DUP3 ADD SWAP1 POP DUP2 DUP2 SUB PUSH0 DUP4 ADD MSTORE PUSH2 0x2D34 DUP2 PUSH2 0x2CFB JUMP JUMPDEST SWAP1 POP SWAP2 SWAP1 POP JUMP JUMPDEST PUSH32 0x6261642064656C61790000000000000000000000000000000000000000000000 PUSH0 DUP3 ADD MSTORE POP JUMP JUMPDEST PUSH0 PUSH2 0x2D6F PUSH1 0x9 DUP4 PUSH2 0x240D JUMP JUMPDEST SWAP2 POP PUSH2 0x2D7A DUP3 PUSH2 0x2D3B JUMP JUMPDEST PUSH1 0x20 DUP3 ADD SWAP1 POP SWAP2 SWAP1 POP JUMP JUMPDEST PUSH0 PUSH1 0x20 DUP3 ADD SWAP1 POP DUP2 DUP2 SUB PUSH0 DUP4 ADD MSTORE PUSH2 0x2D9C DUP2 PUSH2 0x2D63 JUMP JUMPDEST SWAP1 POP SWAP2 SWAP1 POP JUMP JUMPDEST PUSH0 PUSH0 REVERT JUMPDEST PUSH0 PUSH1 0x1F NOT PUSH1 0x1F DUP4 ADD AND SWAP1 POP SWAP2 SWAP1 POP JUMP JUMPDEST PUSH32 0x4E487B7100000000000000000000000000000000000000000000000000000000 PUSH0 MSTORE PUSH1 0x41 PUSH1 0x4 MSTORE PUSH1 0x24 PUSH0 REVERT JUMPDEST PUSH2 0x2DED DUP3 PUSH2 0x2DA7 JUMP JUMPDEST DUP2 ADD DUP2 DUP2 LT PUSH8 0xFFFFFFFFFFFFFFFF DUP3 GT OR ISZERO PUSH2 0x2E0C JUMPI PUSH2 0x2E0B PUSH2 0x2DB7 JUMP JUMPDEST JUMPDEST DUP1 PUSH1 0x40 MSTORE POP POP POP JUMP JUMPDEST PUSH0 PUSH2 0x2E1E PUSH2 0x2232 JUMP JUMPDEST SWAP1 POP PUSH2 0x2E2A DUP3 DUP3 PUSH2 0x2DE4 JUMP JUMPDEST SWAP2 SWAP1 POP JUMP JUMPDEST PUSH0 DUP2 MLOAD SWAP1 POP PUSH2 0x2E3D DUP2 PUSH2 0x23B8 JUMP JUMPDEST SWAP3 SWAP2 POP POP JUMP JUMPDEST PUSH0 DUP2 SWAP1 POP SWAP2 SWAP1 POP JUMP JUMPDEST PUSH2 0x2E55 DUP2 PUSH2 0x2E43 JUMP JUMPDEST DUP2 EQ PUSH2 0x2E5F JUMPI PUSH0 PUSH0 REVERT JUMPDEST POP JUMP JUMPDEST PUSH0 DUP2 MLOAD SWAP1 POP PUSH2 0x2E70 DUP2 PUSH2 0x2E4C JUMP JUMPDEST SWAP3 SWAP2 POP POP JUMP JUMPDEST PUSH0 PUSH1 0x80 DUP3 DUP5 SUB SLT ISZERO PUSH2 0x2E8B JUMPI PUSH2 0x2E8A PUSH2 0x2DA3 JUMP JUMPDEST JUMPDEST PUSH2 0x2E95 PUSH1 0x80 PUSH2 0x2E15 JUMP JUMPDEST SWAP1 POP PUSH0 PUSH2 0x2EA4 DUP5 DUP3 DUP6 ADD PUSH2 0x27B9 JUMP JUMPDEST PUSH0 DUP4 ADD MSTORE POP PUSH1 0x20 PUSH2 0x2EB7 DUP5 DUP3 DUP6 ADD PUSH2 0x2E2F JUMP JUMPDEST PUSH1 0x20 DUP4 ADD MSTORE POP PUSH1 0x40 PUSH2 0x2ECB DUP5 DUP3 DUP6 ADD PUSH2 0x27B9 JUMP JUMPDEST PUSH1 0x40 DUP4 ADD MSTORE POP PUSH1 0x60 PUSH2 0x2EDF DUP5 DUP3 DUP6 ADD PUSH2 0x2E62 JUMP JUMPDEST PUSH1 0x60 DUP4 ADD MSTORE POP SWAP3 SWAP2 POP POP JUMP JUMPDEST PUSH0 PUSH1 0x80 DUP3 DUP5 SUB SLT ISZERO PUSH2 0x2F00 JUMPI PUSH2 0x2EFF PUSH2 0x223B JUMP JUMPDEST JUMPDEST PUSH0 PUSH2 0x2F0D DUP5 DUP3 DUP6 ADD PUSH2 0x2E76 JUMP JUMPDEST SWAP2 POP POP SWAP3 SWAP2 POP POP JUMP JUMPDEST PUSH32 0x7265736572766520696E76616C69640000000000000000000000000000000000 PUSH0 DUP3 ADD MSTORE POP JUMP JUMPDEST PUSH0 PUSH2 0x2F4A PUSH1 0xF DUP4 PUSH2 0x240D JUMP JUMPDEST SWAP2 POP PUSH2 0x2F55 DUP3 PUSH2 0x2F16 JUMP JUMPDEST PUSH1 0x20 DUP3 ADD SWAP1 POP SWAP2 SWAP1 POP JUMP JUMPDEST PUSH0 PUSH1 0x20 DUP3 ADD SWAP1 POP DUP2 DUP2 SUB PUSH0 DUP4 ADD MSTORE PUSH2 0x2F77 DUP2 PUSH2 0x2F3E JUMP JUMPDEST SWAP1 POP SWAP2 SWAP1 POP JUMP JUMPDEST PUSH32 0x6F7261636C65206E6F7420757064617465640000000000000000000000000000 PUSH0 DUP3 ADD MSTORE POP JUMP JUMPDEST PUSH0 PUSH2 0x2FB2 PUSH1 0x12 DUP4 PUSH2 0x240D JUMP JUMPDEST SWAP2 POP PUSH2 0x2FBD DUP3 PUSH2 0x2F7E JUMP JUMPDEST PUSH1 0x20 DUP3 ADD SWAP1 POP SWAP2 SWAP1 POP JUMP JUMPDEST PUSH0 PUSH1 0x20 DUP3 ADD SWAP1 POP DUP2 DUP2 SUB PUSH0 DUP4 ADD MSTORE PUSH2 0x2FDF DUP2 PUSH2 0x2FA6 JUMP JUMPDEST SWAP1 POP SWAP2 SWAP1 POP JUMP JUMPDEST PUSH0 PUSH2 0x2FF0 DUP3 PUSH2 0x223F JUMP JUMPDEST SWAP2 POP PUSH2 0x2FFB DUP4 PUSH2 0x223F JUMP JUMPDEST SWAP3 POP DUP3 DUP3 SUB SWAP1 POP DUP2 DUP2 GT ISZERO PUSH2 0x3013 JUMPI PUSH2 0x3012 PUSH2 0x28C8 JUMP JUMPDEST JUMPDEST SWAP3 SWAP2 POP POP JUMP JUMPDEST PUSH32 0x6F7261636C652064617461207374616C65000000000000000000000000000000 PUSH0 DUP3 ADD MSTORE POP JUMP JUMPDEST PUSH0 PUSH2 0x304D PUSH1 0x11 DUP4 PUSH2 0x240D JUMP JUMPDEST SWAP2 POP PUSH2 0x3058 DUP3 PUSH2 0x3019 JUMP JUMPDEST PUSH1 0x20 DUP3 ADD SWAP1 POP SWAP2 SWAP1 POP JUMP JUMPDEST PUSH0 PUSH1 0x20 DUP3 ADD SWAP1 POP DUP2 DUP2 SUB PUSH0 DUP4 ADD MSTORE PUSH2 0x307A DUP2 PUSH2 0x3041 JUMP JUMPDEST SWAP1 POP SWAP2 SWAP1 POP JUMP JUMPDEST PUSH32 0x626164204E415600000000000000000000000000000000000000000000000000 PUSH0 DUP3 ADD MSTORE POP JUMP JUMPDEST PUSH0 PUSH2 0x30B5 PUSH1 0x7 DUP4 PUSH2 0x240D JUMP JUMPDEST SWAP2 POP PUSH2 0x30C0 DUP3 PUSH2 0x3081 JUMP JUMPDEST PUSH1 0x20 DUP3 ADD SWAP1 POP SWAP2 SWAP1 POP JUMP JUMPDEST PUSH0 PUSH1 0x20 DUP3 ADD SWAP1 POP DUP2 DUP2 SUB PUSH0 DUP4 ADD MSTORE PUSH2 0x30E2 DUP2 PUSH2 0x30A9 JUMP JUMPDEST SWAP1 POP SWAP2 SWAP1 POP JUMP JUMPDEST PUSH0 PUSH2 0x30F3 DUP3 PUSH2 0x223F JUMP JUMPDEST SWAP2 POP PUSH2 0x30FE DUP4 PUSH2 0x223F JUMP JUMPDEST SWAP3 POP DUP3 DUP3 ADD SWAP1 POP DUP1 DUP3 GT ISZERO PUSH2 0x3116 JUMPI PUSH2 0x3115 PUSH2 0x28C8 JUMP JUMPDEST JUMPDEST SWAP3 SWAP2 POP POP JUMP JUMPDEST PUSH32 0x6469766973696F6E206279207A65726F00000000000000000000000000000000 PUSH0 DUP3 ADD MSTORE POP JUMP JUMPDEST PUSH0 PUSH2 0x3150 PUSH1 0x10 DUP4 PUSH2 0x240D JUMP JUMPDEST SWAP2 POP PUSH2 0x315B DUP3 PUSH2 0x311C JUMP JUMPDEST PUSH1 0x20 DUP3 ADD SWAP1 POP SWAP2 SWAP1 POP JUMP JUMPDEST PUSH0 PUSH1 0x20 DUP3 ADD SWAP1 POP DUP2 DUP2 SUB PUSH0 DUP4 ADD MSTORE PUSH2 0x317D DUP2 PUSH2 0x3144 JUMP JUMPDEST SWAP1 POP SWAP2 SWAP1 POP JUMP INVALID LOG2 PUSH5 0x6970667358 0x22 SLT KECCAK256 PUSH21 0x451E06D5B7A4A21F422A352BB992B59E3A7CEE0D12 LT SSTORE BLOBBASEFEE 0xDA PUSH8 0x98F029789F64736F PUSH13 0x63430008220033000000000000 "
				},
				"gasEstimates": {
					"creation": {
						"codeDepositCost": "2546000",
						"executionCost": "infinite",
						"totalCost": "infinite"
					},
					"external": {
						"initializeFund()": "infinite",
						"initialized()": "2563",
						"issuer()": "2576",
						"maxOracleDelay()": "2448",
						"mintPaused()": "2584",
						"mintWithUSDC(uint256,uint256)": "infinite",
						"navPerTokenUSD18()": "infinite",
						"oracle()": "infinite",
						"owner()": "2603",
						"previewMintWithUSDC(uint256)": "infinite",
						"previewRedeem(uint256)": "infinite",
						"redeem(uint256,uint256)": "infinite",
						"redeemPaused()": "2562",
						"renounceOwnership()": "infinite",
						"requestRedeem(uint256)": "infinite",
						"rwaToken()": "infinite",
						"setIssuer(address)": "infinite",
						"setMaxOracleDelay(uint256)": "infinite",
						"setMintPaused(bool)": "infinite",
						"setOracle(address)": "infinite",
						"setRedeemPaused(bool)": "infinite",
						"totalBackingValueUSD18()": "infinite",
						"transferOwnership(address)": "infinite",
						"usdc()": "infinite",
						"vaultUSDCBalance()": "infinite"
					},
					"internal": {
						"_ceilDiv(uint256,uint256)": "infinite",
						"_getValidOracleData()": "infinite",
						"_navPerTokenUSD18(struct ReserveData memory)": "infinite",
						"_quoteMintWithUSDC(uint256,uint256)": "infinite",
						"_quoteRedeem(uint256,uint256)": "infinite",
						"_totalBackingValueUSD18(struct ReserveData memory)": "infinite"
					}
				},
				"methodIdentifiers": {
					"initializeFund()": "72b823c3",
					"initialized()": "158ef93e",
					"issuer()": "1d143848",
					"maxOracleDelay()": "52f1edcc",
					"mintPaused()": "7e4831d3",
					"mintWithUSDC(uint256,uint256)": "47082dac",
					"navPerTokenUSD18()": "675a5c0b",
					"oracle()": "7dc0d1d0",
					"owner()": "8da5cb5b",
					"previewMintWithUSDC(uint256)": "c40d111c",
					"previewRedeem(uint256)": "4cdad506",
					"redeem(uint256,uint256)": "7cbc2373",
					"redeemPaused()": "b235d468",
					"renounceOwnership()": "715018a6",
					"requestRedeem(uint256)": "aa2f892d",
					"rwaToken()": "0c5bf351",
					"setIssuer(address)": "55cc4e57",
					"setMaxOracleDelay(uint256)": "cd3b691c",
					"setMintPaused(bool)": "b6935501",
					"setOracle(address)": "7adbf973",
					"setRedeemPaused(bool)": "ccb99c26",
					"totalBackingValueUSD18()": "8e827cb5",
					"transferOwnership(address)": "f2fde38b",
					"usdc()": "3e413bee",
					"vaultUSDCBalance()": "bc34e6da"
				}
			},
			"storageLayout": {
				"storage": [
					{
						"astId": 8,
						"contract": "core/RWAMintControllerVault.sol:RWAMintControllerVault",
						"label": "_owner",
						"offset": 0,
						"slot": "0",
						"type": "t_address"
					},
					{
						"astId": 1104,
						"contract": "core/RWAMintControllerVault.sol:RWAMintControllerVault",
						"label": "oracle",
						"offset": 0,
						"slot": "1",
						"type": "t_contract(IReserveOracle)2281"
					},
					{
						"astId": 1122,
						"contract": "core/RWAMintControllerVault.sol:RWAMintControllerVault",
						"label": "issuer",
						"offset": 0,
						"slot": "2",
						"type": "t_address"
					},
					{
						"astId": 1127,
						"contract": "core/RWAMintControllerVault.sol:RWAMintControllerVault",
						"label": "initialized",
						"offset": 20,
						"slot": "2",
						"type": "t_bool"
					},
					{
						"astId": 1129,
						"contract": "core/RWAMintControllerVault.sol:RWAMintControllerVault",
						"label": "mintPaused",
						"offset": 21,
						"slot": "2",
						"type": "t_bool"
					},
					{
						"astId": 1131,
						"contract": "core/RWAMintControllerVault.sol:RWAMintControllerVault",
						"label": "redeemPaused",
						"offset": 22,
						"slot": "2",
						"type": "t_bool"
					},
					{
						"astId": 1134,
						"contract": "core/RWAMintControllerVault.sol:RWAMintControllerVault",
						"label": "maxOracleDelay",
						"offset": 0,
						"slot": "3",
						"type": "t_uint256"
					}
				],
				"types": {
					"t_address": {
						"encoding": "inplace",
						"label": "address",
						"numberOfBytes": "20"
					},
					"t_bool": {
						"encoding": "inplace",
						"label": "bool",
						"numberOfBytes": "1"
					},
					"t_contract(IReserveOracle)2281": {
						"encoding": "inplace",
						"label": "contract IReserveOracle",
						"numberOfBytes": "20"
					},
					"t_uint256": {
						"encoding": "inplace",
						"label": "uint256",
						"numberOfBytes": "32"
					}
				}
			},
			"userdoc": {
				"kind": "user",
				"methods": {
					"initializeFund()": {
						"notice": "Initializes the fund with: - positive off-chain reserve - zero on-chain USDC - positive RWA supply No USDC is transferred here. Initial supply is backed by oracle-reported off-chain reserve."
					},
					"maxOracleDelay()": {
						"notice": "Maximum allowed oracle data age."
					},
					"mintWithUSDC(uint256,uint256)": {
						"notice": "User specifies the maximum USDC they are willing to spend. Because of rounding: - maxUSDCIn is the maximum payment. - contract calculates rwaAmount. - contract calculates usdcRequired. - contract transfers only usdcRequired, not full maxUSDCIn."
					},
					"navPerTokenUSD18()": {
						"notice": "Public function to calculate current NAV per RWA token."
					},
					"previewMintWithUSDC(uint256)": {
						"notice": "Preview mint result for a given maximum USDC input."
					},
					"previewRedeem(uint256)": {
						"notice": "Preview redemption result for a given maximum RWA burn amount."
					},
					"redeem(uint256,uint256)": {
						"notice": "Limited on-chain redemption. User specifies the maximum RWA they are willing to burn. Because of rounding: - maxRwaIn is the maximum burn amount. - contract calculates usdcAmount. - contract calculates rwaRequired. - contract burns only rwaRequired, not full maxRwaIn. Redemption only succeeds if this contract has enough USDC."
					},
					"requestRedeem(uint256)": {
						"notice": "Emits a redemption request when instant on-chain USDC liquidity is unavailable. This does not burn tokens. It models real RWA redemption where issuer processing and off-chain settlement may be required."
					},
					"totalBackingValueUSD18()": {
						"notice": "Public function to calculate current total backing value."
					},
					"vaultUSDCBalance()": {
						"notice": "Returns this contract's current USDC balance."
					}
				},
				"notice": "Core prototype contract for oracle-gated RWA token issuance. Design: - This contract is both the mint controller and USDC reserve vault. - The RWA token itself is a separate ERC-20 contract. - Oracle reports adjusted off-chain reserve value:      adjustedOffchainReserveUSD = gross asset value - liabilities - fees - Contract calculates NAV using:      NAV = (adjustedOffchainReserveUSD + onchainUSDCBalance) / totalSupply Simplified prototype logic: - No issuer withdrawal. - No fund cap. - No redemption liquidity threshold. - Mint transfers only the USDC actually required after rounding. - Redeem burns only the RWA actually required after rounding. - Redemption only works if this contract has enough USDC. - If not enough USDC, user can call requestRedeem(). Units: - Oracle USD values use 18 decimals. - NAV uses USD 18 decimals. - USDC decimals are read from the USDC token. - RWA token decimals are read from the RWA token.",
				"version": 1
			}
		}
	}
}