{
	"data": {
		"bytecode": {
			"linkReferences": {},
			"object": "60a0604052620493e060095f6101000a81548163ffffffff021916908363ffffffff160217905550610258600a55348015610038575f5ffd5b506040516144b73803806144b7833981810160405281019061005a9190610639565b85848073ffffffffffffffffffffffffffffffffffffffff1660808173ffffffffffffffffffffffffffffffffffffffff1681525050505f73ffffffffffffffffffffffffffffffffffffffff168173ffffffffffffffffffffffffffffffffffffffff1603610101575f6040517f1e4fbdf70000000000000000000000000000000000000000000000000000000081526004016100f89190610709565b60405180910390fd5b6101108161036160201b60201c565b505f8567ffffffffffffffff160361015d576040517f08c379a00000000000000000000000000000000000000000000000000000000081526004016101549061077c565b60405180910390fd5b5f73ffffffffffffffffffffffffffffffffffffffff168473ffffffffffffffffffffffffffffffffffffffff16036101cb576040517f08c379a00000000000000000000000000000000000000000000000000000000081526004016101c2906107e4565b60405180910390fd5b5f5f1b830361020f576040517f08c379a00000000000000000000000000000000000000000000000000000000081526004016102069061084c565b60405180910390fd5b5f815111610252576040517f08c379a0000000000000000000000000000000000000000000000000000000008152600401610249906108b4565b60405180910390fd5b5f825111610295576040517f08c379a000000000000000000000000000000000000000000000000000000000815260040161028c9061091c565b60405180910390fd5b8460055f6101000a81548167ffffffffffffffff021916908367ffffffffffffffff1602179055508260068190555081600790816102d39190610b5b565b5080600890816102e39190610b5b565b5060065460055f9054906101000a900467ffffffffffffffff1667ffffffffffffffff167fbf4e1fc134a654f78502ee3e998525a7fe9f51b7119ba7b682c5cd36dc1b70d760095f9054906101000a900463ffffffff16600a54600860405161034e93929190610cd8565b60405180910390a3505050505050610d14565b5f5f5f9054906101000a900473ffffffffffffffffffffffffffffffffffffffff169050815f5f6101000a81548173ffffffffffffffffffffffffffffffffffffffff021916908373ffffffffffffffffffffffffffffffffffffffff1602179055508173ffffffffffffffffffffffffffffffffffffffff168173ffffffffffffffffffffffffffffffffffffffff167f8be0079c531659141344cd1fd0a4f28419497f9722a3daafe3b4186f6b6457e060405160405180910390a35050565b5f604051905090565b5f5ffd5b5f5ffd5b5f73ffffffffffffffffffffffffffffffffffffffff82169050919050565b5f61045c82610433565b9050919050565b61046c81610452565b8114610476575f5ffd5b50565b5f8151905061048781610463565b92915050565b5f67ffffffffffffffff82169050919050565b6104a98161048d565b81146104b3575f5ffd5b50565b5f815190506104c4816104a0565b92915050565b5f819050919050565b6104dc816104ca565b81146104e6575f5ffd5b50565b5f815190506104f7816104d3565b92915050565b5f5ffd5b5f5ffd5b5f601f19601f8301169050919050565b7f4e487b71000000000000000000000000000000000000000000000000000000005f52604160045260245ffd5b61054b82610505565b810181811067ffffffffffffffff8211171561056a57610569610515565b5b80604052505050565b5f61057c610422565b90506105888282610542565b919050565b5f67ffffffffffffffff8211156105a7576105a6610515565b5b6105b082610505565b9050602081019050919050565b8281835e5f83830152505050565b5f6105dd6105d88461058d565b610573565b9050828152602081018484840111156105f9576105f8610501565b5b6106048482856105bd565b509392505050565b5f82601f8301126106205761061f6104fd565b5b81516106308482602086016105cb565b91505092915050565b5f5f5f5f5f5f60c087890312156106535761065261042b565b5b5f61066089828a01610479565b965050602061067189828a016104b6565b955050604061068289828a01610479565b945050606061069389828a016104e9565b935050608087015167ffffffffffffffff8111156106b4576106b361042f565b5b6106c089828a0161060c565b92505060a087015167ffffffffffffffff8111156106e1576106e061042f565b5b6106ed89828a0161060c565b9150509295509295509295565b61070381610452565b82525050565b5f60208201905061071c5f8301846106fa565b92915050565b5f82825260208201905092915050565b7f62616420737562736372697074696f6e496400000000000000000000000000005f82015250565b5f610766601283610722565b915061077182610732565b602082019050919050565b5f6020820190508181035f8301526107938161075a565b9050919050565b7f62616420726f75746572000000000000000000000000000000000000000000005f82015250565b5f6107ce600a83610722565b91506107d98261079a565b602082019050919050565b5f6020820190508181035f8301526107fb816107c2565b9050919050565b7f62616420646f6e496400000000000000000000000000000000000000000000005f82015250565b5f610836600983610722565b915061084182610802565b602082019050919050565b5f6020820190508181035f8301526108638161082a565b9050919050565b7f656d7074792061706955726c00000000000000000000000000000000000000005f82015250565b5f61089e600c83610722565b91506108a98261086a565b602082019050919050565b5f6020820190508181035f8301526108cb81610892565b9050919050565b7f656d70747920736f7572636500000000000000000000000000000000000000005f82015250565b5f610906600c83610722565b9150610911826108d2565b602082019050919050565b5f6020820190508181035f830152610933816108fa565b9050919050565b5f81519050919050565b7f4e487b71000000000000000000000000000000000000000000000000000000005f52602260045260245ffd5b5f600282049050600182168061098857607f821691505b60208210810361099b5761099a610944565b5b50919050565b5f819050815f5260205f209050919050565b5f6020601f8301049050919050565b5f82821b905092915050565b5f600883026109fd7fffffffffffffffffffffffffffffffffffffffffffffffffffffffffffffffff826109c2565b610a0786836109c2565b95508019841693508086168417925050509392505050565b5f819050919050565b5f819050919050565b5f610a4b610a46610a4184610a1f565b610a28565b610a1f565b9050919050565b5f819050919050565b610a6483610a31565b610a78610a7082610a52565b8484546109ce565b825550505050565b5f5f905090565b610a8f610a80565b610a9a818484610a5b565b505050565b5f5b82811015610ac057610ab55f828401610a87565b600181019050610aa1565b505050565b601f821115610b135782821115610b1257610adf816109a1565b610ae8836109b3565b610af1856109b3565b6020861015610afe575f90505b808301610b0d82840382610a9f565b505050505b5b505050565b5f82821c905092915050565b5f610b335f1984600802610b18565b1980831691505092915050565b5f610b4b8383610b24565b9150826002028217905092915050565b610b648261093a565b67ffffffffffffffff811115610b7d57610b7c610515565b5b610b878254610971565b610b92828285610ac5565b5f60209050601f831160018114610bc3575f8415610bb1578287015190505b610bbb8582610b40565b865550610c22565b601f198416610bd1866109a1565b5f5b82811015610bf857848901518255600182019150602085019450602081019050610bd3565b86831015610c155784890151610c11601f891682610b24565b8355505b6001600288020188555050505b505050505050565b5f63ffffffff82169050919050565b610c4281610c2a565b82525050565b610c5181610a1f565b82525050565b5f8154610c6381610971565b610c6d8186610722565b9450600182165f8114610c875760018114610c9d57610ccf565b60ff198316865281151560200286019350610ccf565b610ca6856109a1565b5f5b83811015610cc757815481890152600182019150602081019050610ca8565b808801955050505b50505092915050565b5f606082019050610ceb5f830186610c39565b610cf86020830185610c48565b8181036040830152610d0a8184610c57565b9050949350505050565b608051613784610d335f395f818161051b0152611ab901526137845ff3fe608060405234801561000f575f5ffd5b50600436106101c2575f3560e01c80637c56687a116100f7578063e914d58c11610095578063f2fde38b1161006f578063f2fde38b14610484578063f664a16e146104a0578063f68016b7146104be578063fc2a88c3146104dc576101c2565b8063e914d58c1461042e578063ea7b4f771461044a578063ecf7139b14610466576101c2565b80638dbe7b9d116100d15780638dbe7b9d146103ba57806399d25455146103d8578063d0b06f5d146103f4578063e8c75a3014610412576101c2565b80637c56687a146103625780638367e1201461037e5780638da5cb5b1461039c576101c2565b806352d84c621161016457806362747e421161013e57806362747e421461030057806367e828bf1461031e578063715018a61461033c57806378ca5de714610346576101c2565b806352d84c621461029657806356c5eb06146102b25780635f3749d9146102e2576101c2565b8063186f34d5116101a0578063186f34d51461021e57806329f0de3f1461023c5780633e5d0ee01461025a5780634d056f6d14610278576101c2565b80630964ff26146101c657806309c1ba2e146101e45780630ca7617514610202575b5f5ffd5b6101ce6104fa565b6040516101db9190612341565b60405180910390f35b6101ec610500565b6040516101f9919061237c565b60405180910390f35b61021c60048036038101906102179190612515565b610519565b005b6102266105db565b6040516102339190612628565b60405180910390f35b61024461062c565b60405161025191906126a1565b60405180910390f35b6102626106b8565b60405161026f9190612341565b60405180910390f35b6102806106c3565b60405161028d9190612341565b60405180910390f35b6102b060048036038101906102ab91906126fa565b6106c9565b005b6102cc60048036038101906102c7919061277f565b6107fa565b6040516102d99190612341565b60405180910390f35b6102ea610840565b6040516102f791906127b9565b60405180910390f35b610308610b58565b60405161031591906126a1565b60405180910390f35b610326610be4565b6040516103339190612824565b60405180910390f35b610344610c70565b005b610360600480360381019061035b9190612844565b610c83565b005b61037c60048036038101906103779190612899565b610d4b565b005b610386610e15565b6040516103939190612824565b60405180910390f35b6103a4610ea1565b6040516103b191906128d3565b60405180910390f35b6103c2610ec8565b6040516103cf91906127b9565b60405180910390f35b6103f260048036038101906103ed9190612949565b610ece565b005b6103fc610f31565b6040516104099190612341565b60405180910390f35b61042c60048036038101906104279190612949565b610f3d565b005b610448600480360381019061044391906129be565b611012565b005b610464600480360381019061045f9190612a54565b6112ab565b005b61046e61139c565b60405161047b9190612a8e565b60405180910390f35b61049e6004803603810190610499919061277f565b6113b3565b005b6104a8611437565b6040516104b59190612341565b60405180910390f35b6104c661143d565b6040516104d39190612ab6565b60405180910390f35b6104e4611452565b6040516104f191906127b9565b60405180910390f35b600b5481565b60055f9054906101000a900467ffffffffffffffff1681565b7f000000000000000000000000000000000000000000000000000000000000000073ffffffffffffffffffffffffffffffffffffffff163373ffffffffffffffffffffffffffffffffffffffff161461059e576040517fc6829f8300000000000000000000000000000000000000000000000000000000815260040160405180910390fd5b6105a9838383611458565b827f85e1543bf2f84fe80c6badbce3648c8539ad1df4d2b3d822938ca0538be727e660405160405180910390a2505050565b6105e361225c565b60016040518060800160405290815f8201548152602001600182015f9054906101000a900460ff1615151515815260200160028201548152602001600382015481525050905090565b600f805461063990612afc565b80601f016020809104026020016040519081016040528092919081815260200182805461066590612afc565b80156106b05780601f10610687576101008083540402835291602001916106b0565b820191905f5260205f20905b81548152906001019060200180831161069357829003601f168201915b505050505081565b5f60015f0154905090565b600a5481565b6106d16115cc565b5f8163ffffffff1611610719576040517f08c379a000000000000000000000000000000000000000000000000000000000815260040161071090612b76565b60405180910390fd5b620493e08163ffffffff161115610765576040517f08c379a000000000000000000000000000000000000000000000000000000000815260040161075c90612bde565b60405180910390fd5b8060095f6101000a81548163ffffffff021916908363ffffffff16021790555060065460055f9054906101000a900467ffffffffffffffff1667ffffffffffffffff167fbf4e1fc134a654f78502ee3e998525a7fe9f51b7119ba7b682c5cd36dc1b70d760095f9054906101000a900463ffffffff16600a5460086040516107ef93929190612c8f565b60405180910390a350565b5f60105f8373ffffffffffffffffffffffffffffffffffffffff1673ffffffffffffffffffffffffffffffffffffffff1681526020019081526020015f20549050919050565b5f610849610ea1565b73ffffffffffffffffffffffffffffffffffffffff163373ffffffffffffffffffffffffffffffffffffffff161461091b575f600a5460105f3373ffffffffffffffffffffffffffffffffffffffff1673ffffffffffffffffffffffffffffffffffffffff1681526020019081526020015f20546108c79190612cf8565b9050804210156109195742816108dd9190612d2b565b6040517f646afd040000000000000000000000000000000000000000000000000000000081526004016109109190612341565b60405180910390fd5b505b4260105f3373ffffffffffffffffffffffffffffffffffffffff1673ffffffffffffffffffffffffffffffffffffffff1681526020019081526020015f20819055505f600167ffffffffffffffff811115610979576109786123f1565b5b6040519080825280602002602001820160405280156109ac57816020015b60608152602001906001900390816109975790505b509050600880546109bc90612afc565b80601f01602080910402602001604051908101604052809291908181526020018280546109e890612afc565b8015610a335780601f10610a0a57610100808354040283529160200191610a33565b820191905f5260205f20905b815481529060010190602001808311610a1657829003601f168201915b5050505050815f81518110610a4b57610a4a612d5e565b5b6020026020010181905250610a5e612282565b610af960078054610a6e90612afc565b80601f0160208091040260200160405190810160405280929190818152602001828054610a9a90612afc565b8015610ae55780601f10610abc57610100808354040283529160200191610ae5565b820191905f5260205f20905b815481529060010190602001808311610ac857829003601f168201915b50505050508261165390919063ffffffff16565b610b0c828261166390919063ffffffff16565b610b48610b18826116aa565b60055f9054906101000a900467ffffffffffffffff1660095f9054906101000a900463ffffffff16600654611ab5565b600d81905550600d549250505090565b600e8054610b6590612afc565b80601f0160208091040260200160405190810160405280929190818152602001828054610b9190612afc565b8015610bdc5780601f10610bb357610100808354040283529160200191610bdc565b820191905f5260205f20905b815481529060010190602001808311610bbf57829003601f168201915b505050505081565b60078054610bf190612afc565b80601f0160208091040260200160405190810160405280929190818152602001828054610c1d90612afc565b8015610c685780601f10610c3f57610100808354040283529160200191610c68565b820191905f5260205f20905b815481529060010190602001808311610c4b57829003601f168201915b505050505081565b610c786115cc565b610c815f611b94565b565b610c8b6115cc565b5f5f1b8103610ccf576040517f08c379a0000000000000000000000000000000000000000000000000000000008152600401610cc690612dd5565b60405180910390fd5b8060068190555060065460055f9054906101000a900467ffffffffffffffff1667ffffffffffffffff167fbf4e1fc134a654f78502ee3e998525a7fe9f51b7119ba7b682c5cd36dc1b70d760095f9054906101000a900463ffffffff16600a546008604051610d4093929190612c8f565b60405180910390a350565b610d536115cc565b62015180811115610d99576040517f08c379a0000000000000000000000000000000000000000000000000000000008152600401610d9090612e3d565b60405180910390fd5b80600a8190555060065460055f9054906101000a900467ffffffffffffffff1667ffffffffffffffff167fbf4e1fc134a654f78502ee3e998525a7fe9f51b7119ba7b682c5cd36dc1b70d760095f9054906101000a900463ffffffff16600a546008604051610e0a93929190612c8f565b60405180910390a350565b60088054610e2290612afc565b80601f0160208091040260200160405190810160405280929190818152602001828054610e4e90612afc565b8015610e995780601f10610e7057610100808354040283529160200191610e99565b820191905f5260205f20905b815481529060010190602001808311610e7c57829003601f168201915b505050505081565b5f5f5f9054906101000a900473ffffffffffffffffffffffffffffffffffffffff16905090565b60065481565b610ed66115cc565b5f8282905011610f1b576040517f08c379a0000000000000000000000000000000000000000000000000000000008152600401610f1290612ea5565b60405180910390fd5b818160079182610f2c92919061306c565b505050565b5f600160020154905090565b610f456115cc565b5f8282905011610f8a576040517f08c379a0000000000000000000000000000000000000000000000000000000008152600401610f8190613183565b60405180910390fd5b818160089182610f9b92919061306c565b5060065460055f9054906101000a900467ffffffffffffffff1667ffffffffffffffff167fbf4e1fc134a654f78502ee3e998525a7fe9f51b7119ba7b682c5cd36dc1b70d760095f9054906101000a900463ffffffff16600a54600860405161100693929190612c8f565b60405180910390a35050565b61101a6115cc565b5f8667ffffffffffffffff1603611066576040517f08c379a000000000000000000000000000000000000000000000000000000000815260040161105d906131eb565b60405180910390fd5b5f5f1b85036110aa576040517f08c379a00000000000000000000000000000000000000000000000000000000081526004016110a190612dd5565b60405180910390fd5b5f8463ffffffff16116110f2576040517f08c379a00000000000000000000000000000000000000000000000000000000081526004016110e990612b76565b60405180910390fd5b620493e08463ffffffff16111561113e576040517f08c379a000000000000000000000000000000000000000000000000000000000815260040161113590612bde565b60405180910390fd5b62015180831115611184576040517f08c379a000000000000000000000000000000000000000000000000000000000815260040161117b90612e3d565b60405180910390fd5b5f82829050116111c9576040517f08c379a00000000000000000000000000000000000000000000000000000000081526004016111c090613183565b60405180910390fd5b8560055f6101000a81548167ffffffffffffffff021916908367ffffffffffffffff160217905550846006819055508360095f6101000a81548163ffffffff021916908363ffffffff16021790555082600a8190555081816008918261123092919061306c565b5060065460055f9054906101000a900467ffffffffffffffff1667ffffffffffffffff167fbf4e1fc134a654f78502ee3e998525a7fe9f51b7119ba7b682c5cd36dc1b70d760095f9054906101000a900463ffffffff16600a54600860405161129b93929190612c8f565b60405180910390a3505050505050565b6112b36115cc565b5f8167ffffffffffffffff16036112ff576040517f08c379a00000000000000000000000000000000000000000000000000000000081526004016112f6906131eb565b60405180910390fd5b8060055f6101000a81548167ffffffffffffffff021916908367ffffffffffffffff16021790555060065460055f9054906101000a900467ffffffffffffffff1667ffffffffffffffff167fbf4e1fc134a654f78502ee3e998525a7fe9f51b7119ba7b682c5cd36dc1b70d760095f9054906101000a900463ffffffff16600a54600860405161139193929190612c8f565b60405180910390a350565b5f600180015f9054906101000a900460ff16905090565b6113bb6115cc565b5f73ffffffffffffffffffffffffffffffffffffffff168173ffffffffffffffffffffffffffffffffffffffff160361142b575f6040517f1e4fbdf700000000000000000000000000000000000000000000000000000000815260040161142291906128d3565b60405180910390fd5b61143481611b94565b50565b600c5481565b60095f9054906101000a900463ffffffff1681565b600d5481565b82600d541461149e57826040517fd068bf5b00000000000000000000000000000000000000000000000000000000815260040161149591906127b9565b60405180910390fd5b80600f90816114ad919061326e565b5081600e90816114bd919061326e565b505f8251111561158d575f5f5f5f858060200190518101906114df919061338f565b9350935093509350604051806080016040528085815260200184151581526020018381526020018281525060015f820151815f01556020820151816001015f6101000a81548160ff0219169083151502179055506040820151816002015560608201518160030155905050867f5fe1c9595354b2d498ce7822dd270607c5e3f87172b0eb5ed29f2bbfd5dcc5478585858560405161158094939291906133f3565b60405180910390a2505050505b827f7873807bf6ddc50401cd3d29bbe0decee23fd4d68d273f4b5eb83cded4d2f17283836040516115bf929190613436565b60405180910390a2505050565b6115d4611c55565b73ffffffffffffffffffffffffffffffffffffffff166115f2610ea1565b73ffffffffffffffffffffffffffffffffffffffff161461165157611615611c55565b6040517f118cdaa700000000000000000000000000000000000000000000000000000000815260040161164891906128d3565b60405180910390fd5b565b61165f825f5f84611c5c565b5050565b5f81510361169d576040517ffe936cb700000000000000000000000000000000000000000000000000000000815260040160405180910390fd5b808260a001819052505050565b60605f6116b8610100611d02565b90506117026040518060400160405280600c81526020017f636f64654c6f636174696f6e000000000000000000000000000000000000000081525082611d2790919063ffffffff16565b61172a835f0151600281111561171b5761171a61346b565b5b82611d4f90919063ffffffff16565b6117726040518060400160405280600881526020017f6c616e677561676500000000000000000000000000000000000000000000000081525082611d2790919063ffffffff16565b61179a83604001515f81111561178b5761178a61346b565b5b82611d4f90919063ffffffff16565b6117e26040518060400160405280600681526020017f736f75726365000000000000000000000000000000000000000000000000000081525082611d2790919063ffffffff16565b6117f9836060015182611d2790919063ffffffff16565b5f8360a001515111156118b05761184e6040518060400160405280600481526020017f617267730000000000000000000000000000000000000000000000000000000081525082611d2790919063ffffffff16565b61185781611d9e565b5f5f90505b8360a00151518110156118a55761189a8460a00151828151811061188357611882612d5e565b5b602002602001015183611d2790919063ffffffff16565b80600101905061185c565b506118af81611dc6565b5b5f83608001515111156119ef575f60028111156118d0576118cf61346b565b5b836020015160028111156118e7576118e661346b565b5b0361191e576040517fa80d31f700000000000000000000000000000000000000000000000000000000815260040160405180910390fd5b6119666040518060400160405280600f81526020017f736563726574734c6f636174696f6e000000000000000000000000000000000081525082611d2790919063ffffffff16565b61198f836020015160028111156119805761197f61346b565b5b82611d4f90919063ffffffff16565b6119d76040518060400160405280600781526020017f736563726574730000000000000000000000000000000000000000000000000081525082611d2790919063ffffffff16565b6119ee836080015182611dee90919063ffffffff16565b5b5f8360c00151511115611aa657611a446040518060400160405280600981526020017f627974657341726773000000000000000000000000000000000000000000000081525082611d2790919063ffffffff16565b611a4d81611d9e565b5f5f90505b8360c0015151811015611a9b57611a908460c001518281518110611a7957611a78612d5e565b5b602002602001015183611dee90919063ffffffff16565b806001019050611a52565b50611aa581611dc6565b5b805f01515f0151915050919050565b5f5f7f000000000000000000000000000000000000000000000000000000000000000073ffffffffffffffffffffffffffffffffffffffff1663461d27628688600188886040518663ffffffff1660e01b8152600401611b199594939291906134b4565b6020604051808303815f875af1158015611b35573d5f5f3e3d5ffd5b505050506040513d601f19601f82011682018060405250810190611b59919061350c565b9050807f1131472297a800fee664d1d89cfa8f7676ff07189ecc53f80bbb5f4969099db860405160405180910390a280915050949350505050565b5f5f5f9054906101000a900473ffffffffffffffffffffffffffffffffffffffff169050815f5f6101000a81548173ffffffffffffffffffffffffffffffffffffffff021916908373ffffffffffffffffffffffffffffffffffffffff1602179055508173ffffffffffffffffffffffffffffffffffffffff168173ffffffffffffffffffffffffffffffffffffffff167f8be0079c531659141344cd1fd0a4f28419497f9722a3daafe3b4186f6b6457e060405160405180910390a35050565b5f33905090565b5f815103611c96576040517f22ce3edd00000000000000000000000000000000000000000000000000000000815260040160405180910390fd5b82845f01906002811115611cad57611cac61346b565b5b90816002811115611cc157611cc061346b565b5b815250508184604001905f811115611cdc57611cdb61346b565b5b90815f811115611cef57611cee61346b565b5b8152505080846060018190525050505050565b611d0a6122f1565b611d17815f015183611e16565b505f816020018181525050919050565b611d348260038351611e8c565b611d4a81835f015161202c90919063ffffffff16565b505050565b611d7060026005600660ff16901b17835f015161204890919063ffffffff16565b50611d9a8282604051602001611d869190612341565b604051602081830303815290604052611dee565b5050565b611da98160046120af565b600181602001818151611dbc9190612cf8565b9150818152505050565b611dd18160076120af565b600181602001818151611de49190612d2b565b9150818152505050565b611dfb8260028351611e8c565b611e1181835f015161202c90919063ffffffff16565b505050565b611e1e612310565b5f602083611e2c9190613564565b14611e5857602082611e3e9190613564565b6020611e4a9190612d2b565b82611e559190612cf8565b91505b818360200181815250506040518084525f815282810160200181811015611e7d575f5ffd5b80604052505082905092915050565b60178167ffffffffffffffff1611611ec657611ec08160058460ff16901b60ff1617845f015161204890919063ffffffff16565b50612027565b60ff8167ffffffffffffffff1611611f2257611ef8601860058460ff16901b17845f015161204890919063ffffffff16565b50611f1c8167ffffffffffffffff166001855f01516120d49092919063ffffffff16565b50612026565b61ffff8167ffffffffffffffff1611611f7f57611f55601960058460ff16901b17845f015161204890919063ffffffff16565b50611f798167ffffffffffffffff166002855f01516120d49092919063ffffffff16565b50612025565b63ffffffff8167ffffffffffffffff1611611fde57611fb4601a60058460ff16901b17845f015161204890919063ffffffff16565b50611fd88167ffffffffffffffff166004855f01516120d49092919063ffffffff16565b50612024565b611ffe601b60058460ff16901b17845f015161204890919063ffffffff16565b506120228167ffffffffffffffff166008855f01516120d49092919063ffffffff16565b505b5b5b5b505050565b612034612310565b6120408383845161215d565b905092915050565b612050612310565b5f835f01515190505f6001826120669190612cf8565b90508460200151821061208a57612089856002836120849190613594565b61223a565b5b845160208382010185815381518311156120a2578282525b5050849250505092915050565b6120cf601f60058360ff16901b17835f015161204890919063ffffffff16565b505050565b6120dc612310565b5f845f01515190505f81846120f19190612cf8565b9050856020015181111561211657612115866002836121109190613594565b61223a565b5b5f6001856101006121279190613704565b6121319190612d2b565b90508651828101878319825116178152815184111561214e578382525b50508693505050509392505050565b612165612310565b8251821115612172575f5ffd5b5f845f01515190505f83826121879190612cf8565b905085602001518111156121ac576121ab866002836121a69190613594565b61223a565b5b5f5f875180518560208301019350808511156121c6578482525b60208901925050505b6020861061220d57805182526020826121e89190612cf8565b91506020816121f79190612cf8565b90506020866122069190612d2b565b95506121cf565b5f6001876020036101000a0390508019825116818451168181178552505050879450505050509392505050565b5f825f0151905061224b8383611e16565b50612256838261202c565b50505050565b60405180608001604052805f81526020015f151581526020015f81526020015f81525090565b6040518060e001604052805f60028111156122a05761229f61346b565b5b81526020015f60028111156122b8576122b761346b565b5b81526020015f5f8111156122cf576122ce61346b565b5b8152602001606081526020016060815260200160608152602001606081525090565b6040518060400160405280612304612310565b81526020015f81525090565b6040518060400160405280606081526020015f81525090565b5f819050919050565b61233b81612329565b82525050565b5f6020820190506123545f830184612332565b92915050565b5f67ffffffffffffffff82169050919050565b6123768161235a565b82525050565b5f60208201905061238f5f83018461236d565b92915050565b5f604051905090565b5f5ffd5b5f5ffd5b5f819050919050565b6123b8816123a6565b81146123c2575f5ffd5b50565b5f813590506123d3816123af565b92915050565b5f5ffd5b5f5ffd5b5f601f19601f8301169050919050565b7f4e487b71000000000000000000000000000000000000000000000000000000005f52604160045260245ffd5b612427826123e1565b810181811067ffffffffffffffff82111715612446576124456123f1565b5b80604052505050565b5f612458612395565b9050612464828261241e565b919050565b5f67ffffffffffffffff821115612483576124826123f1565b5b61248c826123e1565b9050602081019050919050565b828183375f83830152505050565b5f6124b96124b484612469565b61244f565b9050828152602081018484840111156124d5576124d46123dd565b5b6124e0848285612499565b509392505050565b5f82601f8301126124fc576124fb6123d9565b5b813561250c8482602086016124a7565b91505092915050565b5f5f5f6060848603121561252c5761252b61239e565b5b5f612539868287016123c5565b935050602084013567ffffffffffffffff81111561255a576125596123a2565b5b612566868287016124e8565b925050604084013567ffffffffffffffff811115612587576125866123a2565b5b612593868287016124e8565b9150509250925092565b6125a681612329565b82525050565b5f8115159050919050565b6125c0816125ac565b82525050565b6125cf816123a6565b82525050565b608082015f8201516125e95f85018261259d565b5060208201516125fc60208501826125b7565b50604082015161260f604085018261259d565b50606082015161262260608501826125c6565b50505050565b5f60808201905061263b5f8301846125d5565b92915050565b5f81519050919050565b5f82825260208201905092915050565b8281835e5f83830152505050565b5f61267382612641565b61267d818561264b565b935061268d81856020860161265b565b612696816123e1565b840191505092915050565b5f6020820190508181035f8301526126b98184612669565b905092915050565b5f63ffffffff82169050919050565b6126d9816126c1565b81146126e3575f5ffd5b50565b5f813590506126f4816126d0565b92915050565b5f6020828403121561270f5761270e61239e565b5b5f61271c848285016126e6565b91505092915050565b5f73ffffffffffffffffffffffffffffffffffffffff82169050919050565b5f61274e82612725565b9050919050565b61275e81612744565b8114612768575f5ffd5b50565b5f8135905061277981612755565b92915050565b5f602082840312156127945761279361239e565b5b5f6127a18482850161276b565b91505092915050565b6127b3816123a6565b82525050565b5f6020820190506127cc5f8301846127aa565b92915050565b5f81519050919050565b5f82825260208201905092915050565b5f6127f6826127d2565b61280081856127dc565b935061281081856020860161265b565b612819816123e1565b840191505092915050565b5f6020820190508181035f83015261283c81846127ec565b905092915050565b5f602082840312156128595761285861239e565b5b5f612866848285016123c5565b91505092915050565b61287881612329565b8114612882575f5ffd5b50565b5f813590506128938161286f565b92915050565b5f602082840312156128ae576128ad61239e565b5b5f6128bb84828501612885565b91505092915050565b6128cd81612744565b82525050565b5f6020820190506128e65f8301846128c4565b92915050565b5f5ffd5b5f5ffd5b5f5f83601f840112612909576129086123d9565b5b8235905067ffffffffffffffff811115612926576129256128ec565b5b602083019150836001820283011115612942576129416128f0565b5b9250929050565b5f5f6020838503121561295f5761295e61239e565b5b5f83013567ffffffffffffffff81111561297c5761297b6123a2565b5b612988858286016128f4565b92509250509250929050565b61299d8161235a565b81146129a7575f5ffd5b50565b5f813590506129b881612994565b92915050565b5f5f5f5f5f5f60a087890312156129d8576129d761239e565b5b5f6129e589828a016129aa565b96505060206129f689828a016123c5565b9550506040612a0789828a016126e6565b9450506060612a1889828a01612885565b935050608087013567ffffffffffffffff811115612a3957612a386123a2565b5b612a4589828a016128f4565b92509250509295509295509295565b5f60208284031215612a6957612a6861239e565b5b5f612a76848285016129aa565b91505092915050565b612a88816125ac565b82525050565b5f602082019050612aa15f830184612a7f565b92915050565b612ab0816126c1565b82525050565b5f602082019050612ac95f830184612aa7565b92915050565b7f4e487b71000000000000000000000000000000000000000000000000000000005f52602260045260245ffd5b5f6002820490506001821680612b1357607f821691505b602082108103612b2657612b25612acf565b5b50919050565b7f7a65726f206761734c696d6974000000000000000000000000000000000000005f82015250565b5f612b60600d836127dc565b9150612b6b82612b2c565b602082019050919050565b5f6020820190508181035f830152612b8d81612b54565b9050919050565b7f6761734c696d697420746f6f20686967680000000000000000000000000000005f82015250565b5f612bc86011836127dc565b9150612bd382612b94565b602082019050919050565b5f6020820190508181035f830152612bf581612bbc565b9050919050565b5f819050815f5260205f209050919050565b5f8154612c1a81612afc565b612c2481866127dc565b9450600182165f8114612c3e5760018114612c5457612c86565b60ff198316865281151560200286019350612c86565b612c5d85612bfc565b5f5b83811015612c7e57815481890152600182019150602081019050612c5f565b808801955050505b50505092915050565b5f606082019050612ca25f830186612aa7565b612caf6020830185612332565b8181036040830152612cc18184612c0e565b9050949350505050565b7f4e487b71000000000000000000000000000000000000000000000000000000005f52601160045260245ffd5b5f612d0282612329565b9150612d0d83612329565b9250828201905080821115612d2557612d24612ccb565b5b92915050565b5f612d3582612329565b9150612d4083612329565b9250828203905081811115612d5857612d57612ccb565b5b92915050565b7f4e487b71000000000000000000000000000000000000000000000000000000005f52603260045260245ffd5b7f62616420646f6e496400000000000000000000000000000000000000000000005f82015250565b5f612dbf6009836127dc565b9150612dca82612d8b565b602082019050919050565b5f6020820190508181035f830152612dec81612db3565b9050919050565b7f636f6f6c446f776e20746f6f206c6f6e670000000000000000000000000000005f82015250565b5f612e276011836127dc565b9150612e3282612df3565b602082019050919050565b5f6020820190508181035f830152612e5481612e1b565b9050919050565b7f656d70747920736f7572636500000000000000000000000000000000000000005f82015250565b5f612e8f600c836127dc565b9150612e9a82612e5b565b602082019050919050565b5f6020820190508181035f830152612ebc81612e83565b9050919050565b5f82905092915050565b5f6020601f8301049050919050565b5f82821b905092915050565b5f60088302612f177fffffffffffffffffffffffffffffffffffffffffffffffffffffffffffffffff82612edc565b612f218683612edc565b95508019841693508086168417925050509392505050565b5f819050919050565b5f612f5c612f57612f5284612329565b612f39565b612329565b9050919050565b5f819050919050565b612f7583612f42565b612f89612f8182612f63565b848454612ee8565b825550505050565b5f5f905090565b612fa0612f91565b612fab818484612f6c565b505050565b5f5b82811015612fd157612fc65f828401612f98565b600181019050612fb2565b505050565b601f821115613024578282111561302357612ff081612bfc565b612ff983612ecd565b61300285612ecd565b602086101561300f575f90505b80830161301e82840382612fb0565b505050505b5b505050565b5f82821c905092915050565b5f6130445f1984600802613029565b1980831691505092915050565b5f61305c8383613035565b9150826002028217905092915050565b6130768383612ec3565b67ffffffffffffffff81111561308f5761308e6123f1565b5b6130998254612afc565b6130a4828285612fd6565b5f601f8311600181146130d1575f84156130bf578287013590505b6130c98582613051565b865550613130565b601f1984166130df86612bfc565b5f5b82811015613106578489013582556001820191506020850194506020810190506130e1565b86831015613123578489013561311f601f891682613035565b8355505b6001600288020188555050505b50505050505050565b7f656d7074792061706955726c00000000000000000000000000000000000000005f82015250565b5f61316d600c836127dc565b915061317882613139565b602082019050919050565b5f6020820190508181035f83015261319a81613161565b9050919050565b7f62616420737562736372697074696f6e496400000000000000000000000000005f82015250565b5f6131d56012836127dc565b91506131e0826131a1565b602082019050919050565b5f6020820190508181035f830152613202816131c9565b9050919050565b5f819050815f5260205f209050919050565b601f82111561326957828211156132685761323581613209565b61323e83612ecd565b61324785612ecd565b6020861015613254575f90505b80830161326382840382612fb0565b505050505b5b505050565b61327782612641565b67ffffffffffffffff8111156132905761328f6123f1565b5b61329a8254612afc565b6132a582828561321b565b5f60209050601f8311600181146132d6575f84156132c4578287015190505b6132ce8582613051565b865550613335565b601f1984166132e486613209565b5f5b8281101561330b578489015182556001820191506020850194506020810190506132e6565b868310156133285784890151613324601f891682613035565b8355505b6001600288020188555050505b505050505050565b5f8151905061334b8161286f565b92915050565b61335a816125ac565b8114613364575f5ffd5b50565b5f8151905061337581613351565b92915050565b5f81519050613389816123af565b92915050565b5f5f5f5f608085870312156133a7576133a661239e565b5b5f6133b48782880161333d565b94505060206133c587828801613367565b93505060406133d68782880161333d565b92505060606133e78782880161337b565b91505092959194509250565b5f6080820190506134065f830187612332565b6134136020830186612a7f565b6134206040830185612332565b61342d60608301846127aa565b95945050505050565b5f6040820190508181035f83015261344e8185612669565b905081810360208301526134628184612669565b90509392505050565b7f4e487b71000000000000000000000000000000000000000000000000000000005f52602160045260245ffd5b5f61ffff82169050919050565b6134ae81613498565b82525050565b5f60a0820190506134c75f83018861236d565b81810360208301526134d98187612669565b90506134e860408301866134a5565b6134f56060830185612aa7565b61350260808301846127aa565b9695505050505050565b5f602082840312156135215761352061239e565b5b5f61352e8482850161337b565b91505092915050565b7f4e487b71000000000000000000000000000000000000000000000000000000005f52601260045260245ffd5b5f61356e82612329565b915061357983612329565b92508261358957613588613537565b5b828206905092915050565b5f61359e82612329565b91506135a983612329565b92508282026135b781612329565b915082820484148315176135ce576135cd612ccb565b5b5092915050565b5f8160011c9050919050565b5f5f8291508390505b600185111561362a5780860481111561360657613605612ccb565b5b60018516156136155780820291505b8081029050613623856135d5565b94506135ea565b94509492505050565b5f8261364257600190506136fd565b8161364f575f90506136fd565b8160018114613665576002811461366f5761369e565b60019150506136fd565b60ff84111561368157613680612ccb565b5b8360020a91508482111561369857613697612ccb565b5b506136fd565b5060208310610133831016604e8410600b84101617156136d35782820a9050838111156136ce576136cd612ccb565b5b6136fd565b6136e084848460016135e1565b925090508184048111156136f7576136f6612ccb565b5b81810290505b9392505050565b5f61370e82612329565b915061371983612329565b92506137467fffffffffffffffffffffffffffffffffffffffffffffffffffffffffffffffff8484613633565b90509291505056fea2646970667358221220b8ae415c209633543aa81f6aafcaf0350f3cd9b15fa8f405f0c1c6df7be8893964736f6c63430008220033",
			"opcodes": "PUSH1 0xA0 PUSH1 0x40 MSTORE PUSH3 0x493E0 PUSH1 0x9 PUSH0 PUSH2 0x100 EXP DUP2 SLOAD DUP2 PUSH4 0xFFFFFFFF MUL NOT AND SWAP1 DUP4 PUSH4 0xFFFFFFFF AND MUL OR SWAP1 SSTORE POP PUSH2 0x258 PUSH1 0xA SSTORE CALLVALUE DUP1 ISZERO PUSH2 0x38 JUMPI PUSH0 PUSH0 REVERT JUMPDEST POP PUSH1 0x40 MLOAD PUSH2 0x44B7 CODESIZE SUB DUP1 PUSH2 0x44B7 DUP4 CODECOPY DUP2 DUP2 ADD PUSH1 0x40 MSTORE DUP2 ADD SWAP1 PUSH2 0x5A SWAP2 SWAP1 PUSH2 0x639 JUMP JUMPDEST DUP6 DUP5 DUP1 PUSH20 0xFFFFFFFFFFFFFFFFFFFFFFFFFFFFFFFFFFFFFFFF AND PUSH1 0x80 DUP2 PUSH20 0xFFFFFFFFFFFFFFFFFFFFFFFFFFFFFFFFFFFFFFFF AND DUP2 MSTORE POP POP POP PUSH0 PUSH20 0xFFFFFFFFFFFFFFFFFFFFFFFFFFFFFFFFFFFFFFFF AND DUP2 PUSH20 0xFFFFFFFFFFFFFFFFFFFFFFFFFFFFFFFFFFFFFFFF AND SUB PUSH2 0x101 JUMPI PUSH0 PUSH1 0x40 MLOAD PUSH32 0x1E4FBDF700000000000000000000000000000000000000000000000000000000 DUP2 MSTORE PUSH1 0x4 ADD PUSH2 0xF8 SWAP2 SWAP1 PUSH2 0x709 JUMP JUMPDEST PUSH1 0x40 MLOAD DUP1 SWAP2 SUB SWAP1 REVERT JUMPDEST PUSH2 0x110 DUP2 PUSH2 0x361 PUSH1 0x20 SHL PUSH1 0x20 SHR JUMP JUMPDEST POP PUSH0 DUP6 PUSH8 0xFFFFFFFFFFFFFFFF AND SUB PUSH2 0x15D JUMPI PUSH1 0x40 MLOAD PUSH32 0x8C379A000000000000000000000000000000000000000000000000000000000 DUP2 MSTORE PUSH1 0x4 ADD PUSH2 0x154 SWAP1 PUSH2 0x77C JUMP JUMPDEST PUSH1 0x40 MLOAD DUP1 SWAP2 SUB SWAP1 REVERT JUMPDEST PUSH0 PUSH20 0xFFFFFFFFFFFFFFFFFFFFFFFFFFFFFFFFFFFFFFFF AND DUP5 PUSH20 0xFFFFFFFFFFFFFFFFFFFFFFFFFFFFFFFFFFFFFFFF AND SUB PUSH2 0x1CB JUMPI PUSH1 0x40 MLOAD PUSH32 0x8C379A000000000000000000000000000000000000000000000000000000000 DUP2 MSTORE PUSH1 0x4 ADD PUSH2 0x1C2 SWAP1 PUSH2 0x7E4 JUMP JUMPDEST PUSH1 0x40 MLOAD DUP1 SWAP2 SUB SWAP1 REVERT JUMPDEST PUSH0 PUSH0 SHL DUP4 SUB PUSH2 0x20F JUMPI PUSH1 0x40 MLOAD PUSH32 0x8C379A000000000000000000000000000000000000000000000000000000000 DUP2 MSTORE PUSH1 0x4 ADD PUSH2 0x206 SWAP1 PUSH2 0x84C JUMP JUMPDEST PUSH1 0x40 MLOAD DUP1 SWAP2 SUB SWAP1 REVERT JUMPDEST PUSH0 DUP2 MLOAD GT PUSH2 0x252 JUMPI PUSH1 0x40 MLOAD PUSH32 0x8C379A000000000000000000000000000000000000000000000000000000000 DUP2 MSTORE PUSH1 0x4 ADD PUSH2 0x249 SWAP1 PUSH2 0x8B4 JUMP JUMPDEST PUSH1 0x40 MLOAD DUP1 SWAP2 SUB SWAP1 REVERT JUMPDEST PUSH0 DUP3 MLOAD GT PUSH2 0x295 JUMPI PUSH1 0x40 MLOAD PUSH32 0x8C379A000000000000000000000000000000000000000000000000000000000 DUP2 MSTORE PUSH1 0x4 ADD PUSH2 0x28C SWAP1 PUSH2 0x91C JUMP JUMPDEST PUSH1 0x40 MLOAD DUP1 SWAP2 SUB SWAP1 REVERT JUMPDEST DUP5 PUSH1 0x5 PUSH0 PUSH2 0x100 EXP DUP2 SLOAD DUP2 PUSH8 0xFFFFFFFFFFFFFFFF MUL NOT AND SWAP1 DUP4 PUSH8 0xFFFFFFFFFFFFFFFF AND MUL OR SWAP1 SSTORE POP DUP3 PUSH1 0x6 DUP2 SWAP1 SSTORE POP DUP2 PUSH1 0x7 SWAP1 DUP2 PUSH2 0x2D3 SWAP2 SWAP1 PUSH2 0xB5B JUMP JUMPDEST POP DUP1 PUSH1 0x8 SWAP1 DUP2 PUSH2 0x2E3 SWAP2 SWAP1 PUSH2 0xB5B JUMP JUMPDEST POP PUSH1 0x6 SLOAD PUSH1 0x5 PUSH0 SWAP1 SLOAD SWAP1 PUSH2 0x100 EXP SWAP1 DIV PUSH8 0xFFFFFFFFFFFFFFFF AND PUSH8 0xFFFFFFFFFFFFFFFF AND PUSH32 0xBF4E1FC134A654F78502EE3E998525A7FE9F51B7119BA7B682C5CD36DC1B70D7 PUSH1 0x9 PUSH0 SWAP1 SLOAD SWAP1 PUSH2 0x100 EXP SWAP1 DIV PUSH4 0xFFFFFFFF AND PUSH1 0xA SLOAD PUSH1 0x8 PUSH1 0x40 MLOAD PUSH2 0x34E SWAP4 SWAP3 SWAP2 SWAP1 PUSH2 0xCD8 JUMP JUMPDEST PUSH1 0x40 MLOAD DUP1 SWAP2 SUB SWAP1 LOG3 POP POP POP POP POP POP PUSH2 0xD14 JUMP JUMPDEST PUSH0 PUSH0 PUSH0 SWAP1 SLOAD SWAP1 PUSH2 0x100 EXP SWAP1 DIV PUSH20 0xFFFFFFFFFFFFFFFFFFFFFFFFFFFFFFFFFFFFFFFF AND SWAP1 POP DUP2 PUSH0 PUSH0 PUSH2 0x100 EXP DUP2 SLOAD DUP2 PUSH20 0xFFFFFFFFFFFFFFFFFFFFFFFFFFFFFFFFFFFFFFFF MUL NOT AND SWAP1 DUP4 PUSH20 0xFFFFFFFFFFFFFFFFFFFFFFFFFFFFFFFFFFFFFFFF AND MUL OR SWAP1 SSTORE POP DUP2 PUSH20 0xFFFFFFFFFFFFFFFFFFFFFFFFFFFFFFFFFFFFFFFF AND DUP2 PUSH20 0xFFFFFFFFFFFFFFFFFFFFFFFFFFFFFFFFFFFFFFFF AND PUSH32 0x8BE0079C531659141344CD1FD0A4F28419497F9722A3DAAFE3B4186F6B6457E0 PUSH1 0x40 MLOAD PUSH1 0x40 MLOAD DUP1 SWAP2 SUB SWAP1 LOG3 POP POP JUMP JUMPDEST PUSH0 PUSH1 0x40 MLOAD SWAP1 POP SWAP1 JUMP JUMPDEST PUSH0 PUSH0 REVERT JUMPDEST PUSH0 PUSH0 REVERT JUMPDEST PUSH0 PUSH20 0xFFFFFFFFFFFFFFFFFFFFFFFFFFFFFFFFFFFFFFFF DUP3 AND SWAP1 POP SWAP2 SWAP1 POP JUMP JUMPDEST PUSH0 PUSH2 0x45C DUP3 PUSH2 0x433 JUMP JUMPDEST SWAP1 POP SWAP2 SWAP1 POP JUMP JUMPDEST PUSH2 0x46C DUP2 PUSH2 0x452 JUMP JUMPDEST DUP2 EQ PUSH2 0x476 JUMPI PUSH0 PUSH0 REVERT JUMPDEST POP JUMP JUMPDEST PUSH0 DUP2 MLOAD SWAP1 POP PUSH2 0x487 DUP2 PUSH2 0x463 JUMP JUMPDEST SWAP3 SWAP2 POP POP JUMP JUMPDEST PUSH0 PUSH8 0xFFFFFFFFFFFFFFFF DUP3 AND SWAP1 POP SWAP2 SWAP1 POP JUMP JUMPDEST PUSH2 0x4A9 DUP2 PUSH2 0x48D JUMP JUMPDEST DUP2 EQ PUSH2 0x4B3 JUMPI PUSH0 PUSH0 REVERT JUMPDEST POP JUMP JUMPDEST PUSH0 DUP2 MLOAD SWAP1 POP PUSH2 0x4C4 DUP2 PUSH2 0x4A0 JUMP JUMPDEST SWAP3 SWAP2 POP POP JUMP JUMPDEST PUSH0 DUP2 SWAP1 POP SWAP2 SWAP1 POP JUMP JUMPDEST PUSH2 0x4DC DUP2 PUSH2 0x4CA JUMP JUMPDEST DUP2 EQ PUSH2 0x4E6 JUMPI PUSH0 PUSH0 REVERT JUMPDEST POP JUMP JUMPDEST PUSH0 DUP2 MLOAD SWAP1 POP PUSH2 0x4F7 DUP2 PUSH2 0x4D3 JUMP JUMPDEST SWAP3 SWAP2 POP POP JUMP JUMPDEST PUSH0 PUSH0 REVERT JUMPDEST PUSH0 PUSH0 REVERT JUMPDEST PUSH0 PUSH1 0x1F NOT PUSH1 0x1F DUP4 ADD AND SWAP1 POP SWAP2 SWAP1 POP JUMP JUMPDEST PUSH32 0x4E487B7100000000000000000000000000000000000000000000000000000000 PUSH0 MSTORE PUSH1 0x41 PUSH1 0x4 MSTORE PUSH1 0x24 PUSH0 REVERT JUMPDEST PUSH2 0x54B DUP3 PUSH2 0x505 JUMP JUMPDEST DUP2 ADD DUP2 DUP2 LT PUSH8 0xFFFFFFFFFFFFFFFF DUP3 GT OR ISZERO PUSH2 0x56A JUMPI PUSH2 0x569 PUSH2 0x515 JUMP JUMPDEST JUMPDEST DUP1 PUSH1 0x40 MSTORE POP POP POP JUMP JUMPDEST PUSH0 PUSH2 0x57C PUSH2 0x422 JUMP JUMPDEST SWAP1 POP PUSH2 0x588 DUP3 DUP3 PUSH2 0x542 JUMP JUMPDEST SWAP2 SWAP1 POP JUMP JUMPDEST PUSH0 PUSH8 0xFFFFFFFFFFFFFFFF DUP3 GT ISZERO PUSH2 0x5A7 JUMPI PUSH2 0x5A6 PUSH2 0x515 JUMP JUMPDEST JUMPDEST PUSH2 0x5B0 DUP3 PUSH2 0x505 JUMP JUMPDEST SWAP1 POP PUSH1 0x20 DUP2 ADD SWAP1 POP SWAP2 SWAP1 POP JUMP JUMPDEST DUP3 DUP2 DUP4 MCOPY PUSH0 DUP4 DUP4 ADD MSTORE POP POP POP JUMP JUMPDEST PUSH0 PUSH2 0x5DD PUSH2 0x5D8 DUP5 PUSH2 0x58D JUMP JUMPDEST PUSH2 0x573 JUMP JUMPDEST SWAP1 POP DUP3 DUP2 MSTORE PUSH1 0x20 DUP2 ADD DUP5 DUP5 DUP5 ADD GT ISZERO PUSH2 0x5F9 JUMPI PUSH2 0x5F8 PUSH2 0x501 JUMP JUMPDEST JUMPDEST PUSH2 0x604 DUP5 DUP3 DUP6 PUSH2 0x5BD JUMP JUMPDEST POP SWAP4 SWAP3 POP POP POP JUMP JUMPDEST PUSH0 DUP3 PUSH1 0x1F DUP4 ADD SLT PUSH2 0x620 JUMPI PUSH2 0x61F PUSH2 0x4FD JUMP JUMPDEST JUMPDEST DUP2 MLOAD PUSH2 0x630 DUP5 DUP3 PUSH1 0x20 DUP7 ADD PUSH2 0x5CB JUMP JUMPDEST SWAP2 POP POP SWAP3 SWAP2 POP POP JUMP JUMPDEST PUSH0 PUSH0 PUSH0 PUSH0 PUSH0 PUSH0 PUSH1 0xC0 DUP8 DUP10 SUB SLT ISZERO PUSH2 0x653 JUMPI PUSH2 0x652 PUSH2 0x42B JUMP JUMPDEST JUMPDEST PUSH0 PUSH2 0x660 DUP10 DUP3 DUP11 ADD PUSH2 0x479 JUMP JUMPDEST SWAP7 POP POP PUSH1 0x20 PUSH2 0x671 DUP10 DUP3 DUP11 ADD PUSH2 0x4B6 JUMP JUMPDEST SWAP6 POP POP PUSH1 0x40 PUSH2 0x682 DUP10 DUP3 DUP11 ADD PUSH2 0x479 JUMP JUMPDEST SWAP5 POP POP PUSH1 0x60 PUSH2 0x693 DUP10 DUP3 DUP11 ADD PUSH2 0x4E9 JUMP JUMPDEST SWAP4 POP POP PUSH1 0x80 DUP8 ADD MLOAD PUSH8 0xFFFFFFFFFFFFFFFF DUP2 GT ISZERO PUSH2 0x6B4 JUMPI PUSH2 0x6B3 PUSH2 0x42F JUMP JUMPDEST JUMPDEST PUSH2 0x6C0 DUP10 DUP3 DUP11 ADD PUSH2 0x60C JUMP JUMPDEST SWAP3 POP POP PUSH1 0xA0 DUP8 ADD MLOAD PUSH8 0xFFFFFFFFFFFFFFFF DUP2 GT ISZERO PUSH2 0x6E1 JUMPI PUSH2 0x6E0 PUSH2 0x42F JUMP JUMPDEST JUMPDEST PUSH2 0x6ED DUP10 DUP3 DUP11 ADD PUSH2 0x60C JUMP JUMPDEST SWAP2 POP POP SWAP3 SWAP6 POP SWAP3 SWAP6 POP SWAP3 SWAP6 JUMP JUMPDEST PUSH2 0x703 DUP2 PUSH2 0x452 JUMP JUMPDEST DUP3 MSTORE POP POP JUMP JUMPDEST PUSH0 PUSH1 0x20 DUP3 ADD SWAP1 POP PUSH2 0x71C PUSH0 DUP4 ADD DUP5 PUSH2 0x6FA JUMP JUMPDEST SWAP3 SWAP2 POP POP JUMP JUMPDEST PUSH0 DUP3 DUP3 MSTORE PUSH1 0x20 DUP3 ADD SWAP1 POP SWAP3 SWAP2 POP POP JUMP JUMPDEST PUSH32 0x62616420737562736372697074696F6E49640000000000000000000000000000 PUSH0 DUP3 ADD MSTORE POP JUMP JUMPDEST PUSH0 PUSH2 0x766 PUSH1 0x12 DUP4 PUSH2 0x722 JUMP JUMPDEST SWAP2 POP PUSH2 0x771 DUP3 PUSH2 0x732 JUMP JUMPDEST PUSH1 0x20 DUP3 ADD SWAP1 POP SWAP2 SWAP1 POP JUMP JUMPDEST PUSH0 PUSH1 0x20 DUP3 ADD SWAP1 POP DUP2 DUP2 SUB PUSH0 DUP4 ADD MSTORE PUSH2 0x793 DUP2 PUSH2 0x75A JUMP JUMPDEST SWAP1 POP SWAP2 SWAP1 POP JUMP JUMPDEST PUSH32 0x62616420726F7574657200000000000000000000000000000000000000000000 PUSH0 DUP3 ADD MSTORE POP JUMP JUMPDEST PUSH0 PUSH2 0x7CE PUSH1 0xA DUP4 PUSH2 0x722 JUMP JUMPDEST SWAP2 POP PUSH2 0x7D9 DUP3 PUSH2 0x79A JUMP JUMPDEST PUSH1 0x20 DUP3 ADD SWAP1 POP SWAP2 SWAP1 POP JUMP JUMPDEST PUSH0 PUSH1 0x20 DUP3 ADD SWAP1 POP DUP2 DUP2 SUB PUSH0 DUP4 ADD MSTORE PUSH2 0x7FB DUP2 PUSH2 0x7C2 JUMP JUMPDEST SWAP1 POP SWAP2 SWAP1 POP JUMP JUMPDEST PUSH32 0x62616420646F6E49640000000000000000000000000000000000000000000000 PUSH0 DUP3 ADD MSTORE POP JUMP JUMPDEST PUSH0 PUSH2 0x836 PUSH1 0x9 DUP4 PUSH2 0x722 JUMP JUMPDEST SWAP2 POP PUSH2 0x841 DUP3 PUSH2 0x802 JUMP JUMPDEST PUSH1 0x20 DUP3 ADD SWAP1 POP SWAP2 SWAP1 POP JUMP JUMPDEST PUSH0 PUSH1 0x20 DUP3 ADD SWAP1 POP DUP2 DUP2 SUB PUSH0 DUP4 ADD MSTORE PUSH2 0x863 DUP2 PUSH2 0x82A JUMP JUMPDEST SWAP1 POP SWAP2 SWAP1 POP JUMP JUMPDEST PUSH32 0x656D7074792061706955726C0000000000000000000000000000000000000000 PUSH0 DUP3 ADD MSTORE POP JUMP JUMPDEST PUSH0 PUSH2 0x89E PUSH1 0xC DUP4 PUSH2 0x722 JUMP JUMPDEST SWAP2 POP PUSH2 0x8A9 DUP3 PUSH2 0x86A JUMP JUMPDEST PUSH1 0x20 DUP3 ADD SWAP1 POP SWAP2 SWAP1 POP JUMP JUMPDEST PUSH0 PUSH1 0x20 DUP3 ADD SWAP1 POP DUP2 DUP2 SUB PUSH0 DUP4 ADD MSTORE PUSH2 0x8CB DUP2 PUSH2 0x892 JUMP JUMPDEST SWAP1 POP SWAP2 SWAP1 POP JUMP JUMPDEST PUSH32 0x656D70747920736F757263650000000000000000000000000000000000000000 PUSH0 DUP3 ADD MSTORE POP JUMP JUMPDEST PUSH0 PUSH2 0x906 PUSH1 0xC DUP4 PUSH2 0x722 JUMP JUMPDEST SWAP2 POP PUSH2 0x911 DUP3 PUSH2 0x8D2 JUMP JUMPDEST PUSH1 0x20 DUP3 ADD SWAP1 POP SWAP2 SWAP1 POP JUMP JUMPDEST PUSH0 PUSH1 0x20 DUP3 ADD SWAP1 POP DUP2 DUP2 SUB PUSH0 DUP4 ADD MSTORE PUSH2 0x933 DUP2 PUSH2 0x8FA JUMP JUMPDEST SWAP1 POP SWAP2 SWAP1 POP JUMP JUMPDEST PUSH0 DUP2 MLOAD SWAP1 POP SWAP2 SWAP1 POP JUMP JUMPDEST PUSH32 0x4E487B7100000000000000000000000000000000000000000000000000000000 PUSH0 MSTORE PUSH1 0x22 PUSH1 0x4 MSTORE PUSH1 0x24 PUSH0 REVERT JUMPDEST PUSH0 PUSH1 0x2 DUP3 DIV SWAP1 POP PUSH1 0x1 DUP3 AND DUP1 PUSH2 0x988 JUMPI PUSH1 0x7F DUP3 AND SWAP2 POP JUMPDEST PUSH1 0x20 DUP3 LT DUP2 SUB PUSH2 0x99B JUMPI PUSH2 0x99A PUSH2 0x944 JUMP JUMPDEST JUMPDEST POP SWAP2 SWAP1 POP JUMP JUMPDEST PUSH0 DUP2 SWAP1 POP DUP2 PUSH0 MSTORE PUSH1 0x20 PUSH0 KECCAK256 SWAP1 POP SWAP2 SWAP1 POP JUMP JUMPDEST PUSH0 PUSH1 0x20 PUSH1 0x1F DUP4 ADD DIV SWAP1 POP SWAP2 SWAP1 POP JUMP JUMPDEST PUSH0 DUP3 DUP3 SHL SWAP1 POP SWAP3 SWAP2 POP POP JUMP JUMPDEST PUSH0 PUSH1 0x8 DUP4 MUL PUSH2 0x9FD PUSH32 0xFFFFFFFFFFFFFFFFFFFFFFFFFFFFFFFFFFFFFFFFFFFFFFFFFFFFFFFFFFFFFFFF DUP3 PUSH2 0x9C2 JUMP JUMPDEST PUSH2 0xA07 DUP7 DUP4 PUSH2 0x9C2 JUMP JUMPDEST SWAP6 POP DUP1 NOT DUP5 AND SWAP4 POP DUP1 DUP7 AND DUP5 OR SWAP3 POP POP POP SWAP4 SWAP3 POP POP POP JUMP JUMPDEST PUSH0 DUP2 SWAP1 POP SWAP2 SWAP1 POP JUMP JUMPDEST PUSH0 DUP2 SWAP1 POP SWAP2 SWAP1 POP JUMP JUMPDEST PUSH0 PUSH2 0xA4B PUSH2 0xA46 PUSH2 0xA41 DUP5 PUSH2 0xA1F JUMP JUMPDEST PUSH2 0xA28 JUMP JUMPDEST PUSH2 0xA1F JUMP JUMPDEST SWAP1 POP SWAP2 SWAP1 POP JUMP JUMPDEST PUSH0 DUP2 SWAP1 POP SWAP2 SWAP1 POP JUMP JUMPDEST PUSH2 0xA64 DUP4 PUSH2 0xA31 JUMP JUMPDEST PUSH2 0xA78 PUSH2 0xA70 DUP3 PUSH2 0xA52 JUMP JUMPDEST DUP5 DUP5 SLOAD PUSH2 0x9CE JUMP JUMPDEST DUP3 SSTORE POP POP POP POP JUMP JUMPDEST PUSH0 PUSH0 SWAP1 POP SWAP1 JUMP JUMPDEST PUSH2 0xA8F PUSH2 0xA80 JUMP JUMPDEST PUSH2 0xA9A DUP2 DUP5 DUP5 PUSH2 0xA5B JUMP JUMPDEST POP POP POP JUMP JUMPDEST PUSH0 JUMPDEST DUP3 DUP2 LT ISZERO PUSH2 0xAC0 JUMPI PUSH2 0xAB5 PUSH0 DUP3 DUP5 ADD PUSH2 0xA87 JUMP JUMPDEST PUSH1 0x1 DUP2 ADD SWAP1 POP PUSH2 0xAA1 JUMP JUMPDEST POP POP POP JUMP JUMPDEST PUSH1 0x1F DUP3 GT ISZERO PUSH2 0xB13 JUMPI DUP3 DUP3 GT ISZERO PUSH2 0xB12 JUMPI PUSH2 0xADF DUP2 PUSH2 0x9A1 JUMP JUMPDEST PUSH2 0xAE8 DUP4 PUSH2 0x9B3 JUMP JUMPDEST PUSH2 0xAF1 DUP6 PUSH2 0x9B3 JUMP JUMPDEST PUSH1 0x20 DUP7 LT ISZERO PUSH2 0xAFE JUMPI PUSH0 SWAP1 POP JUMPDEST DUP1 DUP4 ADD PUSH2 0xB0D DUP3 DUP5 SUB DUP3 PUSH2 0xA9F JUMP JUMPDEST POP POP POP POP JUMPDEST JUMPDEST POP POP POP JUMP JUMPDEST PUSH0 DUP3 DUP3 SHR SWAP1 POP SWAP3 SWAP2 POP POP JUMP JUMPDEST PUSH0 PUSH2 0xB33 PUSH0 NOT DUP5 PUSH1 0x8 MUL PUSH2 0xB18 JUMP JUMPDEST NOT DUP1 DUP4 AND SWAP2 POP POP SWAP3 SWAP2 POP POP JUMP JUMPDEST PUSH0 PUSH2 0xB4B DUP4 DUP4 PUSH2 0xB24 JUMP JUMPDEST SWAP2 POP DUP3 PUSH1 0x2 MUL DUP3 OR SWAP1 POP SWAP3 SWAP2 POP POP JUMP JUMPDEST PUSH2 0xB64 DUP3 PUSH2 0x93A JUMP JUMPDEST PUSH8 0xFFFFFFFFFFFFFFFF DUP2 GT ISZERO PUSH2 0xB7D JUMPI PUSH2 0xB7C PUSH2 0x515 JUMP JUMPDEST JUMPDEST PUSH2 0xB87 DUP3 SLOAD PUSH2 0x971 JUMP JUMPDEST PUSH2 0xB92 DUP3 DUP3 DUP6 PUSH2 0xAC5 JUMP JUMPDEST PUSH0 PUSH1 0x20 SWAP1 POP PUSH1 0x1F DUP4 GT PUSH1 0x1 DUP2 EQ PUSH2 0xBC3 JUMPI PUSH0 DUP5 ISZERO PUSH2 0xBB1 JUMPI DUP3 DUP8 ADD MLOAD SWAP1 POP JUMPDEST PUSH2 0xBBB DUP6 DUP3 PUSH2 0xB40 JUMP JUMPDEST DUP7 SSTORE POP PUSH2 0xC22 JUMP JUMPDEST PUSH1 0x1F NOT DUP5 AND PUSH2 0xBD1 DUP7 PUSH2 0x9A1 JUMP JUMPDEST PUSH0 JUMPDEST DUP3 DUP2 LT ISZERO PUSH2 0xBF8 JUMPI DUP5 DUP10 ADD MLOAD DUP3 SSTORE PUSH1 0x1 DUP3 ADD SWAP2 POP PUSH1 0x20 DUP6 ADD SWAP5 POP PUSH1 0x20 DUP2 ADD SWAP1 POP PUSH2 0xBD3 JUMP JUMPDEST DUP7 DUP4 LT ISZERO PUSH2 0xC15 JUMPI DUP5 DUP10 ADD MLOAD PUSH2 0xC11 PUSH1 0x1F DUP10 AND DUP3 PUSH2 0xB24 JUMP JUMPDEST DUP4 SSTORE POP JUMPDEST PUSH1 0x1 PUSH1 0x2 DUP9 MUL ADD DUP9 SSTORE POP POP POP JUMPDEST POP POP POP POP POP POP JUMP JUMPDEST PUSH0 PUSH4 0xFFFFFFFF DUP3 AND SWAP1 POP SWAP2 SWAP1 POP JUMP JUMPDEST PUSH2 0xC42 DUP2 PUSH2 0xC2A JUMP JUMPDEST DUP3 MSTORE POP POP JUMP JUMPDEST PUSH2 0xC51 DUP2 PUSH2 0xA1F JUMP JUMPDEST DUP3 MSTORE POP POP JUMP JUMPDEST PUSH0 DUP2 SLOAD PUSH2 0xC63 DUP2 PUSH2 0x971 JUMP JUMPDEST PUSH2 0xC6D DUP2 DUP7 PUSH2 0x722 JUMP JUMPDEST SWAP5 POP PUSH1 0x1 DUP3 AND PUSH0 DUP2 EQ PUSH2 0xC87 JUMPI PUSH1 0x1 DUP2 EQ PUSH2 0xC9D JUMPI PUSH2 0xCCF JUMP JUMPDEST PUSH1 0xFF NOT DUP4 AND DUP7 MSTORE DUP2 ISZERO ISZERO PUSH1 0x20 MUL DUP7 ADD SWAP4 POP PUSH2 0xCCF JUMP JUMPDEST PUSH2 0xCA6 DUP6 PUSH2 0x9A1 JUMP JUMPDEST PUSH0 JUMPDEST DUP4 DUP2 LT ISZERO PUSH2 0xCC7 JUMPI DUP2 SLOAD DUP2 DUP10 ADD MSTORE PUSH1 0x1 DUP3 ADD SWAP2 POP PUSH1 0x20 DUP2 ADD SWAP1 POP PUSH2 0xCA8 JUMP JUMPDEST DUP1 DUP9 ADD SWAP6 POP POP POP JUMPDEST POP POP POP SWAP3 SWAP2 POP POP JUMP JUMPDEST PUSH0 PUSH1 0x60 DUP3 ADD SWAP1 POP PUSH2 0xCEB PUSH0 DUP4 ADD DUP7 PUSH2 0xC39 JUMP JUMPDEST PUSH2 0xCF8 PUSH1 0x20 DUP4 ADD DUP6 PUSH2 0xC48 JUMP JUMPDEST DUP2 DUP2 SUB PUSH1 0x40 DUP4 ADD MSTORE PUSH2 0xD0A DUP2 DUP5 PUSH2 0xC57 JUMP JUMPDEST SWAP1 POP SWAP5 SWAP4 POP POP POP POP JUMP JUMPDEST PUSH1 0x80 MLOAD PUSH2 0x3784 PUSH2 0xD33 PUSH0 CODECOPY PUSH0 DUP2 DUP2 PUSH2 0x51B ADD MSTORE PUSH2 0x1AB9 ADD MSTORE PUSH2 0x3784 PUSH0 RETURN INVALID PUSH1 0x80 PUSH1 0x40 MSTORE CALLVALUE DUP1 ISZERO PUSH2 0xF JUMPI PUSH0 PUSH0 REVERT JUMPDEST POP PUSH1 0x4 CALLDATASIZE LT PUSH2 0x1C2 JUMPI PUSH0 CALLDATALOAD PUSH1 0xE0 SHR DUP1 PUSH4 0x7C56687A GT PUSH2 0xF7 JUMPI DUP1 PUSH4 0xE914D58C GT PUSH2 0x95 JUMPI DUP1 PUSH4 0xF2FDE38B GT PUSH2 0x6F JUMPI DUP1 PUSH4 0xF2FDE38B EQ PUSH2 0x484 JUMPI DUP1 PUSH4 0xF664A16E EQ PUSH2 0x4A0 JUMPI DUP1 PUSH4 0xF68016B7 EQ PUSH2 0x4BE JUMPI DUP1 PUSH4 0xFC2A88C3 EQ PUSH2 0x4DC JUMPI PUSH2 0x1C2 JUMP JUMPDEST DUP1 PUSH4 0xE914D58C EQ PUSH2 0x42E JUMPI DUP1 PUSH4 0xEA7B4F77 EQ PUSH2 0x44A JUMPI DUP1 PUSH4 0xECF7139B EQ PUSH2 0x466 JUMPI PUSH2 0x1C2 JUMP JUMPDEST DUP1 PUSH4 0x8DBE7B9D GT PUSH2 0xD1 JUMPI DUP1 PUSH4 0x8DBE7B9D EQ PUSH2 0x3BA JUMPI DUP1 PUSH4 0x99D25455 EQ PUSH2 0x3D8 JUMPI DUP1 PUSH4 0xD0B06F5D EQ PUSH2 0x3F4 JUMPI DUP1 PUSH4 0xE8C75A30 EQ PUSH2 0x412 JUMPI PUSH2 0x1C2 JUMP JUMPDEST DUP1 PUSH4 0x7C56687A EQ PUSH2 0x362 JUMPI DUP1 PUSH4 0x8367E120 EQ PUSH2 0x37E JUMPI DUP1 PUSH4 0x8DA5CB5B EQ PUSH2 0x39C JUMPI PUSH2 0x1C2 JUMP JUMPDEST DUP1 PUSH4 0x52D84C62 GT PUSH2 0x164 JUMPI DUP1 PUSH4 0x62747E42 GT PUSH2 0x13E JUMPI DUP1 PUSH4 0x62747E42 EQ PUSH2 0x300 JUMPI DUP1 PUSH4 0x67E828BF EQ PUSH2 0x31E JUMPI DUP1 PUSH4 0x715018A6 EQ PUSH2 0x33C JUMPI DUP1 PUSH4 0x78CA5DE7 EQ PUSH2 0x346 JUMPI PUSH2 0x1C2 JUMP JUMPDEST DUP1 PUSH4 0x52D84C62 EQ PUSH2 0x296 JUMPI DUP1 PUSH4 0x56C5EB06 EQ PUSH2 0x2B2 JUMPI DUP1 PUSH4 0x5F3749D9 EQ PUSH2 0x2E2 JUMPI PUSH2 0x1C2 JUMP JUMPDEST DUP1 PUSH4 0x186F34D5 GT PUSH2 0x1A0 JUMPI DUP1 PUSH4 0x186F34D5 EQ PUSH2 0x21E JUMPI DUP1 PUSH4 0x29F0DE3F EQ PUSH2 0x23C JUMPI DUP1 PUSH4 0x3E5D0EE0 EQ PUSH2 0x25A JUMPI DUP1 PUSH4 0x4D056F6D EQ PUSH2 0x278 JUMPI PUSH2 0x1C2 JUMP JUMPDEST DUP1 PUSH4 0x964FF26 EQ PUSH2 0x1C6 JUMPI DUP1 PUSH4 0x9C1BA2E EQ PUSH2 0x1E4 JUMPI DUP1 PUSH4 0xCA76175 EQ PUSH2 0x202 JUMPI JUMPDEST PUSH0 PUSH0 REVERT JUMPDEST PUSH2 0x1CE PUSH2 0x4FA JUMP JUMPDEST PUSH1 0x40 MLOAD PUSH2 0x1DB SWAP2 SWAP1 PUSH2 0x2341 JUMP JUMPDEST PUSH1 0x40 MLOAD DUP1 SWAP2 SUB SWAP1 RETURN JUMPDEST PUSH2 0x1EC PUSH2 0x500 JUMP JUMPDEST PUSH1 0x40 MLOAD PUSH2 0x1F9 SWAP2 SWAP1 PUSH2 0x237C JUMP JUMPDEST PUSH1 0x40 MLOAD DUP1 SWAP2 SUB SWAP1 RETURN JUMPDEST PUSH2 0x21C PUSH1 0x4 DUP1 CALLDATASIZE SUB DUP2 ADD SWAP1 PUSH2 0x217 SWAP2 SWAP1 PUSH2 0x2515 JUMP JUMPDEST PUSH2 0x519 JUMP JUMPDEST STOP JUMPDEST PUSH2 0x226 PUSH2 0x5DB JUMP JUMPDEST PUSH1 0x40 MLOAD PUSH2 0x233 SWAP2 SWAP1 PUSH2 0x2628 JUMP JUMPDEST PUSH1 0x40 MLOAD DUP1 SWAP2 SUB SWAP1 RETURN JUMPDEST PUSH2 0x244 PUSH2 0x62C JUMP JUMPDEST PUSH1 0x40 MLOAD PUSH2 0x251 SWAP2 SWAP1 PUSH2 0x26A1 JUMP JUMPDEST PUSH1 0x40 MLOAD DUP1 SWAP2 SUB SWAP1 RETURN JUMPDEST PUSH2 0x262 PUSH2 0x6B8 JUMP JUMPDEST PUSH1 0x40 MLOAD PUSH2 0x26F SWAP2 SWAP1 PUSH2 0x2341 JUMP JUMPDEST PUSH1 0x40 MLOAD DUP1 SWAP2 SUB SWAP1 RETURN JUMPDEST PUSH2 0x280 PUSH2 0x6C3 JUMP JUMPDEST PUSH1 0x40 MLOAD PUSH2 0x28D SWAP2 SWAP1 PUSH2 0x2341 JUMP JUMPDEST PUSH1 0x40 MLOAD DUP1 SWAP2 SUB SWAP1 RETURN JUMPDEST PUSH2 0x2B0 PUSH1 0x4 DUP1 CALLDATASIZE SUB DUP2 ADD SWAP1 PUSH2 0x2AB SWAP2 SWAP1 PUSH2 0x26FA JUMP JUMPDEST PUSH2 0x6C9 JUMP JUMPDEST STOP JUMPDEST PUSH2 0x2CC PUSH1 0x4 DUP1 CALLDATASIZE SUB DUP2 ADD SWAP1 PUSH2 0x2C7 SWAP2 SWAP1 PUSH2 0x277F JUMP JUMPDEST PUSH2 0x7FA JUMP JUMPDEST PUSH1 0x40 MLOAD PUSH2 0x2D9 SWAP2 SWAP1 PUSH2 0x2341 JUMP JUMPDEST PUSH1 0x40 MLOAD DUP1 SWAP2 SUB SWAP1 RETURN JUMPDEST PUSH2 0x2EA PUSH2 0x840 JUMP JUMPDEST PUSH1 0x40 MLOAD PUSH2 0x2F7 SWAP2 SWAP1 PUSH2 0x27B9 JUMP JUMPDEST PUSH1 0x40 MLOAD DUP1 SWAP2 SUB SWAP1 RETURN JUMPDEST PUSH2 0x308 PUSH2 0xB58 JUMP JUMPDEST PUSH1 0x40 MLOAD PUSH2 0x315 SWAP2 SWAP1 PUSH2 0x26A1 JUMP JUMPDEST PUSH1 0x40 MLOAD DUP1 SWAP2 SUB SWAP1 RETURN JUMPDEST PUSH2 0x326 PUSH2 0xBE4 JUMP JUMPDEST PUSH1 0x40 MLOAD PUSH2 0x333 SWAP2 SWAP1 PUSH2 0x2824 JUMP JUMPDEST PUSH1 0x40 MLOAD DUP1 SWAP2 SUB SWAP1 RETURN JUMPDEST PUSH2 0x344 PUSH2 0xC70 JUMP JUMPDEST STOP JUMPDEST PUSH2 0x360 PUSH1 0x4 DUP1 CALLDATASIZE SUB DUP2 ADD SWAP1 PUSH2 0x35B SWAP2 SWAP1 PUSH2 0x2844 JUMP JUMPDEST PUSH2 0xC83 JUMP JUMPDEST STOP JUMPDEST PUSH2 0x37C PUSH1 0x4 DUP1 CALLDATASIZE SUB DUP2 ADD SWAP1 PUSH2 0x377 SWAP2 SWAP1 PUSH2 0x2899 JUMP JUMPDEST PUSH2 0xD4B JUMP JUMPDEST STOP JUMPDEST PUSH2 0x386 PUSH2 0xE15 JUMP JUMPDEST PUSH1 0x40 MLOAD PUSH2 0x393 SWAP2 SWAP1 PUSH2 0x2824 JUMP JUMPDEST PUSH1 0x40 MLOAD DUP1 SWAP2 SUB SWAP1 RETURN JUMPDEST PUSH2 0x3A4 PUSH2 0xEA1 JUMP JUMPDEST PUSH1 0x40 MLOAD PUSH2 0x3B1 SWAP2 SWAP1 PUSH2 0x28D3 JUMP JUMPDEST PUSH1 0x40 MLOAD DUP1 SWAP2 SUB SWAP1 RETURN JUMPDEST PUSH2 0x3C2 PUSH2 0xEC8 JUMP JUMPDEST PUSH1 0x40 MLOAD PUSH2 0x3CF SWAP2 SWAP1 PUSH2 0x27B9 JUMP JUMPDEST PUSH1 0x40 MLOAD DUP1 SWAP2 SUB SWAP1 RETURN JUMPDEST PUSH2 0x3F2 PUSH1 0x4 DUP1 CALLDATASIZE SUB DUP2 ADD SWAP1 PUSH2 0x3ED SWAP2 SWAP1 PUSH2 0x2949 JUMP JUMPDEST PUSH2 0xECE JUMP JUMPDEST STOP JUMPDEST PUSH2 0x3FC PUSH2 0xF31 JUMP JUMPDEST PUSH1 0x40 MLOAD PUSH2 0x409 SWAP2 SWAP1 PUSH2 0x2341 JUMP JUMPDEST PUSH1 0x40 MLOAD DUP1 SWAP2 SUB SWAP1 RETURN JUMPDEST PUSH2 0x42C PUSH1 0x4 DUP1 CALLDATASIZE SUB DUP2 ADD SWAP1 PUSH2 0x427 SWAP2 SWAP1 PUSH2 0x2949 JUMP JUMPDEST PUSH2 0xF3D JUMP JUMPDEST STOP JUMPDEST PUSH2 0x448 PUSH1 0x4 DUP1 CALLDATASIZE SUB DUP2 ADD SWAP1 PUSH2 0x443 SWAP2 SWAP1 PUSH2 0x29BE JUMP JUMPDEST PUSH2 0x1012 JUMP JUMPDEST STOP JUMPDEST PUSH2 0x464 PUSH1 0x4 DUP1 CALLDATASIZE SUB DUP2 ADD SWAP1 PUSH2 0x45F SWAP2 SWAP1 PUSH2 0x2A54 JUMP JUMPDEST PUSH2 0x12AB JUMP JUMPDEST STOP JUMPDEST PUSH2 0x46E PUSH2 0x139C JUMP JUMPDEST PUSH1 0x40 MLOAD PUSH2 0x47B SWAP2 SWAP1 PUSH2 0x2A8E JUMP JUMPDEST PUSH1 0x40 MLOAD DUP1 SWAP2 SUB SWAP1 RETURN JUMPDEST PUSH2 0x49E PUSH1 0x4 DUP1 CALLDATASIZE SUB DUP2 ADD SWAP1 PUSH2 0x499 SWAP2 SWAP1 PUSH2 0x277F JUMP JUMPDEST PUSH2 0x13B3 JUMP JUMPDEST STOP JUMPDEST PUSH2 0x4A8 PUSH2 0x1437 JUMP JUMPDEST PUSH1 0x40 MLOAD PUSH2 0x4B5 SWAP2 SWAP1 PUSH2 0x2341 JUMP JUMPDEST PUSH1 0x40 MLOAD DUP1 SWAP2 SUB SWAP1 RETURN JUMPDEST PUSH2 0x4C6 PUSH2 0x143D JUMP JUMPDEST PUSH1 0x40 MLOAD PUSH2 0x4D3 SWAP2 SWAP1 PUSH2 0x2AB6 JUMP JUMPDEST PUSH1 0x40 MLOAD DUP1 SWAP2 SUB SWAP1 RETURN JUMPDEST PUSH2 0x4E4 PUSH2 0x1452 JUMP JUMPDEST PUSH1 0x40 MLOAD PUSH2 0x4F1 SWAP2 SWAP1 PUSH2 0x27B9 JUMP JUMPDEST PUSH1 0x40 MLOAD DUP1 SWAP2 SUB SWAP1 RETURN JUMPDEST PUSH1 0xB SLOAD DUP2 JUMP JUMPDEST PUSH1 0x5 PUSH0 SWAP1 SLOAD SWAP1 PUSH2 0x100 EXP SWAP1 DIV PUSH8 0xFFFFFFFFFFFFFFFF AND DUP2 JUMP JUMPDEST PUSH32 0x0 PUSH20 0xFFFFFFFFFFFFFFFFFFFFFFFFFFFFFFFFFFFFFFFF AND CALLER PUSH20 0xFFFFFFFFFFFFFFFFFFFFFFFFFFFFFFFFFFFFFFFF AND EQ PUSH2 0x59E JUMPI PUSH1 0x40 MLOAD PUSH32 0xC6829F8300000000000000000000000000000000000000000000000000000000 DUP2 MSTORE PUSH1 0x4 ADD PUSH1 0x40 MLOAD DUP1 SWAP2 SUB SWAP1 REVERT JUMPDEST PUSH2 0x5A9 DUP4 DUP4 DUP4 PUSH2 0x1458 JUMP JUMPDEST DUP3 PUSH32 0x85E1543BF2F84FE80C6BADBCE3648C8539AD1DF4D2B3D822938CA0538BE727E6 PUSH1 0x40 MLOAD PUSH1 0x40 MLOAD DUP1 SWAP2 SUB SWAP1 LOG2 POP POP POP JUMP JUMPDEST PUSH2 0x5E3 PUSH2 0x225C JUMP JUMPDEST PUSH1 0x1 PUSH1 0x40 MLOAD DUP1 PUSH1 0x80 ADD PUSH1 0x40 MSTORE SWAP1 DUP2 PUSH0 DUP3 ADD SLOAD DUP2 MSTORE PUSH1 0x20 ADD PUSH1 0x1 DUP3 ADD PUSH0 SWAP1 SLOAD SWAP1 PUSH2 0x100 EXP SWAP1 DIV PUSH1 0xFF AND ISZERO ISZERO ISZERO ISZERO DUP2 MSTORE PUSH1 0x20 ADD PUSH1 0x2 DUP3 ADD SLOAD DUP2 MSTORE PUSH1 0x20 ADD PUSH1 0x3 DUP3 ADD SLOAD DUP2 MSTORE POP POP SWAP1 POP SWAP1 JUMP JUMPDEST PUSH1 0xF DUP1 SLOAD PUSH2 0x639 SWAP1 PUSH2 0x2AFC JUMP JUMPDEST DUP1 PUSH1 0x1F ADD PUSH1 0x20 DUP1 SWAP2 DIV MUL PUSH1 0x20 ADD PUSH1 0x40 MLOAD SWAP1 DUP2 ADD PUSH1 0x40 MSTORE DUP1 SWAP3 SWAP2 SWAP1 DUP2 DUP2 MSTORE PUSH1 0x20 ADD DUP3 DUP1 SLOAD PUSH2 0x665 SWAP1 PUSH2 0x2AFC JUMP JUMPDEST DUP1 ISZERO PUSH2 0x6B0 JUMPI DUP1 PUSH1 0x1F LT PUSH2 0x687 JUMPI PUSH2 0x100 DUP1 DUP4 SLOAD DIV MUL DUP4 MSTORE SWAP2 PUSH1 0x20 ADD SWAP2 PUSH2 0x6B0 JUMP JUMPDEST DUP3 ADD SWAP2 SWAP1 PUSH0 MSTORE PUSH1 0x20 PUSH0 KECCAK256 SWAP1 JUMPDEST DUP2 SLOAD DUP2 MSTORE SWAP1 PUSH1 0x1 ADD SWAP1 PUSH1 0x20 ADD DUP1 DUP4 GT PUSH2 0x693 JUMPI DUP3 SWAP1 SUB PUSH1 0x1F AND DUP3 ADD SWAP2 JUMPDEST POP POP POP POP POP DUP2 JUMP JUMPDEST PUSH0 PUSH1 0x1 PUSH0 ADD SLOAD SWAP1 POP SWAP1 JUMP JUMPDEST PUSH1 0xA SLOAD DUP2 JUMP JUMPDEST PUSH2 0x6D1 PUSH2 0x15CC JUMP JUMPDEST PUSH0 DUP2 PUSH4 0xFFFFFFFF AND GT PUSH2 0x719 JUMPI PUSH1 0x40 MLOAD PUSH32 0x8C379A000000000000000000000000000000000000000000000000000000000 DUP2 MSTORE PUSH1 0x4 ADD PUSH2 0x710 SWAP1 PUSH2 0x2B76 JUMP JUMPDEST PUSH1 0x40 MLOAD DUP1 SWAP2 SUB SWAP1 REVERT JUMPDEST PUSH3 0x493E0 DUP2 PUSH4 0xFFFFFFFF AND GT ISZERO PUSH2 0x765 JUMPI PUSH1 0x40 MLOAD PUSH32 0x8C379A000000000000000000000000000000000000000000000000000000000 DUP2 MSTORE PUSH1 0x4 ADD PUSH2 0x75C SWAP1 PUSH2 0x2BDE JUMP JUMPDEST PUSH1 0x40 MLOAD DUP1 SWAP2 SUB SWAP1 REVERT JUMPDEST DUP1 PUSH1 0x9 PUSH0 PUSH2 0x100 EXP DUP2 SLOAD DUP2 PUSH4 0xFFFFFFFF MUL NOT AND SWAP1 DUP4 PUSH4 0xFFFFFFFF AND MUL OR SWAP1 SSTORE POP PUSH1 0x6 SLOAD PUSH1 0x5 PUSH0 SWAP1 SLOAD SWAP1 PUSH2 0x100 EXP SWAP1 DIV PUSH8 0xFFFFFFFFFFFFFFFF AND PUSH8 0xFFFFFFFFFFFFFFFF AND PUSH32 0xBF4E1FC134A654F78502EE3E998525A7FE9F51B7119BA7B682C5CD36DC1B70D7 PUSH1 0x9 PUSH0 SWAP1 SLOAD SWAP1 PUSH2 0x100 EXP SWAP1 DIV PUSH4 0xFFFFFFFF AND PUSH1 0xA SLOAD PUSH1 0x8 PUSH1 0x40 MLOAD PUSH2 0x7EF SWAP4 SWAP3 SWAP2 SWAP1 PUSH2 0x2C8F JUMP JUMPDEST PUSH1 0x40 MLOAD DUP1 SWAP2 SUB SWAP1 LOG3 POP JUMP JUMPDEST PUSH0 PUSH1 0x10 PUSH0 DUP4 PUSH20 0xFFFFFFFFFFFFFFFFFFFFFFFFFFFFFFFFFFFFFFFF AND PUSH20 0xFFFFFFFFFFFFFFFFFFFFFFFFFFFFFFFFFFFFFFFF AND DUP2 MSTORE PUSH1 0x20 ADD SWAP1 DUP2 MSTORE PUSH1 0x20 ADD PUSH0 KECCAK256 SLOAD SWAP1 POP SWAP2 SWAP1 POP JUMP JUMPDEST PUSH0 PUSH2 0x849 PUSH2 0xEA1 JUMP JUMPDEST PUSH20 0xFFFFFFFFFFFFFFFFFFFFFFFFFFFFFFFFFFFFFFFF AND CALLER PUSH20 0xFFFFFFFFFFFFFFFFFFFFFFFFFFFFFFFFFFFFFFFF AND EQ PUSH2 0x91B JUMPI PUSH0 PUSH1 0xA SLOAD PUSH1 0x10 PUSH0 CALLER PUSH20 0xFFFFFFFFFFFFFFFFFFFFFFFFFFFFFFFFFFFFFFFF AND PUSH20 0xFFFFFFFFFFFFFFFFFFFFFFFFFFFFFFFFFFFFFFFF AND DUP2 MSTORE PUSH1 0x20 ADD SWAP1 DUP2 MSTORE PUSH1 0x20 ADD PUSH0 KECCAK256 SLOAD PUSH2 0x8C7 SWAP2 SWAP1 PUSH2 0x2CF8 JUMP JUMPDEST SWAP1 POP DUP1 TIMESTAMP LT ISZERO PUSH2 0x919 JUMPI TIMESTAMP DUP2 PUSH2 0x8DD SWAP2 SWAP1 PUSH2 0x2D2B JUMP JUMPDEST PUSH1 0x40 MLOAD PUSH32 0x646AFD0400000000000000000000000000000000000000000000000000000000 DUP2 MSTORE PUSH1 0x4 ADD PUSH2 0x910 SWAP2 SWAP1 PUSH2 0x2341 JUMP JUMPDEST PUSH1 0x40 MLOAD DUP1 SWAP2 SUB SWAP1 REVERT JUMPDEST POP JUMPDEST TIMESTAMP PUSH1 0x10 PUSH0 CALLER PUSH20 0xFFFFFFFFFFFFFFFFFFFFFFFFFFFFFFFFFFFFFFFF AND PUSH20 0xFFFFFFFFFFFFFFFFFFFFFFFFFFFFFFFFFFFFFFFF AND DUP2 MSTORE PUSH1 0x20 ADD SWAP1 DUP2 MSTORE PUSH1 0x20 ADD PUSH0 KECCAK256 DUP2 SWAP1 SSTORE POP PUSH0 PUSH1 0x1 PUSH8 0xFFFFFFFFFFFFFFFF DUP2 GT ISZERO PUSH2 0x979 JUMPI PUSH2 0x978 PUSH2 0x23F1 JUMP JUMPDEST JUMPDEST PUSH1 0x40 MLOAD SWAP1 DUP1 DUP3 MSTORE DUP1 PUSH1 0x20 MUL PUSH1 0x20 ADD DUP3 ADD PUSH1 0x40 MSTORE DUP1 ISZERO PUSH2 0x9AC JUMPI DUP2 PUSH1 0x20 ADD JUMPDEST PUSH1 0x60 DUP2 MSTORE PUSH1 0x20 ADD SWAP1 PUSH1 0x1 SWAP1 SUB SWAP1 DUP2 PUSH2 0x997 JUMPI SWAP1 POP JUMPDEST POP SWAP1 POP PUSH1 0x8 DUP1 SLOAD PUSH2 0x9BC SWAP1 PUSH2 0x2AFC JUMP JUMPDEST DUP1 PUSH1 0x1F ADD PUSH1 0x20 DUP1 SWAP2 DIV MUL PUSH1 0x20 ADD PUSH1 0x40 MLOAD SWAP1 DUP2 ADD PUSH1 0x40 MSTORE DUP1 SWAP3 SWAP2 SWAP1 DUP2 DUP2 MSTORE PUSH1 0x20 ADD DUP3 DUP1 SLOAD PUSH2 0x9E8 SWAP1 PUSH2 0x2AFC JUMP JUMPDEST DUP1 ISZERO PUSH2 0xA33 JUMPI DUP1 PUSH1 0x1F LT PUSH2 0xA0A JUMPI PUSH2 0x100 DUP1 DUP4 SLOAD DIV MUL DUP4 MSTORE SWAP2 PUSH1 0x20 ADD SWAP2 PUSH2 0xA33 JUMP JUMPDEST DUP3 ADD SWAP2 SWAP1 PUSH0 MSTORE PUSH1 0x20 PUSH0 KECCAK256 SWAP1 JUMPDEST DUP2 SLOAD DUP2 MSTORE SWAP1 PUSH1 0x1 ADD SWAP1 PUSH1 0x20 ADD DUP1 DUP4 GT PUSH2 0xA16 JUMPI DUP3 SWAP1 SUB PUSH1 0x1F AND DUP3 ADD SWAP2 JUMPDEST POP POP POP POP POP DUP2 PUSH0 DUP2 MLOAD DUP2 LT PUSH2 0xA4B JUMPI PUSH2 0xA4A PUSH2 0x2D5E JUMP JUMPDEST JUMPDEST PUSH1 0x20 MUL PUSH1 0x20 ADD ADD DUP2 SWAP1 MSTORE POP PUSH2 0xA5E PUSH2 0x2282 JUMP JUMPDEST PUSH2 0xAF9 PUSH1 0x7 DUP1 SLOAD PUSH2 0xA6E SWAP1 PUSH2 0x2AFC JUMP JUMPDEST DUP1 PUSH1 0x1F ADD PUSH1 0x20 DUP1 SWAP2 DIV MUL PUSH1 0x20 ADD PUSH1 0x40 MLOAD SWAP1 DUP2 ADD PUSH1 0x40 MSTORE DUP1 SWAP3 SWAP2 SWAP1 DUP2 DUP2 MSTORE PUSH1 0x20 ADD DUP3 DUP1 SLOAD PUSH2 0xA9A SWAP1 PUSH2 0x2AFC JUMP JUMPDEST DUP1 ISZERO PUSH2 0xAE5 JUMPI DUP1 PUSH1 0x1F LT PUSH2 0xABC JUMPI PUSH2 0x100 DUP1 DUP4 SLOAD DIV MUL DUP4 MSTORE SWAP2 PUSH1 0x20 ADD SWAP2 PUSH2 0xAE5 JUMP JUMPDEST DUP3 ADD SWAP2 SWAP1 PUSH0 MSTORE PUSH1 0x20 PUSH0 KECCAK256 SWAP1 JUMPDEST DUP2 SLOAD DUP2 MSTORE SWAP1 PUSH1 0x1 ADD SWAP1 PUSH1 0x20 ADD DUP1 DUP4 GT PUSH2 0xAC8 JUMPI DUP3 SWAP1 SUB PUSH1 0x1F AND DUP3 ADD SWAP2 JUMPDEST POP POP POP POP POP DUP3 PUSH2 0x1653 SWAP1 SWAP2 SWAP1 PUSH4 0xFFFFFFFF AND JUMP JUMPDEST PUSH2 0xB0C DUP3 DUP3 PUSH2 0x1663 SWAP1 SWAP2 SWAP1 PUSH4 0xFFFFFFFF AND JUMP JUMPDEST PUSH2 0xB48 PUSH2 0xB18 DUP3 PUSH2 0x16AA JUMP JUMPDEST PUSH1 0x5 PUSH0 SWAP1 SLOAD SWAP1 PUSH2 0x100 EXP SWAP1 DIV PUSH8 0xFFFFFFFFFFFFFFFF AND PUSH1 0x9 PUSH0 SWAP1 SLOAD SWAP1 PUSH2 0x100 EXP SWAP1 DIV PUSH4 0xFFFFFFFF AND PUSH1 0x6 SLOAD PUSH2 0x1AB5 JUMP JUMPDEST PUSH1 0xD DUP2 SWAP1 SSTORE POP PUSH1 0xD SLOAD SWAP3 POP POP POP SWAP1 JUMP JUMPDEST PUSH1 0xE DUP1 SLOAD PUSH2 0xB65 SWAP1 PUSH2 0x2AFC JUMP JUMPDEST DUP1 PUSH1 0x1F ADD PUSH1 0x20 DUP1 SWAP2 DIV MUL PUSH1 0x20 ADD PUSH1 0x40 MLOAD SWAP1 DUP2 ADD PUSH1 0x40 MSTORE DUP1 SWAP3 SWAP2 SWAP1 DUP2 DUP2 MSTORE PUSH1 0x20 ADD DUP3 DUP1 SLOAD PUSH2 0xB91 SWAP1 PUSH2 0x2AFC JUMP JUMPDEST DUP1 ISZERO PUSH2 0xBDC JUMPI DUP1 PUSH1 0x1F LT PUSH2 0xBB3 JUMPI PUSH2 0x100 DUP1 DUP4 SLOAD DIV MUL DUP4 MSTORE SWAP2 PUSH1 0x20 ADD SWAP2 PUSH2 0xBDC JUMP JUMPDEST DUP3 ADD SWAP2 SWAP1 PUSH0 MSTORE PUSH1 0x20 PUSH0 KECCAK256 SWAP1 JUMPDEST DUP2 SLOAD DUP2 MSTORE SWAP1 PUSH1 0x1 ADD SWAP1 PUSH1 0x20 ADD DUP1 DUP4 GT PUSH2 0xBBF JUMPI DUP3 SWAP1 SUB PUSH1 0x1F AND DUP3 ADD SWAP2 JUMPDEST POP POP POP POP POP DUP2 JUMP JUMPDEST PUSH1 0x7 DUP1 SLOAD PUSH2 0xBF1 SWAP1 PUSH2 0x2AFC JUMP JUMPDEST DUP1 PUSH1 0x1F ADD PUSH1 0x20 DUP1 SWAP2 DIV MUL PUSH1 0x20 ADD PUSH1 0x40 MLOAD SWAP1 DUP2 ADD PUSH1 0x40 MSTORE DUP1 SWAP3 SWAP2 SWAP1 DUP2 DUP2 MSTORE PUSH1 0x20 ADD DUP3 DUP1 SLOAD PUSH2 0xC1D SWAP1 PUSH2 0x2AFC JUMP JUMPDEST DUP1 ISZERO PUSH2 0xC68 JUMPI DUP1 PUSH1 0x1F LT PUSH2 0xC3F JUMPI PUSH2 0x100 DUP1 DUP4 SLOAD DIV MUL DUP4 MSTORE SWAP2 PUSH1 0x20 ADD SWAP2 PUSH2 0xC68 JUMP JUMPDEST DUP3 ADD SWAP2 SWAP1 PUSH0 MSTORE PUSH1 0x20 PUSH0 KECCAK256 SWAP1 JUMPDEST DUP2 SLOAD DUP2 MSTORE SWAP1 PUSH1 0x1 ADD SWAP1 PUSH1 0x20 ADD DUP1 DUP4 GT PUSH2 0xC4B JUMPI DUP3 SWAP1 SUB PUSH1 0x1F AND DUP3 ADD SWAP2 JUMPDEST POP POP POP POP POP DUP2 JUMP JUMPDEST PUSH2 0xC78 PUSH2 0x15CC JUMP JUMPDEST PUSH2 0xC81 PUSH0 PUSH2 0x1B94 JUMP JUMPDEST JUMP JUMPDEST PUSH2 0xC8B PUSH2 0x15CC JUMP JUMPDEST PUSH0 PUSH0 SHL DUP2 SUB PUSH2 0xCCF JUMPI PUSH1 0x40 MLOAD PUSH32 0x8C379A000000000000000000000000000000000000000000000000000000000 DUP2 MSTORE PUSH1 0x4 ADD PUSH2 0xCC6 SWAP1 PUSH2 0x2DD5 JUMP JUMPDEST PUSH1 0x40 MLOAD DUP1 SWAP2 SUB SWAP1 REVERT JUMPDEST DUP1 PUSH1 0x6 DUP2 SWAP1 SSTORE POP PUSH1 0x6 SLOAD PUSH1 0x5 PUSH0 SWAP1 SLOAD SWAP1 PUSH2 0x100 EXP SWAP1 DIV PUSH8 0xFFFFFFFFFFFFFFFF AND PUSH8 0xFFFFFFFFFFFFFFFF AND PUSH32 0xBF4E1FC134A654F78502EE3E998525A7FE9F51B7119BA7B682C5CD36DC1B70D7 PUSH1 0x9 PUSH0 SWAP1 SLOAD SWAP1 PUSH2 0x100 EXP SWAP1 DIV PUSH4 0xFFFFFFFF AND PUSH1 0xA SLOAD PUSH1 0x8 PUSH1 0x40 MLOAD PUSH2 0xD40 SWAP4 SWAP3 SWAP2 SWAP1 PUSH2 0x2C8F JUMP JUMPDEST PUSH1 0x40 MLOAD DUP1 SWAP2 SUB SWAP1 LOG3 POP JUMP JUMPDEST PUSH2 0xD53 PUSH2 0x15CC JUMP JUMPDEST PUSH3 0x15180 DUP2 GT ISZERO PUSH2 0xD99 JUMPI PUSH1 0x40 MLOAD PUSH32 0x8C379A000000000000000000000000000000000000000000000000000000000 DUP2 MSTORE PUSH1 0x4 ADD PUSH2 0xD90 SWAP1 PUSH2 0x2E3D JUMP JUMPDEST PUSH1 0x40 MLOAD DUP1 SWAP2 SUB SWAP1 REVERT JUMPDEST DUP1 PUSH1 0xA DUP2 SWAP1 SSTORE POP PUSH1 0x6 SLOAD PUSH1 0x5 PUSH0 SWAP1 SLOAD SWAP1 PUSH2 0x100 EXP SWAP1 DIV PUSH8 0xFFFFFFFFFFFFFFFF AND PUSH8 0xFFFFFFFFFFFFFFFF AND PUSH32 0xBF4E1FC134A654F78502EE3E998525A7FE9F51B7119BA7B682C5CD36DC1B70D7 PUSH1 0x9 PUSH0 SWAP1 SLOAD SWAP1 PUSH2 0x100 EXP SWAP1 DIV PUSH4 0xFFFFFFFF AND PUSH1 0xA SLOAD PUSH1 0x8 PUSH1 0x40 MLOAD PUSH2 0xE0A SWAP4 SWAP3 SWAP2 SWAP1 PUSH2 0x2C8F JUMP JUMPDEST PUSH1 0x40 MLOAD DUP1 SWAP2 SUB SWAP1 LOG3 POP JUMP JUMPDEST PUSH1 0x8 DUP1 SLOAD PUSH2 0xE22 SWAP1 PUSH2 0x2AFC JUMP JUMPDEST DUP1 PUSH1 0x1F ADD PUSH1 0x20 DUP1 SWAP2 DIV MUL PUSH1 0x20 ADD PUSH1 0x40 MLOAD SWAP1 DUP2 ADD PUSH1 0x40 MSTORE DUP1 SWAP3 SWAP2 SWAP1 DUP2 DUP2 MSTORE PUSH1 0x20 ADD DUP3 DUP1 SLOAD PUSH2 0xE4E SWAP1 PUSH2 0x2AFC JUMP JUMPDEST DUP1 ISZERO PUSH2 0xE99 JUMPI DUP1 PUSH1 0x1F LT PUSH2 0xE70 JUMPI PUSH2 0x100 DUP1 DUP4 SLOAD DIV MUL DUP4 MSTORE SWAP2 PUSH1 0x20 ADD SWAP2 PUSH2 0xE99 JUMP JUMPDEST DUP3 ADD SWAP2 SWAP1 PUSH0 MSTORE PUSH1 0x20 PUSH0 KECCAK256 SWAP1 JUMPDEST DUP2 SLOAD DUP2 MSTORE SWAP1 PUSH1 0x1 ADD SWAP1 PUSH1 0x20 ADD DUP1 DUP4 GT PUSH2 0xE7C JUMPI DUP3 SWAP1 SUB PUSH1 0x1F AND DUP3 ADD SWAP2 JUMPDEST POP POP POP POP POP DUP2 JUMP JUMPDEST PUSH0 PUSH0 PUSH0 SWAP1 SLOAD SWAP1 PUSH2 0x100 EXP SWAP1 DIV PUSH20 0xFFFFFFFFFFFFFFFFFFFFFFFFFFFFFFFFFFFFFFFF AND SWAP1 POP SWAP1 JUMP JUMPDEST PUSH1 0x6 SLOAD DUP2 JUMP JUMPDEST PUSH2 0xED6 PUSH2 0x15CC JUMP JUMPDEST PUSH0 DUP3 DUP3 SWAP1 POP GT PUSH2 0xF1B JUMPI PUSH1 0x40 MLOAD PUSH32 0x8C379A000000000000000000000000000000000000000000000000000000000 DUP2 MSTORE PUSH1 0x4 ADD PUSH2 0xF12 SWAP1 PUSH2 0x2EA5 JUMP JUMPDEST PUSH1 0x40 MLOAD DUP1 SWAP2 SUB SWAP1 REVERT JUMPDEST DUP2 DUP2 PUSH1 0x7 SWAP2 DUP3 PUSH2 0xF2C SWAP3 SWAP2 SWAP1 PUSH2 0x306C JUMP JUMPDEST POP POP POP JUMP JUMPDEST PUSH0 PUSH1 0x1 PUSH1 0x2 ADD SLOAD SWAP1 POP SWAP1 JUMP JUMPDEST PUSH2 0xF45 PUSH2 0x15CC JUMP JUMPDEST PUSH0 DUP3 DUP3 SWAP1 POP GT PUSH2 0xF8A JUMPI PUSH1 0x40 MLOAD PUSH32 0x8C379A000000000000000000000000000000000000000000000000000000000 DUP2 MSTORE PUSH1 0x4 ADD PUSH2 0xF81 SWAP1 PUSH2 0x3183 JUMP JUMPDEST PUSH1 0x40 MLOAD DUP1 SWAP2 SUB SWAP1 REVERT JUMPDEST DUP2 DUP2 PUSH1 0x8 SWAP2 DUP3 PUSH2 0xF9B SWAP3 SWAP2 SWAP1 PUSH2 0x306C JUMP JUMPDEST POP PUSH1 0x6 SLOAD PUSH1 0x5 PUSH0 SWAP1 SLOAD SWAP1 PUSH2 0x100 EXP SWAP1 DIV PUSH8 0xFFFFFFFFFFFFFFFF AND PUSH8 0xFFFFFFFFFFFFFFFF AND PUSH32 0xBF4E1FC134A654F78502EE3E998525A7FE9F51B7119BA7B682C5CD36DC1B70D7 PUSH1 0x9 PUSH0 SWAP1 SLOAD SWAP1 PUSH2 0x100 EXP SWAP1 DIV PUSH4 0xFFFFFFFF AND PUSH1 0xA SLOAD PUSH1 0x8 PUSH1 0x40 MLOAD PUSH2 0x1006 SWAP4 SWAP3 SWAP2 SWAP1 PUSH2 0x2C8F JUMP JUMPDEST PUSH1 0x40 MLOAD DUP1 SWAP2 SUB SWAP1 LOG3 POP POP JUMP JUMPDEST PUSH2 0x101A PUSH2 0x15CC JUMP JUMPDEST PUSH0 DUP7 PUSH8 0xFFFFFFFFFFFFFFFF AND SUB PUSH2 0x1066 JUMPI PUSH1 0x40 MLOAD PUSH32 0x8C379A000000000000000000000000000000000000000000000000000000000 DUP2 MSTORE PUSH1 0x4 ADD PUSH2 0x105D SWAP1 PUSH2 0x31EB JUMP JUMPDEST PUSH1 0x40 MLOAD DUP1 SWAP2 SUB SWAP1 REVERT JUMPDEST PUSH0 PUSH0 SHL DUP6 SUB PUSH2 0x10AA JUMPI PUSH1 0x40 MLOAD PUSH32 0x8C379A000000000000000000000000000000000000000000000000000000000 DUP2 MSTORE PUSH1 0x4 ADD PUSH2 0x10A1 SWAP1 PUSH2 0x2DD5 JUMP JUMPDEST PUSH1 0x40 MLOAD DUP1 SWAP2 SUB SWAP1 REVERT JUMPDEST PUSH0 DUP5 PUSH4 0xFFFFFFFF AND GT PUSH2 0x10F2 JUMPI PUSH1 0x40 MLOAD PUSH32 0x8C379A000000000000000000000000000000000000000000000000000000000 DUP2 MSTORE PUSH1 0x4 ADD PUSH2 0x10E9 SWAP1 PUSH2 0x2B76 JUMP JUMPDEST PUSH1 0x40 MLOAD DUP1 SWAP2 SUB SWAP1 REVERT JUMPDEST PUSH3 0x493E0 DUP5 PUSH4 0xFFFFFFFF AND GT ISZERO PUSH2 0x113E JUMPI PUSH1 0x40 MLOAD PUSH32 0x8C379A000000000000000000000000000000000000000000000000000000000 DUP2 MSTORE PUSH1 0x4 ADD PUSH2 0x1135 SWAP1 PUSH2 0x2BDE JUMP JUMPDEST PUSH1 0x40 MLOAD DUP1 SWAP2 SUB SWAP1 REVERT JUMPDEST PUSH3 0x15180 DUP4 GT ISZERO PUSH2 0x1184 JUMPI PUSH1 0x40 MLOAD PUSH32 0x8C379A000000000000000000000000000000000000000000000000000000000 DUP2 MSTORE PUSH1 0x4 ADD PUSH2 0x117B SWAP1 PUSH2 0x2E3D JUMP JUMPDEST PUSH1 0x40 MLOAD DUP1 SWAP2 SUB SWAP1 REVERT JUMPDEST PUSH0 DUP3 DUP3 SWAP1 POP GT PUSH2 0x11C9 JUMPI PUSH1 0x40 MLOAD PUSH32 0x8C379A000000000000000000000000000000000000000000000000000000000 DUP2 MSTORE PUSH1 0x4 ADD PUSH2 0x11C0 SWAP1 PUSH2 0x3183 JUMP JUMPDEST PUSH1 0x40 MLOAD DUP1 SWAP2 SUB SWAP1 REVERT JUMPDEST DUP6 PUSH1 0x5 PUSH0 PUSH2 0x100 EXP DUP2 SLOAD DUP2 PUSH8 0xFFFFFFFFFFFFFFFF MUL NOT AND SWAP1 DUP4 PUSH8 0xFFFFFFFFFFFFFFFF AND MUL OR SWAP1 SSTORE POP DUP5 PUSH1 0x6 DUP2 SWAP1 SSTORE POP DUP4 PUSH1 0x9 PUSH0 PUSH2 0x100 EXP DUP2 SLOAD DUP2 PUSH4 0xFFFFFFFF MUL NOT AND SWAP1 DUP4 PUSH4 0xFFFFFFFF AND MUL OR SWAP1 SSTORE POP DUP3 PUSH1 0xA DUP2 SWAP1 SSTORE POP DUP2 DUP2 PUSH1 0x8 SWAP2 DUP3 PUSH2 0x1230 SWAP3 SWAP2 SWAP1 PUSH2 0x306C JUMP JUMPDEST POP PUSH1 0x6 SLOAD PUSH1 0x5 PUSH0 SWAP1 SLOAD SWAP1 PUSH2 0x100 EXP SWAP1 DIV PUSH8 0xFFFFFFFFFFFFFFFF AND PUSH8 0xFFFFFFFFFFFFFFFF AND PUSH32 0xBF4E1FC134A654F78502EE3E998525A7FE9F51B7119BA7B682C5CD36DC1B70D7 PUSH1 0x9 PUSH0 SWAP1 SLOAD SWAP1 PUSH2 0x100 EXP SWAP1 DIV PUSH4 0xFFFFFFFF AND PUSH1 0xA SLOAD PUSH1 0x8 PUSH1 0x40 MLOAD PUSH2 0x129B SWAP4 SWAP3 SWAP2 SWAP1 PUSH2 0x2C8F JUMP JUMPDEST PUSH1 0x40 MLOAD DUP1 SWAP2 SUB SWAP1 LOG3 POP POP POP POP POP POP JUMP JUMPDEST PUSH2 0x12B3 PUSH2 0x15CC JUMP JUMPDEST PUSH0 DUP2 PUSH8 0xFFFFFFFFFFFFFFFF AND SUB PUSH2 0x12FF JUMPI PUSH1 0x40 MLOAD PUSH32 0x8C379A000000000000000000000000000000000000000000000000000000000 DUP2 MSTORE PUSH1 0x4 ADD PUSH2 0x12F6 SWAP1 PUSH2 0x31EB JUMP JUMPDEST PUSH1 0x40 MLOAD DUP1 SWAP2 SUB SWAP1 REVERT JUMPDEST DUP1 PUSH1 0x5 PUSH0 PUSH2 0x100 EXP DUP2 SLOAD DUP2 PUSH8 0xFFFFFFFFFFFFFFFF MUL NOT AND SWAP1 DUP4 PUSH8 0xFFFFFFFFFFFFFFFF AND MUL OR SWAP1 SSTORE POP PUSH1 0x6 SLOAD PUSH1 0x5 PUSH0 SWAP1 SLOAD SWAP1 PUSH2 0x100 EXP SWAP1 DIV PUSH8 0xFFFFFFFFFFFFFFFF AND PUSH8 0xFFFFFFFFFFFFFFFF AND PUSH32 0xBF4E1FC134A654F78502EE3E998525A7FE9F51B7119BA7B682C5CD36DC1B70D7 PUSH1 0x9 PUSH0 SWAP1 SLOAD SWAP1 PUSH2 0x100 EXP SWAP1 DIV PUSH4 0xFFFFFFFF AND PUSH1 0xA SLOAD PUSH1 0x8 PUSH1 0x40 MLOAD PUSH2 0x1391 SWAP4 SWAP3 SWAP2 SWAP1 PUSH2 0x2C8F JUMP JUMPDEST PUSH1 0x40 MLOAD DUP1 SWAP2 SUB SWAP1 LOG3 POP JUMP JUMPDEST PUSH0 PUSH1 0x1 DUP1 ADD PUSH0 SWAP1 SLOAD SWAP1 PUSH2 0x100 EXP SWAP1 DIV PUSH1 0xFF AND SWAP1 POP SWAP1 JUMP JUMPDEST PUSH2 0x13BB PUSH2 0x15CC JUMP JUMPDEST PUSH0 PUSH20 0xFFFFFFFFFFFFFFFFFFFFFFFFFFFFFFFFFFFFFFFF AND DUP2 PUSH20 0xFFFFFFFFFFFFFFFFFFFFFFFFFFFFFFFFFFFFFFFF AND SUB PUSH2 0x142B JUMPI PUSH0 PUSH1 0x40 MLOAD PUSH32 0x1E4FBDF700000000000000000000000000000000000000000000000000000000 DUP2 MSTORE PUSH1 0x4 ADD PUSH2 0x1422 SWAP2 SWAP1 PUSH2 0x28D3 JUMP JUMPDEST PUSH1 0x40 MLOAD DUP1 SWAP2 SUB SWAP1 REVERT JUMPDEST PUSH2 0x1434 DUP2 PUSH2 0x1B94 JUMP JUMPDEST POP JUMP JUMPDEST PUSH1 0xC SLOAD DUP2 JUMP JUMPDEST PUSH1 0x9 PUSH0 SWAP1 SLOAD SWAP1 PUSH2 0x100 EXP SWAP1 DIV PUSH4 0xFFFFFFFF AND DUP2 JUMP JUMPDEST PUSH1 0xD SLOAD DUP2 JUMP JUMPDEST DUP3 PUSH1 0xD SLOAD EQ PUSH2 0x149E JUMPI DUP3 PUSH1 0x40 MLOAD PUSH32 0xD068BF5B00000000000000000000000000000000000000000000000000000000 DUP2 MSTORE PUSH1 0x4 ADD PUSH2 0x1495 SWAP2 SWAP1 PUSH2 0x27B9 JUMP JUMPDEST PUSH1 0x40 MLOAD DUP1 SWAP2 SUB SWAP1 REVERT JUMPDEST DUP1 PUSH1 0xF SWAP1 DUP2 PUSH2 0x14AD SWAP2 SWAP1 PUSH2 0x326E JUMP JUMPDEST POP DUP2 PUSH1 0xE SWAP1 DUP2 PUSH2 0x14BD SWAP2 SWAP1 PUSH2 0x326E JUMP JUMPDEST POP PUSH0 DUP3 MLOAD GT ISZERO PUSH2 0x158D JUMPI PUSH0 PUSH0 PUSH0 PUSH0 DUP6 DUP1 PUSH1 0x20 ADD SWAP1 MLOAD DUP2 ADD SWAP1 PUSH2 0x14DF SWAP2 SWAP1 PUSH2 0x338F JUMP JUMPDEST SWAP4 POP SWAP4 POP SWAP4 POP SWAP4 POP PUSH1 0x40 MLOAD DUP1 PUSH1 0x80 ADD PUSH1 0x40 MSTORE DUP1 DUP6 DUP2 MSTORE PUSH1 0x20 ADD DUP5 ISZERO ISZERO DUP2 MSTORE PUSH1 0x20 ADD DUP4 DUP2 MSTORE PUSH1 0x20 ADD DUP3 DUP2 MSTORE POP PUSH1 0x1 PUSH0 DUP3 ADD MLOAD DUP2 PUSH0 ADD SSTORE PUSH1 0x20 DUP3 ADD MLOAD DUP2 PUSH1 0x1 ADD PUSH0 PUSH2 0x100 EXP DUP2 SLOAD DUP2 PUSH1 0xFF MUL NOT AND SWAP1 DUP4 ISZERO ISZERO MUL OR SWAP1 SSTORE POP PUSH1 0x40 DUP3 ADD MLOAD DUP2 PUSH1 0x2 ADD SSTORE PUSH1 0x60 DUP3 ADD MLOAD DUP2 PUSH1 0x3 ADD SSTORE SWAP1 POP POP DUP7 PUSH32 0x5FE1C9595354B2D498CE7822DD270607C5E3F87172B0EB5ED29F2BBFD5DCC547 DUP6 DUP6 DUP6 DUP6 PUSH1 0x40 MLOAD PUSH2 0x1580 SWAP5 SWAP4 SWAP3 SWAP2 SWAP1 PUSH2 0x33F3 JUMP JUMPDEST PUSH1 0x40 MLOAD DUP1 SWAP2 SUB SWAP1 LOG2 POP POP POP POP JUMPDEST DUP3 PUSH32 0x7873807BF6DDC50401CD3D29BBE0DECEE23FD4D68D273F4B5EB83CDED4D2F172 DUP4 DUP4 PUSH1 0x40 MLOAD PUSH2 0x15BF SWAP3 SWAP2 SWAP1 PUSH2 0x3436 JUMP JUMPDEST PUSH1 0x40 MLOAD DUP1 SWAP2 SUB SWAP1 LOG2 POP POP POP JUMP JUMPDEST PUSH2 0x15D4 PUSH2 0x1C55 JUMP JUMPDEST PUSH20 0xFFFFFFFFFFFFFFFFFFFFFFFFFFFFFFFFFFFFFFFF AND PUSH2 0x15F2 PUSH2 0xEA1 JUMP JUMPDEST PUSH20 0xFFFFFFFFFFFFFFFFFFFFFFFFFFFFFFFFFFFFFFFF AND EQ PUSH2 0x1651 JUMPI PUSH2 0x1615 PUSH2 0x1C55 JUMP JUMPDEST PUSH1 0x40 MLOAD PUSH32 0x118CDAA700000000000000000000000000000000000000000000000000000000 DUP2 MSTORE PUSH1 0x4 ADD PUSH2 0x1648 SWAP2 SWAP1 PUSH2 0x28D3 JUMP JUMPDEST PUSH1 0x40 MLOAD DUP1 SWAP2 SUB SWAP1 REVERT JUMPDEST JUMP JUMPDEST PUSH2 0x165F DUP3 PUSH0 PUSH0 DUP5 PUSH2 0x1C5C JUMP JUMPDEST POP POP JUMP JUMPDEST PUSH0 DUP2 MLOAD SUB PUSH2 0x169D JUMPI PUSH1 0x40 MLOAD PUSH32 0xFE936CB700000000000000000000000000000000000000000000000000000000 DUP2 MSTORE PUSH1 0x4 ADD PUSH1 0x40 MLOAD DUP1 SWAP2 SUB SWAP1 REVERT JUMPDEST DUP1 DUP3 PUSH1 0xA0 ADD DUP2 SWAP1 MSTORE POP POP POP JUMP JUMPDEST PUSH1 0x60 PUSH0 PUSH2 0x16B8 PUSH2 0x100 PUSH2 0x1D02 JUMP JUMPDEST SWAP1 POP PUSH2 0x1702 PUSH1 0x40 MLOAD DUP1 PUSH1 0x40 ADD PUSH1 0x40 MSTORE DUP1 PUSH1 0xC DUP2 MSTORE PUSH1 0x20 ADD PUSH32 0x636F64654C6F636174696F6E0000000000000000000000000000000000000000 DUP2 MSTORE POP DUP3 PUSH2 0x1D27 SWAP1 SWAP2 SWAP1 PUSH4 0xFFFFFFFF AND JUMP JUMPDEST PUSH2 0x172A DUP4 PUSH0 ADD MLOAD PUSH1 0x2 DUP2 GT ISZERO PUSH2 0x171B JUMPI PUSH2 0x171A PUSH2 0x346B JUMP JUMPDEST JUMPDEST DUP3 PUSH2 0x1D4F SWAP1 SWAP2 SWAP1 PUSH4 0xFFFFFFFF AND JUMP JUMPDEST PUSH2 0x1772 PUSH1 0x40 MLOAD DUP1 PUSH1 0x40 ADD PUSH1 0x40 MSTORE DUP1 PUSH1 0x8 DUP2 MSTORE PUSH1 0x20 ADD PUSH32 0x6C616E6775616765000000000000000000000000000000000000000000000000 DUP2 MSTORE POP DUP3 PUSH2 0x1D27 SWAP1 SWAP2 SWAP1 PUSH4 0xFFFFFFFF AND JUMP JUMPDEST PUSH2 0x179A DUP4 PUSH1 0x40 ADD MLOAD PUSH0 DUP2 GT ISZERO PUSH2 0x178B JUMPI PUSH2 0x178A PUSH2 0x346B JUMP JUMPDEST JUMPDEST DUP3 PUSH2 0x1D4F SWAP1 SWAP2 SWAP1 PUSH4 0xFFFFFFFF AND JUMP JUMPDEST PUSH2 0x17E2 PUSH1 0x40 MLOAD DUP1 PUSH1 0x40 ADD PUSH1 0x40 MSTORE DUP1 PUSH1 0x6 DUP2 MSTORE PUSH1 0x20 ADD PUSH32 0x736F757263650000000000000000000000000000000000000000000000000000 DUP2 MSTORE POP DUP3 PUSH2 0x1D27 SWAP1 SWAP2 SWAP1 PUSH4 0xFFFFFFFF AND JUMP JUMPDEST PUSH2 0x17F9 DUP4 PUSH1 0x60 ADD MLOAD DUP3 PUSH2 0x1D27 SWAP1 SWAP2 SWAP1 PUSH4 0xFFFFFFFF AND JUMP JUMPDEST PUSH0 DUP4 PUSH1 0xA0 ADD MLOAD MLOAD GT ISZERO PUSH2 0x18B0 JUMPI PUSH2 0x184E PUSH1 0x40 MLOAD DUP1 PUSH1 0x40 ADD PUSH1 0x40 MSTORE DUP1 PUSH1 0x4 DUP2 MSTORE PUSH1 0x20 ADD PUSH32 0x6172677300000000000000000000000000000000000000000000000000000000 DUP2 MSTORE POP DUP3 PUSH2 0x1D27 SWAP1 SWAP2 SWAP1 PUSH4 0xFFFFFFFF AND JUMP JUMPDEST PUSH2 0x1857 DUP2 PUSH2 0x1D9E JUMP JUMPDEST PUSH0 PUSH0 SWAP1 POP JUMPDEST DUP4 PUSH1 0xA0 ADD MLOAD MLOAD DUP2 LT ISZERO PUSH2 0x18A5 JUMPI PUSH2 0x189A DUP5 PUSH1 0xA0 ADD MLOAD DUP3 DUP2 MLOAD DUP2 LT PUSH2 0x1883 JUMPI PUSH2 0x1882 PUSH2 0x2D5E JUMP JUMPDEST JUMPDEST PUSH1 0x20 MUL PUSH1 0x20 ADD ADD MLOAD DUP4 PUSH2 0x1D27 SWAP1 SWAP2 SWAP1 PUSH4 0xFFFFFFFF AND JUMP JUMPDEST DUP1 PUSH1 0x1 ADD SWAP1 POP PUSH2 0x185C JUMP JUMPDEST POP PUSH2 0x18AF DUP2 PUSH2 0x1DC6 JUMP JUMPDEST JUMPDEST PUSH0 DUP4 PUSH1 0x80 ADD MLOAD MLOAD GT ISZERO PUSH2 0x19EF JUMPI PUSH0 PUSH1 0x2 DUP2 GT ISZERO PUSH2 0x18D0 JUMPI PUSH2 0x18CF PUSH2 0x346B JUMP JUMPDEST JUMPDEST DUP4 PUSH1 0x20 ADD MLOAD PUSH1 0x2 DUP2 GT ISZERO PUSH2 0x18E7 JUMPI PUSH2 0x18E6 PUSH2 0x346B JUMP JUMPDEST JUMPDEST SUB PUSH2 0x191E JUMPI PUSH1 0x40 MLOAD PUSH32 0xA80D31F700000000000000000000000000000000000000000000000000000000 DUP2 MSTORE PUSH1 0x4 ADD PUSH1 0x40 MLOAD DUP1 SWAP2 SUB SWAP1 REVERT JUMPDEST PUSH2 0x1966 PUSH1 0x40 MLOAD DUP1 PUSH1 0x40 ADD PUSH1 0x40 MSTORE DUP1 PUSH1 0xF DUP2 MSTORE PUSH1 0x20 ADD PUSH32 0x736563726574734C6F636174696F6E0000000000000000000000000000000000 DUP2 MSTORE POP DUP3 PUSH2 0x1D27 SWAP1 SWAP2 SWAP1 PUSH4 0xFFFFFFFF AND JUMP JUMPDEST PUSH2 0x198F DUP4 PUSH1 0x20 ADD MLOAD PUSH1 0x2 DUP2 GT ISZERO PUSH2 0x1980 JUMPI PUSH2 0x197F PUSH2 0x346B JUMP JUMPDEST JUMPDEST DUP3 PUSH2 0x1D4F SWAP1 SWAP2 SWAP1 PUSH4 0xFFFFFFFF AND JUMP JUMPDEST PUSH2 0x19D7 PUSH1 0x40 MLOAD DUP1 PUSH1 0x40 ADD PUSH1 0x40 MSTORE DUP1 PUSH1 0x7 DUP2 MSTORE PUSH1 0x20 ADD PUSH32 0x7365637265747300000000000000000000000000000000000000000000000000 DUP2 MSTORE POP DUP3 PUSH2 0x1D27 SWAP1 SWAP2 SWAP1 PUSH4 0xFFFFFFFF AND JUMP JUMPDEST PUSH2 0x19EE DUP4 PUSH1 0x80 ADD MLOAD DUP3 PUSH2 0x1DEE SWAP1 SWAP2 SWAP1 PUSH4 0xFFFFFFFF AND JUMP JUMPDEST JUMPDEST PUSH0 DUP4 PUSH1 0xC0 ADD MLOAD MLOAD GT ISZERO PUSH2 0x1AA6 JUMPI PUSH2 0x1A44 PUSH1 0x40 MLOAD DUP1 PUSH1 0x40 ADD PUSH1 0x40 MSTORE DUP1 PUSH1 0x9 DUP2 MSTORE PUSH1 0x20 ADD PUSH32 0x6279746573417267730000000000000000000000000000000000000000000000 DUP2 MSTORE POP DUP3 PUSH2 0x1D27 SWAP1 SWAP2 SWAP1 PUSH4 0xFFFFFFFF AND JUMP JUMPDEST PUSH2 0x1A4D DUP2 PUSH2 0x1D9E JUMP JUMPDEST PUSH0 PUSH0 SWAP1 POP JUMPDEST DUP4 PUSH1 0xC0 ADD MLOAD MLOAD DUP2 LT ISZERO PUSH2 0x1A9B JUMPI PUSH2 0x1A90 DUP5 PUSH1 0xC0 ADD MLOAD DUP3 DUP2 MLOAD DUP2 LT PUSH2 0x1A79 JUMPI PUSH2 0x1A78 PUSH2 0x2D5E JUMP JUMPDEST JUMPDEST PUSH1 0x20 MUL PUSH1 0x20 ADD ADD MLOAD DUP4 PUSH2 0x1DEE SWAP1 SWAP2 SWAP1 PUSH4 0xFFFFFFFF AND JUMP JUMPDEST DUP1 PUSH1 0x1 ADD SWAP1 POP PUSH2 0x1A52 JUMP JUMPDEST POP PUSH2 0x1AA5 DUP2 PUSH2 0x1DC6 JUMP JUMPDEST JUMPDEST DUP1 PUSH0 ADD MLOAD PUSH0 ADD MLOAD SWAP2 POP POP SWAP2 SWAP1 POP JUMP JUMPDEST PUSH0 PUSH0 PUSH32 0x0 PUSH20 0xFFFFFFFFFFFFFFFFFFFFFFFFFFFFFFFFFFFFFFFF AND PUSH4 0x461D2762 DUP7 DUP9 PUSH1 0x1 DUP9 DUP9 PUSH1 0x40 MLOAD DUP7 PUSH4 0xFFFFFFFF AND PUSH1 0xE0 SHL DUP2 MSTORE PUSH1 0x4 ADD PUSH2 0x1B19 SWAP6 SWAP5 SWAP4 SWAP3 SWAP2 SWAP1 PUSH2 0x34B4 JUMP JUMPDEST PUSH1 0x20 PUSH1 0x40 MLOAD DUP1 DUP4 SUB DUP2 PUSH0 DUP8 GAS CALL ISZERO DUP1 ISZERO PUSH2 0x1B35 JUMPI RETURNDATASIZE PUSH0 PUSH0 RETURNDATACOPY RETURNDATASIZE PUSH0 REVERT JUMPDEST POP POP POP POP PUSH1 0x40 MLOAD RETURNDATASIZE PUSH1 0x1F NOT PUSH1 0x1F DUP3 ADD AND DUP3 ADD DUP1 PUSH1 0x40 MSTORE POP DUP2 ADD SWAP1 PUSH2 0x1B59 SWAP2 SWAP1 PUSH2 0x350C JUMP JUMPDEST SWAP1 POP DUP1 PUSH32 0x1131472297A800FEE664D1D89CFA8F7676FF07189ECC53F80BBB5F4969099DB8 PUSH1 0x40 MLOAD PUSH1 0x40 MLOAD DUP1 SWAP2 SUB SWAP1 LOG2 DUP1 SWAP2 POP POP SWAP5 SWAP4 POP POP POP POP JUMP JUMPDEST PUSH0 PUSH0 PUSH0 SWAP1 SLOAD SWAP1 PUSH2 0x100 EXP SWAP1 DIV PUSH20 0xFFFFFFFFFFFFFFFFFFFFFFFFFFFFFFFFFFFFFFFF AND SWAP1 POP DUP2 PUSH0 PUSH0 PUSH2 0x100 EXP DUP2 SLOAD DUP2 PUSH20 0xFFFFFFFFFFFFFFFFFFFFFFFFFFFFFFFFFFFFFFFF MUL NOT AND SWAP1 DUP4 PUSH20 0xFFFFFFFFFFFFFFFFFFFFFFFFFFFFFFFFFFFFFFFF AND MUL OR SWAP1 SSTORE POP DUP2 PUSH20 0xFFFFFFFFFFFFFFFFFFFFFFFFFFFFFFFFFFFFFFFF AND DUP2 PUSH20 0xFFFFFFFFFFFFFFFFFFFFFFFFFFFFFFFFFFFFFFFF AND PUSH32 0x8BE0079C531659141344CD1FD0A4F28419497F9722A3DAAFE3B4186F6B6457E0 PUSH1 0x40 MLOAD PUSH1 0x40 MLOAD DUP1 SWAP2 SUB SWAP1 LOG3 POP POP JUMP JUMPDEST PUSH0 CALLER SWAP1 POP SWAP1 JUMP JUMPDEST PUSH0 DUP2 MLOAD SUB PUSH2 0x1C96 JUMPI PUSH1 0x40 MLOAD PUSH32 0x22CE3EDD00000000000000000000000000000000000000000000000000000000 DUP2 MSTORE PUSH1 0x4 ADD PUSH1 0x40 MLOAD DUP1 SWAP2 SUB SWAP1 REVERT JUMPDEST DUP3 DUP5 PUSH0 ADD SWAP1 PUSH1 0x2 DUP2 GT ISZERO PUSH2 0x1CAD JUMPI PUSH2 0x1CAC PUSH2 0x346B JUMP JUMPDEST JUMPDEST SWAP1 DUP2 PUSH1 0x2 DUP2 GT ISZERO PUSH2 0x1CC1 JUMPI PUSH2 0x1CC0 PUSH2 0x346B JUMP JUMPDEST JUMPDEST DUP2 MSTORE POP POP DUP2 DUP5 PUSH1 0x40 ADD SWAP1 PUSH0 DUP2 GT ISZERO PUSH2 0x1CDC JUMPI PUSH2 0x1CDB PUSH2 0x346B JUMP JUMPDEST JUMPDEST SWAP1 DUP2 PUSH0 DUP2 GT ISZERO PUSH2 0x1CEF JUMPI PUSH2 0x1CEE PUSH2 0x346B JUMP JUMPDEST JUMPDEST DUP2 MSTORE POP POP DUP1 DUP5 PUSH1 0x60 ADD DUP2 SWAP1 MSTORE POP POP POP POP POP JUMP JUMPDEST PUSH2 0x1D0A PUSH2 0x22F1 JUMP JUMPDEST PUSH2 0x1D17 DUP2 PUSH0 ADD MLOAD DUP4 PUSH2 0x1E16 JUMP JUMPDEST POP PUSH0 DUP2 PUSH1 0x20 ADD DUP2 DUP2 MSTORE POP POP SWAP2 SWAP1 POP JUMP JUMPDEST PUSH2 0x1D34 DUP3 PUSH1 0x3 DUP4 MLOAD PUSH2 0x1E8C JUMP JUMPDEST PUSH2 0x1D4A DUP2 DUP4 PUSH0 ADD MLOAD PUSH2 0x202C SWAP1 SWAP2 SWAP1 PUSH4 0xFFFFFFFF AND JUMP JUMPDEST POP POP POP JUMP JUMPDEST PUSH2 0x1D70 PUSH1 0x2 PUSH1 0x5 PUSH1 0x6 PUSH1 0xFF AND SWAP1 SHL OR DUP4 PUSH0 ADD MLOAD PUSH2 0x2048 SWAP1 SWAP2 SWAP1 PUSH4 0xFFFFFFFF AND JUMP JUMPDEST POP PUSH2 0x1D9A DUP3 DUP3 PUSH1 0x40 MLOAD PUSH1 0x20 ADD PUSH2 0x1D86 SWAP2 SWAP1 PUSH2 0x2341 JUMP JUMPDEST PUSH1 0x40 MLOAD PUSH1 0x20 DUP2 DUP4 SUB SUB DUP2 MSTORE SWAP1 PUSH1 0x40 MSTORE PUSH2 0x1DEE JUMP JUMPDEST POP POP JUMP JUMPDEST PUSH2 0x1DA9 DUP2 PUSH1 0x4 PUSH2 0x20AF JUMP JUMPDEST PUSH1 0x1 DUP2 PUSH1 0x20 ADD DUP2 DUP2 MLOAD PUSH2 0x1DBC SWAP2 SWAP1 PUSH2 0x2CF8 JUMP JUMPDEST SWAP2 POP DUP2 DUP2 MSTORE POP POP POP JUMP JUMPDEST PUSH2 0x1DD1 DUP2 PUSH1 0x7 PUSH2 0x20AF JUMP JUMPDEST PUSH1 0x1 DUP2 PUSH1 0x20 ADD DUP2 DUP2 MLOAD PUSH2 0x1DE4 SWAP2 SWAP1 PUSH2 0x2D2B JUMP JUMPDEST SWAP2 POP DUP2 DUP2 MSTORE POP POP POP JUMP JUMPDEST PUSH2 0x1DFB DUP3 PUSH1 0x2 DUP4 MLOAD PUSH2 0x1E8C JUMP JUMPDEST PUSH2 0x1E11 DUP2 DUP4 PUSH0 ADD MLOAD PUSH2 0x202C SWAP1 SWAP2 SWAP1 PUSH4 0xFFFFFFFF AND JUMP JUMPDEST POP POP POP JUMP JUMPDEST PUSH2 0x1E1E PUSH2 0x2310 JUMP JUMPDEST PUSH0 PUSH1 0x20 DUP4 PUSH2 0x1E2C SWAP2 SWAP1 PUSH2 0x3564 JUMP JUMPDEST EQ PUSH2 0x1E58 JUMPI PUSH1 0x20 DUP3 PUSH2 0x1E3E SWAP2 SWAP1 PUSH2 0x3564 JUMP JUMPDEST PUSH1 0x20 PUSH2 0x1E4A SWAP2 SWAP1 PUSH2 0x2D2B JUMP JUMPDEST DUP3 PUSH2 0x1E55 SWAP2 SWAP1 PUSH2 0x2CF8 JUMP JUMPDEST SWAP2 POP JUMPDEST DUP2 DUP4 PUSH1 0x20 ADD DUP2 DUP2 MSTORE POP POP PUSH1 0x40 MLOAD DUP1 DUP5 MSTORE PUSH0 DUP2 MSTORE DUP3 DUP2 ADD PUSH1 0x20 ADD DUP2 DUP2 LT ISZERO PUSH2 0x1E7D JUMPI PUSH0 PUSH0 REVERT JUMPDEST DUP1 PUSH1 0x40 MSTORE POP POP DUP3 SWAP1 POP SWAP3 SWAP2 POP POP JUMP JUMPDEST PUSH1 0x17 DUP2 PUSH8 0xFFFFFFFFFFFFFFFF AND GT PUSH2 0x1EC6 JUMPI PUSH2 0x1EC0 DUP2 PUSH1 0x5 DUP5 PUSH1 0xFF AND SWAP1 SHL PUSH1 0xFF AND OR DUP5 PUSH0 ADD MLOAD PUSH2 0x2048 SWAP1 SWAP2 SWAP1 PUSH4 0xFFFFFFFF AND JUMP JUMPDEST POP PUSH2 0x2027 JUMP JUMPDEST PUSH1 0xFF DUP2 PUSH8 0xFFFFFFFFFFFFFFFF AND GT PUSH2 0x1F22 JUMPI PUSH2 0x1EF8 PUSH1 0x18 PUSH1 0x5 DUP5 PUSH1 0xFF AND SWAP1 SHL OR DUP5 PUSH0 ADD MLOAD PUSH2 0x2048 SWAP1 SWAP2 SWAP1 PUSH4 0xFFFFFFFF AND JUMP JUMPDEST POP PUSH2 0x1F1C DUP2 PUSH8 0xFFFFFFFFFFFFFFFF AND PUSH1 0x1 DUP6 PUSH0 ADD MLOAD PUSH2 0x20D4 SWAP1 SWAP3 SWAP2 SWAP1 PUSH4 0xFFFFFFFF AND JUMP JUMPDEST POP PUSH2 0x2026 JUMP JUMPDEST PUSH2 0xFFFF DUP2 PUSH8 0xFFFFFFFFFFFFFFFF AND GT PUSH2 0x1F7F JUMPI PUSH2 0x1F55 PUSH1 0x19 PUSH1 0x5 DUP5 PUSH1 0xFF AND SWAP1 SHL OR DUP5 PUSH0 ADD MLOAD PUSH2 0x2048 SWAP1 SWAP2 SWAP1 PUSH4 0xFFFFFFFF AND JUMP JUMPDEST POP PUSH2 0x1F79 DUP2 PUSH8 0xFFFFFFFFFFFFFFFF AND PUSH1 0x2 DUP6 PUSH0 ADD MLOAD PUSH2 0x20D4 SWAP1 SWAP3 SWAP2 SWAP1 PUSH4 0xFFFFFFFF AND JUMP JUMPDEST POP PUSH2 0x2025 JUMP JUMPDEST PUSH4 0xFFFFFFFF DUP2 PUSH8 0xFFFFFFFFFFFFFFFF AND GT PUSH2 0x1FDE JUMPI PUSH2 0x1FB4 PUSH1 0x1A PUSH1 0x5 DUP5 PUSH1 0xFF AND SWAP1 SHL OR DUP5 PUSH0 ADD MLOAD PUSH2 0x2048 SWAP1 SWAP2 SWAP1 PUSH4 0xFFFFFFFF AND JUMP JUMPDEST POP PUSH2 0x1FD8 DUP2 PUSH8 0xFFFFFFFFFFFFFFFF AND PUSH1 0x4 DUP6 PUSH0 ADD MLOAD PUSH2 0x20D4 SWAP1 SWAP3 SWAP2 SWAP1 PUSH4 0xFFFFFFFF AND JUMP JUMPDEST POP PUSH2 0x2024 JUMP JUMPDEST PUSH2 0x1FFE PUSH1 0x1B PUSH1 0x5 DUP5 PUSH1 0xFF AND SWAP1 SHL OR DUP5 PUSH0 ADD MLOAD PUSH2 0x2048 SWAP1 SWAP2 SWAP1 PUSH4 0xFFFFFFFF AND JUMP JUMPDEST POP PUSH2 0x2022 DUP2 PUSH8 0xFFFFFFFFFFFFFFFF AND PUSH1 0x8 DUP6 PUSH0 ADD MLOAD PUSH2 0x20D4 SWAP1 SWAP3 SWAP2 SWAP1 PUSH4 0xFFFFFFFF AND JUMP JUMPDEST POP JUMPDEST JUMPDEST JUMPDEST JUMPDEST POP POP POP JUMP JUMPDEST PUSH2 0x2034 PUSH2 0x2310 JUMP JUMPDEST PUSH2 0x2040 DUP4 DUP4 DUP5 MLOAD PUSH2 0x215D JUMP JUMPDEST SWAP1 POP SWAP3 SWAP2 POP POP JUMP JUMPDEST PUSH2 0x2050 PUSH2 0x2310 JUMP JUMPDEST PUSH0 DUP4 PUSH0 ADD MLOAD MLOAD SWAP1 POP PUSH0 PUSH1 0x1 DUP3 PUSH2 0x2066 SWAP2 SWAP1 PUSH2 0x2CF8 JUMP JUMPDEST SWAP1 POP DUP5 PUSH1 0x20 ADD MLOAD DUP3 LT PUSH2 0x208A JUMPI PUSH2 0x2089 DUP6 PUSH1 0x2 DUP4 PUSH2 0x2084 SWAP2 SWAP1 PUSH2 0x3594 JUMP JUMPDEST PUSH2 0x223A JUMP JUMPDEST JUMPDEST DUP5 MLOAD PUSH1 0x20 DUP4 DUP3 ADD ADD DUP6 DUP2 MSTORE8 DUP2 MLOAD DUP4 GT ISZERO PUSH2 0x20A2 JUMPI DUP3 DUP3 MSTORE JUMPDEST POP POP DUP5 SWAP3 POP POP POP SWAP3 SWAP2 POP POP JUMP JUMPDEST PUSH2 0x20CF PUSH1 0x1F PUSH1 0x5 DUP4 PUSH1 0xFF AND SWAP1 SHL OR DUP4 PUSH0 ADD MLOAD PUSH2 0x2048 SWAP1 SWAP2 SWAP1 PUSH4 0xFFFFFFFF AND JUMP JUMPDEST POP POP POP JUMP JUMPDEST PUSH2 0x20DC PUSH2 0x2310 JUMP JUMPDEST PUSH0 DUP5 PUSH0 ADD MLOAD MLOAD SWAP1 POP PUSH0 DUP2 DUP5 PUSH2 0x20F1 SWAP2 SWAP1 PUSH2 0x2CF8 JUMP JUMPDEST SWAP1 POP DUP6 PUSH1 0x20 ADD MLOAD DUP2 GT ISZERO PUSH2 0x2116 JUMPI PUSH2 0x2115 DUP7 PUSH1 0x2 DUP4 PUSH2 0x2110 SWAP2 SWAP1 PUSH2 0x3594 JUMP JUMPDEST PUSH2 0x223A JUMP JUMPDEST JUMPDEST PUSH0 PUSH1 0x1 DUP6 PUSH2 0x100 PUSH2 0x2127 SWAP2 SWAP1 PUSH2 0x3704 JUMP JUMPDEST PUSH2 0x2131 SWAP2 SWAP1 PUSH2 0x2D2B JUMP JUMPDEST SWAP1 POP DUP7 MLOAD DUP3 DUP2 ADD DUP8 DUP4 NOT DUP3 MLOAD AND OR DUP2 MSTORE DUP2 MLOAD DUP5 GT ISZERO PUSH2 0x214E JUMPI DUP4 DUP3 MSTORE JUMPDEST POP POP DUP7 SWAP4 POP POP POP POP SWAP4 SWAP3 POP POP POP JUMP JUMPDEST PUSH2 0x2165 PUSH2 0x2310 JUMP JUMPDEST DUP3 MLOAD DUP3 GT ISZERO PUSH2 0x2172 JUMPI PUSH0 PUSH0 REVERT JUMPDEST PUSH0 DUP5 PUSH0 ADD MLOAD MLOAD SWAP1 POP PUSH0 DUP4 DUP3 PUSH2 0x2187 SWAP2 SWAP1 PUSH2 0x2CF8 JUMP JUMPDEST SWAP1 POP DUP6 PUSH1 0x20 ADD MLOAD DUP2 GT ISZERO PUSH2 0x21AC JUMPI PUSH2 0x21AB DUP7 PUSH1 0x2 DUP4 PUSH2 0x21A6 SWAP2 SWAP1 PUSH2 0x3594 JUMP JUMPDEST PUSH2 0x223A JUMP JUMPDEST JUMPDEST PUSH0 PUSH0 DUP8 MLOAD DUP1 MLOAD DUP6 PUSH1 0x20 DUP4 ADD ADD SWAP4 POP DUP1 DUP6 GT ISZERO PUSH2 0x21C6 JUMPI DUP5 DUP3 MSTORE JUMPDEST PUSH1 0x20 DUP10 ADD SWAP3 POP POP POP JUMPDEST PUSH1 0x20 DUP7 LT PUSH2 0x220D JUMPI DUP1 MLOAD DUP3 MSTORE PUSH1 0x20 DUP3 PUSH2 0x21E8 SWAP2 SWAP1 PUSH2 0x2CF8 JUMP JUMPDEST SWAP2 POP PUSH1 0x20 DUP2 PUSH2 0x21F7 SWAP2 SWAP1 PUSH2 0x2CF8 JUMP JUMPDEST SWAP1 POP PUSH1 0x20 DUP7 PUSH2 0x2206 SWAP2 SWAP1 PUSH2 0x2D2B JUMP JUMPDEST SWAP6 POP PUSH2 0x21CF JUMP JUMPDEST PUSH0 PUSH1 0x1 DUP8 PUSH1 0x20 SUB PUSH2 0x100 EXP SUB SWAP1 POP DUP1 NOT DUP3 MLOAD AND DUP2 DUP5 MLOAD AND DUP2 DUP2 OR DUP6 MSTORE POP POP POP DUP8 SWAP5 POP POP POP POP POP SWAP4 SWAP3 POP POP POP JUMP JUMPDEST PUSH0 DUP3 PUSH0 ADD MLOAD SWAP1 POP PUSH2 0x224B DUP4 DUP4 PUSH2 0x1E16 JUMP JUMPDEST POP PUSH2 0x2256 DUP4 DUP3 PUSH2 0x202C JUMP JUMPDEST POP POP POP POP JUMP JUMPDEST PUSH1 0x40 MLOAD DUP1 PUSH1 0x80 ADD PUSH1 0x40 MSTORE DUP1 PUSH0 DUP2 MSTORE PUSH1 0x20 ADD PUSH0 ISZERO ISZERO DUP2 MSTORE PUSH1 0x20 ADD PUSH0 DUP2 MSTORE PUSH1 0x20 ADD PUSH0 DUP2 MSTORE POP SWAP1 JUMP JUMPDEST PUSH1 0x40 MLOAD DUP1 PUSH1 0xE0 ADD PUSH1 0x40 MSTORE DUP1 PUSH0 PUSH1 0x2 DUP2 GT ISZERO PUSH2 0x22A0 JUMPI PUSH2 0x229F PUSH2 0x346B JUMP JUMPDEST JUMPDEST DUP2 MSTORE PUSH1 0x20 ADD PUSH0 PUSH1 0x2 DUP2 GT ISZERO PUSH2 0x22B8 JUMPI PUSH2 0x22B7 PUSH2 0x346B JUMP JUMPDEST JUMPDEST DUP2 MSTORE PUSH1 0x20 ADD PUSH0 PUSH0 DUP2 GT ISZERO PUSH2 0x22CF JUMPI PUSH2 0x22CE PUSH2 0x346B JUMP JUMPDEST JUMPDEST DUP2 MSTORE PUSH1 0x20 ADD PUSH1 0x60 DUP2 MSTORE PUSH1 0x20 ADD PUSH1 0x60 DUP2 MSTORE PUSH1 0x20 ADD PUSH1 0x60 DUP2 MSTORE PUSH1 0x20 ADD PUSH1 0x60 DUP2 MSTORE POP SWAP1 JUMP JUMPDEST PUSH1 0x40 MLOAD DUP1 PUSH1 0x40 ADD PUSH1 0x40 MSTORE DUP1 PUSH2 0x2304 PUSH2 0x2310 JUMP JUMPDEST DUP2 MSTORE PUSH1 0x20 ADD PUSH0 DUP2 MSTORE POP SWAP1 JUMP JUMPDEST PUSH1 0x40 MLOAD DUP1 PUSH1 0x40 ADD PUSH1 0x40 MSTORE DUP1 PUSH1 0x60 DUP2 MSTORE PUSH1 0x20 ADD PUSH0 DUP2 MSTORE POP SWAP1 JUMP JUMPDEST PUSH0 DUP2 SWAP1 POP SWAP2 SWAP1 POP JUMP JUMPDEST PUSH2 0x233B DUP2 PUSH2 0x2329 JUMP JUMPDEST DUP3 MSTORE POP POP JUMP JUMPDEST PUSH0 PUSH1 0x20 DUP3 ADD SWAP1 POP PUSH2 0x2354 PUSH0 DUP4 ADD DUP5 PUSH2 0x2332 JUMP JUMPDEST SWAP3 SWAP2 POP POP JUMP JUMPDEST PUSH0 PUSH8 0xFFFFFFFFFFFFFFFF DUP3 AND SWAP1 POP SWAP2 SWAP1 POP JUMP JUMPDEST PUSH2 0x2376 DUP2 PUSH2 0x235A JUMP JUMPDEST DUP3 MSTORE POP POP JUMP JUMPDEST PUSH0 PUSH1 0x20 DUP3 ADD SWAP1 POP PUSH2 0x238F PUSH0 DUP4 ADD DUP5 PUSH2 0x236D JUMP JUMPDEST SWAP3 SWAP2 POP POP JUMP JUMPDEST PUSH0 PUSH1 0x40 MLOAD SWAP1 POP SWAP1 JUMP JUMPDEST PUSH0 PUSH0 REVERT JUMPDEST PUSH0 PUSH0 REVERT JUMPDEST PUSH0 DUP2 SWAP1 POP SWAP2 SWAP1 POP JUMP JUMPDEST PUSH2 0x23B8 DUP2 PUSH2 0x23A6 JUMP JUMPDEST DUP2 EQ PUSH2 0x23C2 JUMPI PUSH0 PUSH0 REVERT JUMPDEST POP JUMP JUMPDEST PUSH0 DUP2 CALLDATALOAD SWAP1 POP PUSH2 0x23D3 DUP2 PUSH2 0x23AF JUMP JUMPDEST SWAP3 SWAP2 POP POP JUMP JUMPDEST PUSH0 PUSH0 REVERT JUMPDEST PUSH0 PUSH0 REVERT JUMPDEST PUSH0 PUSH1 0x1F NOT PUSH1 0x1F DUP4 ADD AND SWAP1 POP SWAP2 SWAP1 POP JUMP JUMPDEST PUSH32 0x4E487B7100000000000000000000000000000000000000000000000000000000 PUSH0 MSTORE PUSH1 0x41 PUSH1 0x4 MSTORE PUSH1 0x24 PUSH0 REVERT JUMPDEST PUSH2 0x2427 DUP3 PUSH2 0x23E1 JUMP JUMPDEST DUP2 ADD DUP2 DUP2 LT PUSH8 0xFFFFFFFFFFFFFFFF DUP3 GT OR ISZERO PUSH2 0x2446 JUMPI PUSH2 0x2445 PUSH2 0x23F1 JUMP JUMPDEST JUMPDEST DUP1 PUSH1 0x40 MSTORE POP POP POP JUMP JUMPDEST PUSH0 PUSH2 0x2458 PUSH2 0x2395 JUMP JUMPDEST SWAP1 POP PUSH2 0x2464 DUP3 DUP3 PUSH2 0x241E JUMP JUMPDEST SWAP2 SWAP1 POP JUMP JUMPDEST PUSH0 PUSH8 0xFFFFFFFFFFFFFFFF DUP3 GT ISZERO PUSH2 0x2483 JUMPI PUSH2 0x2482 PUSH2 0x23F1 JUMP JUMPDEST JUMPDEST PUSH2 0x248C DUP3 PUSH2 0x23E1 JUMP JUMPDEST SWAP1 POP PUSH1 0x20 DUP2 ADD SWAP1 POP SWAP2 SWAP1 POP JUMP JUMPDEST DUP3 DUP2 DUP4 CALLDATACOPY PUSH0 DUP4 DUP4 ADD MSTORE POP POP POP JUMP JUMPDEST PUSH0 PUSH2 0x24B9 PUSH2 0x24B4 DUP5 PUSH2 0x2469 JUMP JUMPDEST PUSH2 0x244F JUMP JUMPDEST SWAP1 POP DUP3 DUP2 MSTORE PUSH1 0x20 DUP2 ADD DUP5 DUP5 DUP5 ADD GT ISZERO PUSH2 0x24D5 JUMPI PUSH2 0x24D4 PUSH2 0x23DD JUMP JUMPDEST JUMPDEST PUSH2 0x24E0 DUP5 DUP3 DUP6 PUSH2 0x2499 JUMP JUMPDEST POP SWAP4 SWAP3 POP POP POP JUMP JUMPDEST PUSH0 DUP3 PUSH1 0x1F DUP4 ADD SLT PUSH2 0x24FC JUMPI PUSH2 0x24FB PUSH2 0x23D9 JUMP JUMPDEST JUMPDEST DUP2 CALLDATALOAD PUSH2 0x250C DUP5 DUP3 PUSH1 0x20 DUP7 ADD PUSH2 0x24A7 JUMP JUMPDEST SWAP2 POP POP SWAP3 SWAP2 POP POP JUMP JUMPDEST PUSH0 PUSH0 PUSH0 PUSH1 0x60 DUP5 DUP7 SUB SLT ISZERO PUSH2 0x252C JUMPI PUSH2 0x252B PUSH2 0x239E JUMP JUMPDEST JUMPDEST PUSH0 PUSH2 0x2539 DUP7 DUP3 DUP8 ADD PUSH2 0x23C5 JUMP JUMPDEST SWAP4 POP POP PUSH1 0x20 DUP5 ADD CALLDATALOAD PUSH8 0xFFFFFFFFFFFFFFFF DUP2 GT ISZERO PUSH2 0x255A JUMPI PUSH2 0x2559 PUSH2 0x23A2 JUMP JUMPDEST JUMPDEST PUSH2 0x2566 DUP7 DUP3 DUP8 ADD PUSH2 0x24E8 JUMP JUMPDEST SWAP3 POP POP PUSH1 0x40 DUP5 ADD CALLDATALOAD PUSH8 0xFFFFFFFFFFFFFFFF DUP2 GT ISZERO PUSH2 0x2587 JUMPI PUSH2 0x2586 PUSH2 0x23A2 JUMP JUMPDEST JUMPDEST PUSH2 0x2593 DUP7 DUP3 DUP8 ADD PUSH2 0x24E8 JUMP JUMPDEST SWAP2 POP POP SWAP3 POP SWAP3 POP SWAP3 JUMP JUMPDEST PUSH2 0x25A6 DUP2 PUSH2 0x2329 JUMP JUMPDEST DUP3 MSTORE POP POP JUMP JUMPDEST PUSH0 DUP2 ISZERO ISZERO SWAP1 POP SWAP2 SWAP1 POP JUMP JUMPDEST PUSH2 0x25C0 DUP2 PUSH2 0x25AC JUMP JUMPDEST DUP3 MSTORE POP POP JUMP JUMPDEST PUSH2 0x25CF DUP2 PUSH2 0x23A6 JUMP JUMPDEST DUP3 MSTORE POP POP JUMP JUMPDEST PUSH1 0x80 DUP3 ADD PUSH0 DUP3 ADD MLOAD PUSH2 0x25E9 PUSH0 DUP6 ADD DUP3 PUSH2 0x259D JUMP JUMPDEST POP PUSH1 0x20 DUP3 ADD MLOAD PUSH2 0x25FC PUSH1 0x20 DUP6 ADD DUP3 PUSH2 0x25B7 JUMP JUMPDEST POP PUSH1 0x40 DUP3 ADD MLOAD PUSH2 0x260F PUSH1 0x40 DUP6 ADD DUP3 PUSH2 0x259D JUMP JUMPDEST POP PUSH1 0x60 DUP3 ADD MLOAD PUSH2 0x2622 PUSH1 0x60 DUP6 ADD DUP3 PUSH2 0x25C6 JUMP JUMPDEST POP POP POP POP JUMP JUMPDEST PUSH0 PUSH1 0x80 DUP3 ADD SWAP1 POP PUSH2 0x263B PUSH0 DUP4 ADD DUP5 PUSH2 0x25D5 JUMP JUMPDEST SWAP3 SWAP2 POP POP JUMP JUMPDEST PUSH0 DUP2 MLOAD SWAP1 POP SWAP2 SWAP1 POP JUMP JUMPDEST PUSH0 DUP3 DUP3 MSTORE PUSH1 0x20 DUP3 ADD SWAP1 POP SWAP3 SWAP2 POP POP JUMP JUMPDEST DUP3 DUP2 DUP4 MCOPY PUSH0 DUP4 DUP4 ADD MSTORE POP POP POP JUMP JUMPDEST PUSH0 PUSH2 0x2673 DUP3 PUSH2 0x2641 JUMP JUMPDEST PUSH2 0x267D DUP2 DUP6 PUSH2 0x264B JUMP JUMPDEST SWAP4 POP PUSH2 0x268D DUP2 DUP6 PUSH1 0x20 DUP7 ADD PUSH2 0x265B JUMP JUMPDEST PUSH2 0x2696 DUP2 PUSH2 0x23E1 JUMP JUMPDEST DUP5 ADD SWAP2 POP POP SWAP3 SWAP2 POP POP JUMP JUMPDEST PUSH0 PUSH1 0x20 DUP3 ADD SWAP1 POP DUP2 DUP2 SUB PUSH0 DUP4 ADD MSTORE PUSH2 0x26B9 DUP2 DUP5 PUSH2 0x2669 JUMP JUMPDEST SWAP1 POP SWAP3 SWAP2 POP POP JUMP JUMPDEST PUSH0 PUSH4 0xFFFFFFFF DUP3 AND SWAP1 POP SWAP2 SWAP1 POP JUMP JUMPDEST PUSH2 0x26D9 DUP2 PUSH2 0x26C1 JUMP JUMPDEST DUP2 EQ PUSH2 0x26E3 JUMPI PUSH0 PUSH0 REVERT JUMPDEST POP JUMP JUMPDEST PUSH0 DUP2 CALLDATALOAD SWAP1 POP PUSH2 0x26F4 DUP2 PUSH2 0x26D0 JUMP JUMPDEST SWAP3 SWAP2 POP POP JUMP JUMPDEST PUSH0 PUSH1 0x20 DUP3 DUP5 SUB SLT ISZERO PUSH2 0x270F JUMPI PUSH2 0x270E PUSH2 0x239E JUMP JUMPDEST JUMPDEST PUSH0 PUSH2 0x271C DUP5 DUP3 DUP6 ADD PUSH2 0x26E6 JUMP JUMPDEST SWAP2 POP POP SWAP3 SWAP2 POP POP JUMP JUMPDEST PUSH0 PUSH20 0xFFFFFFFFFFFFFFFFFFFFFFFFFFFFFFFFFFFFFFFF DUP3 AND SWAP1 POP SWAP2 SWAP1 POP JUMP JUMPDEST PUSH0 PUSH2 0x274E DUP3 PUSH2 0x2725 JUMP JUMPDEST SWAP1 POP SWAP2 SWAP1 POP JUMP JUMPDEST PUSH2 0x275E DUP2 PUSH2 0x2744 JUMP JUMPDEST DUP2 EQ PUSH2 0x2768 JUMPI PUSH0 PUSH0 REVERT JUMPDEST POP JUMP JUMPDEST PUSH0 DUP2 CALLDATALOAD SWAP1 POP PUSH2 0x2779 DUP2 PUSH2 0x2755 JUMP JUMPDEST SWAP3 SWAP2 POP POP JUMP JUMPDEST PUSH0 PUSH1 0x20 DUP3 DUP5 SUB SLT ISZERO PUSH2 0x2794 JUMPI PUSH2 0x2793 PUSH2 0x239E JUMP JUMPDEST JUMPDEST PUSH0 PUSH2 0x27A1 DUP5 DUP3 DUP6 ADD PUSH2 0x276B JUMP JUMPDEST SWAP2 POP POP SWAP3 SWAP2 POP POP JUMP JUMPDEST PUSH2 0x27B3 DUP2 PUSH2 0x23A6 JUMP JUMPDEST DUP3 MSTORE POP POP JUMP JUMPDEST PUSH0 PUSH1 0x20 DUP3 ADD SWAP1 POP PUSH2 0x27CC PUSH0 DUP4 ADD DUP5 PUSH2 0x27AA JUMP JUMPDEST SWAP3 SWAP2 POP POP JUMP JUMPDEST PUSH0 DUP2 MLOAD SWAP1 POP SWAP2 SWAP1 POP JUMP JUMPDEST PUSH0 DUP3 DUP3 MSTORE PUSH1 0x20 DUP3 ADD SWAP1 POP SWAP3 SWAP2 POP POP JUMP JUMPDEST PUSH0 PUSH2 0x27F6 DUP3 PUSH2 0x27D2 JUMP JUMPDEST PUSH2 0x2800 DUP2 DUP6 PUSH2 0x27DC JUMP JUMPDEST SWAP4 POP PUSH2 0x2810 DUP2 DUP6 PUSH1 0x20 DUP7 ADD PUSH2 0x265B JUMP JUMPDEST PUSH2 0x2819 DUP2 PUSH2 0x23E1 JUMP JUMPDEST DUP5 ADD SWAP2 POP POP SWAP3 SWAP2 POP POP JUMP JUMPDEST PUSH0 PUSH1 0x20 DUP3 ADD SWAP1 POP DUP2 DUP2 SUB PUSH0 DUP4 ADD MSTORE PUSH2 0x283C DUP2 DUP5 PUSH2 0x27EC JUMP JUMPDEST SWAP1 POP SWAP3 SWAP2 POP POP JUMP JUMPDEST PUSH0 PUSH1 0x20 DUP3 DUP5 SUB SLT ISZERO PUSH2 0x2859 JUMPI PUSH2 0x2858 PUSH2 0x239E JUMP JUMPDEST JUMPDEST PUSH0 PUSH2 0x2866 DUP5 DUP3 DUP6 ADD PUSH2 0x23C5 JUMP JUMPDEST SWAP2 POP POP SWAP3 SWAP2 POP POP JUMP JUMPDEST PUSH2 0x2878 DUP2 PUSH2 0x2329 JUMP JUMPDEST DUP2 EQ PUSH2 0x2882 JUMPI PUSH0 PUSH0 REVERT JUMPDEST POP JUMP JUMPDEST PUSH0 DUP2 CALLDATALOAD SWAP1 POP PUSH2 0x2893 DUP2 PUSH2 0x286F JUMP JUMPDEST SWAP3 SWAP2 POP POP JUMP JUMPDEST PUSH0 PUSH1 0x20 DUP3 DUP5 SUB SLT ISZERO PUSH2 0x28AE JUMPI PUSH2 0x28AD PUSH2 0x239E JUMP JUMPDEST JUMPDEST PUSH0 PUSH2 0x28BB DUP5 DUP3 DUP6 ADD PUSH2 0x2885 JUMP JUMPDEST SWAP2 POP POP SWAP3 SWAP2 POP POP JUMP JUMPDEST PUSH2 0x28CD DUP2 PUSH2 0x2744 JUMP JUMPDEST DUP3 MSTORE POP POP JUMP JUMPDEST PUSH0 PUSH1 0x20 DUP3 ADD SWAP1 POP PUSH2 0x28E6 PUSH0 DUP4 ADD DUP5 PUSH2 0x28C4 JUMP JUMPDEST SWAP3 SWAP2 POP POP JUMP JUMPDEST PUSH0 PUSH0 REVERT JUMPDEST PUSH0 PUSH0 REVERT JUMPDEST PUSH0 PUSH0 DUP4 PUSH1 0x1F DUP5 ADD SLT PUSH2 0x2909 JUMPI PUSH2 0x2908 PUSH2 0x23D9 JUMP JUMPDEST JUMPDEST DUP3 CALLDATALOAD SWAP1 POP PUSH8 0xFFFFFFFFFFFFFFFF DUP2 GT ISZERO PUSH2 0x2926 JUMPI PUSH2 0x2925 PUSH2 0x28EC JUMP JUMPDEST JUMPDEST PUSH1 0x20 DUP4 ADD SWAP2 POP DUP4 PUSH1 0x1 DUP3 MUL DUP4 ADD GT ISZERO PUSH2 0x2942 JUMPI PUSH2 0x2941 PUSH2 0x28F0 JUMP JUMPDEST JUMPDEST SWAP3 POP SWAP3 SWAP1 POP JUMP JUMPDEST PUSH0 PUSH0 PUSH1 0x20 DUP4 DUP6 SUB SLT ISZERO PUSH2 0x295F JUMPI PUSH2 0x295E PUSH2 0x239E JUMP JUMPDEST JUMPDEST PUSH0 DUP4 ADD CALLDATALOAD PUSH8 0xFFFFFFFFFFFFFFFF DUP2 GT ISZERO PUSH2 0x297C JUMPI PUSH2 0x297B PUSH2 0x23A2 JUMP JUMPDEST JUMPDEST PUSH2 0x2988 DUP6 DUP3 DUP7 ADD PUSH2 0x28F4 JUMP JUMPDEST SWAP3 POP SWAP3 POP POP SWAP3 POP SWAP3 SWAP1 POP JUMP JUMPDEST PUSH2 0x299D DUP2 PUSH2 0x235A JUMP JUMPDEST DUP2 EQ PUSH2 0x29A7 JUMPI PUSH0 PUSH0 REVERT JUMPDEST POP JUMP JUMPDEST PUSH0 DUP2 CALLDATALOAD SWAP1 POP PUSH2 0x29B8 DUP2 PUSH2 0x2994 JUMP JUMPDEST SWAP3 SWAP2 POP POP JUMP JUMPDEST PUSH0 PUSH0 PUSH0 PUSH0 PUSH0 PUSH0 PUSH1 0xA0 DUP8 DUP10 SUB SLT ISZERO PUSH2 0x29D8 JUMPI PUSH2 0x29D7 PUSH2 0x239E JUMP JUMPDEST JUMPDEST PUSH0 PUSH2 0x29E5 DUP10 DUP3 DUP11 ADD PUSH2 0x29AA JUMP JUMPDEST SWAP7 POP POP PUSH1 0x20 PUSH2 0x29F6 DUP10 DUP3 DUP11 ADD PUSH2 0x23C5 JUMP JUMPDEST SWAP6 POP POP PUSH1 0x40 PUSH2 0x2A07 DUP10 DUP3 DUP11 ADD PUSH2 0x26E6 JUMP JUMPDEST SWAP5 POP POP PUSH1 0x60 PUSH2 0x2A18 DUP10 DUP3 DUP11 ADD PUSH2 0x2885 JUMP JUMPDEST SWAP4 POP POP PUSH1 0x80 DUP8 ADD CALLDATALOAD PUSH8 0xFFFFFFFFFFFFFFFF DUP2 GT ISZERO PUSH2 0x2A39 JUMPI PUSH2 0x2A38 PUSH2 0x23A2 JUMP JUMPDEST JUMPDEST PUSH2 0x2A45 DUP10 DUP3 DUP11 ADD PUSH2 0x28F4 JUMP JUMPDEST SWAP3 POP SWAP3 POP POP SWAP3 SWAP6 POP SWAP3 SWAP6 POP SWAP3 SWAP6 JUMP JUMPDEST PUSH0 PUSH1 0x20 DUP3 DUP5 SUB SLT ISZERO PUSH2 0x2A69 JUMPI PUSH2 0x2A68 PUSH2 0x239E JUMP JUMPDEST JUMPDEST PUSH0 PUSH2 0x2A76 DUP5 DUP3 DUP6 ADD PUSH2 0x29AA JUMP JUMPDEST SWAP2 POP POP SWAP3 SWAP2 POP POP JUMP JUMPDEST PUSH2 0x2A88 DUP2 PUSH2 0x25AC JUMP JUMPDEST DUP3 MSTORE POP POP JUMP JUMPDEST PUSH0 PUSH1 0x20 DUP3 ADD SWAP1 POP PUSH2 0x2AA1 PUSH0 DUP4 ADD DUP5 PUSH2 0x2A7F JUMP JUMPDEST SWAP3 SWAP2 POP POP JUMP JUMPDEST PUSH2 0x2AB0 DUP2 PUSH2 0x26C1 JUMP JUMPDEST DUP3 MSTORE POP POP JUMP JUMPDEST PUSH0 PUSH1 0x20 DUP3 ADD SWAP1 POP PUSH2 0x2AC9 PUSH0 DUP4 ADD DUP5 PUSH2 0x2AA7 JUMP JUMPDEST SWAP3 SWAP2 POP POP JUMP JUMPDEST PUSH32 0x4E487B7100000000000000000000000000000000000000000000000000000000 PUSH0 MSTORE PUSH1 0x22 PUSH1 0x4 MSTORE PUSH1 0x24 PUSH0 REVERT JUMPDEST PUSH0 PUSH1 0x2 DUP3 DIV SWAP1 POP PUSH1 0x1 DUP3 AND DUP1 PUSH2 0x2B13 JUMPI PUSH1 0x7F DUP3 AND SWAP2 POP JUMPDEST PUSH1 0x20 DUP3 LT DUP2 SUB PUSH2 0x2B26 JUMPI PUSH2 0x2B25 PUSH2 0x2ACF JUMP JUMPDEST JUMPDEST POP SWAP2 SWAP1 POP JUMP JUMPDEST PUSH32 0x7A65726F206761734C696D697400000000000000000000000000000000000000 PUSH0 DUP3 ADD MSTORE POP JUMP JUMPDEST PUSH0 PUSH2 0x2B60 PUSH1 0xD DUP4 PUSH2 0x27DC JUMP JUMPDEST SWAP2 POP PUSH2 0x2B6B DUP3 PUSH2 0x2B2C JUMP JUMPDEST PUSH1 0x20 DUP3 ADD SWAP1 POP SWAP2 SWAP1 POP JUMP JUMPDEST PUSH0 PUSH1 0x20 DUP3 ADD SWAP1 POP DUP2 DUP2 SUB PUSH0 DUP4 ADD MSTORE PUSH2 0x2B8D DUP2 PUSH2 0x2B54 JUMP JUMPDEST SWAP1 POP SWAP2 SWAP1 POP JUMP JUMPDEST PUSH32 0x6761734C696D697420746F6F2068696768000000000000000000000000000000 PUSH0 DUP3 ADD MSTORE POP JUMP JUMPDEST PUSH0 PUSH2 0x2BC8 PUSH1 0x11 DUP4 PUSH2 0x27DC JUMP JUMPDEST SWAP2 POP PUSH2 0x2BD3 DUP3 PUSH2 0x2B94 JUMP JUMPDEST PUSH1 0x20 DUP3 ADD SWAP1 POP SWAP2 SWAP1 POP JUMP JUMPDEST PUSH0 PUSH1 0x20 DUP3 ADD SWAP1 POP DUP2 DUP2 SUB PUSH0 DUP4 ADD MSTORE PUSH2 0x2BF5 DUP2 PUSH2 0x2BBC JUMP JUMPDEST SWAP1 POP SWAP2 SWAP1 POP JUMP JUMPDEST PUSH0 DUP2 SWAP1 POP DUP2 PUSH0 MSTORE PUSH1 0x20 PUSH0 KECCAK256 SWAP1 POP SWAP2 SWAP1 POP JUMP JUMPDEST PUSH0 DUP2 SLOAD PUSH2 0x2C1A DUP2 PUSH2 0x2AFC JUMP JUMPDEST PUSH2 0x2C24 DUP2 DUP7 PUSH2 0x27DC JUMP JUMPDEST SWAP5 POP PUSH1 0x1 DUP3 AND PUSH0 DUP2 EQ PUSH2 0x2C3E JUMPI PUSH1 0x1 DUP2 EQ PUSH2 0x2C54 JUMPI PUSH2 0x2C86 JUMP JUMPDEST PUSH1 0xFF NOT DUP4 AND DUP7 MSTORE DUP2 ISZERO ISZERO PUSH1 0x20 MUL DUP7 ADD SWAP4 POP PUSH2 0x2C86 JUMP JUMPDEST PUSH2 0x2C5D DUP6 PUSH2 0x2BFC JUMP JUMPDEST PUSH0 JUMPDEST DUP4 DUP2 LT ISZERO PUSH2 0x2C7E JUMPI DUP2 SLOAD DUP2 DUP10 ADD MSTORE PUSH1 0x1 DUP3 ADD SWAP2 POP PUSH1 0x20 DUP2 ADD SWAP1 POP PUSH2 0x2C5F JUMP JUMPDEST DUP1 DUP9 ADD SWAP6 POP POP POP JUMPDEST POP POP POP SWAP3 SWAP2 POP POP JUMP JUMPDEST PUSH0 PUSH1 0x60 DUP3 ADD SWAP1 POP PUSH2 0x2CA2 PUSH0 DUP4 ADD DUP7 PUSH2 0x2AA7 JUMP JUMPDEST PUSH2 0x2CAF PUSH1 0x20 DUP4 ADD DUP6 PUSH2 0x2332 JUMP JUMPDEST DUP2 DUP2 SUB PUSH1 0x40 DUP4 ADD MSTORE PUSH2 0x2CC1 DUP2 DUP5 PUSH2 0x2C0E JUMP JUMPDEST SWAP1 POP SWAP5 SWAP4 POP POP POP POP JUMP JUMPDEST PUSH32 0x4E487B7100000000000000000000000000000000000000000000000000000000 PUSH0 MSTORE PUSH1 0x11 PUSH1 0x4 MSTORE PUSH1 0x24 PUSH0 REVERT JUMPDEST PUSH0 PUSH2 0x2D02 DUP3 PUSH2 0x2329 JUMP JUMPDEST SWAP2 POP PUSH2 0x2D0D DUP4 PUSH2 0x2329 JUMP JUMPDEST SWAP3 POP DUP3 DUP3 ADD SWAP1 POP DUP1 DUP3 GT ISZERO PUSH2 0x2D25 JUMPI PUSH2 0x2D24 PUSH2 0x2CCB JUMP JUMPDEST JUMPDEST SWAP3 SWAP2 POP POP JUMP JUMPDEST PUSH0 PUSH2 0x2D35 DUP3 PUSH2 0x2329 JUMP JUMPDEST SWAP2 POP PUSH2 0x2D40 DUP4 PUSH2 0x2329 JUMP JUMPDEST SWAP3 POP DUP3 DUP3 SUB SWAP1 POP DUP2 DUP2 GT ISZERO PUSH2 0x2D58 JUMPI PUSH2 0x2D57 PUSH2 0x2CCB JUMP JUMPDEST JUMPDEST SWAP3 SWAP2 POP POP JUMP JUMPDEST PUSH32 0x4E487B7100000000000000000000000000000000000000000000000000000000 PUSH0 MSTORE PUSH1 0x32 PUSH1 0x4 MSTORE PUSH1 0x24 PUSH0 REVERT JUMPDEST PUSH32 0x62616420646F6E49640000000000000000000000000000000000000000000000 PUSH0 DUP3 ADD MSTORE POP JUMP JUMPDEST PUSH0 PUSH2 0x2DBF PUSH1 0x9 DUP4 PUSH2 0x27DC JUMP JUMPDEST SWAP2 POP PUSH2 0x2DCA DUP3 PUSH2 0x2D8B JUMP JUMPDEST PUSH1 0x20 DUP3 ADD SWAP1 POP SWAP2 SWAP1 POP JUMP JUMPDEST PUSH0 PUSH1 0x20 DUP3 ADD SWAP1 POP DUP2 DUP2 SUB PUSH0 DUP4 ADD MSTORE PUSH2 0x2DEC DUP2 PUSH2 0x2DB3 JUMP JUMPDEST SWAP1 POP SWAP2 SWAP1 POP JUMP JUMPDEST PUSH32 0x636F6F6C446F776E20746F6F206C6F6E67000000000000000000000000000000 PUSH0 DUP3 ADD MSTORE POP JUMP JUMPDEST PUSH0 PUSH2 0x2E27 PUSH1 0x11 DUP4 PUSH2 0x27DC JUMP JUMPDEST SWAP2 POP PUSH2 0x2E32 DUP3 PUSH2 0x2DF3 JUMP JUMPDEST PUSH1 0x20 DUP3 ADD SWAP1 POP SWAP2 SWAP1 POP JUMP JUMPDEST PUSH0 PUSH1 0x20 DUP3 ADD SWAP1 POP DUP2 DUP2 SUB PUSH0 DUP4 ADD MSTORE PUSH2 0x2E54 DUP2 PUSH2 0x2E1B JUMP JUMPDEST SWAP1 POP SWAP2 SWAP1 POP JUMP JUMPDEST PUSH32 0x656D70747920736F757263650000000000000000000000000000000000000000 PUSH0 DUP3 ADD MSTORE POP JUMP JUMPDEST PUSH0 PUSH2 0x2E8F PUSH1 0xC DUP4 PUSH2 0x27DC JUMP JUMPDEST SWAP2 POP PUSH2 0x2E9A DUP3 PUSH2 0x2E5B JUMP JUMPDEST PUSH1 0x20 DUP3 ADD SWAP1 POP SWAP2 SWAP1 POP JUMP JUMPDEST PUSH0 PUSH1 0x20 DUP3 ADD SWAP1 POP DUP2 DUP2 SUB PUSH0 DUP4 ADD MSTORE PUSH2 0x2EBC DUP2 PUSH2 0x2E83 JUMP JUMPDEST SWAP1 POP SWAP2 SWAP1 POP JUMP JUMPDEST PUSH0 DUP3 SWAP1 POP SWAP3 SWAP2 POP POP JUMP JUMPDEST PUSH0 PUSH1 0x20 PUSH1 0x1F DUP4 ADD DIV SWAP1 POP SWAP2 SWAP1 POP JUMP JUMPDEST PUSH0 DUP3 DUP3 SHL SWAP1 POP SWAP3 SWAP2 POP POP JUMP JUMPDEST PUSH0 PUSH1 0x8 DUP4 MUL PUSH2 0x2F17 PUSH32 0xFFFFFFFFFFFFFFFFFFFFFFFFFFFFFFFFFFFFFFFFFFFFFFFFFFFFFFFFFFFFFFFF DUP3 PUSH2 0x2EDC JUMP JUMPDEST PUSH2 0x2F21 DUP7 DUP4 PUSH2 0x2EDC JUMP JUMPDEST SWAP6 POP DUP1 NOT DUP5 AND SWAP4 POP DUP1 DUP7 AND DUP5 OR SWAP3 POP POP POP SWAP4 SWAP3 POP POP POP JUMP JUMPDEST PUSH0 DUP2 SWAP1 POP SWAP2 SWAP1 POP JUMP JUMPDEST PUSH0 PUSH2 0x2F5C PUSH2 0x2F57 PUSH2 0x2F52 DUP5 PUSH2 0x2329 JUMP JUMPDEST PUSH2 0x2F39 JUMP JUMPDEST PUSH2 0x2329 JUMP JUMPDEST SWAP1 POP SWAP2 SWAP1 POP JUMP JUMPDEST PUSH0 DUP2 SWAP1 POP SWAP2 SWAP1 POP JUMP JUMPDEST PUSH2 0x2F75 DUP4 PUSH2 0x2F42 JUMP JUMPDEST PUSH2 0x2F89 PUSH2 0x2F81 DUP3 PUSH2 0x2F63 JUMP JUMPDEST DUP5 DUP5 SLOAD PUSH2 0x2EE8 JUMP JUMPDEST DUP3 SSTORE POP POP POP POP JUMP JUMPDEST PUSH0 PUSH0 SWAP1 POP SWAP1 JUMP JUMPDEST PUSH2 0x2FA0 PUSH2 0x2F91 JUMP JUMPDEST PUSH2 0x2FAB DUP2 DUP5 DUP5 PUSH2 0x2F6C JUMP JUMPDEST POP POP POP JUMP JUMPDEST PUSH0 JUMPDEST DUP3 DUP2 LT ISZERO PUSH2 0x2FD1 JUMPI PUSH2 0x2FC6 PUSH0 DUP3 DUP5 ADD PUSH2 0x2F98 JUMP JUMPDEST PUSH1 0x1 DUP2 ADD SWAP1 POP PUSH2 0x2FB2 JUMP JUMPDEST POP POP POP JUMP JUMPDEST PUSH1 0x1F DUP3 GT ISZERO PUSH2 0x3024 JUMPI DUP3 DUP3 GT ISZERO PUSH2 0x3023 JUMPI PUSH2 0x2FF0 DUP2 PUSH2 0x2BFC JUMP JUMPDEST PUSH2 0x2FF9 DUP4 PUSH2 0x2ECD JUMP JUMPDEST PUSH2 0x3002 DUP6 PUSH2 0x2ECD JUMP JUMPDEST PUSH1 0x20 DUP7 LT ISZERO PUSH2 0x300F JUMPI PUSH0 SWAP1 POP JUMPDEST DUP1 DUP4 ADD PUSH2 0x301E DUP3 DUP5 SUB DUP3 PUSH2 0x2FB0 JUMP JUMPDEST POP POP POP POP JUMPDEST JUMPDEST POP POP POP JUMP JUMPDEST PUSH0 DUP3 DUP3 SHR SWAP1 POP SWAP3 SWAP2 POP POP JUMP JUMPDEST PUSH0 PUSH2 0x3044 PUSH0 NOT DUP5 PUSH1 0x8 MUL PUSH2 0x3029 JUMP JUMPDEST NOT DUP1 DUP4 AND SWAP2 POP POP SWAP3 SWAP2 POP POP JUMP JUMPDEST PUSH0 PUSH2 0x305C DUP4 DUP4 PUSH2 0x3035 JUMP JUMPDEST SWAP2 POP DUP3 PUSH1 0x2 MUL DUP3 OR SWAP1 POP SWAP3 SWAP2 POP POP JUMP JUMPDEST PUSH2 0x3076 DUP4 DUP4 PUSH2 0x2EC3 JUMP JUMPDEST PUSH8 0xFFFFFFFFFFFFFFFF DUP2 GT ISZERO PUSH2 0x308F JUMPI PUSH2 0x308E PUSH2 0x23F1 JUMP JUMPDEST JUMPDEST PUSH2 0x3099 DUP3 SLOAD PUSH2 0x2AFC JUMP JUMPDEST PUSH2 0x30A4 DUP3 DUP3 DUP6 PUSH2 0x2FD6 JUMP JUMPDEST PUSH0 PUSH1 0x1F DUP4 GT PUSH1 0x1 DUP2 EQ PUSH2 0x30D1 JUMPI PUSH0 DUP5 ISZERO PUSH2 0x30BF JUMPI DUP3 DUP8 ADD CALLDATALOAD SWAP1 POP JUMPDEST PUSH2 0x30C9 DUP6 DUP3 PUSH2 0x3051 JUMP JUMPDEST DUP7 SSTORE POP PUSH2 0x3130 JUMP JUMPDEST PUSH1 0x1F NOT DUP5 AND PUSH2 0x30DF DUP7 PUSH2 0x2BFC JUMP JUMPDEST PUSH0 JUMPDEST DUP3 DUP2 LT ISZERO PUSH2 0x3106 JUMPI DUP5 DUP10 ADD CALLDATALOAD DUP3 SSTORE PUSH1 0x1 DUP3 ADD SWAP2 POP PUSH1 0x20 DUP6 ADD SWAP5 POP PUSH1 0x20 DUP2 ADD SWAP1 POP PUSH2 0x30E1 JUMP JUMPDEST DUP7 DUP4 LT ISZERO PUSH2 0x3123 JUMPI DUP5 DUP10 ADD CALLDATALOAD PUSH2 0x311F PUSH1 0x1F DUP10 AND DUP3 PUSH2 0x3035 JUMP JUMPDEST DUP4 SSTORE POP JUMPDEST PUSH1 0x1 PUSH1 0x2 DUP9 MUL ADD DUP9 SSTORE POP POP POP JUMPDEST POP POP POP POP POP POP POP JUMP JUMPDEST PUSH32 0x656D7074792061706955726C0000000000000000000000000000000000000000 PUSH0 DUP3 ADD MSTORE POP JUMP JUMPDEST PUSH0 PUSH2 0x316D PUSH1 0xC DUP4 PUSH2 0x27DC JUMP JUMPDEST SWAP2 POP PUSH2 0x3178 DUP3 PUSH2 0x3139 JUMP JUMPDEST PUSH1 0x20 DUP3 ADD SWAP1 POP SWAP2 SWAP1 POP JUMP JUMPDEST PUSH0 PUSH1 0x20 DUP3 ADD SWAP1 POP DUP2 DUP2 SUB PUSH0 DUP4 ADD MSTORE PUSH2 0x319A DUP2 PUSH2 0x3161 JUMP JUMPDEST SWAP1 POP SWAP2 SWAP1 POP JUMP JUMPDEST PUSH32 0x62616420737562736372697074696F6E49640000000000000000000000000000 PUSH0 DUP3 ADD MSTORE POP JUMP JUMPDEST PUSH0 PUSH2 0x31D5 PUSH1 0x12 DUP4 PUSH2 0x27DC JUMP JUMPDEST SWAP2 POP PUSH2 0x31E0 DUP3 PUSH2 0x31A1 JUMP JUMPDEST PUSH1 0x20 DUP3 ADD SWAP1 POP SWAP2 SWAP1 POP JUMP JUMPDEST PUSH0 PUSH1 0x20 DUP3 ADD SWAP1 POP DUP2 DUP2 SUB PUSH0 DUP4 ADD MSTORE PUSH2 0x3202 DUP2 PUSH2 0x31C9 JUMP JUMPDEST SWAP1 POP SWAP2 SWAP1 POP JUMP JUMPDEST PUSH0 DUP2 SWAP1 POP DUP2 PUSH0 MSTORE PUSH1 0x20 PUSH0 KECCAK256 SWAP1 POP SWAP2 SWAP1 POP JUMP JUMPDEST PUSH1 0x1F DUP3 GT ISZERO PUSH2 0x3269 JUMPI DUP3 DUP3 GT ISZERO PUSH2 0x3268 JUMPI PUSH2 0x3235 DUP2 PUSH2 0x3209 JUMP JUMPDEST PUSH2 0x323E DUP4 PUSH2 0x2ECD JUMP JUMPDEST PUSH2 0x3247 DUP6 PUSH2 0x2ECD JUMP JUMPDEST PUSH1 0x20 DUP7 LT ISZERO PUSH2 0x3254 JUMPI PUSH0 SWAP1 POP JUMPDEST DUP1 DUP4 ADD PUSH2 0x3263 DUP3 DUP5 SUB DUP3 PUSH2 0x2FB0 JUMP JUMPDEST POP POP POP POP JUMPDEST JUMPDEST POP POP POP JUMP JUMPDEST PUSH2 0x3277 DUP3 PUSH2 0x2641 JUMP JUMPDEST PUSH8 0xFFFFFFFFFFFFFFFF DUP2 GT ISZERO PUSH2 0x3290 JUMPI PUSH2 0x328F PUSH2 0x23F1 JUMP JUMPDEST JUMPDEST PUSH2 0x329A DUP3 SLOAD PUSH2 0x2AFC JUMP JUMPDEST PUSH2 0x32A5 DUP3 DUP3 DUP6 PUSH2 0x321B JUMP JUMPDEST PUSH0 PUSH1 0x20 SWAP1 POP PUSH1 0x1F DUP4 GT PUSH1 0x1 DUP2 EQ PUSH2 0x32D6 JUMPI PUSH0 DUP5 ISZERO PUSH2 0x32C4 JUMPI DUP3 DUP8 ADD MLOAD SWAP1 POP JUMPDEST PUSH2 0x32CE DUP6 DUP3 PUSH2 0x3051 JUMP JUMPDEST DUP7 SSTORE POP PUSH2 0x3335 JUMP JUMPDEST PUSH1 0x1F NOT DUP5 AND PUSH2 0x32E4 DUP7 PUSH2 0x3209 JUMP JUMPDEST PUSH0 JUMPDEST DUP3 DUP2 LT ISZERO PUSH2 0x330B JUMPI DUP5 DUP10 ADD MLOAD DUP3 SSTORE PUSH1 0x1 DUP3 ADD SWAP2 POP PUSH1 0x20 DUP6 ADD SWAP5 POP PUSH1 0x20 DUP2 ADD SWAP1 POP PUSH2 0x32E6 JUMP JUMPDEST DUP7 DUP4 LT ISZERO PUSH2 0x3328 JUMPI DUP5 DUP10 ADD MLOAD PUSH2 0x3324 PUSH1 0x1F DUP10 AND DUP3 PUSH2 0x3035 JUMP JUMPDEST DUP4 SSTORE POP JUMPDEST PUSH1 0x1 PUSH1 0x2 DUP9 MUL ADD DUP9 SSTORE POP POP POP JUMPDEST POP POP POP POP POP POP JUMP JUMPDEST PUSH0 DUP2 MLOAD SWAP1 POP PUSH2 0x334B DUP2 PUSH2 0x286F JUMP JUMPDEST SWAP3 SWAP2 POP POP JUMP JUMPDEST PUSH2 0x335A DUP2 PUSH2 0x25AC JUMP JUMPDEST DUP2 EQ PUSH2 0x3364 JUMPI PUSH0 PUSH0 REVERT JUMPDEST POP JUMP JUMPDEST PUSH0 DUP2 MLOAD SWAP1 POP PUSH2 0x3375 DUP2 PUSH2 0x3351 JUMP JUMPDEST SWAP3 SWAP2 POP POP JUMP JUMPDEST PUSH0 DUP2 MLOAD SWAP1 POP PUSH2 0x3389 DUP2 PUSH2 0x23AF JUMP JUMPDEST SWAP3 SWAP2 POP POP JUMP JUMPDEST PUSH0 PUSH0 PUSH0 PUSH0 PUSH1 0x80 DUP6 DUP8 SUB SLT ISZERO PUSH2 0x33A7 JUMPI PUSH2 0x33A6 PUSH2 0x239E JUMP JUMPDEST JUMPDEST PUSH0 PUSH2 0x33B4 DUP8 DUP3 DUP9 ADD PUSH2 0x333D JUMP JUMPDEST SWAP5 POP POP PUSH1 0x20 PUSH2 0x33C5 DUP8 DUP3 DUP9 ADD PUSH2 0x3367 JUMP JUMPDEST SWAP4 POP POP PUSH1 0x40 PUSH2 0x33D6 DUP8 DUP3 DUP9 ADD PUSH2 0x333D JUMP JUMPDEST SWAP3 POP POP PUSH1 0x60 PUSH2 0x33E7 DUP8 DUP3 DUP9 ADD PUSH2 0x337B JUMP JUMPDEST SWAP2 POP POP SWAP3 SWAP6 SWAP2 SWAP5 POP SWAP3 POP JUMP JUMPDEST PUSH0 PUSH1 0x80 DUP3 ADD SWAP1 POP PUSH2 0x3406 PUSH0 DUP4 ADD DUP8 PUSH2 0x2332 JUMP JUMPDEST PUSH2 0x3413 PUSH1 0x20 DUP4 ADD DUP7 PUSH2 0x2A7F JUMP JUMPDEST PUSH2 0x3420 PUSH1 0x40 DUP4 ADD DUP6 PUSH2 0x2332 JUMP JUMPDEST PUSH2 0x342D PUSH1 0x60 DUP4 ADD DUP5 PUSH2 0x27AA JUMP JUMPDEST SWAP6 SWAP5 POP POP POP POP POP JUMP JUMPDEST PUSH0 PUSH1 0x40 DUP3 ADD SWAP1 POP DUP2 DUP2 SUB PUSH0 DUP4 ADD MSTORE PUSH2 0x344E DUP2 DUP6 PUSH2 0x2669 JUMP JUMPDEST SWAP1 POP DUP2 DUP2 SUB PUSH1 0x20 DUP4 ADD MSTORE PUSH2 0x3462 DUP2 DUP5 PUSH2 0x2669 JUMP JUMPDEST SWAP1 POP SWAP4 SWAP3 POP POP POP JUMP JUMPDEST PUSH32 0x4E487B7100000000000000000000000000000000000000000000000000000000 PUSH0 MSTORE PUSH1 0x21 PUSH1 0x4 MSTORE PUSH1 0x24 PUSH0 REVERT JUMPDEST PUSH0 PUSH2 0xFFFF DUP3 AND SWAP1 POP SWAP2 SWAP1 POP JUMP JUMPDEST PUSH2 0x34AE DUP2 PUSH2 0x3498 JUMP JUMPDEST DUP3 MSTORE POP POP JUMP JUMPDEST PUSH0 PUSH1 0xA0 DUP3 ADD SWAP1 POP PUSH2 0x34C7 PUSH0 DUP4 ADD DUP9 PUSH2 0x236D JUMP JUMPDEST DUP2 DUP2 SUB PUSH1 0x20 DUP4 ADD MSTORE PUSH2 0x34D9 DUP2 DUP8 PUSH2 0x2669 JUMP JUMPDEST SWAP1 POP PUSH2 0x34E8 PUSH1 0x40 DUP4 ADD DUP7 PUSH2 0x34A5 JUMP JUMPDEST PUSH2 0x34F5 PUSH1 0x60 DUP4 ADD DUP6 PUSH2 0x2AA7 JUMP JUMPDEST PUSH2 0x3502 PUSH1 0x80 DUP4 ADD DUP5 PUSH2 0x27AA JUMP JUMPDEST SWAP7 SWAP6 POP POP POP POP POP POP JUMP JUMPDEST PUSH0 PUSH1 0x20 DUP3 DUP5 SUB SLT ISZERO PUSH2 0x3521 JUMPI PUSH2 0x3520 PUSH2 0x239E JUMP JUMPDEST JUMPDEST PUSH0 PUSH2 0x352E DUP5 DUP3 DUP6 ADD PUSH2 0x337B JUMP JUMPDEST SWAP2 POP POP SWAP3 SWAP2 POP POP JUMP JUMPDEST PUSH32 0x4E487B7100000000000000000000000000000000000000000000000000000000 PUSH0 MSTORE PUSH1 0x12 PUSH1 0x4 MSTORE PUSH1 0x24 PUSH0 REVERT JUMPDEST PUSH0 PUSH2 0x356E DUP3 PUSH2 0x2329 JUMP JUMPDEST SWAP2 POP PUSH2 0x3579 DUP4 PUSH2 0x2329 JUMP JUMPDEST SWAP3 POP DUP3 PUSH2 0x3589 JUMPI PUSH2 0x3588 PUSH2 0x3537 JUMP JUMPDEST JUMPDEST DUP3 DUP3 MOD SWAP1 POP SWAP3 SWAP2 POP POP JUMP JUMPDEST PUSH0 PUSH2 0x359E DUP3 PUSH2 0x2329 JUMP JUMPDEST SWAP2 POP PUSH2 0x35A9 DUP4 PUSH2 0x2329 JUMP JUMPDEST SWAP3 POP DUP3 DUP3 MUL PUSH2 0x35B7 DUP2 PUSH2 0x2329 JUMP JUMPDEST SWAP2 POP DUP3 DUP3 DIV DUP5 EQ DUP4 ISZERO OR PUSH2 0x35CE JUMPI PUSH2 0x35CD PUSH2 0x2CCB JUMP JUMPDEST JUMPDEST POP SWAP3 SWAP2 POP POP JUMP JUMPDEST PUSH0 DUP2 PUSH1 0x1 SHR SWAP1 POP SWAP2 SWAP1 POP JUMP JUMPDEST PUSH0 PUSH0 DUP3 SWAP2 POP DUP4 SWAP1 POP JUMPDEST PUSH1 0x1 DUP6 GT ISZERO PUSH2 0x362A JUMPI DUP1 DUP7 DIV DUP2 GT ISZERO PUSH2 0x3606 JUMPI PUSH2 0x3605 PUSH2 0x2CCB JUMP JUMPDEST JUMPDEST PUSH1 0x1 DUP6 AND ISZERO PUSH2 0x3615 JUMPI DUP1 DUP3 MUL SWAP2 POP JUMPDEST DUP1 DUP2 MUL SWAP1 POP PUSH2 0x3623 DUP6 PUSH2 0x35D5 JUMP JUMPDEST SWAP5 POP PUSH2 0x35EA JUMP JUMPDEST SWAP5 POP SWAP5 SWAP3 POP POP POP JUMP JUMPDEST PUSH0 DUP3 PUSH2 0x3642 JUMPI PUSH1 0x1 SWAP1 POP PUSH2 0x36FD JUMP JUMPDEST DUP2 PUSH2 0x364F JUMPI PUSH0 SWAP1 POP PUSH2 0x36FD JUMP JUMPDEST DUP2 PUSH1 0x1 DUP2 EQ PUSH2 0x3665 JUMPI PUSH1 0x2 DUP2 EQ PUSH2 0x366F JUMPI PUSH2 0x369E JUMP JUMPDEST PUSH1 0x1 SWAP2 POP POP PUSH2 0x36FD JUMP JUMPDEST PUSH1 0xFF DUP5 GT ISZERO PUSH2 0x3681 JUMPI PUSH2 0x3680 PUSH2 0x2CCB JUMP JUMPDEST JUMPDEST DUP4 PUSH1 0x2 EXP SWAP2 POP DUP5 DUP3 GT ISZERO PUSH2 0x3698 JUMPI PUSH2 0x3697 PUSH2 0x2CCB JUMP JUMPDEST JUMPDEST POP PUSH2 0x36FD JUMP JUMPDEST POP PUSH1 0x20 DUP4 LT PUSH2 0x133 DUP4 LT AND PUSH1 0x4E DUP5 LT PUSH1 0xB DUP5 LT AND OR ISZERO PUSH2 0x36D3 JUMPI DUP3 DUP3 EXP SWAP1 POP DUP4 DUP2 GT ISZERO PUSH2 0x36CE JUMPI PUSH2 0x36CD PUSH2 0x2CCB JUMP JUMPDEST JUMPDEST PUSH2 0x36FD JUMP JUMPDEST PUSH2 0x36E0 DUP5 DUP5 DUP5 PUSH1 0x1 PUSH2 0x35E1 JUMP JUMPDEST SWAP3 POP SWAP1 POP DUP2 DUP5 DIV DUP2 GT ISZERO PUSH2 0x36F7 JUMPI PUSH2 0x36F6 PUSH2 0x2CCB JUMP JUMPDEST JUMPDEST DUP2 DUP2 MUL SWAP1 POP JUMPDEST SWAP4 SWAP3 POP POP POP JUMP JUMPDEST PUSH0 PUSH2 0x370E DUP3 PUSH2 0x2329 JUMP JUMPDEST SWAP2 POP PUSH2 0x3719 DUP4 PUSH2 0x2329 JUMP JUMPDEST SWAP3 POP PUSH2 0x3746 PUSH32 0xFFFFFFFFFFFFFFFFFFFFFFFFFFFFFFFFFFFFFFFFFFFFFFFFFFFFFFFFFFFFFFFF DUP5 DUP5 PUSH2 0x3633 JUMP JUMPDEST SWAP1 POP SWAP3 SWAP2 POP POP JUMP INVALID LOG2 PUSH5 0x6970667358 0x22 SLT KECCAK256 0xB8 0xAE COINBASE TLOAD KECCAK256 SWAP7 CALLER SLOAD GASPRICE 0xA8 0x1F PUSH11 0xAFCAF0350F3CD9B15FA8F4 SDIV CREATE 0xC1 0xC6 0xDF PUSH28 0xE8893964736F6C634300082200330000000000000000000000000000 "
		},
		"gasEstimates": {
			"creation": {
				"codeDepositCost": "2842400",
				"executionCost": "infinite",
				"totalCost": "infinite"
			},
			"external": {
				"apiUrl()": "infinite",
				"coolDown()": "2537",
				"donId()": "2470",
				"gasLimit()": "2554",
				"getAdjustedOffchainReserveUSD()": "2527",
				"getLastRequestTime(address)": "2897",
				"getLatestReserveData()": "infinite",
				"handleOracleFulfillment(bytes32,bytes,bytes)": "infinite",
				"isReserveValid()": "2568",
				"lastError()": "infinite",
				"lastRequestId()": "2535",
				"lastRequestTimestamp()": "2491",
				"lastResponse()": "infinite",
				"lastUpdated()": "2527",
				"minUpdateInterval()": "2472",
				"owner()": "2604",
				"renounceOwnership()": "infinite",
				"requestReserveUpdate()": "infinite",
				"setApiUrl(string)": "infinite",
				"setCoolDown(uint256)": "infinite",
				"setDonId(bytes32)": "infinite",
				"setGasLimit(uint32)": "infinite",
				"setOracleConfig(uint64,bytes32,uint32,uint256,string)": "infinite",
				"setSource(string)": "infinite",
				"setSubscriptionId(uint64)": "infinite",
				"source()": "infinite",
				"subscriptionId()": "2535",
				"transferOwnership(address)": "infinite"
			},
			"internal": {
				"fulfillRequest(bytes32,bytes memory,bytes memory)": "infinite"
			}
		},
		"methodIdentifiers": {
			"apiUrl()": "8367e120",
			"coolDown()": "4d056f6d",
			"donId()": "8dbe7b9d",
			"gasLimit()": "f68016b7",
			"getAdjustedOffchainReserveUSD()": "3e5d0ee0",
			"getLastRequestTime(address)": "56c5eb06",
			"getLatestReserveData()": "186f34d5",
			"handleOracleFulfillment(bytes32,bytes,bytes)": "0ca76175",
			"isReserveValid()": "ecf7139b",
			"lastError()": "29f0de3f",
			"lastRequestId()": "fc2a88c3",
			"lastRequestTimestamp()": "f664a16e",
			"lastResponse()": "62747e42",
			"lastUpdated()": "d0b06f5d",
			"minUpdateInterval()": "0964ff26",
			"owner()": "8da5cb5b",
			"renounceOwnership()": "715018a6",
			"requestReserveUpdate()": "5f3749d9",
			"setApiUrl(string)": "e8c75a30",
			"setCoolDown(uint256)": "7c56687a",
			"setDonId(bytes32)": "78ca5de7",
			"setGasLimit(uint32)": "52d84c62",
			"setOracleConfig(uint64,bytes32,uint32,uint256,string)": "e914d58c",
			"setSource(string)": "99d25455",
			"setSubscriptionId(uint64)": "ea7b4f77",
			"source()": "67e828bf",
			"subscriptionId()": "09c1ba2e",
			"transferOwnership(address)": "f2fde38b"
		}
	},
	"abi": [
		{
			"inputs": [
				{
					"internalType": "address",
					"name": "_owner",
					"type": "address"
				},
				{
					"internalType": "uint64",
					"name": "_subscriptionId",
					"type": "uint64"
				},
				{
					"internalType": "address",
					"name": "_router",
					"type": "address"
				},
				{
					"internalType": "bytes32",
					"name": "_donId",
					"type": "bytes32"
				},
				{
					"internalType": "string",
					"name": "_source",
					"type": "string"
				},
				{
					"internalType": "string",
					"name": "_apiUrl",
					"type": "string"
				}
			],
			"stateMutability": "nonpayable",
			"type": "constructor"
		},
		{
			"inputs": [
				{
					"internalType": "uint256",
					"name": "timeRemaining",
					"type": "uint256"
				}
			],
			"name": "CoolDownActive",
			"type": "error"
		},
		{
			"inputs": [],
			"name": "EmptyArgs",
			"type": "error"
		},
		{
			"inputs": [],
			"name": "EmptySource",
			"type": "error"
		},
		{
			"inputs": [],
			"name": "NoInlineSecrets",
			"type": "error"
		},
		{
			"inputs": [],
			"name": "OnlyRouterCanFulfill",
			"type": "error"
		},
		{
			"inputs": [
				{
					"internalType": "address",
					"name": "owner",
					"type": "address"
				}
			],
			"name": "OwnableInvalidOwner",
			"type": "error"
		},
		{
			"inputs": [
				{
					"internalType": "address",
					"name": "account",
					"type": "address"
				}
			],
			"name": "OwnableUnauthorizedAccount",
			"type": "error"
		},
		{
			"inputs": [
				{
					"internalType": "bytes32",
					"name": "requestId",
					"type": "bytes32"
				}
			],
			"name": "UnexpectedRequestID",
			"type": "error"
		},
		{
			"anonymous": false,
			"inputs": [
				{
					"indexed": true,
					"internalType": "uint64",
					"name": "subscriptionId",
					"type": "uint64"
				},
				{
					"indexed": true,
					"internalType": "bytes32",
					"name": "donId",
					"type": "bytes32"
				},
				{
					"indexed": false,
					"internalType": "uint32",
					"name": "gasLimit",
					"type": "uint32"
				},
				{
					"indexed": false,
					"internalType": "uint256",
					"name": "coolDown",
					"type": "uint256"
				},
				{
					"indexed": false,
					"internalType": "string",
					"name": "apiUrl",
					"type": "string"
				}
			],
			"name": "OracleConfigUpdated",
			"type": "event"
		},
		{
			"anonymous": false,
			"inputs": [
				{
					"indexed": true,
					"internalType": "address",
					"name": "previousOwner",
					"type": "address"
				},
				{
					"indexed": true,
					"internalType": "address",
					"name": "newOwner",
					"type": "address"
				}
			],
			"name": "OwnershipTransferred",
			"type": "event"
		},
		{
			"anonymous": false,
			"inputs": [
				{
					"indexed": true,
					"internalType": "bytes32",
					"name": "id",
					"type": "bytes32"
				}
			],
			"name": "RequestFulfilled",
			"type": "event"
		},
		{
			"anonymous": false,
			"inputs": [
				{
					"indexed": true,
					"internalType": "bytes32",
					"name": "id",
					"type": "bytes32"
				}
			],
			"name": "RequestSent",
			"type": "event"
		},
		{
			"anonymous": false,
			"inputs": [
				{
					"indexed": true,
					"internalType": "bytes32",
					"name": "requestId",
					"type": "bytes32"
				},
				{
					"indexed": false,
					"internalType": "uint256",
					"name": "adjustedOffchainReserveUSD",
					"type": "uint256"
				},
				{
					"indexed": false,
					"internalType": "bool",
					"name": "reserveValid",
					"type": "bool"
				},
				{
					"indexed": false,
					"internalType": "uint256",
					"name": "timestamp",
					"type": "uint256"
				},
				{
					"indexed": false,
					"internalType": "bytes32",
					"name": "attestationHash",
					"type": "bytes32"
				}
			],
			"name": "ReserveDataUpdated",
			"type": "event"
		},
		{
			"anonymous": false,
			"inputs": [
				{
					"indexed": true,
					"internalType": "bytes32",
					"name": "requestId",
					"type": "bytes32"
				},
				{
					"indexed": false,
					"internalType": "bytes",
					"name": "response",
					"type": "bytes"
				},
				{
					"indexed": false,
					"internalType": "bytes",
					"name": "err",
					"type": "bytes"
				}
			],
			"name": "Response",
			"type": "event"
		},
		{
			"inputs": [],
			"name": "apiUrl",
			"outputs": [
				{
					"internalType": "string",
					"name": "",
					"type": "string"
				}
			],
			"stateMutability": "view",
			"type": "function"
		},
		{
			"inputs": [],
			"name": "coolDown",
			"outputs": [
				{
					"internalType": "uint256",
					"name": "",
					"type": "uint256"
				}
			],
			"stateMutability": "view",
			"type": "function"
		},
		{
			"inputs": [],
			"name": "donId",
			"outputs": [
				{
					"internalType": "bytes32",
					"name": "",
					"type": "bytes32"
				}
			],
			"stateMutability": "view",
			"type": "function"
		},
		{
			"inputs": [],
			"name": "gasLimit",
			"outputs": [
				{
					"internalType": "uint32",
					"name": "",
					"type": "uint32"
				}
			],
			"stateMutability": "view",
			"type": "function"
		},
		{
			"inputs": [],
			"name": "getAdjustedOffchainReserveUSD",
			"outputs": [
				{
					"internalType": "uint256",
					"name": "",
					"type": "uint256"
				}
			],
			"stateMutability": "view",
			"type": "function"
		},
		{
			"inputs": [
				{
					"internalType": "address",
					"name": "_requester",
					"type": "address"
				}
			],
			"name": "getLastRequestTime",
			"outputs": [
				{
					"internalType": "uint256",
					"name": "",
					"type": "uint256"
				}
			],
			"stateMutability": "view",
			"type": "function"
		},
		{
			"inputs": [],
			"name": "getLatestReserveData",
			"outputs": [
				{
					"components": [
						{
							"internalType": "uint256",
							"name": "adjustedOffchainReserveUSD",
							"type": "uint256"
						},
						{
							"internalType": "bool",
							"name": "reserveValid",
							"type": "bool"
						},
						{
							"internalType": "uint256",
							"name": "updatedAt",
							"type": "uint256"
						},
						{
							"internalType": "bytes32",
							"name": "attestationHash",
							"type": "bytes32"
						}
					],
					"internalType": "struct ReserveData",
					"name": "",
					"type": "tuple"
				}
			],
			"stateMutability": "view",
			"type": "function"
		},
		{
			"inputs": [
				{
					"internalType": "bytes32",
					"name": "requestId",
					"type": "bytes32"
				},
				{
					"internalType": "bytes",
					"name": "response",
					"type": "bytes"
				},
				{
					"internalType": "bytes",
					"name": "err",
					"type": "bytes"
				}
			],
			"name": "handleOracleFulfillment",
			"outputs": [],
			"stateMutability": "nonpayable",
			"type": "function"
		},
		{
			"inputs": [],
			"name": "isReserveValid",
			"outputs": [
				{
					"internalType": "bool",
					"name": "",
					"type": "bool"
				}
			],
			"stateMutability": "view",
			"type": "function"
		},
		{
			"inputs": [],
			"name": "lastError",
			"outputs": [
				{
					"internalType": "bytes",
					"name": "",
					"type": "bytes"
				}
			],
			"stateMutability": "view",
			"type": "function"
		},
		{
			"inputs": [],
			"name": "lastRequestId",
			"outputs": [
				{
					"internalType": "bytes32",
					"name": "",
					"type": "bytes32"
				}
			],
			"stateMutability": "view",
			"type": "function"
		},
		{
			"inputs": [],
			"name": "lastRequestTimestamp",
			"outputs": [
				{
					"internalType": "uint256",
					"name": "",
					"type": "uint256"
				}
			],
			"stateMutability": "view",
			"type": "function"
		},
		{
			"inputs": [],
			"name": "lastResponse",
			"outputs": [
				{
					"internalType": "bytes",
					"name": "",
					"type": "bytes"
				}
			],
			"stateMutability": "view",
			"type": "function"
		},
		{
			"inputs": [],
			"name": "lastUpdated",
			"outputs": [
				{
					"internalType": "uint256",
					"name": "",
					"type": "uint256"
				}
			],
			"stateMutability": "view",
			"type": "function"
		},
		{
			"inputs": [],
			"name": "minUpdateInterval",
			"outputs": [
				{
					"internalType": "uint256",
					"name": "",
					"type": "uint256"
				}
			],
			"stateMutability": "view",
			"type": "function"
		},
		{
			"inputs": [],
			"name": "owner",
			"outputs": [
				{
					"internalType": "address",
					"name": "",
					"type": "address"
				}
			],
			"stateMutability": "view",
			"type": "function"
		},
		{
			"inputs": [],
			"name": "renounceOwnership",
			"outputs": [],
			"stateMutability": "nonpayable",
			"type": "function"
		},
		{
			"inputs": [],
			"name": "requestReserveUpdate",
			"outputs": [
				{
					"internalType": "bytes32",
					"name": "requestId",
					"type": "bytes32"
				}
			],
			"stateMutability": "nonpayable",
			"type": "function"
		},
		{
			"inputs": [
				{
					"internalType": "string",
					"name": "_apiUrl",
					"type": "string"
				}
			],
			"name": "setApiUrl",
			"outputs": [],
			"stateMutability": "nonpayable",
			"type": "function"
		},
		{
			"inputs": [
				{
					"internalType": "uint256",
					"name": "_coolDown",
					"type": "uint256"
				}
			],
			"name": "setCoolDown",
			"outputs": [],
			"stateMutability": "nonpayable",
			"type": "function"
		},
		{
			"inputs": [
				{
					"internalType": "bytes32",
					"name": "_donId",
					"type": "bytes32"
				}
			],
			"name": "setDonId",
			"outputs": [],
			"stateMutability": "nonpayable",
			"type": "function"
		},
		{
			"inputs": [
				{
					"internalType": "uint32",
					"name": "_gasLimit",
					"type": "uint32"
				}
			],
			"name": "setGasLimit",
			"outputs": [],
			"stateMutability": "nonpayable",
			"type": "function"
		},
		{
			"inputs": [
				{
					"internalType": "uint64",
					"name": "_subscriptionId",
					"type": "uint64"
				},
				{
					"internalType": "bytes32",
					"name": "_donId",
					"type": "bytes32"
				},
				{
					"internalType": "uint32",
					"name": "_gasLimit",
					"type": "uint32"
				},
				{
					"internalType": "uint256",
					"name": "_coolDown",
					"type": "uint256"
				},
				{
					"internalType": "string",
					"name": "_apiUrl",
					"type": "string"
				}
			],
			"name": "setOracleConfig",
			"outputs": [],
			"stateMutability": "nonpayable",
			"type": "function"
		},
		{
			"inputs": [
				{
					"internalType": "string",
					"name": "_source",
					"type": "string"
				}
			],
			"name": "setSource",
			"outputs": [],
			"stateMutability": "nonpayable",
			"type": "function"
		},
		{
			"inputs": [
				{
					"internalType": "uint64",
					"name": "_subscriptionId",
					"type": "uint64"
				}
			],
			"name": "setSubscriptionId",
			"outputs": [],
			"stateMutability": "nonpayable",
			"type": "function"
		},
		{
			"inputs": [],
			"name": "source",
			"outputs": [
				{
					"internalType": "string",
					"name": "",
					"type": "string"
				}
			],
			"stateMutability": "view",
			"type": "function"
		},
		{
			"inputs": [],
			"name": "subscriptionId",
			"outputs": [
				{
					"internalType": "uint64",
					"name": "",
					"type": "uint64"
				}
			],
			"stateMutability": "view",
			"type": "function"
		},
		{
			"inputs": [
				{
					"internalType": "address",
					"name": "newOwner",
					"type": "address"
				}
			],
			"name": "transferOwnership",
			"outputs": [],
			"stateMutability": "nonpayable",
			"type": "function"
		}
	]
}