{
	"data": {
		"bytecode": {
			"linkReferences": {},
			"object": "610160604052348015610010575f5ffd5b506040516142653803806142658339818101604052810190610032919061071e565b335f73ffffffffffffffffffffffffffffffffffffffff168173ffffffffffffffffffffffffffffffffffffffff16036100a3575f6040517f1e4fbdf700000000000000000000000000000000000000000000000000000000815260040161009a91906107b6565b60405180910390fd5b6100b28161059a60201b60201c565b5060016100d16100c661065b60201b60201c565b61068460201b60201c565b5f01819055505f73ffffffffffffffffffffffffffffffffffffffff168673ffffffffffffffffffffffffffffffffffffffff1603610145576040517f08c379a000000000000000000000000000000000000000000000000000000000815260040161013c90610829565b60405180910390fd5b5f73ffffffffffffffffffffffffffffffffffffffff168573ffffffffffffffffffffffffffffffffffffffff16036101b3576040517f08c379a00000000000000000000000000000000000000000000000000000000081526004016101aa90610891565b60405180910390fd5b5f73ffffffffffffffffffffffffffffffffffffffff168473ffffffffffffffffffffffffffffffffffffffff1603610221576040517f08c379a0000000000000000000000000000000000000000000000000000000008152600401610218906108f9565b60405180910390fd5b5f73ffffffffffffffffffffffffffffffffffffffff168373ffffffffffffffffffffffffffffffffffffffff160361028f576040517f08c379a000000000000000000000000000000000000000000000000000000000815260040161028690610961565b60405180910390fd5b5f82116102d1576040517f08c379a00000000000000000000000000000000000000000000000000000000081526004016102c8906109c9565b60405180910390fd5b8560015f6101000a81548173ffffffffffffffffffffffffffffffffffffffff021916908373ffffffffffffffffffffffffffffffffffffffff1602179055508473ffffffffffffffffffffffffffffffffffffffff1660808173ffffffffffffffffffffffffffffffffffffffff16815250508373ffffffffffffffffffffffffffffffffffffffff1660a08173ffffffffffffffffffffffffffffffffffffffff16815250508260025f6101000a81548173ffffffffffffffffffffffffffffffffffffffff021916908373ffffffffffffffffffffffffffffffffffffffff1602179055508161014081815250508473ffffffffffffffffffffffffffffffffffffffff1663313ce5676040518163ffffffff1660e01b8152600401602060405180830381865afa15801561040b573d5f5f3e3d5ffd5b505050506040513d601f19601f8201168201806040525081019061042f9190610a1d565b60ff1660c08160ff16815250508373ffffffffffffffffffffffffffffffffffffffff1663313ce5676040518163ffffffff1660e01b8152600401602060405180830381865afa158015610485573d5f5f3e3d5ffd5b505050506040513d601f19601f820116820180604052508101906104a99190610a1d565b60ff1660e08160ff1681525050601260c05160ff1611156104ff576040517f08c379a00000000000000000000000000000000000000000000000000000000081526004016104f690610a92565b60405180910390fd5b601260e05160ff161115610548576040517f08c379a000000000000000000000000000000000000000000000000000000000815260040161053f90610afa565b60405180910390fd5b60e05160ff16600a61055a9190610c74565b610100818152505060c05160126105719190610cbe565b60ff16600a6105809190610c74565b610120818152505080600381905550505050505050610cf2565b5f5f5f9054906101000a900473ffffffffffffffffffffffffffffffffffffffff169050815f5f6101000a81548173ffffffffffffffffffffffffffffffffffffffff021916908373ffffffffffffffffffffffffffffffffffffffff1602179055508173ffffffffffffffffffffffffffffffffffffffff168173ffffffffffffffffffffffffffffffffffffffff167f8be0079c531659141344cd1fd0a4f28419497f9722a3daafe3b4186f6b6457e060405160405180910390a35050565b5f7f9b779b17422d0df92223018b32b4d1fa46e071723d6817e2486d003becc55f005f1b905090565b5f819050919050565b5f5ffd5b5f73ffffffffffffffffffffffffffffffffffffffff82169050919050565b5f6106ba82610691565b9050919050565b6106ca816106b0565b81146106d4575f5ffd5b50565b5f815190506106e5816106c1565b92915050565b5f819050919050565b6106fd816106eb565b8114610707575f5ffd5b50565b5f81519050610718816106f4565b92915050565b5f5f5f5f5f5f60c087890312156107385761073761068d565b5b5f61074589828a016106d7565b965050602061075689828a016106d7565b955050604061076789828a016106d7565b945050606061077889828a016106d7565b935050608061078989828a0161070a565b92505060a061079a89828a0161070a565b9150509295509295509295565b6107b0816106b0565b82525050565b5f6020820190506107c95f8301846107a7565b92915050565b5f82825260208201905092915050565b7f626164206f7261636c65000000000000000000000000000000000000000000005f82015250565b5f610813600a836107cf565b915061081e826107df565b602082019050919050565b5f6020820190508181035f83015261084081610807565b9050919050565b7f62616420757364630000000000000000000000000000000000000000000000005f82015250565b5f61087b6008836107cf565b915061088682610847565b602082019050919050565b5f6020820190508181035f8301526108a88161086f565b9050919050565b7f6261642072776120746f6b656e000000000000000000000000000000000000005f82015250565b5f6108e3600d836107cf565b91506108ee826108af565b602082019050919050565b5f6020820190508181035f830152610910816108d7565b9050919050565b7f62616420697373756572000000000000000000000000000000000000000000005f82015250565b5f61094b600a836107cf565b915061095682610917565b602082019050919050565b5f6020820190508181035f8301526109788161093f565b9050919050565b7f62616420696e697469616c204e415600000000000000000000000000000000005f82015250565b5f6109b3600f836107cf565b91506109be8261097f565b602082019050919050565b5f6020820190508181035f8301526109e0816109a7565b9050919050565b5f60ff82169050919050565b6109fc816109e7565b8114610a06575f5ffd5b50565b5f81519050610a17816109f3565b92915050565b5f60208284031215610a3257610a3161068d565b5b5f610a3f84828501610a09565b91505092915050565b7f5553444320646563696d616c7320746f6f2068696768000000000000000000005f82015250565b5f610a7c6016836107cf565b9150610a8782610a48565b602082019050919050565b5f6020820190508181035f830152610aa981610a70565b9050919050565b7f52574120646563696d616c7320746f6f206869676800000000000000000000005f82015250565b5f610ae46015836107cf565b9150610aef82610ab0565b602082019050919050565b5f6020820190508181035f830152610b1181610ad8565b9050919050565b7f4e487b71000000000000000000000000000000000000000000000000000000005f52601160045260245ffd5b5f8160011c9050919050565b5f5f8291508390505b6001851115610b9a57808604811115610b7657610b75610b18565b5b6001851615610b855780820291505b8081029050610b9385610b45565b9450610b5a565b94509492505050565b5f82610bb25760019050610c6d565b81610bbf575f9050610c6d565b8160018114610bd55760028114610bdf57610c0e565b6001915050610c6d565b60ff841115610bf157610bf0610b18565b5b8360020a915084821115610c0857610c07610b18565b5b50610c6d565b5060208310610133831016604e8410600b8410161715610c435782820a905083811115610c3e57610c3d610b18565b5b610c6d565b610c508484846001610b51565b92509050818404811115610c6757610c66610b18565b5b81810290505b9392505050565b5f610c7e826106eb565b9150610c89836106eb565b9250610cb67fffffffffffffffffffffffffffffffffffffffffffffffffffffffffffffffff8484610ba3565b905092915050565b5f610cc8826109e7565b9150610cd3836109e7565b9250828203905060ff811115610cec57610ceb610b18565b5b92915050565b60805160a05160c05160e051610100516101205161014051613487610dde5f395f8181610a5001528181610b7901528181610d040152611b3501525f8181611be401528181611c8e01528181611da101528181611de301526120ce01525f8181610b5801528181611b6e01528181611c1601528181611c6201528181611d790152611e1401525f50505f50505f81816104b20152818161079d015281816109ba01528181610bfe01528181611135015281816114220152611a9f01525f818161050e015281816107560152818161105c015281816111c2015281816116c001526120ef01526134875ff3fe608060405234801561000f575f5ffd5b506004361061018c575f3560e01c80637dc0d1d0116100dc578063b3e089a211610095578063c40d111c1161006f578063c40d111c1461042b578063ccb99c261461045c578063cd3b691c14610478578063f2fde38b146104945761018c565b8063b3e089a2146103d5578063b6935501146103f1578063bc34e6da1461040d5761018c565b80637dc0d1d0146103235780637e4831d3146103415780638da5cb5b1461035f5780638e827cb51461037d578063aa2f892d1461039b578063b235d468146103b75761018c565b806352f1edcc11610149578063715018a611610123578063715018a6146102c257806372b823c3146102cc5780637adbf973146102d65780637cbc2373146102f25761018c565b806352f1edcc1461026a57806355cc4e5714610288578063675a5c0b146102a45761018c565b80630c5bf35114610190578063158ef93e146101ae5780631d143848146101cc5780633e413bee146101ea57806347082dac146102085780634cdad50614610239575b5f5ffd5b6101986104b0565b6040516101a59190612441565b60405180910390f35b6101b66104d4565b6040516101c39190612474565b60405180910390f35b6101d46104e7565b6040516101e191906124ad565b60405180910390f35b6101f261050c565b6040516101ff91906124e6565b60405180910390f35b610222600480360381019061021d919061253f565b610530565b60405161023092919061258c565b60405180910390f35b610253600480360381019061024e91906125b3565b610886565b60405161026192919061258c565b60405180910390f35b6102726108b4565b60405161027f91906125de565b60405180910390f35b6102a2600480360381019061029d9190612621565b6108ba565b005b6102ac6109b6565b6040516102b991906125de565b60405180910390f35b6102ca610a93565b005b6102d4610aa6565b005b6102f060048036038101906102eb9190612621565b610d3f565b005b61030c6004803603810190610307919061253f565b610e3b565b60405161031a92919061258c565b60405180910390f35b61032b611269565b604051610338919061266c565b60405180910390f35b61034961128e565b6040516103569190612474565b60405180910390f35b6103676112a1565b60405161037491906124ad565b60405180910390f35b6103856112c8565b60405161039291906125de565b60405180910390f35b6103b560048036038101906103b091906125b3565b6112e3565b005b6103bf611552565b6040516103cc9190612474565b60405180910390f35b6103ef60048036038101906103ea9190612621565b611565565b005b61040b600480360381019061040691906126af565b611661565b005b6104156116bd565b60405161042291906125de565b60405180910390f35b610445600480360381019061044091906125b3565b61175b565b60405161045392919061258c565b60405180910390f35b610476600480360381019061047191906126af565b611789565b005b610492600480360381019061048d91906125b3565b6117e5565b005b6104ae60048036038101906104a99190612621565b611870565b005b7f000000000000000000000000000000000000000000000000000000000000000081565b600260149054906101000a900460ff1681565b60025f9054906101000a900473ffffffffffffffffffffffffffffffffffffffff1681565b7f000000000000000000000000000000000000000000000000000000000000000081565b5f5f61053a6118f4565b600260149054906101000a900460ff16610589576040517f08c379a000000000000000000000000000000000000000000000000000000000815260040161058090612734565b60405180910390fd5b600260159054906101000a900460ff16156105d9576040517f08c379a00000000000000000000000000000000000000000000000000000000081526004016105d09061279c565b60405180910390fd5b5f841161061b576040517f08c379a000000000000000000000000000000000000000000000000000000000815260040161061290612804565b60405180910390fd5b5f610624611916565b90505f61063082611a9b565b905061063c8682611b9d565b80945081955050505f8411610686576040517f08c379a000000000000000000000000000000000000000000000000000000000815260040161067d9061286c565b60405180910390fd5b848410156106c9576040517f08c379a00000000000000000000000000000000000000000000000000000000081526004016106c0906128d4565b60405180910390fd5b5f831161070b576040517f08c379a00000000000000000000000000000000000000000000000000000000081526004016107029061293c565b60405180910390fd5b8583111561074e576040517f08c379a0000000000000000000000000000000000000000000000000000000008152600401610745906129a4565b60405180910390fd5b61079b3330857f000000000000000000000000000000000000000000000000000000000000000073ffffffffffffffffffffffffffffffffffffffff16611cbe909392919063ffffffff16565b7f000000000000000000000000000000000000000000000000000000000000000073ffffffffffffffffffffffffffffffffffffffff166340c10f1933866040518363ffffffff1660e01b81526004016107f69291906129c2565b5f604051808303815f87803b15801561080d575f5ffd5b505af115801561081f573d5f5f3e3d5ffd5b505050503373ffffffffffffffffffffffffffffffffffffffff167f5a3358a3d27a5373c0df2604662088d37894d56b7cfd27f315770440f4e0d91984838760405161086d939291906129e9565b60405180910390a2505061087f611d13565b9250929050565b5f5f5f610891611916565b90505f61089d82611a9b565b90506108a98582611d2d565b935093505050915091565b60035481565b6108c2611e50565b5f73ffffffffffffffffffffffffffffffffffffffff168173ffffffffffffffffffffffffffffffffffffffff1603610930576040517f08c379a000000000000000000000000000000000000000000000000000000000815260040161092790612a68565b60405180910390fd5b8060025f6101000a81548173ffffffffffffffffffffffffffffffffffffffff021916908373ffffffffffffffffffffffffffffffffffffffff1602179055508073ffffffffffffffffffffffffffffffffffffffff167f141c634522c8bfcf25beba4c524ac0c87de0db74ebe83168cf5f3bf4d45fd89860405160405180910390a250565b5f5f7f000000000000000000000000000000000000000000000000000000000000000073ffffffffffffffffffffffffffffffffffffffff166318160ddd6040518163ffffffff1660e01b8152600401602060405180830381865afa158015610a21573d5f5f3e3d5ffd5b505050506040513d601f19601f82011682018060405250810190610a459190612a9a565b90505f8103610a77577f0000000000000000000000000000000000000000000000000000000000000000915050610a90565b5f610a80611916565b9050610a8b81611a9b565b925050505b90565b610a9b611e50565b610aa45f611ed7565b565b610aae611e50565b600260149054906101000a900460ff1615610afe576040517f08c379a0000000000000000000000000000000000000000000000000000000008152600401610af590612b0f565b60405180910390fd5b5f610b07611916565b90505f815f015111610b4e576040517f08c379a0000000000000000000000000000000000000000000000000000000008152600401610b4590612b77565b60405180910390fd5b5f610b9d825f01517f00000000000000000000000000000000000000000000000000000000000000007f0000000000000000000000000000000000000000000000000000000000000000611f98565b90505f8111610be1576040517f08c379a0000000000000000000000000000000000000000000000000000000008152600401610bd890612bdf565b60405180910390fd5b6001600260146101000a81548160ff0219169083151502179055507f000000000000000000000000000000000000000000000000000000000000000073ffffffffffffffffffffffffffffffffffffffff166340c10f1960025f9054906101000a900473ffffffffffffffffffffffffffffffffffffffff16836040518363ffffffff1660e01b8152600401610c789291906129c2565b5f604051808303815f87803b158015610c8f575f5ffd5b505af1158015610ca1573d5f5f3e3d5ffd5b5050505060025f9054906101000a900473ffffffffffffffffffffffffffffffffffffffff1673ffffffffffffffffffffffffffffffffffffffff167f7daa9e69e51aae98674a933164ca91b034cb5856823c3ea6a98065ba29e97283835f01517f000000000000000000000000000000000000000000000000000000000000000084604051610d33939291906129e9565b60405180910390a25050565b610d47611e50565b5f73ffffffffffffffffffffffffffffffffffffffff168173ffffffffffffffffffffffffffffffffffffffff1603610db5576040517f08c379a0000000000000000000000000000000000000000000000000000000008152600401610dac90612c47565b60405180910390fd5b8060015f6101000a81548173ffffffffffffffffffffffffffffffffffffffff021916908373ffffffffffffffffffffffffffffffffffffffff1602179055508073ffffffffffffffffffffffffffffffffffffffff167f3f32684a32a11dabdbb8c0177de80aa3ae36a004d75210335b49e544e48cd0aa60405160405180910390a250565b5f5f610e456118f4565b600260149054906101000a900460ff16610e94576040517f08c379a0000000000000000000000000000000000000000000000000000000008152600401610e8b90612734565b60405180910390fd5b600260169054906101000a900460ff1615610ee4576040517f08c379a0000000000000000000000000000000000000000000000000000000008152600401610edb90612caf565b60405180910390fd5b5f8411610f26576040517f08c379a0000000000000000000000000000000000000000000000000000000008152600401610f1d90612d17565b60405180910390fd5b5f610f2f611916565b90505f610f3b82611a9b565b9050610f478682611d2d565b80945081955050505f8411610f91576040517f08c379a0000000000000000000000000000000000000000000000000000000008152600401610f8890612d7f565b60405180910390fd5b85841115610fd4576040517f08c379a0000000000000000000000000000000000000000000000000000000008152600401610fcb90612de7565b60405180910390fd5b5f8311611016576040517f08c379a000000000000000000000000000000000000000000000000000000000815260040161100d90612e4f565b60405180910390fd5b84831015611059576040517f08c379a000000000000000000000000000000000000000000000000000000000815260040161105090612eb7565b60405180910390fd5b827f000000000000000000000000000000000000000000000000000000000000000073ffffffffffffffffffffffffffffffffffffffff166370a08231306040518263ffffffff1660e01b81526004016110b391906124ad565b602060405180830381865afa1580156110ce573d5f5f3e3d5ffd5b505050506040513d601f19601f820116820180604052508101906110f29190612a9a565b1015611133576040517f08c379a000000000000000000000000000000000000000000000000000000000815260040161112a90612f1f565b60405180910390fd5b7f000000000000000000000000000000000000000000000000000000000000000073ffffffffffffffffffffffffffffffffffffffff16639dc29fac33866040518363ffffffff1660e01b815260040161118e9291906129c2565b5f604051808303815f87803b1580156111a5575f5ffd5b505af11580156111b7573d5f5f3e3d5ffd5b5050505061120633847f000000000000000000000000000000000000000000000000000000000000000073ffffffffffffffffffffffffffffffffffffffff166120779092919063ffffffff16565b3373ffffffffffffffffffffffffffffffffffffffff167f484c40561359f3e3b8be9101897f8680aa82fbe1df9fd9038e0dbc6284032646858386604051611250939291906129e9565b60405180910390a25050611262611d13565b9250929050565b60015f9054906101000a900473ffffffffffffffffffffffffffffffffffffffff1681565b600260159054906101000a900460ff1681565b5f5f5f9054906101000a900473ffffffffffffffffffffffffffffffffffffffff16905090565b5f5f6112d2611916565b90506112dd816120ca565b91505090565b600260149054906101000a900460ff16611332576040517f08c379a000000000000000000000000000000000000000000000000000000000815260040161132990612734565b60405180910390fd5b5f8111611374576040517f08c379a000000000000000000000000000000000000000000000000000000000815260040161136b90612d17565b60405180910390fd5b5f61137d611916565b90505f61138982611a9b565b90505f5f6113978584611d2d565b915091505f82116113dd576040517f08c379a00000000000000000000000000000000000000000000000000000000081526004016113d490612d7f565b60405180910390fd5b5f811161141f576040517f08c379a000000000000000000000000000000000000000000000000000000000815260040161141690612e4f565b60405180910390fd5b817f000000000000000000000000000000000000000000000000000000000000000073ffffffffffffffffffffffffffffffffffffffff166370a08231336040518263ffffffff1660e01b815260040161147991906124ad565b602060405180830381865afa158015611494573d5f5f3e3d5ffd5b505050506040513d601f19601f820116820180604052508101906114b89190612a9a565b10156114f9576040517f08c379a00000000000000000000000000000000000000000000000000000000081526004016114f090612f87565b60405180910390fd5b3373ffffffffffffffffffffffffffffffffffffffff167f5952c21ab4e64f9ce2d0daf53a8286da3c634eab5a86ccdf38ebefc3087ea301838584604051611543939291906129e9565b60405180910390a25050505050565b600260169054906101000a900460ff1681565b61156d611e50565b5f73ffffffffffffffffffffffffffffffffffffffff168173ffffffffffffffffffffffffffffffffffffffff16036115db576040517f08c379a00000000000000000000000000000000000000000000000000000000081526004016115d290612c47565b60405180910390fd5b8060015f6101000a81548173ffffffffffffffffffffffffffffffffffffffff021916908373ffffffffffffffffffffffffffffffffffffffff1602179055508073ffffffffffffffffffffffffffffffffffffffff167f3f32684a32a11dabdbb8c0177de80aa3ae36a004d75210335b49e544e48cd0aa60405160405180910390a250565b611669611e50565b80600260156101000a81548160ff0219169083151502179055507f0fb79081612032f5ce63340f421121d9f8b8ea04158f08b2dfafacb3393caf98816040516116b29190612474565b60405180910390a150565b5f7f000000000000000000000000000000000000000000000000000000000000000073ffffffffffffffffffffffffffffffffffffffff166370a08231306040518263ffffffff1660e01b815260040161171791906124ad565b602060405180830381865afa158015611732573d5f5f3e3d5ffd5b505050506040513d601f19601f820116820180604052508101906117569190612a9a565b905090565b5f5f5f611766611916565b90505f61177282611a9b565b905061177e8582611b9d565b935093505050915091565b611791611e50565b80600260166101000a81548160ff0219169083151502179055507fcab6eb524363ce625bcd6d709065fe3433487efebb486f47d00f3c310e952b63816040516117da9190612474565b60405180910390a150565b6117ed611e50565b5f811161182f576040517f08c379a000000000000000000000000000000000000000000000000000000000815260040161182690612fef565b60405180910390fd5b806003819055507fb321aa162c9f5d4bbd1aee2493d56a1de75f6b43eb21e6987f5c67230000a3ca8160405161186591906125de565b60405180910390a150565b611878611e50565b5f73ffffffffffffffffffffffffffffffffffffffff168173ffffffffffffffffffffffffffffffffffffffff16036118e8575f6040517f1e4fbdf70000000000000000000000000000000000000000000000000000000081526004016118df91906124ad565b60405180910390fd5b6118f181611ed7565b50565b6118fc6121a8565b600261190e6119096121e9565b612212565b5f0181905550565b61191e6123a1565b60015f9054906101000a900473ffffffffffffffffffffffffffffffffffffffff1673ffffffffffffffffffffffffffffffffffffffff1663186f34d56040518163ffffffff1660e01b8152600401608060405180830381865afa158015611988573d5f5f3e3d5ffd5b505050506040513d601f19601f820116820180604052508101906119ac9190613155565b905080602001516119f2576040517f08c379a00000000000000000000000000000000000000000000000000000000081526004016119e9906131ca565b60405180910390fd5b5f816040015111611a38576040517f08c379a0000000000000000000000000000000000000000000000000000000008152600401611a2f90613232565b60405180910390fd5b5f6003541480611a595750600354816040015142611a56919061327d565b11155b611a98576040517f08c379a0000000000000000000000000000000000000000000000000000000008152600401611a8f906132fa565b60405180910390fd5b90565b5f5f7f000000000000000000000000000000000000000000000000000000000000000073ffffffffffffffffffffffffffffffffffffffff166318160ddd6040518163ffffffff1660e01b8152600401602060405180830381865afa158015611b06573d5f5f3e3d5ffd5b505050506040513d601f19601f82011682018060405250810190611b2a9190612a9a565b90505f8103611b5c577f0000000000000000000000000000000000000000000000000000000000000000915050611b98565b5f611b66846120ca565b9050611b93817f000000000000000000000000000000000000000000000000000000000000000084611f98565b925050505b919050565b5f5f5f8311611be1576040517f08c379a0000000000000000000000000000000000000000000000000000000008152600401611bd890613362565b60405180910390fd5b5f7f000000000000000000000000000000000000000000000000000000000000000085611c0e9190613380565b9050611c3b817f000000000000000000000000000000000000000000000000000000000000000086611f98565b92505f8303611c50575f5f9250925050611cb7565b5f611c868585611c609190613380565b7f000000000000000000000000000000000000000000000000000000000000000061221b565b9050611cb2817f000000000000000000000000000000000000000000000000000000000000000061221b565b925050505b9250929050565b611ccc848484846001612259565b611d0d57836040517f5274afe7000000000000000000000000000000000000000000000000000000008152600401611d0491906124ad565b60405180910390fd5b50505050565b6001611d25611d206121e9565b612212565b5f0181905550565b5f5f5f8311611d71576040517f08c379a0000000000000000000000000000000000000000000000000000000008152600401611d6890613362565b60405180910390fd5b5f611d9d85857f0000000000000000000000000000000000000000000000000000000000000000611f98565b90507f000000000000000000000000000000000000000000000000000000000000000081611dcb91906133ee565b91505f8203611de0575f5f9250925050611e49565b5f7f000000000000000000000000000000000000000000000000000000000000000083611e0d9190613380565b9050611e447f000000000000000000000000000000000000000000000000000000000000000082611e3e9190613380565b8661221b565b935050505b9250929050565b611e586122ca565b73ffffffffffffffffffffffffffffffffffffffff16611e766112a1565b73ffffffffffffffffffffffffffffffffffffffff1614611ed557611e996122ca565b6040517f118cdaa7000000000000000000000000000000000000000000000000000000008152600401611ecc91906124ad565b60405180910390fd5b565b5f5f5f9054906101000a900473ffffffffffffffffffffffffffffffffffffffff169050815f5f6101000a81548173ffffffffffffffffffffffffffffffffffffffff021916908373ffffffffffffffffffffffffffffffffffffffff1602179055508173ffffffffffffffffffffffffffffffffffffffff168173ffffffffffffffffffffffffffffffffffffffff167f8be0079c531659141344cd1fd0a4f28419497f9722a3daafe3b4186f6b6457e060405160405180910390a35050565b5f5f5f611fa586866122d1565b915091505f8203611fca57838181611fc057611fbf6133c1565b5b0492505050612070565b818411611fe957611fe8611fe35f8614601260116122ee565b612307565b5b5f8486880990508181118303925080820391505f855f038616905080860495508083049250600181825f0304019050808402831792505f600287600302189050808702600203810290508087026002038102905080870260020381029050808702600203810290508087026002038102905080870260020381029050808402955050505050505b9392505050565b6120848383836001612318565b6120c557826040517f5274afe70000000000000000000000000000000000000000000000000000000081526004016120bc91906124ad565b60405180910390fd5b505050565b5f5f7f00000000000000000000000000000000000000000000000000000000000000007f000000000000000000000000000000000000000000000000000000000000000073ffffffffffffffffffffffffffffffffffffffff166370a08231306040518263ffffffff1660e01b815260040161214691906124ad565b602060405180830381865afa158015612161573d5f5f3e3d5ffd5b505050506040513d601f19601f820116820180604052508101906121859190612a9a565b61218f9190613380565b905080835f01516121a0919061341e565b915050919050565b6121b061237a565b156121e7576040517f3ee5aeb500000000000000000000000000000000000000000000000000000000815260040160405180910390fd5b565b5f7f9b779b17422d0df92223018b32b4d1fa46e071723d6817e2486d003becc55f005f1b905090565b5f819050919050565b5f5f820361222e5761222d6012612307565b5b6001826001850381612243576122426133c1565b5b04016122505f8511612396565b02905092915050565b5f5f6323b872dd60e01b9050604051815f525f1960601c87166004525f1960601c86166024528460445260205f60645f5f8c5af1925060015f511483166122b75783831516156122ab573d5f823e3d81fd5b5f883b113d1516831692505b806040525f606052505095945050505050565b5f33905090565b5f5f5f198385098385029150818110828203039250509250929050565b5f6122f884612396565b82841802821890509392505050565b634e487b715f52806020526024601cfd5b5f5f63a9059cbb60e01b9050604051815f525f1960601c86166004528460245260205f60445f5f8b5af1925060015f5114831661236c578383151615612360573d5f823e3d81fd5b5f873b113d1516831692505b806040525050949350505050565b5f600261238d6123886121e9565b612212565b5f015414905090565b5f8115159050919050565b60405180608001604052805f81526020015f151581526020015f81526020015f81525090565b5f73ffffffffffffffffffffffffffffffffffffffff82169050919050565b5f819050919050565b5f6124096124046123ff846123c7565b6123e6565b6123c7565b9050919050565b5f61241a826123ef565b9050919050565b5f61242b82612410565b9050919050565b61243b81612421565b82525050565b5f6020820190506124545f830184612432565b92915050565b5f8115159050919050565b61246e8161245a565b82525050565b5f6020820190506124875f830184612465565b92915050565b5f612497826123c7565b9050919050565b6124a78161248d565b82525050565b5f6020820190506124c05f83018461249e565b92915050565b5f6124d082612410565b9050919050565b6124e0816124c6565b82525050565b5f6020820190506124f95f8301846124d7565b92915050565b5f604051905090565b5f5ffd5b5f819050919050565b61251e8161250c565b8114612528575f5ffd5b50565b5f8135905061253981612515565b92915050565b5f5f6040838503121561255557612554612508565b5b5f6125628582860161252b565b92505060206125738582860161252b565b9150509250929050565b6125868161250c565b82525050565b5f60408201905061259f5f83018561257d565b6125ac602083018461257d565b9392505050565b5f602082840312156125c8576125c7612508565b5b5f6125d58482850161252b565b91505092915050565b5f6020820190506125f15f83018461257d565b92915050565b6126008161248d565b811461260a575f5ffd5b50565b5f8135905061261b816125f7565b92915050565b5f6020828403121561263657612635612508565b5b5f6126438482850161260d565b91505092915050565b5f61265682612410565b9050919050565b6126668161264c565b82525050565b5f60208201905061267f5f83018461265d565b92915050565b61268e8161245a565b8114612698575f5ffd5b50565b5f813590506126a981612685565b92915050565b5f602082840312156126c4576126c3612508565b5b5f6126d18482850161269b565b91505092915050565b5f82825260208201905092915050565b7f6e6f7420696e697469616c697a656400000000000000000000000000000000005f82015250565b5f61271e600f836126da565b9150612729826126ea565b602082019050919050565b5f6020820190508181035f83015261274b81612712565b9050919050565b7f6d696e74207061757365640000000000000000000000000000000000000000005f82015250565b5f612786600b836126da565b915061279182612752565b602082019050919050565b5f6020820190508181035f8301526127b38161277a565b9050919050565b7f7a65726f205553444300000000000000000000000000000000000000000000005f82015250565b5f6127ee6009836126da565b91506127f9826127ba565b602082019050919050565b5f6020820190508181035f83015261281b816127e2565b9050919050565b7f7a65726f206d696e7420616d6f756e74000000000000000000000000000000005f82015250565b5f6128566010836126da565b915061286182612822565b602082019050919050565b5f6020820190508181035f8301526128838161284a565b9050919050565b7f696e73756666696369656e7420525741206f75740000000000000000000000005f82015250565b5f6128be6014836126da565b91506128c98261288a565b602082019050919050565b5f6020820190508181035f8301526128eb816128b2565b9050919050565b7f7a65726f205553444320726571756972656400000000000000000000000000005f82015250565b5f6129266012836126da565b9150612931826128f2565b602082019050919050565b5f6020820190508181035f8301526129538161291a565b9050919050565b7f555344432072657175697265642065786365656473206d6178000000000000005f82015250565b5f61298e6019836126da565b91506129998261295a565b602082019050919050565b5f6020820190508181035f8301526129bb81612982565b9050919050565b5f6040820190506129d55f83018561249e565b6129e2602083018461257d565b9392505050565b5f6060820190506129fc5f83018661257d565b612a09602083018561257d565b612a16604083018461257d565b949350505050565b7f62616420697373756572000000000000000000000000000000000000000000005f82015250565b5f612a52600a836126da565b9150612a5d82612a1e565b602082019050919050565b5f6020820190508181035f830152612a7f81612a46565b9050919050565b5f81519050612a9481612515565b92915050565b5f60208284031215612aaf57612aae612508565b5b5f612abc84828501612a86565b91505092915050565b7f616c726561647920696e697469616c697a6564000000000000000000000000005f82015250565b5f612af96013836126da565b9150612b0482612ac5565b602082019050919050565b5f6020820190508181035f830152612b2681612aed565b9050919050565b7f6e6f206f6666636861696e2072657365727665000000000000000000000000005f82015250565b5f612b616013836126da565b9150612b6c82612b2d565b602082019050919050565b5f6020820190508181035f830152612b8e81612b55565b9050919050565b7f7a65726f20696e697469616c20737570706c79000000000000000000000000005f82015250565b5f612bc96013836126da565b9150612bd482612b95565b602082019050919050565b5f6020820190508181035f830152612bf681612bbd565b9050919050565b7f626164206f7261636c65000000000000000000000000000000000000000000005f82015250565b5f612c31600a836126da565b9150612c3c82612bfd565b602082019050919050565b5f6020820190508181035f830152612c5e81612c25565b9050919050565b7f72656465656d20706175736564000000000000000000000000000000000000005f82015250565b5f612c99600d836126da565b9150612ca482612c65565b602082019050919050565b5f6020820190508181035f830152612cc681612c8d565b9050919050565b7f7a65726f205257410000000000000000000000000000000000000000000000005f82015250565b5f612d016008836126da565b9150612d0c82612ccd565b602082019050919050565b5f6020820190508181035f830152612d2e81612cf5565b9050919050565b7f7a65726f205257412072657175697265640000000000000000000000000000005f82015250565b5f612d696011836126da565b9150612d7482612d35565b602082019050919050565b5f6020820190508181035f830152612d9681612d5d565b9050919050565b7f5257412072657175697265642065786365656473206d617800000000000000005f82015250565b5f612dd16018836126da565b9150612ddc82612d9d565b602082019050919050565b5f6020820190508181035f830152612dfe81612dc5565b9050919050565b7f7a65726f2072656465656d20616d6f756e7400000000000000000000000000005f82015250565b5f612e396012836126da565b9150612e4482612e05565b602082019050919050565b5f6020820190508181035f830152612e6681612e2d565b9050919050565b7f696e73756666696369656e742055534443206f757400000000000000000000005f82015250565b5f612ea16015836126da565b9150612eac82612e6d565b602082019050919050565b5f6020820190508181035f830152612ece81612e95565b9050919050565b7f696e73756666696369656e742055534443206c697175696469747900000000005f82015250565b5f612f09601b836126da565b9150612f1482612ed5565b602082019050919050565b5f6020820190508181035f830152612f3681612efd565b9050919050565b7f696e73756666696369656e74205257412062616c616e636500000000000000005f82015250565b5f612f716018836126da565b9150612f7c82612f3d565b602082019050919050565b5f6020820190508181035f830152612f9e81612f65565b9050919050565b7f6261642064656c617900000000000000000000000000000000000000000000005f82015250565b5f612fd96009836126da565b9150612fe482612fa5565b602082019050919050565b5f6020820190508181035f83015261300681612fcd565b9050919050565b5f5ffd5b5f601f19601f8301169050919050565b7f4e487b71000000000000000000000000000000000000000000000000000000005f52604160045260245ffd5b61305782613011565b810181811067ffffffffffffffff8211171561307657613075613021565b5b80604052505050565b5f6130886124ff565b9050613094828261304e565b919050565b5f815190506130a781612685565b92915050565b5f819050919050565b6130bf816130ad565b81146130c9575f5ffd5b50565b5f815190506130da816130b6565b92915050565b5f608082840312156130f5576130f461300d565b5b6130ff608061307f565b90505f61310e84828501612a86565b5f83015250602061312184828501613099565b602083015250604061313584828501612a86565b6040830152506060613149848285016130cc565b60608301525092915050565b5f6080828403121561316a57613169612508565b5b5f613177848285016130e0565b91505092915050565b7f7265736572766520696e76616c696400000000000000000000000000000000005f82015250565b5f6131b4600f836126da565b91506131bf82613180565b602082019050919050565b5f6020820190508181035f8301526131e1816131a8565b9050919050565b7f6f7261636c65206e6f74207570646174656400000000000000000000000000005f82015250565b5f61321c6012836126da565b9150613227826131e8565b602082019050919050565b5f6020820190508181035f83015261324981613210565b9050919050565b7f4e487b71000000000000000000000000000000000000000000000000000000005f52601160045260245ffd5b5f6132878261250c565b91506132928361250c565b92508282039050818111156132aa576132a9613250565b5b92915050565b7f6f7261636c652064617461207374616c650000000000000000000000000000005f82015250565b5f6132e46011836126da565b91506132ef826132b0565b602082019050919050565b5f6020820190508181035f830152613311816132d8565b9050919050565b7f626164204e4156000000000000000000000000000000000000000000000000005f82015250565b5f61334c6007836126da565b915061335782613318565b602082019050919050565b5f6020820190508181035f83015261337981613340565b9050919050565b5f61338a8261250c565b91506133958361250c565b92508282026133a38161250c565b915082820484148315176133ba576133b9613250565b5b5092915050565b7f4e487b71000000000000000000000000000000000000000000000000000000005f52601260045260245ffd5b5f6133f88261250c565b91506134038361250c565b925082613413576134126133c1565b5b828204905092915050565b5f6134288261250c565b91506134338361250c565b925082820190508082111561344b5761344a613250565b5b9291505056fea2646970667358221220ec1b433bdf20e82342a4fd92f41e387c4f463c48819cb69f5e1aba895faa469664736f6c63430008220033",
			"opcodes": "PUSH2 0x160 PUSH1 0x40 MSTORE CALLVALUE DUP1 ISZERO PUSH2 0x10 JUMPI PUSH0 PUSH0 REVERT JUMPDEST POP PUSH1 0x40 MLOAD PUSH2 0x4265 CODESIZE SUB DUP1 PUSH2 0x4265 DUP4 CODECOPY DUP2 DUP2 ADD PUSH1 0x40 MSTORE DUP2 ADD SWAP1 PUSH2 0x32 SWAP2 SWAP1 PUSH2 0x71E JUMP JUMPDEST CALLER PUSH0 PUSH20 0xFFFFFFFFFFFFFFFFFFFFFFFFFFFFFFFFFFFFFFFF AND DUP2 PUSH20 0xFFFFFFFFFFFFFFFFFFFFFFFFFFFFFFFFFFFFFFFF AND SUB PUSH2 0xA3 JUMPI PUSH0 PUSH1 0x40 MLOAD PUSH32 0x1E4FBDF700000000000000000000000000000000000000000000000000000000 DUP2 MSTORE PUSH1 0x4 ADD PUSH2 0x9A SWAP2 SWAP1 PUSH2 0x7B6 JUMP JUMPDEST PUSH1 0x40 MLOAD DUP1 SWAP2 SUB SWAP1 REVERT JUMPDEST PUSH2 0xB2 DUP2 PUSH2 0x59A PUSH1 0x20 SHL PUSH1 0x20 SHR JUMP JUMPDEST POP PUSH1 0x1 PUSH2 0xD1 PUSH2 0xC6 PUSH2 0x65B PUSH1 0x20 SHL PUSH1 0x20 SHR JUMP JUMPDEST PUSH2 0x684 PUSH1 0x20 SHL PUSH1 0x20 SHR JUMP JUMPDEST PUSH0 ADD DUP2 SWAP1 SSTORE POP PUSH0 PUSH20 0xFFFFFFFFFFFFFFFFFFFFFFFFFFFFFFFFFFFFFFFF AND DUP7 PUSH20 0xFFFFFFFFFFFFFFFFFFFFFFFFFFFFFFFFFFFFFFFF AND SUB PUSH2 0x145 JUMPI PUSH1 0x40 MLOAD PUSH32 0x8C379A000000000000000000000000000000000000000000000000000000000 DUP2 MSTORE PUSH1 0x4 ADD PUSH2 0x13C SWAP1 PUSH2 0x829 JUMP JUMPDEST PUSH1 0x40 MLOAD DUP1 SWAP2 SUB SWAP1 REVERT JUMPDEST PUSH0 PUSH20 0xFFFFFFFFFFFFFFFFFFFFFFFFFFFFFFFFFFFFFFFF AND DUP6 PUSH20 0xFFFFFFFFFFFFFFFFFFFFFFFFFFFFFFFFFFFFFFFF AND SUB PUSH2 0x1B3 JUMPI PUSH1 0x40 MLOAD PUSH32 0x8C379A000000000000000000000000000000000000000000000000000000000 DUP2 MSTORE PUSH1 0x4 ADD PUSH2 0x1AA SWAP1 PUSH2 0x891 JUMP JUMPDEST PUSH1 0x40 MLOAD DUP1 SWAP2 SUB SWAP1 REVERT JUMPDEST PUSH0 PUSH20 0xFFFFFFFFFFFFFFFFFFFFFFFFFFFFFFFFFFFFFFFF AND DUP5 PUSH20 0xFFFFFFFFFFFFFFFFFFFFFFFFFFFFFFFFFFFFFFFF AND SUB PUSH2 0x221 JUMPI PUSH1 0x40 MLOAD PUSH32 0x8C379A000000000000000000000000000000000000000000000000000000000 DUP2 MSTORE PUSH1 0x4 ADD PUSH2 0x218 SWAP1 PUSH2 0x8F9 JUMP JUMPDEST PUSH1 0x40 MLOAD DUP1 SWAP2 SUB SWAP1 REVERT JUMPDEST PUSH0 PUSH20 0xFFFFFFFFFFFFFFFFFFFFFFFFFFFFFFFFFFFFFFFF AND DUP4 PUSH20 0xFFFFFFFFFFFFFFFFFFFFFFFFFFFFFFFFFFFFFFFF AND SUB PUSH2 0x28F JUMPI PUSH1 0x40 MLOAD PUSH32 0x8C379A000000000000000000000000000000000000000000000000000000000 DUP2 MSTORE PUSH1 0x4 ADD PUSH2 0x286 SWAP1 PUSH2 0x961 JUMP JUMPDEST PUSH1 0x40 MLOAD DUP1 SWAP2 SUB SWAP1 REVERT JUMPDEST PUSH0 DUP3 GT PUSH2 0x2D1 JUMPI PUSH1 0x40 MLOAD PUSH32 0x8C379A000000000000000000000000000000000000000000000000000000000 DUP2 MSTORE PUSH1 0x4 ADD PUSH2 0x2C8 SWAP1 PUSH2 0x9C9 JUMP JUMPDEST PUSH1 0x40 MLOAD DUP1 SWAP2 SUB SWAP1 REVERT JUMPDEST DUP6 PUSH1 0x1 PUSH0 PUSH2 0x100 EXP DUP2 SLOAD DUP2 PUSH20 0xFFFFFFFFFFFFFFFFFFFFFFFFFFFFFFFFFFFFFFFF MUL NOT AND SWAP1 DUP4 PUSH20 0xFFFFFFFFFFFFFFFFFFFFFFFFFFFFFFFFFFFFFFFF AND MUL OR SWAP1 SSTORE POP DUP5 PUSH20 0xFFFFFFFFFFFFFFFFFFFFFFFFFFFFFFFFFFFFFFFF AND PUSH1 0x80 DUP2 PUSH20 0xFFFFFFFFFFFFFFFFFFFFFFFFFFFFFFFFFFFFFFFF AND DUP2 MSTORE POP POP DUP4 PUSH20 0xFFFFFFFFFFFFFFFFFFFFFFFFFFFFFFFFFFFFFFFF AND PUSH1 0xA0 DUP2 PUSH20 0xFFFFFFFFFFFFFFFFFFFFFFFFFFFFFFFFFFFFFFFF AND DUP2 MSTORE POP POP DUP3 PUSH1 0x2 PUSH0 PUSH2 0x100 EXP DUP2 SLOAD DUP2 PUSH20 0xFFFFFFFFFFFFFFFFFFFFFFFFFFFFFFFFFFFFFFFF MUL NOT AND SWAP1 DUP4 PUSH20 0xFFFFFFFFFFFFFFFFFFFFFFFFFFFFFFFFFFFFFFFF AND MUL OR SWAP1 SSTORE POP DUP2 PUSH2 0x140 DUP2 DUP2 MSTORE POP POP DUP5 PUSH20 0xFFFFFFFFFFFFFFFFFFFFFFFFFFFFFFFFFFFFFFFF AND PUSH4 0x313CE567 PUSH1 0x40 MLOAD DUP2 PUSH4 0xFFFFFFFF AND PUSH1 0xE0 SHL DUP2 MSTORE PUSH1 0x4 ADD PUSH1 0x20 PUSH1 0x40 MLOAD DUP1 DUP4 SUB DUP2 DUP7 GAS STATICCALL ISZERO DUP1 ISZERO PUSH2 0x40B JUMPI RETURNDATASIZE PUSH0 PUSH0 RETURNDATACOPY RETURNDATASIZE PUSH0 REVERT JUMPDEST POP POP POP POP PUSH1 0x40 MLOAD RETURNDATASIZE PUSH1 0x1F NOT PUSH1 0x1F DUP3 ADD AND DUP3 ADD DUP1 PUSH1 0x40 MSTORE POP DUP2 ADD SWAP1 PUSH2 0x42F SWAP2 SWAP1 PUSH2 0xA1D JUMP JUMPDEST PUSH1 0xFF AND PUSH1 0xC0 DUP2 PUSH1 0xFF AND DUP2 MSTORE POP POP DUP4 PUSH20 0xFFFFFFFFFFFFFFFFFFFFFFFFFFFFFFFFFFFFFFFF AND PUSH4 0x313CE567 PUSH1 0x40 MLOAD DUP2 PUSH4 0xFFFFFFFF AND PUSH1 0xE0 SHL DUP2 MSTORE PUSH1 0x4 ADD PUSH1 0x20 PUSH1 0x40 MLOAD DUP1 DUP4 SUB DUP2 DUP7 GAS STATICCALL ISZERO DUP1 ISZERO PUSH2 0x485 JUMPI RETURNDATASIZE PUSH0 PUSH0 RETURNDATACOPY RETURNDATASIZE PUSH0 REVERT JUMPDEST POP POP POP POP PUSH1 0x40 MLOAD RETURNDATASIZE PUSH1 0x1F NOT PUSH1 0x1F DUP3 ADD AND DUP3 ADD DUP1 PUSH1 0x40 MSTORE POP DUP2 ADD SWAP1 PUSH2 0x4A9 SWAP2 SWAP1 PUSH2 0xA1D JUMP JUMPDEST PUSH1 0xFF AND PUSH1 0xE0 DUP2 PUSH1 0xFF AND DUP2 MSTORE POP POP PUSH1 0x12 PUSH1 0xC0 MLOAD PUSH1 0xFF AND GT ISZERO PUSH2 0x4FF JUMPI PUSH1 0x40 MLOAD PUSH32 0x8C379A000000000000000000000000000000000000000000000000000000000 DUP2 MSTORE PUSH1 0x4 ADD PUSH2 0x4F6 SWAP1 PUSH2 0xA92 JUMP JUMPDEST PUSH1 0x40 MLOAD DUP1 SWAP2 SUB SWAP1 REVERT JUMPDEST PUSH1 0x12 PUSH1 0xE0 MLOAD PUSH1 0xFF AND GT ISZERO PUSH2 0x548 JUMPI PUSH1 0x40 MLOAD PUSH32 0x8C379A000000000000000000000000000000000000000000000000000000000 DUP2 MSTORE PUSH1 0x4 ADD PUSH2 0x53F SWAP1 PUSH2 0xAFA JUMP JUMPDEST PUSH1 0x40 MLOAD DUP1 SWAP2 SUB SWAP1 REVERT JUMPDEST PUSH1 0xE0 MLOAD PUSH1 0xFF AND PUSH1 0xA PUSH2 0x55A SWAP2 SWAP1 PUSH2 0xC74 JUMP JUMPDEST PUSH2 0x100 DUP2 DUP2 MSTORE POP POP PUSH1 0xC0 MLOAD PUSH1 0x12 PUSH2 0x571 SWAP2 SWAP1 PUSH2 0xCBE JUMP JUMPDEST PUSH1 0xFF AND PUSH1 0xA PUSH2 0x580 SWAP2 SWAP1 PUSH2 0xC74 JUMP JUMPDEST PUSH2 0x120 DUP2 DUP2 MSTORE POP POP DUP1 PUSH1 0x3 DUP2 SWAP1 SSTORE POP POP POP POP POP POP POP PUSH2 0xCF2 JUMP JUMPDEST PUSH0 PUSH0 PUSH0 SWAP1 SLOAD SWAP1 PUSH2 0x100 EXP SWAP1 DIV PUSH20 0xFFFFFFFFFFFFFFFFFFFFFFFFFFFFFFFFFFFFFFFF AND SWAP1 POP DUP2 PUSH0 PUSH0 PUSH2 0x100 EXP DUP2 SLOAD DUP2 PUSH20 0xFFFFFFFFFFFFFFFFFFFFFFFFFFFFFFFFFFFFFFFF MUL NOT AND SWAP1 DUP4 PUSH20 0xFFFFFFFFFFFFFFFFFFFFFFFFFFFFFFFFFFFFFFFF AND MUL OR SWAP1 SSTORE POP DUP2 PUSH20 0xFFFFFFFFFFFFFFFFFFFFFFFFFFFFFFFFFFFFFFFF AND DUP2 PUSH20 0xFFFFFFFFFFFFFFFFFFFFFFFFFFFFFFFFFFFFFFFF AND PUSH32 0x8BE0079C531659141344CD1FD0A4F28419497F9722A3DAAFE3B4186F6B6457E0 PUSH1 0x40 MLOAD PUSH1 0x40 MLOAD DUP1 SWAP2 SUB SWAP1 LOG3 POP POP JUMP JUMPDEST PUSH0 PUSH32 0x9B779B17422D0DF92223018B32B4D1FA46E071723D6817E2486D003BECC55F00 PUSH0 SHL SWAP1 POP SWAP1 JUMP JUMPDEST PUSH0 DUP2 SWAP1 POP SWAP2 SWAP1 POP JUMP JUMPDEST PUSH0 PUSH0 REVERT JUMPDEST PUSH0 PUSH20 0xFFFFFFFFFFFFFFFFFFFFFFFFFFFFFFFFFFFFFFFF DUP3 AND SWAP1 POP SWAP2 SWAP1 POP JUMP JUMPDEST PUSH0 PUSH2 0x6BA DUP3 PUSH2 0x691 JUMP JUMPDEST SWAP1 POP SWAP2 SWAP1 POP JUMP JUMPDEST PUSH2 0x6CA DUP2 PUSH2 0x6B0 JUMP JUMPDEST DUP2 EQ PUSH2 0x6D4 JUMPI PUSH0 PUSH0 REVERT JUMPDEST POP JUMP JUMPDEST PUSH0 DUP2 MLOAD SWAP1 POP PUSH2 0x6E5 DUP2 PUSH2 0x6C1 JUMP JUMPDEST SWAP3 SWAP2 POP POP JUMP JUMPDEST PUSH0 DUP2 SWAP1 POP SWAP2 SWAP1 POP JUMP JUMPDEST PUSH2 0x6FD DUP2 PUSH2 0x6EB JUMP JUMPDEST DUP2 EQ PUSH2 0x707 JUMPI PUSH0 PUSH0 REVERT JUMPDEST POP JUMP JUMPDEST PUSH0 DUP2 MLOAD SWAP1 POP PUSH2 0x718 DUP2 PUSH2 0x6F4 JUMP JUMPDEST SWAP3 SWAP2 POP POP JUMP JUMPDEST PUSH0 PUSH0 PUSH0 PUSH0 PUSH0 PUSH0 PUSH1 0xC0 DUP8 DUP10 SUB SLT ISZERO PUSH2 0x738 JUMPI PUSH2 0x737 PUSH2 0x68D JUMP JUMPDEST JUMPDEST PUSH0 PUSH2 0x745 DUP10 DUP3 DUP11 ADD PUSH2 0x6D7 JUMP JUMPDEST SWAP7 POP POP PUSH1 0x20 PUSH2 0x756 DUP10 DUP3 DUP11 ADD PUSH2 0x6D7 JUMP JUMPDEST SWAP6 POP POP PUSH1 0x40 PUSH2 0x767 DUP10 DUP3 DUP11 ADD PUSH2 0x6D7 JUMP JUMPDEST SWAP5 POP POP PUSH1 0x60 PUSH2 0x778 DUP10 DUP3 DUP11 ADD PUSH2 0x6D7 JUMP JUMPDEST SWAP4 POP POP PUSH1 0x80 PUSH2 0x789 DUP10 DUP3 DUP11 ADD PUSH2 0x70A JUMP JUMPDEST SWAP3 POP POP PUSH1 0xA0 PUSH2 0x79A DUP10 DUP3 DUP11 ADD PUSH2 0x70A JUMP JUMPDEST SWAP2 POP POP SWAP3 SWAP6 POP SWAP3 SWAP6 POP SWAP3 SWAP6 JUMP JUMPDEST PUSH2 0x7B0 DUP2 PUSH2 0x6B0 JUMP JUMPDEST DUP3 MSTORE POP POP JUMP JUMPDEST PUSH0 PUSH1 0x20 DUP3 ADD SWAP1 POP PUSH2 0x7C9 PUSH0 DUP4 ADD DUP5 PUSH2 0x7A7 JUMP JUMPDEST SWAP3 SWAP2 POP POP JUMP JUMPDEST PUSH0 DUP3 DUP3 MSTORE PUSH1 0x20 DUP3 ADD SWAP1 POP SWAP3 SWAP2 POP POP JUMP JUMPDEST PUSH32 0x626164206F7261636C6500000000000000000000000000000000000000000000 PUSH0 DUP3 ADD MSTORE POP JUMP JUMPDEST PUSH0 PUSH2 0x813 PUSH1 0xA DUP4 PUSH2 0x7CF JUMP JUMPDEST SWAP2 POP PUSH2 0x81E DUP3 PUSH2 0x7DF JUMP JUMPDEST PUSH1 0x20 DUP3 ADD SWAP1 POP SWAP2 SWAP1 POP JUMP JUMPDEST PUSH0 PUSH1 0x20 DUP3 ADD SWAP1 POP DUP2 DUP2 SUB PUSH0 DUP4 ADD MSTORE PUSH2 0x840 DUP2 PUSH2 0x807 JUMP JUMPDEST SWAP1 POP SWAP2 SWAP1 POP JUMP JUMPDEST PUSH32 0x6261642075736463000000000000000000000000000000000000000000000000 PUSH0 DUP3 ADD MSTORE POP JUMP JUMPDEST PUSH0 PUSH2 0x87B PUSH1 0x8 DUP4 PUSH2 0x7CF JUMP JUMPDEST SWAP2 POP PUSH2 0x886 DUP3 PUSH2 0x847 JUMP JUMPDEST PUSH1 0x20 DUP3 ADD SWAP1 POP SWAP2 SWAP1 POP JUMP JUMPDEST PUSH0 PUSH1 0x20 DUP3 ADD SWAP1 POP DUP2 DUP2 SUB PUSH0 DUP4 ADD MSTORE PUSH2 0x8A8 DUP2 PUSH2 0x86F JUMP JUMPDEST SWAP1 POP SWAP2 SWAP1 POP JUMP JUMPDEST PUSH32 0x6261642072776120746F6B656E00000000000000000000000000000000000000 PUSH0 DUP3 ADD MSTORE POP JUMP JUMPDEST PUSH0 PUSH2 0x8E3 PUSH1 0xD DUP4 PUSH2 0x7CF JUMP JUMPDEST SWAP2 POP PUSH2 0x8EE DUP3 PUSH2 0x8AF JUMP JUMPDEST PUSH1 0x20 DUP3 ADD SWAP1 POP SWAP2 SWAP1 POP JUMP JUMPDEST PUSH0 PUSH1 0x20 DUP3 ADD SWAP1 POP DUP2 DUP2 SUB PUSH0 DUP4 ADD MSTORE PUSH2 0x910 DUP2 PUSH2 0x8D7 JUMP JUMPDEST SWAP1 POP SWAP2 SWAP1 POP JUMP JUMPDEST PUSH32 0x6261642069737375657200000000000000000000000000000000000000000000 PUSH0 DUP3 ADD MSTORE POP JUMP JUMPDEST PUSH0 PUSH2 0x94B PUSH1 0xA DUP4 PUSH2 0x7CF JUMP JUMPDEST SWAP2 POP PUSH2 0x956 DUP3 PUSH2 0x917 JUMP JUMPDEST PUSH1 0x20 DUP3 ADD SWAP1 POP SWAP2 SWAP1 POP JUMP JUMPDEST PUSH0 PUSH1 0x20 DUP3 ADD SWAP1 POP DUP2 DUP2 SUB PUSH0 DUP4 ADD MSTORE PUSH2 0x978 DUP2 PUSH2 0x93F JUMP JUMPDEST SWAP1 POP SWAP2 SWAP1 POP JUMP JUMPDEST PUSH32 0x62616420696E697469616C204E41560000000000000000000000000000000000 PUSH0 DUP3 ADD MSTORE POP JUMP JUMPDEST PUSH0 PUSH2 0x9B3 PUSH1 0xF DUP4 PUSH2 0x7CF JUMP JUMPDEST SWAP2 POP PUSH2 0x9BE DUP3 PUSH2 0x97F JUMP JUMPDEST PUSH1 0x20 DUP3 ADD SWAP1 POP SWAP2 SWAP1 POP JUMP JUMPDEST PUSH0 PUSH1 0x20 DUP3 ADD SWAP1 POP DUP2 DUP2 SUB PUSH0 DUP4 ADD MSTORE PUSH2 0x9E0 DUP2 PUSH2 0x9A7 JUMP JUMPDEST SWAP1 POP SWAP2 SWAP1 POP JUMP JUMPDEST PUSH0 PUSH1 0xFF DUP3 AND SWAP1 POP SWAP2 SWAP1 POP JUMP JUMPDEST PUSH2 0x9FC DUP2 PUSH2 0x9E7 JUMP JUMPDEST DUP2 EQ PUSH2 0xA06 JUMPI PUSH0 PUSH0 REVERT JUMPDEST POP JUMP JUMPDEST PUSH0 DUP2 MLOAD SWAP1 POP PUSH2 0xA17 DUP2 PUSH2 0x9F3 JUMP JUMPDEST SWAP3 SWAP2 POP POP JUMP JUMPDEST PUSH0 PUSH1 0x20 DUP3 DUP5 SUB SLT ISZERO PUSH2 0xA32 JUMPI PUSH2 0xA31 PUSH2 0x68D JUMP JUMPDEST JUMPDEST PUSH0 PUSH2 0xA3F DUP5 DUP3 DUP6 ADD PUSH2 0xA09 JUMP JUMPDEST SWAP2 POP POP SWAP3 SWAP2 POP POP JUMP JUMPDEST PUSH32 0x5553444320646563696D616C7320746F6F206869676800000000000000000000 PUSH0 DUP3 ADD MSTORE POP JUMP JUMPDEST PUSH0 PUSH2 0xA7C PUSH1 0x16 DUP4 PUSH2 0x7CF JUMP JUMPDEST SWAP2 POP PUSH2 0xA87 DUP3 PUSH2 0xA48 JUMP JUMPDEST PUSH1 0x20 DUP3 ADD SWAP1 POP SWAP2 SWAP1 POP JUMP JUMPDEST PUSH0 PUSH1 0x20 DUP3 ADD SWAP1 POP DUP2 DUP2 SUB PUSH0 DUP4 ADD MSTORE PUSH2 0xAA9 DUP2 PUSH2 0xA70 JUMP JUMPDEST SWAP1 POP SWAP2 SWAP1 POP JUMP JUMPDEST PUSH32 0x52574120646563696D616C7320746F6F20686967680000000000000000000000 PUSH0 DUP3 ADD MSTORE POP JUMP JUMPDEST PUSH0 PUSH2 0xAE4 PUSH1 0x15 DUP4 PUSH2 0x7CF JUMP JUMPDEST SWAP2 POP PUSH2 0xAEF DUP3 PUSH2 0xAB0 JUMP JUMPDEST PUSH1 0x20 DUP3 ADD SWAP1 POP SWAP2 SWAP1 POP JUMP JUMPDEST PUSH0 PUSH1 0x20 DUP3 ADD SWAP1 POP DUP2 DUP2 SUB PUSH0 DUP4 ADD MSTORE PUSH2 0xB11 DUP2 PUSH2 0xAD8 JUMP JUMPDEST SWAP1 POP SWAP2 SWAP1 POP JUMP JUMPDEST PUSH32 0x4E487B7100000000000000000000000000000000000000000000000000000000 PUSH0 MSTORE PUSH1 0x11 PUSH1 0x4 MSTORE PUSH1 0x24 PUSH0 REVERT JUMPDEST PUSH0 DUP2 PUSH1 0x1 SHR SWAP1 POP SWAP2 SWAP1 POP JUMP JUMPDEST PUSH0 PUSH0 DUP3 SWAP2 POP DUP4 SWAP1 POP JUMPDEST PUSH1 0x1 DUP6 GT ISZERO PUSH2 0xB9A JUMPI DUP1 DUP7 DIV DUP2 GT ISZERO PUSH2 0xB76 JUMPI PUSH2 0xB75 PUSH2 0xB18 JUMP JUMPDEST JUMPDEST PUSH1 0x1 DUP6 AND ISZERO PUSH2 0xB85 JUMPI DUP1 DUP3 MUL SWAP2 POP JUMPDEST DUP1 DUP2 MUL SWAP1 POP PUSH2 0xB93 DUP6 PUSH2 0xB45 JUMP JUMPDEST SWAP5 POP PUSH2 0xB5A JUMP JUMPDEST SWAP5 POP SWAP5 SWAP3 POP POP POP JUMP JUMPDEST PUSH0 DUP3 PUSH2 0xBB2 JUMPI PUSH1 0x1 SWAP1 POP PUSH2 0xC6D JUMP JUMPDEST DUP2 PUSH2 0xBBF JUMPI PUSH0 SWAP1 POP PUSH2 0xC6D JUMP JUMPDEST DUP2 PUSH1 0x1 DUP2 EQ PUSH2 0xBD5 JUMPI PUSH1 0x2 DUP2 EQ PUSH2 0xBDF JUMPI PUSH2 0xC0E JUMP JUMPDEST PUSH1 0x1 SWAP2 POP POP PUSH2 0xC6D JUMP JUMPDEST PUSH1 0xFF DUP5 GT ISZERO PUSH2 0xBF1 JUMPI PUSH2 0xBF0 PUSH2 0xB18 JUMP JUMPDEST JUMPDEST DUP4 PUSH1 0x2 EXP SWAP2 POP DUP5 DUP3 GT ISZERO PUSH2 0xC08 JUMPI PUSH2 0xC07 PUSH2 0xB18 JUMP JUMPDEST JUMPDEST POP PUSH2 0xC6D JUMP JUMPDEST POP PUSH1 0x20 DUP4 LT PUSH2 0x133 DUP4 LT AND PUSH1 0x4E DUP5 LT PUSH1 0xB DUP5 LT AND OR ISZERO PUSH2 0xC43 JUMPI DUP3 DUP3 EXP SWAP1 POP DUP4 DUP2 GT ISZERO PUSH2 0xC3E JUMPI PUSH2 0xC3D PUSH2 0xB18 JUMP JUMPDEST JUMPDEST PUSH2 0xC6D JUMP JUMPDEST PUSH2 0xC50 DUP5 DUP5 DUP5 PUSH1 0x1 PUSH2 0xB51 JUMP JUMPDEST SWAP3 POP SWAP1 POP DUP2 DUP5 DIV DUP2 GT ISZERO PUSH2 0xC67 JUMPI PUSH2 0xC66 PUSH2 0xB18 JUMP JUMPDEST JUMPDEST DUP2 DUP2 MUL SWAP1 POP JUMPDEST SWAP4 SWAP3 POP POP POP JUMP JUMPDEST PUSH0 PUSH2 0xC7E DUP3 PUSH2 0x6EB JUMP JUMPDEST SWAP2 POP PUSH2 0xC89 DUP4 PUSH2 0x6EB JUMP JUMPDEST SWAP3 POP PUSH2 0xCB6 PUSH32 0xFFFFFFFFFFFFFFFFFFFFFFFFFFFFFFFFFFFFFFFFFFFFFFFFFFFFFFFFFFFFFFFF DUP5 DUP5 PUSH2 0xBA3 JUMP JUMPDEST SWAP1 POP SWAP3 SWAP2 POP POP JUMP JUMPDEST PUSH0 PUSH2 0xCC8 DUP3 PUSH2 0x9E7 JUMP JUMPDEST SWAP2 POP PUSH2 0xCD3 DUP4 PUSH2 0x9E7 JUMP JUMPDEST SWAP3 POP DUP3 DUP3 SUB SWAP1 POP PUSH1 0xFF DUP2 GT ISZERO PUSH2 0xCEC JUMPI PUSH2 0xCEB PUSH2 0xB18 JUMP JUMPDEST JUMPDEST SWAP3 SWAP2 POP POP JUMP JUMPDEST PUSH1 0x80 MLOAD PUSH1 0xA0 MLOAD PUSH1 0xC0 MLOAD PUSH1 0xE0 MLOAD PUSH2 0x100 MLOAD PUSH2 0x120 MLOAD PUSH2 0x140 MLOAD PUSH2 0x3487 PUSH2 0xDDE PUSH0 CODECOPY PUSH0 DUP2 DUP2 PUSH2 0xA50 ADD MSTORE DUP2 DUP2 PUSH2 0xB79 ADD MSTORE DUP2 DUP2 PUSH2 0xD04 ADD MSTORE PUSH2 0x1B35 ADD MSTORE PUSH0 DUP2 DUP2 PUSH2 0x1BE4 ADD MSTORE DUP2 DUP2 PUSH2 0x1C8E ADD MSTORE DUP2 DUP2 PUSH2 0x1DA1 ADD MSTORE DUP2 DUP2 PUSH2 0x1DE3 ADD MSTORE PUSH2 0x20CE ADD MSTORE PUSH0 DUP2 DUP2 PUSH2 0xB58 ADD MSTORE DUP2 DUP2 PUSH2 0x1B6E ADD MSTORE DUP2 DUP2 PUSH2 0x1C16 ADD MSTORE DUP2 DUP2 PUSH2 0x1C62 ADD MSTORE DUP2 DUP2 PUSH2 0x1D79 ADD MSTORE PUSH2 0x1E14 ADD MSTORE PUSH0 POP POP PUSH0 POP POP PUSH0 DUP2 DUP2 PUSH2 0x4B2 ADD MSTORE DUP2 DUP2 PUSH2 0x79D ADD MSTORE DUP2 DUP2 PUSH2 0x9BA ADD MSTORE DUP2 DUP2 PUSH2 0xBFE ADD MSTORE DUP2 DUP2 PUSH2 0x1135 ADD MSTORE DUP2 DUP2 PUSH2 0x1422 ADD MSTORE PUSH2 0x1A9F ADD MSTORE PUSH0 DUP2 DUP2 PUSH2 0x50E ADD MSTORE DUP2 DUP2 PUSH2 0x756 ADD MSTORE DUP2 DUP2 PUSH2 0x105C ADD MSTORE DUP2 DUP2 PUSH2 0x11C2 ADD MSTORE DUP2 DUP2 PUSH2 0x16C0 ADD MSTORE PUSH2 0x20EF ADD MSTORE PUSH2 0x3487 PUSH0 RETURN INVALID PUSH1 0x80 PUSH1 0x40 MSTORE CALLVALUE DUP1 ISZERO PUSH2 0xF JUMPI PUSH0 PUSH0 REVERT JUMPDEST POP PUSH1 0x4 CALLDATASIZE LT PUSH2 0x18C JUMPI PUSH0 CALLDATALOAD PUSH1 0xE0 SHR DUP1 PUSH4 0x7DC0D1D0 GT PUSH2 0xDC JUMPI DUP1 PUSH4 0xB3E089A2 GT PUSH2 0x95 JUMPI DUP1 PUSH4 0xC40D111C GT PUSH2 0x6F JUMPI DUP1 PUSH4 0xC40D111C EQ PUSH2 0x42B JUMPI DUP1 PUSH4 0xCCB99C26 EQ PUSH2 0x45C JUMPI DUP1 PUSH4 0xCD3B691C EQ PUSH2 0x478 JUMPI DUP1 PUSH4 0xF2FDE38B EQ PUSH2 0x494 JUMPI PUSH2 0x18C JUMP JUMPDEST DUP1 PUSH4 0xB3E089A2 EQ PUSH2 0x3D5 JUMPI DUP1 PUSH4 0xB6935501 EQ PUSH2 0x3F1 JUMPI DUP1 PUSH4 0xBC34E6DA EQ PUSH2 0x40D JUMPI PUSH2 0x18C JUMP JUMPDEST DUP1 PUSH4 0x7DC0D1D0 EQ PUSH2 0x323 JUMPI DUP1 PUSH4 0x7E4831D3 EQ PUSH2 0x341 JUMPI DUP1 PUSH4 0x8DA5CB5B EQ PUSH2 0x35F JUMPI DUP1 PUSH4 0x8E827CB5 EQ PUSH2 0x37D JUMPI DUP1 PUSH4 0xAA2F892D EQ PUSH2 0x39B JUMPI DUP1 PUSH4 0xB235D468 EQ PUSH2 0x3B7 JUMPI PUSH2 0x18C JUMP JUMPDEST DUP1 PUSH4 0x52F1EDCC GT PUSH2 0x149 JUMPI DUP1 PUSH4 0x715018A6 GT PUSH2 0x123 JUMPI DUP1 PUSH4 0x715018A6 EQ PUSH2 0x2C2 JUMPI DUP1 PUSH4 0x72B823C3 EQ PUSH2 0x2CC JUMPI DUP1 PUSH4 0x7ADBF973 EQ PUSH2 0x2D6 JUMPI DUP1 PUSH4 0x7CBC2373 EQ PUSH2 0x2F2 JUMPI PUSH2 0x18C JUMP JUMPDEST DUP1 PUSH4 0x52F1EDCC EQ PUSH2 0x26A JUMPI DUP1 PUSH4 0x55CC4E57 EQ PUSH2 0x288 JUMPI DUP1 PUSH4 0x675A5C0B EQ PUSH2 0x2A4 JUMPI PUSH2 0x18C JUMP JUMPDEST DUP1 PUSH4 0xC5BF351 EQ PUSH2 0x190 JUMPI DUP1 PUSH4 0x158EF93E EQ PUSH2 0x1AE JUMPI DUP1 PUSH4 0x1D143848 EQ PUSH2 0x1CC JUMPI DUP1 PUSH4 0x3E413BEE EQ PUSH2 0x1EA JUMPI DUP1 PUSH4 0x47082DAC EQ PUSH2 0x208 JUMPI DUP1 PUSH4 0x4CDAD506 EQ PUSH2 0x239 JUMPI JUMPDEST PUSH0 PUSH0 REVERT JUMPDEST PUSH2 0x198 PUSH2 0x4B0 JUMP JUMPDEST PUSH1 0x40 MLOAD PUSH2 0x1A5 SWAP2 SWAP1 PUSH2 0x2441 JUMP JUMPDEST PUSH1 0x40 MLOAD DUP1 SWAP2 SUB SWAP1 RETURN JUMPDEST PUSH2 0x1B6 PUSH2 0x4D4 JUMP JUMPDEST PUSH1 0x40 MLOAD PUSH2 0x1C3 SWAP2 SWAP1 PUSH2 0x2474 JUMP JUMPDEST PUSH1 0x40 MLOAD DUP1 SWAP2 SUB SWAP1 RETURN JUMPDEST PUSH2 0x1D4 PUSH2 0x4E7 JUMP JUMPDEST PUSH1 0x40 MLOAD PUSH2 0x1E1 SWAP2 SWAP1 PUSH2 0x24AD JUMP JUMPDEST PUSH1 0x40 MLOAD DUP1 SWAP2 SUB SWAP1 RETURN JUMPDEST PUSH2 0x1F2 PUSH2 0x50C JUMP JUMPDEST PUSH1 0x40 MLOAD PUSH2 0x1FF SWAP2 SWAP1 PUSH2 0x24E6 JUMP JUMPDEST PUSH1 0x40 MLOAD DUP1 SWAP2 SUB SWAP1 RETURN JUMPDEST PUSH2 0x222 PUSH1 0x4 DUP1 CALLDATASIZE SUB DUP2 ADD SWAP1 PUSH2 0x21D SWAP2 SWAP1 PUSH2 0x253F JUMP JUMPDEST PUSH2 0x530 JUMP JUMPDEST PUSH1 0x40 MLOAD PUSH2 0x230 SWAP3 SWAP2 SWAP1 PUSH2 0x258C JUMP JUMPDEST PUSH1 0x40 MLOAD DUP1 SWAP2 SUB SWAP1 RETURN JUMPDEST PUSH2 0x253 PUSH1 0x4 DUP1 CALLDATASIZE SUB DUP2 ADD SWAP1 PUSH2 0x24E SWAP2 SWAP1 PUSH2 0x25B3 JUMP JUMPDEST PUSH2 0x886 JUMP JUMPDEST PUSH1 0x40 MLOAD PUSH2 0x261 SWAP3 SWAP2 SWAP1 PUSH2 0x258C JUMP JUMPDEST PUSH1 0x40 MLOAD DUP1 SWAP2 SUB SWAP1 RETURN JUMPDEST PUSH2 0x272 PUSH2 0x8B4 JUMP JUMPDEST PUSH1 0x40 MLOAD PUSH2 0x27F SWAP2 SWAP1 PUSH2 0x25DE JUMP JUMPDEST PUSH1 0x40 MLOAD DUP1 SWAP2 SUB SWAP1 RETURN JUMPDEST PUSH2 0x2A2 PUSH1 0x4 DUP1 CALLDATASIZE SUB DUP2 ADD SWAP1 PUSH2 0x29D SWAP2 SWAP1 PUSH2 0x2621 JUMP JUMPDEST PUSH2 0x8BA JUMP JUMPDEST STOP JUMPDEST PUSH2 0x2AC PUSH2 0x9B6 JUMP JUMPDEST PUSH1 0x40 MLOAD PUSH2 0x2B9 SWAP2 SWAP1 PUSH2 0x25DE JUMP JUMPDEST PUSH1 0x40 MLOAD DUP1 SWAP2 SUB SWAP1 RETURN JUMPDEST PUSH2 0x2CA PUSH2 0xA93 JUMP JUMPDEST STOP JUMPDEST PUSH2 0x2D4 PUSH2 0xAA6 JUMP JUMPDEST STOP JUMPDEST PUSH2 0x2F0 PUSH1 0x4 DUP1 CALLDATASIZE SUB DUP2 ADD SWAP1 PUSH2 0x2EB SWAP2 SWAP1 PUSH2 0x2621 JUMP JUMPDEST PUSH2 0xD3F JUMP JUMPDEST STOP JUMPDEST PUSH2 0x30C PUSH1 0x4 DUP1 CALLDATASIZE SUB DUP2 ADD SWAP1 PUSH2 0x307 SWAP2 SWAP1 PUSH2 0x253F JUMP JUMPDEST PUSH2 0xE3B JUMP JUMPDEST PUSH1 0x40 MLOAD PUSH2 0x31A SWAP3 SWAP2 SWAP1 PUSH2 0x258C JUMP JUMPDEST PUSH1 0x40 MLOAD DUP1 SWAP2 SUB SWAP1 RETURN JUMPDEST PUSH2 0x32B PUSH2 0x1269 JUMP JUMPDEST PUSH1 0x40 MLOAD PUSH2 0x338 SWAP2 SWAP1 PUSH2 0x266C JUMP JUMPDEST PUSH1 0x40 MLOAD DUP1 SWAP2 SUB SWAP1 RETURN JUMPDEST PUSH2 0x349 PUSH2 0x128E JUMP JUMPDEST PUSH1 0x40 MLOAD PUSH2 0x356 SWAP2 SWAP1 PUSH2 0x2474 JUMP JUMPDEST PUSH1 0x40 MLOAD DUP1 SWAP2 SUB SWAP1 RETURN JUMPDEST PUSH2 0x367 PUSH2 0x12A1 JUMP JUMPDEST PUSH1 0x40 MLOAD PUSH2 0x374 SWAP2 SWAP1 PUSH2 0x24AD JUMP JUMPDEST PUSH1 0x40 MLOAD DUP1 SWAP2 SUB SWAP1 RETURN JUMPDEST PUSH2 0x385 PUSH2 0x12C8 JUMP JUMPDEST PUSH1 0x40 MLOAD PUSH2 0x392 SWAP2 SWAP1 PUSH2 0x25DE JUMP JUMPDEST PUSH1 0x40 MLOAD DUP1 SWAP2 SUB SWAP1 RETURN JUMPDEST PUSH2 0x3B5 PUSH1 0x4 DUP1 CALLDATASIZE SUB DUP2 ADD SWAP1 PUSH2 0x3B0 SWAP2 SWAP1 PUSH2 0x25B3 JUMP JUMPDEST PUSH2 0x12E3 JUMP JUMPDEST STOP JUMPDEST PUSH2 0x3BF PUSH2 0x1552 JUMP JUMPDEST PUSH1 0x40 MLOAD PUSH2 0x3CC SWAP2 SWAP1 PUSH2 0x2474 JUMP JUMPDEST PUSH1 0x40 MLOAD DUP1 SWAP2 SUB SWAP1 RETURN JUMPDEST PUSH2 0x3EF PUSH1 0x4 DUP1 CALLDATASIZE SUB DUP2 ADD SWAP1 PUSH2 0x3EA SWAP2 SWAP1 PUSH2 0x2621 JUMP JUMPDEST PUSH2 0x1565 JUMP JUMPDEST STOP JUMPDEST PUSH2 0x40B PUSH1 0x4 DUP1 CALLDATASIZE SUB DUP2 ADD SWAP1 PUSH2 0x406 SWAP2 SWAP1 PUSH2 0x26AF JUMP JUMPDEST PUSH2 0x1661 JUMP JUMPDEST STOP JUMPDEST PUSH2 0x415 PUSH2 0x16BD JUMP JUMPDEST PUSH1 0x40 MLOAD PUSH2 0x422 SWAP2 SWAP1 PUSH2 0x25DE JUMP JUMPDEST PUSH1 0x40 MLOAD DUP1 SWAP2 SUB SWAP1 RETURN JUMPDEST PUSH2 0x445 PUSH1 0x4 DUP1 CALLDATASIZE SUB DUP2 ADD SWAP1 PUSH2 0x440 SWAP2 SWAP1 PUSH2 0x25B3 JUMP JUMPDEST PUSH2 0x175B JUMP JUMPDEST PUSH1 0x40 MLOAD PUSH2 0x453 SWAP3 SWAP2 SWAP1 PUSH2 0x258C JUMP JUMPDEST PUSH1 0x40 MLOAD DUP1 SWAP2 SUB SWAP1 RETURN JUMPDEST PUSH2 0x476 PUSH1 0x4 DUP1 CALLDATASIZE SUB DUP2 ADD SWAP1 PUSH2 0x471 SWAP2 SWAP1 PUSH2 0x26AF JUMP JUMPDEST PUSH2 0x1789 JUMP JUMPDEST STOP JUMPDEST PUSH2 0x492 PUSH1 0x4 DUP1 CALLDATASIZE SUB DUP2 ADD SWAP1 PUSH2 0x48D SWAP2 SWAP1 PUSH2 0x25B3 JUMP JUMPDEST PUSH2 0x17E5 JUMP JUMPDEST STOP JUMPDEST PUSH2 0x4AE PUSH1 0x4 DUP1 CALLDATASIZE SUB DUP2 ADD SWAP1 PUSH2 0x4A9 SWAP2 SWAP1 PUSH2 0x2621 JUMP JUMPDEST PUSH2 0x1870 JUMP JUMPDEST STOP JUMPDEST PUSH32 0x0 DUP2 JUMP JUMPDEST PUSH1 0x2 PUSH1 0x14 SWAP1 SLOAD SWAP1 PUSH2 0x100 EXP SWAP1 DIV PUSH1 0xFF AND DUP2 JUMP JUMPDEST PUSH1 0x2 PUSH0 SWAP1 SLOAD SWAP1 PUSH2 0x100 EXP SWAP1 DIV PUSH20 0xFFFFFFFFFFFFFFFFFFFFFFFFFFFFFFFFFFFFFFFF AND DUP2 JUMP JUMPDEST PUSH32 0x0 DUP2 JUMP JUMPDEST PUSH0 PUSH0 PUSH2 0x53A PUSH2 0x18F4 JUMP JUMPDEST PUSH1 0x2 PUSH1 0x14 SWAP1 SLOAD SWAP1 PUSH2 0x100 EXP SWAP1 DIV PUSH1 0xFF AND PUSH2 0x589 JUMPI PUSH1 0x40 MLOAD PUSH32 0x8C379A000000000000000000000000000000000000000000000000000000000 DUP2 MSTORE PUSH1 0x4 ADD PUSH2 0x580 SWAP1 PUSH2 0x2734 JUMP JUMPDEST PUSH1 0x40 MLOAD DUP1 SWAP2 SUB SWAP1 REVERT JUMPDEST PUSH1 0x2 PUSH1 0x15 SWAP1 SLOAD SWAP1 PUSH2 0x100 EXP SWAP1 DIV PUSH1 0xFF AND ISZERO PUSH2 0x5D9 JUMPI PUSH1 0x40 MLOAD PUSH32 0x8C379A000000000000000000000000000000000000000000000000000000000 DUP2 MSTORE PUSH1 0x4 ADD PUSH2 0x5D0 SWAP1 PUSH2 0x279C JUMP JUMPDEST PUSH1 0x40 MLOAD DUP1 SWAP2 SUB SWAP1 REVERT JUMPDEST PUSH0 DUP5 GT PUSH2 0x61B JUMPI PUSH1 0x40 MLOAD PUSH32 0x8C379A000000000000000000000000000000000000000000000000000000000 DUP2 MSTORE PUSH1 0x4 ADD PUSH2 0x612 SWAP1 PUSH2 0x2804 JUMP JUMPDEST PUSH1 0x40 MLOAD DUP1 SWAP2 SUB SWAP1 REVERT JUMPDEST PUSH0 PUSH2 0x624 PUSH2 0x1916 JUMP JUMPDEST SWAP1 POP PUSH0 PUSH2 0x630 DUP3 PUSH2 0x1A9B JUMP JUMPDEST SWAP1 POP PUSH2 0x63C DUP7 DUP3 PUSH2 0x1B9D JUMP JUMPDEST DUP1 SWAP5 POP DUP2 SWAP6 POP POP POP PUSH0 DUP5 GT PUSH2 0x686 JUMPI PUSH1 0x40 MLOAD PUSH32 0x8C379A000000000000000000000000000000000000000000000000000000000 DUP2 MSTORE PUSH1 0x4 ADD PUSH2 0x67D SWAP1 PUSH2 0x286C JUMP JUMPDEST PUSH1 0x40 MLOAD DUP1 SWAP2 SUB SWAP1 REVERT JUMPDEST DUP5 DUP5 LT ISZERO PUSH2 0x6C9 JUMPI PUSH1 0x40 MLOAD PUSH32 0x8C379A000000000000000000000000000000000000000000000000000000000 DUP2 MSTORE PUSH1 0x4 ADD PUSH2 0x6C0 SWAP1 PUSH2 0x28D4 JUMP JUMPDEST PUSH1 0x40 MLOAD DUP1 SWAP2 SUB SWAP1 REVERT JUMPDEST PUSH0 DUP4 GT PUSH2 0x70B JUMPI PUSH1 0x40 MLOAD PUSH32 0x8C379A000000000000000000000000000000000000000000000000000000000 DUP2 MSTORE PUSH1 0x4 ADD PUSH2 0x702 SWAP1 PUSH2 0x293C JUMP JUMPDEST PUSH1 0x40 MLOAD DUP1 SWAP2 SUB SWAP1 REVERT JUMPDEST DUP6 DUP4 GT ISZERO PUSH2 0x74E JUMPI PUSH1 0x40 MLOAD PUSH32 0x8C379A000000000000000000000000000000000000000000000000000000000 DUP2 MSTORE PUSH1 0x4 ADD PUSH2 0x745 SWAP1 PUSH2 0x29A4 JUMP JUMPDEST PUSH1 0x40 MLOAD DUP1 SWAP2 SUB SWAP1 REVERT JUMPDEST PUSH2 0x79B CALLER ADDRESS DUP6 PUSH32 0x0 PUSH20 0xFFFFFFFFFFFFFFFFFFFFFFFFFFFFFFFFFFFFFFFF AND PUSH2 0x1CBE SWAP1 SWAP4 SWAP3 SWAP2 SWAP1 PUSH4 0xFFFFFFFF AND JUMP JUMPDEST PUSH32 0x0 PUSH20 0xFFFFFFFFFFFFFFFFFFFFFFFFFFFFFFFFFFFFFFFF AND PUSH4 0x40C10F19 CALLER DUP7 PUSH1 0x40 MLOAD DUP4 PUSH4 0xFFFFFFFF AND PUSH1 0xE0 SHL DUP2 MSTORE PUSH1 0x4 ADD PUSH2 0x7F6 SWAP3 SWAP2 SWAP1 PUSH2 0x29C2 JUMP JUMPDEST PUSH0 PUSH1 0x40 MLOAD DUP1 DUP4 SUB DUP2 PUSH0 DUP8 DUP1 EXTCODESIZE ISZERO DUP1 ISZERO PUSH2 0x80D JUMPI PUSH0 PUSH0 REVERT JUMPDEST POP GAS CALL ISZERO DUP1 ISZERO PUSH2 0x81F JUMPI RETURNDATASIZE PUSH0 PUSH0 RETURNDATACOPY RETURNDATASIZE PUSH0 REVERT JUMPDEST POP POP POP POP CALLER PUSH20 0xFFFFFFFFFFFFFFFFFFFFFFFFFFFFFFFFFFFFFFFF AND PUSH32 0x5A3358A3D27A5373C0DF2604662088D37894D56B7CFD27F315770440F4E0D919 DUP5 DUP4 DUP8 PUSH1 0x40 MLOAD PUSH2 0x86D SWAP4 SWAP3 SWAP2 SWAP1 PUSH2 0x29E9 JUMP JUMPDEST PUSH1 0x40 MLOAD DUP1 SWAP2 SUB SWAP1 LOG2 POP POP PUSH2 0x87F PUSH2 0x1D13 JUMP JUMPDEST SWAP3 POP SWAP3 SWAP1 POP JUMP JUMPDEST PUSH0 PUSH0 PUSH0 PUSH2 0x891 PUSH2 0x1916 JUMP JUMPDEST SWAP1 POP PUSH0 PUSH2 0x89D DUP3 PUSH2 0x1A9B JUMP JUMPDEST SWAP1 POP PUSH2 0x8A9 DUP6 DUP3 PUSH2 0x1D2D JUMP JUMPDEST SWAP4 POP SWAP4 POP POP POP SWAP2 POP SWAP2 JUMP JUMPDEST PUSH1 0x3 SLOAD DUP2 JUMP JUMPDEST PUSH2 0x8C2 PUSH2 0x1E50 JUMP JUMPDEST PUSH0 PUSH20 0xFFFFFFFFFFFFFFFFFFFFFFFFFFFFFFFFFFFFFFFF AND DUP2 PUSH20 0xFFFFFFFFFFFFFFFFFFFFFFFFFFFFFFFFFFFFFFFF AND SUB PUSH2 0x930 JUMPI PUSH1 0x40 MLOAD PUSH32 0x8C379A000000000000000000000000000000000000000000000000000000000 DUP2 MSTORE PUSH1 0x4 ADD PUSH2 0x927 SWAP1 PUSH2 0x2A68 JUMP JUMPDEST PUSH1 0x40 MLOAD DUP1 SWAP2 SUB SWAP1 REVERT JUMPDEST DUP1 PUSH1 0x2 PUSH0 PUSH2 0x100 EXP DUP2 SLOAD DUP2 PUSH20 0xFFFFFFFFFFFFFFFFFFFFFFFFFFFFFFFFFFFFFFFF MUL NOT AND SWAP1 DUP4 PUSH20 0xFFFFFFFFFFFFFFFFFFFFFFFFFFFFFFFFFFFFFFFF AND MUL OR SWAP1 SSTORE POP DUP1 PUSH20 0xFFFFFFFFFFFFFFFFFFFFFFFFFFFFFFFFFFFFFFFF AND PUSH32 0x141C634522C8BFCF25BEBA4C524AC0C87DE0DB74EBE83168CF5F3BF4D45FD898 PUSH1 0x40 MLOAD PUSH1 0x40 MLOAD DUP1 SWAP2 SUB SWAP1 LOG2 POP JUMP JUMPDEST PUSH0 PUSH0 PUSH32 0x0 PUSH20 0xFFFFFFFFFFFFFFFFFFFFFFFFFFFFFFFFFFFFFFFF AND PUSH4 0x18160DDD PUSH1 0x40 MLOAD DUP2 PUSH4 0xFFFFFFFF AND PUSH1 0xE0 SHL DUP2 MSTORE PUSH1 0x4 ADD PUSH1 0x20 PUSH1 0x40 MLOAD DUP1 DUP4 SUB DUP2 DUP7 GAS STATICCALL ISZERO DUP1 ISZERO PUSH2 0xA21 JUMPI RETURNDATASIZE PUSH0 PUSH0 RETURNDATACOPY RETURNDATASIZE PUSH0 REVERT JUMPDEST POP POP POP POP PUSH1 0x40 MLOAD RETURNDATASIZE PUSH1 0x1F NOT PUSH1 0x1F DUP3 ADD AND DUP3 ADD DUP1 PUSH1 0x40 MSTORE POP DUP2 ADD SWAP1 PUSH2 0xA45 SWAP2 SWAP1 PUSH2 0x2A9A JUMP JUMPDEST SWAP1 POP PUSH0 DUP2 SUB PUSH2 0xA77 JUMPI PUSH32 0x0 SWAP2 POP POP PUSH2 0xA90 JUMP JUMPDEST PUSH0 PUSH2 0xA80 PUSH2 0x1916 JUMP JUMPDEST SWAP1 POP PUSH2 0xA8B DUP2 PUSH2 0x1A9B JUMP JUMPDEST SWAP3 POP POP POP JUMPDEST SWAP1 JUMP JUMPDEST PUSH2 0xA9B PUSH2 0x1E50 JUMP JUMPDEST PUSH2 0xAA4 PUSH0 PUSH2 0x1ED7 JUMP JUMPDEST JUMP JUMPDEST PUSH2 0xAAE PUSH2 0x1E50 JUMP JUMPDEST PUSH1 0x2 PUSH1 0x14 SWAP1 SLOAD SWAP1 PUSH2 0x100 EXP SWAP1 DIV PUSH1 0xFF AND ISZERO PUSH2 0xAFE JUMPI PUSH1 0x40 MLOAD PUSH32 0x8C379A000000000000000000000000000000000000000000000000000000000 DUP2 MSTORE PUSH1 0x4 ADD PUSH2 0xAF5 SWAP1 PUSH2 0x2B0F JUMP JUMPDEST PUSH1 0x40 MLOAD DUP1 SWAP2 SUB SWAP1 REVERT JUMPDEST PUSH0 PUSH2 0xB07 PUSH2 0x1916 JUMP JUMPDEST SWAP1 POP PUSH0 DUP2 PUSH0 ADD MLOAD GT PUSH2 0xB4E JUMPI PUSH1 0x40 MLOAD PUSH32 0x8C379A000000000000000000000000000000000000000000000000000000000 DUP2 MSTORE PUSH1 0x4 ADD PUSH2 0xB45 SWAP1 PUSH2 0x2B77 JUMP JUMPDEST PUSH1 0x40 MLOAD DUP1 SWAP2 SUB SWAP1 REVERT JUMPDEST PUSH0 PUSH2 0xB9D DUP3 PUSH0 ADD MLOAD PUSH32 0x0 PUSH32 0x0 PUSH2 0x1F98 JUMP JUMPDEST SWAP1 POP PUSH0 DUP2 GT PUSH2 0xBE1 JUMPI PUSH1 0x40 MLOAD PUSH32 0x8C379A000000000000000000000000000000000000000000000000000000000 DUP2 MSTORE PUSH1 0x4 ADD PUSH2 0xBD8 SWAP1 PUSH2 0x2BDF JUMP JUMPDEST PUSH1 0x40 MLOAD DUP1 SWAP2 SUB SWAP1 REVERT JUMPDEST PUSH1 0x1 PUSH1 0x2 PUSH1 0x14 PUSH2 0x100 EXP DUP2 SLOAD DUP2 PUSH1 0xFF MUL NOT AND SWAP1 DUP4 ISZERO ISZERO MUL OR SWAP1 SSTORE POP PUSH32 0x0 PUSH20 0xFFFFFFFFFFFFFFFFFFFFFFFFFFFFFFFFFFFFFFFF AND PUSH4 0x40C10F19 PUSH1 0x2 PUSH0 SWAP1 SLOAD SWAP1 PUSH2 0x100 EXP SWAP1 DIV PUSH20 0xFFFFFFFFFFFFFFFFFFFFFFFFFFFFFFFFFFFFFFFF AND DUP4 PUSH1 0x40 MLOAD DUP4 PUSH4 0xFFFFFFFF AND PUSH1 0xE0 SHL DUP2 MSTORE PUSH1 0x4 ADD PUSH2 0xC78 SWAP3 SWAP2 SWAP1 PUSH2 0x29C2 JUMP JUMPDEST PUSH0 PUSH1 0x40 MLOAD DUP1 DUP4 SUB DUP2 PUSH0 DUP8 DUP1 EXTCODESIZE ISZERO DUP1 ISZERO PUSH2 0xC8F JUMPI PUSH0 PUSH0 REVERT JUMPDEST POP GAS CALL ISZERO DUP1 ISZERO PUSH2 0xCA1 JUMPI RETURNDATASIZE PUSH0 PUSH0 RETURNDATACOPY RETURNDATASIZE PUSH0 REVERT JUMPDEST POP POP POP POP PUSH1 0x2 PUSH0 SWAP1 SLOAD SWAP1 PUSH2 0x100 EXP SWAP1 DIV PUSH20 0xFFFFFFFFFFFFFFFFFFFFFFFFFFFFFFFFFFFFFFFF AND PUSH20 0xFFFFFFFFFFFFFFFFFFFFFFFFFFFFFFFFFFFFFFFF AND PUSH32 0x7DAA9E69E51AAE98674A933164CA91B034CB5856823C3EA6A98065BA29E97283 DUP4 PUSH0 ADD MLOAD PUSH32 0x0 DUP5 PUSH1 0x40 MLOAD PUSH2 0xD33 SWAP4 SWAP3 SWAP2 SWAP1 PUSH2 0x29E9 JUMP JUMPDEST PUSH1 0x40 MLOAD DUP1 SWAP2 SUB SWAP1 LOG2 POP POP JUMP JUMPDEST PUSH2 0xD47 PUSH2 0x1E50 JUMP JUMPDEST PUSH0 PUSH20 0xFFFFFFFFFFFFFFFFFFFFFFFFFFFFFFFFFFFFFFFF AND DUP2 PUSH20 0xFFFFFFFFFFFFFFFFFFFFFFFFFFFFFFFFFFFFFFFF AND SUB PUSH2 0xDB5 JUMPI PUSH1 0x40 MLOAD PUSH32 0x8C379A000000000000000000000000000000000000000000000000000000000 DUP2 MSTORE PUSH1 0x4 ADD PUSH2 0xDAC SWAP1 PUSH2 0x2C47 JUMP JUMPDEST PUSH1 0x40 MLOAD DUP1 SWAP2 SUB SWAP1 REVERT JUMPDEST DUP1 PUSH1 0x1 PUSH0 PUSH2 0x100 EXP DUP2 SLOAD DUP2 PUSH20 0xFFFFFFFFFFFFFFFFFFFFFFFFFFFFFFFFFFFFFFFF MUL NOT AND SWAP1 DUP4 PUSH20 0xFFFFFFFFFFFFFFFFFFFFFFFFFFFFFFFFFFFFFFFF AND MUL OR SWAP1 SSTORE POP DUP1 PUSH20 0xFFFFFFFFFFFFFFFFFFFFFFFFFFFFFFFFFFFFFFFF AND PUSH32 0x3F32684A32A11DABDBB8C0177DE80AA3AE36A004D75210335B49E544E48CD0AA PUSH1 0x40 MLOAD PUSH1 0x40 MLOAD DUP1 SWAP2 SUB SWAP1 LOG2 POP JUMP JUMPDEST PUSH0 PUSH0 PUSH2 0xE45 PUSH2 0x18F4 JUMP JUMPDEST PUSH1 0x2 PUSH1 0x14 SWAP1 SLOAD SWAP1 PUSH2 0x100 EXP SWAP1 DIV PUSH1 0xFF AND PUSH2 0xE94 JUMPI PUSH1 0x40 MLOAD PUSH32 0x8C379A000000000000000000000000000000000000000000000000000000000 DUP2 MSTORE PUSH1 0x4 ADD PUSH2 0xE8B SWAP1 PUSH2 0x2734 JUMP JUMPDEST PUSH1 0x40 MLOAD DUP1 SWAP2 SUB SWAP1 REVERT JUMPDEST PUSH1 0x2 PUSH1 0x16 SWAP1 SLOAD SWAP1 PUSH2 0x100 EXP SWAP1 DIV PUSH1 0xFF AND ISZERO PUSH2 0xEE4 JUMPI PUSH1 0x40 MLOAD PUSH32 0x8C379A000000000000000000000000000000000000000000000000000000000 DUP2 MSTORE PUSH1 0x4 ADD PUSH2 0xEDB SWAP1 PUSH2 0x2CAF JUMP JUMPDEST PUSH1 0x40 MLOAD DUP1 SWAP2 SUB SWAP1 REVERT JUMPDEST PUSH0 DUP5 GT PUSH2 0xF26 JUMPI PUSH1 0x40 MLOAD PUSH32 0x8C379A000000000000000000000000000000000000000000000000000000000 DUP2 MSTORE PUSH1 0x4 ADD PUSH2 0xF1D SWAP1 PUSH2 0x2D17 JUMP JUMPDEST PUSH1 0x40 MLOAD DUP1 SWAP2 SUB SWAP1 REVERT JUMPDEST PUSH0 PUSH2 0xF2F PUSH2 0x1916 JUMP JUMPDEST SWAP1 POP PUSH0 PUSH2 0xF3B DUP3 PUSH2 0x1A9B JUMP JUMPDEST SWAP1 POP PUSH2 0xF47 DUP7 DUP3 PUSH2 0x1D2D JUMP JUMPDEST DUP1 SWAP5 POP DUP2 SWAP6 POP POP POP PUSH0 DUP5 GT PUSH2 0xF91 JUMPI PUSH1 0x40 MLOAD PUSH32 0x8C379A000000000000000000000000000000000000000000000000000000000 DUP2 MSTORE PUSH1 0x4 ADD PUSH2 0xF88 SWAP1 PUSH2 0x2D7F JUMP JUMPDEST PUSH1 0x40 MLOAD DUP1 SWAP2 SUB SWAP1 REVERT JUMPDEST DUP6 DUP5 GT ISZERO PUSH2 0xFD4 JUMPI PUSH1 0x40 MLOAD PUSH32 0x8C379A000000000000000000000000000000000000000000000000000000000 DUP2 MSTORE PUSH1 0x4 ADD PUSH2 0xFCB SWAP1 PUSH2 0x2DE7 JUMP JUMPDEST PUSH1 0x40 MLOAD DUP1 SWAP2 SUB SWAP1 REVERT JUMPDEST PUSH0 DUP4 GT PUSH2 0x1016 JUMPI PUSH1 0x40 MLOAD PUSH32 0x8C379A000000000000000000000000000000000000000000000000000000000 DUP2 MSTORE PUSH1 0x4 ADD PUSH2 0x100D SWAP1 PUSH2 0x2E4F JUMP JUMPDEST PUSH1 0x40 MLOAD DUP1 SWAP2 SUB SWAP1 REVERT JUMPDEST DUP5 DUP4 LT ISZERO PUSH2 0x1059 JUMPI PUSH1 0x40 MLOAD PUSH32 0x8C379A000000000000000000000000000000000000000000000000000000000 DUP2 MSTORE PUSH1 0x4 ADD PUSH2 0x1050 SWAP1 PUSH2 0x2EB7 JUMP JUMPDEST PUSH1 0x40 MLOAD DUP1 SWAP2 SUB SWAP1 REVERT JUMPDEST DUP3 PUSH32 0x0 PUSH20 0xFFFFFFFFFFFFFFFFFFFFFFFFFFFFFFFFFFFFFFFF AND PUSH4 0x70A08231 ADDRESS PUSH1 0x40 MLOAD DUP3 PUSH4 0xFFFFFFFF AND PUSH1 0xE0 SHL DUP2 MSTORE PUSH1 0x4 ADD PUSH2 0x10B3 SWAP2 SWAP1 PUSH2 0x24AD JUMP JUMPDEST PUSH1 0x20 PUSH1 0x40 MLOAD DUP1 DUP4 SUB DUP2 DUP7 GAS STATICCALL ISZERO DUP1 ISZERO PUSH2 0x10CE JUMPI RETURNDATASIZE PUSH0 PUSH0 RETURNDATACOPY RETURNDATASIZE PUSH0 REVERT JUMPDEST POP POP POP POP PUSH1 0x40 MLOAD RETURNDATASIZE PUSH1 0x1F NOT PUSH1 0x1F DUP3 ADD AND DUP3 ADD DUP1 PUSH1 0x40 MSTORE POP DUP2 ADD SWAP1 PUSH2 0x10F2 SWAP2 SWAP1 PUSH2 0x2A9A JUMP JUMPDEST LT ISZERO PUSH2 0x1133 JUMPI PUSH1 0x40 MLOAD PUSH32 0x8C379A000000000000000000000000000000000000000000000000000000000 DUP2 MSTORE PUSH1 0x4 ADD PUSH2 0x112A SWAP1 PUSH2 0x2F1F JUMP JUMPDEST PUSH1 0x40 MLOAD DUP1 SWAP2 SUB SWAP1 REVERT JUMPDEST PUSH32 0x0 PUSH20 0xFFFFFFFFFFFFFFFFFFFFFFFFFFFFFFFFFFFFFFFF AND PUSH4 0x9DC29FAC CALLER DUP7 PUSH1 0x40 MLOAD DUP4 PUSH4 0xFFFFFFFF AND PUSH1 0xE0 SHL DUP2 MSTORE PUSH1 0x4 ADD PUSH2 0x118E SWAP3 SWAP2 SWAP1 PUSH2 0x29C2 JUMP JUMPDEST PUSH0 PUSH1 0x40 MLOAD DUP1 DUP4 SUB DUP2 PUSH0 DUP8 DUP1 EXTCODESIZE ISZERO DUP1 ISZERO PUSH2 0x11A5 JUMPI PUSH0 PUSH0 REVERT JUMPDEST POP GAS CALL ISZERO DUP1 ISZERO PUSH2 0x11B7 JUMPI RETURNDATASIZE PUSH0 PUSH0 RETURNDATACOPY RETURNDATASIZE PUSH0 REVERT JUMPDEST POP POP POP POP PUSH2 0x1206 CALLER DUP5 PUSH32 0x0 PUSH20 0xFFFFFFFFFFFFFFFFFFFFFFFFFFFFFFFFFFFFFFFF AND PUSH2 0x2077 SWAP1 SWAP3 SWAP2 SWAP1 PUSH4 0xFFFFFFFF AND JUMP JUMPDEST CALLER PUSH20 0xFFFFFFFFFFFFFFFFFFFFFFFFFFFFFFFFFFFFFFFF AND PUSH32 0x484C40561359F3E3B8BE9101897F8680AA82FBE1DF9FD9038E0DBC6284032646 DUP6 DUP4 DUP7 PUSH1 0x40 MLOAD PUSH2 0x1250 SWAP4 SWAP3 SWAP2 SWAP1 PUSH2 0x29E9 JUMP JUMPDEST PUSH1 0x40 MLOAD DUP1 SWAP2 SUB SWAP1 LOG2 POP POP PUSH2 0x1262 PUSH2 0x1D13 JUMP JUMPDEST SWAP3 POP SWAP3 SWAP1 POP JUMP JUMPDEST PUSH1 0x1 PUSH0 SWAP1 SLOAD SWAP1 PUSH2 0x100 EXP SWAP1 DIV PUSH20 0xFFFFFFFFFFFFFFFFFFFFFFFFFFFFFFFFFFFFFFFF AND DUP2 JUMP JUMPDEST PUSH1 0x2 PUSH1 0x15 SWAP1 SLOAD SWAP1 PUSH2 0x100 EXP SWAP1 DIV PUSH1 0xFF AND DUP2 JUMP JUMPDEST PUSH0 PUSH0 PUSH0 SWAP1 SLOAD SWAP1 PUSH2 0x100 EXP SWAP1 DIV PUSH20 0xFFFFFFFFFFFFFFFFFFFFFFFFFFFFFFFFFFFFFFFF AND SWAP1 POP SWAP1 JUMP JUMPDEST PUSH0 PUSH0 PUSH2 0x12D2 PUSH2 0x1916 JUMP JUMPDEST SWAP1 POP PUSH2 0x12DD DUP2 PUSH2 0x20CA JUMP JUMPDEST SWAP2 POP POP SWAP1 JUMP JUMPDEST PUSH1 0x2 PUSH1 0x14 SWAP1 SLOAD SWAP1 PUSH2 0x100 EXP SWAP1 DIV PUSH1 0xFF AND PUSH2 0x1332 JUMPI PUSH1 0x40 MLOAD PUSH32 0x8C379A000000000000000000000000000000000000000000000000000000000 DUP2 MSTORE PUSH1 0x4 ADD PUSH2 0x1329 SWAP1 PUSH2 0x2734 JUMP JUMPDEST PUSH1 0x40 MLOAD DUP1 SWAP2 SUB SWAP1 REVERT JUMPDEST PUSH0 DUP2 GT PUSH2 0x1374 JUMPI PUSH1 0x40 MLOAD PUSH32 0x8C379A000000000000000000000000000000000000000000000000000000000 DUP2 MSTORE PUSH1 0x4 ADD PUSH2 0x136B SWAP1 PUSH2 0x2D17 JUMP JUMPDEST PUSH1 0x40 MLOAD DUP1 SWAP2 SUB SWAP1 REVERT JUMPDEST PUSH0 PUSH2 0x137D PUSH2 0x1916 JUMP JUMPDEST SWAP1 POP PUSH0 PUSH2 0x1389 DUP3 PUSH2 0x1A9B JUMP JUMPDEST SWAP1 POP PUSH0 PUSH0 PUSH2 0x1397 DUP6 DUP5 PUSH2 0x1D2D JUMP JUMPDEST SWAP2 POP SWAP2 POP PUSH0 DUP3 GT PUSH2 0x13DD JUMPI PUSH1 0x40 MLOAD PUSH32 0x8C379A000000000000000000000000000000000000000000000000000000000 DUP2 MSTORE PUSH1 0x4 ADD PUSH2 0x13D4 SWAP1 PUSH2 0x2D7F JUMP JUMPDEST PUSH1 0x40 MLOAD DUP1 SWAP2 SUB SWAP1 REVERT JUMPDEST PUSH0 DUP2 GT PUSH2 0x141F JUMPI PUSH1 0x40 MLOAD PUSH32 0x8C379A000000000000000000000000000000000000000000000000000000000 DUP2 MSTORE PUSH1 0x4 ADD PUSH2 0x1416 SWAP1 PUSH2 0x2E4F JUMP JUMPDEST PUSH1 0x40 MLOAD DUP1 SWAP2 SUB SWAP1 REVERT JUMPDEST DUP2 PUSH32 0x0 PUSH20 0xFFFFFFFFFFFFFFFFFFFFFFFFFFFFFFFFFFFFFFFF AND PUSH4 0x70A08231 CALLER PUSH1 0x40 MLOAD DUP3 PUSH4 0xFFFFFFFF AND PUSH1 0xE0 SHL DUP2 MSTORE PUSH1 0x4 ADD PUSH2 0x1479 SWAP2 SWAP1 PUSH2 0x24AD JUMP JUMPDEST PUSH1 0x20 PUSH1 0x40 MLOAD DUP1 DUP4 SUB DUP2 DUP7 GAS STATICCALL ISZERO DUP1 ISZERO PUSH2 0x1494 JUMPI RETURNDATASIZE PUSH0 PUSH0 RETURNDATACOPY RETURNDATASIZE PUSH0 REVERT JUMPDEST POP POP POP POP PUSH1 0x40 MLOAD RETURNDATASIZE PUSH1 0x1F NOT PUSH1 0x1F DUP3 ADD AND DUP3 ADD DUP1 PUSH1 0x40 MSTORE POP DUP2 ADD SWAP1 PUSH2 0x14B8 SWAP2 SWAP1 PUSH2 0x2A9A JUMP JUMPDEST LT ISZERO PUSH2 0x14F9 JUMPI PUSH1 0x40 MLOAD PUSH32 0x8C379A000000000000000000000000000000000000000000000000000000000 DUP2 MSTORE PUSH1 0x4 ADD PUSH2 0x14F0 SWAP1 PUSH2 0x2F87 JUMP JUMPDEST PUSH1 0x40 MLOAD DUP1 SWAP2 SUB SWAP1 REVERT JUMPDEST CALLER PUSH20 0xFFFFFFFFFFFFFFFFFFFFFFFFFFFFFFFFFFFFFFFF AND PUSH32 0x5952C21AB4E64F9CE2D0DAF53A8286DA3C634EAB5A86CCDF38EBEFC3087EA301 DUP4 DUP6 DUP5 PUSH1 0x40 MLOAD PUSH2 0x1543 SWAP4 SWAP3 SWAP2 SWAP1 PUSH2 0x29E9 JUMP JUMPDEST PUSH1 0x40 MLOAD DUP1 SWAP2 SUB SWAP1 LOG2 POP POP POP POP POP JUMP JUMPDEST PUSH1 0x2 PUSH1 0x16 SWAP1 SLOAD SWAP1 PUSH2 0x100 EXP SWAP1 DIV PUSH1 0xFF AND DUP2 JUMP JUMPDEST PUSH2 0x156D PUSH2 0x1E50 JUMP JUMPDEST PUSH0 PUSH20 0xFFFFFFFFFFFFFFFFFFFFFFFFFFFFFFFFFFFFFFFF AND DUP2 PUSH20 0xFFFFFFFFFFFFFFFFFFFFFFFFFFFFFFFFFFFFFFFF AND SUB PUSH2 0x15DB JUMPI PUSH1 0x40 MLOAD PUSH32 0x8C379A000000000000000000000000000000000000000000000000000000000 DUP2 MSTORE PUSH1 0x4 ADD PUSH2 0x15D2 SWAP1 PUSH2 0x2C47 JUMP JUMPDEST PUSH1 0x40 MLOAD DUP1 SWAP2 SUB SWAP1 REVERT JUMPDEST DUP1 PUSH1 0x1 PUSH0 PUSH2 0x100 EXP DUP2 SLOAD DUP2 PUSH20 0xFFFFFFFFFFFFFFFFFFFFFFFFFFFFFFFFFFFFFFFF MUL NOT AND SWAP1 DUP4 PUSH20 0xFFFFFFFFFFFFFFFFFFFFFFFFFFFFFFFFFFFFFFFF AND MUL OR SWAP1 SSTORE POP DUP1 PUSH20 0xFFFFFFFFFFFFFFFFFFFFFFFFFFFFFFFFFFFFFFFF AND PUSH32 0x3F32684A32A11DABDBB8C0177DE80AA3AE36A004D75210335B49E544E48CD0AA PUSH1 0x40 MLOAD PUSH1 0x40 MLOAD DUP1 SWAP2 SUB SWAP1 LOG2 POP JUMP JUMPDEST PUSH2 0x1669 PUSH2 0x1E50 JUMP JUMPDEST DUP1 PUSH1 0x2 PUSH1 0x15 PUSH2 0x100 EXP DUP2 SLOAD DUP2 PUSH1 0xFF MUL NOT AND SWAP1 DUP4 ISZERO ISZERO MUL OR SWAP1 SSTORE POP PUSH32 0xFB79081612032F5CE63340F421121D9F8B8EA04158F08B2DFAFACB3393CAF98 DUP2 PUSH1 0x40 MLOAD PUSH2 0x16B2 SWAP2 SWAP1 PUSH2 0x2474 JUMP JUMPDEST PUSH1 0x40 MLOAD DUP1 SWAP2 SUB SWAP1 LOG1 POP JUMP JUMPDEST PUSH0 PUSH32 0x0 PUSH20 0xFFFFFFFFFFFFFFFFFFFFFFFFFFFFFFFFFFFFFFFF AND PUSH4 0x70A08231 ADDRESS PUSH1 0x40 MLOAD DUP3 PUSH4 0xFFFFFFFF AND PUSH1 0xE0 SHL DUP2 MSTORE PUSH1 0x4 ADD PUSH2 0x1717 SWAP2 SWAP1 PUSH2 0x24AD JUMP JUMPDEST PUSH1 0x20 PUSH1 0x40 MLOAD DUP1 DUP4 SUB DUP2 DUP7 GAS STATICCALL ISZERO DUP1 ISZERO PUSH2 0x1732 JUMPI RETURNDATASIZE PUSH0 PUSH0 RETURNDATACOPY RETURNDATASIZE PUSH0 REVERT JUMPDEST POP POP POP POP PUSH1 0x40 MLOAD RETURNDATASIZE PUSH1 0x1F NOT PUSH1 0x1F DUP3 ADD AND DUP3 ADD DUP1 PUSH1 0x40 MSTORE POP DUP2 ADD SWAP1 PUSH2 0x1756 SWAP2 SWAP1 PUSH2 0x2A9A JUMP JUMPDEST SWAP1 POP SWAP1 JUMP JUMPDEST PUSH0 PUSH0 PUSH0 PUSH2 0x1766 PUSH2 0x1916 JUMP JUMPDEST SWAP1 POP PUSH0 PUSH2 0x1772 DUP3 PUSH2 0x1A9B JUMP JUMPDEST SWAP1 POP PUSH2 0x177E DUP6 DUP3 PUSH2 0x1B9D JUMP JUMPDEST SWAP4 POP SWAP4 POP POP POP SWAP2 POP SWAP2 JUMP JUMPDEST PUSH2 0x1791 PUSH2 0x1E50 JUMP JUMPDEST DUP1 PUSH1 0x2 PUSH1 0x16 PUSH2 0x100 EXP DUP2 SLOAD DUP2 PUSH1 0xFF MUL NOT AND SWAP1 DUP4 ISZERO ISZERO MUL OR SWAP1 SSTORE POP PUSH32 0xCAB6EB524363CE625BCD6D709065FE3433487EFEBB486F47D00F3C310E952B63 DUP2 PUSH1 0x40 MLOAD PUSH2 0x17DA SWAP2 SWAP1 PUSH2 0x2474 JUMP JUMPDEST PUSH1 0x40 MLOAD DUP1 SWAP2 SUB SWAP1 LOG1 POP JUMP JUMPDEST PUSH2 0x17ED PUSH2 0x1E50 JUMP JUMPDEST PUSH0 DUP2 GT PUSH2 0x182F JUMPI PUSH1 0x40 MLOAD PUSH32 0x8C379A000000000000000000000000000000000000000000000000000000000 DUP2 MSTORE PUSH1 0x4 ADD PUSH2 0x1826 SWAP1 PUSH2 0x2FEF JUMP JUMPDEST PUSH1 0x40 MLOAD DUP1 SWAP2 SUB SWAP1 REVERT JUMPDEST DUP1 PUSH1 0x3 DUP2 SWAP1 SSTORE POP PUSH32 0xB321AA162C9F5D4BBD1AEE2493D56A1DE75F6B43EB21E6987F5C67230000A3CA DUP2 PUSH1 0x40 MLOAD PUSH2 0x1865 SWAP2 SWAP1 PUSH2 0x25DE JUMP JUMPDEST PUSH1 0x40 MLOAD DUP1 SWAP2 SUB SWAP1 LOG1 POP JUMP JUMPDEST PUSH2 0x1878 PUSH2 0x1E50 JUMP JUMPDEST PUSH0 PUSH20 0xFFFFFFFFFFFFFFFFFFFFFFFFFFFFFFFFFFFFFFFF AND DUP2 PUSH20 0xFFFFFFFFFFFFFFFFFFFFFFFFFFFFFFFFFFFFFFFF AND SUB PUSH2 0x18E8 JUMPI PUSH0 PUSH1 0x40 MLOAD PUSH32 0x1E4FBDF700000000000000000000000000000000000000000000000000000000 DUP2 MSTORE PUSH1 0x4 ADD PUSH2 0x18DF SWAP2 SWAP1 PUSH2 0x24AD JUMP JUMPDEST PUSH1 0x40 MLOAD DUP1 SWAP2 SUB SWAP1 REVERT JUMPDEST PUSH2 0x18F1 DUP2 PUSH2 0x1ED7 JUMP JUMPDEST POP JUMP JUMPDEST PUSH2 0x18FC PUSH2 0x21A8 JUMP JUMPDEST PUSH1 0x2 PUSH2 0x190E PUSH2 0x1909 PUSH2 0x21E9 JUMP JUMPDEST PUSH2 0x2212 JUMP JUMPDEST PUSH0 ADD DUP2 SWAP1 SSTORE POP JUMP JUMPDEST PUSH2 0x191E PUSH2 0x23A1 JUMP JUMPDEST PUSH1 0x1 PUSH0 SWAP1 SLOAD SWAP1 PUSH2 0x100 EXP SWAP1 DIV PUSH20 0xFFFFFFFFFFFFFFFFFFFFFFFFFFFFFFFFFFFFFFFF AND PUSH20 0xFFFFFFFFFFFFFFFFFFFFFFFFFFFFFFFFFFFFFFFF AND PUSH4 0x186F34D5 PUSH1 0x40 MLOAD DUP2 PUSH4 0xFFFFFFFF AND PUSH1 0xE0 SHL DUP2 MSTORE PUSH1 0x4 ADD PUSH1 0x80 PUSH1 0x40 MLOAD DUP1 DUP4 SUB DUP2 DUP7 GAS STATICCALL ISZERO DUP1 ISZERO PUSH2 0x1988 JUMPI RETURNDATASIZE PUSH0 PUSH0 RETURNDATACOPY RETURNDATASIZE PUSH0 REVERT JUMPDEST POP POP POP POP PUSH1 0x40 MLOAD RETURNDATASIZE PUSH1 0x1F NOT PUSH1 0x1F DUP3 ADD AND DUP3 ADD DUP1 PUSH1 0x40 MSTORE POP DUP2 ADD SWAP1 PUSH2 0x19AC SWAP2 SWAP1 PUSH2 0x3155 JUMP JUMPDEST SWAP1 POP DUP1 PUSH1 0x20 ADD MLOAD PUSH2 0x19F2 JUMPI PUSH1 0x40 MLOAD PUSH32 0x8C379A000000000000000000000000000000000000000000000000000000000 DUP2 MSTORE PUSH1 0x4 ADD PUSH2 0x19E9 SWAP1 PUSH2 0x31CA JUMP JUMPDEST PUSH1 0x40 MLOAD DUP1 SWAP2 SUB SWAP1 REVERT JUMPDEST PUSH0 DUP2 PUSH1 0x40 ADD MLOAD GT PUSH2 0x1A38 JUMPI PUSH1 0x40 MLOAD PUSH32 0x8C379A000000000000000000000000000000000000000000000000000000000 DUP2 MSTORE PUSH1 0x4 ADD PUSH2 0x1A2F SWAP1 PUSH2 0x3232 JUMP JUMPDEST PUSH1 0x40 MLOAD DUP1 SWAP2 SUB SWAP1 REVERT JUMPDEST PUSH0 PUSH1 0x3 SLOAD EQ DUP1 PUSH2 0x1A59 JUMPI POP PUSH1 0x3 SLOAD DUP2 PUSH1 0x40 ADD MLOAD TIMESTAMP PUSH2 0x1A56 SWAP2 SWAP1 PUSH2 0x327D JUMP JUMPDEST GT ISZERO JUMPDEST PUSH2 0x1A98 JUMPI PUSH1 0x40 MLOAD PUSH32 0x8C379A000000000000000000000000000000000000000000000000000000000 DUP2 MSTORE PUSH1 0x4 ADD PUSH2 0x1A8F SWAP1 PUSH2 0x32FA JUMP JUMPDEST PUSH1 0x40 MLOAD DUP1 SWAP2 SUB SWAP1 REVERT JUMPDEST SWAP1 JUMP JUMPDEST PUSH0 PUSH0 PUSH32 0x0 PUSH20 0xFFFFFFFFFFFFFFFFFFFFFFFFFFFFFFFFFFFFFFFF AND PUSH4 0x18160DDD PUSH1 0x40 MLOAD DUP2 PUSH4 0xFFFFFFFF AND PUSH1 0xE0 SHL DUP2 MSTORE PUSH1 0x4 ADD PUSH1 0x20 PUSH1 0x40 MLOAD DUP1 DUP4 SUB DUP2 DUP7 GAS STATICCALL ISZERO DUP1 ISZERO PUSH2 0x1B06 JUMPI RETURNDATASIZE PUSH0 PUSH0 RETURNDATACOPY RETURNDATASIZE PUSH0 REVERT JUMPDEST POP POP POP POP PUSH1 0x40 MLOAD RETURNDATASIZE PUSH1 0x1F NOT PUSH1 0x1F DUP3 ADD AND DUP3 ADD DUP1 PUSH1 0x40 MSTORE POP DUP2 ADD SWAP1 PUSH2 0x1B2A SWAP2 SWAP1 PUSH2 0x2A9A JUMP JUMPDEST SWAP1 POP PUSH0 DUP2 SUB PUSH2 0x1B5C JUMPI PUSH32 0x0 SWAP2 POP POP PUSH2 0x1B98 JUMP JUMPDEST PUSH0 PUSH2 0x1B66 DUP5 PUSH2 0x20CA JUMP JUMPDEST SWAP1 POP PUSH2 0x1B93 DUP2 PUSH32 0x0 DUP5 PUSH2 0x1F98 JUMP JUMPDEST SWAP3 POP POP POP JUMPDEST SWAP2 SWAP1 POP JUMP JUMPDEST PUSH0 PUSH0 PUSH0 DUP4 GT PUSH2 0x1BE1 JUMPI PUSH1 0x40 MLOAD PUSH32 0x8C379A000000000000000000000000000000000000000000000000000000000 DUP2 MSTORE PUSH1 0x4 ADD PUSH2 0x1BD8 SWAP1 PUSH2 0x3362 JUMP JUMPDEST PUSH1 0x40 MLOAD DUP1 SWAP2 SUB SWAP1 REVERT JUMPDEST PUSH0 PUSH32 0x0 DUP6 PUSH2 0x1C0E SWAP2 SWAP1 PUSH2 0x3380 JUMP JUMPDEST SWAP1 POP PUSH2 0x1C3B DUP2 PUSH32 0x0 DUP7 PUSH2 0x1F98 JUMP JUMPDEST SWAP3 POP PUSH0 DUP4 SUB PUSH2 0x1C50 JUMPI PUSH0 PUSH0 SWAP3 POP SWAP3 POP POP PUSH2 0x1CB7 JUMP JUMPDEST PUSH0 PUSH2 0x1C86 DUP6 DUP6 PUSH2 0x1C60 SWAP2 SWAP1 PUSH2 0x3380 JUMP JUMPDEST PUSH32 0x0 PUSH2 0x221B JUMP JUMPDEST SWAP1 POP PUSH2 0x1CB2 DUP2 PUSH32 0x0 PUSH2 0x221B JUMP JUMPDEST SWAP3 POP POP POP JUMPDEST SWAP3 POP SWAP3 SWAP1 POP JUMP JUMPDEST PUSH2 0x1CCC DUP5 DUP5 DUP5 DUP5 PUSH1 0x1 PUSH2 0x2259 JUMP JUMPDEST PUSH2 0x1D0D JUMPI DUP4 PUSH1 0x40 MLOAD PUSH32 0x5274AFE700000000000000000000000000000000000000000000000000000000 DUP2 MSTORE PUSH1 0x4 ADD PUSH2 0x1D04 SWAP2 SWAP1 PUSH2 0x24AD JUMP JUMPDEST PUSH1 0x40 MLOAD DUP1 SWAP2 SUB SWAP1 REVERT JUMPDEST POP POP POP POP JUMP JUMPDEST PUSH1 0x1 PUSH2 0x1D25 PUSH2 0x1D20 PUSH2 0x21E9 JUMP JUMPDEST PUSH2 0x2212 JUMP JUMPDEST PUSH0 ADD DUP2 SWAP1 SSTORE POP JUMP JUMPDEST PUSH0 PUSH0 PUSH0 DUP4 GT PUSH2 0x1D71 JUMPI PUSH1 0x40 MLOAD PUSH32 0x8C379A000000000000000000000000000000000000000000000000000000000 DUP2 MSTORE PUSH1 0x4 ADD PUSH2 0x1D68 SWAP1 PUSH2 0x3362 JUMP JUMPDEST PUSH1 0x40 MLOAD DUP1 SWAP2 SUB SWAP1 REVERT JUMPDEST PUSH0 PUSH2 0x1D9D DUP6 DUP6 PUSH32 0x0 PUSH2 0x1F98 JUMP JUMPDEST SWAP1 POP PUSH32 0x0 DUP2 PUSH2 0x1DCB SWAP2 SWAP1 PUSH2 0x33EE JUMP JUMPDEST SWAP2 POP PUSH0 DUP3 SUB PUSH2 0x1DE0 JUMPI PUSH0 PUSH0 SWAP3 POP SWAP3 POP POP PUSH2 0x1E49 JUMP JUMPDEST PUSH0 PUSH32 0x0 DUP4 PUSH2 0x1E0D SWAP2 SWAP1 PUSH2 0x3380 JUMP JUMPDEST SWAP1 POP PUSH2 0x1E44 PUSH32 0x0 DUP3 PUSH2 0x1E3E SWAP2 SWAP1 PUSH2 0x3380 JUMP JUMPDEST DUP7 PUSH2 0x221B JUMP JUMPDEST SWAP4 POP POP POP JUMPDEST SWAP3 POP SWAP3 SWAP1 POP JUMP JUMPDEST PUSH2 0x1E58 PUSH2 0x22CA JUMP JUMPDEST PUSH20 0xFFFFFFFFFFFFFFFFFFFFFFFFFFFFFFFFFFFFFFFF AND PUSH2 0x1E76 PUSH2 0x12A1 JUMP JUMPDEST PUSH20 0xFFFFFFFFFFFFFFFFFFFFFFFFFFFFFFFFFFFFFFFF AND EQ PUSH2 0x1ED5 JUMPI PUSH2 0x1E99 PUSH2 0x22CA JUMP JUMPDEST PUSH1 0x40 MLOAD PUSH32 0x118CDAA700000000000000000000000000000000000000000000000000000000 DUP2 MSTORE PUSH1 0x4 ADD PUSH2 0x1ECC SWAP2 SWAP1 PUSH2 0x24AD JUMP JUMPDEST PUSH1 0x40 MLOAD DUP1 SWAP2 SUB SWAP1 REVERT JUMPDEST JUMP JUMPDEST PUSH0 PUSH0 PUSH0 SWAP1 SLOAD SWAP1 PUSH2 0x100 EXP SWAP1 DIV PUSH20 0xFFFFFFFFFFFFFFFFFFFFFFFFFFFFFFFFFFFFFFFF AND SWAP1 POP DUP2 PUSH0 PUSH0 PUSH2 0x100 EXP DUP2 SLOAD DUP2 PUSH20 0xFFFFFFFFFFFFFFFFFFFFFFFFFFFFFFFFFFFFFFFF MUL NOT AND SWAP1 DUP4 PUSH20 0xFFFFFFFFFFFFFFFFFFFFFFFFFFFFFFFFFFFFFFFF AND MUL OR SWAP1 SSTORE POP DUP2 PUSH20 0xFFFFFFFFFFFFFFFFFFFFFFFFFFFFFFFFFFFFFFFF AND DUP2 PUSH20 0xFFFFFFFFFFFFFFFFFFFFFFFFFFFFFFFFFFFFFFFF AND PUSH32 0x8BE0079C531659141344CD1FD0A4F28419497F9722A3DAAFE3B4186F6B6457E0 PUSH1 0x40 MLOAD PUSH1 0x40 MLOAD DUP1 SWAP2 SUB SWAP1 LOG3 POP POP JUMP JUMPDEST PUSH0 PUSH0 PUSH0 PUSH2 0x1FA5 DUP7 DUP7 PUSH2 0x22D1 JUMP JUMPDEST SWAP2 POP SWAP2 POP PUSH0 DUP3 SUB PUSH2 0x1FCA JUMPI DUP4 DUP2 DUP2 PUSH2 0x1FC0 JUMPI PUSH2 0x1FBF PUSH2 0x33C1 JUMP JUMPDEST JUMPDEST DIV SWAP3 POP POP POP PUSH2 0x2070 JUMP JUMPDEST DUP2 DUP5 GT PUSH2 0x1FE9 JUMPI PUSH2 0x1FE8 PUSH2 0x1FE3 PUSH0 DUP7 EQ PUSH1 0x12 PUSH1 0x11 PUSH2 0x22EE JUMP JUMPDEST PUSH2 0x2307 JUMP JUMPDEST JUMPDEST PUSH0 DUP5 DUP7 DUP9 MULMOD SWAP1 POP DUP2 DUP2 GT DUP4 SUB SWAP3 POP DUP1 DUP3 SUB SWAP2 POP PUSH0 DUP6 PUSH0 SUB DUP7 AND SWAP1 POP DUP1 DUP7 DIV SWAP6 POP DUP1 DUP4 DIV SWAP3 POP PUSH1 0x1 DUP2 DUP3 PUSH0 SUB DIV ADD SWAP1 POP DUP1 DUP5 MUL DUP4 OR SWAP3 POP PUSH0 PUSH1 0x2 DUP8 PUSH1 0x3 MUL XOR SWAP1 POP DUP1 DUP8 MUL PUSH1 0x2 SUB DUP2 MUL SWAP1 POP DUP1 DUP8 MUL PUSH1 0x2 SUB DUP2 MUL SWAP1 POP DUP1 DUP8 MUL PUSH1 0x2 SUB DUP2 MUL SWAP1 POP DUP1 DUP8 MUL PUSH1 0x2 SUB DUP2 MUL SWAP1 POP DUP1 DUP8 MUL PUSH1 0x2 SUB DUP2 MUL SWAP1 POP DUP1 DUP8 MUL PUSH1 0x2 SUB DUP2 MUL SWAP1 POP DUP1 DUP5 MUL SWAP6 POP POP POP POP POP POP JUMPDEST SWAP4 SWAP3 POP POP POP JUMP JUMPDEST PUSH2 0x2084 DUP4 DUP4 DUP4 PUSH1 0x1 PUSH2 0x2318 JUMP JUMPDEST PUSH2 0x20C5 JUMPI DUP3 PUSH1 0x40 MLOAD PUSH32 0x5274AFE700000000000000000000000000000000000000000000000000000000 DUP2 MSTORE PUSH1 0x4 ADD PUSH2 0x20BC SWAP2 SWAP1 PUSH2 0x24AD JUMP JUMPDEST PUSH1 0x40 MLOAD DUP1 SWAP2 SUB SWAP1 REVERT JUMPDEST POP POP POP JUMP JUMPDEST PUSH0 PUSH0 PUSH32 0x0 PUSH32 0x0 PUSH20 0xFFFFFFFFFFFFFFFFFFFFFFFFFFFFFFFFFFFFFFFF AND PUSH4 0x70A08231 ADDRESS PUSH1 0x40 MLOAD DUP3 PUSH4 0xFFFFFFFF AND PUSH1 0xE0 SHL DUP2 MSTORE PUSH1 0x4 ADD PUSH2 0x2146 SWAP2 SWAP1 PUSH2 0x24AD JUMP JUMPDEST PUSH1 0x20 PUSH1 0x40 MLOAD DUP1 DUP4 SUB DUP2 DUP7 GAS STATICCALL ISZERO DUP1 ISZERO PUSH2 0x2161 JUMPI RETURNDATASIZE PUSH0 PUSH0 RETURNDATACOPY RETURNDATASIZE PUSH0 REVERT JUMPDEST POP POP POP POP PUSH1 0x40 MLOAD RETURNDATASIZE PUSH1 0x1F NOT PUSH1 0x1F DUP3 ADD AND DUP3 ADD DUP1 PUSH1 0x40 MSTORE POP DUP2 ADD SWAP1 PUSH2 0x2185 SWAP2 SWAP1 PUSH2 0x2A9A JUMP JUMPDEST PUSH2 0x218F SWAP2 SWAP1 PUSH2 0x3380 JUMP JUMPDEST SWAP1 POP DUP1 DUP4 PUSH0 ADD MLOAD PUSH2 0x21A0 SWAP2 SWAP1 PUSH2 0x341E JUMP JUMPDEST SWAP2 POP POP SWAP2 SWAP1 POP JUMP JUMPDEST PUSH2 0x21B0 PUSH2 0x237A JUMP JUMPDEST ISZERO PUSH2 0x21E7 JUMPI PUSH1 0x40 MLOAD PUSH32 0x3EE5AEB500000000000000000000000000000000000000000000000000000000 DUP2 MSTORE PUSH1 0x4 ADD PUSH1 0x40 MLOAD DUP1 SWAP2 SUB SWAP1 REVERT JUMPDEST JUMP JUMPDEST PUSH0 PUSH32 0x9B779B17422D0DF92223018B32B4D1FA46E071723D6817E2486D003BECC55F00 PUSH0 SHL SWAP1 POP SWAP1 JUMP JUMPDEST PUSH0 DUP2 SWAP1 POP SWAP2 SWAP1 POP JUMP JUMPDEST PUSH0 PUSH0 DUP3 SUB PUSH2 0x222E JUMPI PUSH2 0x222D PUSH1 0x12 PUSH2 0x2307 JUMP JUMPDEST JUMPDEST PUSH1 0x1 DUP3 PUSH1 0x1 DUP6 SUB DUP2 PUSH2 0x2243 JUMPI PUSH2 0x2242 PUSH2 0x33C1 JUMP JUMPDEST JUMPDEST DIV ADD PUSH2 0x2250 PUSH0 DUP6 GT PUSH2 0x2396 JUMP JUMPDEST MUL SWAP1 POP SWAP3 SWAP2 POP POP JUMP JUMPDEST PUSH0 PUSH0 PUSH4 0x23B872DD PUSH1 0xE0 SHL SWAP1 POP PUSH1 0x40 MLOAD DUP2 PUSH0 MSTORE PUSH0 NOT PUSH1 0x60 SHR DUP8 AND PUSH1 0x4 MSTORE PUSH0 NOT PUSH1 0x60 SHR DUP7 AND PUSH1 0x24 MSTORE DUP5 PUSH1 0x44 MSTORE PUSH1 0x20 PUSH0 PUSH1 0x64 PUSH0 PUSH0 DUP13 GAS CALL SWAP3 POP PUSH1 0x1 PUSH0 MLOAD EQ DUP4 AND PUSH2 0x22B7 JUMPI DUP4 DUP4 ISZERO AND ISZERO PUSH2 0x22AB JUMPI RETURNDATASIZE PUSH0 DUP3 RETURNDATACOPY RETURNDATASIZE DUP2 REVERT JUMPDEST PUSH0 DUP9 EXTCODESIZE GT RETURNDATASIZE ISZERO AND DUP4 AND SWAP3 POP JUMPDEST DUP1 PUSH1 0x40 MSTORE PUSH0 PUSH1 0x60 MSTORE POP POP SWAP6 SWAP5 POP POP POP POP POP JUMP JUMPDEST PUSH0 CALLER SWAP1 POP SWAP1 JUMP JUMPDEST PUSH0 PUSH0 PUSH0 NOT DUP4 DUP6 MULMOD DUP4 DUP6 MUL SWAP2 POP DUP2 DUP2 LT DUP3 DUP3 SUB SUB SWAP3 POP POP SWAP3 POP SWAP3 SWAP1 POP JUMP JUMPDEST PUSH0 PUSH2 0x22F8 DUP5 PUSH2 0x2396 JUMP JUMPDEST DUP3 DUP5 XOR MUL DUP3 XOR SWAP1 POP SWAP4 SWAP3 POP POP POP JUMP JUMPDEST PUSH4 0x4E487B71 PUSH0 MSTORE DUP1 PUSH1 0x20 MSTORE PUSH1 0x24 PUSH1 0x1C REVERT JUMPDEST PUSH0 PUSH0 PUSH4 0xA9059CBB PUSH1 0xE0 SHL SWAP1 POP PUSH1 0x40 MLOAD DUP2 PUSH0 MSTORE PUSH0 NOT PUSH1 0x60 SHR DUP7 AND PUSH1 0x4 MSTORE DUP5 PUSH1 0x24 MSTORE PUSH1 0x20 PUSH0 PUSH1 0x44 PUSH0 PUSH0 DUP12 GAS CALL SWAP3 POP PUSH1 0x1 PUSH0 MLOAD EQ DUP4 AND PUSH2 0x236C JUMPI DUP4 DUP4 ISZERO AND ISZERO PUSH2 0x2360 JUMPI RETURNDATASIZE PUSH0 DUP3 RETURNDATACOPY RETURNDATASIZE DUP2 REVERT JUMPDEST PUSH0 DUP8 EXTCODESIZE GT RETURNDATASIZE ISZERO AND DUP4 AND SWAP3 POP JUMPDEST DUP1 PUSH1 0x40 MSTORE POP POP SWAP5 SWAP4 POP POP POP POP JUMP JUMPDEST PUSH0 PUSH1 0x2 PUSH2 0x238D PUSH2 0x2388 PUSH2 0x21E9 JUMP JUMPDEST PUSH2 0x2212 JUMP JUMPDEST PUSH0 ADD SLOAD EQ SWAP1 POP SWAP1 JUMP JUMPDEST PUSH0 DUP2 ISZERO ISZERO SWAP1 POP SWAP2 SWAP1 POP JUMP JUMPDEST PUSH1 0x40 MLOAD DUP1 PUSH1 0x80 ADD PUSH1 0x40 MSTORE DUP1 PUSH0 DUP2 MSTORE PUSH1 0x20 ADD PUSH0 ISZERO ISZERO DUP2 MSTORE PUSH1 0x20 ADD PUSH0 DUP2 MSTORE PUSH1 0x20 ADD PUSH0 DUP2 MSTORE POP SWAP1 JUMP JUMPDEST PUSH0 PUSH20 0xFFFFFFFFFFFFFFFFFFFFFFFFFFFFFFFFFFFFFFFF DUP3 AND SWAP1 POP SWAP2 SWAP1 POP JUMP JUMPDEST PUSH0 DUP2 SWAP1 POP SWAP2 SWAP1 POP JUMP JUMPDEST PUSH0 PUSH2 0x2409 PUSH2 0x2404 PUSH2 0x23FF DUP5 PUSH2 0x23C7 JUMP JUMPDEST PUSH2 0x23E6 JUMP JUMPDEST PUSH2 0x23C7 JUMP JUMPDEST SWAP1 POP SWAP2 SWAP1 POP JUMP JUMPDEST PUSH0 PUSH2 0x241A DUP3 PUSH2 0x23EF JUMP JUMPDEST SWAP1 POP SWAP2 SWAP1 POP JUMP JUMPDEST PUSH0 PUSH2 0x242B DUP3 PUSH2 0x2410 JUMP JUMPDEST SWAP1 POP SWAP2 SWAP1 POP JUMP JUMPDEST PUSH2 0x243B DUP2 PUSH2 0x2421 JUMP JUMPDEST DUP3 MSTORE POP POP JUMP JUMPDEST PUSH0 PUSH1 0x20 DUP3 ADD SWAP1 POP PUSH2 0x2454 PUSH0 DUP4 ADD DUP5 PUSH2 0x2432 JUMP JUMPDEST SWAP3 SWAP2 POP POP JUMP JUMPDEST PUSH0 DUP2 ISZERO ISZERO SWAP1 POP SWAP2 SWAP1 POP JUMP JUMPDEST PUSH2 0x246E DUP2 PUSH2 0x245A JUMP JUMPDEST DUP3 MSTORE POP POP JUMP JUMPDEST PUSH0 PUSH1 0x20 DUP3 ADD SWAP1 POP PUSH2 0x2487 PUSH0 DUP4 ADD DUP5 PUSH2 0x2465 JUMP JUMPDEST SWAP3 SWAP2 POP POP JUMP JUMPDEST PUSH0 PUSH2 0x2497 DUP3 PUSH2 0x23C7 JUMP JUMPDEST SWAP1 POP SWAP2 SWAP1 POP JUMP JUMPDEST PUSH2 0x24A7 DUP2 PUSH2 0x248D JUMP JUMPDEST DUP3 MSTORE POP POP JUMP JUMPDEST PUSH0 PUSH1 0x20 DUP3 ADD SWAP1 POP PUSH2 0x24C0 PUSH0 DUP4 ADD DUP5 PUSH2 0x249E JUMP JUMPDEST SWAP3 SWAP2 POP POP JUMP JUMPDEST PUSH0 PUSH2 0x24D0 DUP3 PUSH2 0x2410 JUMP JUMPDEST SWAP1 POP SWAP2 SWAP1 POP JUMP JUMPDEST PUSH2 0x24E0 DUP2 PUSH2 0x24C6 JUMP JUMPDEST DUP3 MSTORE POP POP JUMP JUMPDEST PUSH0 PUSH1 0x20 DUP3 ADD SWAP1 POP PUSH2 0x24F9 PUSH0 DUP4 ADD DUP5 PUSH2 0x24D7 JUMP JUMPDEST SWAP3 SWAP2 POP POP JUMP JUMPDEST PUSH0 PUSH1 0x40 MLOAD SWAP1 POP SWAP1 JUMP JUMPDEST PUSH0 PUSH0 REVERT JUMPDEST PUSH0 DUP2 SWAP1 POP SWAP2 SWAP1 POP JUMP JUMPDEST PUSH2 0x251E DUP2 PUSH2 0x250C JUMP JUMPDEST DUP2 EQ PUSH2 0x2528 JUMPI PUSH0 PUSH0 REVERT JUMPDEST POP JUMP JUMPDEST PUSH0 DUP2 CALLDATALOAD SWAP1 POP PUSH2 0x2539 DUP2 PUSH2 0x2515 JUMP JUMPDEST SWAP3 SWAP2 POP POP JUMP JUMPDEST PUSH0 PUSH0 PUSH1 0x40 DUP4 DUP6 SUB SLT ISZERO PUSH2 0x2555 JUMPI PUSH2 0x2554 PUSH2 0x2508 JUMP JUMPDEST JUMPDEST PUSH0 PUSH2 0x2562 DUP6 DUP3 DUP7 ADD PUSH2 0x252B JUMP JUMPDEST SWAP3 POP POP PUSH1 0x20 PUSH2 0x2573 DUP6 DUP3 DUP7 ADD PUSH2 0x252B JUMP JUMPDEST SWAP2 POP POP SWAP3 POP SWAP3 SWAP1 POP JUMP JUMPDEST PUSH2 0x2586 DUP2 PUSH2 0x250C JUMP JUMPDEST DUP3 MSTORE POP POP JUMP JUMPDEST PUSH0 PUSH1 0x40 DUP3 ADD SWAP1 POP PUSH2 0x259F PUSH0 DUP4 ADD DUP6 PUSH2 0x257D JUMP JUMPDEST PUSH2 0x25AC PUSH1 0x20 DUP4 ADD DUP5 PUSH2 0x257D JUMP JUMPDEST SWAP4 SWAP3 POP POP POP JUMP JUMPDEST PUSH0 PUSH1 0x20 DUP3 DUP5 SUB SLT ISZERO PUSH2 0x25C8 JUMPI PUSH2 0x25C7 PUSH2 0x2508 JUMP JUMPDEST JUMPDEST PUSH0 PUSH2 0x25D5 DUP5 DUP3 DUP6 ADD PUSH2 0x252B JUMP JUMPDEST SWAP2 POP POP SWAP3 SWAP2 POP POP JUMP JUMPDEST PUSH0 PUSH1 0x20 DUP3 ADD SWAP1 POP PUSH2 0x25F1 PUSH0 DUP4 ADD DUP5 PUSH2 0x257D JUMP JUMPDEST SWAP3 SWAP2 POP POP JUMP JUMPDEST PUSH2 0x2600 DUP2 PUSH2 0x248D JUMP JUMPDEST DUP2 EQ PUSH2 0x260A JUMPI PUSH0 PUSH0 REVERT JUMPDEST POP JUMP JUMPDEST PUSH0 DUP2 CALLDATALOAD SWAP1 POP PUSH2 0x261B DUP2 PUSH2 0x25F7 JUMP JUMPDEST SWAP3 SWAP2 POP POP JUMP JUMPDEST PUSH0 PUSH1 0x20 DUP3 DUP5 SUB SLT ISZERO PUSH2 0x2636 JUMPI PUSH2 0x2635 PUSH2 0x2508 JUMP JUMPDEST JUMPDEST PUSH0 PUSH2 0x2643 DUP5 DUP3 DUP6 ADD PUSH2 0x260D JUMP JUMPDEST SWAP2 POP POP SWAP3 SWAP2 POP POP JUMP JUMPDEST PUSH0 PUSH2 0x2656 DUP3 PUSH2 0x2410 JUMP JUMPDEST SWAP1 POP SWAP2 SWAP1 POP JUMP JUMPDEST PUSH2 0x2666 DUP2 PUSH2 0x264C JUMP JUMPDEST DUP3 MSTORE POP POP JUMP JUMPDEST PUSH0 PUSH1 0x20 DUP3 ADD SWAP1 POP PUSH2 0x267F PUSH0 DUP4 ADD DUP5 PUSH2 0x265D JUMP JUMPDEST SWAP3 SWAP2 POP POP JUMP JUMPDEST PUSH2 0x268E DUP2 PUSH2 0x245A JUMP JUMPDEST DUP2 EQ PUSH2 0x2698 JUMPI PUSH0 PUSH0 REVERT JUMPDEST POP JUMP JUMPDEST PUSH0 DUP2 CALLDATALOAD SWAP1 POP PUSH2 0x26A9 DUP2 PUSH2 0x2685 JUMP JUMPDEST SWAP3 SWAP2 POP POP JUMP JUMPDEST PUSH0 PUSH1 0x20 DUP3 DUP5 SUB SLT ISZERO PUSH2 0x26C4 JUMPI PUSH2 0x26C3 PUSH2 0x2508 JUMP JUMPDEST JUMPDEST PUSH0 PUSH2 0x26D1 DUP5 DUP3 DUP6 ADD PUSH2 0x269B JUMP JUMPDEST SWAP2 POP POP SWAP3 SWAP2 POP POP JUMP JUMPDEST PUSH0 DUP3 DUP3 MSTORE PUSH1 0x20 DUP3 ADD SWAP1 POP SWAP3 SWAP2 POP POP JUMP JUMPDEST PUSH32 0x6E6F7420696E697469616C697A65640000000000000000000000000000000000 PUSH0 DUP3 ADD MSTORE POP JUMP JUMPDEST PUSH0 PUSH2 0x271E PUSH1 0xF DUP4 PUSH2 0x26DA JUMP JUMPDEST SWAP2 POP PUSH2 0x2729 DUP3 PUSH2 0x26EA JUMP JUMPDEST PUSH1 0x20 DUP3 ADD SWAP1 POP SWAP2 SWAP1 POP JUMP JUMPDEST PUSH0 PUSH1 0x20 DUP3 ADD SWAP1 POP DUP2 DUP2 SUB PUSH0 DUP4 ADD MSTORE PUSH2 0x274B DUP2 PUSH2 0x2712 JUMP JUMPDEST SWAP1 POP SWAP2 SWAP1 POP JUMP JUMPDEST PUSH32 0x6D696E7420706175736564000000000000000000000000000000000000000000 PUSH0 DUP3 ADD MSTORE POP JUMP JUMPDEST PUSH0 PUSH2 0x2786 PUSH1 0xB DUP4 PUSH2 0x26DA JUMP JUMPDEST SWAP2 POP PUSH2 0x2791 DUP3 PUSH2 0x2752 JUMP JUMPDEST PUSH1 0x20 DUP3 ADD SWAP1 POP SWAP2 SWAP1 POP JUMP JUMPDEST PUSH0 PUSH1 0x20 DUP3 ADD SWAP1 POP DUP2 DUP2 SUB PUSH0 DUP4 ADD MSTORE PUSH2 0x27B3 DUP2 PUSH2 0x277A JUMP JUMPDEST SWAP1 POP SWAP2 SWAP1 POP JUMP JUMPDEST PUSH32 0x7A65726F20555344430000000000000000000000000000000000000000000000 PUSH0 DUP3 ADD MSTORE POP JUMP JUMPDEST PUSH0 PUSH2 0x27EE PUSH1 0x9 DUP4 PUSH2 0x26DA JUMP JUMPDEST SWAP2 POP PUSH2 0x27F9 DUP3 PUSH2 0x27BA JUMP JUMPDEST PUSH1 0x20 DUP3 ADD SWAP1 POP SWAP2 SWAP1 POP JUMP JUMPDEST PUSH0 PUSH1 0x20 DUP3 ADD SWAP1 POP DUP2 DUP2 SUB PUSH0 DUP4 ADD MSTORE PUSH2 0x281B DUP2 PUSH2 0x27E2 JUMP JUMPDEST SWAP1 POP SWAP2 SWAP1 POP JUMP JUMPDEST PUSH32 0x7A65726F206D696E7420616D6F756E7400000000000000000000000000000000 PUSH0 DUP3 ADD MSTORE POP JUMP JUMPDEST PUSH0 PUSH2 0x2856 PUSH1 0x10 DUP4 PUSH2 0x26DA JUMP JUMPDEST SWAP2 POP PUSH2 0x2861 DUP3 PUSH2 0x2822 JUMP JUMPDEST PUSH1 0x20 DUP3 ADD SWAP1 POP SWAP2 SWAP1 POP JUMP JUMPDEST PUSH0 PUSH1 0x20 DUP3 ADD SWAP1 POP DUP2 DUP2 SUB PUSH0 DUP4 ADD MSTORE PUSH2 0x2883 DUP2 PUSH2 0x284A JUMP JUMPDEST SWAP1 POP SWAP2 SWAP1 POP JUMP JUMPDEST PUSH32 0x696E73756666696369656E7420525741206F7574000000000000000000000000 PUSH0 DUP3 ADD MSTORE POP JUMP JUMPDEST PUSH0 PUSH2 0x28BE PUSH1 0x14 DUP4 PUSH2 0x26DA JUMP JUMPDEST SWAP2 POP PUSH2 0x28C9 DUP3 PUSH2 0x288A JUMP JUMPDEST PUSH1 0x20 DUP3 ADD SWAP1 POP SWAP2 SWAP1 POP JUMP JUMPDEST PUSH0 PUSH1 0x20 DUP3 ADD SWAP1 POP DUP2 DUP2 SUB PUSH0 DUP4 ADD MSTORE PUSH2 0x28EB DUP2 PUSH2 0x28B2 JUMP JUMPDEST SWAP1 POP SWAP2 SWAP1 POP JUMP JUMPDEST PUSH32 0x7A65726F20555344432072657175697265640000000000000000000000000000 PUSH0 DUP3 ADD MSTORE POP JUMP JUMPDEST PUSH0 PUSH2 0x2926 PUSH1 0x12 DUP4 PUSH2 0x26DA JUMP JUMPDEST SWAP2 POP PUSH2 0x2931 DUP3 PUSH2 0x28F2 JUMP JUMPDEST PUSH1 0x20 DUP3 ADD SWAP1 POP SWAP2 SWAP1 POP JUMP JUMPDEST PUSH0 PUSH1 0x20 DUP3 ADD SWAP1 POP DUP2 DUP2 SUB PUSH0 DUP4 ADD MSTORE PUSH2 0x2953 DUP2 PUSH2 0x291A JUMP JUMPDEST SWAP1 POP SWAP2 SWAP1 POP JUMP JUMPDEST PUSH32 0x555344432072657175697265642065786365656473206D617800000000000000 PUSH0 DUP3 ADD MSTORE POP JUMP JUMPDEST PUSH0 PUSH2 0x298E PUSH1 0x19 DUP4 PUSH2 0x26DA JUMP JUMPDEST SWAP2 POP PUSH2 0x2999 DUP3 PUSH2 0x295A JUMP JUMPDEST PUSH1 0x20 DUP3 ADD SWAP1 POP SWAP2 SWAP1 POP JUMP JUMPDEST PUSH0 PUSH1 0x20 DUP3 ADD SWAP1 POP DUP2 DUP2 SUB PUSH0 DUP4 ADD MSTORE PUSH2 0x29BB DUP2 PUSH2 0x2982 JUMP JUMPDEST SWAP1 POP SWAP2 SWAP1 POP JUMP JUMPDEST PUSH0 PUSH1 0x40 DUP3 ADD SWAP1 POP PUSH2 0x29D5 PUSH0 DUP4 ADD DUP6 PUSH2 0x249E JUMP JUMPDEST PUSH2 0x29E2 PUSH1 0x20 DUP4 ADD DUP5 PUSH2 0x257D JUMP JUMPDEST SWAP4 SWAP3 POP POP POP JUMP JUMPDEST PUSH0 PUSH1 0x60 DUP3 ADD SWAP1 POP PUSH2 0x29FC PUSH0 DUP4 ADD DUP7 PUSH2 0x257D JUMP JUMPDEST PUSH2 0x2A09 PUSH1 0x20 DUP4 ADD DUP6 PUSH2 0x257D JUMP JUMPDEST PUSH2 0x2A16 PUSH1 0x40 DUP4 ADD DUP5 PUSH2 0x257D JUMP JUMPDEST SWAP5 SWAP4 POP POP POP POP JUMP JUMPDEST PUSH32 0x6261642069737375657200000000000000000000000000000000000000000000 PUSH0 DUP3 ADD MSTORE POP JUMP JUMPDEST PUSH0 PUSH2 0x2A52 PUSH1 0xA DUP4 PUSH2 0x26DA JUMP JUMPDEST SWAP2 POP PUSH2 0x2A5D DUP3 PUSH2 0x2A1E JUMP JUMPDEST PUSH1 0x20 DUP3 ADD SWAP1 POP SWAP2 SWAP1 POP JUMP JUMPDEST PUSH0 PUSH1 0x20 DUP3 ADD SWAP1 POP DUP2 DUP2 SUB PUSH0 DUP4 ADD MSTORE PUSH2 0x2A7F DUP2 PUSH2 0x2A46 JUMP JUMPDEST SWAP1 POP SWAP2 SWAP1 POP JUMP JUMPDEST PUSH0 DUP2 MLOAD SWAP1 POP PUSH2 0x2A94 DUP2 PUSH2 0x2515 JUMP JUMPDEST SWAP3 SWAP2 POP POP JUMP JUMPDEST PUSH0 PUSH1 0x20 DUP3 DUP5 SUB SLT ISZERO PUSH2 0x2AAF JUMPI PUSH2 0x2AAE PUSH2 0x2508 JUMP JUMPDEST JUMPDEST PUSH0 PUSH2 0x2ABC DUP5 DUP3 DUP6 ADD PUSH2 0x2A86 JUMP JUMPDEST SWAP2 POP POP SWAP3 SWAP2 POP POP JUMP JUMPDEST PUSH32 0x616C726561647920696E697469616C697A656400000000000000000000000000 PUSH0 DUP3 ADD MSTORE POP JUMP JUMPDEST PUSH0 PUSH2 0x2AF9 PUSH1 0x13 DUP4 PUSH2 0x26DA JUMP JUMPDEST SWAP2 POP PUSH2 0x2B04 DUP3 PUSH2 0x2AC5 JUMP JUMPDEST PUSH1 0x20 DUP3 ADD SWAP1 POP SWAP2 SWAP1 POP JUMP JUMPDEST PUSH0 PUSH1 0x20 DUP3 ADD SWAP1 POP DUP2 DUP2 SUB PUSH0 DUP4 ADD MSTORE PUSH2 0x2B26 DUP2 PUSH2 0x2AED JUMP JUMPDEST SWAP1 POP SWAP2 SWAP1 POP JUMP JUMPDEST PUSH32 0x6E6F206F6666636861696E207265736572766500000000000000000000000000 PUSH0 DUP3 ADD MSTORE POP JUMP JUMPDEST PUSH0 PUSH2 0x2B61 PUSH1 0x13 DUP4 PUSH2 0x26DA JUMP JUMPDEST SWAP2 POP PUSH2 0x2B6C DUP3 PUSH2 0x2B2D JUMP JUMPDEST PUSH1 0x20 DUP3 ADD SWAP1 POP SWAP2 SWAP1 POP JUMP JUMPDEST PUSH0 PUSH1 0x20 DUP3 ADD SWAP1 POP DUP2 DUP2 SUB PUSH0 DUP4 ADD MSTORE PUSH2 0x2B8E DUP2 PUSH2 0x2B55 JUMP JUMPDEST SWAP1 POP SWAP2 SWAP1 POP JUMP JUMPDEST PUSH32 0x7A65726F20696E697469616C20737570706C7900000000000000000000000000 PUSH0 DUP3 ADD MSTORE POP JUMP JUMPDEST PUSH0 PUSH2 0x2BC9 PUSH1 0x13 DUP4 PUSH2 0x26DA JUMP JUMPDEST SWAP2 POP PUSH2 0x2BD4 DUP3 PUSH2 0x2B95 JUMP JUMPDEST PUSH1 0x20 DUP3 ADD SWAP1 POP SWAP2 SWAP1 POP JUMP JUMPDEST PUSH0 PUSH1 0x20 DUP3 ADD SWAP1 POP DUP2 DUP2 SUB PUSH0 DUP4 ADD MSTORE PUSH2 0x2BF6 DUP2 PUSH2 0x2BBD JUMP JUMPDEST SWAP1 POP SWAP2 SWAP1 POP JUMP JUMPDEST PUSH32 0x626164206F7261636C6500000000000000000000000000000000000000000000 PUSH0 DUP3 ADD MSTORE POP JUMP JUMPDEST PUSH0 PUSH2 0x2C31 PUSH1 0xA DUP4 PUSH2 0x26DA JUMP JUMPDEST SWAP2 POP PUSH2 0x2C3C DUP3 PUSH2 0x2BFD JUMP JUMPDEST PUSH1 0x20 DUP3 ADD SWAP1 POP SWAP2 SWAP1 POP JUMP JUMPDEST PUSH0 PUSH1 0x20 DUP3 ADD SWAP1 POP DUP2 DUP2 SUB PUSH0 DUP4 ADD MSTORE PUSH2 0x2C5E DUP2 PUSH2 0x2C25 JUMP JUMPDEST SWAP1 POP SWAP2 SWAP1 POP JUMP JUMPDEST PUSH32 0x72656465656D2070617573656400000000000000000000000000000000000000 PUSH0 DUP3 ADD MSTORE POP JUMP JUMPDEST PUSH0 PUSH2 0x2C99 PUSH1 0xD DUP4 PUSH2 0x26DA JUMP JUMPDEST SWAP2 POP PUSH2 0x2CA4 DUP3 PUSH2 0x2C65 JUMP JUMPDEST PUSH1 0x20 DUP3 ADD SWAP1 POP SWAP2 SWAP1 POP JUMP JUMPDEST PUSH0 PUSH1 0x20 DUP3 ADD SWAP1 POP DUP2 DUP2 SUB PUSH0 DUP4 ADD MSTORE PUSH2 0x2CC6 DUP2 PUSH2 0x2C8D JUMP JUMPDEST SWAP1 POP SWAP2 SWAP1 POP JUMP JUMPDEST PUSH32 0x7A65726F20525741000000000000000000000000000000000000000000000000 PUSH0 DUP3 ADD MSTORE POP JUMP JUMPDEST PUSH0 PUSH2 0x2D01 PUSH1 0x8 DUP4 PUSH2 0x26DA JUMP JUMPDEST SWAP2 POP PUSH2 0x2D0C DUP3 PUSH2 0x2CCD JUMP JUMPDEST PUSH1 0x20 DUP3 ADD SWAP1 POP SWAP2 SWAP1 POP JUMP JUMPDEST PUSH0 PUSH1 0x20 DUP3 ADD SWAP1 POP DUP2 DUP2 SUB PUSH0 DUP4 ADD MSTORE PUSH2 0x2D2E DUP2 PUSH2 0x2CF5 JUMP JUMPDEST SWAP1 POP SWAP2 SWAP1 POP JUMP JUMPDEST PUSH32 0x7A65726F20525741207265717569726564000000000000000000000000000000 PUSH0 DUP3 ADD MSTORE POP JUMP JUMPDEST PUSH0 PUSH2 0x2D69 PUSH1 0x11 DUP4 PUSH2 0x26DA JUMP JUMPDEST SWAP2 POP PUSH2 0x2D74 DUP3 PUSH2 0x2D35 JUMP JUMPDEST PUSH1 0x20 DUP3 ADD SWAP1 POP SWAP2 SWAP1 POP JUMP JUMPDEST PUSH0 PUSH1 0x20 DUP3 ADD SWAP1 POP DUP2 DUP2 SUB PUSH0 DUP4 ADD MSTORE PUSH2 0x2D96 DUP2 PUSH2 0x2D5D JUMP JUMPDEST SWAP1 POP SWAP2 SWAP1 POP JUMP JUMPDEST PUSH32 0x5257412072657175697265642065786365656473206D61780000000000000000 PUSH0 DUP3 ADD MSTORE POP JUMP JUMPDEST PUSH0 PUSH2 0x2DD1 PUSH1 0x18 DUP4 PUSH2 0x26DA JUMP JUMPDEST SWAP2 POP PUSH2 0x2DDC DUP3 PUSH2 0x2D9D JUMP JUMPDEST PUSH1 0x20 DUP3 ADD SWAP1 POP SWAP2 SWAP1 POP JUMP JUMPDEST PUSH0 PUSH1 0x20 DUP3 ADD SWAP1 POP DUP2 DUP2 SUB PUSH0 DUP4 ADD MSTORE PUSH2 0x2DFE DUP2 PUSH2 0x2DC5 JUMP JUMPDEST SWAP1 POP SWAP2 SWAP1 POP JUMP JUMPDEST PUSH32 0x7A65726F2072656465656D20616D6F756E740000000000000000000000000000 PUSH0 DUP3 ADD MSTORE POP JUMP JUMPDEST PUSH0 PUSH2 0x2E39 PUSH1 0x12 DUP4 PUSH2 0x26DA JUMP JUMPDEST SWAP2 POP PUSH2 0x2E44 DUP3 PUSH2 0x2E05 JUMP JUMPDEST PUSH1 0x20 DUP3 ADD SWAP1 POP SWAP2 SWAP1 POP JUMP JUMPDEST PUSH0 PUSH1 0x20 DUP3 ADD SWAP1 POP DUP2 DUP2 SUB PUSH0 DUP4 ADD MSTORE PUSH2 0x2E66 DUP2 PUSH2 0x2E2D JUMP JUMPDEST SWAP1 POP SWAP2 SWAP1 POP JUMP JUMPDEST PUSH32 0x696E73756666696369656E742055534443206F75740000000000000000000000 PUSH0 DUP3 ADD MSTORE POP JUMP JUMPDEST PUSH0 PUSH2 0x2EA1 PUSH1 0x15 DUP4 PUSH2 0x26DA JUMP JUMPDEST SWAP2 POP PUSH2 0x2EAC DUP3 PUSH2 0x2E6D JUMP JUMPDEST PUSH1 0x20 DUP3 ADD SWAP1 POP SWAP2 SWAP1 POP JUMP JUMPDEST PUSH0 PUSH1 0x20 DUP3 ADD SWAP1 POP DUP2 DUP2 SUB PUSH0 DUP4 ADD MSTORE PUSH2 0x2ECE DUP2 PUSH2 0x2E95 JUMP JUMPDEST SWAP1 POP SWAP2 SWAP1 POP JUMP JUMPDEST PUSH32 0x696E73756666696369656E742055534443206C69717569646974790000000000 PUSH0 DUP3 ADD MSTORE POP JUMP JUMPDEST PUSH0 PUSH2 0x2F09 PUSH1 0x1B DUP4 PUSH2 0x26DA JUMP JUMPDEST SWAP2 POP PUSH2 0x2F14 DUP3 PUSH2 0x2ED5 JUMP JUMPDEST PUSH1 0x20 DUP3 ADD SWAP1 POP SWAP2 SWAP1 POP JUMP JUMPDEST PUSH0 PUSH1 0x20 DUP3 ADD SWAP1 POP DUP2 DUP2 SUB PUSH0 DUP4 ADD MSTORE PUSH2 0x2F36 DUP2 PUSH2 0x2EFD JUMP JUMPDEST SWAP1 POP SWAP2 SWAP1 POP JUMP JUMPDEST PUSH32 0x696E73756666696369656E74205257412062616C616E63650000000000000000 PUSH0 DUP3 ADD MSTORE POP JUMP JUMPDEST PUSH0 PUSH2 0x2F71 PUSH1 0x18 DUP4 PUSH2 0x26DA JUMP JUMPDEST SWAP2 POP PUSH2 0x2F7C DUP3 PUSH2 0x2F3D JUMP JUMPDEST PUSH1 0x20 DUP3 ADD SWAP1 POP SWAP2 SWAP1 POP JUMP JUMPDEST PUSH0 PUSH1 0x20 DUP3 ADD SWAP1 POP DUP2 DUP2 SUB PUSH0 DUP4 ADD MSTORE PUSH2 0x2F9E DUP2 PUSH2 0x2F65 JUMP JUMPDEST SWAP1 POP SWAP2 SWAP1 POP JUMP JUMPDEST PUSH32 0x6261642064656C61790000000000000000000000000000000000000000000000 PUSH0 DUP3 ADD MSTORE POP JUMP JUMPDEST PUSH0 PUSH2 0x2FD9 PUSH1 0x9 DUP4 PUSH2 0x26DA JUMP JUMPDEST SWAP2 POP PUSH2 0x2FE4 DUP3 PUSH2 0x2FA5 JUMP JUMPDEST PUSH1 0x20 DUP3 ADD SWAP1 POP SWAP2 SWAP1 POP JUMP JUMPDEST PUSH0 PUSH1 0x20 DUP3 ADD SWAP1 POP DUP2 DUP2 SUB PUSH0 DUP4 ADD MSTORE PUSH2 0x3006 DUP2 PUSH2 0x2FCD JUMP JUMPDEST SWAP1 POP SWAP2 SWAP1 POP JUMP JUMPDEST PUSH0 PUSH0 REVERT JUMPDEST PUSH0 PUSH1 0x1F NOT PUSH1 0x1F DUP4 ADD AND SWAP1 POP SWAP2 SWAP1 POP JUMP JUMPDEST PUSH32 0x4E487B7100000000000000000000000000000000000000000000000000000000 PUSH0 MSTORE PUSH1 0x41 PUSH1 0x4 MSTORE PUSH1 0x24 PUSH0 REVERT JUMPDEST PUSH2 0x3057 DUP3 PUSH2 0x3011 JUMP JUMPDEST DUP2 ADD DUP2 DUP2 LT PUSH8 0xFFFFFFFFFFFFFFFF DUP3 GT OR ISZERO PUSH2 0x3076 JUMPI PUSH2 0x3075 PUSH2 0x3021 JUMP JUMPDEST JUMPDEST DUP1 PUSH1 0x40 MSTORE POP POP POP JUMP JUMPDEST PUSH0 PUSH2 0x3088 PUSH2 0x24FF JUMP JUMPDEST SWAP1 POP PUSH2 0x3094 DUP3 DUP3 PUSH2 0x304E JUMP JUMPDEST SWAP2 SWAP1 POP JUMP JUMPDEST PUSH0 DUP2 MLOAD SWAP1 POP PUSH2 0x30A7 DUP2 PUSH2 0x2685 JUMP JUMPDEST SWAP3 SWAP2 POP POP JUMP JUMPDEST PUSH0 DUP2 SWAP1 POP SWAP2 SWAP1 POP JUMP JUMPDEST PUSH2 0x30BF DUP2 PUSH2 0x30AD JUMP JUMPDEST DUP2 EQ PUSH2 0x30C9 JUMPI PUSH0 PUSH0 REVERT JUMPDEST POP JUMP JUMPDEST PUSH0 DUP2 MLOAD SWAP1 POP PUSH2 0x30DA DUP2 PUSH2 0x30B6 JUMP JUMPDEST SWAP3 SWAP2 POP POP JUMP JUMPDEST PUSH0 PUSH1 0x80 DUP3 DUP5 SUB SLT ISZERO PUSH2 0x30F5 JUMPI PUSH2 0x30F4 PUSH2 0x300D JUMP JUMPDEST JUMPDEST PUSH2 0x30FF PUSH1 0x80 PUSH2 0x307F JUMP JUMPDEST SWAP1 POP PUSH0 PUSH2 0x310E DUP5 DUP3 DUP6 ADD PUSH2 0x2A86 JUMP JUMPDEST PUSH0 DUP4 ADD MSTORE POP PUSH1 0x20 PUSH2 0x3121 DUP5 DUP3 DUP6 ADD PUSH2 0x3099 JUMP JUMPDEST PUSH1 0x20 DUP4 ADD MSTORE POP PUSH1 0x40 PUSH2 0x3135 DUP5 DUP3 DUP6 ADD PUSH2 0x2A86 JUMP JUMPDEST PUSH1 0x40 DUP4 ADD MSTORE POP PUSH1 0x60 PUSH2 0x3149 DUP5 DUP3 DUP6 ADD PUSH2 0x30CC JUMP JUMPDEST PUSH1 0x60 DUP4 ADD MSTORE POP SWAP3 SWAP2 POP POP JUMP JUMPDEST PUSH0 PUSH1 0x80 DUP3 DUP5 SUB SLT ISZERO PUSH2 0x316A JUMPI PUSH2 0x3169 PUSH2 0x2508 JUMP JUMPDEST JUMPDEST PUSH0 PUSH2 0x3177 DUP5 DUP3 DUP6 ADD PUSH2 0x30E0 JUMP JUMPDEST SWAP2 POP POP SWAP3 SWAP2 POP POP JUMP JUMPDEST PUSH32 0x7265736572766520696E76616C69640000000000000000000000000000000000 PUSH0 DUP3 ADD MSTORE POP JUMP JUMPDEST PUSH0 PUSH2 0x31B4 PUSH1 0xF DUP4 PUSH2 0x26DA JUMP JUMPDEST SWAP2 POP PUSH2 0x31BF DUP3 PUSH2 0x3180 JUMP JUMPDEST PUSH1 0x20 DUP3 ADD SWAP1 POP SWAP2 SWAP1 POP JUMP JUMPDEST PUSH0 PUSH1 0x20 DUP3 ADD SWAP1 POP DUP2 DUP2 SUB PUSH0 DUP4 ADD MSTORE PUSH2 0x31E1 DUP2 PUSH2 0x31A8 JUMP JUMPDEST SWAP1 POP SWAP2 SWAP1 POP JUMP JUMPDEST PUSH32 0x6F7261636C65206E6F7420757064617465640000000000000000000000000000 PUSH0 DUP3 ADD MSTORE POP JUMP JUMPDEST PUSH0 PUSH2 0x321C PUSH1 0x12 DUP4 PUSH2 0x26DA JUMP JUMPDEST SWAP2 POP PUSH2 0x3227 DUP3 PUSH2 0x31E8 JUMP JUMPDEST PUSH1 0x20 DUP3 ADD SWAP1 POP SWAP2 SWAP1 POP JUMP JUMPDEST PUSH0 PUSH1 0x20 DUP3 ADD SWAP1 POP DUP2 DUP2 SUB PUSH0 DUP4 ADD MSTORE PUSH2 0x3249 DUP2 PUSH2 0x3210 JUMP JUMPDEST SWAP1 POP SWAP2 SWAP1 POP JUMP JUMPDEST PUSH32 0x4E487B7100000000000000000000000000000000000000000000000000000000 PUSH0 MSTORE PUSH1 0x11 PUSH1 0x4 MSTORE PUSH1 0x24 PUSH0 REVERT JUMPDEST PUSH0 PUSH2 0x3287 DUP3 PUSH2 0x250C JUMP JUMPDEST SWAP2 POP PUSH2 0x3292 DUP4 PUSH2 0x250C JUMP JUMPDEST SWAP3 POP DUP3 DUP3 SUB SWAP1 POP DUP2 DUP2 GT ISZERO PUSH2 0x32AA JUMPI PUSH2 0x32A9 PUSH2 0x3250 JUMP JUMPDEST JUMPDEST SWAP3 SWAP2 POP POP JUMP JUMPDEST PUSH32 0x6F7261636C652064617461207374616C65000000000000000000000000000000 PUSH0 DUP3 ADD MSTORE POP JUMP JUMPDEST PUSH0 PUSH2 0x32E4 PUSH1 0x11 DUP4 PUSH2 0x26DA JUMP JUMPDEST SWAP2 POP PUSH2 0x32EF DUP3 PUSH2 0x32B0 JUMP JUMPDEST PUSH1 0x20 DUP3 ADD SWAP1 POP SWAP2 SWAP1 POP JUMP JUMPDEST PUSH0 PUSH1 0x20 DUP3 ADD SWAP1 POP DUP2 DUP2 SUB PUSH0 DUP4 ADD MSTORE PUSH2 0x3311 DUP2 PUSH2 0x32D8 JUMP JUMPDEST SWAP1 POP SWAP2 SWAP1 POP JUMP JUMPDEST PUSH32 0x626164204E415600000000000000000000000000000000000000000000000000 PUSH0 DUP3 ADD MSTORE POP JUMP JUMPDEST PUSH0 PUSH2 0x334C PUSH1 0x7 DUP4 PUSH2 0x26DA JUMP JUMPDEST SWAP2 POP PUSH2 0x3357 DUP3 PUSH2 0x3318 JUMP JUMPDEST PUSH1 0x20 DUP3 ADD SWAP1 POP SWAP2 SWAP1 POP JUMP JUMPDEST PUSH0 PUSH1 0x20 DUP3 ADD SWAP1 POP DUP2 DUP2 SUB PUSH0 DUP4 ADD MSTORE PUSH2 0x3379 DUP2 PUSH2 0x3340 JUMP JUMPDEST SWAP1 POP SWAP2 SWAP1 POP JUMP JUMPDEST PUSH0 PUSH2 0x338A DUP3 PUSH2 0x250C JUMP JUMPDEST SWAP2 POP PUSH2 0x3395 DUP4 PUSH2 0x250C JUMP JUMPDEST SWAP3 POP DUP3 DUP3 MUL PUSH2 0x33A3 DUP2 PUSH2 0x250C JUMP JUMPDEST SWAP2 POP DUP3 DUP3 DIV DUP5 EQ DUP4 ISZERO OR PUSH2 0x33BA JUMPI PUSH2 0x33B9 PUSH2 0x3250 JUMP JUMPDEST JUMPDEST POP SWAP3 SWAP2 POP POP JUMP JUMPDEST PUSH32 0x4E487B7100000000000000000000000000000000000000000000000000000000 PUSH0 MSTORE PUSH1 0x12 PUSH1 0x4 MSTORE PUSH1 0x24 PUSH0 REVERT JUMPDEST PUSH0 PUSH2 0x33F8 DUP3 PUSH2 0x250C JUMP JUMPDEST SWAP2 POP PUSH2 0x3403 DUP4 PUSH2 0x250C JUMP JUMPDEST SWAP3 POP DUP3 PUSH2 0x3413 JUMPI PUSH2 0x3412 PUSH2 0x33C1 JUMP JUMPDEST JUMPDEST DUP3 DUP3 DIV SWAP1 POP SWAP3 SWAP2 POP POP JUMP JUMPDEST PUSH0 PUSH2 0x3428 DUP3 PUSH2 0x250C JUMP JUMPDEST SWAP2 POP PUSH2 0x3433 DUP4 PUSH2 0x250C JUMP JUMPDEST SWAP3 POP DUP3 DUP3 ADD SWAP1 POP DUP1 DUP3 GT ISZERO PUSH2 0x344B JUMPI PUSH2 0x344A PUSH2 0x3250 JUMP JUMPDEST JUMPDEST SWAP3 SWAP2 POP POP JUMP INVALID LOG2 PUSH5 0x6970667358 0x22 SLT KECCAK256 EOFCREATE 0x1B NUMBER EXTCODESIZE 0xDF KECCAK256 0xE8 0x23 TIMESTAMP LOG4 REVERT SWAP3 DELEGATECALL CLZ CODESIZE PUSH29 0x4F463C48819CB69F5E1ABA895FAA469664736F6C634300082200330000 "
		},
		"gasEstimates": {
			"creation": {
				"codeDepositCost": "2689400",
				"executionCost": "infinite",
				"totalCost": "infinite"
			},
			"external": {
				"initializeFund()": "infinite",
				"initialized()": "2563",
				"issuer()": "2576",
				"maxOracleDelay()": "2471",
				"mintPaused()": "2562",
				"mintWithUSDC(uint256,uint256)": "infinite",
				"navPerTokenUSD18()": "infinite",
				"oracle()": "infinite",
				"owner()": "2581",
				"previewMintWithUSDC(uint256)": "infinite",
				"previewRedeem(uint256)": "infinite",
				"redeem(uint256,uint256)": "infinite",
				"redeemPaused()": "2650",
				"renounceOwnership()": "infinite",
				"requestRedeem(uint256)": "infinite",
				"rwaToken()": "infinite",
				"setIssuer(address)": "infinite",
				"setMaxOracleDelay(uint256)": "infinite",
				"setMintPaused(bool)": "infinite",
				"setOracle(address)": "infinite",
				"setRedeemPaused(bool)": "infinite",
				"setUSDC(address)": "infinite",
				"totalBackingValueUSD18()": "infinite",
				"transferOwnership(address)": "infinite",
				"usdc()": "infinite",
				"vaultUSDCBalance()": "infinite"
			},
			"internal": {
				"_getValidOracleData()": "infinite",
				"_navPerTokenUSD18(struct ReserveData memory)": "infinite",
				"_quoteMintWithUSDC(uint256,uint256)": "infinite",
				"_quoteRedeem(uint256,uint256)": "infinite",
				"_totalBackingValueUSD18(struct ReserveData memory)": "infinite"
			}
		},
		"methodIdentifiers": {
			"initializeFund()": "72b823c3",
			"initialized()": "158ef93e",
			"issuer()": "1d143848",
			"maxOracleDelay()": "52f1edcc",
			"mintPaused()": "7e4831d3",
			"mintWithUSDC(uint256,uint256)": "47082dac",
			"navPerTokenUSD18()": "675a5c0b",
			"oracle()": "7dc0d1d0",
			"owner()": "8da5cb5b",
			"previewMintWithUSDC(uint256)": "c40d111c",
			"previewRedeem(uint256)": "4cdad506",
			"redeem(uint256,uint256)": "7cbc2373",
			"redeemPaused()": "b235d468",
			"renounceOwnership()": "715018a6",
			"requestRedeem(uint256)": "aa2f892d",
			"rwaToken()": "0c5bf351",
			"setIssuer(address)": "55cc4e57",
			"setMaxOracleDelay(uint256)": "cd3b691c",
			"setMintPaused(bool)": "b6935501",
			"setOracle(address)": "7adbf973",
			"setRedeemPaused(bool)": "ccb99c26",
			"setUSDC(address)": "b3e089a2",
			"totalBackingValueUSD18()": "8e827cb5",
			"transferOwnership(address)": "f2fde38b",
			"usdc()": "3e413bee",
			"vaultUSDCBalance()": "bc34e6da"
		}
	},
	"abi": [
		{
			"inputs": [
				{
					"internalType": "address",
					"name": "_oracle",
					"type": "address"
				},
				{
					"internalType": "address",
					"name": "_usdc",
					"type": "address"
				},
				{
					"internalType": "address",
					"name": "_rwaToken",
					"type": "address"
				},
				{
					"internalType": "address",
					"name": "_issuer",
					"type": "address"
				},
				{
					"internalType": "uint256",
					"name": "_initialNAVUSD18",
					"type": "uint256"
				},
				{
					"internalType": "uint256",
					"name": "_maxOracleDelay",
					"type": "uint256"
				}
			],
			"stateMutability": "nonpayable",
			"type": "constructor"
		},
		{
			"inputs": [
				{
					"internalType": "address",
					"name": "owner",
					"type": "address"
				}
			],
			"name": "OwnableInvalidOwner",
			"type": "error"
		},
		{
			"inputs": [
				{
					"internalType": "address",
					"name": "account",
					"type": "address"
				}
			],
			"name": "OwnableUnauthorizedAccount",
			"type": "error"
		},
		{
			"inputs": [],
			"name": "ReentrancyGuardReentrantCall",
			"type": "error"
		},
		{
			"inputs": [
				{
					"internalType": "address",
					"name": "token",
					"type": "address"
				}
			],
			"name": "SafeERC20FailedOperation",
			"type": "error"
		},
		{
			"anonymous": false,
			"inputs": [
				{
					"indexed": true,
					"internalType": "address",
					"name": "issuer",
					"type": "address"
				},
				{
					"indexed": false,
					"internalType": "uint256",
					"name": "adjustedOffchainReserveUSD18",
					"type": "uint256"
				},
				{
					"indexed": false,
					"internalType": "uint256",
					"name": "initialNAVUSD18",
					"type": "uint256"
				},
				{
					"indexed": false,
					"internalType": "uint256",
					"name": "initialSupply",
					"type": "uint256"
				}
			],
			"name": "FundInitialized",
			"type": "event"
		},
		{
			"anonymous": false,
			"inputs": [
				{
					"indexed": true,
					"internalType": "address",
					"name": "issuer",
					"type": "address"
				}
			],
			"name": "IssuerSet",
			"type": "event"
		},
		{
			"anonymous": false,
			"inputs": [
				{
					"indexed": false,
					"internalType": "uint256",
					"name": "maxOracleDelay",
					"type": "uint256"
				}
			],
			"name": "MaxOracleDelaySet",
			"type": "event"
		},
		{
			"anonymous": false,
			"inputs": [
				{
					"indexed": false,
					"internalType": "bool",
					"name": "paused",
					"type": "bool"
				}
			],
			"name": "MintPausedSet",
			"type": "event"
		},
		{
			"anonymous": false,
			"inputs": [
				{
					"indexed": true,
					"internalType": "address",
					"name": "user",
					"type": "address"
				},
				{
					"indexed": false,
					"internalType": "uint256",
					"name": "usdcPaid",
					"type": "uint256"
				},
				{
					"indexed": false,
					"internalType": "uint256",
					"name": "navUSD18",
					"type": "uint256"
				},
				{
					"indexed": false,
					"internalType": "uint256",
					"name": "rwaMinted",
					"type": "uint256"
				}
			],
			"name": "Minted",
			"type": "event"
		},
		{
			"anonymous": false,
			"inputs": [
				{
					"indexed": true,
					"internalType": "address",
					"name": "oracle",
					"type": "address"
				}
			],
			"name": "OracleSet",
			"type": "event"
		},
		{
			"anonymous": false,
			"inputs": [
				{
					"indexed": true,
					"internalType": "address",
					"name": "previousOwner",
					"type": "address"
				},
				{
					"indexed": true,
					"internalType": "address",
					"name": "newOwner",
					"type": "address"
				}
			],
			"name": "OwnershipTransferred",
			"type": "event"
		},
		{
			"anonymous": false,
			"inputs": [
				{
					"indexed": false,
					"internalType": "bool",
					"name": "paused",
					"type": "bool"
				}
			],
			"name": "RedeemPausedSet",
			"type": "event"
		},
		{
			"anonymous": false,
			"inputs": [
				{
					"indexed": true,
					"internalType": "address",
					"name": "user",
					"type": "address"
				},
				{
					"indexed": false,
					"internalType": "uint256",
					"name": "rwaBurned",
					"type": "uint256"
				},
				{
					"indexed": false,
					"internalType": "uint256",
					"name": "navUSD18",
					"type": "uint256"
				},
				{
					"indexed": false,
					"internalType": "uint256",
					"name": "usdcPaid",
					"type": "uint256"
				}
			],
			"name": "Redeemed",
			"type": "event"
		},
		{
			"anonymous": false,
			"inputs": [
				{
					"indexed": true,
					"internalType": "address",
					"name": "user",
					"type": "address"
				},
				{
					"indexed": false,
					"internalType": "uint256",
					"name": "rwaAmount",
					"type": "uint256"
				},
				{
					"indexed": false,
					"internalType": "uint256",
					"name": "navUSD18",
					"type": "uint256"
				},
				{
					"indexed": false,
					"internalType": "uint256",
					"name": "expectedUSDCAmount",
					"type": "uint256"
				}
			],
			"name": "RedemptionRequested",
			"type": "event"
		},
		{
			"anonymous": false,
			"inputs": [
				{
					"indexed": true,
					"internalType": "address",
					"name": "usdc",
					"type": "address"
				}
			],
			"name": "USDCSet",
			"type": "event"
		},
		{
			"inputs": [],
			"name": "initializeFund",
			"outputs": [],
			"stateMutability": "nonpayable",
			"type": "function"
		},
		{
			"inputs": [],
			"name": "initialized",
			"outputs": [
				{
					"internalType": "bool",
					"name": "",
					"type": "bool"
				}
			],
			"stateMutability": "view",
			"type": "function"
		},
		{
			"inputs": [],
			"name": "issuer",
			"outputs": [
				{
					"internalType": "address",
					"name": "",
					"type": "address"
				}
			],
			"stateMutability": "view",
			"type": "function"
		},
		{
			"inputs": [],
			"name": "maxOracleDelay",
			"outputs": [
				{
					"internalType": "uint256",
					"name": "",
					"type": "uint256"
				}
			],
			"stateMutability": "view",
			"type": "function"
		},
		{
			"inputs": [],
			"name": "mintPaused",
			"outputs": [
				{
					"internalType": "bool",
					"name": "",
					"type": "bool"
				}
			],
			"stateMutability": "view",
			"type": "function"
		},
		{
			"inputs": [
				{
					"internalType": "uint256",
					"name": "maxUSDCIn",
					"type": "uint256"
				},
				{
					"internalType": "uint256",
					"name": "minRwaOut",
					"type": "uint256"
				}
			],
			"name": "mintWithUSDC",
			"outputs": [
				{
					"internalType": "uint256",
					"name": "rwaAmount",
					"type": "uint256"
				},
				{
					"internalType": "uint256",
					"name": "usdcRequired",
					"type": "uint256"
				}
			],
			"stateMutability": "nonpayable",
			"type": "function"
		},
		{
			"inputs": [],
			"name": "navPerTokenUSD18",
			"outputs": [
				{
					"internalType": "uint256",
					"name": "",
					"type": "uint256"
				}
			],
			"stateMutability": "view",
			"type": "function"
		},
		{
			"inputs": [],
			"name": "oracle",
			"outputs": [
				{
					"internalType": "contract IReserveOracle",
					"name": "",
					"type": "address"
				}
			],
			"stateMutability": "view",
			"type": "function"
		},
		{
			"inputs": [],
			"name": "owner",
			"outputs": [
				{
					"internalType": "address",
					"name": "",
					"type": "address"
				}
			],
			"stateMutability": "view",
			"type": "function"
		},
		{
			"inputs": [
				{
					"internalType": "uint256",
					"name": "maxUSDCIn",
					"type": "uint256"
				}
			],
			"name": "previewMintWithUSDC",
			"outputs": [
				{
					"internalType": "uint256",
					"name": "rwaAmount",
					"type": "uint256"
				},
				{
					"internalType": "uint256",
					"name": "usdcRequired",
					"type": "uint256"
				}
			],
			"stateMutability": "view",
			"type": "function"
		},
		{
			"inputs": [
				{
					"internalType": "uint256",
					"name": "maxRwaIn",
					"type": "uint256"
				}
			],
			"name": "previewRedeem",
			"outputs": [
				{
					"internalType": "uint256",
					"name": "rwaRequired",
					"type": "uint256"
				},
				{
					"internalType": "uint256",
					"name": "usdcAmount",
					"type": "uint256"
				}
			],
			"stateMutability": "view",
			"type": "function"
		},
		{
			"inputs": [
				{
					"internalType": "uint256",
					"name": "maxRwaIn",
					"type": "uint256"
				},
				{
					"internalType": "uint256",
					"name": "minUSDCOut",
					"type": "uint256"
				}
			],
			"name": "redeem",
			"outputs": [
				{
					"internalType": "uint256",
					"name": "rwaRequired",
					"type": "uint256"
				},
				{
					"internalType": "uint256",
					"name": "usdcAmount",
					"type": "uint256"
				}
			],
			"stateMutability": "nonpayable",
			"type": "function"
		},
		{
			"inputs": [],
			"name": "redeemPaused",
			"outputs": [
				{
					"internalType": "bool",
					"name": "",
					"type": "bool"
				}
			],
			"stateMutability": "view",
			"type": "function"
		},
		{
			"inputs": [],
			"name": "renounceOwnership",
			"outputs": [],
			"stateMutability": "nonpayable",
			"type": "function"
		},
		{
			"inputs": [
				{
					"internalType": "uint256",
					"name": "maxRwaIn",
					"type": "uint256"
				}
			],
			"name": "requestRedeem",
			"outputs": [],
			"stateMutability": "nonpayable",
			"type": "function"
		},
		{
			"inputs": [],
			"name": "rwaToken",
			"outputs": [
				{
					"internalType": "contract IRWAToken",
					"name": "",
					"type": "address"
				}
			],
			"stateMutability": "view",
			"type": "function"
		},
		{
			"inputs": [
				{
					"internalType": "address",
					"name": "_issuer",
					"type": "address"
				}
			],
			"name": "setIssuer",
			"outputs": [],
			"stateMutability": "nonpayable",
			"type": "function"
		},
		{
			"inputs": [
				{
					"internalType": "uint256",
					"name": "_maxOracleDelay",
					"type": "uint256"
				}
			],
			"name": "setMaxOracleDelay",
			"outputs": [],
			"stateMutability": "nonpayable",
			"type": "function"
		},
		{
			"inputs": [
				{
					"internalType": "bool",
					"name": "paused",
					"type": "bool"
				}
			],
			"name": "setMintPaused",
			"outputs": [],
			"stateMutability": "nonpayable",
			"type": "function"
		},
		{
			"inputs": [
				{
					"internalType": "address",
					"name": "_oracle",
					"type": "address"
				}
			],
			"name": "setOracle",
			"outputs": [],
			"stateMutability": "nonpayable",
			"type": "function"
		},
		{
			"inputs": [
				{
					"internalType": "bool",
					"name": "paused",
					"type": "bool"
				}
			],
			"name": "setRedeemPaused",
			"outputs": [],
			"stateMutability": "nonpayable",
			"type": "function"
		},
		{
			"inputs": [
				{
					"internalType": "address",
					"name": "_oracle",
					"type": "address"
				}
			],
			"name": "setUSDC",
			"outputs": [],
			"stateMutability": "nonpayable",
			"type": "function"
		},
		{
			"inputs": [],
			"name": "totalBackingValueUSD18",
			"outputs": [
				{
					"internalType": "uint256",
					"name": "",
					"type": "uint256"
				}
			],
			"stateMutability": "view",
			"type": "function"
		},
		{
			"inputs": [
				{
					"internalType": "address",
					"name": "newOwner",
					"type": "address"
				}
			],
			"name": "transferOwnership",
			"outputs": [],
			"stateMutability": "nonpayable",
			"type": "function"
		},
		{
			"inputs": [],
			"name": "usdc",
			"outputs": [
				{
					"internalType": "contract IERC20",
					"name": "",
					"type": "address"
				}
			],
			"stateMutability": "view",
			"type": "function"
		},
		{
			"inputs": [],
			"name": "vaultUSDCBalance",
			"outputs": [
				{
					"internalType": "uint256",
					"name": "",
					"type": "uint256"
				}
			],
			"stateMutability": "view",
			"type": "function"
		}
	]
}