{
	"data": {
		"bytecode": {
			"linkReferences": {},
			"object": "610160604052348015610010575f5ffd5b50604051613f91380380613f918339818101604052810190610032919061071e565b335f73ffffffffffffffffffffffffffffffffffffffff168173ffffffffffffffffffffffffffffffffffffffff16036100a3575f6040517f1e4fbdf700000000000000000000000000000000000000000000000000000000815260040161009a91906107b6565b60405180910390fd5b6100b28161059a60201b60201c565b5060016100d16100c661065b60201b60201c565b61068460201b60201c565b5f01819055505f73ffffffffffffffffffffffffffffffffffffffff168673ffffffffffffffffffffffffffffffffffffffff1603610145576040517f08c379a000000000000000000000000000000000000000000000000000000000815260040161013c90610829565b60405180910390fd5b5f73ffffffffffffffffffffffffffffffffffffffff168573ffffffffffffffffffffffffffffffffffffffff16036101b3576040517f08c379a00000000000000000000000000000000000000000000000000000000081526004016101aa90610891565b60405180910390fd5b5f73ffffffffffffffffffffffffffffffffffffffff168473ffffffffffffffffffffffffffffffffffffffff1603610221576040517f08c379a0000000000000000000000000000000000000000000000000000000008152600401610218906108f9565b60405180910390fd5b5f73ffffffffffffffffffffffffffffffffffffffff168373ffffffffffffffffffffffffffffffffffffffff160361028f576040517f08c379a000000000000000000000000000000000000000000000000000000000815260040161028690610961565b60405180910390fd5b5f82116102d1576040517f08c379a00000000000000000000000000000000000000000000000000000000081526004016102c8906109c9565b60405180910390fd5b8560015f6101000a81548173ffffffffffffffffffffffffffffffffffffffff021916908373ffffffffffffffffffffffffffffffffffffffff1602179055508473ffffffffffffffffffffffffffffffffffffffff1660808173ffffffffffffffffffffffffffffffffffffffff16815250508373ffffffffffffffffffffffffffffffffffffffff1660a08173ffffffffffffffffffffffffffffffffffffffff16815250508260025f6101000a81548173ffffffffffffffffffffffffffffffffffffffff021916908373ffffffffffffffffffffffffffffffffffffffff1602179055508161014081815250508473ffffffffffffffffffffffffffffffffffffffff1663313ce5676040518163ffffffff1660e01b8152600401602060405180830381865afa15801561040b573d5f5f3e3d5ffd5b505050506040513d601f19601f8201168201806040525081019061042f9190610a1d565b60ff1660c08160ff16815250508373ffffffffffffffffffffffffffffffffffffffff1663313ce5676040518163ffffffff1660e01b8152600401602060405180830381865afa158015610485573d5f5f3e3d5ffd5b505050506040513d601f19601f820116820180604052508101906104a99190610a1d565b60ff1660e08160ff1681525050601260c05160ff1611156104ff576040517f08c379a00000000000000000000000000000000000000000000000000000000081526004016104f690610a92565b60405180910390fd5b601260e05160ff161115610548576040517f08c379a000000000000000000000000000000000000000000000000000000000815260040161053f90610afa565b60405180910390fd5b60e05160ff16600a61055a9190610c74565b610100818152505060c05160126105719190610cbe565b60ff16600a6105809190610c74565b610120818152505080600381905550505050505050610cf2565b5f5f5f9054906101000a900473ffffffffffffffffffffffffffffffffffffffff169050815f5f6101000a81548173ffffffffffffffffffffffffffffffffffffffff021916908373ffffffffffffffffffffffffffffffffffffffff1602179055508173ffffffffffffffffffffffffffffffffffffffff168173ffffffffffffffffffffffffffffffffffffffff167f8be0079c531659141344cd1fd0a4f28419497f9722a3daafe3b4186f6b6457e060405160405180910390a35050565b5f7f9b779b17422d0df92223018b32b4d1fa46e071723d6817e2486d003becc55f005f1b905090565b5f819050919050565b5f5ffd5b5f73ffffffffffffffffffffffffffffffffffffffff82169050919050565b5f6106ba82610691565b9050919050565b6106ca816106b0565b81146106d4575f5ffd5b50565b5f815190506106e5816106c1565b92915050565b5f819050919050565b6106fd816106eb565b8114610707575f5ffd5b50565b5f81519050610718816106f4565b92915050565b5f5f5f5f5f5f60c087890312156107385761073761068d565b5b5f61074589828a016106d7565b965050602061075689828a016106d7565b955050604061076789828a016106d7565b945050606061077889828a016106d7565b935050608061078989828a0161070a565b92505060a061079a89828a0161070a565b9150509295509295509295565b6107b0816106b0565b82525050565b5f6020820190506107c95f8301846107a7565b92915050565b5f82825260208201905092915050565b7f626164206f7261636c65000000000000000000000000000000000000000000005f82015250565b5f610813600a836107cf565b915061081e826107df565b602082019050919050565b5f6020820190508181035f83015261084081610807565b9050919050565b7f62616420757364630000000000000000000000000000000000000000000000005f82015250565b5f61087b6008836107cf565b915061088682610847565b602082019050919050565b5f6020820190508181035f8301526108a88161086f565b9050919050565b7f6261642072776120746f6b656e000000000000000000000000000000000000005f82015250565b5f6108e3600d836107cf565b91506108ee826108af565b602082019050919050565b5f6020820190508181035f830152610910816108d7565b9050919050565b7f62616420697373756572000000000000000000000000000000000000000000005f82015250565b5f61094b600a836107cf565b915061095682610917565b602082019050919050565b5f6020820190508181035f8301526109788161093f565b9050919050565b7f62616420696e697469616c204e415600000000000000000000000000000000005f82015250565b5f6109b3600f836107cf565b91506109be8261097f565b602082019050919050565b5f6020820190508181035f8301526109e0816109a7565b9050919050565b5f60ff82169050919050565b6109fc816109e7565b8114610a06575f5ffd5b50565b5f81519050610a17816109f3565b92915050565b5f60208284031215610a3257610a3161068d565b5b5f610a3f84828501610a09565b91505092915050565b7f5553444320646563696d616c7320746f6f2068696768000000000000000000005f82015250565b5f610a7c6016836107cf565b9150610a8782610a48565b602082019050919050565b5f6020820190508181035f830152610aa981610a70565b9050919050565b7f52574120646563696d616c7320746f6f206869676800000000000000000000005f82015250565b5f610ae46015836107cf565b9150610aef82610ab0565b602082019050919050565b5f6020820190508181035f830152610b1181610ad8565b9050919050565b7f4e487b71000000000000000000000000000000000000000000000000000000005f52601160045260245ffd5b5f8160011c9050919050565b5f5f8291508390505b6001851115610b9a57808604811115610b7657610b75610b18565b5b6001851615610b855780820291505b8081029050610b9385610b45565b9450610b5a565b94509492505050565b5f82610bb25760019050610c6d565b81610bbf575f9050610c6d565b8160018114610bd55760028114610bdf57610c0e565b6001915050610c6d565b60ff841115610bf157610bf0610b18565b5b8360020a915084821115610c0857610c07610b18565b5b50610c6d565b5060208310610133831016604e8410600b8410161715610c435782820a905083811115610c3e57610c3d610b18565b5b610c6d565b610c508484846001610b51565b92509050818404811115610c6757610c66610b18565b5b81810290505b9392505050565b5f610c7e826106eb565b9150610c89836106eb565b9250610cb67fffffffffffffffffffffffffffffffffffffffffffffffffffffffffffffffff8484610ba3565b905092915050565b5f610cc8826109e7565b9150610cd3836109e7565b9250828203905060ff811115610cec57610ceb610b18565b5b92915050565b60805160a05160c05160e0516101005161012051610140516131ba610dd75f395f8181610a1901528181610b1a01528181610cd9015261193401525f81816119ef01528181611aa501528181611bc401528181611c060152611e1201525f8181610b3b0152818161196a01528181611a1e01528181611a7901528181611b8b0152611c3701525f50505f50505f818161047b015281816107660152818161098301528181610bd30152818161110a015261189e01525f81816104d70152818161071f0152818161103101528181611197015281816114bf0152611e3301526131ba5ff3fe608060405234801561000f575f5ffd5b5060043610610171575f3560e01c80637cbc2373116100dc578063b235d46811610095578063c40d111c1161006f578063c40d111c146103f4578063ccb99c2614610425578063cd3b691c14610441578063f2fde38b1461045d57610171565b8063b235d4681461039c578063b6935501146103ba578063bc34e6da146103d657610171565b80637cbc2373146102d75780637dc0d1d0146103085780637e4831d3146103265780638da5cb5b146103445780638e827cb514610362578063aa2f892d1461038057610171565b806352f1edcc1161012e57806352f1edcc1461024f57806355cc4e571461026d578063675a5c0b14610289578063715018a6146102a757806372b823c3146102b15780637adbf973146102bb57610171565b80630c5bf35114610175578063158ef93e146101935780631d143848146101b15780633e413bee146101cf57806347082dac146101ed5780634cdad5061461021e575b5f5ffd5b61017d610479565b60405161018a9190612174565b60405180910390f35b61019b61049d565b6040516101a891906121a7565b60405180910390f35b6101b96104b0565b6040516101c691906121e0565b60405180910390f35b6101d76104d5565b6040516101e49190612219565b60405180910390f35b61020760048036038101906102029190612272565b6104f9565b6040516102159291906122bf565b60405180910390f35b610238600480360381019061023391906122e6565b61084f565b6040516102469291906122bf565b60405180910390f35b61025761087d565b6040516102649190612311565b60405180910390f35b61028760048036038101906102829190612354565b610883565b005b61029161097f565b60405161029e9190612311565b60405180910390f35b6102af610a5c565b005b6102b9610a6f565b005b6102d560048036038101906102d09190612354565b610d14565b005b6102f160048036038101906102ec9190612272565b610e10565b6040516102ff9291906122bf565b60405180910390f35b61031061123e565b60405161031d919061239f565b60405180910390f35b61032e611263565b60405161033b91906121a7565b60405180910390f35b61034c611276565b60405161035991906121e0565b60405180910390f35b61036a61129d565b6040516103779190612311565b60405180910390f35b61039a600480360381019061039591906122e6565b6112b8565b005b6103a461144d565b6040516103b191906121a7565b60405180910390f35b6103d460048036038101906103cf91906123e2565b611460565b005b6103de6114bc565b6040516103eb9190612311565b60405180910390f35b61040e600480360381019061040991906122e6565b61155a565b60405161041c9291906122bf565b60405180910390f35b61043f600480360381019061043a91906123e2565b611588565b005b61045b600480360381019061045691906122e6565b6115e4565b005b61047760048036038101906104729190612354565b61166f565b005b7f000000000000000000000000000000000000000000000000000000000000000081565b600260149054906101000a900460ff1681565b60025f9054906101000a900473ffffffffffffffffffffffffffffffffffffffff1681565b7f000000000000000000000000000000000000000000000000000000000000000081565b5f5f6105036116f3565b600260149054906101000a900460ff16610552576040517f08c379a000000000000000000000000000000000000000000000000000000000815260040161054990612467565b60405180910390fd5b600260159054906101000a900460ff16156105a2576040517f08c379a0000000000000000000000000000000000000000000000000000000008152600401610599906124cf565b60405180910390fd5b5f84116105e4576040517f08c379a00000000000000000000000000000000000000000000000000000000081526004016105db90612537565b60405180910390fd5b5f6105ed611715565b90505f6105f98261189a565b905061060586826119a8565b80945081955050505f841161064f576040517f08c379a00000000000000000000000000000000000000000000000000000000081526004016106469061259f565b60405180910390fd5b84841015610692576040517f08c379a000000000000000000000000000000000000000000000000000000000815260040161068990612607565b60405180910390fd5b5f83116106d4576040517f08c379a00000000000000000000000000000000000000000000000000000000081526004016106cb9061266f565b60405180910390fd5b85831115610717576040517f08c379a000000000000000000000000000000000000000000000000000000000815260040161070e906126d7565b60405180910390fd5b6107643330857f000000000000000000000000000000000000000000000000000000000000000073ffffffffffffffffffffffffffffffffffffffff16611ad5909392919063ffffffff16565b7f000000000000000000000000000000000000000000000000000000000000000073ffffffffffffffffffffffffffffffffffffffff166340c10f1933866040518363ffffffff1660e01b81526004016107bf9291906126f5565b5f604051808303815f87803b1580156107d6575f5ffd5b505af11580156107e8573d5f5f3e3d5ffd5b505050503373ffffffffffffffffffffffffffffffffffffffff167f5a3358a3d27a5373c0df2604662088d37894d56b7cfd27f315770440f4e0d9198483876040516108369392919061271c565b60405180910390a25050610848611b2a565b9250929050565b5f5f5f61085a611715565b90505f6108668261189a565b90506108728582611b44565b935093505050915091565b60035481565b61088b611c73565b5f73ffffffffffffffffffffffffffffffffffffffff168173ffffffffffffffffffffffffffffffffffffffff16036108f9576040517f08c379a00000000000000000000000000000000000000000000000000000000081526004016108f09061279b565b60405180910390fd5b8060025f6101000a81548173ffffffffffffffffffffffffffffffffffffffff021916908373ffffffffffffffffffffffffffffffffffffffff1602179055508073ffffffffffffffffffffffffffffffffffffffff167f141c634522c8bfcf25beba4c524ac0c87de0db74ebe83168cf5f3bf4d45fd89860405160405180910390a250565b5f5f7f000000000000000000000000000000000000000000000000000000000000000073ffffffffffffffffffffffffffffffffffffffff166318160ddd6040518163ffffffff1660e01b8152600401602060405180830381865afa1580156109ea573d5f5f3e3d5ffd5b505050506040513d601f19601f82011682018060405250810190610a0e91906127cd565b90505f8103610a40577f0000000000000000000000000000000000000000000000000000000000000000915050610a59565b5f610a49611715565b9050610a548161189a565b925050505b90565b610a64611c73565b610a6d5f611cfa565b565b610a77611c73565b600260149054906101000a900460ff1615610ac7576040517f08c379a0000000000000000000000000000000000000000000000000000000008152600401610abe90612842565b60405180910390fd5b5f610ad0611715565b90505f815f015111610b17576040517f08c379a0000000000000000000000000000000000000000000000000000000008152600401610b0e906128aa565b60405180910390fd5b5f7f00000000000000000000000000000000000000000000000000000000000000007f0000000000000000000000000000000000000000000000000000000000000000835f0151610b6891906128f5565b610b729190612963565b90505f8111610bb6576040517f08c379a0000000000000000000000000000000000000000000000000000000008152600401610bad906129dd565b60405180910390fd5b6001600260146101000a81548160ff0219169083151502179055507f000000000000000000000000000000000000000000000000000000000000000073ffffffffffffffffffffffffffffffffffffffff166340c10f1960025f9054906101000a900473ffffffffffffffffffffffffffffffffffffffff16836040518363ffffffff1660e01b8152600401610c4d9291906126f5565b5f604051808303815f87803b158015610c64575f5ffd5b505af1158015610c76573d5f5f3e3d5ffd5b5050505060025f9054906101000a900473ffffffffffffffffffffffffffffffffffffffff1673ffffffffffffffffffffffffffffffffffffffff167f7daa9e69e51aae98674a933164ca91b034cb5856823c3ea6a98065ba29e97283835f01517f000000000000000000000000000000000000000000000000000000000000000084604051610d089392919061271c565b60405180910390a25050565b610d1c611c73565b5f73ffffffffffffffffffffffffffffffffffffffff168173ffffffffffffffffffffffffffffffffffffffff1603610d8a576040517f08c379a0000000000000000000000000000000000000000000000000000000008152600401610d8190612a45565b60405180910390fd5b8060015f6101000a81548173ffffffffffffffffffffffffffffffffffffffff021916908373ffffffffffffffffffffffffffffffffffffffff1602179055508073ffffffffffffffffffffffffffffffffffffffff167f3f32684a32a11dabdbb8c0177de80aa3ae36a004d75210335b49e544e48cd0aa60405160405180910390a250565b5f5f610e1a6116f3565b600260149054906101000a900460ff16610e69576040517f08c379a0000000000000000000000000000000000000000000000000000000008152600401610e6090612467565b60405180910390fd5b600260169054906101000a900460ff1615610eb9576040517f08c379a0000000000000000000000000000000000000000000000000000000008152600401610eb090612aad565b60405180910390fd5b5f8411610efb576040517f08c379a0000000000000000000000000000000000000000000000000000000008152600401610ef290612b15565b60405180910390fd5b5f610f04611715565b90505f610f108261189a565b9050610f1c8682611b44565b80945081955050505f8411610f66576040517f08c379a0000000000000000000000000000000000000000000000000000000008152600401610f5d90612b7d565b60405180910390fd5b85841115610fa9576040517f08c379a0000000000000000000000000000000000000000000000000000000008152600401610fa090612be5565b60405180910390fd5b5f8311610feb576040517f08c379a0000000000000000000000000000000000000000000000000000000008152600401610fe290612c4d565b60405180910390fd5b8483101561102e576040517f08c379a000000000000000000000000000000000000000000000000000000000815260040161102590612cb5565b60405180910390fd5b827f000000000000000000000000000000000000000000000000000000000000000073ffffffffffffffffffffffffffffffffffffffff166370a08231306040518263ffffffff1660e01b815260040161108891906121e0565b602060405180830381865afa1580156110a3573d5f5f3e3d5ffd5b505050506040513d601f19601f820116820180604052508101906110c791906127cd565b1015611108576040517f08c379a00000000000000000000000000000000000000000000000000000000081526004016110ff90612d1d565b60405180910390fd5b7f000000000000000000000000000000000000000000000000000000000000000073ffffffffffffffffffffffffffffffffffffffff16639dc29fac33866040518363ffffffff1660e01b81526004016111639291906126f5565b5f604051808303815f87803b15801561117a575f5ffd5b505af115801561118c573d5f5f3e3d5ffd5b505050506111db33847f000000000000000000000000000000000000000000000000000000000000000073ffffffffffffffffffffffffffffffffffffffff16611dbb9092919063ffffffff16565b3373ffffffffffffffffffffffffffffffffffffffff167f484c40561359f3e3b8be9101897f8680aa82fbe1df9fd9038e0dbc62840326468583866040516112259392919061271c565b60405180910390a25050611237611b2a565b9250929050565b60015f9054906101000a900473ffffffffffffffffffffffffffffffffffffffff1681565b600260159054906101000a900460ff1681565b5f5f5f9054906101000a900473ffffffffffffffffffffffffffffffffffffffff16905090565b5f5f6112a7611715565b90506112b281611e0e565b91505090565b600260149054906101000a900460ff16611307576040517f08c379a00000000000000000000000000000000000000000000000000000000081526004016112fe90612467565b60405180910390fd5b5f8111611349576040517f08c379a000000000000000000000000000000000000000000000000000000000815260040161134090612b15565b60405180910390fd5b5f611352611715565b90505f61135e8261189a565b90505f5f61136c8584611b44565b915091505f82116113b2576040517f08c379a00000000000000000000000000000000000000000000000000000000081526004016113a990612b7d565b60405180910390fd5b5f81116113f4576040517f08c379a00000000000000000000000000000000000000000000000000000000081526004016113eb90612c4d565b60405180910390fd5b3373ffffffffffffffffffffffffffffffffffffffff167f5952c21ab4e64f9ce2d0daf53a8286da3c634eab5a86ccdf38ebefc3087ea30183858460405161143e9392919061271c565b60405180910390a25050505050565b600260169054906101000a900460ff1681565b611468611c73565b80600260156101000a81548160ff0219169083151502179055507f0fb79081612032f5ce63340f421121d9f8b8ea04158f08b2dfafacb3393caf98816040516114b191906121a7565b60405180910390a150565b5f7f000000000000000000000000000000000000000000000000000000000000000073ffffffffffffffffffffffffffffffffffffffff166370a08231306040518263ffffffff1660e01b815260040161151691906121e0565b602060405180830381865afa158015611531573d5f5f3e3d5ffd5b505050506040513d601f19601f8201168201806040525081019061155591906127cd565b905090565b5f5f5f611565611715565b90505f6115718261189a565b905061157d85826119a8565b935093505050915091565b611590611c73565b80600260166101000a81548160ff0219169083151502179055507fcab6eb524363ce625bcd6d709065fe3433487efebb486f47d00f3c310e952b63816040516115d991906121a7565b60405180910390a150565b6115ec611c73565b5f811161162e576040517f08c379a000000000000000000000000000000000000000000000000000000000815260040161162590612d85565b60405180910390fd5b806003819055507fb321aa162c9f5d4bbd1aee2493d56a1de75f6b43eb21e6987f5c67230000a3ca816040516116649190612311565b60405180910390a150565b611677611c73565b5f73ffffffffffffffffffffffffffffffffffffffff168173ffffffffffffffffffffffffffffffffffffffff16036116e7575f6040517f1e4fbdf70000000000000000000000000000000000000000000000000000000081526004016116de91906121e0565b60405180910390fd5b6116f081611cfa565b50565b6116fb611eec565b600261170d611708611f2d565b611f56565b5f0181905550565b61171d6120d4565b60015f9054906101000a900473ffffffffffffffffffffffffffffffffffffffff1673ffffffffffffffffffffffffffffffffffffffff1663186f34d56040518163ffffffff1660e01b8152600401608060405180830381865afa158015611787573d5f5f3e3d5ffd5b505050506040513d601f19601f820116820180604052508101906117ab9190612eeb565b905080602001516117f1576040517f08c379a00000000000000000000000000000000000000000000000000000000081526004016117e890612f60565b60405180910390fd5b5f816040015111611837576040517f08c379a000000000000000000000000000000000000000000000000000000000815260040161182e90612fc8565b60405180910390fd5b5f600354148061185857506003548160400151426118559190612fe6565b11155b611897576040517f08c379a000000000000000000000000000000000000000000000000000000000815260040161188e90613063565b60405180910390fd5b90565b5f5f7f000000000000000000000000000000000000000000000000000000000000000073ffffffffffffffffffffffffffffffffffffffff166318160ddd6040518163ffffffff1660e01b8152600401602060405180830381865afa158015611905573d5f5f3e3d5ffd5b505050506040513d601f19601f8201168201806040525081019061192991906127cd565b90505f810361195b577f00000000000000000000000000000000000000000000000000000000000000009150506119a3565b5f61196584611e0e565b9050817f00000000000000000000000000000000000000000000000000000000000000008261199491906128f5565b61199e9190612963565b925050505b919050565b5f5f5f83116119ec576040517f08c379a00000000000000000000000000000000000000000000000000000000081526004016119e3906130cb565b60405180910390fd5b5f7f000000000000000000000000000000000000000000000000000000000000000085611a1991906128f5565b9050837f000000000000000000000000000000000000000000000000000000000000000082611a4891906128f5565b611a529190612963565b92505f8303611a67575f5f9250925050611ace565b5f611a9d8585611a7791906128f5565b7f0000000000000000000000000000000000000000000000000000000000000000611f5f565b9050611ac9817f0000000000000000000000000000000000000000000000000000000000000000611f5f565b925050505b9250929050565b611ae3848484846001611fde565b611b2457836040517f5274afe7000000000000000000000000000000000000000000000000000000008152600401611b1b91906121e0565b60405180910390fd5b50505050565b6001611b3c611b37611f2d565b611f56565b5f0181905550565b5f5f5f8311611b88576040517f08c379a0000000000000000000000000000000000000000000000000000000008152600401611b7f906130cb565b60405180910390fd5b5f7f00000000000000000000000000000000000000000000000000000000000000008486611bb691906128f5565b611bc09190612963565b90507f000000000000000000000000000000000000000000000000000000000000000081611bee9190612963565b91505f8203611c03575f5f9250925050611c6c565b5f7f000000000000000000000000000000000000000000000000000000000000000083611c3091906128f5565b9050611c677f000000000000000000000000000000000000000000000000000000000000000082611c6191906128f5565b86611f5f565b935050505b9250929050565b611c7b61204f565b73ffffffffffffffffffffffffffffffffffffffff16611c99611276565b73ffffffffffffffffffffffffffffffffffffffff1614611cf857611cbc61204f565b6040517f118cdaa7000000000000000000000000000000000000000000000000000000008152600401611cef91906121e0565b60405180910390fd5b565b5f5f5f9054906101000a900473ffffffffffffffffffffffffffffffffffffffff169050815f5f6101000a81548173ffffffffffffffffffffffffffffffffffffffff021916908373ffffffffffffffffffffffffffffffffffffffff1602179055508173ffffffffffffffffffffffffffffffffffffffff168173ffffffffffffffffffffffffffffffffffffffff167f8be0079c531659141344cd1fd0a4f28419497f9722a3daafe3b4186f6b6457e060405160405180910390a35050565b611dc88383836001612056565b611e0957826040517f5274afe7000000000000000000000000000000000000000000000000000000008152600401611e0091906121e0565b60405180910390fd5b505050565b5f5f7f00000000000000000000000000000000000000000000000000000000000000007f000000000000000000000000000000000000000000000000000000000000000073ffffffffffffffffffffffffffffffffffffffff166370a08231306040518263ffffffff1660e01b8152600401611e8a91906121e0565b602060405180830381865afa158015611ea5573d5f5f3e3d5ffd5b505050506040513d601f19601f82011682018060405250810190611ec991906127cd565b611ed391906128f5565b905080835f0151611ee491906130e9565b915050919050565b611ef46120b8565b15611f2b576040517f3ee5aeb500000000000000000000000000000000000000000000000000000000815260040160405180910390fd5b565b5f7f9b779b17422d0df92223018b32b4d1fa46e071723d6817e2486d003becc55f005f1b905090565b5f819050919050565b5f5f8211611fa2576040517f08c379a0000000000000000000000000000000000000000000000000000000008152600401611f9990613166565b60405180910390fd5b5f8303611fb1575f9050611fd8565b600182600185611fc19190612fe6565b611fcb9190612963565b611fd591906130e9565b90505b92915050565b5f5f6323b872dd60e01b9050604051815f525f1960601c87166004525f1960601c86166024528460445260205f60645f5f8c5af1925060015f5114831661203c578383151615612030573d5f823e3d81fd5b5f883b113d1516831692505b806040525f606052505095945050505050565b5f33905090565b5f5f63a9059cbb60e01b9050604051815f525f1960601c86166004528460245260205f60445f5f8b5af1925060015f511483166120aa57838315161561209e573d5f823e3d81fd5b5f873b113d1516831692505b806040525050949350505050565b5f60026120cb6120c6611f2d565b611f56565b5f015414905090565b60405180608001604052805f81526020015f151581526020015f81526020015f81525090565b5f73ffffffffffffffffffffffffffffffffffffffff82169050919050565b5f819050919050565b5f61213c612137612132846120fa565b612119565b6120fa565b9050919050565b5f61214d82612122565b9050919050565b5f61215e82612143565b9050919050565b61216e81612154565b82525050565b5f6020820190506121875f830184612165565b92915050565b5f8115159050919050565b6121a18161218d565b82525050565b5f6020820190506121ba5f830184612198565b92915050565b5f6121ca826120fa565b9050919050565b6121da816121c0565b82525050565b5f6020820190506121f35f8301846121d1565b92915050565b5f61220382612143565b9050919050565b612213816121f9565b82525050565b5f60208201905061222c5f83018461220a565b92915050565b5f604051905090565b5f5ffd5b5f819050919050565b6122518161223f565b811461225b575f5ffd5b50565b5f8135905061226c81612248565b92915050565b5f5f604083850312156122885761228761223b565b5b5f6122958582860161225e565b92505060206122a68582860161225e565b9150509250929050565b6122b98161223f565b82525050565b5f6040820190506122d25f8301856122b0565b6122df60208301846122b0565b9392505050565b5f602082840312156122fb576122fa61223b565b5b5f6123088482850161225e565b91505092915050565b5f6020820190506123245f8301846122b0565b92915050565b612333816121c0565b811461233d575f5ffd5b50565b5f8135905061234e8161232a565b92915050565b5f602082840312156123695761236861223b565b5b5f61237684828501612340565b91505092915050565b5f61238982612143565b9050919050565b6123998161237f565b82525050565b5f6020820190506123b25f830184612390565b92915050565b6123c18161218d565b81146123cb575f5ffd5b50565b5f813590506123dc816123b8565b92915050565b5f602082840312156123f7576123f661223b565b5b5f612404848285016123ce565b91505092915050565b5f82825260208201905092915050565b7f6e6f7420696e697469616c697a656400000000000000000000000000000000005f82015250565b5f612451600f8361240d565b915061245c8261241d565b602082019050919050565b5f6020820190508181035f83015261247e81612445565b9050919050565b7f6d696e74207061757365640000000000000000000000000000000000000000005f82015250565b5f6124b9600b8361240d565b91506124c482612485565b602082019050919050565b5f6020820190508181035f8301526124e6816124ad565b9050919050565b7f7a65726f205553444300000000000000000000000000000000000000000000005f82015250565b5f61252160098361240d565b915061252c826124ed565b602082019050919050565b5f6020820190508181035f83015261254e81612515565b9050919050565b7f7a65726f206d696e7420616d6f756e74000000000000000000000000000000005f82015250565b5f61258960108361240d565b915061259482612555565b602082019050919050565b5f6020820190508181035f8301526125b68161257d565b9050919050565b7f696e73756666696369656e7420525741206f75740000000000000000000000005f82015250565b5f6125f160148361240d565b91506125fc826125bd565b602082019050919050565b5f6020820190508181035f83015261261e816125e5565b9050919050565b7f7a65726f205553444320726571756972656400000000000000000000000000005f82015250565b5f61265960128361240d565b915061266482612625565b602082019050919050565b5f6020820190508181035f8301526126868161264d565b9050919050565b7f555344432072657175697265642065786365656473206d6178000000000000005f82015250565b5f6126c160198361240d565b91506126cc8261268d565b602082019050919050565b5f6020820190508181035f8301526126ee816126b5565b9050919050565b5f6040820190506127085f8301856121d1565b61271560208301846122b0565b9392505050565b5f60608201905061272f5f8301866122b0565b61273c60208301856122b0565b61274960408301846122b0565b949350505050565b7f62616420697373756572000000000000000000000000000000000000000000005f82015250565b5f612785600a8361240d565b915061279082612751565b602082019050919050565b5f6020820190508181035f8301526127b281612779565b9050919050565b5f815190506127c781612248565b92915050565b5f602082840312156127e2576127e161223b565b5b5f6127ef848285016127b9565b91505092915050565b7f616c726561647920696e697469616c697a6564000000000000000000000000005f82015250565b5f61282c60138361240d565b9150612837826127f8565b602082019050919050565b5f6020820190508181035f83015261285981612820565b9050919050565b7f6e6f206f6666636861696e2072657365727665000000000000000000000000005f82015250565b5f61289460138361240d565b915061289f82612860565b602082019050919050565b5f6020820190508181035f8301526128c181612888565b9050919050565b7f4e487b71000000000000000000000000000000000000000000000000000000005f52601160045260245ffd5b5f6128ff8261223f565b915061290a8361223f565b92508282026129188161223f565b9150828204841483151761292f5761292e6128c8565b5b5092915050565b7f4e487b71000000000000000000000000000000000000000000000000000000005f52601260045260245ffd5b5f61296d8261223f565b91506129788361223f565b92508261298857612987612936565b5b828204905092915050565b7f7a65726f20696e697469616c20737570706c79000000000000000000000000005f82015250565b5f6129c760138361240d565b91506129d282612993565b602082019050919050565b5f6020820190508181035f8301526129f4816129bb565b9050919050565b7f626164206f7261636c65000000000000000000000000000000000000000000005f82015250565b5f612a2f600a8361240d565b9150612a3a826129fb565b602082019050919050565b5f6020820190508181035f830152612a5c81612a23565b9050919050565b7f72656465656d20706175736564000000000000000000000000000000000000005f82015250565b5f612a97600d8361240d565b9150612aa282612a63565b602082019050919050565b5f6020820190508181035f830152612ac481612a8b565b9050919050565b7f7a65726f205257410000000000000000000000000000000000000000000000005f82015250565b5f612aff60088361240d565b9150612b0a82612acb565b602082019050919050565b5f6020820190508181035f830152612b2c81612af3565b9050919050565b7f7a65726f205257412072657175697265640000000000000000000000000000005f82015250565b5f612b6760118361240d565b9150612b7282612b33565b602082019050919050565b5f6020820190508181035f830152612b9481612b5b565b9050919050565b7f5257412072657175697265642065786365656473206d617800000000000000005f82015250565b5f612bcf60188361240d565b9150612bda82612b9b565b602082019050919050565b5f6020820190508181035f830152612bfc81612bc3565b9050919050565b7f7a65726f2072656465656d20616d6f756e7400000000000000000000000000005f82015250565b5f612c3760128361240d565b9150612c4282612c03565b602082019050919050565b5f6020820190508181035f830152612c6481612c2b565b9050919050565b7f696e73756666696369656e742055534443206f757400000000000000000000005f82015250565b5f612c9f60158361240d565b9150612caa82612c6b565b602082019050919050565b5f6020820190508181035f830152612ccc81612c93565b9050919050565b7f696e73756666696369656e742055534443206c697175696469747900000000005f82015250565b5f612d07601b8361240d565b9150612d1282612cd3565b602082019050919050565b5f6020820190508181035f830152612d3481612cfb565b9050919050565b7f6261642064656c617900000000000000000000000000000000000000000000005f82015250565b5f612d6f60098361240d565b9150612d7a82612d3b565b602082019050919050565b5f6020820190508181035f830152612d9c81612d63565b9050919050565b5f5ffd5b5f601f19601f8301169050919050565b7f4e487b71000000000000000000000000000000000000000000000000000000005f52604160045260245ffd5b612ded82612da7565b810181811067ffffffffffffffff82111715612e0c57612e0b612db7565b5b80604052505050565b5f612e1e612232565b9050612e2a8282612de4565b919050565b5f81519050612e3d816123b8565b92915050565b5f819050919050565b612e5581612e43565b8114612e5f575f5ffd5b50565b5f81519050612e7081612e4c565b92915050565b5f60808284031215612e8b57612e8a612da3565b5b612e956080612e15565b90505f612ea4848285016127b9565b5f830152506020612eb784828501612e2f565b6020830152506040612ecb848285016127b9565b6040830152506060612edf84828501612e62565b60608301525092915050565b5f60808284031215612f0057612eff61223b565b5b5f612f0d84828501612e76565b91505092915050565b7f7265736572766520696e76616c696400000000000000000000000000000000005f82015250565b5f612f4a600f8361240d565b9150612f5582612f16565b602082019050919050565b5f6020820190508181035f830152612f7781612f3e565b9050919050565b7f6f7261636c65206e6f74207570646174656400000000000000000000000000005f82015250565b5f612fb260128361240d565b9150612fbd82612f7e565b602082019050919050565b5f6020820190508181035f830152612fdf81612fa6565b9050919050565b5f612ff08261223f565b9150612ffb8361223f565b9250828203905081811115613013576130126128c8565b5b92915050565b7f6f7261636c652064617461207374616c650000000000000000000000000000005f82015250565b5f61304d60118361240d565b915061305882613019565b602082019050919050565b5f6020820190508181035f83015261307a81613041565b9050919050565b7f626164204e4156000000000000000000000000000000000000000000000000005f82015250565b5f6130b560078361240d565b91506130c082613081565b602082019050919050565b5f6020820190508181035f8301526130e2816130a9565b9050919050565b5f6130f38261223f565b91506130fe8361223f565b9250828201905080821115613116576131156128c8565b5b92915050565b7f6469766973696f6e206279207a65726f000000000000000000000000000000005f82015250565b5f61315060108361240d565b915061315b8261311c565b602082019050919050565b5f6020820190508181035f83015261317d81613144565b905091905056fea2646970667358221220212926500e965e9df963f37d650787ad9c5a2472d8666ed26002282a8678325864736f6c63430008220033",
			"opcodes": "PUSH2 0x160 PUSH1 0x40 MSTORE CALLVALUE DUP1 ISZERO PUSH2 0x10 JUMPI PUSH0 PUSH0 REVERT JUMPDEST POP PUSH1 0x40 MLOAD PUSH2 0x3F91 CODESIZE SUB DUP1 PUSH2 0x3F91 DUP4 CODECOPY DUP2 DUP2 ADD PUSH1 0x40 MSTORE DUP2 ADD SWAP1 PUSH2 0x32 SWAP2 SWAP1 PUSH2 0x71E JUMP JUMPDEST CALLER PUSH0 PUSH20 0xFFFFFFFFFFFFFFFFFFFFFFFFFFFFFFFFFFFFFFFF AND DUP2 PUSH20 0xFFFFFFFFFFFFFFFFFFFFFFFFFFFFFFFFFFFFFFFF AND SUB PUSH2 0xA3 JUMPI PUSH0 PUSH1 0x40 MLOAD PUSH32 0x1E4FBDF700000000000000000000000000000000000000000000000000000000 DUP2 MSTORE PUSH1 0x4 ADD PUSH2 0x9A SWAP2 SWAP1 PUSH2 0x7B6 JUMP JUMPDEST PUSH1 0x40 MLOAD DUP1 SWAP2 SUB SWAP1 REVERT JUMPDEST PUSH2 0xB2 DUP2 PUSH2 0x59A PUSH1 0x20 SHL PUSH1 0x20 SHR JUMP JUMPDEST POP PUSH1 0x1 PUSH2 0xD1 PUSH2 0xC6 PUSH2 0x65B PUSH1 0x20 SHL PUSH1 0x20 SHR JUMP JUMPDEST PUSH2 0x684 PUSH1 0x20 SHL PUSH1 0x20 SHR JUMP JUMPDEST PUSH0 ADD DUP2 SWAP1 SSTORE POP PUSH0 PUSH20 0xFFFFFFFFFFFFFFFFFFFFFFFFFFFFFFFFFFFFFFFF AND DUP7 PUSH20 0xFFFFFFFFFFFFFFFFFFFFFFFFFFFFFFFFFFFFFFFF AND SUB PUSH2 0x145 JUMPI PUSH1 0x40 MLOAD PUSH32 0x8C379A000000000000000000000000000000000000000000000000000000000 DUP2 MSTORE PUSH1 0x4 ADD PUSH2 0x13C SWAP1 PUSH2 0x829 JUMP JUMPDEST PUSH1 0x40 MLOAD DUP1 SWAP2 SUB SWAP1 REVERT JUMPDEST PUSH0 PUSH20 0xFFFFFFFFFFFFFFFFFFFFFFFFFFFFFFFFFFFFFFFF AND DUP6 PUSH20 0xFFFFFFFFFFFFFFFFFFFFFFFFFFFFFFFFFFFFFFFF AND SUB PUSH2 0x1B3 JUMPI PUSH1 0x40 MLOAD PUSH32 0x8C379A000000000000000000000000000000000000000000000000000000000 DUP2 MSTORE PUSH1 0x4 ADD PUSH2 0x1AA SWAP1 PUSH2 0x891 JUMP JUMPDEST PUSH1 0x40 MLOAD DUP1 SWAP2 SUB SWAP1 REVERT JUMPDEST PUSH0 PUSH20 0xFFFFFFFFFFFFFFFFFFFFFFFFFFFFFFFFFFFFFFFF AND DUP5 PUSH20 0xFFFFFFFFFFFFFFFFFFFFFFFFFFFFFFFFFFFFFFFF AND SUB PUSH2 0x221 JUMPI PUSH1 0x40 MLOAD PUSH32 0x8C379A000000000000000000000000000000000000000000000000000000000 DUP2 MSTORE PUSH1 0x4 ADD PUSH2 0x218 SWAP1 PUSH2 0x8F9 JUMP JUMPDEST PUSH1 0x40 MLOAD DUP1 SWAP2 SUB SWAP1 REVERT JUMPDEST PUSH0 PUSH20 0xFFFFFFFFFFFFFFFFFFFFFFFFFFFFFFFFFFFFFFFF AND DUP4 PUSH20 0xFFFFFFFFFFFFFFFFFFFFFFFFFFFFFFFFFFFFFFFF AND SUB PUSH2 0x28F JUMPI PUSH1 0x40 MLOAD PUSH32 0x8C379A000000000000000000000000000000000000000000000000000000000 DUP2 MSTORE PUSH1 0x4 ADD PUSH2 0x286 SWAP1 PUSH2 0x961 JUMP JUMPDEST PUSH1 0x40 MLOAD DUP1 SWAP2 SUB SWAP1 REVERT JUMPDEST PUSH0 DUP3 GT PUSH2 0x2D1 JUMPI PUSH1 0x40 MLOAD PUSH32 0x8C379A000000000000000000000000000000000000000000000000000000000 DUP2 MSTORE PUSH1 0x4 ADD PUSH2 0x2C8 SWAP1 PUSH2 0x9C9 JUMP JUMPDEST PUSH1 0x40 MLOAD DUP1 SWAP2 SUB SWAP1 REVERT JUMPDEST DUP6 PUSH1 0x1 PUSH0 PUSH2 0x100 EXP DUP2 SLOAD DUP2 PUSH20 0xFFFFFFFFFFFFFFFFFFFFFFFFFFFFFFFFFFFFFFFF MUL NOT AND SWAP1 DUP4 PUSH20 0xFFFFFFFFFFFFFFFFFFFFFFFFFFFFFFFFFFFFFFFF AND MUL OR SWAP1 SSTORE POP DUP5 PUSH20 0xFFFFFFFFFFFFFFFFFFFFFFFFFFFFFFFFFFFFFFFF AND PUSH1 0x80 DUP2 PUSH20 0xFFFFFFFFFFFFFFFFFFFFFFFFFFFFFFFFFFFFFFFF AND DUP2 MSTORE POP POP DUP4 PUSH20 0xFFFFFFFFFFFFFFFFFFFFFFFFFFFFFFFFFFFFFFFF AND PUSH1 0xA0 DUP2 PUSH20 0xFFFFFFFFFFFFFFFFFFFFFFFFFFFFFFFFFFFFFFFF AND DUP2 MSTORE POP POP DUP3 PUSH1 0x2 PUSH0 PUSH2 0x100 EXP DUP2 SLOAD DUP2 PUSH20 0xFFFFFFFFFFFFFFFFFFFFFFFFFFFFFFFFFFFFFFFF MUL NOT AND SWAP1 DUP4 PUSH20 0xFFFFFFFFFFFFFFFFFFFFFFFFFFFFFFFFFFFFFFFF AND MUL OR SWAP1 SSTORE POP DUP2 PUSH2 0x140 DUP2 DUP2 MSTORE POP POP DUP5 PUSH20 0xFFFFFFFFFFFFFFFFFFFFFFFFFFFFFFFFFFFFFFFF AND PUSH4 0x313CE567 PUSH1 0x40 MLOAD DUP2 PUSH4 0xFFFFFFFF AND PUSH1 0xE0 SHL DUP2 MSTORE PUSH1 0x4 ADD PUSH1 0x20 PUSH1 0x40 MLOAD DUP1 DUP4 SUB DUP2 DUP7 GAS STATICCALL ISZERO DUP1 ISZERO PUSH2 0x40B JUMPI RETURNDATASIZE PUSH0 PUSH0 RETURNDATACOPY RETURNDATASIZE PUSH0 REVERT JUMPDEST POP POP POP POP PUSH1 0x40 MLOAD RETURNDATASIZE PUSH1 0x1F NOT PUSH1 0x1F DUP3 ADD AND DUP3 ADD DUP1 PUSH1 0x40 MSTORE POP DUP2 ADD SWAP1 PUSH2 0x42F SWAP2 SWAP1 PUSH2 0xA1D JUMP JUMPDEST PUSH1 0xFF AND PUSH1 0xC0 DUP2 PUSH1 0xFF AND DUP2 MSTORE POP POP DUP4 PUSH20 0xFFFFFFFFFFFFFFFFFFFFFFFFFFFFFFFFFFFFFFFF AND PUSH4 0x313CE567 PUSH1 0x40 MLOAD DUP2 PUSH4 0xFFFFFFFF AND PUSH1 0xE0 SHL DUP2 MSTORE PUSH1 0x4 ADD PUSH1 0x20 PUSH1 0x40 MLOAD DUP1 DUP4 SUB DUP2 DUP7 GAS STATICCALL ISZERO DUP1 ISZERO PUSH2 0x485 JUMPI RETURNDATASIZE PUSH0 PUSH0 RETURNDATACOPY RETURNDATASIZE PUSH0 REVERT JUMPDEST POP POP POP POP PUSH1 0x40 MLOAD RETURNDATASIZE PUSH1 0x1F NOT PUSH1 0x1F DUP3 ADD AND DUP3 ADD DUP1 PUSH1 0x40 MSTORE POP DUP2 ADD SWAP1 PUSH2 0x4A9 SWAP2 SWAP1 PUSH2 0xA1D JUMP JUMPDEST PUSH1 0xFF AND PUSH1 0xE0 DUP2 PUSH1 0xFF AND DUP2 MSTORE POP POP PUSH1 0x12 PUSH1 0xC0 MLOAD PUSH1 0xFF AND GT ISZERO PUSH2 0x4FF JUMPI PUSH1 0x40 MLOAD PUSH32 0x8C379A000000000000000000000000000000000000000000000000000000000 DUP2 MSTORE PUSH1 0x4 ADD PUSH2 0x4F6 SWAP1 PUSH2 0xA92 JUMP JUMPDEST PUSH1 0x40 MLOAD DUP1 SWAP2 SUB SWAP1 REVERT JUMPDEST PUSH1 0x12 PUSH1 0xE0 MLOAD PUSH1 0xFF AND GT ISZERO PUSH2 0x548 JUMPI PUSH1 0x40 MLOAD PUSH32 0x8C379A000000000000000000000000000000000000000000000000000000000 DUP2 MSTORE PUSH1 0x4 ADD PUSH2 0x53F SWAP1 PUSH2 0xAFA JUMP JUMPDEST PUSH1 0x40 MLOAD DUP1 SWAP2 SUB SWAP1 REVERT JUMPDEST PUSH1 0xE0 MLOAD PUSH1 0xFF AND PUSH1 0xA PUSH2 0x55A SWAP2 SWAP1 PUSH2 0xC74 JUMP JUMPDEST PUSH2 0x100 DUP2 DUP2 MSTORE POP POP PUSH1 0xC0 MLOAD PUSH1 0x12 PUSH2 0x571 SWAP2 SWAP1 PUSH2 0xCBE JUMP JUMPDEST PUSH1 0xFF AND PUSH1 0xA PUSH2 0x580 SWAP2 SWAP1 PUSH2 0xC74 JUMP JUMPDEST PUSH2 0x120 DUP2 DUP2 MSTORE POP POP DUP1 PUSH1 0x3 DUP2 SWAP1 SSTORE POP POP POP POP POP POP POP PUSH2 0xCF2 JUMP JUMPDEST PUSH0 PUSH0 PUSH0 SWAP1 SLOAD SWAP1 PUSH2 0x100 EXP SWAP1 DIV PUSH20 0xFFFFFFFFFFFFFFFFFFFFFFFFFFFFFFFFFFFFFFFF AND SWAP1 POP DUP2 PUSH0 PUSH0 PUSH2 0x100 EXP DUP2 SLOAD DUP2 PUSH20 0xFFFFFFFFFFFFFFFFFFFFFFFFFFFFFFFFFFFFFFFF MUL NOT AND SWAP1 DUP4 PUSH20 0xFFFFFFFFFFFFFFFFFFFFFFFFFFFFFFFFFFFFFFFF AND MUL OR SWAP1 SSTORE POP DUP2 PUSH20 0xFFFFFFFFFFFFFFFFFFFFFFFFFFFFFFFFFFFFFFFF AND DUP2 PUSH20 0xFFFFFFFFFFFFFFFFFFFFFFFFFFFFFFFFFFFFFFFF AND PUSH32 0x8BE0079C531659141344CD1FD0A4F28419497F9722A3DAAFE3B4186F6B6457E0 PUSH1 0x40 MLOAD PUSH1 0x40 MLOAD DUP1 SWAP2 SUB SWAP1 LOG3 POP POP JUMP JUMPDEST PUSH0 PUSH32 0x9B779B17422D0DF92223018B32B4D1FA46E071723D6817E2486D003BECC55F00 PUSH0 SHL SWAP1 POP SWAP1 JUMP JUMPDEST PUSH0 DUP2 SWAP1 POP SWAP2 SWAP1 POP JUMP JUMPDEST PUSH0 PUSH0 REVERT JUMPDEST PUSH0 PUSH20 0xFFFFFFFFFFFFFFFFFFFFFFFFFFFFFFFFFFFFFFFF DUP3 AND SWAP1 POP SWAP2 SWAP1 POP JUMP JUMPDEST PUSH0 PUSH2 0x6BA DUP3 PUSH2 0x691 JUMP JUMPDEST SWAP1 POP SWAP2 SWAP1 POP JUMP JUMPDEST PUSH2 0x6CA DUP2 PUSH2 0x6B0 JUMP JUMPDEST DUP2 EQ PUSH2 0x6D4 JUMPI PUSH0 PUSH0 REVERT JUMPDEST POP JUMP JUMPDEST PUSH0 DUP2 MLOAD SWAP1 POP PUSH2 0x6E5 DUP2 PUSH2 0x6C1 JUMP JUMPDEST SWAP3 SWAP2 POP POP JUMP JUMPDEST PUSH0 DUP2 SWAP1 POP SWAP2 SWAP1 POP JUMP JUMPDEST PUSH2 0x6FD DUP2 PUSH2 0x6EB JUMP JUMPDEST DUP2 EQ PUSH2 0x707 JUMPI PUSH0 PUSH0 REVERT JUMPDEST POP JUMP JUMPDEST PUSH0 DUP2 MLOAD SWAP1 POP PUSH2 0x718 DUP2 PUSH2 0x6F4 JUMP JUMPDEST SWAP3 SWAP2 POP POP JUMP JUMPDEST PUSH0 PUSH0 PUSH0 PUSH0 PUSH0 PUSH0 PUSH1 0xC0 DUP8 DUP10 SUB SLT ISZERO PUSH2 0x738 JUMPI PUSH2 0x737 PUSH2 0x68D JUMP JUMPDEST JUMPDEST PUSH0 PUSH2 0x745 DUP10 DUP3 DUP11 ADD PUSH2 0x6D7 JUMP JUMPDEST SWAP7 POP POP PUSH1 0x20 PUSH2 0x756 DUP10 DUP3 DUP11 ADD PUSH2 0x6D7 JUMP JUMPDEST SWAP6 POP POP PUSH1 0x40 PUSH2 0x767 DUP10 DUP3 DUP11 ADD PUSH2 0x6D7 JUMP JUMPDEST SWAP5 POP POP PUSH1 0x60 PUSH2 0x778 DUP10 DUP3 DUP11 ADD PUSH2 0x6D7 JUMP JUMPDEST SWAP4 POP POP PUSH1 0x80 PUSH2 0x789 DUP10 DUP3 DUP11 ADD PUSH2 0x70A JUMP JUMPDEST SWAP3 POP POP PUSH1 0xA0 PUSH2 0x79A DUP10 DUP3 DUP11 ADD PUSH2 0x70A JUMP JUMPDEST SWAP2 POP POP SWAP3 SWAP6 POP SWAP3 SWAP6 POP SWAP3 SWAP6 JUMP JUMPDEST PUSH2 0x7B0 DUP2 PUSH2 0x6B0 JUMP JUMPDEST DUP3 MSTORE POP POP JUMP JUMPDEST PUSH0 PUSH1 0x20 DUP3 ADD SWAP1 POP PUSH2 0x7C9 PUSH0 DUP4 ADD DUP5 PUSH2 0x7A7 JUMP JUMPDEST SWAP3 SWAP2 POP POP JUMP JUMPDEST PUSH0 DUP3 DUP3 MSTORE PUSH1 0x20 DUP3 ADD SWAP1 POP SWAP3 SWAP2 POP POP JUMP JUMPDEST PUSH32 0x626164206F7261636C6500000000000000000000000000000000000000000000 PUSH0 DUP3 ADD MSTORE POP JUMP JUMPDEST PUSH0 PUSH2 0x813 PUSH1 0xA DUP4 PUSH2 0x7CF JUMP JUMPDEST SWAP2 POP PUSH2 0x81E DUP3 PUSH2 0x7DF JUMP JUMPDEST PUSH1 0x20 DUP3 ADD SWAP1 POP SWAP2 SWAP1 POP JUMP JUMPDEST PUSH0 PUSH1 0x20 DUP3 ADD SWAP1 POP DUP2 DUP2 SUB PUSH0 DUP4 ADD MSTORE PUSH2 0x840 DUP2 PUSH2 0x807 JUMP JUMPDEST SWAP1 POP SWAP2 SWAP1 POP JUMP JUMPDEST PUSH32 0x6261642075736463000000000000000000000000000000000000000000000000 PUSH0 DUP3 ADD MSTORE POP JUMP JUMPDEST PUSH0 PUSH2 0x87B PUSH1 0x8 DUP4 PUSH2 0x7CF JUMP JUMPDEST SWAP2 POP PUSH2 0x886 DUP3 PUSH2 0x847 JUMP JUMPDEST PUSH1 0x20 DUP3 ADD SWAP1 POP SWAP2 SWAP1 POP JUMP JUMPDEST PUSH0 PUSH1 0x20 DUP3 ADD SWAP1 POP DUP2 DUP2 SUB PUSH0 DUP4 ADD MSTORE PUSH2 0x8A8 DUP2 PUSH2 0x86F JUMP JUMPDEST SWAP1 POP SWAP2 SWAP1 POP JUMP JUMPDEST PUSH32 0x6261642072776120746F6B656E00000000000000000000000000000000000000 PUSH0 DUP3 ADD MSTORE POP JUMP JUMPDEST PUSH0 PUSH2 0x8E3 PUSH1 0xD DUP4 PUSH2 0x7CF JUMP JUMPDEST SWAP2 POP PUSH2 0x8EE DUP3 PUSH2 0x8AF JUMP JUMPDEST PUSH1 0x20 DUP3 ADD SWAP1 POP SWAP2 SWAP1 POP JUMP JUMPDEST PUSH0 PUSH1 0x20 DUP3 ADD SWAP1 POP DUP2 DUP2 SUB PUSH0 DUP4 ADD MSTORE PUSH2 0x910 DUP2 PUSH2 0x8D7 JUMP JUMPDEST SWAP1 POP SWAP2 SWAP1 POP JUMP JUMPDEST PUSH32 0x6261642069737375657200000000000000000000000000000000000000000000 PUSH0 DUP3 ADD MSTORE POP JUMP JUMPDEST PUSH0 PUSH2 0x94B PUSH1 0xA DUP4 PUSH2 0x7CF JUMP JUMPDEST SWAP2 POP PUSH2 0x956 DUP3 PUSH2 0x917 JUMP JUMPDEST PUSH1 0x20 DUP3 ADD SWAP1 POP SWAP2 SWAP1 POP JUMP JUMPDEST PUSH0 PUSH1 0x20 DUP3 ADD SWAP1 POP DUP2 DUP2 SUB PUSH0 DUP4 ADD MSTORE PUSH2 0x978 DUP2 PUSH2 0x93F JUMP JUMPDEST SWAP1 POP SWAP2 SWAP1 POP JUMP JUMPDEST PUSH32 0x62616420696E697469616C204E41560000000000000000000000000000000000 PUSH0 DUP3 ADD MSTORE POP JUMP JUMPDEST PUSH0 PUSH2 0x9B3 PUSH1 0xF DUP4 PUSH2 0x7CF JUMP JUMPDEST SWAP2 POP PUSH2 0x9BE DUP3 PUSH2 0x97F JUMP JUMPDEST PUSH1 0x20 DUP3 ADD SWAP1 POP SWAP2 SWAP1 POP JUMP JUMPDEST PUSH0 PUSH1 0x20 DUP3 ADD SWAP1 POP DUP2 DUP2 SUB PUSH0 DUP4 ADD MSTORE PUSH2 0x9E0 DUP2 PUSH2 0x9A7 JUMP JUMPDEST SWAP1 POP SWAP2 SWAP1 POP JUMP JUMPDEST PUSH0 PUSH1 0xFF DUP3 AND SWAP1 POP SWAP2 SWAP1 POP JUMP JUMPDEST PUSH2 0x9FC DUP2 PUSH2 0x9E7 JUMP JUMPDEST DUP2 EQ PUSH2 0xA06 JUMPI PUSH0 PUSH0 REVERT JUMPDEST POP JUMP JUMPDEST PUSH0 DUP2 MLOAD SWAP1 POP PUSH2 0xA17 DUP2 PUSH2 0x9F3 JUMP JUMPDEST SWAP3 SWAP2 POP POP JUMP JUMPDEST PUSH0 PUSH1 0x20 DUP3 DUP5 SUB SLT ISZERO PUSH2 0xA32 JUMPI PUSH2 0xA31 PUSH2 0x68D JUMP JUMPDEST JUMPDEST PUSH0 PUSH2 0xA3F DUP5 DUP3 DUP6 ADD PUSH2 0xA09 JUMP JUMPDEST SWAP2 POP POP SWAP3 SWAP2 POP POP JUMP JUMPDEST PUSH32 0x5553444320646563696D616C7320746F6F206869676800000000000000000000 PUSH0 DUP3 ADD MSTORE POP JUMP JUMPDEST PUSH0 PUSH2 0xA7C PUSH1 0x16 DUP4 PUSH2 0x7CF JUMP JUMPDEST SWAP2 POP PUSH2 0xA87 DUP3 PUSH2 0xA48 JUMP JUMPDEST PUSH1 0x20 DUP3 ADD SWAP1 POP SWAP2 SWAP1 POP JUMP JUMPDEST PUSH0 PUSH1 0x20 DUP3 ADD SWAP1 POP DUP2 DUP2 SUB PUSH0 DUP4 ADD MSTORE PUSH2 0xAA9 DUP2 PUSH2 0xA70 JUMP JUMPDEST SWAP1 POP SWAP2 SWAP1 POP JUMP JUMPDEST PUSH32 0x52574120646563696D616C7320746F6F20686967680000000000000000000000 PUSH0 DUP3 ADD MSTORE POP JUMP JUMPDEST PUSH0 PUSH2 0xAE4 PUSH1 0x15 DUP4 PUSH2 0x7CF JUMP JUMPDEST SWAP2 POP PUSH2 0xAEF DUP3 PUSH2 0xAB0 JUMP JUMPDEST PUSH1 0x20 DUP3 ADD SWAP1 POP SWAP2 SWAP1 POP JUMP JUMPDEST PUSH0 PUSH1 0x20 DUP3 ADD SWAP1 POP DUP2 DUP2 SUB PUSH0 DUP4 ADD MSTORE PUSH2 0xB11 DUP2 PUSH2 0xAD8 JUMP JUMPDEST SWAP1 POP SWAP2 SWAP1 POP JUMP JUMPDEST PUSH32 0x4E487B7100000000000000000000000000000000000000000000000000000000 PUSH0 MSTORE PUSH1 0x11 PUSH1 0x4 MSTORE PUSH1 0x24 PUSH0 REVERT JUMPDEST PUSH0 DUP2 PUSH1 0x1 SHR SWAP1 POP SWAP2 SWAP1 POP JUMP JUMPDEST PUSH0 PUSH0 DUP3 SWAP2 POP DUP4 SWAP1 POP JUMPDEST PUSH1 0x1 DUP6 GT ISZERO PUSH2 0xB9A JUMPI DUP1 DUP7 DIV DUP2 GT ISZERO PUSH2 0xB76 JUMPI PUSH2 0xB75 PUSH2 0xB18 JUMP JUMPDEST JUMPDEST PUSH1 0x1 DUP6 AND ISZERO PUSH2 0xB85 JUMPI DUP1 DUP3 MUL SWAP2 POP JUMPDEST DUP1 DUP2 MUL SWAP1 POP PUSH2 0xB93 DUP6 PUSH2 0xB45 JUMP JUMPDEST SWAP5 POP PUSH2 0xB5A JUMP JUMPDEST SWAP5 POP SWAP5 SWAP3 POP POP POP JUMP JUMPDEST PUSH0 DUP3 PUSH2 0xBB2 JUMPI PUSH1 0x1 SWAP1 POP PUSH2 0xC6D JUMP JUMPDEST DUP2 PUSH2 0xBBF JUMPI PUSH0 SWAP1 POP PUSH2 0xC6D JUMP JUMPDEST DUP2 PUSH1 0x1 DUP2 EQ PUSH2 0xBD5 JUMPI PUSH1 0x2 DUP2 EQ PUSH2 0xBDF JUMPI PUSH2 0xC0E JUMP JUMPDEST PUSH1 0x1 SWAP2 POP POP PUSH2 0xC6D JUMP JUMPDEST PUSH1 0xFF DUP5 GT ISZERO PUSH2 0xBF1 JUMPI PUSH2 0xBF0 PUSH2 0xB18 JUMP JUMPDEST JUMPDEST DUP4 PUSH1 0x2 EXP SWAP2 POP DUP5 DUP3 GT ISZERO PUSH2 0xC08 JUMPI PUSH2 0xC07 PUSH2 0xB18 JUMP JUMPDEST JUMPDEST POP PUSH2 0xC6D JUMP JUMPDEST POP PUSH1 0x20 DUP4 LT PUSH2 0x133 DUP4 LT AND PUSH1 0x4E DUP5 LT PUSH1 0xB DUP5 LT AND OR ISZERO PUSH2 0xC43 JUMPI DUP3 DUP3 EXP SWAP1 POP DUP4 DUP2 GT ISZERO PUSH2 0xC3E JUMPI PUSH2 0xC3D PUSH2 0xB18 JUMP JUMPDEST JUMPDEST PUSH2 0xC6D JUMP JUMPDEST PUSH2 0xC50 DUP5 DUP5 DUP5 PUSH1 0x1 PUSH2 0xB51 JUMP JUMPDEST SWAP3 POP SWAP1 POP DUP2 DUP5 DIV DUP2 GT ISZERO PUSH2 0xC67 JUMPI PUSH2 0xC66 PUSH2 0xB18 JUMP JUMPDEST JUMPDEST DUP2 DUP2 MUL SWAP1 POP JUMPDEST SWAP4 SWAP3 POP POP POP JUMP JUMPDEST PUSH0 PUSH2 0xC7E DUP3 PUSH2 0x6EB JUMP JUMPDEST SWAP2 POP PUSH2 0xC89 DUP4 PUSH2 0x6EB JUMP JUMPDEST SWAP3 POP PUSH2 0xCB6 PUSH32 0xFFFFFFFFFFFFFFFFFFFFFFFFFFFFFFFFFFFFFFFFFFFFFFFFFFFFFFFFFFFFFFFF DUP5 DUP5 PUSH2 0xBA3 JUMP JUMPDEST SWAP1 POP SWAP3 SWAP2 POP POP JUMP JUMPDEST PUSH0 PUSH2 0xCC8 DUP3 PUSH2 0x9E7 JUMP JUMPDEST SWAP2 POP PUSH2 0xCD3 DUP4 PUSH2 0x9E7 JUMP JUMPDEST SWAP3 POP DUP3 DUP3 SUB SWAP1 POP PUSH1 0xFF DUP2 GT ISZERO PUSH2 0xCEC JUMPI PUSH2 0xCEB PUSH2 0xB18 JUMP JUMPDEST JUMPDEST SWAP3 SWAP2 POP POP JUMP JUMPDEST PUSH1 0x80 MLOAD PUSH1 0xA0 MLOAD PUSH1 0xC0 MLOAD PUSH1 0xE0 MLOAD PUSH2 0x100 MLOAD PUSH2 0x120 MLOAD PUSH2 0x140 MLOAD PUSH2 0x31BA PUSH2 0xDD7 PUSH0 CODECOPY PUSH0 DUP2 DUP2 PUSH2 0xA19 ADD MSTORE DUP2 DUP2 PUSH2 0xB1A ADD MSTORE DUP2 DUP2 PUSH2 0xCD9 ADD MSTORE PUSH2 0x1934 ADD MSTORE PUSH0 DUP2 DUP2 PUSH2 0x19EF ADD MSTORE DUP2 DUP2 PUSH2 0x1AA5 ADD MSTORE DUP2 DUP2 PUSH2 0x1BC4 ADD MSTORE DUP2 DUP2 PUSH2 0x1C06 ADD MSTORE PUSH2 0x1E12 ADD MSTORE PUSH0 DUP2 DUP2 PUSH2 0xB3B ADD MSTORE DUP2 DUP2 PUSH2 0x196A ADD MSTORE DUP2 DUP2 PUSH2 0x1A1E ADD MSTORE DUP2 DUP2 PUSH2 0x1A79 ADD MSTORE DUP2 DUP2 PUSH2 0x1B8B ADD MSTORE PUSH2 0x1C37 ADD MSTORE PUSH0 POP POP PUSH0 POP POP PUSH0 DUP2 DUP2 PUSH2 0x47B ADD MSTORE DUP2 DUP2 PUSH2 0x766 ADD MSTORE DUP2 DUP2 PUSH2 0x983 ADD MSTORE DUP2 DUP2 PUSH2 0xBD3 ADD MSTORE DUP2 DUP2 PUSH2 0x110A ADD MSTORE PUSH2 0x189E ADD MSTORE PUSH0 DUP2 DUP2 PUSH2 0x4D7 ADD MSTORE DUP2 DUP2 PUSH2 0x71F ADD MSTORE DUP2 DUP2 PUSH2 0x1031 ADD MSTORE DUP2 DUP2 PUSH2 0x1197 ADD MSTORE DUP2 DUP2 PUSH2 0x14BF ADD MSTORE PUSH2 0x1E33 ADD MSTORE PUSH2 0x31BA PUSH0 RETURN INVALID PUSH1 0x80 PUSH1 0x40 MSTORE CALLVALUE DUP1 ISZERO PUSH2 0xF JUMPI PUSH0 PUSH0 REVERT JUMPDEST POP PUSH1 0x4 CALLDATASIZE LT PUSH2 0x171 JUMPI PUSH0 CALLDATALOAD PUSH1 0xE0 SHR DUP1 PUSH4 0x7CBC2373 GT PUSH2 0xDC JUMPI DUP1 PUSH4 0xB235D468 GT PUSH2 0x95 JUMPI DUP1 PUSH4 0xC40D111C GT PUSH2 0x6F JUMPI DUP1 PUSH4 0xC40D111C EQ PUSH2 0x3F4 JUMPI DUP1 PUSH4 0xCCB99C26 EQ PUSH2 0x425 JUMPI DUP1 PUSH4 0xCD3B691C EQ PUSH2 0x441 JUMPI DUP1 PUSH4 0xF2FDE38B EQ PUSH2 0x45D JUMPI PUSH2 0x171 JUMP JUMPDEST DUP1 PUSH4 0xB235D468 EQ PUSH2 0x39C JUMPI DUP1 PUSH4 0xB6935501 EQ PUSH2 0x3BA JUMPI DUP1 PUSH4 0xBC34E6DA EQ PUSH2 0x3D6 JUMPI PUSH2 0x171 JUMP JUMPDEST DUP1 PUSH4 0x7CBC2373 EQ PUSH2 0x2D7 JUMPI DUP1 PUSH4 0x7DC0D1D0 EQ PUSH2 0x308 JUMPI DUP1 PUSH4 0x7E4831D3 EQ PUSH2 0x326 JUMPI DUP1 PUSH4 0x8DA5CB5B EQ PUSH2 0x344 JUMPI DUP1 PUSH4 0x8E827CB5 EQ PUSH2 0x362 JUMPI DUP1 PUSH4 0xAA2F892D EQ PUSH2 0x380 JUMPI PUSH2 0x171 JUMP JUMPDEST DUP1 PUSH4 0x52F1EDCC GT PUSH2 0x12E JUMPI DUP1 PUSH4 0x52F1EDCC EQ PUSH2 0x24F JUMPI DUP1 PUSH4 0x55CC4E57 EQ PUSH2 0x26D JUMPI DUP1 PUSH4 0x675A5C0B EQ PUSH2 0x289 JUMPI DUP1 PUSH4 0x715018A6 EQ PUSH2 0x2A7 JUMPI DUP1 PUSH4 0x72B823C3 EQ PUSH2 0x2B1 JUMPI DUP1 PUSH4 0x7ADBF973 EQ PUSH2 0x2BB JUMPI PUSH2 0x171 JUMP JUMPDEST DUP1 PUSH4 0xC5BF351 EQ PUSH2 0x175 JUMPI DUP1 PUSH4 0x158EF93E EQ PUSH2 0x193 JUMPI DUP1 PUSH4 0x1D143848 EQ PUSH2 0x1B1 JUMPI DUP1 PUSH4 0x3E413BEE EQ PUSH2 0x1CF JUMPI DUP1 PUSH4 0x47082DAC EQ PUSH2 0x1ED JUMPI DUP1 PUSH4 0x4CDAD506 EQ PUSH2 0x21E JUMPI JUMPDEST PUSH0 PUSH0 REVERT JUMPDEST PUSH2 0x17D PUSH2 0x479 JUMP JUMPDEST PUSH1 0x40 MLOAD PUSH2 0x18A SWAP2 SWAP1 PUSH2 0x2174 JUMP JUMPDEST PUSH1 0x40 MLOAD DUP1 SWAP2 SUB SWAP1 RETURN JUMPDEST PUSH2 0x19B PUSH2 0x49D JUMP JUMPDEST PUSH1 0x40 MLOAD PUSH2 0x1A8 SWAP2 SWAP1 PUSH2 0x21A7 JUMP JUMPDEST PUSH1 0x40 MLOAD DUP1 SWAP2 SUB SWAP1 RETURN JUMPDEST PUSH2 0x1B9 PUSH2 0x4B0 JUMP JUMPDEST PUSH1 0x40 MLOAD PUSH2 0x1C6 SWAP2 SWAP1 PUSH2 0x21E0 JUMP JUMPDEST PUSH1 0x40 MLOAD DUP1 SWAP2 SUB SWAP1 RETURN JUMPDEST PUSH2 0x1D7 PUSH2 0x4D5 JUMP JUMPDEST PUSH1 0x40 MLOAD PUSH2 0x1E4 SWAP2 SWAP1 PUSH2 0x2219 JUMP JUMPDEST PUSH1 0x40 MLOAD DUP1 SWAP2 SUB SWAP1 RETURN JUMPDEST PUSH2 0x207 PUSH1 0x4 DUP1 CALLDATASIZE SUB DUP2 ADD SWAP1 PUSH2 0x202 SWAP2 SWAP1 PUSH2 0x2272 JUMP JUMPDEST PUSH2 0x4F9 JUMP JUMPDEST PUSH1 0x40 MLOAD PUSH2 0x215 SWAP3 SWAP2 SWAP1 PUSH2 0x22BF JUMP JUMPDEST PUSH1 0x40 MLOAD DUP1 SWAP2 SUB SWAP1 RETURN JUMPDEST PUSH2 0x238 PUSH1 0x4 DUP1 CALLDATASIZE SUB DUP2 ADD SWAP1 PUSH2 0x233 SWAP2 SWAP1 PUSH2 0x22E6 JUMP JUMPDEST PUSH2 0x84F JUMP JUMPDEST PUSH1 0x40 MLOAD PUSH2 0x246 SWAP3 SWAP2 SWAP1 PUSH2 0x22BF JUMP JUMPDEST PUSH1 0x40 MLOAD DUP1 SWAP2 SUB SWAP1 RETURN JUMPDEST PUSH2 0x257 PUSH2 0x87D JUMP JUMPDEST PUSH1 0x40 MLOAD PUSH2 0x264 SWAP2 SWAP1 PUSH2 0x2311 JUMP JUMPDEST PUSH1 0x40 MLOAD DUP1 SWAP2 SUB SWAP1 RETURN JUMPDEST PUSH2 0x287 PUSH1 0x4 DUP1 CALLDATASIZE SUB DUP2 ADD SWAP1 PUSH2 0x282 SWAP2 SWAP1 PUSH2 0x2354 JUMP JUMPDEST PUSH2 0x883 JUMP JUMPDEST STOP JUMPDEST PUSH2 0x291 PUSH2 0x97F JUMP JUMPDEST PUSH1 0x40 MLOAD PUSH2 0x29E SWAP2 SWAP1 PUSH2 0x2311 JUMP JUMPDEST PUSH1 0x40 MLOAD DUP1 SWAP2 SUB SWAP1 RETURN JUMPDEST PUSH2 0x2AF PUSH2 0xA5C JUMP JUMPDEST STOP JUMPDEST PUSH2 0x2B9 PUSH2 0xA6F JUMP JUMPDEST STOP JUMPDEST PUSH2 0x2D5 PUSH1 0x4 DUP1 CALLDATASIZE SUB DUP2 ADD SWAP1 PUSH2 0x2D0 SWAP2 SWAP1 PUSH2 0x2354 JUMP JUMPDEST PUSH2 0xD14 JUMP JUMPDEST STOP JUMPDEST PUSH2 0x2F1 PUSH1 0x4 DUP1 CALLDATASIZE SUB DUP2 ADD SWAP1 PUSH2 0x2EC SWAP2 SWAP1 PUSH2 0x2272 JUMP JUMPDEST PUSH2 0xE10 JUMP JUMPDEST PUSH1 0x40 MLOAD PUSH2 0x2FF SWAP3 SWAP2 SWAP1 PUSH2 0x22BF JUMP JUMPDEST PUSH1 0x40 MLOAD DUP1 SWAP2 SUB SWAP1 RETURN JUMPDEST PUSH2 0x310 PUSH2 0x123E JUMP JUMPDEST PUSH1 0x40 MLOAD PUSH2 0x31D SWAP2 SWAP1 PUSH2 0x239F JUMP JUMPDEST PUSH1 0x40 MLOAD DUP1 SWAP2 SUB SWAP1 RETURN JUMPDEST PUSH2 0x32E PUSH2 0x1263 JUMP JUMPDEST PUSH1 0x40 MLOAD PUSH2 0x33B SWAP2 SWAP1 PUSH2 0x21A7 JUMP JUMPDEST PUSH1 0x40 MLOAD DUP1 SWAP2 SUB SWAP1 RETURN JUMPDEST PUSH2 0x34C PUSH2 0x1276 JUMP JUMPDEST PUSH1 0x40 MLOAD PUSH2 0x359 SWAP2 SWAP1 PUSH2 0x21E0 JUMP JUMPDEST PUSH1 0x40 MLOAD DUP1 SWAP2 SUB SWAP1 RETURN JUMPDEST PUSH2 0x36A PUSH2 0x129D JUMP JUMPDEST PUSH1 0x40 MLOAD PUSH2 0x377 SWAP2 SWAP1 PUSH2 0x2311 JUMP JUMPDEST PUSH1 0x40 MLOAD DUP1 SWAP2 SUB SWAP1 RETURN JUMPDEST PUSH2 0x39A PUSH1 0x4 DUP1 CALLDATASIZE SUB DUP2 ADD SWAP1 PUSH2 0x395 SWAP2 SWAP1 PUSH2 0x22E6 JUMP JUMPDEST PUSH2 0x12B8 JUMP JUMPDEST STOP JUMPDEST PUSH2 0x3A4 PUSH2 0x144D JUMP JUMPDEST PUSH1 0x40 MLOAD PUSH2 0x3B1 SWAP2 SWAP1 PUSH2 0x21A7 JUMP JUMPDEST PUSH1 0x40 MLOAD DUP1 SWAP2 SUB SWAP1 RETURN JUMPDEST PUSH2 0x3D4 PUSH1 0x4 DUP1 CALLDATASIZE SUB DUP2 ADD SWAP1 PUSH2 0x3CF SWAP2 SWAP1 PUSH2 0x23E2 JUMP JUMPDEST PUSH2 0x1460 JUMP JUMPDEST STOP JUMPDEST PUSH2 0x3DE PUSH2 0x14BC JUMP JUMPDEST PUSH1 0x40 MLOAD PUSH2 0x3EB SWAP2 SWAP1 PUSH2 0x2311 JUMP JUMPDEST PUSH1 0x40 MLOAD DUP1 SWAP2 SUB SWAP1 RETURN JUMPDEST PUSH2 0x40E PUSH1 0x4 DUP1 CALLDATASIZE SUB DUP2 ADD SWAP1 PUSH2 0x409 SWAP2 SWAP1 PUSH2 0x22E6 JUMP JUMPDEST PUSH2 0x155A JUMP JUMPDEST PUSH1 0x40 MLOAD PUSH2 0x41C SWAP3 SWAP2 SWAP1 PUSH2 0x22BF JUMP JUMPDEST PUSH1 0x40 MLOAD DUP1 SWAP2 SUB SWAP1 RETURN JUMPDEST PUSH2 0x43F PUSH1 0x4 DUP1 CALLDATASIZE SUB DUP2 ADD SWAP1 PUSH2 0x43A SWAP2 SWAP1 PUSH2 0x23E2 JUMP JUMPDEST PUSH2 0x1588 JUMP JUMPDEST STOP JUMPDEST PUSH2 0x45B PUSH1 0x4 DUP1 CALLDATASIZE SUB DUP2 ADD SWAP1 PUSH2 0x456 SWAP2 SWAP1 PUSH2 0x22E6 JUMP JUMPDEST PUSH2 0x15E4 JUMP JUMPDEST STOP JUMPDEST PUSH2 0x477 PUSH1 0x4 DUP1 CALLDATASIZE SUB DUP2 ADD SWAP1 PUSH2 0x472 SWAP2 SWAP1 PUSH2 0x2354 JUMP JUMPDEST PUSH2 0x166F JUMP JUMPDEST STOP JUMPDEST PUSH32 0x0 DUP2 JUMP JUMPDEST PUSH1 0x2 PUSH1 0x14 SWAP1 SLOAD SWAP1 PUSH2 0x100 EXP SWAP1 DIV PUSH1 0xFF AND DUP2 JUMP JUMPDEST PUSH1 0x2 PUSH0 SWAP1 SLOAD SWAP1 PUSH2 0x100 EXP SWAP1 DIV PUSH20 0xFFFFFFFFFFFFFFFFFFFFFFFFFFFFFFFFFFFFFFFF AND DUP2 JUMP JUMPDEST PUSH32 0x0 DUP2 JUMP JUMPDEST PUSH0 PUSH0 PUSH2 0x503 PUSH2 0x16F3 JUMP JUMPDEST PUSH1 0x2 PUSH1 0x14 SWAP1 SLOAD SWAP1 PUSH2 0x100 EXP SWAP1 DIV PUSH1 0xFF AND PUSH2 0x552 JUMPI PUSH1 0x40 MLOAD PUSH32 0x8C379A000000000000000000000000000000000000000000000000000000000 DUP2 MSTORE PUSH1 0x4 ADD PUSH2 0x549 SWAP1 PUSH2 0x2467 JUMP JUMPDEST PUSH1 0x40 MLOAD DUP1 SWAP2 SUB SWAP1 REVERT JUMPDEST PUSH1 0x2 PUSH1 0x15 SWAP1 SLOAD SWAP1 PUSH2 0x100 EXP SWAP1 DIV PUSH1 0xFF AND ISZERO PUSH2 0x5A2 JUMPI PUSH1 0x40 MLOAD PUSH32 0x8C379A000000000000000000000000000000000000000000000000000000000 DUP2 MSTORE PUSH1 0x4 ADD PUSH2 0x599 SWAP1 PUSH2 0x24CF JUMP JUMPDEST PUSH1 0x40 MLOAD DUP1 SWAP2 SUB SWAP1 REVERT JUMPDEST PUSH0 DUP5 GT PUSH2 0x5E4 JUMPI PUSH1 0x40 MLOAD PUSH32 0x8C379A000000000000000000000000000000000000000000000000000000000 DUP2 MSTORE PUSH1 0x4 ADD PUSH2 0x5DB SWAP1 PUSH2 0x2537 JUMP JUMPDEST PUSH1 0x40 MLOAD DUP1 SWAP2 SUB SWAP1 REVERT JUMPDEST PUSH0 PUSH2 0x5ED PUSH2 0x1715 JUMP JUMPDEST SWAP1 POP PUSH0 PUSH2 0x5F9 DUP3 PUSH2 0x189A JUMP JUMPDEST SWAP1 POP PUSH2 0x605 DUP7 DUP3 PUSH2 0x19A8 JUMP JUMPDEST DUP1 SWAP5 POP DUP2 SWAP6 POP POP POP PUSH0 DUP5 GT PUSH2 0x64F JUMPI PUSH1 0x40 MLOAD PUSH32 0x8C379A000000000000000000000000000000000000000000000000000000000 DUP2 MSTORE PUSH1 0x4 ADD PUSH2 0x646 SWAP1 PUSH2 0x259F JUMP JUMPDEST PUSH1 0x40 MLOAD DUP1 SWAP2 SUB SWAP1 REVERT JUMPDEST DUP5 DUP5 LT ISZERO PUSH2 0x692 JUMPI PUSH1 0x40 MLOAD PUSH32 0x8C379A000000000000000000000000000000000000000000000000000000000 DUP2 MSTORE PUSH1 0x4 ADD PUSH2 0x689 SWAP1 PUSH2 0x2607 JUMP JUMPDEST PUSH1 0x40 MLOAD DUP1 SWAP2 SUB SWAP1 REVERT JUMPDEST PUSH0 DUP4 GT PUSH2 0x6D4 JUMPI PUSH1 0x40 MLOAD PUSH32 0x8C379A000000000000000000000000000000000000000000000000000000000 DUP2 MSTORE PUSH1 0x4 ADD PUSH2 0x6CB SWAP1 PUSH2 0x266F JUMP JUMPDEST PUSH1 0x40 MLOAD DUP1 SWAP2 SUB SWAP1 REVERT JUMPDEST DUP6 DUP4 GT ISZERO PUSH2 0x717 JUMPI PUSH1 0x40 MLOAD PUSH32 0x8C379A000000000000000000000000000000000000000000000000000000000 DUP2 MSTORE PUSH1 0x4 ADD PUSH2 0x70E SWAP1 PUSH2 0x26D7 JUMP JUMPDEST PUSH1 0x40 MLOAD DUP1 SWAP2 SUB SWAP1 REVERT JUMPDEST PUSH2 0x764 CALLER ADDRESS DUP6 PUSH32 0x0 PUSH20 0xFFFFFFFFFFFFFFFFFFFFFFFFFFFFFFFFFFFFFFFF AND PUSH2 0x1AD5 SWAP1 SWAP4 SWAP3 SWAP2 SWAP1 PUSH4 0xFFFFFFFF AND JUMP JUMPDEST PUSH32 0x0 PUSH20 0xFFFFFFFFFFFFFFFFFFFFFFFFFFFFFFFFFFFFFFFF AND PUSH4 0x40C10F19 CALLER DUP7 PUSH1 0x40 MLOAD DUP4 PUSH4 0xFFFFFFFF AND PUSH1 0xE0 SHL DUP2 MSTORE PUSH1 0x4 ADD PUSH2 0x7BF SWAP3 SWAP2 SWAP1 PUSH2 0x26F5 JUMP JUMPDEST PUSH0 PUSH1 0x40 MLOAD DUP1 DUP4 SUB DUP2 PUSH0 DUP8 DUP1 EXTCODESIZE ISZERO DUP1 ISZERO PUSH2 0x7D6 JUMPI PUSH0 PUSH0 REVERT JUMPDEST POP GAS CALL ISZERO DUP1 ISZERO PUSH2 0x7E8 JUMPI RETURNDATASIZE PUSH0 PUSH0 RETURNDATACOPY RETURNDATASIZE PUSH0 REVERT JUMPDEST POP POP POP POP CALLER PUSH20 0xFFFFFFFFFFFFFFFFFFFFFFFFFFFFFFFFFFFFFFFF AND PUSH32 0x5A3358A3D27A5373C0DF2604662088D37894D56B7CFD27F315770440F4E0D919 DUP5 DUP4 DUP8 PUSH1 0x40 MLOAD PUSH2 0x836 SWAP4 SWAP3 SWAP2 SWAP1 PUSH2 0x271C JUMP JUMPDEST PUSH1 0x40 MLOAD DUP1 SWAP2 SUB SWAP1 LOG2 POP POP PUSH2 0x848 PUSH2 0x1B2A JUMP JUMPDEST SWAP3 POP SWAP3 SWAP1 POP JUMP JUMPDEST PUSH0 PUSH0 PUSH0 PUSH2 0x85A PUSH2 0x1715 JUMP JUMPDEST SWAP1 POP PUSH0 PUSH2 0x866 DUP3 PUSH2 0x189A JUMP JUMPDEST SWAP1 POP PUSH2 0x872 DUP6 DUP3 PUSH2 0x1B44 JUMP JUMPDEST SWAP4 POP SWAP4 POP POP POP SWAP2 POP SWAP2 JUMP JUMPDEST PUSH1 0x3 SLOAD DUP2 JUMP JUMPDEST PUSH2 0x88B PUSH2 0x1C73 JUMP JUMPDEST PUSH0 PUSH20 0xFFFFFFFFFFFFFFFFFFFFFFFFFFFFFFFFFFFFFFFF AND DUP2 PUSH20 0xFFFFFFFFFFFFFFFFFFFFFFFFFFFFFFFFFFFFFFFF AND SUB PUSH2 0x8F9 JUMPI PUSH1 0x40 MLOAD PUSH32 0x8C379A000000000000000000000000000000000000000000000000000000000 DUP2 MSTORE PUSH1 0x4 ADD PUSH2 0x8F0 SWAP1 PUSH2 0x279B JUMP JUMPDEST PUSH1 0x40 MLOAD DUP1 SWAP2 SUB SWAP1 REVERT JUMPDEST DUP1 PUSH1 0x2 PUSH0 PUSH2 0x100 EXP DUP2 SLOAD DUP2 PUSH20 0xFFFFFFFFFFFFFFFFFFFFFFFFFFFFFFFFFFFFFFFF MUL NOT AND SWAP1 DUP4 PUSH20 0xFFFFFFFFFFFFFFFFFFFFFFFFFFFFFFFFFFFFFFFF AND MUL OR SWAP1 SSTORE POP DUP1 PUSH20 0xFFFFFFFFFFFFFFFFFFFFFFFFFFFFFFFFFFFFFFFF AND PUSH32 0x141C634522C8BFCF25BEBA4C524AC0C87DE0DB74EBE83168CF5F3BF4D45FD898 PUSH1 0x40 MLOAD PUSH1 0x40 MLOAD DUP1 SWAP2 SUB SWAP1 LOG2 POP JUMP JUMPDEST PUSH0 PUSH0 PUSH32 0x0 PUSH20 0xFFFFFFFFFFFFFFFFFFFFFFFFFFFFFFFFFFFFFFFF AND PUSH4 0x18160DDD PUSH1 0x40 MLOAD DUP2 PUSH4 0xFFFFFFFF AND PUSH1 0xE0 SHL DUP2 MSTORE PUSH1 0x4 ADD PUSH1 0x20 PUSH1 0x40 MLOAD DUP1 DUP4 SUB DUP2 DUP7 GAS STATICCALL ISZERO DUP1 ISZERO PUSH2 0x9EA JUMPI RETURNDATASIZE PUSH0 PUSH0 RETURNDATACOPY RETURNDATASIZE PUSH0 REVERT JUMPDEST POP POP POP POP PUSH1 0x40 MLOAD RETURNDATASIZE PUSH1 0x1F NOT PUSH1 0x1F DUP3 ADD AND DUP3 ADD DUP1 PUSH1 0x40 MSTORE POP DUP2 ADD SWAP1 PUSH2 0xA0E SWAP2 SWAP1 PUSH2 0x27CD JUMP JUMPDEST SWAP1 POP PUSH0 DUP2 SUB PUSH2 0xA40 JUMPI PUSH32 0x0 SWAP2 POP POP PUSH2 0xA59 JUMP JUMPDEST PUSH0 PUSH2 0xA49 PUSH2 0x1715 JUMP JUMPDEST SWAP1 POP PUSH2 0xA54 DUP2 PUSH2 0x189A JUMP JUMPDEST SWAP3 POP POP POP JUMPDEST SWAP1 JUMP JUMPDEST PUSH2 0xA64 PUSH2 0x1C73 JUMP JUMPDEST PUSH2 0xA6D PUSH0 PUSH2 0x1CFA JUMP JUMPDEST JUMP JUMPDEST PUSH2 0xA77 PUSH2 0x1C73 JUMP JUMPDEST PUSH1 0x2 PUSH1 0x14 SWAP1 SLOAD SWAP1 PUSH2 0x100 EXP SWAP1 DIV PUSH1 0xFF AND ISZERO PUSH2 0xAC7 JUMPI PUSH1 0x40 MLOAD PUSH32 0x8C379A000000000000000000000000000000000000000000000000000000000 DUP2 MSTORE PUSH1 0x4 ADD PUSH2 0xABE SWAP1 PUSH2 0x2842 JUMP JUMPDEST PUSH1 0x40 MLOAD DUP1 SWAP2 SUB SWAP1 REVERT JUMPDEST PUSH0 PUSH2 0xAD0 PUSH2 0x1715 JUMP JUMPDEST SWAP1 POP PUSH0 DUP2 PUSH0 ADD MLOAD GT PUSH2 0xB17 JUMPI PUSH1 0x40 MLOAD PUSH32 0x8C379A000000000000000000000000000000000000000000000000000000000 DUP2 MSTORE PUSH1 0x4 ADD PUSH2 0xB0E SWAP1 PUSH2 0x28AA JUMP JUMPDEST PUSH1 0x40 MLOAD DUP1 SWAP2 SUB SWAP1 REVERT JUMPDEST PUSH0 PUSH32 0x0 PUSH32 0x0 DUP4 PUSH0 ADD MLOAD PUSH2 0xB68 SWAP2 SWAP1 PUSH2 0x28F5 JUMP JUMPDEST PUSH2 0xB72 SWAP2 SWAP1 PUSH2 0x2963 JUMP JUMPDEST SWAP1 POP PUSH0 DUP2 GT PUSH2 0xBB6 JUMPI PUSH1 0x40 MLOAD PUSH32 0x8C379A000000000000000000000000000000000000000000000000000000000 DUP2 MSTORE PUSH1 0x4 ADD PUSH2 0xBAD SWAP1 PUSH2 0x29DD JUMP JUMPDEST PUSH1 0x40 MLOAD DUP1 SWAP2 SUB SWAP1 REVERT JUMPDEST PUSH1 0x1 PUSH1 0x2 PUSH1 0x14 PUSH2 0x100 EXP DUP2 SLOAD DUP2 PUSH1 0xFF MUL NOT AND SWAP1 DUP4 ISZERO ISZERO MUL OR SWAP1 SSTORE POP PUSH32 0x0 PUSH20 0xFFFFFFFFFFFFFFFFFFFFFFFFFFFFFFFFFFFFFFFF AND PUSH4 0x40C10F19 PUSH1 0x2 PUSH0 SWAP1 SLOAD SWAP1 PUSH2 0x100 EXP SWAP1 DIV PUSH20 0xFFFFFFFFFFFFFFFFFFFFFFFFFFFFFFFFFFFFFFFF AND DUP4 PUSH1 0x40 MLOAD DUP4 PUSH4 0xFFFFFFFF AND PUSH1 0xE0 SHL DUP2 MSTORE PUSH1 0x4 ADD PUSH2 0xC4D SWAP3 SWAP2 SWAP1 PUSH2 0x26F5 JUMP JUMPDEST PUSH0 PUSH1 0x40 MLOAD DUP1 DUP4 SUB DUP2 PUSH0 DUP8 DUP1 EXTCODESIZE ISZERO DUP1 ISZERO PUSH2 0xC64 JUMPI PUSH0 PUSH0 REVERT JUMPDEST POP GAS CALL ISZERO DUP1 ISZERO PUSH2 0xC76 JUMPI RETURNDATASIZE PUSH0 PUSH0 RETURNDATACOPY RETURNDATASIZE PUSH0 REVERT JUMPDEST POP POP POP POP PUSH1 0x2 PUSH0 SWAP1 SLOAD SWAP1 PUSH2 0x100 EXP SWAP1 DIV PUSH20 0xFFFFFFFFFFFFFFFFFFFFFFFFFFFFFFFFFFFFFFFF AND PUSH20 0xFFFFFFFFFFFFFFFFFFFFFFFFFFFFFFFFFFFFFFFF AND PUSH32 0x7DAA9E69E51AAE98674A933164CA91B034CB5856823C3EA6A98065BA29E97283 DUP4 PUSH0 ADD MLOAD PUSH32 0x0 DUP5 PUSH1 0x40 MLOAD PUSH2 0xD08 SWAP4 SWAP3 SWAP2 SWAP1 PUSH2 0x271C JUMP JUMPDEST PUSH1 0x40 MLOAD DUP1 SWAP2 SUB SWAP1 LOG2 POP POP JUMP JUMPDEST PUSH2 0xD1C PUSH2 0x1C73 JUMP JUMPDEST PUSH0 PUSH20 0xFFFFFFFFFFFFFFFFFFFFFFFFFFFFFFFFFFFFFFFF AND DUP2 PUSH20 0xFFFFFFFFFFFFFFFFFFFFFFFFFFFFFFFFFFFFFFFF AND SUB PUSH2 0xD8A JUMPI PUSH1 0x40 MLOAD PUSH32 0x8C379A000000000000000000000000000000000000000000000000000000000 DUP2 MSTORE PUSH1 0x4 ADD PUSH2 0xD81 SWAP1 PUSH2 0x2A45 JUMP JUMPDEST PUSH1 0x40 MLOAD DUP1 SWAP2 SUB SWAP1 REVERT JUMPDEST DUP1 PUSH1 0x1 PUSH0 PUSH2 0x100 EXP DUP2 SLOAD DUP2 PUSH20 0xFFFFFFFFFFFFFFFFFFFFFFFFFFFFFFFFFFFFFFFF MUL NOT AND SWAP1 DUP4 PUSH20 0xFFFFFFFFFFFFFFFFFFFFFFFFFFFFFFFFFFFFFFFF AND MUL OR SWAP1 SSTORE POP DUP1 PUSH20 0xFFFFFFFFFFFFFFFFFFFFFFFFFFFFFFFFFFFFFFFF AND PUSH32 0x3F32684A32A11DABDBB8C0177DE80AA3AE36A004D75210335B49E544E48CD0AA PUSH1 0x40 MLOAD PUSH1 0x40 MLOAD DUP1 SWAP2 SUB SWAP1 LOG2 POP JUMP JUMPDEST PUSH0 PUSH0 PUSH2 0xE1A PUSH2 0x16F3 JUMP JUMPDEST PUSH1 0x2 PUSH1 0x14 SWAP1 SLOAD SWAP1 PUSH2 0x100 EXP SWAP1 DIV PUSH1 0xFF AND PUSH2 0xE69 JUMPI PUSH1 0x40 MLOAD PUSH32 0x8C379A000000000000000000000000000000000000000000000000000000000 DUP2 MSTORE PUSH1 0x4 ADD PUSH2 0xE60 SWAP1 PUSH2 0x2467 JUMP JUMPDEST PUSH1 0x40 MLOAD DUP1 SWAP2 SUB SWAP1 REVERT JUMPDEST PUSH1 0x2 PUSH1 0x16 SWAP1 SLOAD SWAP1 PUSH2 0x100 EXP SWAP1 DIV PUSH1 0xFF AND ISZERO PUSH2 0xEB9 JUMPI PUSH1 0x40 MLOAD PUSH32 0x8C379A000000000000000000000000000000000000000000000000000000000 DUP2 MSTORE PUSH1 0x4 ADD PUSH2 0xEB0 SWAP1 PUSH2 0x2AAD JUMP JUMPDEST PUSH1 0x40 MLOAD DUP1 SWAP2 SUB SWAP1 REVERT JUMPDEST PUSH0 DUP5 GT PUSH2 0xEFB JUMPI PUSH1 0x40 MLOAD PUSH32 0x8C379A000000000000000000000000000000000000000000000000000000000 DUP2 MSTORE PUSH1 0x4 ADD PUSH2 0xEF2 SWAP1 PUSH2 0x2B15 JUMP JUMPDEST PUSH1 0x40 MLOAD DUP1 SWAP2 SUB SWAP1 REVERT JUMPDEST PUSH0 PUSH2 0xF04 PUSH2 0x1715 JUMP JUMPDEST SWAP1 POP PUSH0 PUSH2 0xF10 DUP3 PUSH2 0x189A JUMP JUMPDEST SWAP1 POP PUSH2 0xF1C DUP7 DUP3 PUSH2 0x1B44 JUMP JUMPDEST DUP1 SWAP5 POP DUP2 SWAP6 POP POP POP PUSH0 DUP5 GT PUSH2 0xF66 JUMPI PUSH1 0x40 MLOAD PUSH32 0x8C379A000000000000000000000000000000000000000000000000000000000 DUP2 MSTORE PUSH1 0x4 ADD PUSH2 0xF5D SWAP1 PUSH2 0x2B7D JUMP JUMPDEST PUSH1 0x40 MLOAD DUP1 SWAP2 SUB SWAP1 REVERT JUMPDEST DUP6 DUP5 GT ISZERO PUSH2 0xFA9 JUMPI PUSH1 0x40 MLOAD PUSH32 0x8C379A000000000000000000000000000000000000000000000000000000000 DUP2 MSTORE PUSH1 0x4 ADD PUSH2 0xFA0 SWAP1 PUSH2 0x2BE5 JUMP JUMPDEST PUSH1 0x40 MLOAD DUP1 SWAP2 SUB SWAP1 REVERT JUMPDEST PUSH0 DUP4 GT PUSH2 0xFEB JUMPI PUSH1 0x40 MLOAD PUSH32 0x8C379A000000000000000000000000000000000000000000000000000000000 DUP2 MSTORE PUSH1 0x4 ADD PUSH2 0xFE2 SWAP1 PUSH2 0x2C4D JUMP JUMPDEST PUSH1 0x40 MLOAD DUP1 SWAP2 SUB SWAP1 REVERT JUMPDEST DUP5 DUP4 LT ISZERO PUSH2 0x102E JUMPI PUSH1 0x40 MLOAD PUSH32 0x8C379A000000000000000000000000000000000000000000000000000000000 DUP2 MSTORE PUSH1 0x4 ADD PUSH2 0x1025 SWAP1 PUSH2 0x2CB5 JUMP JUMPDEST PUSH1 0x40 MLOAD DUP1 SWAP2 SUB SWAP1 REVERT JUMPDEST DUP3 PUSH32 0x0 PUSH20 0xFFFFFFFFFFFFFFFFFFFFFFFFFFFFFFFFFFFFFFFF AND PUSH4 0x70A08231 ADDRESS PUSH1 0x40 MLOAD DUP3 PUSH4 0xFFFFFFFF AND PUSH1 0xE0 SHL DUP2 MSTORE PUSH1 0x4 ADD PUSH2 0x1088 SWAP2 SWAP1 PUSH2 0x21E0 JUMP JUMPDEST PUSH1 0x20 PUSH1 0x40 MLOAD DUP1 DUP4 SUB DUP2 DUP7 GAS STATICCALL ISZERO DUP1 ISZERO PUSH2 0x10A3 JUMPI RETURNDATASIZE PUSH0 PUSH0 RETURNDATACOPY RETURNDATASIZE PUSH0 REVERT JUMPDEST POP POP POP POP PUSH1 0x40 MLOAD RETURNDATASIZE PUSH1 0x1F NOT PUSH1 0x1F DUP3 ADD AND DUP3 ADD DUP1 PUSH1 0x40 MSTORE POP DUP2 ADD SWAP1 PUSH2 0x10C7 SWAP2 SWAP1 PUSH2 0x27CD JUMP JUMPDEST LT ISZERO PUSH2 0x1108 JUMPI PUSH1 0x40 MLOAD PUSH32 0x8C379A000000000000000000000000000000000000000000000000000000000 DUP2 MSTORE PUSH1 0x4 ADD PUSH2 0x10FF SWAP1 PUSH2 0x2D1D JUMP JUMPDEST PUSH1 0x40 MLOAD DUP1 SWAP2 SUB SWAP1 REVERT JUMPDEST PUSH32 0x0 PUSH20 0xFFFFFFFFFFFFFFFFFFFFFFFFFFFFFFFFFFFFFFFF AND PUSH4 0x9DC29FAC CALLER DUP7 PUSH1 0x40 MLOAD DUP4 PUSH4 0xFFFFFFFF AND PUSH1 0xE0 SHL DUP2 MSTORE PUSH1 0x4 ADD PUSH2 0x1163 SWAP3 SWAP2 SWAP1 PUSH2 0x26F5 JUMP JUMPDEST PUSH0 PUSH1 0x40 MLOAD DUP1 DUP4 SUB DUP2 PUSH0 DUP8 DUP1 EXTCODESIZE ISZERO DUP1 ISZERO PUSH2 0x117A JUMPI PUSH0 PUSH0 REVERT JUMPDEST POP GAS CALL ISZERO DUP1 ISZERO PUSH2 0x118C JUMPI RETURNDATASIZE PUSH0 PUSH0 RETURNDATACOPY RETURNDATASIZE PUSH0 REVERT JUMPDEST POP POP POP POP PUSH2 0x11DB CALLER DUP5 PUSH32 0x0 PUSH20 0xFFFFFFFFFFFFFFFFFFFFFFFFFFFFFFFFFFFFFFFF AND PUSH2 0x1DBB SWAP1 SWAP3 SWAP2 SWAP1 PUSH4 0xFFFFFFFF AND JUMP JUMPDEST CALLER PUSH20 0xFFFFFFFFFFFFFFFFFFFFFFFFFFFFFFFFFFFFFFFF AND PUSH32 0x484C40561359F3E3B8BE9101897F8680AA82FBE1DF9FD9038E0DBC6284032646 DUP6 DUP4 DUP7 PUSH1 0x40 MLOAD PUSH2 0x1225 SWAP4 SWAP3 SWAP2 SWAP1 PUSH2 0x271C JUMP JUMPDEST PUSH1 0x40 MLOAD DUP1 SWAP2 SUB SWAP1 LOG2 POP POP PUSH2 0x1237 PUSH2 0x1B2A JUMP JUMPDEST SWAP3 POP SWAP3 SWAP1 POP JUMP JUMPDEST PUSH1 0x1 PUSH0 SWAP1 SLOAD SWAP1 PUSH2 0x100 EXP SWAP1 DIV PUSH20 0xFFFFFFFFFFFFFFFFFFFFFFFFFFFFFFFFFFFFFFFF AND DUP2 JUMP JUMPDEST PUSH1 0x2 PUSH1 0x15 SWAP1 SLOAD SWAP1 PUSH2 0x100 EXP SWAP1 DIV PUSH1 0xFF AND DUP2 JUMP JUMPDEST PUSH0 PUSH0 PUSH0 SWAP1 SLOAD SWAP1 PUSH2 0x100 EXP SWAP1 DIV PUSH20 0xFFFFFFFFFFFFFFFFFFFFFFFFFFFFFFFFFFFFFFFF AND SWAP1 POP SWAP1 JUMP JUMPDEST PUSH0 PUSH0 PUSH2 0x12A7 PUSH2 0x1715 JUMP JUMPDEST SWAP1 POP PUSH2 0x12B2 DUP2 PUSH2 0x1E0E JUMP JUMPDEST SWAP2 POP POP SWAP1 JUMP JUMPDEST PUSH1 0x2 PUSH1 0x14 SWAP1 SLOAD SWAP1 PUSH2 0x100 EXP SWAP1 DIV PUSH1 0xFF AND PUSH2 0x1307 JUMPI PUSH1 0x40 MLOAD PUSH32 0x8C379A000000000000000000000000000000000000000000000000000000000 DUP2 MSTORE PUSH1 0x4 ADD PUSH2 0x12FE SWAP1 PUSH2 0x2467 JUMP JUMPDEST PUSH1 0x40 MLOAD DUP1 SWAP2 SUB SWAP1 REVERT JUMPDEST PUSH0 DUP2 GT PUSH2 0x1349 JUMPI PUSH1 0x40 MLOAD PUSH32 0x8C379A000000000000000000000000000000000000000000000000000000000 DUP2 MSTORE PUSH1 0x4 ADD PUSH2 0x1340 SWAP1 PUSH2 0x2B15 JUMP JUMPDEST PUSH1 0x40 MLOAD DUP1 SWAP2 SUB SWAP1 REVERT JUMPDEST PUSH0 PUSH2 0x1352 PUSH2 0x1715 JUMP JUMPDEST SWAP1 POP PUSH0 PUSH2 0x135E DUP3 PUSH2 0x189A JUMP JUMPDEST SWAP1 POP PUSH0 PUSH0 PUSH2 0x136C DUP6 DUP5 PUSH2 0x1B44 JUMP JUMPDEST SWAP2 POP SWAP2 POP PUSH0 DUP3 GT PUSH2 0x13B2 JUMPI PUSH1 0x40 MLOAD PUSH32 0x8C379A000000000000000000000000000000000000000000000000000000000 DUP2 MSTORE PUSH1 0x4 ADD PUSH2 0x13A9 SWAP1 PUSH2 0x2B7D JUMP JUMPDEST PUSH1 0x40 MLOAD DUP1 SWAP2 SUB SWAP1 REVERT JUMPDEST PUSH0 DUP2 GT PUSH2 0x13F4 JUMPI PUSH1 0x40 MLOAD PUSH32 0x8C379A000000000000000000000000000000000000000000000000000000000 DUP2 MSTORE PUSH1 0x4 ADD PUSH2 0x13EB SWAP1 PUSH2 0x2C4D JUMP JUMPDEST PUSH1 0x40 MLOAD DUP1 SWAP2 SUB SWAP1 REVERT JUMPDEST CALLER PUSH20 0xFFFFFFFFFFFFFFFFFFFFFFFFFFFFFFFFFFFFFFFF AND PUSH32 0x5952C21AB4E64F9CE2D0DAF53A8286DA3C634EAB5A86CCDF38EBEFC3087EA301 DUP4 DUP6 DUP5 PUSH1 0x40 MLOAD PUSH2 0x143E SWAP4 SWAP3 SWAP2 SWAP1 PUSH2 0x271C JUMP JUMPDEST PUSH1 0x40 MLOAD DUP1 SWAP2 SUB SWAP1 LOG2 POP POP POP POP POP JUMP JUMPDEST PUSH1 0x2 PUSH1 0x16 SWAP1 SLOAD SWAP1 PUSH2 0x100 EXP SWAP1 DIV PUSH1 0xFF AND DUP2 JUMP JUMPDEST PUSH2 0x1468 PUSH2 0x1C73 JUMP JUMPDEST DUP1 PUSH1 0x2 PUSH1 0x15 PUSH2 0x100 EXP DUP2 SLOAD DUP2 PUSH1 0xFF MUL NOT AND SWAP1 DUP4 ISZERO ISZERO MUL OR SWAP1 SSTORE POP PUSH32 0xFB79081612032F5CE63340F421121D9F8B8EA04158F08B2DFAFACB3393CAF98 DUP2 PUSH1 0x40 MLOAD PUSH2 0x14B1 SWAP2 SWAP1 PUSH2 0x21A7 JUMP JUMPDEST PUSH1 0x40 MLOAD DUP1 SWAP2 SUB SWAP1 LOG1 POP JUMP JUMPDEST PUSH0 PUSH32 0x0 PUSH20 0xFFFFFFFFFFFFFFFFFFFFFFFFFFFFFFFFFFFFFFFF AND PUSH4 0x70A08231 ADDRESS PUSH1 0x40 MLOAD DUP3 PUSH4 0xFFFFFFFF AND PUSH1 0xE0 SHL DUP2 MSTORE PUSH1 0x4 ADD PUSH2 0x1516 SWAP2 SWAP1 PUSH2 0x21E0 JUMP JUMPDEST PUSH1 0x20 PUSH1 0x40 MLOAD DUP1 DUP4 SUB DUP2 DUP7 GAS STATICCALL ISZERO DUP1 ISZERO PUSH2 0x1531 JUMPI RETURNDATASIZE PUSH0 PUSH0 RETURNDATACOPY RETURNDATASIZE PUSH0 REVERT JUMPDEST POP POP POP POP PUSH1 0x40 MLOAD RETURNDATASIZE PUSH1 0x1F NOT PUSH1 0x1F DUP3 ADD AND DUP3 ADD DUP1 PUSH1 0x40 MSTORE POP DUP2 ADD SWAP1 PUSH2 0x1555 SWAP2 SWAP1 PUSH2 0x27CD JUMP JUMPDEST SWAP1 POP SWAP1 JUMP JUMPDEST PUSH0 PUSH0 PUSH0 PUSH2 0x1565 PUSH2 0x1715 JUMP JUMPDEST SWAP1 POP PUSH0 PUSH2 0x1571 DUP3 PUSH2 0x189A JUMP JUMPDEST SWAP1 POP PUSH2 0x157D DUP6 DUP3 PUSH2 0x19A8 JUMP JUMPDEST SWAP4 POP SWAP4 POP POP POP SWAP2 POP SWAP2 JUMP JUMPDEST PUSH2 0x1590 PUSH2 0x1C73 JUMP JUMPDEST DUP1 PUSH1 0x2 PUSH1 0x16 PUSH2 0x100 EXP DUP2 SLOAD DUP2 PUSH1 0xFF MUL NOT AND SWAP1 DUP4 ISZERO ISZERO MUL OR SWAP1 SSTORE POP PUSH32 0xCAB6EB524363CE625BCD6D709065FE3433487EFEBB486F47D00F3C310E952B63 DUP2 PUSH1 0x40 MLOAD PUSH2 0x15D9 SWAP2 SWAP1 PUSH2 0x21A7 JUMP JUMPDEST PUSH1 0x40 MLOAD DUP1 SWAP2 SUB SWAP1 LOG1 POP JUMP JUMPDEST PUSH2 0x15EC PUSH2 0x1C73 JUMP JUMPDEST PUSH0 DUP2 GT PUSH2 0x162E JUMPI PUSH1 0x40 MLOAD PUSH32 0x8C379A000000000000000000000000000000000000000000000000000000000 DUP2 MSTORE PUSH1 0x4 ADD PUSH2 0x1625 SWAP1 PUSH2 0x2D85 JUMP JUMPDEST PUSH1 0x40 MLOAD DUP1 SWAP2 SUB SWAP1 REVERT JUMPDEST DUP1 PUSH1 0x3 DUP2 SWAP1 SSTORE POP PUSH32 0xB321AA162C9F5D4BBD1AEE2493D56A1DE75F6B43EB21E6987F5C67230000A3CA DUP2 PUSH1 0x40 MLOAD PUSH2 0x1664 SWAP2 SWAP1 PUSH2 0x2311 JUMP JUMPDEST PUSH1 0x40 MLOAD DUP1 SWAP2 SUB SWAP1 LOG1 POP JUMP JUMPDEST PUSH2 0x1677 PUSH2 0x1C73 JUMP JUMPDEST PUSH0 PUSH20 0xFFFFFFFFFFFFFFFFFFFFFFFFFFFFFFFFFFFFFFFF AND DUP2 PUSH20 0xFFFFFFFFFFFFFFFFFFFFFFFFFFFFFFFFFFFFFFFF AND SUB PUSH2 0x16E7 JUMPI PUSH0 PUSH1 0x40 MLOAD PUSH32 0x1E4FBDF700000000000000000000000000000000000000000000000000000000 DUP2 MSTORE PUSH1 0x4 ADD PUSH2 0x16DE SWAP2 SWAP1 PUSH2 0x21E0 JUMP JUMPDEST PUSH1 0x40 MLOAD DUP1 SWAP2 SUB SWAP1 REVERT JUMPDEST PUSH2 0x16F0 DUP2 PUSH2 0x1CFA JUMP JUMPDEST POP JUMP JUMPDEST PUSH2 0x16FB PUSH2 0x1EEC JUMP JUMPDEST PUSH1 0x2 PUSH2 0x170D PUSH2 0x1708 PUSH2 0x1F2D JUMP JUMPDEST PUSH2 0x1F56 JUMP JUMPDEST PUSH0 ADD DUP2 SWAP1 SSTORE POP JUMP JUMPDEST PUSH2 0x171D PUSH2 0x20D4 JUMP JUMPDEST PUSH1 0x1 PUSH0 SWAP1 SLOAD SWAP1 PUSH2 0x100 EXP SWAP1 DIV PUSH20 0xFFFFFFFFFFFFFFFFFFFFFFFFFFFFFFFFFFFFFFFF AND PUSH20 0xFFFFFFFFFFFFFFFFFFFFFFFFFFFFFFFFFFFFFFFF AND PUSH4 0x186F34D5 PUSH1 0x40 MLOAD DUP2 PUSH4 0xFFFFFFFF AND PUSH1 0xE0 SHL DUP2 MSTORE PUSH1 0x4 ADD PUSH1 0x80 PUSH1 0x40 MLOAD DUP1 DUP4 SUB DUP2 DUP7 GAS STATICCALL ISZERO DUP1 ISZERO PUSH2 0x1787 JUMPI RETURNDATASIZE PUSH0 PUSH0 RETURNDATACOPY RETURNDATASIZE PUSH0 REVERT JUMPDEST POP POP POP POP PUSH1 0x40 MLOAD RETURNDATASIZE PUSH1 0x1F NOT PUSH1 0x1F DUP3 ADD AND DUP3 ADD DUP1 PUSH1 0x40 MSTORE POP DUP2 ADD SWAP1 PUSH2 0x17AB SWAP2 SWAP1 PUSH2 0x2EEB JUMP JUMPDEST SWAP1 POP DUP1 PUSH1 0x20 ADD MLOAD PUSH2 0x17F1 JUMPI PUSH1 0x40 MLOAD PUSH32 0x8C379A000000000000000000000000000000000000000000000000000000000 DUP2 MSTORE PUSH1 0x4 ADD PUSH2 0x17E8 SWAP1 PUSH2 0x2F60 JUMP JUMPDEST PUSH1 0x40 MLOAD DUP1 SWAP2 SUB SWAP1 REVERT JUMPDEST PUSH0 DUP2 PUSH1 0x40 ADD MLOAD GT PUSH2 0x1837 JUMPI PUSH1 0x40 MLOAD PUSH32 0x8C379A000000000000000000000000000000000000000000000000000000000 DUP2 MSTORE PUSH1 0x4 ADD PUSH2 0x182E SWAP1 PUSH2 0x2FC8 JUMP JUMPDEST PUSH1 0x40 MLOAD DUP1 SWAP2 SUB SWAP1 REVERT JUMPDEST PUSH0 PUSH1 0x3 SLOAD EQ DUP1 PUSH2 0x1858 JUMPI POP PUSH1 0x3 SLOAD DUP2 PUSH1 0x40 ADD MLOAD TIMESTAMP PUSH2 0x1855 SWAP2 SWAP1 PUSH2 0x2FE6 JUMP JUMPDEST GT ISZERO JUMPDEST PUSH2 0x1897 JUMPI PUSH1 0x40 MLOAD PUSH32 0x8C379A000000000000000000000000000000000000000000000000000000000 DUP2 MSTORE PUSH1 0x4 ADD PUSH2 0x188E SWAP1 PUSH2 0x3063 JUMP JUMPDEST PUSH1 0x40 MLOAD DUP1 SWAP2 SUB SWAP1 REVERT JUMPDEST SWAP1 JUMP JUMPDEST PUSH0 PUSH0 PUSH32 0x0 PUSH20 0xFFFFFFFFFFFFFFFFFFFFFFFFFFFFFFFFFFFFFFFF AND PUSH4 0x18160DDD PUSH1 0x40 MLOAD DUP2 PUSH4 0xFFFFFFFF AND PUSH1 0xE0 SHL DUP2 MSTORE PUSH1 0x4 ADD PUSH1 0x20 PUSH1 0x40 MLOAD DUP1 DUP4 SUB DUP2 DUP7 GAS STATICCALL ISZERO DUP1 ISZERO PUSH2 0x1905 JUMPI RETURNDATASIZE PUSH0 PUSH0 RETURNDATACOPY RETURNDATASIZE PUSH0 REVERT JUMPDEST POP POP POP POP PUSH1 0x40 MLOAD RETURNDATASIZE PUSH1 0x1F NOT PUSH1 0x1F DUP3 ADD AND DUP3 ADD DUP1 PUSH1 0x40 MSTORE POP DUP2 ADD SWAP1 PUSH2 0x1929 SWAP2 SWAP1 PUSH2 0x27CD JUMP JUMPDEST SWAP1 POP PUSH0 DUP2 SUB PUSH2 0x195B JUMPI PUSH32 0x0 SWAP2 POP POP PUSH2 0x19A3 JUMP JUMPDEST PUSH0 PUSH2 0x1965 DUP5 PUSH2 0x1E0E JUMP JUMPDEST SWAP1 POP DUP2 PUSH32 0x0 DUP3 PUSH2 0x1994 SWAP2 SWAP1 PUSH2 0x28F5 JUMP JUMPDEST PUSH2 0x199E SWAP2 SWAP1 PUSH2 0x2963 JUMP JUMPDEST SWAP3 POP POP POP JUMPDEST SWAP2 SWAP1 POP JUMP JUMPDEST PUSH0 PUSH0 PUSH0 DUP4 GT PUSH2 0x19EC JUMPI PUSH1 0x40 MLOAD PUSH32 0x8C379A000000000000000000000000000000000000000000000000000000000 DUP2 MSTORE PUSH1 0x4 ADD PUSH2 0x19E3 SWAP1 PUSH2 0x30CB JUMP JUMPDEST PUSH1 0x40 MLOAD DUP1 SWAP2 SUB SWAP1 REVERT JUMPDEST PUSH0 PUSH32 0x0 DUP6 PUSH2 0x1A19 SWAP2 SWAP1 PUSH2 0x28F5 JUMP JUMPDEST SWAP1 POP DUP4 PUSH32 0x0 DUP3 PUSH2 0x1A48 SWAP2 SWAP1 PUSH2 0x28F5 JUMP JUMPDEST PUSH2 0x1A52 SWAP2 SWAP1 PUSH2 0x2963 JUMP JUMPDEST SWAP3 POP PUSH0 DUP4 SUB PUSH2 0x1A67 JUMPI PUSH0 PUSH0 SWAP3 POP SWAP3 POP POP PUSH2 0x1ACE JUMP JUMPDEST PUSH0 PUSH2 0x1A9D DUP6 DUP6 PUSH2 0x1A77 SWAP2 SWAP1 PUSH2 0x28F5 JUMP JUMPDEST PUSH32 0x0 PUSH2 0x1F5F JUMP JUMPDEST SWAP1 POP PUSH2 0x1AC9 DUP2 PUSH32 0x0 PUSH2 0x1F5F JUMP JUMPDEST SWAP3 POP POP POP JUMPDEST SWAP3 POP SWAP3 SWAP1 POP JUMP JUMPDEST PUSH2 0x1AE3 DUP5 DUP5 DUP5 DUP5 PUSH1 0x1 PUSH2 0x1FDE JUMP JUMPDEST PUSH2 0x1B24 JUMPI DUP4 PUSH1 0x40 MLOAD PUSH32 0x5274AFE700000000000000000000000000000000000000000000000000000000 DUP2 MSTORE PUSH1 0x4 ADD PUSH2 0x1B1B SWAP2 SWAP1 PUSH2 0x21E0 JUMP JUMPDEST PUSH1 0x40 MLOAD DUP1 SWAP2 SUB SWAP1 REVERT JUMPDEST POP POP POP POP JUMP JUMPDEST PUSH1 0x1 PUSH2 0x1B3C PUSH2 0x1B37 PUSH2 0x1F2D JUMP JUMPDEST PUSH2 0x1F56 JUMP JUMPDEST PUSH0 ADD DUP2 SWAP1 SSTORE POP JUMP JUMPDEST PUSH0 PUSH0 PUSH0 DUP4 GT PUSH2 0x1B88 JUMPI PUSH1 0x40 MLOAD PUSH32 0x8C379A000000000000000000000000000000000000000000000000000000000 DUP2 MSTORE PUSH1 0x4 ADD PUSH2 0x1B7F SWAP1 PUSH2 0x30CB JUMP JUMPDEST PUSH1 0x40 MLOAD DUP1 SWAP2 SUB SWAP1 REVERT JUMPDEST PUSH0 PUSH32 0x0 DUP5 DUP7 PUSH2 0x1BB6 SWAP2 SWAP1 PUSH2 0x28F5 JUMP JUMPDEST PUSH2 0x1BC0 SWAP2 SWAP1 PUSH2 0x2963 JUMP JUMPDEST SWAP1 POP PUSH32 0x0 DUP2 PUSH2 0x1BEE SWAP2 SWAP1 PUSH2 0x2963 JUMP JUMPDEST SWAP2 POP PUSH0 DUP3 SUB PUSH2 0x1C03 JUMPI PUSH0 PUSH0 SWAP3 POP SWAP3 POP POP PUSH2 0x1C6C JUMP JUMPDEST PUSH0 PUSH32 0x0 DUP4 PUSH2 0x1C30 SWAP2 SWAP1 PUSH2 0x28F5 JUMP JUMPDEST SWAP1 POP PUSH2 0x1C67 PUSH32 0x0 DUP3 PUSH2 0x1C61 SWAP2 SWAP1 PUSH2 0x28F5 JUMP JUMPDEST DUP7 PUSH2 0x1F5F JUMP JUMPDEST SWAP4 POP POP POP JUMPDEST SWAP3 POP SWAP3 SWAP1 POP JUMP JUMPDEST PUSH2 0x1C7B PUSH2 0x204F JUMP JUMPDEST PUSH20 0xFFFFFFFFFFFFFFFFFFFFFFFFFFFFFFFFFFFFFFFF AND PUSH2 0x1C99 PUSH2 0x1276 JUMP JUMPDEST PUSH20 0xFFFFFFFFFFFFFFFFFFFFFFFFFFFFFFFFFFFFFFFF AND EQ PUSH2 0x1CF8 JUMPI PUSH2 0x1CBC PUSH2 0x204F JUMP JUMPDEST PUSH1 0x40 MLOAD PUSH32 0x118CDAA700000000000000000000000000000000000000000000000000000000 DUP2 MSTORE PUSH1 0x4 ADD PUSH2 0x1CEF SWAP2 SWAP1 PUSH2 0x21E0 JUMP JUMPDEST PUSH1 0x40 MLOAD DUP1 SWAP2 SUB SWAP1 REVERT JUMPDEST JUMP JUMPDEST PUSH0 PUSH0 PUSH0 SWAP1 SLOAD SWAP1 PUSH2 0x100 EXP SWAP1 DIV PUSH20 0xFFFFFFFFFFFFFFFFFFFFFFFFFFFFFFFFFFFFFFFF AND SWAP1 POP DUP2 PUSH0 PUSH0 PUSH2 0x100 EXP DUP2 SLOAD DUP2 PUSH20 0xFFFFFFFFFFFFFFFFFFFFFFFFFFFFFFFFFFFFFFFF MUL NOT AND SWAP1 DUP4 PUSH20 0xFFFFFFFFFFFFFFFFFFFFFFFFFFFFFFFFFFFFFFFF AND MUL OR SWAP1 SSTORE POP DUP2 PUSH20 0xFFFFFFFFFFFFFFFFFFFFFFFFFFFFFFFFFFFFFFFF AND DUP2 PUSH20 0xFFFFFFFFFFFFFFFFFFFFFFFFFFFFFFFFFFFFFFFF AND PUSH32 0x8BE0079C531659141344CD1FD0A4F28419497F9722A3DAAFE3B4186F6B6457E0 PUSH1 0x40 MLOAD PUSH1 0x40 MLOAD DUP1 SWAP2 SUB SWAP1 LOG3 POP POP JUMP JUMPDEST PUSH2 0x1DC8 DUP4 DUP4 DUP4 PUSH1 0x1 PUSH2 0x2056 JUMP JUMPDEST PUSH2 0x1E09 JUMPI DUP3 PUSH1 0x40 MLOAD PUSH32 0x5274AFE700000000000000000000000000000000000000000000000000000000 DUP2 MSTORE PUSH1 0x4 ADD PUSH2 0x1E00 SWAP2 SWAP1 PUSH2 0x21E0 JUMP JUMPDEST PUSH1 0x40 MLOAD DUP1 SWAP2 SUB SWAP1 REVERT JUMPDEST POP POP POP JUMP JUMPDEST PUSH0 PUSH0 PUSH32 0x0 PUSH32 0x0 PUSH20 0xFFFFFFFFFFFFFFFFFFFFFFFFFFFFFFFFFFFFFFFF AND PUSH4 0x70A08231 ADDRESS PUSH1 0x40 MLOAD DUP3 PUSH4 0xFFFFFFFF AND PUSH1 0xE0 SHL DUP2 MSTORE PUSH1 0x4 ADD PUSH2 0x1E8A SWAP2 SWAP1 PUSH2 0x21E0 JUMP JUMPDEST PUSH1 0x20 PUSH1 0x40 MLOAD DUP1 DUP4 SUB DUP2 DUP7 GAS STATICCALL ISZERO DUP1 ISZERO PUSH2 0x1EA5 JUMPI RETURNDATASIZE PUSH0 PUSH0 RETURNDATACOPY RETURNDATASIZE PUSH0 REVERT JUMPDEST POP POP POP POP PUSH1 0x40 MLOAD RETURNDATASIZE PUSH1 0x1F NOT PUSH1 0x1F DUP3 ADD AND DUP3 ADD DUP1 PUSH1 0x40 MSTORE POP DUP2 ADD SWAP1 PUSH2 0x1EC9 SWAP2 SWAP1 PUSH2 0x27CD JUMP JUMPDEST PUSH2 0x1ED3 SWAP2 SWAP1 PUSH2 0x28F5 JUMP JUMPDEST SWAP1 POP DUP1 DUP4 PUSH0 ADD MLOAD PUSH2 0x1EE4 SWAP2 SWAP1 PUSH2 0x30E9 JUMP JUMPDEST SWAP2 POP POP SWAP2 SWAP1 POP JUMP JUMPDEST PUSH2 0x1EF4 PUSH2 0x20B8 JUMP JUMPDEST ISZERO PUSH2 0x1F2B JUMPI PUSH1 0x40 MLOAD PUSH32 0x3EE5AEB500000000000000000000000000000000000000000000000000000000 DUP2 MSTORE PUSH1 0x4 ADD PUSH1 0x40 MLOAD DUP1 SWAP2 SUB SWAP1 REVERT JUMPDEST JUMP JUMPDEST PUSH0 PUSH32 0x9B779B17422D0DF92223018B32B4D1FA46E071723D6817E2486D003BECC55F00 PUSH0 SHL SWAP1 POP SWAP1 JUMP JUMPDEST PUSH0 DUP2 SWAP1 POP SWAP2 SWAP1 POP JUMP JUMPDEST PUSH0 PUSH0 DUP3 GT PUSH2 0x1FA2 JUMPI PUSH1 0x40 MLOAD PUSH32 0x8C379A000000000000000000000000000000000000000000000000000000000 DUP2 MSTORE PUSH1 0x4 ADD PUSH2 0x1F99 SWAP1 PUSH2 0x3166 JUMP JUMPDEST PUSH1 0x40 MLOAD DUP1 SWAP2 SUB SWAP1 REVERT JUMPDEST PUSH0 DUP4 SUB PUSH2 0x1FB1 JUMPI PUSH0 SWAP1 POP PUSH2 0x1FD8 JUMP JUMPDEST PUSH1 0x1 DUP3 PUSH1 0x1 DUP6 PUSH2 0x1FC1 SWAP2 SWAP1 PUSH2 0x2FE6 JUMP JUMPDEST PUSH2 0x1FCB SWAP2 SWAP1 PUSH2 0x2963 JUMP JUMPDEST PUSH2 0x1FD5 SWAP2 SWAP1 PUSH2 0x30E9 JUMP JUMPDEST SWAP1 POP JUMPDEST SWAP3 SWAP2 POP POP JUMP JUMPDEST PUSH0 PUSH0 PUSH4 0x23B872DD PUSH1 0xE0 SHL SWAP1 POP PUSH1 0x40 MLOAD DUP2 PUSH0 MSTORE PUSH0 NOT PUSH1 0x60 SHR DUP8 AND PUSH1 0x4 MSTORE PUSH0 NOT PUSH1 0x60 SHR DUP7 AND PUSH1 0x24 MSTORE DUP5 PUSH1 0x44 MSTORE PUSH1 0x20 PUSH0 PUSH1 0x64 PUSH0 PUSH0 DUP13 GAS CALL SWAP3 POP PUSH1 0x1 PUSH0 MLOAD EQ DUP4 AND PUSH2 0x203C JUMPI DUP4 DUP4 ISZERO AND ISZERO PUSH2 0x2030 JUMPI RETURNDATASIZE PUSH0 DUP3 RETURNDATACOPY RETURNDATASIZE DUP2 REVERT JUMPDEST PUSH0 DUP9 EXTCODESIZE GT RETURNDATASIZE ISZERO AND DUP4 AND SWAP3 POP JUMPDEST DUP1 PUSH1 0x40 MSTORE PUSH0 PUSH1 0x60 MSTORE POP POP SWAP6 SWAP5 POP POP POP POP POP JUMP JUMPDEST PUSH0 CALLER SWAP1 POP SWAP1 JUMP JUMPDEST PUSH0 PUSH0 PUSH4 0xA9059CBB PUSH1 0xE0 SHL SWAP1 POP PUSH1 0x40 MLOAD DUP2 PUSH0 MSTORE PUSH0 NOT PUSH1 0x60 SHR DUP7 AND PUSH1 0x4 MSTORE DUP5 PUSH1 0x24 MSTORE PUSH1 0x20 PUSH0 PUSH1 0x44 PUSH0 PUSH0 DUP12 GAS CALL SWAP3 POP PUSH1 0x1 PUSH0 MLOAD EQ DUP4 AND PUSH2 0x20AA JUMPI DUP4 DUP4 ISZERO AND ISZERO PUSH2 0x209E JUMPI RETURNDATASIZE PUSH0 DUP3 RETURNDATACOPY RETURNDATASIZE DUP2 REVERT JUMPDEST PUSH0 DUP8 EXTCODESIZE GT RETURNDATASIZE ISZERO AND DUP4 AND SWAP3 POP JUMPDEST DUP1 PUSH1 0x40 MSTORE POP POP SWAP5 SWAP4 POP POP POP POP JUMP JUMPDEST PUSH0 PUSH1 0x2 PUSH2 0x20CB PUSH2 0x20C6 PUSH2 0x1F2D JUMP JUMPDEST PUSH2 0x1F56 JUMP JUMPDEST PUSH0 ADD SLOAD EQ SWAP1 POP SWAP1 JUMP JUMPDEST PUSH1 0x40 MLOAD DUP1 PUSH1 0x80 ADD PUSH1 0x40 MSTORE DUP1 PUSH0 DUP2 MSTORE PUSH1 0x20 ADD PUSH0 ISZERO ISZERO DUP2 MSTORE PUSH1 0x20 ADD PUSH0 DUP2 MSTORE PUSH1 0x20 ADD PUSH0 DUP2 MSTORE POP SWAP1 JUMP JUMPDEST PUSH0 PUSH20 0xFFFFFFFFFFFFFFFFFFFFFFFFFFFFFFFFFFFFFFFF DUP3 AND SWAP1 POP SWAP2 SWAP1 POP JUMP JUMPDEST PUSH0 DUP2 SWAP1 POP SWAP2 SWAP1 POP JUMP JUMPDEST PUSH0 PUSH2 0x213C PUSH2 0x2137 PUSH2 0x2132 DUP5 PUSH2 0x20FA JUMP JUMPDEST PUSH2 0x2119 JUMP JUMPDEST PUSH2 0x20FA JUMP JUMPDEST SWAP1 POP SWAP2 SWAP1 POP JUMP JUMPDEST PUSH0 PUSH2 0x214D DUP3 PUSH2 0x2122 JUMP JUMPDEST SWAP1 POP SWAP2 SWAP1 POP JUMP JUMPDEST PUSH0 PUSH2 0x215E DUP3 PUSH2 0x2143 JUMP JUMPDEST SWAP1 POP SWAP2 SWAP1 POP JUMP JUMPDEST PUSH2 0x216E DUP2 PUSH2 0x2154 JUMP JUMPDEST DUP3 MSTORE POP POP JUMP JUMPDEST PUSH0 PUSH1 0x20 DUP3 ADD SWAP1 POP PUSH2 0x2187 PUSH0 DUP4 ADD DUP5 PUSH2 0x2165 JUMP JUMPDEST SWAP3 SWAP2 POP POP JUMP JUMPDEST PUSH0 DUP2 ISZERO ISZERO SWAP1 POP SWAP2 SWAP1 POP JUMP JUMPDEST PUSH2 0x21A1 DUP2 PUSH2 0x218D JUMP JUMPDEST DUP3 MSTORE POP POP JUMP JUMPDEST PUSH0 PUSH1 0x20 DUP3 ADD SWAP1 POP PUSH2 0x21BA PUSH0 DUP4 ADD DUP5 PUSH2 0x2198 JUMP JUMPDEST SWAP3 SWAP2 POP POP JUMP JUMPDEST PUSH0 PUSH2 0x21CA DUP3 PUSH2 0x20FA JUMP JUMPDEST SWAP1 POP SWAP2 SWAP1 POP JUMP JUMPDEST PUSH2 0x21DA DUP2 PUSH2 0x21C0 JUMP JUMPDEST DUP3 MSTORE POP POP JUMP JUMPDEST PUSH0 PUSH1 0x20 DUP3 ADD SWAP1 POP PUSH2 0x21F3 PUSH0 DUP4 ADD DUP5 PUSH2 0x21D1 JUMP JUMPDEST SWAP3 SWAP2 POP POP JUMP JUMPDEST PUSH0 PUSH2 0x2203 DUP3 PUSH2 0x2143 JUMP JUMPDEST SWAP1 POP SWAP2 SWAP1 POP JUMP JUMPDEST PUSH2 0x2213 DUP2 PUSH2 0x21F9 JUMP JUMPDEST DUP3 MSTORE POP POP JUMP JUMPDEST PUSH0 PUSH1 0x20 DUP3 ADD SWAP1 POP PUSH2 0x222C PUSH0 DUP4 ADD DUP5 PUSH2 0x220A JUMP JUMPDEST SWAP3 SWAP2 POP POP JUMP JUMPDEST PUSH0 PUSH1 0x40 MLOAD SWAP1 POP SWAP1 JUMP JUMPDEST PUSH0 PUSH0 REVERT JUMPDEST PUSH0 DUP2 SWAP1 POP SWAP2 SWAP1 POP JUMP JUMPDEST PUSH2 0x2251 DUP2 PUSH2 0x223F JUMP JUMPDEST DUP2 EQ PUSH2 0x225B JUMPI PUSH0 PUSH0 REVERT JUMPDEST POP JUMP JUMPDEST PUSH0 DUP2 CALLDATALOAD SWAP1 POP PUSH2 0x226C DUP2 PUSH2 0x2248 JUMP JUMPDEST SWAP3 SWAP2 POP POP JUMP JUMPDEST PUSH0 PUSH0 PUSH1 0x40 DUP4 DUP6 SUB SLT ISZERO PUSH2 0x2288 JUMPI PUSH2 0x2287 PUSH2 0x223B JUMP JUMPDEST JUMPDEST PUSH0 PUSH2 0x2295 DUP6 DUP3 DUP7 ADD PUSH2 0x225E JUMP JUMPDEST SWAP3 POP POP PUSH1 0x20 PUSH2 0x22A6 DUP6 DUP3 DUP7 ADD PUSH2 0x225E JUMP JUMPDEST SWAP2 POP POP SWAP3 POP SWAP3 SWAP1 POP JUMP JUMPDEST PUSH2 0x22B9 DUP2 PUSH2 0x223F JUMP JUMPDEST DUP3 MSTORE POP POP JUMP JUMPDEST PUSH0 PUSH1 0x40 DUP3 ADD SWAP1 POP PUSH2 0x22D2 PUSH0 DUP4 ADD DUP6 PUSH2 0x22B0 JUMP JUMPDEST PUSH2 0x22DF PUSH1 0x20 DUP4 ADD DUP5 PUSH2 0x22B0 JUMP JUMPDEST SWAP4 SWAP3 POP POP POP JUMP JUMPDEST PUSH0 PUSH1 0x20 DUP3 DUP5 SUB SLT ISZERO PUSH2 0x22FB JUMPI PUSH2 0x22FA PUSH2 0x223B JUMP JUMPDEST JUMPDEST PUSH0 PUSH2 0x2308 DUP5 DUP3 DUP6 ADD PUSH2 0x225E JUMP JUMPDEST SWAP2 POP POP SWAP3 SWAP2 POP POP JUMP JUMPDEST PUSH0 PUSH1 0x20 DUP3 ADD SWAP1 POP PUSH2 0x2324 PUSH0 DUP4 ADD DUP5 PUSH2 0x22B0 JUMP JUMPDEST SWAP3 SWAP2 POP POP JUMP JUMPDEST PUSH2 0x2333 DUP2 PUSH2 0x21C0 JUMP JUMPDEST DUP2 EQ PUSH2 0x233D JUMPI PUSH0 PUSH0 REVERT JUMPDEST POP JUMP JUMPDEST PUSH0 DUP2 CALLDATALOAD SWAP1 POP PUSH2 0x234E DUP2 PUSH2 0x232A JUMP JUMPDEST SWAP3 SWAP2 POP POP JUMP JUMPDEST PUSH0 PUSH1 0x20 DUP3 DUP5 SUB SLT ISZERO PUSH2 0x2369 JUMPI PUSH2 0x2368 PUSH2 0x223B JUMP JUMPDEST JUMPDEST PUSH0 PUSH2 0x2376 DUP5 DUP3 DUP6 ADD PUSH2 0x2340 JUMP JUMPDEST SWAP2 POP POP SWAP3 SWAP2 POP POP JUMP JUMPDEST PUSH0 PUSH2 0x2389 DUP3 PUSH2 0x2143 JUMP JUMPDEST SWAP1 POP SWAP2 SWAP1 POP JUMP JUMPDEST PUSH2 0x2399 DUP2 PUSH2 0x237F JUMP JUMPDEST DUP3 MSTORE POP POP JUMP JUMPDEST PUSH0 PUSH1 0x20 DUP3 ADD SWAP1 POP PUSH2 0x23B2 PUSH0 DUP4 ADD DUP5 PUSH2 0x2390 JUMP JUMPDEST SWAP3 SWAP2 POP POP JUMP JUMPDEST PUSH2 0x23C1 DUP2 PUSH2 0x218D JUMP JUMPDEST DUP2 EQ PUSH2 0x23CB JUMPI PUSH0 PUSH0 REVERT JUMPDEST POP JUMP JUMPDEST PUSH0 DUP2 CALLDATALOAD SWAP1 POP PUSH2 0x23DC DUP2 PUSH2 0x23B8 JUMP JUMPDEST SWAP3 SWAP2 POP POP JUMP JUMPDEST PUSH0 PUSH1 0x20 DUP3 DUP5 SUB SLT ISZERO PUSH2 0x23F7 JUMPI PUSH2 0x23F6 PUSH2 0x223B JUMP JUMPDEST JUMPDEST PUSH0 PUSH2 0x2404 DUP5 DUP3 DUP6 ADD PUSH2 0x23CE JUMP JUMPDEST SWAP2 POP POP SWAP3 SWAP2 POP POP JUMP JUMPDEST PUSH0 DUP3 DUP3 MSTORE PUSH1 0x20 DUP3 ADD SWAP1 POP SWAP3 SWAP2 POP POP JUMP JUMPDEST PUSH32 0x6E6F7420696E697469616C697A65640000000000000000000000000000000000 PUSH0 DUP3 ADD MSTORE POP JUMP JUMPDEST PUSH0 PUSH2 0x2451 PUSH1 0xF DUP4 PUSH2 0x240D JUMP JUMPDEST SWAP2 POP PUSH2 0x245C DUP3 PUSH2 0x241D JUMP JUMPDEST PUSH1 0x20 DUP3 ADD SWAP1 POP SWAP2 SWAP1 POP JUMP JUMPDEST PUSH0 PUSH1 0x20 DUP3 ADD SWAP1 POP DUP2 DUP2 SUB PUSH0 DUP4 ADD MSTORE PUSH2 0x247E DUP2 PUSH2 0x2445 JUMP JUMPDEST SWAP1 POP SWAP2 SWAP1 POP JUMP JUMPDEST PUSH32 0x6D696E7420706175736564000000000000000000000000000000000000000000 PUSH0 DUP3 ADD MSTORE POP JUMP JUMPDEST PUSH0 PUSH2 0x24B9 PUSH1 0xB DUP4 PUSH2 0x240D JUMP JUMPDEST SWAP2 POP PUSH2 0x24C4 DUP3 PUSH2 0x2485 JUMP JUMPDEST PUSH1 0x20 DUP3 ADD SWAP1 POP SWAP2 SWAP1 POP JUMP JUMPDEST PUSH0 PUSH1 0x20 DUP3 ADD SWAP1 POP DUP2 DUP2 SUB PUSH0 DUP4 ADD MSTORE PUSH2 0x24E6 DUP2 PUSH2 0x24AD JUMP JUMPDEST SWAP1 POP SWAP2 SWAP1 POP JUMP JUMPDEST PUSH32 0x7A65726F20555344430000000000000000000000000000000000000000000000 PUSH0 DUP3 ADD MSTORE POP JUMP JUMPDEST PUSH0 PUSH2 0x2521 PUSH1 0x9 DUP4 PUSH2 0x240D JUMP JUMPDEST SWAP2 POP PUSH2 0x252C DUP3 PUSH2 0x24ED JUMP JUMPDEST PUSH1 0x20 DUP3 ADD SWAP1 POP SWAP2 SWAP1 POP JUMP JUMPDEST PUSH0 PUSH1 0x20 DUP3 ADD SWAP1 POP DUP2 DUP2 SUB PUSH0 DUP4 ADD MSTORE PUSH2 0x254E DUP2 PUSH2 0x2515 JUMP JUMPDEST SWAP1 POP SWAP2 SWAP1 POP JUMP JUMPDEST PUSH32 0x7A65726F206D696E7420616D6F756E7400000000000000000000000000000000 PUSH0 DUP3 ADD MSTORE POP JUMP JUMPDEST PUSH0 PUSH2 0x2589 PUSH1 0x10 DUP4 PUSH2 0x240D JUMP JUMPDEST SWAP2 POP PUSH2 0x2594 DUP3 PUSH2 0x2555 JUMP JUMPDEST PUSH1 0x20 DUP3 ADD SWAP1 POP SWAP2 SWAP1 POP JUMP JUMPDEST PUSH0 PUSH1 0x20 DUP3 ADD SWAP1 POP DUP2 DUP2 SUB PUSH0 DUP4 ADD MSTORE PUSH2 0x25B6 DUP2 PUSH2 0x257D JUMP JUMPDEST SWAP1 POP SWAP2 SWAP1 POP JUMP JUMPDEST PUSH32 0x696E73756666696369656E7420525741206F7574000000000000000000000000 PUSH0 DUP3 ADD MSTORE POP JUMP JUMPDEST PUSH0 PUSH2 0x25F1 PUSH1 0x14 DUP4 PUSH2 0x240D JUMP JUMPDEST SWAP2 POP PUSH2 0x25FC DUP3 PUSH2 0x25BD JUMP JUMPDEST PUSH1 0x20 DUP3 ADD SWAP1 POP SWAP2 SWAP1 POP JUMP JUMPDEST PUSH0 PUSH1 0x20 DUP3 ADD SWAP1 POP DUP2 DUP2 SUB PUSH0 DUP4 ADD MSTORE PUSH2 0x261E DUP2 PUSH2 0x25E5 JUMP JUMPDEST SWAP1 POP SWAP2 SWAP1 POP JUMP JUMPDEST PUSH32 0x7A65726F20555344432072657175697265640000000000000000000000000000 PUSH0 DUP3 ADD MSTORE POP JUMP JUMPDEST PUSH0 PUSH2 0x2659 PUSH1 0x12 DUP4 PUSH2 0x240D JUMP JUMPDEST SWAP2 POP PUSH2 0x2664 DUP3 PUSH2 0x2625 JUMP JUMPDEST PUSH1 0x20 DUP3 ADD SWAP1 POP SWAP2 SWAP1 POP JUMP JUMPDEST PUSH0 PUSH1 0x20 DUP3 ADD SWAP1 POP DUP2 DUP2 SUB PUSH0 DUP4 ADD MSTORE PUSH2 0x2686 DUP2 PUSH2 0x264D JUMP JUMPDEST SWAP1 POP SWAP2 SWAP1 POP JUMP JUMPDEST PUSH32 0x555344432072657175697265642065786365656473206D617800000000000000 PUSH0 DUP3 ADD MSTORE POP JUMP JUMPDEST PUSH0 PUSH2 0x26C1 PUSH1 0x19 DUP4 PUSH2 0x240D JUMP JUMPDEST SWAP2 POP PUSH2 0x26CC DUP3 PUSH2 0x268D JUMP JUMPDEST PUSH1 0x20 DUP3 ADD SWAP1 POP SWAP2 SWAP1 POP JUMP JUMPDEST PUSH0 PUSH1 0x20 DUP3 ADD SWAP1 POP DUP2 DUP2 SUB PUSH0 DUP4 ADD MSTORE PUSH2 0x26EE DUP2 PUSH2 0x26B5 JUMP JUMPDEST SWAP1 POP SWAP2 SWAP1 POP JUMP JUMPDEST PUSH0 PUSH1 0x40 DUP3 ADD SWAP1 POP PUSH2 0x2708 PUSH0 DUP4 ADD DUP6 PUSH2 0x21D1 JUMP JUMPDEST PUSH2 0x2715 PUSH1 0x20 DUP4 ADD DUP5 PUSH2 0x22B0 JUMP JUMPDEST SWAP4 SWAP3 POP POP POP JUMP JUMPDEST PUSH0 PUSH1 0x60 DUP3 ADD SWAP1 POP PUSH2 0x272F PUSH0 DUP4 ADD DUP7 PUSH2 0x22B0 JUMP JUMPDEST PUSH2 0x273C PUSH1 0x20 DUP4 ADD DUP6 PUSH2 0x22B0 JUMP JUMPDEST PUSH2 0x2749 PUSH1 0x40 DUP4 ADD DUP5 PUSH2 0x22B0 JUMP JUMPDEST SWAP5 SWAP4 POP POP POP POP JUMP JUMPDEST PUSH32 0x6261642069737375657200000000000000000000000000000000000000000000 PUSH0 DUP3 ADD MSTORE POP JUMP JUMPDEST PUSH0 PUSH2 0x2785 PUSH1 0xA DUP4 PUSH2 0x240D JUMP JUMPDEST SWAP2 POP PUSH2 0x2790 DUP3 PUSH2 0x2751 JUMP JUMPDEST PUSH1 0x20 DUP3 ADD SWAP1 POP SWAP2 SWAP1 POP JUMP JUMPDEST PUSH0 PUSH1 0x20 DUP3 ADD SWAP1 POP DUP2 DUP2 SUB PUSH0 DUP4 ADD MSTORE PUSH2 0x27B2 DUP2 PUSH2 0x2779 JUMP JUMPDEST SWAP1 POP SWAP2 SWAP1 POP JUMP JUMPDEST PUSH0 DUP2 MLOAD SWAP1 POP PUSH2 0x27C7 DUP2 PUSH2 0x2248 JUMP JUMPDEST SWAP3 SWAP2 POP POP JUMP JUMPDEST PUSH0 PUSH1 0x20 DUP3 DUP5 SUB SLT ISZERO PUSH2 0x27E2 JUMPI PUSH2 0x27E1 PUSH2 0x223B JUMP JUMPDEST JUMPDEST PUSH0 PUSH2 0x27EF DUP5 DUP3 DUP6 ADD PUSH2 0x27B9 JUMP JUMPDEST SWAP2 POP POP SWAP3 SWAP2 POP POP JUMP JUMPDEST PUSH32 0x616C726561647920696E697469616C697A656400000000000000000000000000 PUSH0 DUP3 ADD MSTORE POP JUMP JUMPDEST PUSH0 PUSH2 0x282C PUSH1 0x13 DUP4 PUSH2 0x240D JUMP JUMPDEST SWAP2 POP PUSH2 0x2837 DUP3 PUSH2 0x27F8 JUMP JUMPDEST PUSH1 0x20 DUP3 ADD SWAP1 POP SWAP2 SWAP1 POP JUMP JUMPDEST PUSH0 PUSH1 0x20 DUP3 ADD SWAP1 POP DUP2 DUP2 SUB PUSH0 DUP4 ADD MSTORE PUSH2 0x2859 DUP2 PUSH2 0x2820 JUMP JUMPDEST SWAP1 POP SWAP2 SWAP1 POP JUMP JUMPDEST PUSH32 0x6E6F206F6666636861696E207265736572766500000000000000000000000000 PUSH0 DUP3 ADD MSTORE POP JUMP JUMPDEST PUSH0 PUSH2 0x2894 PUSH1 0x13 DUP4 PUSH2 0x240D JUMP JUMPDEST SWAP2 POP PUSH2 0x289F DUP3 PUSH2 0x2860 JUMP JUMPDEST PUSH1 0x20 DUP3 ADD SWAP1 POP SWAP2 SWAP1 POP JUMP JUMPDEST PUSH0 PUSH1 0x20 DUP3 ADD SWAP1 POP DUP2 DUP2 SUB PUSH0 DUP4 ADD MSTORE PUSH2 0x28C1 DUP2 PUSH2 0x2888 JUMP JUMPDEST SWAP1 POP SWAP2 SWAP1 POP JUMP JUMPDEST PUSH32 0x4E487B7100000000000000000000000000000000000000000000000000000000 PUSH0 MSTORE PUSH1 0x11 PUSH1 0x4 MSTORE PUSH1 0x24 PUSH0 REVERT JUMPDEST PUSH0 PUSH2 0x28FF DUP3 PUSH2 0x223F JUMP JUMPDEST SWAP2 POP PUSH2 0x290A DUP4 PUSH2 0x223F JUMP JUMPDEST SWAP3 POP DUP3 DUP3 MUL PUSH2 0x2918 DUP2 PUSH2 0x223F JUMP JUMPDEST SWAP2 POP DUP3 DUP3 DIV DUP5 EQ DUP4 ISZERO OR PUSH2 0x292F JUMPI PUSH2 0x292E PUSH2 0x28C8 JUMP JUMPDEST JUMPDEST POP SWAP3 SWAP2 POP POP JUMP JUMPDEST PUSH32 0x4E487B7100000000000000000000000000000000000000000000000000000000 PUSH0 MSTORE PUSH1 0x12 PUSH1 0x4 MSTORE PUSH1 0x24 PUSH0 REVERT JUMPDEST PUSH0 PUSH2 0x296D DUP3 PUSH2 0x223F JUMP JUMPDEST SWAP2 POP PUSH2 0x2978 DUP4 PUSH2 0x223F JUMP JUMPDEST SWAP3 POP DUP3 PUSH2 0x2988 JUMPI PUSH2 0x2987 PUSH2 0x2936 JUMP JUMPDEST JUMPDEST DUP3 DUP3 DIV SWAP1 POP SWAP3 SWAP2 POP POP JUMP JUMPDEST PUSH32 0x7A65726F20696E697469616C20737570706C7900000000000000000000000000 PUSH0 DUP3 ADD MSTORE POP JUMP JUMPDEST PUSH0 PUSH2 0x29C7 PUSH1 0x13 DUP4 PUSH2 0x240D JUMP JUMPDEST SWAP2 POP PUSH2 0x29D2 DUP3 PUSH2 0x2993 JUMP JUMPDEST PUSH1 0x20 DUP3 ADD SWAP1 POP SWAP2 SWAP1 POP JUMP JUMPDEST PUSH0 PUSH1 0x20 DUP3 ADD SWAP1 POP DUP2 DUP2 SUB PUSH0 DUP4 ADD MSTORE PUSH2 0x29F4 DUP2 PUSH2 0x29BB JUMP JUMPDEST SWAP1 POP SWAP2 SWAP1 POP JUMP JUMPDEST PUSH32 0x626164206F7261636C6500000000000000000000000000000000000000000000 PUSH0 DUP3 ADD MSTORE POP JUMP JUMPDEST PUSH0 PUSH2 0x2A2F PUSH1 0xA DUP4 PUSH2 0x240D JUMP JUMPDEST SWAP2 POP PUSH2 0x2A3A DUP3 PUSH2 0x29FB JUMP JUMPDEST PUSH1 0x20 DUP3 ADD SWAP1 POP SWAP2 SWAP1 POP JUMP JUMPDEST PUSH0 PUSH1 0x20 DUP3 ADD SWAP1 POP DUP2 DUP2 SUB PUSH0 DUP4 ADD MSTORE PUSH2 0x2A5C DUP2 PUSH2 0x2A23 JUMP JUMPDEST SWAP1 POP SWAP2 SWAP1 POP JUMP JUMPDEST PUSH32 0x72656465656D2070617573656400000000000000000000000000000000000000 PUSH0 DUP3 ADD MSTORE POP JUMP JUMPDEST PUSH0 PUSH2 0x2A97 PUSH1 0xD DUP4 PUSH2 0x240D JUMP JUMPDEST SWAP2 POP PUSH2 0x2AA2 DUP3 PUSH2 0x2A63 JUMP JUMPDEST PUSH1 0x20 DUP3 ADD SWAP1 POP SWAP2 SWAP1 POP JUMP JUMPDEST PUSH0 PUSH1 0x20 DUP3 ADD SWAP1 POP DUP2 DUP2 SUB PUSH0 DUP4 ADD MSTORE PUSH2 0x2AC4 DUP2 PUSH2 0x2A8B JUMP JUMPDEST SWAP1 POP SWAP2 SWAP1 POP JUMP JUMPDEST PUSH32 0x7A65726F20525741000000000000000000000000000000000000000000000000 PUSH0 DUP3 ADD MSTORE POP JUMP JUMPDEST PUSH0 PUSH2 0x2AFF PUSH1 0x8 DUP4 PUSH2 0x240D JUMP JUMPDEST SWAP2 POP PUSH2 0x2B0A DUP3 PUSH2 0x2ACB JUMP JUMPDEST PUSH1 0x20 DUP3 ADD SWAP1 POP SWAP2 SWAP1 POP JUMP JUMPDEST PUSH0 PUSH1 0x20 DUP3 ADD SWAP1 POP DUP2 DUP2 SUB PUSH0 DUP4 ADD MSTORE PUSH2 0x2B2C DUP2 PUSH2 0x2AF3 JUMP JUMPDEST SWAP1 POP SWAP2 SWAP1 POP JUMP JUMPDEST PUSH32 0x7A65726F20525741207265717569726564000000000000000000000000000000 PUSH0 DUP3 ADD MSTORE POP JUMP JUMPDEST PUSH0 PUSH2 0x2B67 PUSH1 0x11 DUP4 PUSH2 0x240D JUMP JUMPDEST SWAP2 POP PUSH2 0x2B72 DUP3 PUSH2 0x2B33 JUMP JUMPDEST PUSH1 0x20 DUP3 ADD SWAP1 POP SWAP2 SWAP1 POP JUMP JUMPDEST PUSH0 PUSH1 0x20 DUP3 ADD SWAP1 POP DUP2 DUP2 SUB PUSH0 DUP4 ADD MSTORE PUSH2 0x2B94 DUP2 PUSH2 0x2B5B JUMP JUMPDEST SWAP1 POP SWAP2 SWAP1 POP JUMP JUMPDEST PUSH32 0x5257412072657175697265642065786365656473206D61780000000000000000 PUSH0 DUP3 ADD MSTORE POP JUMP JUMPDEST PUSH0 PUSH2 0x2BCF PUSH1 0x18 DUP4 PUSH2 0x240D JUMP JUMPDEST SWAP2 POP PUSH2 0x2BDA DUP3 PUSH2 0x2B9B JUMP JUMPDEST PUSH1 0x20 DUP3 ADD SWAP1 POP SWAP2 SWAP1 POP JUMP JUMPDEST PUSH0 PUSH1 0x20 DUP3 ADD SWAP1 POP DUP2 DUP2 SUB PUSH0 DUP4 ADD MSTORE PUSH2 0x2BFC DUP2 PUSH2 0x2BC3 JUMP JUMPDEST SWAP1 POP SWAP2 SWAP1 POP JUMP JUMPDEST PUSH32 0x7A65726F2072656465656D20616D6F756E740000000000000000000000000000 PUSH0 DUP3 ADD MSTORE POP JUMP JUMPDEST PUSH0 PUSH2 0x2C37 PUSH1 0x12 DUP4 PUSH2 0x240D JUMP JUMPDEST SWAP2 POP PUSH2 0x2C42 DUP3 PUSH2 0x2C03 JUMP JUMPDEST PUSH1 0x20 DUP3 ADD SWAP1 POP SWAP2 SWAP1 POP JUMP JUMPDEST PUSH0 PUSH1 0x20 DUP3 ADD SWAP1 POP DUP2 DUP2 SUB PUSH0 DUP4 ADD MSTORE PUSH2 0x2C64 DUP2 PUSH2 0x2C2B JUMP JUMPDEST SWAP1 POP SWAP2 SWAP1 POP JUMP JUMPDEST PUSH32 0x696E73756666696369656E742055534443206F75740000000000000000000000 PUSH0 DUP3 ADD MSTORE POP JUMP JUMPDEST PUSH0 PUSH2 0x2C9F PUSH1 0x15 DUP4 PUSH2 0x240D JUMP JUMPDEST SWAP2 POP PUSH2 0x2CAA DUP3 PUSH2 0x2C6B JUMP JUMPDEST PUSH1 0x20 DUP3 ADD SWAP1 POP SWAP2 SWAP1 POP JUMP JUMPDEST PUSH0 PUSH1 0x20 DUP3 ADD SWAP1 POP DUP2 DUP2 SUB PUSH0 DUP4 ADD MSTORE PUSH2 0x2CCC DUP2 PUSH2 0x2C93 JUMP JUMPDEST SWAP1 POP SWAP2 SWAP1 POP JUMP JUMPDEST PUSH32 0x696E73756666696369656E742055534443206C69717569646974790000000000 PUSH0 DUP3 ADD MSTORE POP JUMP JUMPDEST PUSH0 PUSH2 0x2D07 PUSH1 0x1B DUP4 PUSH2 0x240D JUMP JUMPDEST SWAP2 POP PUSH2 0x2D12 DUP3 PUSH2 0x2CD3 JUMP JUMPDEST PUSH1 0x20 DUP3 ADD SWAP1 POP SWAP2 SWAP1 POP JUMP JUMPDEST PUSH0 PUSH1 0x20 DUP3 ADD SWAP1 POP DUP2 DUP2 SUB PUSH0 DUP4 ADD MSTORE PUSH2 0x2D34 DUP2 PUSH2 0x2CFB JUMP JUMPDEST SWAP1 POP SWAP2 SWAP1 POP JUMP JUMPDEST PUSH32 0x6261642064656C61790000000000000000000000000000000000000000000000 PUSH0 DUP3 ADD MSTORE POP JUMP JUMPDEST PUSH0 PUSH2 0x2D6F PUSH1 0x9 DUP4 PUSH2 0x240D JUMP JUMPDEST SWAP2 POP PUSH2 0x2D7A DUP3 PUSH2 0x2D3B JUMP JUMPDEST PUSH1 0x20 DUP3 ADD SWAP1 POP SWAP2 SWAP1 POP JUMP JUMPDEST PUSH0 PUSH1 0x20 DUP3 ADD SWAP1 POP DUP2 DUP2 SUB PUSH0 DUP4 ADD MSTORE PUSH2 0x2D9C DUP2 PUSH2 0x2D63 JUMP JUMPDEST SWAP1 POP SWAP2 SWAP1 POP JUMP JUMPDEST PUSH0 PUSH0 REVERT JUMPDEST PUSH0 PUSH1 0x1F NOT PUSH1 0x1F DUP4 ADD AND SWAP1 POP SWAP2 SWAP1 POP JUMP JUMPDEST PUSH32 0x4E487B7100000000000000000000000000000000000000000000000000000000 PUSH0 MSTORE PUSH1 0x41 PUSH1 0x4 MSTORE PUSH1 0x24 PUSH0 REVERT JUMPDEST PUSH2 0x2DED DUP3 PUSH2 0x2DA7 JUMP JUMPDEST DUP2 ADD DUP2 DUP2 LT PUSH8 0xFFFFFFFFFFFFFFFF DUP3 GT OR ISZERO PUSH2 0x2E0C JUMPI PUSH2 0x2E0B PUSH2 0x2DB7 JUMP JUMPDEST JUMPDEST DUP1 PUSH1 0x40 MSTORE POP POP POP JUMP JUMPDEST PUSH0 PUSH2 0x2E1E PUSH2 0x2232 JUMP JUMPDEST SWAP1 POP PUSH2 0x2E2A DUP3 DUP3 PUSH2 0x2DE4 JUMP JUMPDEST SWAP2 SWAP1 POP JUMP JUMPDEST PUSH0 DUP2 MLOAD SWAP1 POP PUSH2 0x2E3D DUP2 PUSH2 0x23B8 JUMP JUMPDEST SWAP3 SWAP2 POP POP JUMP JUMPDEST PUSH0 DUP2 SWAP1 POP SWAP2 SWAP1 POP JUMP JUMPDEST PUSH2 0x2E55 DUP2 PUSH2 0x2E43 JUMP JUMPDEST DUP2 EQ PUSH2 0x2E5F JUMPI PUSH0 PUSH0 REVERT JUMPDEST POP JUMP JUMPDEST PUSH0 DUP2 MLOAD SWAP1 POP PUSH2 0x2E70 DUP2 PUSH2 0x2E4C JUMP JUMPDEST SWAP3 SWAP2 POP POP JUMP JUMPDEST PUSH0 PUSH1 0x80 DUP3 DUP5 SUB SLT ISZERO PUSH2 0x2E8B JUMPI PUSH2 0x2E8A PUSH2 0x2DA3 JUMP JUMPDEST JUMPDEST PUSH2 0x2E95 PUSH1 0x80 PUSH2 0x2E15 JUMP JUMPDEST SWAP1 POP PUSH0 PUSH2 0x2EA4 DUP5 DUP3 DUP6 ADD PUSH2 0x27B9 JUMP JUMPDEST PUSH0 DUP4 ADD MSTORE POP PUSH1 0x20 PUSH2 0x2EB7 DUP5 DUP3 DUP6 ADD PUSH2 0x2E2F JUMP JUMPDEST PUSH1 0x20 DUP4 ADD MSTORE POP PUSH1 0x40 PUSH2 0x2ECB DUP5 DUP3 DUP6 ADD PUSH2 0x27B9 JUMP JUMPDEST PUSH1 0x40 DUP4 ADD MSTORE POP PUSH1 0x60 PUSH2 0x2EDF DUP5 DUP3 DUP6 ADD PUSH2 0x2E62 JUMP JUMPDEST PUSH1 0x60 DUP4 ADD MSTORE POP SWAP3 SWAP2 POP POP JUMP JUMPDEST PUSH0 PUSH1 0x80 DUP3 DUP5 SUB SLT ISZERO PUSH2 0x2F00 JUMPI PUSH2 0x2EFF PUSH2 0x223B JUMP JUMPDEST JUMPDEST PUSH0 PUSH2 0x2F0D DUP5 DUP3 DUP6 ADD PUSH2 0x2E76 JUMP JUMPDEST SWAP2 POP POP SWAP3 SWAP2 POP POP JUMP JUMPDEST PUSH32 0x7265736572766520696E76616C69640000000000000000000000000000000000 PUSH0 DUP3 ADD MSTORE POP JUMP JUMPDEST PUSH0 PUSH2 0x2F4A PUSH1 0xF DUP4 PUSH2 0x240D JUMP JUMPDEST SWAP2 POP PUSH2 0x2F55 DUP3 PUSH2 0x2F16 JUMP JUMPDEST PUSH1 0x20 DUP3 ADD SWAP1 POP SWAP2 SWAP1 POP JUMP JUMPDEST PUSH0 PUSH1 0x20 DUP3 ADD SWAP1 POP DUP2 DUP2 SUB PUSH0 DUP4 ADD MSTORE PUSH2 0x2F77 DUP2 PUSH2 0x2F3E JUMP JUMPDEST SWAP1 POP SWAP2 SWAP1 POP JUMP JUMPDEST PUSH32 0x6F7261636C65206E6F7420757064617465640000000000000000000000000000 PUSH0 DUP3 ADD MSTORE POP JUMP JUMPDEST PUSH0 PUSH2 0x2FB2 PUSH1 0x12 DUP4 PUSH2 0x240D JUMP JUMPDEST SWAP2 POP PUSH2 0x2FBD DUP3 PUSH2 0x2F7E JUMP JUMPDEST PUSH1 0x20 DUP3 ADD SWAP1 POP SWAP2 SWAP1 POP JUMP JUMPDEST PUSH0 PUSH1 0x20 DUP3 ADD SWAP1 POP DUP2 DUP2 SUB PUSH0 DUP4 ADD MSTORE PUSH2 0x2FDF DUP2 PUSH2 0x2FA6 JUMP JUMPDEST SWAP1 POP SWAP2 SWAP1 POP JUMP JUMPDEST PUSH0 PUSH2 0x2FF0 DUP3 PUSH2 0x223F JUMP JUMPDEST SWAP2 POP PUSH2 0x2FFB DUP4 PUSH2 0x223F JUMP JUMPDEST SWAP3 POP DUP3 DUP3 SUB SWAP1 POP DUP2 DUP2 GT ISZERO PUSH2 0x3013 JUMPI PUSH2 0x3012 PUSH2 0x28C8 JUMP JUMPDEST JUMPDEST SWAP3 SWAP2 POP POP JUMP JUMPDEST PUSH32 0x6F7261636C652064617461207374616C65000000000000000000000000000000 PUSH0 DUP3 ADD MSTORE POP JUMP JUMPDEST PUSH0 PUSH2 0x304D PUSH1 0x11 DUP4 PUSH2 0x240D JUMP JUMPDEST SWAP2 POP PUSH2 0x3058 DUP3 PUSH2 0x3019 JUMP JUMPDEST PUSH1 0x20 DUP3 ADD SWAP1 POP SWAP2 SWAP1 POP JUMP JUMPDEST PUSH0 PUSH1 0x20 DUP3 ADD SWAP1 POP DUP2 DUP2 SUB PUSH0 DUP4 ADD MSTORE PUSH2 0x307A DUP2 PUSH2 0x3041 JUMP JUMPDEST SWAP1 POP SWAP2 SWAP1 POP JUMP JUMPDEST PUSH32 0x626164204E415600000000000000000000000000000000000000000000000000 PUSH0 DUP3 ADD MSTORE POP JUMP JUMPDEST PUSH0 PUSH2 0x30B5 PUSH1 0x7 DUP4 PUSH2 0x240D JUMP JUMPDEST SWAP2 POP PUSH2 0x30C0 DUP3 PUSH2 0x3081 JUMP JUMPDEST PUSH1 0x20 DUP3 ADD SWAP1 POP SWAP2 SWAP1 POP JUMP JUMPDEST PUSH0 PUSH1 0x20 DUP3 ADD SWAP1 POP DUP2 DUP2 SUB PUSH0 DUP4 ADD MSTORE PUSH2 0x30E2 DUP2 PUSH2 0x30A9 JUMP JUMPDEST SWAP1 POP SWAP2 SWAP1 POP JUMP JUMPDEST PUSH0 PUSH2 0x30F3 DUP3 PUSH2 0x223F JUMP JUMPDEST SWAP2 POP PUSH2 0x30FE DUP4 PUSH2 0x223F JUMP JUMPDEST SWAP3 POP DUP3 DUP3 ADD SWAP1 POP DUP1 DUP3 GT ISZERO PUSH2 0x3116 JUMPI PUSH2 0x3115 PUSH2 0x28C8 JUMP JUMPDEST JUMPDEST SWAP3 SWAP2 POP POP JUMP JUMPDEST PUSH32 0x6469766973696F6E206279207A65726F00000000000000000000000000000000 PUSH0 DUP3 ADD MSTORE POP JUMP JUMPDEST PUSH0 PUSH2 0x3150 PUSH1 0x10 DUP4 PUSH2 0x240D JUMP JUMPDEST SWAP2 POP PUSH2 0x315B DUP3 PUSH2 0x311C JUMP JUMPDEST PUSH1 0x20 DUP3 ADD SWAP1 POP SWAP2 SWAP1 POP JUMP JUMPDEST PUSH0 PUSH1 0x20 DUP3 ADD SWAP1 POP DUP2 DUP2 SUB PUSH0 DUP4 ADD MSTORE PUSH2 0x317D DUP2 PUSH2 0x3144 JUMP JUMPDEST SWAP1 POP SWAP2 SWAP1 POP JUMP INVALID LOG2 PUSH5 0x6970667358 0x22 SLT KECCAK256 0x21 0x29 0x26 POP 0xE SWAP7 MCOPY SWAP14 EXTDELEGATECALL PUSH4 0xF37D6507 DUP8 0xAD SWAP13 GAS 0x24 PUSH19 0xD8666ED26002282A8678325864736F6C634300 ADDMOD 0x22 STOP CALLER "
		},
		"gasEstimates": {
			"creation": {
				"codeDepositCost": "2546000",
				"executionCost": "infinite",
				"totalCost": "infinite"
			},
			"external": {
				"initializeFund()": "infinite",
				"initialized()": "2563",
				"issuer()": "2576",
				"maxOracleDelay()": "2448",
				"mintPaused()": "2584",
				"mintWithUSDC(uint256,uint256)": "infinite",
				"navPerTokenUSD18()": "infinite",
				"oracle()": "infinite",
				"owner()": "2603",
				"previewMintWithUSDC(uint256)": "infinite",
				"previewRedeem(uint256)": "infinite",
				"redeem(uint256,uint256)": "infinite",
				"redeemPaused()": "2562",
				"renounceOwnership()": "infinite",
				"requestRedeem(uint256)": "infinite",
				"rwaToken()": "infinite",
				"setIssuer(address)": "infinite",
				"setMaxOracleDelay(uint256)": "infinite",
				"setMintPaused(bool)": "infinite",
				"setOracle(address)": "infinite",
				"setRedeemPaused(bool)": "infinite",
				"totalBackingValueUSD18()": "infinite",
				"transferOwnership(address)": "infinite",
				"usdc()": "infinite",
				"vaultUSDCBalance()": "infinite"
			},
			"internal": {
				"_ceilDiv(uint256,uint256)": "infinite",
				"_getValidOracleData()": "infinite",
				"_navPerTokenUSD18(struct ReserveData memory)": "infinite",
				"_quoteMintWithUSDC(uint256,uint256)": "infinite",
				"_quoteRedeem(uint256,uint256)": "infinite",
				"_totalBackingValueUSD18(struct ReserveData memory)": "infinite"
			}
		},
		"methodIdentifiers": {
			"initializeFund()": "72b823c3",
			"initialized()": "158ef93e",
			"issuer()": "1d143848",
			"maxOracleDelay()": "52f1edcc",
			"mintPaused()": "7e4831d3",
			"mintWithUSDC(uint256,uint256)": "47082dac",
			"navPerTokenUSD18()": "675a5c0b",
			"oracle()": "7dc0d1d0",
			"owner()": "8da5cb5b",
			"previewMintWithUSDC(uint256)": "c40d111c",
			"previewRedeem(uint256)": "4cdad506",
			"redeem(uint256,uint256)": "7cbc2373",
			"redeemPaused()": "b235d468",
			"renounceOwnership()": "715018a6",
			"requestRedeem(uint256)": "aa2f892d",
			"rwaToken()": "0c5bf351",
			"setIssuer(address)": "55cc4e57",
			"setMaxOracleDelay(uint256)": "cd3b691c",
			"setMintPaused(bool)": "b6935501",
			"setOracle(address)": "7adbf973",
			"setRedeemPaused(bool)": "ccb99c26",
			"totalBackingValueUSD18()": "8e827cb5",
			"transferOwnership(address)": "f2fde38b",
			"usdc()": "3e413bee",
			"vaultUSDCBalance()": "bc34e6da"
		}
	},
	"abi": [
		{
			"inputs": [
				{
					"internalType": "address",
					"name": "_oracle",
					"type": "address"
				},
				{
					"internalType": "address",
					"name": "_usdc",
					"type": "address"
				},
				{
					"internalType": "address",
					"name": "_rwaToken",
					"type": "address"
				},
				{
					"internalType": "address",
					"name": "_issuer",
					"type": "address"
				},
				{
					"internalType": "uint256",
					"name": "_initialNAVUSD18",
					"type": "uint256"
				},
				{
					"internalType": "uint256",
					"name": "_maxOracleDelay",
					"type": "uint256"
				}
			],
			"stateMutability": "nonpayable",
			"type": "constructor"
		},
		{
			"inputs": [
				{
					"internalType": "address",
					"name": "owner",
					"type": "address"
				}
			],
			"name": "OwnableInvalidOwner",
			"type": "error"
		},
		{
			"inputs": [
				{
					"internalType": "address",
					"name": "account",
					"type": "address"
				}
			],
			"name": "OwnableUnauthorizedAccount",
			"type": "error"
		},
		{
			"inputs": [],
			"name": "ReentrancyGuardReentrantCall",
			"type": "error"
		},
		{
			"inputs": [
				{
					"internalType": "address",
					"name": "token",
					"type": "address"
				}
			],
			"name": "SafeERC20FailedOperation",
			"type": "error"
		},
		{
			"anonymous": false,
			"inputs": [
				{
					"indexed": true,
					"internalType": "address",
					"name": "issuer",
					"type": "address"
				},
				{
					"indexed": false,
					"internalType": "uint256",
					"name": "adjustedOffchainReserveUSD18",
					"type": "uint256"
				},
				{
					"indexed": false,
					"internalType": "uint256",
					"name": "initialNAVUSD18",
					"type": "uint256"
				},
				{
					"indexed": false,
					"internalType": "uint256",
					"name": "initialSupply",
					"type": "uint256"
				}
			],
			"name": "FundInitialized",
			"type": "event"
		},
		{
			"anonymous": false,
			"inputs": [
				{
					"indexed": true,
					"internalType": "address",
					"name": "issuer",
					"type": "address"
				}
			],
			"name": "IssuerSet",
			"type": "event"
		},
		{
			"anonymous": false,
			"inputs": [
				{
					"indexed": false,
					"internalType": "uint256",
					"name": "maxOracleDelay",
					"type": "uint256"
				}
			],
			"name": "MaxOracleDelaySet",
			"type": "event"
		},
		{
			"anonymous": false,
			"inputs": [
				{
					"indexed": false,
					"internalType": "bool",
					"name": "paused",
					"type": "bool"
				}
			],
			"name": "MintPausedSet",
			"type": "event"
		},
		{
			"anonymous": false,
			"inputs": [
				{
					"indexed": true,
					"internalType": "address",
					"name": "user",
					"type": "address"
				},
				{
					"indexed": false,
					"internalType": "uint256",
					"name": "usdcPaid",
					"type": "uint256"
				},
				{
					"indexed": false,
					"internalType": "uint256",
					"name": "navUSD18",
					"type": "uint256"
				},
				{
					"indexed": false,
					"internalType": "uint256",
					"name": "rwaMinted",
					"type": "uint256"
				}
			],
			"name": "Minted",
			"type": "event"
		},
		{
			"anonymous": false,
			"inputs": [
				{
					"indexed": true,
					"internalType": "address",
					"name": "oracle",
					"type": "address"
				}
			],
			"name": "OracleSet",
			"type": "event"
		},
		{
			"anonymous": false,
			"inputs": [
				{
					"indexed": true,
					"internalType": "address",
					"name": "previousOwner",
					"type": "address"
				},
				{
					"indexed": true,
					"internalType": "address",
					"name": "newOwner",
					"type": "address"
				}
			],
			"name": "OwnershipTransferred",
			"type": "event"
		},
		{
			"anonymous": false,
			"inputs": [
				{
					"indexed": false,
					"internalType": "bool",
					"name": "paused",
					"type": "bool"
				}
			],
			"name": "RedeemPausedSet",
			"type": "event"
		},
		{
			"anonymous": false,
			"inputs": [
				{
					"indexed": true,
					"internalType": "address",
					"name": "user",
					"type": "address"
				},
				{
					"indexed": false,
					"internalType": "uint256",
					"name": "rwaBurned",
					"type": "uint256"
				},
				{
					"indexed": false,
					"internalType": "uint256",
					"name": "navUSD18",
					"type": "uint256"
				},
				{
					"indexed": false,
					"internalType": "uint256",
					"name": "usdcPaid",
					"type": "uint256"
				}
			],
			"name": "Redeemed",
			"type": "event"
		},
		{
			"anonymous": false,
			"inputs": [
				{
					"indexed": true,
					"internalType": "address",
					"name": "user",
					"type": "address"
				},
				{
					"indexed": false,
					"internalType": "uint256",
					"name": "rwaAmount",
					"type": "uint256"
				},
				{
					"indexed": false,
					"internalType": "uint256",
					"name": "navUSD18",
					"type": "uint256"
				},
				{
					"indexed": false,
					"internalType": "uint256",
					"name": "expectedUSDCAmount",
					"type": "uint256"
				}
			],
			"name": "RedemptionRequested",
			"type": "event"
		},
		{
			"inputs": [],
			"name": "initializeFund",
			"outputs": [],
			"stateMutability": "nonpayable",
			"type": "function"
		},
		{
			"inputs": [],
			"name": "initialized",
			"outputs": [
				{
					"internalType": "bool",
					"name": "",
					"type": "bool"
				}
			],
			"stateMutability": "view",
			"type": "function"
		},
		{
			"inputs": [],
			"name": "issuer",
			"outputs": [
				{
					"internalType": "address",
					"name": "",
					"type": "address"
				}
			],
			"stateMutability": "view",
			"type": "function"
		},
		{
			"inputs": [],
			"name": "maxOracleDelay",
			"outputs": [
				{
					"internalType": "uint256",
					"name": "",
					"type": "uint256"
				}
			],
			"stateMutability": "view",
			"type": "function"
		},
		{
			"inputs": [],
			"name": "mintPaused",
			"outputs": [
				{
					"internalType": "bool",
					"name": "",
					"type": "bool"
				}
			],
			"stateMutability": "view",
			"type": "function"
		},
		{
			"inputs": [
				{
					"internalType": "uint256",
					"name": "maxUSDCIn",
					"type": "uint256"
				},
				{
					"internalType": "uint256",
					"name": "minRwaOut",
					"type": "uint256"
				}
			],
			"name": "mintWithUSDC",
			"outputs": [
				{
					"internalType": "uint256",
					"name": "rwaAmount",
					"type": "uint256"
				},
				{
					"internalType": "uint256",
					"name": "usdcRequired",
					"type": "uint256"
				}
			],
			"stateMutability": "nonpayable",
			"type": "function"
		},
		{
			"inputs": [],
			"name": "navPerTokenUSD18",
			"outputs": [
				{
					"internalType": "uint256",
					"name": "",
					"type": "uint256"
				}
			],
			"stateMutability": "view",
			"type": "function"
		},
		{
			"inputs": [],
			"name": "oracle",
			"outputs": [
				{
					"internalType": "contract IReserveOracle",
					"name": "",
					"type": "address"
				}
			],
			"stateMutability": "view",
			"type": "function"
		},
		{
			"inputs": [],
			"name": "owner",
			"outputs": [
				{
					"internalType": "address",
					"name": "",
					"type": "address"
				}
			],
			"stateMutability": "view",
			"type": "function"
		},
		{
			"inputs": [
				{
					"internalType": "uint256",
					"name": "maxUSDCIn",
					"type": "uint256"
				}
			],
			"name": "previewMintWithUSDC",
			"outputs": [
				{
					"internalType": "uint256",
					"name": "rwaAmount",
					"type": "uint256"
				},
				{
					"internalType": "uint256",
					"name": "usdcRequired",
					"type": "uint256"
				}
			],
			"stateMutability": "view",
			"type": "function"
		},
		{
			"inputs": [
				{
					"internalType": "uint256",
					"name": "maxRwaIn",
					"type": "uint256"
				}
			],
			"name": "previewRedeem",
			"outputs": [
				{
					"internalType": "uint256",
					"name": "rwaRequired",
					"type": "uint256"
				},
				{
					"internalType": "uint256",
					"name": "usdcAmount",
					"type": "uint256"
				}
			],
			"stateMutability": "view",
			"type": "function"
		},
		{
			"inputs": [
				{
					"internalType": "uint256",
					"name": "maxRwaIn",
					"type": "uint256"
				},
				{
					"internalType": "uint256",
					"name": "minUSDCOut",
					"type": "uint256"
				}
			],
			"name": "redeem",
			"outputs": [
				{
					"internalType": "uint256",
					"name": "rwaRequired",
					"type": "uint256"
				},
				{
					"internalType": "uint256",
					"name": "usdcAmount",
					"type": "uint256"
				}
			],
			"stateMutability": "nonpayable",
			"type": "function"
		},
		{
			"inputs": [],
			"name": "redeemPaused",
			"outputs": [
				{
					"internalType": "bool",
					"name": "",
					"type": "bool"
				}
			],
			"stateMutability": "view",
			"type": "function"
		},
		{
			"inputs": [],
			"name": "renounceOwnership",
			"outputs": [],
			"stateMutability": "nonpayable",
			"type": "function"
		},
		{
			"inputs": [
				{
					"internalType": "uint256",
					"name": "maxRwaIn",
					"type": "uint256"
				}
			],
			"name": "requestRedeem",
			"outputs": [],
			"stateMutability": "nonpayable",
			"type": "function"
		},
		{
			"inputs": [],
			"name": "rwaToken",
			"outputs": [
				{
					"internalType": "contract IRWAToken",
					"name": "",
					"type": "address"
				}
			],
			"stateMutability": "view",
			"type": "function"
		},
		{
			"inputs": [
				{
					"internalType": "address",
					"name": "_issuer",
					"type": "address"
				}
			],
			"name": "setIssuer",
			"outputs": [],
			"stateMutability": "nonpayable",
			"type": "function"
		},
		{
			"inputs": [
				{
					"internalType": "uint256",
					"name": "_maxOracleDelay",
					"type": "uint256"
				}
			],
			"name": "setMaxOracleDelay",
			"outputs": [],
			"stateMutability": "nonpayable",
			"type": "function"
		},
		{
			"inputs": [
				{
					"internalType": "bool",
					"name": "paused",
					"type": "bool"
				}
			],
			"name": "setMintPaused",
			"outputs": [],
			"stateMutability": "nonpayable",
			"type": "function"
		},
		{
			"inputs": [
				{
					"internalType": "address",
					"name": "_oracle",
					"type": "address"
				}
			],
			"name": "setOracle",
			"outputs": [],
			"stateMutability": "nonpayable",
			"type": "function"
		},
		{
			"inputs": [
				{
					"internalType": "bool",
					"name": "paused",
					"type": "bool"
				}
			],
			"name": "setRedeemPaused",
			"outputs": [],
			"stateMutability": "nonpayable",
			"type": "function"
		},
		{
			"inputs": [],
			"name": "totalBackingValueUSD18",
			"outputs": [
				{
					"internalType": "uint256",
					"name": "",
					"type": "uint256"
				}
			],
			"stateMutability": "view",
			"type": "function"
		},
		{
			"inputs": [
				{
					"internalType": "address",
					"name": "newOwner",
					"type": "address"
				}
			],
			"name": "transferOwnership",
			"outputs": [],
			"stateMutability": "nonpayable",
			"type": "function"
		},
		{
			"inputs": [],
			"name": "usdc",
			"outputs": [
				{
					"internalType": "contract IERC20",
					"name": "",
					"type": "address"
				}
			],
			"stateMutability": "view",
			"type": "function"
		},
		{
			"inputs": [],
			"name": "vaultUSDCBalance",
			"outputs": [
				{
					"internalType": "uint256",
					"name": "",
					"type": "uint256"
				}
			],
			"stateMutability": "view",
			"type": "function"
		}
	]
}