{
	"data": {
		"bytecode": {
			"linkReferences": {},
			"object": "60e060405234801561000f575f5ffd5b50604051611ac5380380611ac583398101604081905261002e916100ee565b836001600160a01b03811661005c57604051631e4fbdf760e01b81525f600482015260240160405180910390fd5b61006581610084565b506001600160a01b0392831660805290821660a0521660c0525061013f565b5f80546001600160a01b038381166001600160a01b0319831681178455604051919092169283917f8be0079c531659141344cd1fd0a4f28419497f9722a3daafe3b4186f6b6457e09190a35050565b80516001600160a01b03811681146100e9575f5ffd5b919050565b5f5f5f5f60808587031215610101575f5ffd5b61010a856100d3565b9350610118602086016100d3565b9250610126604086016100d3565b9150610134606086016100d3565b905092959194509250565b60805160a05160c0516118836102425f395f81816101c0015281816103eb015281816104da0152818161061f01528181610735015281816109bb01528181610ab301528181610b3c01528181610c520152610d3a01525f818161012401528181610596015281816105cb0152818161070701528181610a7e01528181610ae801528181610c2401528181610ed801528181610f0d0152818161109f015261126601525f818161030f01528181610414015281816105ed015281816106410152818161067d01528181610895015281816109e401528181610b0a01528181610b5e01528181610b9a01528181610dfb01528181610f2f0152610f6b01526118835ff3fe6080604052600436106100e7575f3560e01c806375c67c6611610087578063acf69e2711610057578063acf69e27146102ad578063b04cc8b1146102cc578063f2fde38b146102df578063f887ea40146102fe575f5ffd5b806375c67c6614610215578063889d5a82146102535780638da5cb5b1461027257806396d3b83d1461028e575f5ffd5b80632f622e6b116100c25780632f622e6b1461019057806357970e93146101af5780636108d8ee146101e2578063715018a614610201575f5ffd5b806301e33667146100f25780630c5bf351146101135780632cb49f5314610163575f5ffd5b366100ee57005b5f5ffd5b3480156100fd575f5ffd5b5061011161010c366004611605565b610331565b005b34801561011e575f5ffd5b506101467f000000000000000000000000000000000000000000000000000000000000000081565b6040516001600160a01b0390911681526020015b60405180910390f35b34801561016e575f5ffd5b5061018261017d36600461165f565b610352565b60405190815260200161015a565b34801561019b575f5ffd5b506101116101aa36600461167a565b6107aa565b3480156101ba575f5ffd5b506101467f000000000000000000000000000000000000000000000000000000000000000081565b3480156101ed575f5ffd5b506101826101fc36600461165f565b610855565b34801561020c575f5ffd5b50610111610914565b348015610220575f5ffd5b5061024361022f36600461169c565b60016020525f908152604090205460ff1681565b604051901515815260200161015a565b34801561025e575f5ffd5b5061018261026d36600461165f565b610927565b34801561027d575f5ffd5b505f546001600160a01b0316610146565b348015610299575f5ffd5b506101116102a83660046116b5565b610cca565b3480156102b8575f5ffd5b506101826102c736600461165f565b610d31565b6101826102da36600461165f565b610d5e565b3480156102ea575f5ffd5b506101116102f936600461167a565b611111565b348015610309575f5ffd5b506101467f000000000000000000000000000000000000000000000000000000000000000081565b610339611167565b61034d6001600160a01b03841683836111ac565b505050565b67ffffffffffffffff83165f9081526001602052604081205460ff1661039c57604051630a503cdb60e01b815267ffffffffffffffff851660048201526024015b60405180910390fd5b6001600160a01b0383166103c357604051631e4ec46b60e01b815260040160405180910390fd5b815f036103e35760405163162908e360e11b815260040160405180910390fd5b5f61040f84847f00000000000000000000000000000000000000000000000000000000000000006111e1565b90505f7f00000000000000000000000000000000000000000000000000000000000000006001600160a01b03166320487ded87846040518363ffffffff1660e01b815260040161046092919061171c565b602060405180830381865afa15801561047b573d5f5f3e3d5ffd5b505050506040513d601f19601f8201168201806040525081019061049f91906117fd565b6040517f70a082310000000000000000000000000000000000000000000000000000000081523060048201529091505f906001600160a01b037f000000000000000000000000000000000000000000000000000000000000000016906370a0823190602401602060405180830381865afa15801561051f573d5f5f3e3d5ffd5b505050506040513d601f19601f8201168201806040525081019061054391906117fd565b905081811015610589576040517f363e01630000000000000000000000000000000000000000000000000000000081526004810182905260248101839052604401610393565b6105be6001600160a01b037f000000000000000000000000000000000000000000000000000000000000000016333088611398565b6106126001600160a01b037f0000000000000000000000000000000000000000000000000000000000000000167f0000000000000000000000000000000000000000000000000000000000000000876113d4565b6106666001600160a01b037f0000000000000000000000000000000000000000000000000000000000000000167f0000000000000000000000000000000000000000000000000000000000000000846113d4565b6040516396f4e9f960e01b81526001600160a01b037f000000000000000000000000000000000000000000000000000000000000000016906396f4e9f9906106b4908a90879060040161171c565b6020604051808303815f875af11580156106d0573d5f5f3e3d5ffd5b505050506040513d601f19601f820116820180604052508101906106f491906117fd565b604080516001600160a01b0389811682527f0000000000000000000000000000000000000000000000000000000000000000811660208301528183018990527f0000000000000000000000000000000000000000000000000000000000000000166060820152608081018590529051919550339167ffffffffffffffff8a169187917f0ba6886260b2f34f69769ff5fb57fb1a7cd762254a78d55e4fdb6683dda91b359181900360a00190a45050509392505050565b6107b2611167565b5f816001600160a01b0316476040515f6040518083038185875af1925050503d805f81146107fb576040519150601f19603f3d011682016040523d82523d5f602084013e610800565b606091505b50509050806108515760405162461bcd60e51b815260206004820152601060248201527f5472616e73666572206661696c65642e000000000000000000000000000000006044820152606401610393565b5050565b5f5f61086284845f6111e1565b6040517f20487ded0000000000000000000000000000000000000000000000000000000081529091506001600160a01b037f000000000000000000000000000000000000000000000000000000000000000016906320487ded906108cc908890859060040161171c565b602060405180830381865afa1580156108e7573d5f5f3e3d5ffd5b505050506040513d601f19601f8201168201806040525081019061090b91906117fd565b95945050505050565b61091c611167565b6109255f611426565b565b67ffffffffffffffff83165f9081526001602052604081205460ff1661096c57604051630a503cdb60e01b815267ffffffffffffffff85166004820152602401610393565b6001600160a01b03831661099357604051631e4ec46b60e01b815260040160405180910390fd5b815f036109b35760405163162908e360e11b815260040160405180910390fd5b5f6109df84847f00000000000000000000000000000000000000000000000000000000000000006111e1565b90505f7f00000000000000000000000000000000000000000000000000000000000000006001600160a01b03166320487ded87846040518363ffffffff1660e01b8152600401610a3092919061171c565b602060405180830381865afa158015610a4b573d5f5f3e3d5ffd5b505050506040513d601f19601f82011682018060405250810190610a6f91906117fd565b9050610aa66001600160a01b037f000000000000000000000000000000000000000000000000000000000000000016333087611398565b610adb6001600160a01b037f000000000000000000000000000000000000000000000000000000000000000016333084611398565b610b2f6001600160a01b037f0000000000000000000000000000000000000000000000000000000000000000167f0000000000000000000000000000000000000000000000000000000000000000866113d4565b610b836001600160a01b037f0000000000000000000000000000000000000000000000000000000000000000167f0000000000000000000000000000000000000000000000000000000000000000836113d4565b6040516396f4e9f960e01b81526001600160a01b037f000000000000000000000000000000000000000000000000000000000000000016906396f4e9f990610bd1908990869060040161171c565b6020604051808303815f875af1158015610bed573d5f5f3e3d5ffd5b505050506040513d601f19601f82011682018060405250810190610c1191906117fd565b604080516001600160a01b0388811682527f0000000000000000000000000000000000000000000000000000000000000000811660208301529181018790527f0000000000000000000000000000000000000000000000000000000000000000909116606082015260808101839052909350339067ffffffffffffffff88169085907f0ba6886260b2f34f69769ff5fb57fb1a7cd762254a78d55e4fdb6683dda91b359060a0015b60405180910390a450509392505050565b610cd2611167565b67ffffffffffffffff82165f81815260016020908152604091829020805460ff191685151590811790915591519182527f9e831877a5c5b0c6bf39118c59f437de0882033ff7d60a84dbc1f453584a0d11910160405180910390a25050565b5f5f61086284847f00000000000000000000000000000000000000000000000000000000000000006111e1565b67ffffffffffffffff83165f9081526001602052604081205460ff16610da357604051630a503cdb60e01b815267ffffffffffffffff85166004820152602401610393565b6001600160a01b038316610dca57604051631e4ec46b60e01b815260040160405180910390fd5b815f03610dea5760405163162908e360e11b815260040160405180910390fd5b5f610df684845f6111e1565b90505f7f00000000000000000000000000000000000000000000000000000000000000006001600160a01b03166320487ded87846040518363ffffffff1660e01b8152600401610e4792919061171c565b602060405180830381865afa158015610e62573d5f5f3e3d5ffd5b505050506040513d601f19601f82011682018060405250810190610e8691906117fd565b905080341015610ecb576040517f93fcc51000000000000000000000000000000000000000000000000000000000815234600482015260248101829052604401610393565b610f006001600160a01b037f000000000000000000000000000000000000000000000000000000000000000016333087611398565b610f546001600160a01b037f0000000000000000000000000000000000000000000000000000000000000000167f0000000000000000000000000000000000000000000000000000000000000000866113d4565b6040516396f4e9f960e01b81526001600160a01b037f000000000000000000000000000000000000000000000000000000000000000016906396f4e9f9908390610fa4908a90879060040161171c565b60206040518083038185885af1158015610fc0573d5f5f3e3d5ffd5b50505050506040513d601f19601f82011682018060405250810190610fe591906117fd565b92508034111561108c575f33610ffb8334611814565b6040515f81818185875af1925050503d805f8114611034576040519150601f19603f3d011682016040523d82523d5f602084013e611039565b606091505b505090508061108a5760405162461bcd60e51b815260206004820152601060248201527f5472616e73666572206661696c65642e000000000000000000000000000000006044820152606401610393565b505b604080516001600160a01b0387811682527f00000000000000000000000000000000000000000000000000000000000000001660208201529081018590525f606082015260808101829052339067ffffffffffffffff88169085907f0ba6886260b2f34f69769ff5fb57fb1a7cd762254a78d55e4fdb6683dda91b359060a001610cb9565b611119611167565b6001600160a01b03811661115b576040517f1e4fbdf70000000000000000000000000000000000000000000000000000000081525f6004820152602401610393565b61116481611426565b50565b5f546001600160a01b03163314610925576040517f118cdaa7000000000000000000000000000000000000000000000000000000008152336004820152602401610393565b6111b9838383600161148d565b61034d57604051635274afe760e01b81526001600160a01b0384166004820152602401610393565b61121b6040518060a001604052806060815260200160608152602001606081526020015f6001600160a01b03168152602001606081525090565b6040805160018082528183019092525f91816020015b604080518082019091525f808252602082015281526020019060019003908161123157905050905060405180604001604052807f00000000000000000000000000000000000000000000000000000000000000006001600160a01b0316815260200185815250815f815181106112a9576112a9611839565b60209081029190910101526040805160a081019091526001600160a01b03861660c08201528060e08101604051602081830303815290604052815260200160405180602001604052805f8152508152602001828152602001846001600160a01b0316815260200161138d60405180602001604052805f81525060408051915160248084019190915281518084039091018152604490920190526020810180517bffffffffffffffffffffffffffffffffffffffffffffffffffffffff167f97a657c90000000000000000000000000000000000000000000000000000000017905290565b905295945050505050565b6113a6848484846001611508565b6113ce57604051635274afe760e01b81526001600160a01b0385166004820152602401610393565b50505050565b6113e08383835f61158e565b61034d576113f183835f600161158e565b61141957604051635274afe760e01b81526001600160a01b0384166004820152602401610393565b6111b9838383600161158e565b5f80546001600160a01b038381167fffffffffffffffffffffffff0000000000000000000000000000000000000000831681178455604051919092169283917f8be0079c531659141344cd1fd0a4f28419497f9722a3daafe3b4186f6b6457e09190a35050565b6040517fa9059cbb000000000000000000000000000000000000000000000000000000005f8181526001600160a01b038616600452602485905291602083604481808b5af1925060015f511483166114fc5783831516156114f0573d5f823e3d81fd5b5f873b113d1516831692505b60405250949350505050565b6040517f23b872dd000000000000000000000000000000000000000000000000000000005f8181526001600160a01b038781166004528616602452604485905291602083606481808c5af1925060015f5114831661157d578383151615611571573d5f823e3d81fd5b5f883b113d1516831692505b604052505f60605295945050505050565b6040517f095ea7b3000000000000000000000000000000000000000000000000000000005f8181526001600160a01b038616600452602485905291602083604481808b5af1925060015f511483166114fc5783831516156114f0573d5f823e3d81fd5b6001600160a01b0381168114611164575f5ffd5b5f5f5f60608486031215611617575f5ffd5b8335611622816115f1565b92506020840135611632816115f1565b929592945050506040919091013590565b803567ffffffffffffffff8116811461165a575f5ffd5b919050565b5f5f5f60608486031215611671575f5ffd5b61162284611643565b5f6020828403121561168a575f5ffd5b8135611695816115f1565b9392505050565b5f602082840312156116ac575f5ffd5b61169582611643565b5f5f604083850312156116c6575f5ffd5b6116cf83611643565b9150602083013580151581146116e3575f5ffd5b809150509250929050565b5f81518084528060208401602086015e5f602082860101526020601f19601f83011685010191505092915050565b67ffffffffffffffff83168152604060208201525f825160a0604084015261174760e08401826116ee565b90506020840151603f1984830301606085015261176482826116ee565b6040860151858203603f190160808701528051808352602091820194505f93509101905b808310156117c15783516001600160a01b0381511683526020810151602084015250604082019150602084019350600183019250611788565b5060608601516001600160a01b031660a08601526080860151858203603f190160c087015292506117f281846116ee565b979650505050505050565b5f6020828403121561180d575f5ffd5b5051919050565b8181038181111561183357634e487b7160e01b5f52601160045260245ffd5b92915050565b634e487b7160e01b5f52603260045260245ffdfea2646970667358221220df84aa16c6482812e622fd107868298608bc16580446688987cc0ee40142dcbc64736f6c634300081b0033",
			"opcodes": "PUSH1 0xE0 PUSH1 0x40 MSTORE CALLVALUE DUP1 ISZERO PUSH2 0xF JUMPI PUSH0 PUSH0 REVERT JUMPDEST POP PUSH1 0x40 MLOAD PUSH2 0x1AC5 CODESIZE SUB DUP1 PUSH2 0x1AC5 DUP4 CODECOPY DUP2 ADD PUSH1 0x40 DUP2 SWAP1 MSTORE PUSH2 0x2E SWAP2 PUSH2 0xEE JUMP JUMPDEST DUP4 PUSH1 0x1 PUSH1 0x1 PUSH1 0xA0 SHL SUB DUP2 AND PUSH2 0x5C JUMPI PUSH1 0x40 MLOAD PUSH4 0x1E4FBDF7 PUSH1 0xE0 SHL DUP2 MSTORE PUSH0 PUSH1 0x4 DUP3 ADD MSTORE PUSH1 0x24 ADD PUSH1 0x40 MLOAD DUP1 SWAP2 SUB SWAP1 REVERT JUMPDEST PUSH2 0x65 DUP2 PUSH2 0x84 JUMP JUMPDEST POP PUSH1 0x1 PUSH1 0x1 PUSH1 0xA0 SHL SUB SWAP3 DUP4 AND PUSH1 0x80 MSTORE SWAP1 DUP3 AND PUSH1 0xA0 MSTORE AND PUSH1 0xC0 MSTORE POP PUSH2 0x13F JUMP JUMPDEST PUSH0 DUP1 SLOAD PUSH1 0x1 PUSH1 0x1 PUSH1 0xA0 SHL SUB DUP4 DUP2 AND PUSH1 0x1 PUSH1 0x1 PUSH1 0xA0 SHL SUB NOT DUP4 AND DUP2 OR DUP5 SSTORE PUSH1 0x40 MLOAD SWAP2 SWAP1 SWAP3 AND SWAP3 DUP4 SWAP2 PUSH32 0x8BE0079C531659141344CD1FD0A4F28419497F9722A3DAAFE3B4186F6B6457E0 SWAP2 SWAP1 LOG3 POP POP JUMP JUMPDEST DUP1 MLOAD PUSH1 0x1 PUSH1 0x1 PUSH1 0xA0 SHL SUB DUP2 AND DUP2 EQ PUSH2 0xE9 JUMPI PUSH0 PUSH0 REVERT JUMPDEST SWAP2 SWAP1 POP JUMP JUMPDEST PUSH0 PUSH0 PUSH0 PUSH0 PUSH1 0x80 DUP6 DUP8 SUB SLT ISZERO PUSH2 0x101 JUMPI PUSH0 PUSH0 REVERT JUMPDEST PUSH2 0x10A DUP6 PUSH2 0xD3 JUMP JUMPDEST SWAP4 POP PUSH2 0x118 PUSH1 0x20 DUP7 ADD PUSH2 0xD3 JUMP JUMPDEST SWAP3 POP PUSH2 0x126 PUSH1 0x40 DUP7 ADD PUSH2 0xD3 JUMP JUMPDEST SWAP2 POP PUSH2 0x134 PUSH1 0x60 DUP7 ADD PUSH2 0xD3 JUMP JUMPDEST SWAP1 POP SWAP3 SWAP6 SWAP2 SWAP5 POP SWAP3 POP JUMP JUMPDEST PUSH1 0x80 MLOAD PUSH1 0xA0 MLOAD PUSH1 0xC0 MLOAD PUSH2 0x1883 PUSH2 0x242 PUSH0 CODECOPY PUSH0 DUP2 DUP2 PUSH2 0x1C0 ADD MSTORE DUP2 DUP2 PUSH2 0x3EB ADD MSTORE DUP2 DUP2 PUSH2 0x4DA ADD MSTORE DUP2 DUP2 PUSH2 0x61F ADD MSTORE DUP2 DUP2 PUSH2 0x735 ADD MSTORE DUP2 DUP2 PUSH2 0x9BB ADD MSTORE DUP2 DUP2 PUSH2 0xAB3 ADD MSTORE DUP2 DUP2 PUSH2 0xB3C ADD MSTORE DUP2 DUP2 PUSH2 0xC52 ADD MSTORE PUSH2 0xD3A ADD MSTORE PUSH0 DUP2 DUP2 PUSH2 0x124 ADD MSTORE DUP2 DUP2 PUSH2 0x596 ADD MSTORE DUP2 DUP2 PUSH2 0x5CB ADD MSTORE DUP2 DUP2 PUSH2 0x707 ADD MSTORE DUP2 DUP2 PUSH2 0xA7E ADD MSTORE DUP2 DUP2 PUSH2 0xAE8 ADD MSTORE DUP2 DUP2 PUSH2 0xC24 ADD MSTORE DUP2 DUP2 PUSH2 0xED8 ADD MSTORE DUP2 DUP2 PUSH2 0xF0D ADD MSTORE DUP2 DUP2 PUSH2 0x109F ADD MSTORE PUSH2 0x1266 ADD MSTORE PUSH0 DUP2 DUP2 PUSH2 0x30F ADD MSTORE DUP2 DUP2 PUSH2 0x414 ADD MSTORE DUP2 DUP2 PUSH2 0x5ED ADD MSTORE DUP2 DUP2 PUSH2 0x641 ADD MSTORE DUP2 DUP2 PUSH2 0x67D ADD MSTORE DUP2 DUP2 PUSH2 0x895 ADD MSTORE DUP2 DUP2 PUSH2 0x9E4 ADD MSTORE DUP2 DUP2 PUSH2 0xB0A ADD MSTORE DUP2 DUP2 PUSH2 0xB5E ADD MSTORE DUP2 DUP2 PUSH2 0xB9A ADD MSTORE DUP2 DUP2 PUSH2 0xDFB ADD MSTORE DUP2 DUP2 PUSH2 0xF2F ADD MSTORE PUSH2 0xF6B ADD MSTORE PUSH2 0x1883 PUSH0 RETURN INVALID PUSH1 0x80 PUSH1 0x40 MSTORE PUSH1 0x4 CALLDATASIZE LT PUSH2 0xE7 JUMPI PUSH0 CALLDATALOAD PUSH1 0xE0 SHR DUP1 PUSH4 0x75C67C66 GT PUSH2 0x87 JUMPI DUP1 PUSH4 0xACF69E27 GT PUSH2 0x57 JUMPI DUP1 PUSH4 0xACF69E27 EQ PUSH2 0x2AD JUMPI DUP1 PUSH4 0xB04CC8B1 EQ PUSH2 0x2CC JUMPI DUP1 PUSH4 0xF2FDE38B EQ PUSH2 0x2DF JUMPI DUP1 PUSH4 0xF887EA40 EQ PUSH2 0x2FE JUMPI PUSH0 PUSH0 REVERT JUMPDEST DUP1 PUSH4 0x75C67C66 EQ PUSH2 0x215 JUMPI DUP1 PUSH4 0x889D5A82 EQ PUSH2 0x253 JUMPI DUP1 PUSH4 0x8DA5CB5B EQ PUSH2 0x272 JUMPI DUP1 PUSH4 0x96D3B83D EQ PUSH2 0x28E JUMPI PUSH0 PUSH0 REVERT JUMPDEST DUP1 PUSH4 0x2F622E6B GT PUSH2 0xC2 JUMPI DUP1 PUSH4 0x2F622E6B EQ PUSH2 0x190 JUMPI DUP1 PUSH4 0x57970E93 EQ PUSH2 0x1AF JUMPI DUP1 PUSH4 0x6108D8EE EQ PUSH2 0x1E2 JUMPI DUP1 PUSH4 0x715018A6 EQ PUSH2 0x201 JUMPI PUSH0 PUSH0 REVERT JUMPDEST DUP1 PUSH4 0x1E33667 EQ PUSH2 0xF2 JUMPI DUP1 PUSH4 0xC5BF351 EQ PUSH2 0x113 JUMPI DUP1 PUSH4 0x2CB49F53 EQ PUSH2 0x163 JUMPI PUSH0 PUSH0 REVERT JUMPDEST CALLDATASIZE PUSH2 0xEE JUMPI STOP JUMPDEST PUSH0 PUSH0 REVERT JUMPDEST CALLVALUE DUP1 ISZERO PUSH2 0xFD JUMPI PUSH0 PUSH0 REVERT JUMPDEST POP PUSH2 0x111 PUSH2 0x10C CALLDATASIZE PUSH1 0x4 PUSH2 0x1605 JUMP JUMPDEST PUSH2 0x331 JUMP JUMPDEST STOP JUMPDEST CALLVALUE DUP1 ISZERO PUSH2 0x11E JUMPI PUSH0 PUSH0 REVERT JUMPDEST POP PUSH2 0x146 PUSH32 0x0 DUP2 JUMP JUMPDEST PUSH1 0x40 MLOAD PUSH1 0x1 PUSH1 0x1 PUSH1 0xA0 SHL SUB SWAP1 SWAP2 AND DUP2 MSTORE PUSH1 0x20 ADD JUMPDEST PUSH1 0x40 MLOAD DUP1 SWAP2 SUB SWAP1 RETURN JUMPDEST CALLVALUE DUP1 ISZERO PUSH2 0x16E JUMPI PUSH0 PUSH0 REVERT JUMPDEST POP PUSH2 0x182 PUSH2 0x17D CALLDATASIZE PUSH1 0x4 PUSH2 0x165F JUMP JUMPDEST PUSH2 0x352 JUMP JUMPDEST PUSH1 0x40 MLOAD SWAP1 DUP2 MSTORE PUSH1 0x20 ADD PUSH2 0x15A JUMP JUMPDEST CALLVALUE DUP1 ISZERO PUSH2 0x19B JUMPI PUSH0 PUSH0 REVERT JUMPDEST POP PUSH2 0x111 PUSH2 0x1AA CALLDATASIZE PUSH1 0x4 PUSH2 0x167A JUMP JUMPDEST PUSH2 0x7AA JUMP JUMPDEST CALLVALUE DUP1 ISZERO PUSH2 0x1BA JUMPI PUSH0 PUSH0 REVERT JUMPDEST POP PUSH2 0x146 PUSH32 0x0 DUP2 JUMP JUMPDEST CALLVALUE DUP1 ISZERO PUSH2 0x1ED JUMPI PUSH0 PUSH0 REVERT JUMPDEST POP PUSH2 0x182 PUSH2 0x1FC CALLDATASIZE PUSH1 0x4 PUSH2 0x165F JUMP JUMPDEST PUSH2 0x855 JUMP JUMPDEST CALLVALUE DUP1 ISZERO PUSH2 0x20C JUMPI PUSH0 PUSH0 REVERT JUMPDEST POP PUSH2 0x111 PUSH2 0x914 JUMP JUMPDEST CALLVALUE DUP1 ISZERO PUSH2 0x220 JUMPI PUSH0 PUSH0 REVERT JUMPDEST POP PUSH2 0x243 PUSH2 0x22F CALLDATASIZE PUSH1 0x4 PUSH2 0x169C JUMP JUMPDEST PUSH1 0x1 PUSH1 0x20 MSTORE PUSH0 SWAP1 DUP2 MSTORE PUSH1 0x40 SWAP1 KECCAK256 SLOAD PUSH1 0xFF AND DUP2 JUMP JUMPDEST PUSH1 0x40 MLOAD SWAP1 ISZERO ISZERO DUP2 MSTORE PUSH1 0x20 ADD PUSH2 0x15A JUMP JUMPDEST CALLVALUE DUP1 ISZERO PUSH2 0x25E JUMPI PUSH0 PUSH0 REVERT JUMPDEST POP PUSH2 0x182 PUSH2 0x26D CALLDATASIZE PUSH1 0x4 PUSH2 0x165F JUMP JUMPDEST PUSH2 0x927 JUMP JUMPDEST CALLVALUE DUP1 ISZERO PUSH2 0x27D JUMPI PUSH0 PUSH0 REVERT JUMPDEST POP PUSH0 SLOAD PUSH1 0x1 PUSH1 0x1 PUSH1 0xA0 SHL SUB AND PUSH2 0x146 JUMP JUMPDEST CALLVALUE DUP1 ISZERO PUSH2 0x299 JUMPI PUSH0 PUSH0 REVERT JUMPDEST POP PUSH2 0x111 PUSH2 0x2A8 CALLDATASIZE PUSH1 0x4 PUSH2 0x16B5 JUMP JUMPDEST PUSH2 0xCCA JUMP JUMPDEST CALLVALUE DUP1 ISZERO PUSH2 0x2B8 JUMPI PUSH0 PUSH0 REVERT JUMPDEST POP PUSH2 0x182 PUSH2 0x2C7 CALLDATASIZE PUSH1 0x4 PUSH2 0x165F JUMP JUMPDEST PUSH2 0xD31 JUMP JUMPDEST PUSH2 0x182 PUSH2 0x2DA CALLDATASIZE PUSH1 0x4 PUSH2 0x165F JUMP JUMPDEST PUSH2 0xD5E JUMP JUMPDEST CALLVALUE DUP1 ISZERO PUSH2 0x2EA JUMPI PUSH0 PUSH0 REVERT JUMPDEST POP PUSH2 0x111 PUSH2 0x2F9 CALLDATASIZE PUSH1 0x4 PUSH2 0x167A JUMP JUMPDEST PUSH2 0x1111 JUMP JUMPDEST CALLVALUE DUP1 ISZERO PUSH2 0x309 JUMPI PUSH0 PUSH0 REVERT JUMPDEST POP PUSH2 0x146 PUSH32 0x0 DUP2 JUMP JUMPDEST PUSH2 0x339 PUSH2 0x1167 JUMP JUMPDEST PUSH2 0x34D PUSH1 0x1 PUSH1 0x1 PUSH1 0xA0 SHL SUB DUP5 AND DUP4 DUP4 PUSH2 0x11AC JUMP JUMPDEST POP POP POP JUMP JUMPDEST PUSH8 0xFFFFFFFFFFFFFFFF DUP4 AND PUSH0 SWAP1 DUP2 MSTORE PUSH1 0x1 PUSH1 0x20 MSTORE PUSH1 0x40 DUP2 KECCAK256 SLOAD PUSH1 0xFF AND PUSH2 0x39C JUMPI PUSH1 0x40 MLOAD PUSH4 0xA503CDB PUSH1 0xE0 SHL DUP2 MSTORE PUSH8 0xFFFFFFFFFFFFFFFF DUP6 AND PUSH1 0x4 DUP3 ADD MSTORE PUSH1 0x24 ADD JUMPDEST PUSH1 0x40 MLOAD DUP1 SWAP2 SUB SWAP1 REVERT JUMPDEST PUSH1 0x1 PUSH1 0x1 PUSH1 0xA0 SHL SUB DUP4 AND PUSH2 0x3C3 JUMPI PUSH1 0x40 MLOAD PUSH4 0x1E4EC46B PUSH1 0xE0 SHL DUP2 MSTORE PUSH1 0x4 ADD PUSH1 0x40 MLOAD DUP1 SWAP2 SUB SWAP1 REVERT JUMPDEST DUP2 PUSH0 SUB PUSH2 0x3E3 JUMPI PUSH1 0x40 MLOAD PUSH4 0x162908E3 PUSH1 0xE1 SHL DUP2 MSTORE PUSH1 0x4 ADD PUSH1 0x40 MLOAD DUP1 SWAP2 SUB SWAP1 REVERT JUMPDEST PUSH0 PUSH2 0x40F DUP5 DUP5 PUSH32 0x0 PUSH2 0x11E1 JUMP JUMPDEST SWAP1 POP PUSH0 PUSH32 0x0 PUSH1 0x1 PUSH1 0x1 PUSH1 0xA0 SHL SUB AND PUSH4 0x20487DED DUP8 DUP5 PUSH1 0x40 MLOAD DUP4 PUSH4 0xFFFFFFFF AND PUSH1 0xE0 SHL DUP2 MSTORE PUSH1 0x4 ADD PUSH2 0x460 SWAP3 SWAP2 SWAP1 PUSH2 0x171C JUMP JUMPDEST PUSH1 0x20 PUSH1 0x40 MLOAD DUP1 DUP4 SUB DUP2 DUP7 GAS STATICCALL ISZERO DUP1 ISZERO PUSH2 0x47B JUMPI RETURNDATASIZE PUSH0 PUSH0 RETURNDATACOPY RETURNDATASIZE PUSH0 REVERT JUMPDEST POP POP POP POP PUSH1 0x40 MLOAD RETURNDATASIZE PUSH1 0x1F NOT PUSH1 0x1F DUP3 ADD AND DUP3 ADD DUP1 PUSH1 0x40 MSTORE POP DUP2 ADD SWAP1 PUSH2 0x49F SWAP2 SWAP1 PUSH2 0x17FD JUMP JUMPDEST PUSH1 0x40 MLOAD PUSH32 0x70A0823100000000000000000000000000000000000000000000000000000000 DUP2 MSTORE ADDRESS PUSH1 0x4 DUP3 ADD MSTORE SWAP1 SWAP2 POP PUSH0 SWAP1 PUSH1 0x1 PUSH1 0x1 PUSH1 0xA0 SHL SUB PUSH32 0x0 AND SWAP1 PUSH4 0x70A08231 SWAP1 PUSH1 0x24 ADD PUSH1 0x20 PUSH1 0x40 MLOAD DUP1 DUP4 SUB DUP2 DUP7 GAS STATICCALL ISZERO DUP1 ISZERO PUSH2 0x51F JUMPI RETURNDATASIZE PUSH0 PUSH0 RETURNDATACOPY RETURNDATASIZE PUSH0 REVERT JUMPDEST POP POP POP POP PUSH1 0x40 MLOAD RETURNDATASIZE PUSH1 0x1F NOT PUSH1 0x1F DUP3 ADD AND DUP3 ADD DUP1 PUSH1 0x40 MSTORE POP DUP2 ADD SWAP1 PUSH2 0x543 SWAP2 SWAP1 PUSH2 0x17FD JUMP JUMPDEST SWAP1 POP DUP2 DUP2 LT ISZERO PUSH2 0x589 JUMPI PUSH1 0x40 MLOAD PUSH32 0x363E016300000000000000000000000000000000000000000000000000000000 DUP2 MSTORE PUSH1 0x4 DUP2 ADD DUP3 SWAP1 MSTORE PUSH1 0x24 DUP2 ADD DUP4 SWAP1 MSTORE PUSH1 0x44 ADD PUSH2 0x393 JUMP JUMPDEST PUSH2 0x5BE PUSH1 0x1 PUSH1 0x1 PUSH1 0xA0 SHL SUB PUSH32 0x0 AND CALLER ADDRESS DUP9 PUSH2 0x1398 JUMP JUMPDEST PUSH2 0x612 PUSH1 0x1 PUSH1 0x1 PUSH1 0xA0 SHL SUB PUSH32 0x0 AND PUSH32 0x0 DUP8 PUSH2 0x13D4 JUMP JUMPDEST PUSH2 0x666 PUSH1 0x1 PUSH1 0x1 PUSH1 0xA0 SHL SUB PUSH32 0x0 AND PUSH32 0x0 DUP5 PUSH2 0x13D4 JUMP JUMPDEST PUSH1 0x40 MLOAD PUSH4 0x96F4E9F9 PUSH1 0xE0 SHL DUP2 MSTORE PUSH1 0x1 PUSH1 0x1 PUSH1 0xA0 SHL SUB PUSH32 0x0 AND SWAP1 PUSH4 0x96F4E9F9 SWAP1 PUSH2 0x6B4 SWAP1 DUP11 SWAP1 DUP8 SWAP1 PUSH1 0x4 ADD PUSH2 0x171C JUMP JUMPDEST PUSH1 0x20 PUSH1 0x40 MLOAD DUP1 DUP4 SUB DUP2 PUSH0 DUP8 GAS CALL ISZERO DUP1 ISZERO PUSH2 0x6D0 JUMPI RETURNDATASIZE PUSH0 PUSH0 RETURNDATACOPY RETURNDATASIZE PUSH0 REVERT JUMPDEST POP POP POP POP PUSH1 0x40 MLOAD RETURNDATASIZE PUSH1 0x1F NOT PUSH1 0x1F DUP3 ADD AND DUP3 ADD DUP1 PUSH1 0x40 MSTORE POP DUP2 ADD SWAP1 PUSH2 0x6F4 SWAP2 SWAP1 PUSH2 0x17FD JUMP JUMPDEST PUSH1 0x40 DUP1 MLOAD PUSH1 0x1 PUSH1 0x1 PUSH1 0xA0 SHL SUB DUP10 DUP2 AND DUP3 MSTORE PUSH32 0x0 DUP2 AND PUSH1 0x20 DUP4 ADD MSTORE DUP2 DUP4 ADD DUP10 SWAP1 MSTORE PUSH32 0x0 AND PUSH1 0x60 DUP3 ADD MSTORE PUSH1 0x80 DUP2 ADD DUP6 SWAP1 MSTORE SWAP1 MLOAD SWAP2 SWAP6 POP CALLER SWAP2 PUSH8 0xFFFFFFFFFFFFFFFF DUP11 AND SWAP2 DUP8 SWAP2 PUSH32 0xBA6886260B2F34F69769FF5FB57FB1A7CD762254A78D55E4FDB6683DDA91B35 SWAP2 DUP2 SWAP1 SUB PUSH1 0xA0 ADD SWAP1 LOG4 POP POP POP SWAP4 SWAP3 POP POP POP JUMP JUMPDEST PUSH2 0x7B2 PUSH2 0x1167 JUMP JUMPDEST PUSH0 DUP2 PUSH1 0x1 PUSH1 0x1 PUSH1 0xA0 SHL SUB AND SELFBALANCE PUSH1 0x40 MLOAD PUSH0 PUSH1 0x40 MLOAD DUP1 DUP4 SUB DUP2 DUP6 DUP8 GAS CALL SWAP3 POP POP POP RETURNDATASIZE DUP1 PUSH0 DUP2 EQ PUSH2 0x7FB JUMPI PUSH1 0x40 MLOAD SWAP2 POP PUSH1 0x1F NOT PUSH1 0x3F RETURNDATASIZE ADD AND DUP3 ADD PUSH1 0x40 MSTORE RETURNDATASIZE DUP3 MSTORE RETURNDATASIZE PUSH0 PUSH1 0x20 DUP5 ADD RETURNDATACOPY PUSH2 0x800 JUMP JUMPDEST PUSH1 0x60 SWAP2 POP JUMPDEST POP POP SWAP1 POP DUP1 PUSH2 0x851 JUMPI PUSH1 0x40 MLOAD PUSH3 0x461BCD PUSH1 0xE5 SHL DUP2 MSTORE PUSH1 0x20 PUSH1 0x4 DUP3 ADD MSTORE PUSH1 0x10 PUSH1 0x24 DUP3 ADD MSTORE PUSH32 0x5472616E73666572206661696C65642E00000000000000000000000000000000 PUSH1 0x44 DUP3 ADD MSTORE PUSH1 0x64 ADD PUSH2 0x393 JUMP JUMPDEST POP POP JUMP JUMPDEST PUSH0 PUSH0 PUSH2 0x862 DUP5 DUP5 PUSH0 PUSH2 0x11E1 JUMP JUMPDEST PUSH1 0x40 MLOAD PUSH32 0x20487DED00000000000000000000000000000000000000000000000000000000 DUP2 MSTORE SWAP1 SWAP2 POP PUSH1 0x1 PUSH1 0x1 PUSH1 0xA0 SHL SUB PUSH32 0x0 AND SWAP1 PUSH4 0x20487DED SWAP1 PUSH2 0x8CC SWAP1 DUP9 SWAP1 DUP6 SWAP1 PUSH1 0x4 ADD PUSH2 0x171C JUMP JUMPDEST PUSH1 0x20 PUSH1 0x40 MLOAD DUP1 DUP4 SUB DUP2 DUP7 GAS STATICCALL ISZERO DUP1 ISZERO PUSH2 0x8E7 JUMPI RETURNDATASIZE PUSH0 PUSH0 RETURNDATACOPY RETURNDATASIZE PUSH0 REVERT JUMPDEST POP POP POP POP PUSH1 0x40 MLOAD RETURNDATASIZE PUSH1 0x1F NOT PUSH1 0x1F DUP3 ADD AND DUP3 ADD DUP1 PUSH1 0x40 MSTORE POP DUP2 ADD SWAP1 PUSH2 0x90B SWAP2 SWAP1 PUSH2 0x17FD JUMP JUMPDEST SWAP6 SWAP5 POP POP POP POP POP JUMP JUMPDEST PUSH2 0x91C PUSH2 0x1167 JUMP JUMPDEST PUSH2 0x925 PUSH0 PUSH2 0x1426 JUMP JUMPDEST JUMP JUMPDEST PUSH8 0xFFFFFFFFFFFFFFFF DUP4 AND PUSH0 SWAP1 DUP2 MSTORE PUSH1 0x1 PUSH1 0x20 MSTORE PUSH1 0x40 DUP2 KECCAK256 SLOAD PUSH1 0xFF AND PUSH2 0x96C JUMPI PUSH1 0x40 MLOAD PUSH4 0xA503CDB PUSH1 0xE0 SHL DUP2 MSTORE PUSH8 0xFFFFFFFFFFFFFFFF DUP6 AND PUSH1 0x4 DUP3 ADD MSTORE PUSH1 0x24 ADD PUSH2 0x393 JUMP JUMPDEST PUSH1 0x1 PUSH1 0x1 PUSH1 0xA0 SHL SUB DUP4 AND PUSH2 0x993 JUMPI PUSH1 0x40 MLOAD PUSH4 0x1E4EC46B PUSH1 0xE0 SHL DUP2 MSTORE PUSH1 0x4 ADD PUSH1 0x40 MLOAD DUP1 SWAP2 SUB SWAP1 REVERT JUMPDEST DUP2 PUSH0 SUB PUSH2 0x9B3 JUMPI PUSH1 0x40 MLOAD PUSH4 0x162908E3 PUSH1 0xE1 SHL DUP2 MSTORE PUSH1 0x4 ADD PUSH1 0x40 MLOAD DUP1 SWAP2 SUB SWAP1 REVERT JUMPDEST PUSH0 PUSH2 0x9DF DUP5 DUP5 PUSH32 0x0 PUSH2 0x11E1 JUMP JUMPDEST SWAP1 POP PUSH0 PUSH32 0x0 PUSH1 0x1 PUSH1 0x1 PUSH1 0xA0 SHL SUB AND PUSH4 0x20487DED DUP8 DUP5 PUSH1 0x40 MLOAD DUP4 PUSH4 0xFFFFFFFF AND PUSH1 0xE0 SHL DUP2 MSTORE PUSH1 0x4 ADD PUSH2 0xA30 SWAP3 SWAP2 SWAP1 PUSH2 0x171C JUMP JUMPDEST PUSH1 0x20 PUSH1 0x40 MLOAD DUP1 DUP4 SUB DUP2 DUP7 GAS STATICCALL ISZERO DUP1 ISZERO PUSH2 0xA4B JUMPI RETURNDATASIZE PUSH0 PUSH0 RETURNDATACOPY RETURNDATASIZE PUSH0 REVERT JUMPDEST POP POP POP POP PUSH1 0x40 MLOAD RETURNDATASIZE PUSH1 0x1F NOT PUSH1 0x1F DUP3 ADD AND DUP3 ADD DUP1 PUSH1 0x40 MSTORE POP DUP2 ADD SWAP1 PUSH2 0xA6F SWAP2 SWAP1 PUSH2 0x17FD JUMP JUMPDEST SWAP1 POP PUSH2 0xAA6 PUSH1 0x1 PUSH1 0x1 PUSH1 0xA0 SHL SUB PUSH32 0x0 AND CALLER ADDRESS DUP8 PUSH2 0x1398 JUMP JUMPDEST PUSH2 0xADB PUSH1 0x1 PUSH1 0x1 PUSH1 0xA0 SHL SUB PUSH32 0x0 AND CALLER ADDRESS DUP5 PUSH2 0x1398 JUMP JUMPDEST PUSH2 0xB2F PUSH1 0x1 PUSH1 0x1 PUSH1 0xA0 SHL SUB PUSH32 0x0 AND PUSH32 0x0 DUP7 PUSH2 0x13D4 JUMP JUMPDEST PUSH2 0xB83 PUSH1 0x1 PUSH1 0x1 PUSH1 0xA0 SHL SUB PUSH32 0x0 AND PUSH32 0x0 DUP4 PUSH2 0x13D4 JUMP JUMPDEST PUSH1 0x40 MLOAD PUSH4 0x96F4E9F9 PUSH1 0xE0 SHL DUP2 MSTORE PUSH1 0x1 PUSH1 0x1 PUSH1 0xA0 SHL SUB PUSH32 0x0 AND SWAP1 PUSH4 0x96F4E9F9 SWAP1 PUSH2 0xBD1 SWAP1 DUP10 SWAP1 DUP7 SWAP1 PUSH1 0x4 ADD PUSH2 0x171C JUMP JUMPDEST PUSH1 0x20 PUSH1 0x40 MLOAD DUP1 DUP4 SUB DUP2 PUSH0 DUP8 GAS CALL ISZERO DUP1 ISZERO PUSH2 0xBED JUMPI RETURNDATASIZE PUSH0 PUSH0 RETURNDATACOPY RETURNDATASIZE PUSH0 REVERT JUMPDEST POP POP POP POP PUSH1 0x40 MLOAD RETURNDATASIZE PUSH1 0x1F NOT PUSH1 0x1F DUP3 ADD AND DUP3 ADD DUP1 PUSH1 0x40 MSTORE POP DUP2 ADD SWAP1 PUSH2 0xC11 SWAP2 SWAP1 PUSH2 0x17FD JUMP JUMPDEST PUSH1 0x40 DUP1 MLOAD PUSH1 0x1 PUSH1 0x1 PUSH1 0xA0 SHL SUB DUP9 DUP2 AND DUP3 MSTORE PUSH32 0x0 DUP2 AND PUSH1 0x20 DUP4 ADD MSTORE SWAP2 DUP2 ADD DUP8 SWAP1 MSTORE PUSH32 0x0 SWAP1 SWAP2 AND PUSH1 0x60 DUP3 ADD MSTORE PUSH1 0x80 DUP2 ADD DUP4 SWAP1 MSTORE SWAP1 SWAP4 POP CALLER SWAP1 PUSH8 0xFFFFFFFFFFFFFFFF DUP9 AND SWAP1 DUP6 SWAP1 PUSH32 0xBA6886260B2F34F69769FF5FB57FB1A7CD762254A78D55E4FDB6683DDA91B35 SWAP1 PUSH1 0xA0 ADD JUMPDEST PUSH1 0x40 MLOAD DUP1 SWAP2 SUB SWAP1 LOG4 POP POP SWAP4 SWAP3 POP POP POP JUMP JUMPDEST PUSH2 0xCD2 PUSH2 0x1167 JUMP JUMPDEST PUSH8 0xFFFFFFFFFFFFFFFF DUP3 AND PUSH0 DUP2 DUP2 MSTORE PUSH1 0x1 PUSH1 0x20 SWAP1 DUP2 MSTORE PUSH1 0x40 SWAP2 DUP3 SWAP1 KECCAK256 DUP1 SLOAD PUSH1 0xFF NOT AND DUP6 ISZERO ISZERO SWAP1 DUP2 OR SWAP1 SWAP2 SSTORE SWAP2 MLOAD SWAP2 DUP3 MSTORE PUSH32 0x9E831877A5C5B0C6BF39118C59F437DE0882033FF7D60A84DBC1F453584A0D11 SWAP2 ADD PUSH1 0x40 MLOAD DUP1 SWAP2 SUB SWAP1 LOG2 POP POP JUMP JUMPDEST PUSH0 PUSH0 PUSH2 0x862 DUP5 DUP5 PUSH32 0x0 PUSH2 0x11E1 JUMP JUMPDEST PUSH8 0xFFFFFFFFFFFFFFFF DUP4 AND PUSH0 SWAP1 DUP2 MSTORE PUSH1 0x1 PUSH1 0x20 MSTORE PUSH1 0x40 DUP2 KECCAK256 SLOAD PUSH1 0xFF AND PUSH2 0xDA3 JUMPI PUSH1 0x40 MLOAD PUSH4 0xA503CDB PUSH1 0xE0 SHL DUP2 MSTORE PUSH8 0xFFFFFFFFFFFFFFFF DUP6 AND PUSH1 0x4 DUP3 ADD MSTORE PUSH1 0x24 ADD PUSH2 0x393 JUMP JUMPDEST PUSH1 0x1 PUSH1 0x1 PUSH1 0xA0 SHL SUB DUP4 AND PUSH2 0xDCA JUMPI PUSH1 0x40 MLOAD PUSH4 0x1E4EC46B PUSH1 0xE0 SHL DUP2 MSTORE PUSH1 0x4 ADD PUSH1 0x40 MLOAD DUP1 SWAP2 SUB SWAP1 REVERT JUMPDEST DUP2 PUSH0 SUB PUSH2 0xDEA JUMPI PUSH1 0x40 MLOAD PUSH4 0x162908E3 PUSH1 0xE1 SHL DUP2 MSTORE PUSH1 0x4 ADD PUSH1 0x40 MLOAD DUP1 SWAP2 SUB SWAP1 REVERT JUMPDEST PUSH0 PUSH2 0xDF6 DUP5 DUP5 PUSH0 PUSH2 0x11E1 JUMP JUMPDEST SWAP1 POP PUSH0 PUSH32 0x0 PUSH1 0x1 PUSH1 0x1 PUSH1 0xA0 SHL SUB AND PUSH4 0x20487DED DUP8 DUP5 PUSH1 0x40 MLOAD DUP4 PUSH4 0xFFFFFFFF AND PUSH1 0xE0 SHL DUP2 MSTORE PUSH1 0x4 ADD PUSH2 0xE47 SWAP3 SWAP2 SWAP1 PUSH2 0x171C JUMP JUMPDEST PUSH1 0x20 PUSH1 0x40 MLOAD DUP1 DUP4 SUB DUP2 DUP7 GAS STATICCALL ISZERO DUP1 ISZERO PUSH2 0xE62 JUMPI RETURNDATASIZE PUSH0 PUSH0 RETURNDATACOPY RETURNDATASIZE PUSH0 REVERT JUMPDEST POP POP POP POP PUSH1 0x40 MLOAD RETURNDATASIZE PUSH1 0x1F NOT PUSH1 0x1F DUP3 ADD AND DUP3 ADD DUP1 PUSH1 0x40 MSTORE POP DUP2 ADD SWAP1 PUSH2 0xE86 SWAP2 SWAP1 PUSH2 0x17FD JUMP JUMPDEST SWAP1 POP DUP1 CALLVALUE LT ISZERO PUSH2 0xECB JUMPI PUSH1 0x40 MLOAD PUSH32 0x93FCC51000000000000000000000000000000000000000000000000000000000 DUP2 MSTORE CALLVALUE PUSH1 0x4 DUP3 ADD MSTORE PUSH1 0x24 DUP2 ADD DUP3 SWAP1 MSTORE PUSH1 0x44 ADD PUSH2 0x393 JUMP JUMPDEST PUSH2 0xF00 PUSH1 0x1 PUSH1 0x1 PUSH1 0xA0 SHL SUB PUSH32 0x0 AND CALLER ADDRESS DUP8 PUSH2 0x1398 JUMP JUMPDEST PUSH2 0xF54 PUSH1 0x1 PUSH1 0x1 PUSH1 0xA0 SHL SUB PUSH32 0x0 AND PUSH32 0x0 DUP7 PUSH2 0x13D4 JUMP JUMPDEST PUSH1 0x40 MLOAD PUSH4 0x96F4E9F9 PUSH1 0xE0 SHL DUP2 MSTORE PUSH1 0x1 PUSH1 0x1 PUSH1 0xA0 SHL SUB PUSH32 0x0 AND SWAP1 PUSH4 0x96F4E9F9 SWAP1 DUP4 SWAP1 PUSH2 0xFA4 SWAP1 DUP11 SWAP1 DUP8 SWAP1 PUSH1 0x4 ADD PUSH2 0x171C JUMP JUMPDEST PUSH1 0x20 PUSH1 0x40 MLOAD DUP1 DUP4 SUB DUP2 DUP6 DUP9 GAS CALL ISZERO DUP1 ISZERO PUSH2 0xFC0 JUMPI RETURNDATASIZE PUSH0 PUSH0 RETURNDATACOPY RETURNDATASIZE PUSH0 REVERT JUMPDEST POP POP POP POP POP PUSH1 0x40 MLOAD RETURNDATASIZE PUSH1 0x1F NOT PUSH1 0x1F DUP3 ADD AND DUP3 ADD DUP1 PUSH1 0x40 MSTORE POP DUP2 ADD SWAP1 PUSH2 0xFE5 SWAP2 SWAP1 PUSH2 0x17FD JUMP JUMPDEST SWAP3 POP DUP1 CALLVALUE GT ISZERO PUSH2 0x108C JUMPI PUSH0 CALLER PUSH2 0xFFB DUP4 CALLVALUE PUSH2 0x1814 JUMP JUMPDEST PUSH1 0x40 MLOAD PUSH0 DUP2 DUP2 DUP2 DUP6 DUP8 GAS CALL SWAP3 POP POP POP RETURNDATASIZE DUP1 PUSH0 DUP2 EQ PUSH2 0x1034 JUMPI PUSH1 0x40 MLOAD SWAP2 POP PUSH1 0x1F NOT PUSH1 0x3F RETURNDATASIZE ADD AND DUP3 ADD PUSH1 0x40 MSTORE RETURNDATASIZE DUP3 MSTORE RETURNDATASIZE PUSH0 PUSH1 0x20 DUP5 ADD RETURNDATACOPY PUSH2 0x1039 JUMP JUMPDEST PUSH1 0x60 SWAP2 POP JUMPDEST POP POP SWAP1 POP DUP1 PUSH2 0x108A JUMPI PUSH1 0x40 MLOAD PUSH3 0x461BCD PUSH1 0xE5 SHL DUP2 MSTORE PUSH1 0x20 PUSH1 0x4 DUP3 ADD MSTORE PUSH1 0x10 PUSH1 0x24 DUP3 ADD MSTORE PUSH32 0x5472616E73666572206661696C65642E00000000000000000000000000000000 PUSH1 0x44 DUP3 ADD MSTORE PUSH1 0x64 ADD PUSH2 0x393 JUMP JUMPDEST POP JUMPDEST PUSH1 0x40 DUP1 MLOAD PUSH1 0x1 PUSH1 0x1 PUSH1 0xA0 SHL SUB DUP8 DUP2 AND DUP3 MSTORE PUSH32 0x0 AND PUSH1 0x20 DUP3 ADD MSTORE SWAP1 DUP2 ADD DUP6 SWAP1 MSTORE PUSH0 PUSH1 0x60 DUP3 ADD MSTORE PUSH1 0x80 DUP2 ADD DUP3 SWAP1 MSTORE CALLER SWAP1 PUSH8 0xFFFFFFFFFFFFFFFF DUP9 AND SWAP1 DUP6 SWAP1 PUSH32 0xBA6886260B2F34F69769FF5FB57FB1A7CD762254A78D55E4FDB6683DDA91B35 SWAP1 PUSH1 0xA0 ADD PUSH2 0xCB9 JUMP JUMPDEST PUSH2 0x1119 PUSH2 0x1167 JUMP JUMPDEST PUSH1 0x1 PUSH1 0x1 PUSH1 0xA0 SHL SUB DUP2 AND PUSH2 0x115B JUMPI PUSH1 0x40 MLOAD PUSH32 0x1E4FBDF700000000000000000000000000000000000000000000000000000000 DUP2 MSTORE PUSH0 PUSH1 0x4 DUP3 ADD MSTORE PUSH1 0x24 ADD PUSH2 0x393 JUMP JUMPDEST PUSH2 0x1164 DUP2 PUSH2 0x1426 JUMP JUMPDEST POP JUMP JUMPDEST PUSH0 SLOAD PUSH1 0x1 PUSH1 0x1 PUSH1 0xA0 SHL SUB AND CALLER EQ PUSH2 0x925 JUMPI PUSH1 0x40 MLOAD PUSH32 0x118CDAA700000000000000000000000000000000000000000000000000000000 DUP2 MSTORE CALLER PUSH1 0x4 DUP3 ADD MSTORE PUSH1 0x24 ADD PUSH2 0x393 JUMP JUMPDEST PUSH2 0x11B9 DUP4 DUP4 DUP4 PUSH1 0x1 PUSH2 0x148D JUMP JUMPDEST PUSH2 0x34D JUMPI PUSH1 0x40 MLOAD PUSH4 0x5274AFE7 PUSH1 0xE0 SHL DUP2 MSTORE PUSH1 0x1 PUSH1 0x1 PUSH1 0xA0 SHL SUB DUP5 AND PUSH1 0x4 DUP3 ADD MSTORE PUSH1 0x24 ADD PUSH2 0x393 JUMP JUMPDEST PUSH2 0x121B PUSH1 0x40 MLOAD DUP1 PUSH1 0xA0 ADD PUSH1 0x40 MSTORE DUP1 PUSH1 0x60 DUP2 MSTORE PUSH1 0x20 ADD PUSH1 0x60 DUP2 MSTORE PUSH1 0x20 ADD PUSH1 0x60 DUP2 MSTORE PUSH1 0x20 ADD PUSH0 PUSH1 0x1 PUSH1 0x1 PUSH1 0xA0 SHL SUB AND DUP2 MSTORE PUSH1 0x20 ADD PUSH1 0x60 DUP2 MSTORE POP SWAP1 JUMP JUMPDEST PUSH1 0x40 DUP1 MLOAD PUSH1 0x1 DUP1 DUP3 MSTORE DUP2 DUP4 ADD SWAP1 SWAP3 MSTORE PUSH0 SWAP2 DUP2 PUSH1 0x20 ADD JUMPDEST PUSH1 0x40 DUP1 MLOAD DUP1 DUP3 ADD SWAP1 SWAP2 MSTORE PUSH0 DUP1 DUP3 MSTORE PUSH1 0x20 DUP3 ADD MSTORE DUP2 MSTORE PUSH1 0x20 ADD SWAP1 PUSH1 0x1 SWAP1 SUB SWAP1 DUP2 PUSH2 0x1231 JUMPI SWAP1 POP POP SWAP1 POP PUSH1 0x40 MLOAD DUP1 PUSH1 0x40 ADD PUSH1 0x40 MSTORE DUP1 PUSH32 0x0 PUSH1 0x1 PUSH1 0x1 PUSH1 0xA0 SHL SUB AND DUP2 MSTORE PUSH1 0x20 ADD DUP6 DUP2 MSTORE POP DUP2 PUSH0 DUP2 MLOAD DUP2 LT PUSH2 0x12A9 JUMPI PUSH2 0x12A9 PUSH2 0x1839 JUMP JUMPDEST PUSH1 0x20 SWAP1 DUP2 MUL SWAP2 SWAP1 SWAP2 ADD ADD MSTORE PUSH1 0x40 DUP1 MLOAD PUSH1 0xA0 DUP2 ADD SWAP1 SWAP2 MSTORE PUSH1 0x1 PUSH1 0x1 PUSH1 0xA0 SHL SUB DUP7 AND PUSH1 0xC0 DUP3 ADD MSTORE DUP1 PUSH1 0xE0 DUP2 ADD PUSH1 0x40 MLOAD PUSH1 0x20 DUP2 DUP4 SUB SUB DUP2 MSTORE SWAP1 PUSH1 0x40 MSTORE DUP2 MSTORE PUSH1 0x20 ADD PUSH1 0x40 MLOAD DUP1 PUSH1 0x20 ADD PUSH1 0x40 MSTORE DUP1 PUSH0 DUP2 MSTORE POP DUP2 MSTORE PUSH1 0x20 ADD DUP3 DUP2 MSTORE PUSH1 0x20 ADD DUP5 PUSH1 0x1 PUSH1 0x1 PUSH1 0xA0 SHL SUB AND DUP2 MSTORE PUSH1 0x20 ADD PUSH2 0x138D PUSH1 0x40 MLOAD DUP1 PUSH1 0x20 ADD PUSH1 0x40 MSTORE DUP1 PUSH0 DUP2 MSTORE POP PUSH1 0x40 DUP1 MLOAD SWAP2 MLOAD PUSH1 0x24 DUP1 DUP5 ADD SWAP2 SWAP1 SWAP2 MSTORE DUP2 MLOAD DUP1 DUP5 SUB SWAP1 SWAP2 ADD DUP2 MSTORE PUSH1 0x44 SWAP1 SWAP3 ADD SWAP1 MSTORE PUSH1 0x20 DUP2 ADD DUP1 MLOAD PUSH28 0xFFFFFFFFFFFFFFFFFFFFFFFFFFFFFFFFFFFFFFFFFFFFFFFFFFFFFFFF AND PUSH32 0x97A657C900000000000000000000000000000000000000000000000000000000 OR SWAP1 MSTORE SWAP1 JUMP JUMPDEST SWAP1 MSTORE SWAP6 SWAP5 POP POP POP POP POP JUMP JUMPDEST PUSH2 0x13A6 DUP5 DUP5 DUP5 DUP5 PUSH1 0x1 PUSH2 0x1508 JUMP JUMPDEST PUSH2 0x13CE JUMPI PUSH1 0x40 MLOAD PUSH4 0x5274AFE7 PUSH1 0xE0 SHL DUP2 MSTORE PUSH1 0x1 PUSH1 0x1 PUSH1 0xA0 SHL SUB DUP6 AND PUSH1 0x4 DUP3 ADD MSTORE PUSH1 0x24 ADD PUSH2 0x393 JUMP JUMPDEST POP POP POP POP JUMP JUMPDEST PUSH2 0x13E0 DUP4 DUP4 DUP4 PUSH0 PUSH2 0x158E JUMP JUMPDEST PUSH2 0x34D JUMPI PUSH2 0x13F1 DUP4 DUP4 PUSH0 PUSH1 0x1 PUSH2 0x158E JUMP JUMPDEST PUSH2 0x1419 JUMPI PUSH1 0x40 MLOAD PUSH4 0x5274AFE7 PUSH1 0xE0 SHL DUP2 MSTORE PUSH1 0x1 PUSH1 0x1 PUSH1 0xA0 SHL SUB DUP5 AND PUSH1 0x4 DUP3 ADD MSTORE PUSH1 0x24 ADD PUSH2 0x393 JUMP JUMPDEST PUSH2 0x11B9 DUP4 DUP4 DUP4 PUSH1 0x1 PUSH2 0x158E JUMP JUMPDEST PUSH0 DUP1 SLOAD PUSH1 0x1 PUSH1 0x1 PUSH1 0xA0 SHL SUB DUP4 DUP2 AND PUSH32 0xFFFFFFFFFFFFFFFFFFFFFFFF0000000000000000000000000000000000000000 DUP4 AND DUP2 OR DUP5 SSTORE PUSH1 0x40 MLOAD SWAP2 SWAP1 SWAP3 AND SWAP3 DUP4 SWAP2 PUSH32 0x8BE0079C531659141344CD1FD0A4F28419497F9722A3DAAFE3B4186F6B6457E0 SWAP2 SWAP1 LOG3 POP POP JUMP JUMPDEST PUSH1 0x40 MLOAD PUSH32 0xA9059CBB00000000000000000000000000000000000000000000000000000000 PUSH0 DUP2 DUP2 MSTORE PUSH1 0x1 PUSH1 0x1 PUSH1 0xA0 SHL SUB DUP7 AND PUSH1 0x4 MSTORE PUSH1 0x24 DUP6 SWAP1 MSTORE SWAP2 PUSH1 0x20 DUP4 PUSH1 0x44 DUP2 DUP1 DUP12 GAS CALL SWAP3 POP PUSH1 0x1 PUSH0 MLOAD EQ DUP4 AND PUSH2 0x14FC JUMPI DUP4 DUP4 ISZERO AND ISZERO PUSH2 0x14F0 JUMPI RETURNDATASIZE PUSH0 DUP3 RETURNDATACOPY RETURNDATASIZE DUP2 REVERT JUMPDEST PUSH0 DUP8 EXTCODESIZE GT RETURNDATASIZE ISZERO AND DUP4 AND SWAP3 POP JUMPDEST PUSH1 0x40 MSTORE POP SWAP5 SWAP4 POP POP POP POP JUMP JUMPDEST PUSH1 0x40 MLOAD PUSH32 0x23B872DD00000000000000000000000000000000000000000000000000000000 PUSH0 DUP2 DUP2 MSTORE PUSH1 0x1 PUSH1 0x1 PUSH1 0xA0 SHL SUB DUP8 DUP2 AND PUSH1 0x4 MSTORE DUP7 AND PUSH1 0x24 MSTORE PUSH1 0x44 DUP6 SWAP1 MSTORE SWAP2 PUSH1 0x20 DUP4 PUSH1 0x64 DUP2 DUP1 DUP13 GAS CALL SWAP3 POP PUSH1 0x1 PUSH0 MLOAD EQ DUP4 AND PUSH2 0x157D JUMPI DUP4 DUP4 ISZERO AND ISZERO PUSH2 0x1571 JUMPI RETURNDATASIZE PUSH0 DUP3 RETURNDATACOPY RETURNDATASIZE DUP2 REVERT JUMPDEST PUSH0 DUP9 EXTCODESIZE GT RETURNDATASIZE ISZERO AND DUP4 AND SWAP3 POP JUMPDEST PUSH1 0x40 MSTORE POP PUSH0 PUSH1 0x60 MSTORE SWAP6 SWAP5 POP POP POP POP POP JUMP JUMPDEST PUSH1 0x40 MLOAD PUSH32 0x95EA7B300000000000000000000000000000000000000000000000000000000 PUSH0 DUP2 DUP2 MSTORE PUSH1 0x1 PUSH1 0x1 PUSH1 0xA0 SHL SUB DUP7 AND PUSH1 0x4 MSTORE PUSH1 0x24 DUP6 SWAP1 MSTORE SWAP2 PUSH1 0x20 DUP4 PUSH1 0x44 DUP2 DUP1 DUP12 GAS CALL SWAP3 POP PUSH1 0x1 PUSH0 MLOAD EQ DUP4 AND PUSH2 0x14FC JUMPI DUP4 DUP4 ISZERO AND ISZERO PUSH2 0x14F0 JUMPI RETURNDATASIZE PUSH0 DUP3 RETURNDATACOPY RETURNDATASIZE DUP2 REVERT JUMPDEST PUSH1 0x1 PUSH1 0x1 PUSH1 0xA0 SHL SUB DUP2 AND DUP2 EQ PUSH2 0x1164 JUMPI PUSH0 PUSH0 REVERT JUMPDEST PUSH0 PUSH0 PUSH0 PUSH1 0x60 DUP5 DUP7 SUB SLT ISZERO PUSH2 0x1617 JUMPI PUSH0 PUSH0 REVERT JUMPDEST DUP4 CALLDATALOAD PUSH2 0x1622 DUP2 PUSH2 0x15F1 JUMP JUMPDEST SWAP3 POP PUSH1 0x20 DUP5 ADD CALLDATALOAD PUSH2 0x1632 DUP2 PUSH2 0x15F1 JUMP JUMPDEST SWAP3 SWAP6 SWAP3 SWAP5 POP POP POP PUSH1 0x40 SWAP2 SWAP1 SWAP2 ADD CALLDATALOAD SWAP1 JUMP JUMPDEST DUP1 CALLDATALOAD PUSH8 0xFFFFFFFFFFFFFFFF DUP2 AND DUP2 EQ PUSH2 0x165A JUMPI PUSH0 PUSH0 REVERT JUMPDEST SWAP2 SWAP1 POP JUMP JUMPDEST PUSH0 PUSH0 PUSH0 PUSH1 0x60 DUP5 DUP7 SUB SLT ISZERO PUSH2 0x1671 JUMPI PUSH0 PUSH0 REVERT JUMPDEST PUSH2 0x1622 DUP5 PUSH2 0x1643 JUMP JUMPDEST PUSH0 PUSH1 0x20 DUP3 DUP5 SUB SLT ISZERO PUSH2 0x168A JUMPI PUSH0 PUSH0 REVERT JUMPDEST DUP2 CALLDATALOAD PUSH2 0x1695 DUP2 PUSH2 0x15F1 JUMP JUMPDEST SWAP4 SWAP3 POP POP POP JUMP JUMPDEST PUSH0 PUSH1 0x20 DUP3 DUP5 SUB SLT ISZERO PUSH2 0x16AC JUMPI PUSH0 PUSH0 REVERT JUMPDEST PUSH2 0x1695 DUP3 PUSH2 0x1643 JUMP JUMPDEST PUSH0 PUSH0 PUSH1 0x40 DUP4 DUP6 SUB SLT ISZERO PUSH2 0x16C6 JUMPI PUSH0 PUSH0 REVERT JUMPDEST PUSH2 0x16CF DUP4 PUSH2 0x1643 JUMP JUMPDEST SWAP2 POP PUSH1 0x20 DUP4 ADD CALLDATALOAD DUP1 ISZERO ISZERO DUP2 EQ PUSH2 0x16E3 JUMPI PUSH0 PUSH0 REVERT JUMPDEST DUP1 SWAP2 POP POP SWAP3 POP SWAP3 SWAP1 POP JUMP JUMPDEST PUSH0 DUP2 MLOAD DUP1 DUP5 MSTORE DUP1 PUSH1 0x20 DUP5 ADD PUSH1 0x20 DUP7 ADD MCOPY PUSH0 PUSH1 0x20 DUP3 DUP7 ADD ADD MSTORE PUSH1 0x20 PUSH1 0x1F NOT PUSH1 0x1F DUP4 ADD AND DUP6 ADD ADD SWAP2 POP POP SWAP3 SWAP2 POP POP JUMP JUMPDEST PUSH8 0xFFFFFFFFFFFFFFFF DUP4 AND DUP2 MSTORE PUSH1 0x40 PUSH1 0x20 DUP3 ADD MSTORE PUSH0 DUP3 MLOAD PUSH1 0xA0 PUSH1 0x40 DUP5 ADD MSTORE PUSH2 0x1747 PUSH1 0xE0 DUP5 ADD DUP3 PUSH2 0x16EE JUMP JUMPDEST SWAP1 POP PUSH1 0x20 DUP5 ADD MLOAD PUSH1 0x3F NOT DUP5 DUP4 SUB ADD PUSH1 0x60 DUP6 ADD MSTORE PUSH2 0x1764 DUP3 DUP3 PUSH2 0x16EE JUMP JUMPDEST PUSH1 0x40 DUP7 ADD MLOAD DUP6 DUP3 SUB PUSH1 0x3F NOT ADD PUSH1 0x80 DUP8 ADD MSTORE DUP1 MLOAD DUP1 DUP4 MSTORE PUSH1 0x20 SWAP2 DUP3 ADD SWAP5 POP PUSH0 SWAP4 POP SWAP2 ADD SWAP1 JUMPDEST DUP1 DUP4 LT ISZERO PUSH2 0x17C1 JUMPI DUP4 MLOAD PUSH1 0x1 PUSH1 0x1 PUSH1 0xA0 SHL SUB DUP2 MLOAD AND DUP4 MSTORE PUSH1 0x20 DUP2 ADD MLOAD PUSH1 0x20 DUP5 ADD MSTORE POP PUSH1 0x40 DUP3 ADD SWAP2 POP PUSH1 0x20 DUP5 ADD SWAP4 POP PUSH1 0x1 DUP4 ADD SWAP3 POP PUSH2 0x1788 JUMP JUMPDEST POP PUSH1 0x60 DUP7 ADD MLOAD PUSH1 0x1 PUSH1 0x1 PUSH1 0xA0 SHL SUB AND PUSH1 0xA0 DUP7 ADD MSTORE PUSH1 0x80 DUP7 ADD MLOAD DUP6 DUP3 SUB PUSH1 0x3F NOT ADD PUSH1 0xC0 DUP8 ADD MSTORE SWAP3 POP PUSH2 0x17F2 DUP2 DUP5 PUSH2 0x16EE JUMP JUMPDEST SWAP8 SWAP7 POP POP POP POP POP POP POP JUMP JUMPDEST PUSH0 PUSH1 0x20 DUP3 DUP5 SUB SLT ISZERO PUSH2 0x180D JUMPI PUSH0 PUSH0 REVERT JUMPDEST POP MLOAD SWAP2 SWAP1 POP JUMP JUMPDEST DUP2 DUP2 SUB DUP2 DUP2 GT ISZERO PUSH2 0x1833 JUMPI PUSH4 0x4E487B71 PUSH1 0xE0 SHL PUSH0 MSTORE PUSH1 0x11 PUSH1 0x4 MSTORE PUSH1 0x24 PUSH0 REVERT JUMPDEST SWAP3 SWAP2 POP POP JUMP JUMPDEST PUSH4 0x4E487B71 PUSH1 0xE0 SHL PUSH0 MSTORE PUSH1 0x32 PUSH1 0x4 MSTORE PUSH1 0x24 PUSH0 REVERT INVALID LOG2 PUSH5 0x6970667358 0x22 SLT KECCAK256 0xDF DUP5 0xAA AND 0xC6 BASEFEE 0x28 SLT 0xE6 0x22 REVERT LT PUSH25 0x68298608BC16580446688987CC0EE40142DCBC64736F6C6343 STOP ADDMOD SHL STOP CALLER "
		},
		"gasEstimates": {
			"creation": {
				"codeDepositCost": "1255000",
				"executionCost": "infinite",
				"totalCost": "infinite"
			},
			"external": {
				"allowlistDestinationChain(uint64,bool)": "28357",
				"allowlistedDestinationChains(uint64)": "2539",
				"getFeePayLINK(uint64,address,uint256)": "infinite",
				"getFeePayNative(uint64,address,uint256)": "infinite",
				"linkToken()": "infinite",
				"owner()": "2385",
				"renounceOwnership()": "infinite",
				"router()": "infinite",
				"rwaToken()": "infinite",
				"sendTokenPayLINK(uint64,address,uint256)": "infinite",
				"sendTokenPayNative(uint64,address,uint256)": "infinite",
				"sendTokenSponsored(uint64,address,uint256)": "infinite",
				"transferOwnership(address)": "infinite",
				"withdrawNative(address)": "infinite",
				"withdrawToken(address,address,uint256)": "infinite"
			},
			"internal": {
				"_buildMessage(address,uint256,address)": "infinite"
			}
		},
		"methodIdentifiers": {
			"allowlistDestinationChain(uint64,bool)": "96d3b83d",
			"allowlistedDestinationChains(uint64)": "75c67c66",
			"getFeePayLINK(uint64,address,uint256)": "acf69e27",
			"getFeePayNative(uint64,address,uint256)": "6108d8ee",
			"linkToken()": "57970e93",
			"owner()": "8da5cb5b",
			"renounceOwnership()": "715018a6",
			"router()": "f887ea40",
			"rwaToken()": "0c5bf351",
			"sendTokenPayLINK(uint64,address,uint256)": "889d5a82",
			"sendTokenPayNative(uint64,address,uint256)": "b04cc8b1",
			"sendTokenSponsored(uint64,address,uint256)": "2cb49f53",
			"transferOwnership(address)": "f2fde38b",
			"withdrawNative(address)": "2f622e6b",
			"withdrawToken(address,address,uint256)": "01e33667"
		}
	},
	"abi": [
		{
			"inputs": [
				{
					"internalType": "address",
					"name": "_owner",
					"type": "address"
				},
				{
					"internalType": "address",
					"name": "_router",
					"type": "address"
				},
				{
					"internalType": "address",
					"name": "_rwaToken",
					"type": "address"
				},
				{
					"internalType": "address",
					"name": "_linkToken",
					"type": "address"
				}
			],
			"stateMutability": "nonpayable",
			"type": "constructor"
		},
		{
			"inputs": [
				{
					"internalType": "uint64",
					"name": "destinationChainSelector",
					"type": "uint64"
				}
			],
			"name": "DestinationChainNotAllowlisted",
			"type": "error"
		},
		{
			"inputs": [],
			"name": "InvalidAmount",
			"type": "error"
		},
		{
			"inputs": [],
			"name": "InvalidReceiver",
			"type": "error"
		},
		{
			"inputs": [
				{
					"internalType": "uint256",
					"name": "currentBalance",
					"type": "uint256"
				},
				{
					"internalType": "uint256",
					"name": "requiredFee",
					"type": "uint256"
				}
			],
			"name": "NotEnoughLinkFee",
			"type": "error"
		},
		{
			"inputs": [
				{
					"internalType": "uint256",
					"name": "sent",
					"type": "uint256"
				},
				{
					"internalType": "uint256",
					"name": "required",
					"type": "uint256"
				}
			],
			"name": "NotEnoughNativeFee",
			"type": "error"
		},
		{
			"inputs": [
				{
					"internalType": "address",
					"name": "owner",
					"type": "address"
				}
			],
			"name": "OwnableInvalidOwner",
			"type": "error"
		},
		{
			"inputs": [
				{
					"internalType": "address",
					"name": "account",
					"type": "address"
				}
			],
			"name": "OwnableUnauthorizedAccount",
			"type": "error"
		},
		{
			"inputs": [
				{
					"internalType": "address",
					"name": "token",
					"type": "address"
				}
			],
			"name": "SafeERC20FailedOperation",
			"type": "error"
		},
		{
			"anonymous": false,
			"inputs": [
				{
					"indexed": true,
					"internalType": "uint64",
					"name": "destinationChainSelector",
					"type": "uint64"
				},
				{
					"indexed": false,
					"internalType": "bool",
					"name": "allowed",
					"type": "bool"
				}
			],
			"name": "DestinationChainAllowlisted",
			"type": "event"
		},
		{
			"anonymous": false,
			"inputs": [
				{
					"indexed": true,
					"internalType": "address",
					"name": "previousOwner",
					"type": "address"
				},
				{
					"indexed": true,
					"internalType": "address",
					"name": "newOwner",
					"type": "address"
				}
			],
			"name": "OwnershipTransferred",
			"type": "event"
		},
		{
			"anonymous": false,
			"inputs": [
				{
					"indexed": true,
					"internalType": "bytes32",
					"name": "messageId",
					"type": "bytes32"
				},
				{
					"indexed": true,
					"internalType": "uint64",
					"name": "destinationChainSelector",
					"type": "uint64"
				},
				{
					"indexed": true,
					"internalType": "address",
					"name": "sender",
					"type": "address"
				},
				{
					"indexed": false,
					"internalType": "address",
					"name": "receiver",
					"type": "address"
				},
				{
					"indexed": false,
					"internalType": "address",
					"name": "token",
					"type": "address"
				},
				{
					"indexed": false,
					"internalType": "uint256",
					"name": "amount",
					"type": "uint256"
				},
				{
					"indexed": false,
					"internalType": "address",
					"name": "feeToken",
					"type": "address"
				},
				{
					"indexed": false,
					"internalType": "uint256",
					"name": "fee",
					"type": "uint256"
				}
			],
			"name": "TokensSent",
			"type": "event"
		},
		{
			"inputs": [
				{
					"internalType": "uint64",
					"name": "destinationChainSelector",
					"type": "uint64"
				},
				{
					"internalType": "bool",
					"name": "allowed",
					"type": "bool"
				}
			],
			"name": "allowlistDestinationChain",
			"outputs": [],
			"stateMutability": "nonpayable",
			"type": "function"
		},
		{
			"inputs": [
				{
					"internalType": "uint64",
					"name": "",
					"type": "uint64"
				}
			],
			"name": "allowlistedDestinationChains",
			"outputs": [
				{
					"internalType": "bool",
					"name": "",
					"type": "bool"
				}
			],
			"stateMutability": "view",
			"type": "function"
		},
		{
			"inputs": [
				{
					"internalType": "uint64",
					"name": "destinationChainSelector",
					"type": "uint64"
				},
				{
					"internalType": "address",
					"name": "receiver",
					"type": "address"
				},
				{
					"internalType": "uint256",
					"name": "amount",
					"type": "uint256"
				}
			],
			"name": "getFeePayLINK",
			"outputs": [
				{
					"internalType": "uint256",
					"name": "fee",
					"type": "uint256"
				}
			],
			"stateMutability": "view",
			"type": "function"
		},
		{
			"inputs": [
				{
					"internalType": "uint64",
					"name": "destinationChainSelector",
					"type": "uint64"
				},
				{
					"internalType": "address",
					"name": "receiver",
					"type": "address"
				},
				{
					"internalType": "uint256",
					"name": "amount",
					"type": "uint256"
				}
			],
			"name": "getFeePayNative",
			"outputs": [
				{
					"internalType": "uint256",
					"name": "fee",
					"type": "uint256"
				}
			],
			"stateMutability": "view",
			"type": "function"
		},
		{
			"inputs": [],
			"name": "linkToken",
			"outputs": [
				{
					"internalType": "contract IERC20",
					"name": "",
					"type": "address"
				}
			],
			"stateMutability": "view",
			"type": "function"
		},
		{
			"inputs": [],
			"name": "owner",
			"outputs": [
				{
					"internalType": "address",
					"name": "",
					"type": "address"
				}
			],
			"stateMutability": "view",
			"type": "function"
		},
		{
			"inputs": [],
			"name": "renounceOwnership",
			"outputs": [],
			"stateMutability": "nonpayable",
			"type": "function"
		},
		{
			"inputs": [],
			"name": "router",
			"outputs": [
				{
					"internalType": "contract IRouterClient",
					"name": "",
					"type": "address"
				}
			],
			"stateMutability": "view",
			"type": "function"
		},
		{
			"inputs": [],
			"name": "rwaToken",
			"outputs": [
				{
					"internalType": "contract IERC20",
					"name": "",
					"type": "address"
				}
			],
			"stateMutability": "view",
			"type": "function"
		},
		{
			"inputs": [
				{
					"internalType": "uint64",
					"name": "destinationChainSelector",
					"type": "uint64"
				},
				{
					"internalType": "address",
					"name": "receiver",
					"type": "address"
				},
				{
					"internalType": "uint256",
					"name": "amount",
					"type": "uint256"
				}
			],
			"name": "sendTokenPayLINK",
			"outputs": [
				{
					"internalType": "bytes32",
					"name": "messageId",
					"type": "bytes32"
				}
			],
			"stateMutability": "nonpayable",
			"type": "function"
		},
		{
			"inputs": [
				{
					"internalType": "uint64",
					"name": "destinationChainSelector",
					"type": "uint64"
				},
				{
					"internalType": "address",
					"name": "receiver",
					"type": "address"
				},
				{
					"internalType": "uint256",
					"name": "amount",
					"type": "uint256"
				}
			],
			"name": "sendTokenPayNative",
			"outputs": [
				{
					"internalType": "bytes32",
					"name": "messageId",
					"type": "bytes32"
				}
			],
			"stateMutability": "payable",
			"type": "function"
		},
		{
			"inputs": [
				{
					"internalType": "uint64",
					"name": "destinationChainSelector",
					"type": "uint64"
				},
				{
					"internalType": "address",
					"name": "receiver",
					"type": "address"
				},
				{
					"internalType": "uint256",
					"name": "amount",
					"type": "uint256"
				}
			],
			"name": "sendTokenSponsored",
			"outputs": [
				{
					"internalType": "bytes32",
					"name": "messageId",
					"type": "bytes32"
				}
			],
			"stateMutability": "nonpayable",
			"type": "function"
		},
		{
			"inputs": [
				{
					"internalType": "address",
					"name": "newOwner",
					"type": "address"
				}
			],
			"name": "transferOwnership",
			"outputs": [],
			"stateMutability": "nonpayable",
			"type": "function"
		},
		{
			"inputs": [
				{
					"internalType": "address payable",
					"name": "to",
					"type": "address"
				}
			],
			"name": "withdrawNative",
			"outputs": [],
			"stateMutability": "nonpayable",
			"type": "function"
		},
		{
			"inputs": [
				{
					"internalType": "address",
					"name": "token",
					"type": "address"
				},
				{
					"internalType": "address",
					"name": "to",
					"type": "address"
				},
				{
					"internalType": "uint256",
					"name": "amount",
					"type": "uint256"
				}
			],
			"name": "withdrawToken",
			"outputs": [],
			"stateMutability": "nonpayable",
			"type": "function"
		},
		{
			"stateMutability": "payable",
			"type": "receive"
		}
	]
}